:1082200041016A0A41019D004101A80041019E00EF
:108230004101A60042019F00004101A7064101AC97
:0D824000034101ABF2C109C10A410169000F
:03000B0002B2A39B
:10B2A300C0E0C083C08290016AE014F0E0640170E2
:10B2B3000690019DE004F09001A0E004F070069078
:0EB2C300019FE004F0C28DD082D083D0E03233
:10B61200E58954F04401F589E4F58CF58AD28C224F
:05B6A700C28DD2A922B2
:03B6B600C2A92204
:0BB6410012B3C6EFF47002EEF460F5E7
:01B64C0022DB
:05AEE5009000A7EFF052
:10AEEA009000A7E0FF12B08CEF3395E04F6024E4A6
:10AEFA009000A8F0A3F0C39000A9E094E89000A8FD
:10AF0A00E0940350DBA3E004F070EB9000A8E004A7
:08AF1A00F080E39000A7E0FFC6
:01AF2200220C
:0EAC4900900027EBF0A3EAF0A3E9F0A3EDF0F2
:10AC5700E4A3F090002AE0FFA3E0C39F50299000EF
:10AC670027E0FBA3E0FAA3E0F9121A24FF12AEE5EE
:10AC770090002CEFF0900028E475F001121AB090C4
:07AC8700002BE004F080CC7B
:01AC8E0022A3
:10B6220012B6B112B66912B64DC283D287C2972240
:10A9F9007D047C007FA812AF649001A9E4F0A3EF65
:10AA0900F07D067C007FA812AF649001A4E4F0A356
:10AA1900EFF07D087C007FA812AF649001A2EFF0EF
:10AA29007D0A7C007FA812AF649001A1EFF07D0E32
:0DAA39007C007FA812AF649001A3EFF02213
:10A1E00012B61212B6A712B2FD12B34F12B622D295
:10A1F000AF12B4E27F217E0012B5B812B5637F6161
:10A2000012AAE212B670209103124B5A12A9F91247
:10A210006502EF70FA90016A7405F020800312B4B1
:10A2200012900169E0FF12381B900169EFF020B332
:10A23000267B017A01794112968E900000EFF0FDA5
:10A240007B017A01794112B0517B017A0179419009
:0CA250000000E0FD123FE3129FE080BF21
:05B6AC004C4956450069
:0E3FE300900001EBF0A3EAF0A3E9F0A3EDF0EB
:103FF1006419705D900001E0FBA3E0FAA3E0F912FF
:104001001A246402704B900002121A3D64487041F8
:10401100900004E07E0024FFF582EE34FFF5831268
:104021001A3D6403702B900001A3A3E02403F9E47B
:104031003AFA126E42EF6003024320900001E0FB66
:10404100A3E0FAA3E02403F9E43AFA129A0102A9DF
:10405100AB900001E0FBA3E0FAA3E0F9121A24649B
:10406100B67028900267E004F0E0D3940474809461
:104071008050030243207FAE12264EC282E490019B
:104081009DF0C297C283900267F022900001E0FB8D
:10409100A3E0FAA3E0F9121A24FF64B76005EF6404
:1040A100AA705390019DE0C39414748094804008D9
:1040B100E4F0C297D282C2839001A2E0600302437E
:1040C100209001A1E064016003024320C39001A09C
:1040D100E0945890019FE094025003024320E4F0E1
:1040E100A3F09001A204F07BFF7AB679AC12AB3554
:1040F100E49001A2F022900001E0FBA3E0FAA3E02A
:10410100F9121A2464B170057F600241D890000150
:10411100E0FBA3E0FAA3E0F9121A2464B270057F70
:104121005D0241D8900004E064017017900001E045
:10413100FBA3E0FAA3E0F9121A2464A170057F5AE7
:104141000241D8900004E064017016900001E0FB88
:10415100A3E0FAA3E0F9121A24640670047FAA808E
:1041610076900004E064017016900001E0FBA3E08A
:10417100FAA3E0F9121A24640770047F5F80589053
:104181000004E064017016900001E0FBA3E0FAA3D3
:10419100E0F9121A24640870047F61803A900004E7
:1041A100E064017016900001E0FBA3E0FAA3E0F9DE
:1041B100121A24640970047FAF801C900004E0642B
:1041C100017017900001E0FBA3E0FAA3E0F9121AD5
:1041D1002464B470057F5E02264E900004E0FF6403
:1041E100137038900001E0FBA3E0FAA3E0F990001E
:1041F10001121A3DB456247E0074FF2FF582EE346D
:10420100FFF583121A3D64037011900001A3A3E02E
:104211002402F9E43AFA7F5B0242E1900004E0FFF4
:10422100640660030242E4900001E0FBA3E0FAA30C
:10423100E0F9121A24640260030242E490000112C0
:104241001A3D645760030242E4FE74FF2FF582EECB
:1042510034FFF583121A3D640360030242E49000C7
:1042610001A3A3900002121A3DFD7B017A0079059A
:1042710012A7919000087420F0900001E0FBA3E0E8
:10428100FAA3E0F9900003121A3DFD900001A3A3E7
:10429100900004121A3D900019F07B017A0079090F
:1042A1001243219001A1E06401702112B101EFF4E8
:1042B10060077FAA12264E80097B017A00790512D8
:1042C1007FA87B017A0079057F5C801412B101EF30
:1042D100F460057FAA12264E7B017A0079057F5C86
:1042E1000248A8900004E0FF640C7033900001E0E4
:1042F100FBA3E0FAA3E0F9121A2464027021FE7410
:10430100FF2FF582EE34FFF583121A3D6403700F1F
:0F431100900001A3A3E02401F9E43AFA1282EE2E
:01432000227A
:0EADE400900032EBF0A3EAF0A3E9F0A3EDF04B
:10ADF200E4A3F0900035E0FFA3E0C39F502490004D
:10AE020032E0FBA3E0FAA3E0F9121A24FF12AAE24D
:10AE1200900033E475F001121AB0900036E004F0AD
:02AE220080D1DD
:01AE2400220B
:0B7FA800900010EBF0A3EAF0A3E9F05A
:107FB3009000317403F090001314F012AD5F900041
:107FC30014EFF0A37453F09001A6E0900031601316
:107FD300E0FF04F074132FF582E43400F583744D4D
:107FE300F08011E0FF04F074132FF582E43400F500
:107FF300837443F09000317404F0900010E0FBA30D
:10800300E0FAA3E0F9121A24FF6021900031E02482
:1080130013F582E43400F583EFF0900011E475F07A
:1080230001121AB0900031E004F080CE900031E0EC
:10803300FF04F074132FF582E43400F583743AF0EF
:10804300900031E02413F9E43400FA7B01125BD68B
:10805300900031E0FF241DF582E43400F583743A87
:10806300F0741E2FF582E43400F5837403F07B0172
:0B8073007A007913EF240CFD02ADE44D
:08000300D29412B6BCC2942293
:05AEA6009000B4EFF084
:10AEAB00E4A3F0A3F09000B4E0FFA2E713F030D7D7
:10AEBB0004D2958002C2951200039000B6E004F014
:10AECB0070069000B5E004F0C39000B6E0940890D3
:09AEDB0000B5E06480948040CCD5
:01AEE400224B
:0A98E100EBF0A3EAF0A3E9F07F8D9D
:0598EB009000B1EFF058
:1098F000D2967F037E0012B5B89000B1E0FF12AEA1
:10990000A6E49000B2F0A3F09000B2E0FCA3E0FD6A
:10991000C39408EC64809480504F30951690026890
:10992000E04480F0ED9406EC648094805005E0FF04
:10993000C313F0209520900268E0547FF0D390008C
:10994000B3E094069000B2E06480948050089002E6
:1099500068E0FFC313F01200039000B3E004F0705E
:10996000A79000B2E004F0809FC296900268E0FFEA
:0199700022D4
:10B32700900013EFF0A3EDF0D2967F037E0012B5E5
:10B33700B8900013E0FF12AEA6900014E0FF900053
:08B3470013F012AEA6C296221B
:10AE2500900011E475F001121AB0900011E475F06C
:10AE350001121AB0900011E475F001121AB09000D9
:10AE450010E0FBA3E0FAA3E0F9121A24FF90000139
:04AE5500121A3DFD93
:0CAE5900EF540FC454F0FFED540F4FFFF6
:01AE650022CA
:106E4200E4FF121A24FEC394305003026F54EED3AF
:106E520094394003026F54900001121A3DFEC3940C
:106E6200305003026F51EED394394003026F5190B8
:106E72000003121A3DFEC394305003026F4EEED34C
:106E820094394003026F4E900004121A3DFEC394DF
:106E9200305003026F56EED394394003026F56907E
:106EA2000008121A3DFEC394305003026F4BEED31A
:106EB20094394003026F4B90000B121A3DFEC394AB
:106EC200305003026F48EED39439507A90000C127E
:106ED2001A3DFEC39430406BEED394395065900056
:106EE2000E121A3DFEC394304056EED394395050E0
:106EF20090000F121A3DFEC394304041EED39439F4
:106F0200503B900011121A3DFEC39430402CEED338
:106F120094395026900012121A3DFEC39430401745
:106F2200EED394395011900014121A3DFEC39430DE
:106F32004022EED39439227F01227F01227F012257
:106F42007F01227F01227F01227F01227F01227F96
:046F520001227F0198
:016F56002218
:0B9A0100900010EBF0A3EAF0A3E9F0E6
:109A0C0012AE43AD077F8612B32712AE25AD077F8A
:109A1C008812B327900011E475F001121AB090006F
:109A2C0011E475F001121AB012AE25AD077F8C123D
:109A3C00B32712AE25AD077F8412B32712AE25AD26
:109A4C00077F8212B32712AE25AD077F8012B32792
:109A5C00900011E475F001121AB0900011E475F049
:109A6C0001121AB0900011E475F001121AB09000B6
:109A7C0010E0FBA3E0FAA3E0F9121A245407FD7FCF
:049A8C008A02B32770
:10B4FB00AE07EEC4540F540FFE6012EF540FFFE46F
:0DB50B00FDEDC39E5007740A2FFF0D80F464
:01B518002210
:10AF2300121A7C90005EE475F001121AB090005D75
:0CAF3300E0FBA3E0FAA3E0F9121A24FFEF
:10AF3F00E4FEFDFCECC39F500B0DED640A7002FDA7
:10AF4F000E0C80F0EEC454F054F0FEED540F4EFF93
:01AF5F0022CF
:0B97BF0090005DEBF0A3EAF0A3E9F0DE
:1097CA0012AF30EF54F0C4540F4430FE900060E002
:1097DA00FBA3E0FAA3E0F9EE121A6AEF540F443041
:1097EA00FF900060E0FBA3E0FAA3E0F9900001EF2C
:1097FA0012AF23EF54F0C4540F4430FE900060E0DF
:10980A00FBA3E0FAA3E0F9900002EE121A7CEF54EF
:10981A000F443090000312AF23EF54F0C4540F44A6
:10982A0030FE900060E0FBA3E0FAA3E0F9900004A8
:10983A00EE121A7CEF540F4430900005121A7C90F5
:06984A000006E4021A7C96
:10A79100E4FFFE900015EDF0900015E0C3946474A1
:10A7A1008094804007E0249CF00F80ECEF4430124D
:10A7B1001A6A740129F9E43AFA900015E0C3940A7F
:10A7C100748094804007E024F6F00E80ECEE443073
:10A7D100121A6A740129F9E43AFA900015E044303A
:0EA7E100121A6A740129F9E43AFAE4021A6ABB
:0E432100900015EBF0A3EAF0A3E9F0A3EDF095
:10432F00E490001AF0A3F090001DF0A3F0A3F0A307
:10433F00F090001CEDF054F0F0E0FFC4540FF0903B
:10434F000025121B59404000007F007E007D807CBD
:10435F0041125D44C004C005C006C00790001CE0B8
:10436F00FCE4121536D003D002D001D0001214266F
:10437F00C004C005C006C00790001AE0FCA3E0FD12
:10438F00E4121531D003D002D001D0001213351230
:10439F00156A90001AEEF0A3EFF0900018E090006D
:1043AF001CF0540FF0900025121B59400000007FA5
:1043BF00007E007D807C41125D44C004C005C006B4
:1043CF00C00790001CE0FCE4121536D003D002D0D9
:1043DF0001D000121426C004C005C006C00790000B
:1043EF001AE0FCA3E0FDE4121531D003D002D00196
:1043FF00D00012133512156A90001AEEF0A3EFF0E9
:10440F00900019E090001CF054F0F0E0FFC4540F3E
:10441F00F0900025121B593F8000007F007E007D29
:10442F00807C41125D44C004C005C006C0079000E7
:10443F001CE0FCE4121536D003D002D001D00012DC
:10444F001426C004C005C006C00790001AE0FCA3E4
:10445F00E0FDE4121531D003D002D001D0001213C9
:10446F003512156A90001AEEF0A3EFF0900019E0E4
:10447F0090001CF0540FF0900025121B5900000003
:10448F00007F007E007D807C41125D44C004C0052A
:10449F00C006C00790001CE0FCE4121536D003D014
:1044AF0002D001D000121426C004C005C006C007F8
:1044BF0090001AE0FCA3E0FDE4121531D003D00206
:1044CF00D001D00012133512156A90001AEEF0A326
:1044DF00EFF0C3EF9410EE9427401074F02FFF7499
:1044EF00D83EFE90001DE004F080E790001DE044F0
:1044FF0030FD900015E0FBA3E0FAA3E0F9ED121AEE
:10450F006A900016E475F001121AB0C3EF94E8EE4A
:10451F009403401074182FFF74FC3EFE90001EE0B1
:10452F0004F080E790001EE04430FD900015E0FBA2
:10453F00A3E0FAA3E0F9ED121A6A900016E475F001
:10454F0001121AB0C3EF9464EE94004010749C2FC4
:10455F00FF74FF3EFE90001FE004F080E790001F05
:10456F00E04430FD900015E0FBA3E0FAA3E0F9ED85
:10457F00121A6A900016E475F001121AB0C3EF9484
:10458F000AEE9400401074F62FFF74FF3EFE900069
:10459F0020E004F080E7900020E04430FD9000150B
:1045AF00E0FBA3E0FAA3E0F9ED121A6A900016E41B
:1045BF0075F001121AB0EF4430FF900015E0FBA325
:1045CF00E0FAA3E0F9EF121A6A900016E475F00111
:1045DF00121AB0900015E0FBA3E0FAA3E0F9E40291
:0245EF001A6A46
:035BD600900051EB
:105BD9001298E1EF54F0C4540F4430FE900051E0A4
:105BE900FBA3E0FAA3E0F9EE121A6A900052E475F9
:105BF900F001121AB0EF540F4430FF900051E0FB4E
:105C0900A3E0FAA3E0F9EF121A6A900052E475F0E2
:105C190001121AB07F891298EBEF54F0C4540F4463
:105C290030FE900051E0FBA3E0FAA3E0F9EE121A6E
:105C39006A900052E475F001121AB0EF540F443023
:105C4900FF900051E0FBA3E0FAA3E0F9EF121A6A12
:105C5900900052E475F001121AB07F871298EBEFA9
:105C690054F0C4540F4430FE900051E0FBA3E0FA15
:105C7900A3E0F9EE121A6A900052E475F001121AC3
:105C8900B0EF540F4430FF900051E0FBA3E0FAA3BA
:105C9900E0F9EF121A6A900052E475F001121AB095
:105CA9007F851298EBEF54F0C4540F4430FE9000F6
:105CB90051E0FBA3E0FAA3E0F9EE121A6A90005250
:105CC900E475F001121AB0EF540F4430FF900051FF
:105CD900E0FBA3E0FAA3E0F9EF121A6A900052E49C
:105CE90075F001121AB07F831298EBEF54F0C45487
:105CF9000F4430FE900051E0FBA3E0FAA3E0F9EE77
:105D0900121A6A900052E475F001121AB0EF540F9A
:105D19004430FF900051E0FBA3E0FAA3E0F9EF1251
:105D29001A6A900052E475F001121AB0900051E01D
:0B5D3900FBA3E0FAA3E0F9E4021A6A01
:1091A3009000AE1298E112B4FB9000AEE0FBA3E096
:1091B300FAA3E0F9EF121A6A9000AFE475F0011216
:1091C3001AB07F891298EB12B4FB9000AEE0FBA3B8
:1091D300E0FAA3E0F9EF121A6A9000AFE475F00128
:1091E300121AB07F871298EB12B4FB9000AEE0FB2B
:1091F300A3E0FAA3E0F9EF121A6A9000AFE475F066
:1092030001121AB07F851298EB12B4FB9000AEE006
:10921300FBA3E0FAA3E0F9EF121A6A9000AFE4753A
:10922300F001121AB07F831298EB12B4FB9000AED8
:10923300E0FBA3E0FAA3E0F9EF121A6A9000AFE4AF
:0692430075F001021AB0F3
:1086180090001D1298E190001DE0FBA3E0FAA3E092
:10862800F9EF121A6A90001EE475F001121AB07F71
:10863800891298EB90001DE0FBA3E0FAA3E0F9EFA4
:10864800121A6A90001EE475F001121AB07F8712A0
:1086580098EB90001DE0FBA3E0FAA3E0F9EF121AF3
:108668006A90001EE475F001121AB07F851298EB2B
:1086780090001DE0FBA3E0FAA3E0F9EF121A6A905C
:10868800001EE475F001121AB07F831298EB900077
:108698001DE0FBA3E0FAA3E0F9EF121A6A90001EAE
:1086A800E475F001121AB07F811298EB90001DE07A
:1086B800FBA3E0FAA3E0F9EF121A6A90001EE47532
:1086C800F001121AB090001DE0FBA3E0FAA3E0F954
:0486D800E4021A6A34
:07B66900C294C296D29522A3
:0B854F0090009CEBF0A3EAF0A3E9F021
:10855A007B017A0079A71291A39000A7E0FF7E0021
:10856A007C017D6D121A9EAC06AD07A3E075F01E64
:10857A00A42DFFEC35F0FEA3E07C002FFFEC3EFEBD
:10858A00E4FD90009F121B4D90009CE0FBA3E0FAD3
:10859A00A3E0F9900001121A3DFF3395E0FE7C003A
:1085AA007D1E121A9EC006C007121A24FF3395E0D8
:1085BA00FE0C7D6D121A9ED0E02FFFD0E03EFE9099
:1085CA000002121A3DFD3395E0FCEF2DFFEE3CFE52
:1085DA003395E0FDFC9000A3121B4D90009FE0FC38
:1085EA00A3E0FDA3E0FEA3E0FFA3E0F8A3E0F9A364
:1085FA00E0FAA3E0FBC3121AEA40089000AD740146
:0D860A00F08005E49000ADF09000ADE0FFC1
:018617002240
:10B5B800E4FDFCC3ED9FEC9E50070DBD00010C801F
:01B5C800F290
:01B5C900225F
:04B51900AB07AA06CC
:10B51D00900000C3E5829BE5839A500A7F967E00DA
:06B52D0012B5B8A380ED89
:01B5330022F5
:08B0C700900008EEF0A3EFF089
:10B0CF00E4A3F0A3F0900008E0FEA3E0FFC390001C
:10B0DF000BE09F90000AE09E50177F0A7E0012B58A
:10B0EF001990000BE004F070DC90000AE004F0808F
:01B0FF00D47C
:01B10000222C
:01B6BC00226B
:10B016004572726F72206465207469636B65740093
:10B026000A0D004E756D65726F2064652074696344
:10B036006B65743A004E6F206465207469636B65B6
:0BB0460074204845583A00256C750046
:03B47D0012B45BAB
:10B48000D20DD293D292E4FFFE209205C20DC29358
:0CB49000220FBF00010EBE04F0BF4CED07
:01B49C00228D
:03B49D0012B45B8B
:10B4A000D293D292D20DE4FFFE209205C20DC29338
:0CB4B000220FBF00010EBE02F0BF8AEDAB
:01B4BC00226D
:06B6A100D29300C29322C7
:10B45B00E4FEEEC39408748094805015EF25E0FF52
:10B46B0030D704D2928002C292D29312B6A10E8030
:01B47B00E1EF
:01B47C0022AD
:08B5CA00ECFD7C00C293C2926B
:0AB5D200D292D29300C292C29322DB
:09B65700C293C292D293D2922256
:10AA4600E4FBEBFDC39408748094805038C29330C5
:10AA5600921690025FE04401F0ED940674809480B3
:10AA66005006E025E0F0D29320921790025FE05462
:10AA7600FEF0EBD39406748094805006E025E0F057
:0CAA8600D2930B80BDC29390025FE0FFF2
:01AA920022A1
:10A9550090005DE0FCA3E0FDA3E0FBA3E0FAA3E02B
:07A96500F9121A24FB7FA880
:02A96C00AA0738
:10A96E00AF05A90712B5CAAF0212B47DAF0512B476
:10A97E007DAF0112B45B12B480AF0312B45B12B49C
:10A98E008012B6577F0D7E0012B519D293D2927FE8
:0DA99E00627E0012B5B87F627E0002B5B87F
:04AF60007C027FA848
:02AF6400AB0739
:10AF6600AF05AA0712B5CAAF0312B49DAF0512B456
:10AF76009DAF0212B45B12B4A012B5D2EB04FF125D
:10AF8600B45B12B480C29312AA4612B657D293D2B9
:06AF96009290025FE0FF53
:01AF9C002292
:0B82EE00900010EBF0A3EAF0A3E9F011
:1082F900E4900014F0900010E0FBA3E0FAA3E0F989
:1083090090000AE4121A7CE4900013F0900013E044
:10831900FFD39409748094805057900010E0FBA318
:10832900E0FAA3E0F98F82758300121A3DFF7E00FF
:10833900C3943074809480400AD3EF943974809444
:108349008040269000147401F07BFF7AB0791612F0
:10835900AB35900010E0FBA3E0FAA3E0F912AB35CE
:108369007BFF7AB0792612AB35900013E004F080D8
:108379009B900014E0700E900010E0FBA3E0FAA3BC
:10838900E0F9027A59E4FBFD7C027FA812A96CE4AA
:10839900FB7D017C027FA812A96CE4FB7402FDFC41
:1083A9007FA812A96CE4FB7D037C027FA812A96C4B
:0183B90022A1
:0B7A5900900015EBF0A3EAF0A3E9F0A9
:107A64007F007E007D007C007BFF7AB0792912AB19
:107A740035900015E0FBA3E0FAA3E0F912AB357BE7
:107A8400FF7AB0792612AB35900015E0FBA3E0FA3B
:107A9400A3E0F912706690001C121B4D7BFF7AB0B4
:107AA400793B12AB3590001CE0FCA3E0FDA3E0FEA3
:107AB400A3E0FF7818121AFB900018EFF012ABBB8A
:107AC40090001CE0FCA3E0FDA3E0FEA3E0FF78101F
:107AD400121AFB900019EFF012ABBB90001CE0FCF3
:107AE400A3E0FDA3E0FEA3E0FF7808121AFB9000D8
:107AF4001AEFF012ABBB90001CA3A3A3E0FF90000D
:107B04001BF012ABBB7BFF7AB0792612AB35900029
:107B140018E0FB7D007C027FA812A96C900019E09C
:107B2400FB7D017C027FA812A96C90001AE0FB7413
:107B340002FDFC7FA812A96C90001BE0FB7D037C76
:067B4400027FA802A96CFB
:10AA930012848590007A74FFF0A374B0F0A3744D10
:10AAA300F0A3121B4D7B017A00791D1233FD7B014C
:10AAB3007A00791D12000E741D2FF582E43400F51F
:10AAC30083E4F07B017A00791D12AB357BFF7AB00A
:0BAAD300792612AB357B017A00791D5B
:01AADE002255
:1084850090002B121B59000000007D0012AF60A95F
:10849500077D0112AF60900028EFF07402FDFC7FAC
:1084A500A812AF64900029EFF07D0312AF60900031
:1084B5002AEFF0AF01A3E0F8A3E0F9A3E0FAA3E007
:1084C5004FFFEAFEE9FDE8FC7808121B0E90002B31
:1084D500121B4D900028E0FF90002BE0F8A3E0F977
:1084E500A3E0FAA3E04FFFEAFEE9FDE8FC780812F5
:1084F5001B0E90002B121B4D900029E0FF90002BC6
:10850500E0F8A3E0F9A3E0FAA3E04FFFEAFEE9FDF6
:10851500E8FC7808121B0E90002B121B4D90002AC8
:10852500E0FFA3E0F8A3E0F9A3E0FAA3E04FFFEA38
:10853500FEE9FDE8FC90002B121B4D90002BE0FCA2
:09854500A3E0FDA3E0FEA3E0FFAA
:01854E00220A
:10B1A500128485EF2401FFE43EFEE43DFDE43CFC12
:10B1B50090007A74FFF0A374B0F0A3744DF0A3125D
:10B1C5001B4D7B017A0079061233FD7B017A0079EC
:04B1D50006027A599B
:10A6020090009CEEF0A3EFF0A3EBF0A3EAF0A3E935
:01A61200F057
:10A6130090009CE0FCA3E0FD7FA812AF6490009E35
:10A62300E0FBA3E0FAA3E0F9EF121A6A90009EE0C0
:10A63300FBA3E0FAA3E0F9121A24FF90009DE004C3
:10A64300F0700690009CE004F090009FE475F00128
:10A65300121AB0EF70BA90009EE0FBA3E0FAA3E0F9
:05A66300F9E4021A6A8F
:10A5280090005DEEF0A3EFF0A3EBF0A3EAF0A3E94F
:10A53800F090005FE0FBA3E0FAA3E0F9121A2460B0
:10A5480024B40D04E4121A6A12A95590005EE004BE
:10A55800F0700690005DE004F0900060E475F00192
:10A56800121AB080CC12A95590005EE004F0700673
:10A5780090005DE004F0900060E475F001121AB0FC
:0FA5880090005DE0FCA3E0FDE4FB7FA802A96C5E
:108EF70053656E736F726573204175746F207920A7
:108F070073656E736F72312061637469766F732E48
:108F17000A0D0053656E736F722061637469766F13
:108F27002073656E736F72312E0A0D004465746588
:108F3700637461646F2E2053656E736F7220417581
:108F4700746F2E0A0D0053656E736F726573206E12
:108F57006F2064657465637461646F732E0A0D0016
:108F67005665686963756C6F204573706572616ECD
:108F7700646F2053616C69722E0A0D00566568692B
:108F870063756C6F2053616C69656E646F2E205535
:0D8F97006E206D6F6D656E746F2E0A0D00FB
:04824D004102690081
:07B67000C2B5C2B6C2B72249
:07B67700C2B5D2B6C2B72232
:07B67E00D2B5D2B6C2B7221B
:07B68500C2B5C2B6D2B72224
:07B68C00D2B5C2B6D2B7220D
:07B69300C2B5D2B6D2B72206
:07B69A00D2B5D2B6D2B722EF
:10B4BD00E4FF7DF47C01309115EFFB3395E04B708B
:0EB4CD000DED1D70011CED4C70EC7F0180E850
:01B4DB00224E
:10AD5F009000327401F012B693309103E004F012B8
:10AD6F00B69A309107900032E02402F0900032E062
:10AD7F00640170177D12FC7FA812AF64EF600CF4B2
:10AD8F00900032700404F08002EFF0900032E02463
:02AD9F0030FF83
:01ADA100228F
:10B57A007D127C007FA812AF64EF6005F470027F31
:05B58A0001EF2430FF79
:01B58F002299
:10A8A50012B68C20912312B6777BFF20910D7A8EFC
:10A8B50079F712AB35E49001A680227A8F791A12C6
:10A8C500AB359001A67401801412B6777BFF2091F9
:10A8D500157A8F793312AB359001A67401F090008B
:10A8E5001174FFF0800C7A8F794D12AB35E490002E
:07A8F50011F0900011E0FFDB
:01A8FC002239
:10B1010012B68530912012B4BDEF3395E0FEEF64A5
:10B11100014E700A12A8A5900010EFF080147BFF79
:10B121007A8F796780067BFF7A8F798312AB357FBF
:07B131000022900010E0FF76
:01B1380022F4
:109FE000E4900001F012B670209169900269E0706F
:109FF00016900001E0701030B35A04F012B2D19004
:10A0000002697401F0804D900269E064017016905D
:10A010000001E0701030B33C04F0126AF390026962
:10A020007402F0802F900269E064027027900001B2
:10A03000E0702130B31E04F07D0C7C007FA812AFCD
:10A0400064EF640170047F5380027F4E129CC1E470
:0FA05000900269F012B670309105E4900001F0B3
:01A05F0022DE
:102D4200494E4752455345205441524A4554412029
:102D5200005441524A4554412053494E20494E475E
:102D62005245534F20005441524A455441204E4F40
:102D7200205245474953545241205041474F200069
:102D8200455843454445205449454D504F204445FC
:102D92002047524143494120004D454E5355414C35
:102DA200204E4F204553544120454E205041525110
:102DB2005545414445524F2000444952494A4153E6
:102DC2004520412043414A41200047524143494165
:102DD200532E2E2E2000475241434941532E2E2E70
:102DE200004D454E5355414C494441442056454EB1
:102DF2004349444120004D454E5355414C494441BD
:102E0200442045584345444520484F524152494F7A
:102E12002041434552515545534520412043414AA3
:102E22004120004E4F204553204D454E5355414CB5
:102E320049444144204E49205052455041474F0099
:102E42004D454E5355414C204E4F205041474F2047
:102E52004C4F434143494F4E20484F590053494E2E
:102E62002050524553454E43494120564548494317
:102E7200554C415220005441524A455441204E4F34
:102E82002045532044454C20504152515545414420
:102E920045524F20004249454E56454E49444F2E19
:102EA2002050554C534520454C20424F544F4E2004
:102EB200005441524A4554412053494E20464F52F4
:102EC2004D41544F20004655455241204445204C27
:102ED200494E45412000554E204D4F4D454E544FD1
:102EE20020504F52204641564F5220004E4F20450F
:102EF20053205441524A455441204D454E53554169
:102F02004C20005441524A45544120494E56414CAE
:102F120049444120005441524A4554412053494EAC
:102F22002053414C49444120005245474953545291
:102F32004120494E475245534F20454E2050415261
:102F4200515545414445524F20004D454E53554140
:102F52004C20465545524120444520484F5241524B
:102F6200494F2000484F524152494F204E4F205066
:102F7200524F4752414D41444F200053494E205435
:102F820041524A4554415320004249454E56454E0E
:102F920049444F20004E4956454C2042414A4F2059
:102FA2004445205441524A455441532000613B3824
:102FB200353B494E4752455345205441524A4554A8
:102FC200410A0000613B38363B5441524A45544164
:102FD2002053494E20494E475245534F0A00006143
:102FE2003B38373B5441524A455441204E4F2052C0
:102FF20045474953545241205041474F0A0000610E
:103002003B38383B455843454445205449454D508B
:103012004F204445204752414349410A0000613B49
:1030220038393B4D454E5355414C204E4F20455368
:10303200544120454E20504152515545414445523C
:103042004F0A0000613B39303B444952494A4153DF
:103052004520412043414A410A0000613B39313B4E
:10306200475241434941532E2E2E200A0000613B14
:1030720039333B4D454E5355414C204E4F2045531D
:10308200544120454E2050415251554541444552EC
:103092004F0A0000613B39343B4D454E5355414C7C
:1030A200494441442056454E434944410A00006187
:1030B2003B39353B4D454E5355414C4944414420E3
:1030C20045584345444520484F524152494F2041BB
:1030D200434552515545534520412043414A410AF7
:1030E2000000613B39363B4E4F204553204D454E43
:1030F2005355414C49444144204E49205052455079
:1031020041474F0A0000613B39373B4D454E53550D
:10311200414C204E4F205041474F204C4F4341439A
:10312200494F4E20484F590A0000613B39383B5302
:10313200494E2050524553454E4349412056454839
:103142004943554C41520A0000613B39383B5441D6
:10315200524A455441204E4F2045532044454C206D
:10316200504152515545414445524F0A0000613B7E
:1031720030303B4249454E56454E49444F2E205031
:10318200554C534520454C20424F544F4E0A0000A7
:10319200613B39383B5441524A4554412053494ED0
:1031A20020464F524D41544F0A0000613B39383B93
:1031B2004655455241204445204C494E45410A005E
:1031C20000613B39383B554E204D4F4D454E544FD3
:1031D20020504F52204641564F520A0000613B3068
:1031E200383B4E4F204553205441524A45544120CA
:1031F2004D454E5355414C0A0000613B39383B5412
:1032020041524A45544120494E56414C4944410A93
:103212000000613B39383B5441524A4554412053E6
:10322200494E2053414C4944410A0000613B393820
:103232003B524547495354524120494E4752455308
:103242004F20454E20504152515545414445524F21
:103252000A0000613B30373BA1204D454E5355419A
:103262004C494441442056454E4349444120210A99
:103272000000613B30363B4D454E5355414C204694
:103282005545524120444520484F524152494F0A28
:103292000000613B39383B53494E205441524A4564
:1032A2005441530A0000613B39383B4E4956454C64
:1032B2002042414A4F204445205441524A455441FC
:1032C200530A0000613B39383B484F524152494F43
:1032D200204E4F2050524F4752414D41444F0A0019
:1032E20000613B30313B52455449524520535520F1
:1032F2005441524A4554410A0000613B30333B423B
:1033020049454E56454E49444F0A000057494547E4
:10331200414E442000475241434941532000613B02
:1033220039323B57494547414E4420000A0000616B
:103332003B39313B475241434941532000613B30C5
:10334200333B4249454E56454E49444F200020509A
:103352004C41434100613B30373B20A1204D454E5B
:103362005355414C494441442056454E43494441FA
:1033720020212056454E43494F20323000AA801862
:10338200010200AA8018010200AA8028072000007A
:0633920000000014000021
:05264E0090002AEFF0EE
:10265300782B7C007D017BFF7A33797F7E007F06B8
:102663001219FE7E027F067D287C0012AFDA7F28D6
:102673007E0012814F900032EEF0A3EFF0C28790FC
:1026830001A3E06003022A2D7B017A00792BFD125E
:10269300AD2390002AE0121BAA2A080126F1552730
:1026A300115627315727515827715927915A27B166
:1026B3005B27715D27D15E27F15F281160283161A7
:1026C3002851AA2871AB2891AC28B1AD28D1AE28E6
:1026D300F1AF2911B02931B12951B22971B329912F
:1026E300B529B1B629CAFA29E9FE00002A2A7BFFD7
:1026F3007A2D794212000E900031EFF0E4FDFF12C3
:10270300B3A812B39F7BFF7A2D7942022A257BFF60
:102713007A2D795312000E900031EFF0E4FDFF1291
:10272300B3A812B39F7BFF7A2D7953022A257BFF2F
:102733007A2D796812000E900031EFF0E4FDFF125C
:10274300B3A812B39F7BFF7A2D7968022A257BFFFA
:102753007A2D798212000E900031EFF0E4FDFF1222
:10276300B3A812B39F7BFF7A2D7982022A257BFFC0
:102773007A2D799B12000E900031EFF0E4FDFF12E9
:10278300B3A812B39F7BFF7A2D799B022A257BFF87
:102793007A2D79BB12000E900031EFF0E4FDFF12A9
:1027A300B3A812B39F7BFF7A2D79BB022A257BFF47
:1027B3007A2D79CC12000E900031EFF0E4FDFF1278
:1027C300B3A812B39F7BFF7A2D79D8022A257BFF0A
:1027D3007A2D79E312000E900031EFF0E4FDFF1241
:1027E300B3A812B39F7BFF7A2D79E3022A257BFFDF
:1027F3007A2D79F812000E900031EFF0E4FDFF120C
:10280300B3A812B39F7BFF7A2D79F8022A257BFFA9
:102813007A2E792512000E900031EFF0E4FDFF12BD
:10282300B3A812B39F7BFF7A2E7925022A257BFF5B
:102833007A2E794212000E900031EFF0E4FDFF1280
:10284300B3A812B39F7BFF7A2E7942022A257BFF1E
:102853007A2E795F12000E900031EFF0E4FDFF1243
:10286300B3A812B39F7BFF7A2E795F022A257BFFE1
:102873007A2E797812000E900031EFF0E4FDFF120A
:10288300B3A812B39F7BFF7A2E7978022A257BFFA8
:102893007A2E799712000E900031EFF0E4FDFF12CB
:1028A300B3A812B39F7BFF7A2E7997022A257BFF69
:1028B3007A2E79B312000E900031EFF0E4FDFF128F
:1028C300B3A812B39F7BFF7A2E79B3022A257BFF2D
:1028D3007A2E79C812000E900031EFF0E4FDFF125A
:1028E300B3A812B39F7BFF7A2E79C8022A257BFFF8
:1028F3007A2E79D812000E900031EFF0E4FDFF122A
:10290300B3A812B39F7BFF7A2E79D8022A257BFFC7
:102913007A2E79EE12000E900031EFF0E4FDFF12F3
:10292300B3A812B39F7BFF7A2E79EE022A257BFF91
:102933007A2F790512000E900031EFF0E4FDFF12BB
:10294300B3A812B39F7BFF7A2F7905022A257BFF59
:102953007A2F791712000E900031EFF0E4FDFF1289
:10296300B3A812B39F7BFF7A2F7917022A257BFF27
:102973007A2F792B12000E900031EFF0E4FDFF1255
:10298300B3A812B39F7BFF7A2F792B022A257BFFF3
:102993007A2F794C12000E900031EFF0E4FDFF1214
:1029A300B3A812B39F7BFF7A2F794C022A257BFFB2
:1029B3007A2F796612000E900031EFF012B3A37BE9
:1029C300FF7A2F7966805B7BFF7A2F797D12000E69
:1029D300900031EFF0E4FDFF12B3A812B39F7BFF29
:1029E3007A2F797D803C7BFF7A2F798B12000E90B2
:1029F3000031EFF0E4FDFF12B3A812B39F7BFF7A1F
:102A03002F798B801D7BFF7A2F799712000E900010
:102A130031EFF0E4FDFF12B3A812B39F7BFF7A2FCF
:102A230079977D0112AD23D28722C28790002AE0D5
:102A3300121BAA2CCE012A91552AA8562ABF572A1F
:102A4300D6582AED592B045A2B1B5B2B325D2B498D
:102A53005E2B605F2B77602B8E612CFAA12BA5AACE
:102A63002BBCAB2BD3AC2BEAAD2C01AE2C18AF2C6B
:102A73002FB02C46B12C5DB22C74B32C8BB42CA28A
:102A8300B52CE4B62CB8FA2D10FE00002D2D9000C5
:102A930032E0FEA3E0AA06F8AC027D017BFF7A2FA9
:102AA30079AF022D24900032E0FEA3E0AA06F8AC31
:102AB300027D017BFF7A2F79C6022D24900032E03C
:102AC300FEA3E0AA06F8AC027D017BFF7A2F79E131
:102AD300022D24900032E0FEA3E0AA06F8AC027DAA
:102AE300017BFF7A307901022D24900032E0FEA3AE
:102AF300E0AA06F8AC027D017BFF7A307920022D33
:102B030024900032E0FEA3E0AA06F8AC027D017B2C
:102B1300FF7A307946022D24900032E0FEA3E0AA2A
:102B230006F8AC027D017BFF7A30795D022D24909B
:102B33000032E0FEA3E0AA06F8AC027D017BFF7A37
:102B4300307970022D24900032E0FEA3E0AA06F84B
:102B5300AC027D017BFF7A307996022D24900032FE
:102B6300E0FEA3E0AA06F8AC027D017BFF7A307990
:102B7300B1022D24900032E0FEA3E0AA06F8AC02D5
:102B83007D017BFF7A3079E4022D24900032E0FE50
:102B9300A3E0AA06F8AC027D017BFF7A3179080233
:102BA3002D24900032E0FEA3E0AA06F8AC027D01DA
:102BB3007BFF7A31792C022D24900032E0FEA3E0D2
:102BC300AA06F8AC027D017BFF7A31794B022D24F2
:102BD300900032E0FEA3E0AA06F8AC027D017BFF81
:102BE3007A317970022D24900032E0FEA3E0AA0628
:102BF300F8AC027D017BFF7A317992022D2490009B
:102C030032E0FEA3E0AA06F8AC027D017BFF7A3135
:102C130079AD022D24900032E0FEA3E0AA06F8ACC1
:102C2300027D017BFF7A3179C3022D24900032E0CB
:102C3300FEA3E0AA06F8AC027D017BFF7A3179DFBF
:102C4300022D24900032E0FEA3E0AA06F8AC027D38
:102C5300017BFF7A3179FC022D24900032E0FEA340
:102C6300E0AA06F8AC027D017BFF7A327914022DCB
:102C730024900032E0FEA3E0AA06F8AC027D017BBB
:102C8300FF7A32792E022D24900032E0FEA3E0AACF
:102C930006F8AC027D017BFF7A327955022D249030
:102CA3000032E0FEA3E0AA06F8AC027D017BFF7AC6
:102CB300327974806C900032E0FEA3E0AA06F8AC8F
:102CC300027D017BFF7A3279948056900032E0FED8
:102CD300A3E0AA06F8AC027D017BFF7A3279A880D3
:102CE30040900032E0FEA3E0AA06F8AC027D017B2F
:102CF300FF7A3279C6802A900032E0FEA3E0AA066A
:102D0300F8AC027D017BFF7A3279E38014900032C4
:102D1300E0FEA3E0AA06F8AC027D017BFF7A3279DC
:102D2300FC121E37900032129C3E900032E0FEA34C
:0E2D3300E0FF126285E4900032F0A3F0D28738
:012D4100226F
:0E48A800900010EFF0A3EBF0A3EAF0A3E9F00C
:1048B60078147C007D017BFF7A3379857E007F0644
:1048C6001219FE7E027F067D287C0012AFDA7F2851
:1048D6007E0012814F90001BEEF0A3EFF0C287908E
:1048E60001A3E06003024986900010E024A5604021
:1048F60014600302498312AD1B7BFF7A33790E12D3
:10490600000E90001AEFF0900011E0FBA3E0FAA36E
:10491600E0F912000E90001AE02F04F0E4FDFF12F9
:10492600B3A890001A12B3A27BFF7A33790E8038AF
:1049360012AD1B7BFF7A33791712000E90001AEF27
:10494600F0900011E0FBA3E0FAA3E0F912000E904C
:10495600001AE02F04F0E4FDFF12B3A890001A122B
:10496600B3A27BFF7A3379177D0112AD2390001134
:10497600E0FBA3E0FAA3E0F97D0112AD23D2872282
:10498600C287900010E024A5602C24A77003024A79
:10499600B524B6606824A26003024B4590001BE074
:1049A600FEA3E0AA06F8AC027D017BFF7A337920EC
:1049B600121E37024AF990001BE0FEA3E0AA06F891
:1049C600AC027D017BFF7A337931121E37900011DC
:1049D600E0FBA3E0FAA3E0F912000E90001AEFF054
:1049E60024FFFFE434FFFE900011E0FBA3E0FAA3EE
:1049F600E0F98F828E83E4121A7C024AF990001B3A
:104A0600E0FEA3E0AA06F8AC027D017BFF7A3379CB
:104A16003F129C38200E1712AA93C00290001BE08A
:104A2600FEA3E0AA06F8AC027D01D0028019900030
:104A36001BE0FEA3E0AA06F8AC027D01900011E09F
:104A4600FBA3E0FAA3E0F9129C3890001BE0FEA35A
:104A5600E0AA06F8AC027D017BFF300A487A33797A
:104A660050121E3790001BE0FEA3E0AA06F97B0158
:104A7600C0031B900049EBF0A37400F0A37411F07F
:104A8600D00312A59790001BE0FEA3E0AA06F97BCF
:104A96000190004974FFF0A37433F0A3742EF01252
:104AA600A597024B427A33792E121E37024B42905B
:104AB600001BE0FEA3E0AA06F8AC027D017BFF7AAC
:104AC600337957121E37900011E0FBA3E0FAA3E0FA
:104AD600F912000E90001AEFF024FFFFE434FFFEF7
:104AE600900011E0FBA3E0FAA3E0F98F828E83E445
:104AF600121A7C90001BE0FEA3E0AA06F97B01C017
:104B060002C001900011E0F9A3E0FAA3E090004989
:104B1600C9F0A3EAF0A3E9F0D001D00212A597905C
:104B2600001BE0FEA3E0AA06F97B0190004974FF92
:104B3600F0A37433F0A3742EF012A597129C3B9049
:104B4600001BE0FEA3E0FF126285E490001BF0A3C9
:034B5600F0D28713
:014B59002239
:09B39F00900031E025E0FFE4FD1F
:05B3A800900039EDF0FA
:10B3AD0012AEE590003AEFF0900039E0600AE4FF4C
:08B3BD0012AEE590003AEFF03A
:01B3C5002265
:08AD1B007B017A007914E4FDCC
:0EAD2300900034EBF0A3EAF0A3E9F0A3EDF00A
:10AD3100E4A3F0900034E0FBA3E0FAA3E0F9900073
:10AD410038E0F582758300121A3DFF6010900037DC
:0DAD5100E0FD12B3A8900038E004F080D6B9
:01AD5E0022D2
:0EAC8F0090001DEBF0A3EAF0A3E9F0A3EDF0B6
:10AC9D00E4900022F0900020E0FF900022E0FEC33F
:10ACAD009F502490001DE0FBA3E0FAA3E0F98E82F3
:10ACBD00758300121A3DFF900021E0FD12B3A8909C
:07ACCD000022E004F080CE3C
:01ACD400225D
:0F9C3800121E3790001BE0FEA3E0AA06F97B0185
:0B9C4700900034EBF0A3EAF0A3E9F07A
:109C520012000E900038EFF0E4900037F0900038D8
:109C6200E0FF900037E0C39F503DE4900039F09050
:109C72000039E0C39464748094805005E004F0805D
:109C8200EE900034E0FBA3E0FAA3E0F9A3E0F58252
:109C9200758300121A3DFF12AEE5900039EFF09085
:109CA2000037E004F080B6E4900039F0900039E02B
:0E9CB200C39464748094805005E004F080EE4A
:019CC0002281
:10A9AB0078107C007D017BFF7A33798B7E007F0DE5
:10A9BB001219FE9001A3E07022C2877B017A007905
:10A9CB0015128618C29C7B017A007910E490002145
:10A9DB00F07D0D12AC8FD29CD28722C287E49000FF
:0DA9EB0010F07B017A007910128618D287D7
:01A9F800223C
:10002600402321246046625E262A003A5B3C253F37
:1000360058545D3D29000D0A0A25733E20002563AC
:10004600002564000D0A0A2041435455414C2049BD
:10005600445F434C49454E54453D25730D0A0A00FD
:100066000D0A0A20444947495445205355204E5508
:1000760045564F2049445F434C49454E54453D0043
:100086000D0A0A204441544F204D4F4449464943E6
:1000960041444F2049445F434C49454E54453D2514
:1000A600730D0A0A000D0A0A2041435455414C209B
:1000B600434F445F5041524B3D25730D0A0A000DD4
:1000C6000A0A20444947495445205355204E554570
:1000D600564F20434F445F5041524B3D000D0A0A94
:1000E600204441544F204D4F444946494341444FD3
:1000F60020434F445F5041524B3D25730D0A0A0081
:100106000D0A0A2041435455414C205449454D504F
:100116004F5F4752414349413D25730D0A0A000D81
:100126000A0A20444947495445205355204E55450F
:10013600564F205449454D504F5F47524143494120
:100146003D000D0A0A204441544F204D4F44494674
:10015600494341444F205449454D504F5F47524112
:100166004349413D25730D0A0A000D0A0A20414301
:100176005455414C2053494E5F434F42524F2049FC
:100186004E484142494C495441444F3D25730D0A5E
:100196000A000D0A0A2041435455414C2053494E4A
:1001A6005F434F42524F204752415449533D2573B6
:1001B6000D0A0A000D0A0A2041435455414C2053AA
:1001C600494E5F434F42524F2047524154495320B4
:1001D600592053414C49444120454C204D49534DEB
:1001E6004F204449413D25730D0A0A000D0A0A2095
:1001F600444947495445205355204E5545564F20AE
:1002060053494E5F434F42524F3D000D0A0A20416B
:10021600435455414C20444542554720494E484198
:1002260042494C495441444F3D25730D0A0A000D7D
:100236000A0A2041435455414C2044454255472023
:10024600484142494C495441444F3D25730D0A0AE1
:10025600000D0A0A2044494749544520454C204E82
:100266005545564F2045535441444F20444520445C
:10027600454255473D000D0A0A2041435455414C1D
:10028600205553455F4C505220494E484142494CF7
:10029600495441444F3D25730D0A0A000D0A0A20B0
:1002A60041435455414C205553455F4C50522048CC
:1002B6004142494C495441444F3D25730D0A0A00B9
:1002C6000D0A0A2044494749544520454C204E55BD
:1002D60045564F2045535441444F204445205553DD
:1002E600455F4C50523D000D0A0A2050414E544184
:1002F6004C4C41204C434420484142494C495441CE
:1003060044413D25730D0A0A000D0A0A2050414E4C
:1003160054414C4C4120524153504245525259206F
:1003260020484142494C49544144413D25730D0AF8
:100336000A000D0A0A2044494749544520454C20E5
:100346004E5545564F2045535441444F2044452071
:100356004C412050414E54414C4C41203D000D0A29
:100366000A2041435455414C20434F4D5041524180
:1003760043494F4E2041435449564120204841426B
:10038600494C49544144413D25730D0A0A000D0A62
:100396000A20455850494445205441524A45544143
:1003A6002050554C53414E444F20424F544F4E0D12
:1003B6000A0A000D0A0A204558504944452054416E
:1003C600524A455441204155544F4D4154494341A9
:1003D6000D0A0A000D0A0A2044494749544520459A
:1003E6004C204E5545564F2045535441444F2044CA
:1003F600454C20455850454449444F523D000D0A4E
:100406000A2041435455414C20414E5449504153D2
:10041600534241434B20494E484142494C4954417D
:10042600444F3D25730D0A0A000D0A0A2041435424
:1004360055414C20414E5449504153534241434B40
:1004460020484142494C495441444F3D25730D0AC9
:100456000A000D0A0A2044494749544520454C20C4
:100466004E5545564F2045535441444F2044452050
:10047600414E5449504153534241434B3D000D0AAE
:100486000A2041435455414C20504C414341204998
:100496004E484142494C495441444F3D25730D0A4B
:1004A6000A000D0A0A2041435455414C20504C4144
:1004B600434120484142494C495441444F3D2573EC
:1004C6000D0A0A000D0A0A204449474954452045A9
:1004D6004C204E5545564F2045535441444F2044D9
:1004E6004520504C4143413D000D0A0A20414354EA
:1004F60055414C20414444524553535F484947486F
:100506005F424F4152443D25730D0A0A000D0A0A07
:1005160020444947495445204C41204E55455641B3
:1005260020414444524553535F484947485F424F30
:100536004152443D000D0A0A2041435455414C2086
:10054600484F524152494F20494E484142494C4931
:100556005441444F3D25730D0A0A000D0A0A2041F5
:10056600435455414C20484F524152494F2048412F
:1005760042494C495441444F3D25730D0A0A000D2A
:100586000A0A2044494749544520454C204E5545C2
:10059600564F2045535441444F20444520484F521E
:1005A6004152494F3D000D0A0A2044696769746546
:1005B60020486F72612030383A3030204D696E75B0
:1005C600746F732044657364653A20000D0A0A202F
:1005D600486F72612050726F6772616D616461204D
:1005E60044657364653A200025633A000D0A0A20C3
:1005F60044696769746520486F72613A4D696E7522
:10060600746F732048617374613A20000D0A0A20E2
:10061600486F72612050726F6772616D616461200C
:1006260048617374613A20000D0A2044657364655D
:10063600202048617374610D0A002025630025633C
:10064600202020000D0A0A20446967697465206C21
:100656006F73206469617320612070726F677261C5
:100666006D6172204C756E6573203D20322C200022
:100676004D6172746573203D20332C204D6965727F
:10068600636F6C6573203D20342C204A7565766552
:1006960073203D20352C2000566965726E657320E7
:1006A6003D20362C2053616261646F203D20372C3B
:1006B60020446F6D696E676F203D2031203A20001F
:1006C6000D0A0A20446961732050726F6772616D6A
:1006D60061646F73203A2000204C756E6573003D8F
:1006E6002025632C00204D617274657300204D69CE
:1006F6006572636F6C657300204A75657665730075
:1007060020566965726E6573002053616261646F7D
:100716000020446F6D696E676F003D2025630020E1
:100726004C756E6573203D2050726F6772616D6106
:10073600646F0D0A00204C756E6573203D204E6F68
:100746002070726F6772616D61646F0D0A00204DD3
:100756006172746573203D2050726F6772616D61BE
:10076600646F0D0A00204D6172746573203D204E42
:100776006F2070726F6772616D61646F0D0A002081
:100786004D696572636F6C6573203D2050726F67AB
:1007960072616D61646F0D0A00204D696572636F49
:1007A6006C6573203D204E6F2070726F6772616DAD
:1007B60061646F0D0A00204A7565766573203D20D9
:1007C60050726F6772616D61646F0D0A00204A7521
:1007D60065766573203D204E6F2070726F6772617B
:1007E6006D61646F0D0A0020566965726E6573202F
:1007F6003D2050726F6772616D61646F0D0A002053
:10080600566965726E6573203D204E6F2070726F5B
:100816006772616D61646F0D0A00205361626164E5
:100826006F203D2050726F6772616D61646F0D0AB3
:10083600002053616261646F203D204E6F2070720C
:100846006F6772616D61646F0D0A0020446F6D6998
:100856006E676F203D2050726F6772616D61646FC5
:100866000D0A0020446F6D696E676F203D204E6F44
:100876002070726F6772616D61646F0D0A000D0AF8
:100886000A2044696769746520656C206E756D651C
:10089600726F2064656C20486F726172696F2061A7
:1008A6002070726F6772616D6172203D20000D0AC3
:1008B6000A2050726F6772616D6172207365677589
:1008C6006E646F20486F726172696F2073693D288C
:1008D6003129206E6F3D2830293D20000D0A0A205F
:1008E60041435455414C205449504F5F5645484961
:1008F60043554C4F204D454E5355414C20494E488B
:100906004142494C495441444F3D25730D0A0A0062
:100916000D0A0A2041435455414C205449504F5F1B
:100926005645484943554C4F204D454E5355414C2D
:1009360020484142494C495441444F3D25730D0AD4
:100946000A000D0A0A2044494749544520454C20CF
:100956004E5545564F2045535441444F204445205B
:100966005449504F5F5645484943554C4F204D45D5
:100976004E5355414C3D000D0A0A20414354554102
:100986004C205449504F5F5645484943554C4F20DB
:10099600204D454E5355414C20484142494C4954FF
:1009A60041444F3D25730D0A0A000D0A0A204143B2
:1009B6005455414C20414E544950415353424143B2
:1009C6004B204D454E5355414C20494E48414249D6
:1009D6004C495441444F3D25730D0A0A000D0A0A3D
:1009E6002041435455414C20414E544950415353A4
:1009F6004241434B204D454E5355414C20484142C0
:100A0600494C495441444F3D25730D0A0A000D0ACD
:100A16000A2044494749544520454C204E554556E1
:100A26004F2045535441444F20444520414E54499C
:100A3600504153534241434B204D454E5355414C33
:100A46003D000D0A0A2041435455414C20414E5465
:100A560049504153534241434B20204D454E535537
:100A6600414C20484142494C495441444F3D25732D
:100A76000D0A0A000D0A0A2041435455414C2046EE
:100A8600454348412056454E43494D49454E544FEE
:100A96002050415353574F52443A25730D0A0A00CA
:100AA6000D0A0A2F3E496420526567697374726F96
:100AB6003A002573000D0A0A2F3E50617373776F53
:100AC60072643A000D0A0A20444947495445204CAD
:100AD60041204E5545564120464543484120444510
:100AE6002056454E43494D49454E544F3D000D0A4B
:100AF6000A2025730D0A0A000D0A0A202558000D42
:100B06000A0A2041435455414C204645434841205A
:100B160044452056454E43494D49454E544F205075
:100B2600524F4752414D414441203D25730D0A0A1B
:100B3600000D0A206E756D65726F2064656C204825
:100B46006F726172696F202070726F6772616D617A
:100B5600646F203D2025630D0A000D0A2020484FB2
:100B6600524152494F20484142494C495441444F11
:100B760020203D204F4E0D0A000D0A204469617366
:100B86002050726F6772616D61646F730D0A000D9C
:100B96000A2020534547554E444F20484F52415254
:100BA600494F20484142494C495441444F20203D39
:100BB600204F4E0D0A000D0A20534547554E444F0F
:100BC60020484F524152494F20484142494C4954CE
:100BD60041444F20203D204F46460D0A000D0A2075
:100BE60020484F524152494F20484142494C4954AE
:100BF60041444F20203D204F46460D0A000D0A2055
:100C060049445F434C49454E54455F50524F475205
:100C1600414D41444F203D2025730D0A000D0A2009
:100C2600434F445F5041524B5F50524F4752414DE4
:100C360041444F203D2025730D0A000D0A205052D5
:100C46004F4752414D41444F204445425547203D70
:100C5600204F4E0D0A000D0A2050524F4752414D6B
:100C660041444F204445425547203D204F46460DBE
:100C76000A000D0A205553455F4C5052203D204F27
:100C860046460D0A000D0A205553455F4C5052202A
:100C96003D204F4E0D0A000D0A2050414E54414C46
:100CA6004C41204C43442050524F4752414D414401
:100CB600410D0A000D0A2050414E54414C4C412032
:100CC600524153504245525259202050524F47529A
:100CD600414D4144410D0A000D0A204558504944F2
:100CE60045205441524A4554412050554C53414E9B
:100CF600444F20424F544F4E0D0A000D0A204558CE
:100D060050494445205441524A4554412041555486
:100D16004F4D41544943410D0A000D0A2020414ED2
:100D26005449504153534241434B203D204F464680
:100D36000D0A000D0A20414E544950415353424179
:100D4600434B203D204F4E0D0A000D0A20504C41CA
:100D56004341203D204F46460D0A000D0A20504CC7
:100D6600414341203D204F4E0D0A000D0A204143CC
:100D76005455414C20414444524553535F484947DA
:100D8600485F424F415244203D2025730D0A000D15
:100D96000A205449504F5F5645484943554C4F2009
:100DA6004D454E5355414C203D204F46460D0A00B9
:100DB6000D0A205449504F5F5645484943554C4FFC
:100DC600204D454E5355414C203D204F4E0D0A00B7
:100DD6000D0A20414E5449504153534241434B2042
:100DE6004D454E5355414C203D204F46460D0A0079
:100DF6000D0A2020414E5449504153534241434B22
:100E0600204D454E5355414C203D204F4E0D0A0076
:100E16000D0A2041435455414C2046454348412044
:100E260044452056454E43494D49454E544F205062
:100E3600524F4752414D414441203D25730D0A0012
:100E46000D0A2049445F434C49454E544520202015
:100E56002020202020202D2D2D20434D44203020E1
:100E66004964656E746966696361646F722064655E
:100E76006C20636C69656E7465206D6178696D6F51
:100E860020323535000D0A20434F445F5041524B06
:100E960020202020202020202020202D2D2D204302
:100EA6004D44203120456C206E756D65726F20644F
:100EB600656C20706172717565616465726F206D15
:100EC6006178696D6F20323535000D0A20545F4711
:100ED600524143494120202020202020202020204C
:100EE6002D2D2D20434D442032205469656D706FA1
:100EF6002073696E20636F62726F2030302C202061
:100F06006D6178696D6F20323535000D0A205349C1
:100F16004E5F434F42524F20202020202020202089
:100F2600202D2D2D20434D44203320496E686162CB
:100F3600696C697461646F3D20302C20477261745E
:100F460069733D2031202C204772617469732079C2
:100F56002073616C69646120656C206D69736D6FC7
:100F6600206469613D2032000D0A20444542554700
:100F760020202020202020202020202020202D2D51
:100F86002D20434D44203420486162696C697461A8
:100F960072203D20312C20496E686162696C69744B
:100FA6006172203D2030000D0A205553455F4C509C
:100FB600522020202020202020202020202D2D2DD2
:100FC60020434D44203520486162696C6974617222
:100FD600203D20312C20496E686162696C6974611C
:100FE60072203D2030000D0A205449504F5F504179
:100FF6004E54414C4C412020202020202D2D2D20C8
:10100600434D4420362050414E54414C4C41204CD7
:101016004344203D302050414E54414C4C412052D7
:1010260041535042455252493D31000D0A20434139
:1010360052445F4155544F4D41544943412020206D
:10104600202D2D2D20434D44203720424F54544F00
:101056004E3D30204155544F4D41544943413D3159
:10106600000D0A20414E5449504153534241434BCF
:10107600202020202020202D2D2D20434D442038B7
:1010860020486162696C69746172203D20312C20B0
:10109600496E686162696C69746172203D20300036
:1010A6000D0A20504C4143412020202020202020A2
:1010B6002020202020202D2D2D20434D4420392076
:1010C600486162696C69746172203D20312C204947
:1010D6006E686162696C69746172203D2030000D32
:1010E6000A20414444524553535F484947485F42AA
:1010F6004F415244202D2D2D20434D442031302088
:101106004C6120646972656363696F6E20616C74FB
:10111600612064656C20626F6172642064656C2076
:101126006E756D65726F203520616C20392073698C
:101136006E6F207365207573612064656265206932
:101146007220656E2030000D0A20484F52415249E8
:101156004F2020202020202020202020202D2D2D33
:1011660020434D442031312050726F67616D6120FC
:10117600313020686F726172696F732064656C200C
:101186003120616C203130000D0A2056414C494413
:10119600415F564548495F4D454E5355414C2D2DAF
:1011A6002D20434D4420313220486162696C6974B8
:1011B6006172203D20312C20496E686162696C693C
:1011C600746172203D2030000D0A205553455F4161
:1011D60050425F4D454E5355414C202020202D2D29
:1011E6002D20434D4420313320486162696C697477
:1011F6006172203D20312C20496E686162696C69FC
:10120600746172203D2030000D0A205645525F5011
:10121600524F4752414D4143494F4E2020202D2DDC
:101226002D20434D44203134204D75657374726111
:10123600206C612070726F6772616D6163696F6E99
:10124600000D0A204159554441202020202020200D
:10125600202020202020202D2D2D20434D442031DC
:1012660035204D756573747261206C6F7320636FE2
:101276006D616E646F73000D0A2053414C49522014
:10128600202020202020202020202020202D2D2D31
:1012960020434D442031362053616C6972206465C9
:1012A6002070726F6772616D6163696F6E000D0AFF
:1012B6000A53697374656D612064652050726F67A7
:1012C60072616D6163696F6E2045787065646964EB
:1012D6006F72200D0A0D0A000D0A436F6D616E6470
:1012E6006F206E6F206578697374652027257327D4
:1012F600003A5B3C253F58545D3D2900232A594A54
:1013060041494D4563616D696C744B0077727A3261
:10131600357136382D393166532E4000200D0A00BE
:08132600200D0A00220D0A004F
:108251005401BC2F000000000000000000000000DD
:10826100000000000000004B01B161646D696E0007
:108271000000000000603601D03000003100003203
:1082810000003300003400003500003600003700E4
:108291000038000039000031300031310031320046
:0F82A100313300313400313500313600313700D0
:0B4D860090005DEBF0A3EAF0A3E9F061
:104D910078627C007D017BFF7A1279F77E007F0BC0
:104DA1001219FE786D7C007D017BFF7A1379027EFA
:104DB100007F101219FE787D7C007D017BFF7A1344
:104DC10079127E007F101219FE7B017A0079987F9B
:104DD100507E0312A6027B017A00799812854FEF6B
:104DE1003395E0FEEF64014E78627C007D017BFF2C
:104DF10060067A00792680047A007931121E379094
:104E0100005DE0FBA3E0FAA3E0F912000E90006060
:104E1100EFF0E4A3F0900061E0FFC3940A74809482
:104E2100804003024F7890005DE0FBA3E0FAA3E02D
:104E3100F98F82758300121A3DFD7C0074622FF593
:104E410082E43400F583E02DFFEC339001ADF0A353
:104E5100EFF07E00540FFFA3EEF0A3EFF0700BE034
:104E610004F070069001AFE004F09001AFE0FEA302
:104E7100E0246CF58274003EF583E07E002DFFEEA8
:104E81003C9001ADF0A3EFF07E00540FFFA3EEF0D4
:104E9100A3EFF0700BE004F070069001AFE004F0B6
:104EA1009001AFE0FEA3E0247CF58274003EF5831F
:104EB100E0FF9001ADE0FEA3E06FFF9001ADEEF0E9
:104EC100FEA3EFF0D394FFEE940040059001ADE412
:104ED100F09001ADE0FEA3E0FFC3947AEE940040B0
:104EE10015D3EF94FFEE9400500CEF547AFF90012C
:104EF100ADE4F0A3EFF0C39001AEE094309001ADCA
:104F0100E09400500CA3E02440F09001ADE03400A7
:104F1100F09001ADE0FEA3E0FFC3945BEE9400408E
:104F210014D3EF9460EE9400500BE02407F090014D
:104F3100ADE03400F09001ADE0FEA3E0FFC3943A90
:104F4100EE94004014D3EF9440EE9400500BE02413
:104F5100F9F09001ADE034FFF09001ADA3E0FF90D6
:104F61000061E0248DF582E43400F583EFF09000D8
:104F710061E004F0024E16900061E0248DF582E4B8
:0C4F81003400F583E4F07B017A00798DA8
:014F8D002201
:0BA6CE00900046EBF0A3EAF0A3E9F0D7
:10A6D900E490004CF090004CE0FFC3941274809415
:10A6E900805041EF75F003A424D0F9740135F0FAD4
:10A6F9007B0178497C007D01121E3778497C007DF9
:10A7090001900046E0FBA3E0FAA3E0F9121D4EEF29
:10A719003395E04F700690004CE0FF2290004CE02A
:06A7290004F080B17FFF87
:01A72F002207
:08ADA200E0FBA3E0FAA3E0F9D5
:0BADAA0090005DEBF0A3EAF0A3E9F0DD
:10ADB50078607C007D017B017A0179B1121E3778BC
:10ADC500607C007D0190005DE0FBA3E0FAA3E0F963
:0EADD500121D4EEF3395E04F7002FF227FFFFC
:01ADE300224D
:06AE66007B017A00793245
:0BAE6C0090005DEBF0A3EAF0A3E9F01A
:10AE770078607C007D017BFF7A1379227E007F0456
:10AE87001219FE9000677401F0A37400F0A37460B8
:0FAE9700F090005DE0FBA3E0FAA3E0F9027C3449
:10997100E0FBA3E0FAA3E02FF9EA3EFAE92401F9BA
:03998100E43AFACB
:0B998400900046EBF0A3EAF0A3E9F02E
:10998F0078497C007D017BFF7A1379267E007F0466
:10999F001219FE784D7C007D017BFF7A13792A7EA8
:1099AF00007F041219FE900046E0FBA3E0FAA3E04B
:1099BF00F9121A24FFB4200C900047E475F001123D
:1099CF001AB080E2EF900067B4220D7401F0A37417
:1099DF0000F0A3744DF080167401F0A37400F0A38F
:1099EF007449F0900046E0FBA3E0FAA3E0F9127C83
:0199FF003433
:019A00002243
:10B54C0090007A7401F0A37401F0A374BCF07BFF3B
:07B55C007A00793C02340380
:08A060007A0079637B01E4FD45
:0EA06800900071EBF0A3EAF0A3E9F0A3EDF095
:10A0760012B641900071E0FBA3E0FAA3E0F9EF12FB
:10A086001A6A900074E0701D900071E0FBA3E0FA7C
:10A09600A3E0F9121A2490007AF07BFF7A00794443
:10A0A60012340380057F2A12AEE5900071E0FBA30F
:10A0B600E0FAA3E0F9121A24FF7E00900072E4751C
:10A0C600F001121AB0900071E0FBA3E0FAA3E0F9E8
:09A0D600E4121A6AEF640D7097A0
:01A0DF00225E
:108CD800E4FDFC7FA812AF647E00900050EEF0A384
:108CE800EFF090007A74FFF0A37400F0A37447F0DB
:108CF800A3EEF0A3EFF07B017A0079461233FD90E2
:108D0800007A7401F0A37400F0A37446F07BFF7A34
:108D180000794A1234037BFF7A0079661234037AA9
:108D280000794612A0647B017A007946127DF6909C
:108D38000050EEF0A3EFF0FBE4FDFC7FA812A96C55
:108D4800E4FDFC7FA812AF647E00900050EEF0A313
:108D5800EFF090007A74FFF0A37400F0A37447F06A
:108D6800A3EEF0A3EFF07B017A0079461233FD9071
:108D7800007A7401F0A37400F0A37446F07BFF7AC4
:068D8800007986023403AD
:108AA4007D027C007FA812AF647E00900050EEF03F
:108AB400A3EFF090007A74FFF0A37400F0A374475E
:108AC400F0A3EEF0A3EFF07B017A0079461233FDB8
:108AD40090007A7401F0A37400F0A37446F07BFF55
:108AE4007A0079AB1234037BFF7A0079C512340320
:108AF4007B017A007946E4FD12A0687B017A007953
:108B040046127DF6900050EEF0A3EFF0FB7D027C60
:108B1400007FA812A96C7D027C007FA812AF647E3E
:108B240000900050EEF0A3EFF090007A74FFF0A3F1
:108B34007400F0A37447F0A3EEF0A3EFF07B017A86
:108B44000079461233FD90007A7401F0A37400F0AA
:0D8B5400A37446F07BFF7A0079E30234033E
:108B61007D047C007FA812AF647E00900050EEF07F
:108B7100A3EFF090007A74FFF0A37400F0A37447A0
:108B8100F0A3EEF0A3EFF07B017A0079461233FDFA
:108B910090007A7401F0A37400F0A37446F07BFF97
:108BA1007A0179061234037BFF7A017925123403A5
:108BB1007B017A007946E4FD12A0687B017A007995
:108BC10046127DF6900050EEF0A3EFF0FB7D047CA1
:108BD100007FA812A96C7D047C007FA812AF647E7F
:108BE10000900050EEF0A3EFF090007A74FFF0A334
:108BF1007400F0A37447F0A3EEF0A3EFF07B017AC9
:108C01000079461233FD90007A7401F0A37400F0EC
:0D8C1100A37446F07BFF7A0179480234031A
:1063C4007D067C007FA812AF647E00900050EEF042
:1063D400A3EFF090007A74FFF0A37400F0A3744765
:1063E400F0A3EEF0A3EFF07B017A0079461233FDBF
:1063F400900050E07002A3E0701590007A04F0A3BE
:106404007400F0A37446F07BFF7A017970803590B4
:106414000050E07004A3E06401701590007A04F069
:10642400A37400F0A37446F07BFF7A01799880147A
:1064340090007A7401F0A37400F0A37446F07BFF1B
:106444007A0179BA1234037BFF7A0179F2123403A8
:106454007B017A007946E4FD12A0687B017A007919
:1064640046127DF6900050EEF0A3EFF0FB7D067C23
:10647400007FA812A96C7D067C007FA812AF647E01
:1064840000900050EEF0A3EFF090007A74FFF0A3B8
:106494007400F0A37447F0A3EEF0A3EFF07B017A4D
:1064A4000079461233FD900050E07002A3E07015AD
:1064B40090007A04F0A37400F0A37446F07BFF7A92
:1064C4000179708035900050E07004A3E06401709D
:1064D4001590007A04F0A37400F0A37446F07BFFD7
:1064E4007A017998801490007A7401F0A37400F012
:0D64F400A37446F07BFF7A0179BA123403DD
:016501002277
:107375007D087C007FA812AF647E00900050EEF07F
:10738500A3EFF090007A74FFF0A37400F0A37447A4
:10739500F0A3EEF0A3EFF07B017A0079461233FDFE
:1073A500900050E07002A3E0701590007A04F0A3FD
:1073B5007400F0A37446F07BFF7A02791180149073
:1073C500007A7401F0A37400F0A37446F07BFF7A91
:1073D5000279351234037BFF7A0279571234037B25
:1073E500017A007946E4FD12A0687B017A007946AE
:1073F500127DF6900050EEF0A3EFF0FB7D087C00C7
:107405007FA812A96C7D087C007FA812AF647E005E
:10741500900050EEF0A3EFF090007A74FFF0A374A3
:1074250000F0A37447F0A3EEF0A3EFF07B017A0020
:1074350079461233FD900050E07002A3E07015907C
:10744500007A04F0A37400F0A37446F07BFF7A027F
:107455007911801490007A7401F0A37400F0A3747C
:0B74650046F07BFF7A027935123403F9
:0174700022F9
:107471007D0A7C007FA812AF647E00900050EEF080
:10748100A3EFF090007A74FFF0A37400F0A37447A7
:10749100F0A3EEF0A3EFF07B017A0079461233FD01
:1074A100900050E07002A3E0701590007A04F0A300
:1074B1007400F0A37446F07BFF7A02797C8014900B
:1074C100007A7401F0A37400F0A37446F07BFF7A94
:1074D1000279A21234037BFF7A0279C61234037B4C
:1074E100017A007946E4FD12A0687B017A007946B1
:1074F100127DF6900050EEF0A3EFF0FB7D0A7C00C8
:107501007FA812A96C7D0A7C007FA812AF647E005F
:10751100900050EEF0A3EFF090007A74FFF0A374A6
:1075210000F0A37447F0A3EEF0A3EFF07B017A0023
:1075310079461233FD900050E07002A3E07015907F
:10754100007A04F0A37400F0A37446F07BFF7A0282
:10755100797C801490007A7401F0A37400F0A37414
:0B75610046F07BFF7A0279A21234038F
:01756C0022FC
:10756D007D0E7C007FA812AF647E00900050EEF07F
:10757D00A3EFF090007A74FFF0A37400F0A37447AA
:10758D00F0A3EEF0A3EFF07B017A0079461233FD04
:10759D00900050E07002A3E0701590007A04F0A303
:1075AD007400F0A37446F07BFF7A0279ED8014909D
:1075BD00007A7401F0A37400F0A37446F07BFF7A97
:1075CD0003790F1234037BFF7A0379381234037B6E
:1075DD00017A007946E4FD12A0687B017A007946B4
:1075ED00127DF6900050EEF0A3EFF0FB7D0E7C00C7
:1075FD007FA812A96C7D0E7C007FA812AF647E005F
:10760D00900050EEF0A3EFF090007A74FFF0A374A9
:10761D0000F0A37447F0A3EEF0A3EFF07B017A0026
:10762D0079461233FD900050E07002A3E070159082
:10763D00007A04F0A37400F0A37446F07BFF7A0285
:10764D0079ED801490007A7401F0A37400F0A374A6
:0B765D0046F07BFF7A037964123403CF
:0176680022FF
:108863007D0F7C007FA812AF647E00900050EEF075
:10887300A3EFF090007A74FFF0A37400F0A37447A1
:10888300F0A3EEF0A3EFF07B017A0079461233FDFB
:10889300900050E07002A3E07BFF70067A037994A6
:1088A30080047A0379B91234037BFF7A0379DA12ED
:1088B30034037B017A007946E4FD12A0687B017AD8
:1088C300007946127DF6900050EEF0A3EFF0FB7DA9
:1088D3000F7C007FA812A96C7D0F7C007FA812AFCC
:1088E300647E00900050EEF0A3EFF090007A74FFE6
:1088F300F0A37400F0A37447F0A3EEF0A3EFF07BB2
:10890300017A0079461233FD900050E07002A3E033
:108913007BFF70067A03799480047A0379B9123461
:018923000350
:018924002230
:107669007D107C007FA812AF647E00900050EEF080
:10767900A3EFF090007A74FFF0A37400F0A37447AD
:10768900F0A3EEF0A3EFF07B017A0079461233FD07
:10769900900050E07002A3E0701590007A04F0A306
:1076A9007400F0A37446F07BFF7A04790480149087
:1076B900007A7401F0A37400F0A37446F07BFF7A9A
:1076C90004792F1234037BFF7A0479581234037B2F
:1076D900017A007946E4FD12A0687B017A007946B7
:1076E900127DF6900050EEF0A3EFF0FB7D107C00C8
:1076F9007FA812A96C7D107C007FA812AF647E0060
:10770900900050EEF0A3EFF090007A74FFF0A374AC
:1077190000F0A37447F0A3EEF0A3EFF07B017A0029
:1077290079461233FD900050E07002A3E070159085
:10773900007A04F0A37400F0A37446F07BFF7A0486
:107749007904801490007A7401F0A37400F0A37492
:0B77590046F07BFF7A04792F12340306
:017764002202
:107765007D117C007FA812AF647E00900050EEF082
:10777500A3EFF090007A74FFF0A37400F0A37447B0
:10778500F0A3EEF0A3EFF07B017A0079461233FD0A
:10779500900050E07002A3E0701590007A04F0A309
:1077A5007400F0A37446F07BFF7A0479848014900A
:1077B500007A7401F0A37400F0A37446F07BFF7A9D
:1077C5000479A81234037BFF7A0479CA1234037B47
:1077D500017A007946E4FD12A0687B017A007946BA
:1077E500127DF6900050EEF0A3EFF0FB7D117C00CA
:1077F5007FA812A96C7D117C007FA812AF647E0062
:10780500900050EEF0A3EFF090007A74FFF0A374AF
:1078150000F0A37447F0A3EEF0A3EFF07B017A002C
:1078250079461233FD900050E07002A3E070159088
:10783500007A04F0A37400F0A37446F07BFF7A0489
:107845007984801490007A7401F0A37400F0A37415
:0B78550046F07BFF7A0479A812340390
:017860002205
:107D18007D127C007FA812AF647E00900050EEF0C8
:107D2800A3EFF090007A74FFF0A37400F0A37447F7
:107D3800F0A3EEF0A3EFF07B017A0079461233FD51
:107D4800900050E07002A3E0700690007A0480056D
:107D580090007A7401F0A37400F0A37446F07BFFDE
:107D68007A0479EF1234037BFF7A0579131234030E
:107D78007B017A007946E4FD12A0687B017A0079DC
:107D880046127DF6900050EEF0A3EFF0FB7D127CDA
:107D9800007FA812A96C7D127C007FA812AF647EB8
:107DA80000900050EEF0A3EFF090007A74FFF0A37B
:107DB8007400F0A37447F0A3EEF0A3EFF07B017A10
:107DC8000079461233FD900050E07002A3E070067F
:107DD80090007A04800590007A7401F0A37400F092
:0D7DE800A37446F07BFF7A0479EF12340398
:017DF500226B
:10B1D9009000747419F0A37432F0A3744BF0A37443
:10B1E90064F0A3747DF0A37496F0A374AFF0A37414
:10B1F900C8F0A374E1F0A374FAF0E4A3F07B017A38
:03B2090000797455
:01B20C00221F
:0A6C0F00900061EEF0FCA3EFF0FD31
:106C19007FA812AF647E0090006DEEF0A3EFF090B4
:106C2900007A74FFF0A37400F0A37447F0A3EEF0A8
:106C3900A3EFF07B017A0079631233FD90006DE0D8
:106C49007002A3E0701590007A04F0A37400F0A319
:106C59007463F07BFF7A05793B801490007A7401A4
:106C6900F0A37400F0A37463F07BFF7A05796112D5
:106C790034037BFF7A0579851234037B017A007925
:106C890063E4FD12A0687B017A007963127DF690B6
:106C9900006DEEF0A3EFF0900061E0FCA3E0FDAB26
:106CA900077FA812A96C900061E0FCA3E0FD7FA812
:106CB90012AF647E0090006DEEF0A3EFF090007AC1
:106CC90074FFF0A37400F0A37447F0A3EEF0A3EFF0
:106CD900F07B017A0079631233FD90006DE0700258
:106CE900A3E090006F7018F0A3F090007A04F0A36D
:106CF9007400F0A37463F07BFF7A05793B8017E495
:106D0900F0A304F090007AF0A37400F0A37463F088
:0F6D19007BFF7A05796112340390006FA3E0FFCE
:016D28002248
:084F8E00900061EEF0A3EFF0CA
:104F96007BFF7A0579AC12340312A0607BFF7A0599
:104FA60079D2123403900062E02407FD900061E09C
:104FB6003400FC900063E0FB7FA812A96C900062AD
:104FC600E02407FD900061E03400FC7FA812AF6486
:104FD6007BFF7A00794490007AEFF0123403900058
:104FE60062E02408FD900061E03400FC900064E07B
:104FF600FB7FA812A96C900062E02408FD90006176
:10500600E03400FC7FA812AF647BFF7A0579EE904E
:10501600007AEFF0123403900062E02409FD90005C
:1050260061E03400FC900066E0FB7FA812A96C905A
:105036000062E02409FD900061E03400FC7FA812C4
:10504600AF647BFF7A00794490007AEFF012340364
:10505600900062E0240AFD900061E03400FC9000BC
:1050660067E0FB7FA812A96C900062E0240AFD901D
:105076000061E03400FC7FA812AF647BFF7A007900
:105086004490007AEFF01234037BFF7A0579F2122E
:10509600340312A0607BFF7A067912123403900063
:1050A60062E0240BFD900061E03400FC900063E0B8
:1050B600FB7FA812A96C900062E0240BFD900061B2
:1050C600E03400FC7FA812AF647BFF7A007944903D
:1050D600007AEFF0123403900062E0240CFD900099
:1050E60061E03400FC900064E0FB7FA812A96C909C
:1050F6000062E0240CFD900061E03400FC7FA81201
:10510600AF647BFF7A0579EE90007AEFF0123403F4
:10511600900062E0240DFD900061E03400FC9000F8
:1051260066E0FB7FA812A96C900062E0240DFD905A
:105136000061E03400FC7FA812AF647BFF7A00793F
:105146004490007AEFF0123403900062E0240EFDE2
:10515600900061E03400FC900067E0FB7FA812A994
:105166006C900062E0240EFD900061E03400FC7F4C
:10517600A812AF647BFF7A00794490007AEFF002C0
:025186003403F0
:086D2900900074EEF0A3EFF0FE
:106D31007BFF7A06792E123403900075E02407FD5B
:106D4100900074E03400FC7FA812AF647BFF7A06E8
:106D5100794090007AEFF0123403900075E0240836
:106D6100FD900074E03400FC7FA812AF647BFF7AD1
:106D71000579EE90007AEFF0123403900075E0246B
:106D810009FD900074E03400FC7FA812AF647BFF22
:106D91007A00794490007AEFF0123403900075E0A4
:106DA100240AFD900074E03400FC7FA812AF647BDC
:106DB100FF7A06794490007AEFF01234039000755F
:106DC100E0240BFD900074E03400FC7FA812AF6456
:106DD1007BFF7A00794490007AEFF012340390003F
:106DE10075E0240CFD900074E03400FC7FA812AF24
:106DF100647BFF7A0579EE90007AEFF0123403900C
:106E01000075E0240DFD900074E03400FC7FA812B1
:106E1100AF647BFF7A00794490007AEFF01234037B
:106E2100900075E0240EFD900074E03400FC7FA812
:106E310012AF647BFF7A00794490007AEFF002345C
:016E4100034D
:0845F100900061EEF0A3EFF071
:1045F9007BFF7A06794A1234037BFF7A06797612B1
:1046090034037BFF7A06799E1234037B017A0079A1
:1046190063E4FD12A0687BFF7A0679C6123403E4CD
:1046290090006EF090006EE0FFC39408748094804F
:1046390040030248A774632FF582E43400F583E050
:1046490090006FF0643270437BFF7A0679DE123492
:1046590003900062E02401FD900061E03400FC7BDE
:10466900327FA812A96C900062E02401FD900061DC
:10467900E03400FC7FA812AF6490006DEFF07BFF7F
:104689007A0679E590007AF012340390006EE024FE
:1046990063F582E43400F583E090006FF0643370D1
:1046A900437BFF7A0679EB123403900062E024021F
:1046B900FD900061E03400FC7B337FA812A96C9067
:1046C9000062E02402FD900061E03400FC7FA81242
:1046D900AF6490006DEFF07BFF7A0679E590007A80
:1046E900F012340390006EE02463F582E43400F59F
:1046F90083E090006FF0643470437BFF7A0679F3AE
:10470900123403900062E02403FD900061E034005C
:10471900FC7B347FA812A96C900062E02403FD9011
:104729000061E03400FC7FA812AF6490006DEFF0E7
:104739007BFF7A0679E590007AF012340390006ED7
:10474900E02463F582E43400F583E090006FF064BF
:104759003570437BFF7A0679FE123403900062E0DC
:104769002404FD900061E03400FC7B357FA812A988
:104779006C900062E02404FD900061E03400FC7F4D
:10478900A812AF6490006DEFF07BFF7A0679E5908F
:10479900007AF012340390006EE02463F582E43469
:1047A90000F583E090006FF0643670437BFF7A0771
:1047B9007906123403900062E02405FD900061E05F
:1047C9003400FC7B367FA812A96C900062E02405B6
:1047D900FD900061E03400FC7FA812AF6490006D89
:1047E900EFF07BFF7A0679E590007AF012340390B6
:1047F900006EE02463F582E43400F583E090006FF5
:10480900F0643770437BFF7A07790F123403900005
:1048190062E02406FD900061E03400FC7B377FA84C
:1048290012A96C900062E02406FD900061E034005A
:10483900FC7FA812AF6490006DEFF07BFF7A0679D8
:10484900E590007AF012340390006EE02463F5825B
:10485900E43400F583E090006FF0643170377BFF3A
:104869007A077917123403900061E0FCA3E0FD7B1D
:10487900317FA812A96C900061E0FCA3E0FD7FA83C
:1048890012AF6490006DEFF07BFF7A0779209000FA
:0E4899007AF012340390006EE004F002462D17
:0148A70022EE
:0869CB00900074EEF0A3EFF060
:1069D3002401FDE43EFC7FA812AF64900076EFF043
:1069E30064327BFF70067A07792580047A07793B46
:1069F300123403900075E02402FD900074E034002B
:106A0300FC7FA812AF64900076EFF064337BFF70D5
:106A1300067A07795480047A07796B12340390005D
:106A230075E02403FD900074E03400FC7FA812AFEE
:106A330064900076EFF064347BFF70067A07798503
:106A430080047A07799F123403900075E02404FDD3
:106A5300900074E03400FC7FA812AF64900076EFDE
:106A6300F064357BFF70067A0779BC80047A077976
:106A7300D3123403900075E02405FD900074E034D4
:106A830000FC7FA812AF64900076EFF064367BFFC2
:106A930070067A0779ED80047A0879051234039039
:106AA3000075E02406FD900074E03400FC7FA8121A
:106AB300AF64900076EFF064377BFF70067A087955
:106AC3002080047A087937123403900074E0FCA321
:106AD300E0FD7FA812AF64900076EFF064317BFF96
:0F6AE30070067A08795180047A087969123403B1
:016AF2002281
:105FFE0012B1D978507C007D01121E377BFF7A08D2
:10600E0079841234037B017A007946E4FD12A0688C
:10601E007B017A007946127DF6EF14900060F0E075
:10602E002450F582E43400F583E0FF7E0090005B9F
:10603E00EEF0A3EFF0A3EEF0A3EFF090005CE024FF
:10604E000FF090005BE03400F0E0FEA3E0FF126C76
:10605E000F90005DE0FFA3E090005BCFF0A3EFF0A8
:10606E009000607401F0900060E0FFC394087480AB
:10607E009480501C90005CE02FFD90005BE034009B
:10608E00FC7BFF7FA812A96C900060E004F080D624
:10609E0090005DE0FEA3E0FF90005BEEF0A3EFF05A
:1060AE001245F190005BE0FEA3E0FF124F8E7BFFE6
:1060BE007A0879B41234037B017A007946E4FD1232
:1060CE00A0687B017A007946127DF690005FEFF0B2
:1060DE00FB90005CE02410FD90005BE03400FC7F40
:1060EE00A812A96C90005CE02410FD90005BE034D7
:1060FE0000FC7FA812AF6490005FEFF090007A74FE
:10610E00FFF0A37400F0A37447F0A3EFF07B017AC5
:10611E000079461233FD90005FE064017016900026
:10612E005CE0240AF090005BE03400F0E0FEA3E0B7
:04613E00FF124F8E6F
:01614200223A
:107861007D147C007FA812AF647E00900050EEF082
:10787100A3EFF090007A74FFF0A37400F0A37447B3
:10788100F0A3EEF0A3EFF07B017A0079461233FD0D
:10789100900050E07002A3E0701590007A04F0A30C
:1078A1007400F0A37446F07BFF7A0879E2801490AB
:1078B100007A7401F0A37400F0A37446F07BFF7AA0
:1078C1000979161234037BFF7A0979481234037B54
:1078D100017A007946E4FD12A0687B017A007946BD
:1078E100127DF6900050EEF0A3EFF0FB7D147C00CA
:1078F1007FA812A96C7D147C007FA812AF647E0062
:10790100900050EEF0A3EFF090007A74FFF0A374B2
:1079110000F0A37447F0A3EEF0A3EFF07B017A002F
:1079210079461233FD900050E07002A3E07015908B
:10793100007A04F0A37400F0A37446F07BFF7A0888
:1079410079E2801490007A7401F0A37400F0A374BA
:0B79510046F07BFF7A09797D123403B9
:01795C002208
:10795D007D157C007FA812AF647E00900050EEF084
:10796D00A3EFF090007A74FFF0A37400F0A37447B6
:10797D00F0A3EEF0A3EFF07B017A0079461233FD10
:10798D00900050E07002A3E0701590007A04F0A30F
:10799D007400F0A37446F07BFF7A0979B0801490DF
:1079AD00007A7401F0A37400F0A37446F07BFF7AA3
:1079BD000979E31234037BFF7A0A79141234037BBD
:1079CD00017A007946E4FD12A0687B017A007946C0
:1079DD00127DF6900050EEF0A3EFF0FB7D157C00CC
:1079ED007FA812A96C7D157C007FA812AF647E0064
:1079FD00900050EEF0A3EFF090007A74FFF0A374B6
:107A0D0000F0A37447F0A3EEF0A3EFF07B017A0032
:107A1D0079461233FD900050E07002A3E07015908E
:107A2D00007A04F0A37400F0A37446F07BFF7A098A
:107A3D0079B0801490007A7401F0A37400F0A374EF
:0B7A4D0046F07BFF7A0A7948123403F0
:017A5800220B
:105188007B017A0079467F507E0312A60290006068
:105198007401F0A37400F0A37454F07B017A0079D1
:1051A800461297BF90007A7401F0A37400F0A374BC
:1051B80054F07BFF7A0A797A1234037BFF7A0A79F2
:1051C800A61234037B017A0079467F007E0312A67B
:1051D8000290007A7401F0A37400F0A37446F07B87
:1051E800FF7A0A79B81234037B017A007946124DA6
:1051F8008678B17C017D01121E377BFF7A0A79BB64
:105208001234037B017A0079467D0112A0687B0184
:105218007A00794612AE6C900051EBF0A3EAF0A345
:10522800E9F07B017A0179B17F007E0312A528900D
:10523800005112ADA2EF70837BFF7A0A79CA12344B
:10524800037B017A007946E4FD12A06890007A7425
:1052580001F0A37400F0A37446F07BFF7A0A79F496
:10526800123403900046E0900054F0900047E0901C
:105278000055F0E4A3F07B017A007954127DF69092
:10528800005BEEF0A3EFF07BFF7A0A79FE90007ADC
:10529800EEF0A3EFF012340390005BA3E0FB7D5027
:1052A8007C037FA812A96C900048E0900054F0900D
