:1077C4004101590A41018C004101970041018D009A
:1077D4004101950042018E00004101960641019B42
:0977E4000341019AF2C109C10A36
:03000B00029E7CD6
:109E7C00C0E0C083C082900159E014F0E06401702E
:109E8C000690018CE004F090018FE004F0700690D5
:0E9E9C00018EE004F0C28DD082D083D0E0327F
:10A1DC00E58954F04401F589E4F58CF58AD28C229A
:05A27100C28DD2A922FC
:03A28000C2A9224E
:0BA20B00129F9FEFF47002EEF460F56C
:01A216002225
:059AF9009000A6EFF053
:109AFE009000A6E0FF129C64EF3395E04F6024E4E3
:109B0E009000A7F0A3F0C39000A8E094E89000A7FF
:109B1E00E0940350DBA3E004F070EB9000A7E004A8
:089B2E00F080E39000A6E0FFC7
:019B3600220C
:0E981700900028EBF0A3EAF0A3E9F0A3EDF037
:10982500E4A3F090002BE0FFA3E0C39F5029900034
:1098350028E0FBA3E0FAA3E0F9121560FF129AF9FC
:1098450090002DEFF0900029E475F0011215EC90D1
:07985500002CE004F080CCC0
:01985C0022E9
:10A1EC0012A27B12A23312A217C283D287C2972269
:109613007D047C007FA8129B78900198E4F0A3EF6F
:10962300F07D067C007FA8129B78900193E4F0A361
:10963300EFF07D087C007FA8129B78900191EFF0FA
:109643007D0A7C007FA8129B78900190EFF07D0E3D
:0D9653007C007FA8129B78900192EFF0221E
:108AFB00E4900000F012A1DC12A271129ED6129F1C
:108B0B002812A1ECD2AF12A0BB7F217E0012A18252
:108B1B0012A1437F611296B012A23A209103123D2B
:108B2B00DF12961312580BEF70FA9001597405F07F
:108B3B00208003129FEB900000E0FF1231039000A6
:108B4B0000EFF020B3267B017A0179311282A890D5
:108B5B000001EFF0FD7B017A017931129C297B0139
:108B6B007A017931900001E0FD12351A128BFD80EC
:018B7B00BF3A
:05A276004C49564500B3
:0E351A00900002EBF0A3EAF0A3E9F0A3EDF0BD
:103528006419705D900002E0FBA3E0FAA3E0F912D1
:1035380015606402704B900002121579644870415E
:10354800900005E07E0024FFF582EE34FFF583123B
:1035580015796403702B900002A3A3E02403F9E417
:103568003AFA125DD3EF6003023857900002E0FB8D
:10357800A3E0FAA3E02403F9E43AFA12873C02959F
:103588006C900002E0FBA3E0FAA3E0F91215606476
:10359800B67028900204E004F0E0D3940474809498
:1035A8008050030238577FAE122762C282E490012E
:1035B8008CF0C297C283900204F022900002E0FBD4
:1035C800A3E0FAA3E0F9121560FF64B76005EF64A1
:1035D800AA705390018CE0C39414748094804008BE
:1035E800E4F0C297D282C283900191E0600302386E
:1035F80057900190E064016003023857C390018F2F
:10360800E0945890018EE094025003023857E4F099
:10361800A3F090019104F07BFF7AA27976129703C8
:10362800E4900191F022900002E0FBA3E0FAA3E00D
:10363800F912156064B170057F6002370F900002BF
:10364800E0FBA3E0FAA3E0F912156064B270057F0D
:103658005D02370F900005E064017017900002E0EA
:10366800FBA3E0FAA3E0F912156064A170057F5A84
:1036780002370F900005E064017016900002E0FB2D
:10368800A3E0FAA3E0F9121560640670047FAB802A
:1036980076900005E064017016900002E0FBA3E05C
:1036A800FAA3E0F9121560640770047F5F805890F0
:1036B8000005E064017016900002E0FBA3E0FAA3A5
:1036C800E0F9121560640870047F61803A90000583
:1036D800E064017016900002E0FBA3E0FAA3E0F9B1
:1036E800121560640970047FAF801C900005E064C7
:1036F800017017900002E0FBA3E0FAA3E0F91215AD
:103708006064B470057F5E022762900005E0FF6484
:10371800137038900002E0FBA3E0FAA3E0F99000F0
:1037280001121579B456247E0074FF2FF582EE3409
:10373800FFF58312157964037011900002A3A3E0CA
:103748002402F9E43AFA7F5B023818900005E0FF9A
:103758006406600302381B900002E0FBA3E0FAA3B2
:10376800E0F91215606402600302381B9000011230
:1037780015796457600302381BFE74FF2FF582EE3B
:1037880034FFF5831215796403600302381B900037
:1037980002A3A3900002121579FD7B017A00790635
:1037A8001293479000097420F0900002E0FBA3E018
:1037B800FAA3E0F9900003121579FD900002A3A383
:1037C800900004121579900015F07B017A00790AAF
:1037D800123858900190E064017021129CD9EFF4DE
:1037E80060077FAB12276280097B017A0079061295
:1037F8006F2E7B017A0079067F5C8014129CD9EFCA
:10380800F460057FAB1227627B017A0079067F5C42
:103818000245F3900005E0FF640C7033900002E06D
:10382800FBA3E0FAA3E0F912156064027021FE74AC
:10383800FF2FF582EE34FFF5831215796403700FBC
:0F384800900002A3A3E02401F9E43AFA1279FBFD
:01385700224E
:0E99F800900033EBF0A3EAF0A3E9F0A3EDF04A
:109A0600E4A3F0900036E0FFA3E0C39F502490004B
:109A160033E0FBA3E0FAA3E0F9121560FF1296B05B
:109A2600900034E475F0011215EC900037E004F074
:029A360080D1DD
:019A3800220B
:0B6F2E00900011EBF0A3EAF0A3E9F0E3
:106F39009000327403F090001414F01299739000C9
:106F490015EFF0A37453F0900195E09000326013AF
:106F5900E0FF04F074142FF582E43400F583744DD6
:106F6900F08011E0FF04F074142FF582E43400F589
:106F7900837443F09000327404F0900011E0FBA395
:106F8900E0FAA3E0F9121560FF6021900032E024D5
:106F990014F582E43400F583EFF0900012E475F003
:106FA900011215EC900032E004F080CE900032E03E
:106FB900FF04F074142FF582E43400F583743AF079
:106FC900900032E02414F9E43400FA7B0112502ACB
:106FD900900032E0FF241EF582E43400F583743A10
:106FE900F0741F2FF582E43400F5837403F07B01FC
:0B6FF9007A007914EF240CFD0299F8D7
:08000300D29412A286C29422DD
:059ABA009000B5EFF083
:109ABF00E4A3F0A3F09000B5E0FFA2E713F030D7D6
:109ACF0004D2958002C2951200039000B7E004F013
:109ADF0070069000B6E004F0C39000B7E0940890D1
:099AEF0000B6E06480948040CCD4
:019AF800224B
:0A858C00EBF0A3EAF0A3E9F07F8D05
:058596009000B2EFF0BF
:10859B00D2967F037E0012A1829000B2E0FF129A66
:1085AB00BAE49000B3F0A3F09000B3E0FCA3E0FDBD
:1085BB00C39408EC64809480504F3095169002055C
:1085CB00E04480F0ED9406EC648094805005E0FF6D
:1085DB00C313F0209520900205E0547FF0D3900058
:1085EB00B4E094069000B3E064809480500890024D
:1085FB0005E0FFC313F01200039000B4E004F07029
:10860B00A79000B3E004F0809FC296900205E0FFB4
:01861B00223C
:109F0000900014EFF0A3EDF0D2967F037E0012A133
:109F100082900014E0FF129ABA900015E0FF9000C2
:089F200014F0129ABAC2962255
:109A3900900012E475F0011215EC900012E475F033
:109A4900011215EC900012E475F0011215EC90006A
:109A590011E0FBA3E0FAA3E0F9121560FF90000101
:049A6900121579FD5C
:0C9A6D00EF540FC454F0FFED540F4FFFF6
:019A790022CA
:105DD300E4FF121560FEC394305003025EE5EED378
:105DE30094394003025EE5900001121579FEC394D5
:105DF300305003025EE2EED394394003025EE29038
:105E03000003121579FEC394305003025EDFEED314
:105E130094394003025EDF900004121579FEC394A7
:105E2300305003025EE7EED394394003025EE790FD
:105E33000008121579FEC394305003025EDCEED3E2
:105E430094394003025EDC90000B121579FEC39473
:105E5300305003025ED9EED39439507A90000C127D
:105E63001579FEC39430406BEED39439506590009E
:105E73000E121579FEC394304056EED39439505028
:105E830090000F121579FEC394304041EED394393C
:105E9300503B900011121579FEC39430402CEED381
:105EA30094395026900012121579FEC3943040178E
:105EB300EED394395011900014121579FEC3943027
:105EC3004022EED39439227F01227F01227F0122D7
:105ED3007F01227F01227F01227F01227F01227F16
:045EE30001227F0118
:015EE7002298
:0B873C00900011EBF0A3EAF0A3E9F0BD
:10874700129A57AD077F86129F00129A39AD077F9D
:1087570088129F00900012E475F0011215EC90004A
:1087670012E475F0011215EC129A39AD077F8C12DD
:108777009F00129A39AD077F84129F00129A39AD74
:10878700077F82129F00129A39AD077F80129F00E0
:10879700900012E475F0011215EC900012E475F0E8
:1087A700011215EC900012E475F0011215EC90001F
:1087B70011E0FBA3E0FAA3E0F91215605407FD7F6F
:0487C7008A029F0083
:10A0F300AE07EEC4540F540FFE6012EF540FFFE48B
:0DA10300FDEDC39E5007740A2FFF0D80F480
:01A11000222C
:109B37001215B890005FE475F0011215EC90005E05
:0C9B4700E0FBA3E0FAA3E0F9121560FFB8
:109B5300E4FEFDFCECC39F500B0DED640A7002FDA7
:109B63000E0C80F0EEC454F054F0FEED540F4EFF93
:019B730022CF
:0B83D90090005EEBF0A3EAF0A3E9F0D7
:1083E400129B44EF54F0C4540F4430FE900061E0FB
:1083F400FBA3E0FAA3E0F9EE1215A6EF540F443004
:10840400FF900061E0FBA3E0FAA3E0F9900001EF24
:10841400129B37EF54F0C4540F4430FE900061E0D7
:10842400FBA3E0FAA3E0F9900002EE1215B8EF54B2
:108434000F4430900003129B37EF54F0C4540F44A0
:1084440030FE900061E0FBA3E0FAA3E0F9900004A1
:10845400EE1215B8EF540F44309000051215B89081
:068464000006E40215B859
:10934700E4FFFE900011EDF0900011E0C394647407
:109357008094804007E0249CF00F80ECEF443012AB
:1093670015A6740129F9E43AFA900011E0C3940AAA
:10937700748094804007E024F6F00E80ECEE4430D1
:109387001215A6740129F9E43AFA900011E0443065
:0E9397001215A6740129F9E43AFAE40215A6AB
:0E385800900011EBF0A3EAF0A3E9F0A3EDF06D
:10386600E4900016F0A3F0900019F0A3F0A3F0A3E3
:10387600F0900018EDF054F0F0E0FFC4540FF09013
:103886000021121695404000007F007E007D807C5E
:1038960041125198C004C005C006C007900018E048
:1038A600FCE4121072D003D002D001D000120F62D5
:1038B600C004C005C006C007900016E0FCA3E0FDEA
:1038C600E412106DD003D002D001D000120E711296
:1038D60010A6900016EEF0A3EFF0900014E0900012
:1038E60018F0540FF0900021121695400000007F4A
:1038F600007E007D807C41125198C004C005C00640
:10390600C007900018E0FCE4121072D003D002D079
:1039160001D000120F62C004C005C006C0079000A7
:1039260016E0FCA3E0FDE412106DD003D002D00136
:10393600D000120E711210A6900016EEF0A3EFF052
:10394600900015E0900018F054F0F0E0FFC4540F1A
:10395600F09000211216953F8000007F007E007DCA
:10396600807C41125198C004C005C006C007900073
:1039760018E0FCE4121072D003D002D001D000127D
:103986000F62C004C005C006C007900016E0FCA385
:10399600E0FDE412106DD003D002D001D000120E6B
:1039A600711210A6900016EEF0A3EFF0900015E04D
:1039B600900018F0540FF0900021121695000000A8
:1039C600007F007E007D807C41125198C004C005B6
:1039D600C006C007900018E0FCE4121072D003D0B5
:1039E60002D001D000120F62C004C005C006C00795
:1039F600900016E0FCA3E0FDE412106DD003D002A7
:103A0600D001D000120E711210A6900016EEF0A38F
:103A1600EFF0C3EF9410EE9427401074F02FFF746C
:103A2600D83EFE900019E004F080E7900019E044CB
:103A360030FD900011E0FBA3E0FAA3E0F9ED1215CA
:103A4600A6900012E475F0011215ECC3EF94E8EEAF
:103A56009403401074182FFF74FC3EFE90001AE089
:103A660004F080E790001AE04430FD900011E0FB7E
:103A7600A3E0FAA3E0F9ED1215A6900012E475F0A2
:103A8600011215ECC3EF9464EE94004010749C2F61
:103A9600FF74FF3EFE90001BE004F080E790001BE1
:103AA600E04430FD900011E0FBA3E0FAA3E0F9ED5D
:103AB6001215A6900012E475F0011215ECC3EF94EE
:103AC6000AEE9400401074F62FFF74FF3EFE90003D
:103AD6001CE004F080E790001CE04430FD900011EB
:103AE600E0FBA3E0FAA3E0F9ED1215A6900012E4BC
:103AF60075F0011215ECEF4430FF900011E0FBA3C6
:103B0600E0FAA3E0F9EF1215A6900012E475F001B1
:103B16001215EC900011E0FBA3E0FAA3E0F9E40231
:023B260015A6E2
:03502A00900052A1
:10502D0012858CEF54F0C4540F4430FE900052E0C2
:10503D00FBA3E0FAA3E0F9EE1215A6900053E47578
:10504D00F0011215ECEF540F4430FF900052E0FBCD
:10505D00A3E0FAA3E0F9EF1215A6900053E475F062
:10506D00011215EC7F89128596EF54F0C4540F444C
:10507D0030FE900052E0FBA3E0FAA3E0F9EE12152A
:10508D00A6900053E475F0011215ECEF540F443067
:10509D00FF900052E0FBA3E0FAA3E0F9EF1215A692
:1050AD00900053E475F0011215EC7F87128596EF91
:1050BD0054F0C4540F4430FE900052E0FBA3E0FACC
:1050CD00A3E0F9EE1215A6900053E475F001121548
:1050DD00ECEF540F4430FF900052E0FBA3E0FAA335
:1050ED00E0F9EF1215A6900053E475F0011215ECDE
:1050FD007F85128596EF54F0C4540F4430FE900016
:10510D0052E0FBA3E0FAA3E0F9EE1215A6900053CE
:10511D00E475F0011215ECEF540F4430FF9000527E
:10512D00E0FBA3E0FAA3E0F9EF1215A6900053E41B
:10513D0075F0011215EC7F83128596EF54F0C4546F
:10514D000F4430FE900052E0FBA3E0FAA3E0F9EE2D
:10515D001215A6900053E475F0011215ECEF540FE3
:10516D004430FF900052E0FBA3E0FAA3E0F9EF1208
:10517D0015A6900053E475F0011215EC900052E065
:0B518D00FBA3E0FAA3E0F9E40215A682
:107F87009000AF12858C12A0F39000AFE0FBA3E046
:107F9700FAA3E0F9EF1215A69000B0E475F001120C
:107FA70015EC7F8912859612A0F39000AFE0FBA332
:107FB700E0FAA3E0F9EF1215A69000B0E475F0011E
:107FC7001215EC7F8712859612A0F39000AFE0FBA5
:107FD700A3E0FAA3E0F9EF1215A69000B0E475F05C
:107FE700011215EC7F8512859612A0F39000AFE081
:107FF700FBA3E0FAA3E0F9EF1215A69000B0E47531
:10800700F0011215EC7F8312859612A0F39000AF52
:10801700E0FBA3E0FAA3E0F9EF1215A69000B0E4A5
:0680270075F0010215ECEA
:1073380090001E12858C90001EE0FBA3E0FAA3E0EB
:10734800F9EF1215A690001FE475F0011215EC7FF5
:107358008912859690001EE0FBA3E0FAA3E0F9EFFE
:107368001215A690001FE475F0011215EC7F871224
:10737800859690001EE0FBA3E0FAA3E0F9EF121552
:10738800A690001FE475F0011215EC7F8512859612
:1073980090001EE0FBA3E0FAA3E0F9EF1215A69017
:1073A800001FE475F0011215EC7F8312859690009A
:1073B8001EE0FBA3E0FAA3E0F9EF1215A690001F68
:1073C800E475F0011215EC7F8112859690001EE09D
:1073D800FBA3E0FAA3E0F9EF1215A690001FE475ED
:1073E800F0011215EC90001EE0FBA3E0FAA3E0F90F
:0473F800E40215A6F0
:07A23300C294C296D29522ED
:0B726F0090009DEBF0A3EAF0A3E9F013
:10727A007B017A0079A8127F879000A8E0FF7E0040
:10728A007C017D6D1215DAAC06AD07A3E075F01E20
:10729A00A42DFFEC35F0FEA3E07C002FFFEC3EFEB0
:1072AA00E4FD9000A012168990009DE0FBA3E0FA8D
:1072BA00A3E0F9900001121579FF3395E0FE7C00F6
:1072CA007D1E1215DAC006C007121560FF3395E05D
:1072DA00FE0C7D6D1215DAD0E02FFFD0E03EFE9055
:1072EA000002121579FD3395E0FCEF2DFFEE3CFE0E
:1072FA003395E0FDFC9000A41216899000A0E0FCF2
:10730A00A3E0FDA3E0FEA3E0FFA3E0F8A3E0F9A356
:10731A00E0FAA3E0FBC312162640089000AE7401FF
:0D732A00F08005E49000AEF09000AEE0FFB2
:017337002233
:10A18200E4FDFCC3ED9FEC9E50070DBD00010C8069
:01A19200F2DA
:01A1930022A9
:04A11100AB07AA06E8
:10A11500900000C3E5829BE5839A500A7F967E00F6
:06A1250012A182A380EDEF
:01A12B002211
:089C9F00900009EEF0A3EFF0C4
:109CA700E4A3F0A3F0900009E0FEA3E0FFC3900057
:109CB7000CE09F90000BE09E50177F0A7E0012A1D8
:109CC7001190000CE004F070DC90000BE004F080D1
:019CD700D4B8
:019CD8002269
:01A2860022B5
:109BEE004572726F72206465207469636B657400D0
:109BFE000A0D004E756D65726F2064652074696381
:109C0E006B65743A004E6F206465207469636B65F2
:0B9C1E0074204845583A00256C750082
:03A0560012A03421
:10A05900D20DD293D292E4FFFE209205C20DC29393
:0CA06900220FBF00010EBE04F0BF4CED42
:01A0750022C8
:03A0760012A03401
:10A07900D293D292D20DE4FFFE209205C20DC29373
:0CA08900220FBF00010EBE02F0BF8AEDE6
:01A0950022A8
:06A26B00D29300C2932211
:10A03400E4FEEEC39408748094805015EF25E0FF8D
:10A0440030D704D2928002C292D29312A26B0E80B5
:01A05400E12A
:01A0550022E8
:08A19400ECFD7C00C293C292B5
:0AA19C00D292D29300C292C2932225
:09A22100C293C292D293D29222A0
:10966000E4FBEBFDC39408748094805038C29330BF
:1096700092169001FCE04401F0ED94067480948011
:109680005006E025E0F0D2932092179001FCE054C0
:10969000FEF0EBD39406748094805006E025E0F051
:0C96A000D2930B80BDC2939001FCE0FF50
:0196AC00229B
:07985D007D01FB7C027FA8E6
:02986400AA0751
:10986600AF05A90712A194AF0212A056AF0512A028
:1098760056AF0112A03412A059AF0312A03412A0A1
:109886005912A2217F0D7E0012A111D293D2927F8E
:0D989600627E0012A1827F627E0002A1822C
:049B74007C027FA848
:029B7800AB0739
:109B7A00AF05AA0712A194AF0312A076AF0512A0EF
:109B8A0076AF0212A03412A07912A19CEB04FF1244
:109B9A00A03412A059C29312966012A221D293D273
:069BAA00929001FCE0FFB7
:019BB0002292
:0B79FB00900011EBF0A3EAF0A3E9F00C
:107A0600E4900015F0900011E0FBA3E0FAA3E0F982
:107A160090000AE41215B8E4900014F0900014E007
:107A2600FFD39409748094805057900011E0FBA313
:107A3600E0FAA3E0F98F82758300121579FF7E00C4
:107A4600C3943074809480400AD3EF943974809440
:107A56008040269000157401F07BFF7A9B79EE1228
:107A66009703900011E0FBA3E0FAA3E0F912970355
:107A76007BFF7A9B79FE129703900014E004F08056
:107A86009B900015E0700E900011E0FBA3E0FAA3B6
:107A9600E0F9026AD4E4FBFD129860E412985DE412
:107AA600FB7402FDFC7FA8129864E47D0312985FC4
:017AB60022AD
:0B6AD400900016EBF0A3EAF0A3E9F03D
:106ADF007F007E007D007C007BFF7A9C79011297FE
:106AEF0003900016E0FBA3E0FAA3E0F91297037BF3
:106AFF00FF7A9B79FE129703900016E0FBA3E0FA52
:106B0F00A3E0F9125FF790001D1216897BFF7A9CA4
:106B1F00791312970390001DE0FCA3E0FDA3E0FEA4
:106B2F00A3E0FF7818121637900019EFF01297892B
:106B3F0090001DE0FCA3E0FDA3E0FEA3E0FF7810B2
:106B4F0012163790001AEFF012978990001DE0FC93
:106B5F00A3E0FDA3E0FEA3E0FF7808121637900034
:106B6F001BEFF012978990001DA3A3A3E0FF9000E5
:106B7F001CF01297897BFF7A9B79FE129703900086
:106B8F0019E0FB7D0012986090001AE012985D905A
:106B9F00001BE0FB7402FDFC7FA812986490001CA0
:0B6BAF00E0FB7D037C027FA8029864DD
:109D11001271A590007974FFF0A3749CF0A37425CF
:109D2100F0A31216897B017A00790D122CE57B01D3
:109D31007A00790D1297037BFF7A9B79FE129703C4
:069D41007B017A00790DA0
:019D470022F9
:1071A50090001B121695000000007D00129B74A92B
:1071B500077D01129B74900018EFF07402FDFC7FAF
:1071C500A8129B78900019EFF07D03129B74900034
:1071D5001AEFF0AF01A3E0F8A3E0F9A3E0FAA3E00A
:1071E5004FFFEAFEE9FDE8FC780812164A90001BFD
:1071F500121689900018E0FF90001BE0F8A3E0F953
:10720500A3E0FAA3E04FFFEAFEE9FDE8FC780812E7
:10721500164A90001B121689900019E0FF90001B7A
:10722500E0F8A3E0F9A3E0FAA3E04FFFEAFEE9FDE9
:10723500E8FC780812164A90001B12168990001A6D
:10724500E0FFA3E0F8A3E0F9A3E0FAA3E04FFFEA2B
:10725500FEE9FDE8FC90001B12168990001BE0FC7E
:09726500A3E0FDA3E0FEA3E0FF9D
:01726E0022FD
:109D7E001271A5EF2401FFE43EFEE43DFDE43CFC40
:109D8E0090007974FFF0A3749CF0A37425F0A312D5
:109D9E0016897B017A007906122CE57B017A00790F
:049DAE0006026AD46B
:10921E0090009DEEF0A3EFF0A3EBF0A3EAF0A3E92C
:01922E00F04F
:10922F0090009DE0FCA3E0FD7FA8129B7890009F2B
:10923F00E0FBA3E0FAA3E0F9EF1215A690009FE080
:10924F00FBA3E0FAA3E0F9121560FF90009EE00483
:10925F00F0700690009DE004F09000A0E475F0011E
:10926F001215ECEF70BA90009FE0FBA3E0FAA3E0B9
:05927F00F9E40215A650
:108FE80090005EEEF0A3EFF0A3EBF0A3EAF0A3E9A4
:108FF800F0900060E0FBA3E0FAA3E0F912156060CE
:109008003BB40D04E41215A690005EE0FCA3E0FD5D
:10901800A3E0FBA3E0FAA3E0F9121560FB7FA81216
:10902800986490005FE004F0700690005EE004F041
:10903800900061E475F0011215EC80B590005EE0D7
:10904800FCA3E0FDA3E0FBA3E0FAA3E0F91215609E
:06905800FB7FA8029864F2
:107CDB0053656E736F726573204175746F207920D5
:107CEB0073656E736F72312061637469766F732E77
:107CFB000A0D0053656E736F722061637469766F42
:107D0B002073656E736F72312E0A0D0044657465B6
:107D1B00637461646F2E2053656E736F72204175AF
:107D2B00746F2E0A0D0053656E736F726573206E40
:107D3B006F2064657465637461646F732E0A0D0044
:107D4B005665686963756C6F204573706572616EFB
:107D5B00646F2053616C69722E0A0D005665686959
:107D6B0063756C6F2053616C69656E646F2E205563
:0D7D7B006E206D6F6D656E746F2E0A0D0029
:0477ED00410206004F
:07A23A00C2B5C2B6C2B72293
:07A24100C2B5D2B6C2B7227C
:07A24800D2B5D2B6C2B72265
:07A24F00C2B5C2B6D2B7226E
:07A25600D2B5C2B6D2B72257
:07A25D00C2B5D2B6D2B72250
:07A26400D2B5D2B6D2B72239
:10A09600E4FF7DF47C01309115EFFB3395E04B70C6
:0EA0A6000DED1D70011CED4C70EC7F0180E88B
:01A0B4002289
:109973009000337401F012A25D309103E004F01201
:10998300A264309107900033E02402F0900033E0AA
:10999300640170177D12FC7FA8129B78EF600CF4B2
:1099A300900033700404F08002EFF0900033E02461
:0299B30030FF83
:0199B500228F
:1095140012A25620912312A2417BFF20910D7A7C46
:1095240079DB129703E490019580227A7C79FE120C
:1095340097039001957401801412A2417BFF20913E
:10954400157A7D79171297039001957401F09000B4
:109554001274FFF0800C7A7D7931129703E4900045
:0795640012F0900012E0FF7D
:01956B0022DD
:109CD90012A24F30912012A096EF3395E0FEEF6467
:109CE900014E700A129514900011EFF080147BFF59
:109CF9007A7D794B80067BFF7A7D79671297037F9E
:079D09000022900011E0FFB1
:019D10002230
:108BFD00E4900002F012A23A209169900206E07012
:108C0D0016900002E0701030B35A04F0129EAA9034
:108C1D0002067401F0804D900206E064017016901A
:108C2D000002E0701030B33C04F0125B9D90020620
:108C3D007402F0802F900206E0640270279000020B
:108C4D00E0702130B31E04F07D0C7C007FA8129BD8
:108C5D0078EF640170047F5380027F4E128857E4D1
:0F8C6D00900206F012A23A309105E4900002F056
:018C7C0022D5
:1020E900643B686F726100494E475245534520541D
:1020F90041524A45544120005441524A45544120D5
:1021090053494E20494E475245534F20005441529E
:102119004A455441204E4F20524547495354524154
:10212900205041474F2000455843454445205449D4
:10213900454D504F204445204752414349412000D5
:102149004D454E5355414C204E4F20455354412047
:10215900454E20504152515545414445524F20006A
:10216900444952494A41534520412043414A41206B
:1021790000475241434941532E2E2E2000475241D8
:10218900434941532E2E2E004D454E5355414C493E
:102199004441442056454E4349444120004D454E53
:1021A9005355414C494441442045584345444520F1
:1021B900484F524152494F20414345525155455389
:1021C9004520412043414A4120004E4F204553209C
:1021D9004D454E5355414C49444144204E492050A8
:1021E90052455041474F004D454E5355414C204EA5
:1021F9004F205041474F204C4F434143494F4E20B8
:10220900484F59005441524A455441204E4F2045A8
:10221900532044454C205041525155454144455263
:102229004F200053494E2050524553454E43494192
:10223900205645484943554C415220005441524A81
:1022490045544120494E56414C494441200054418E
:10225900524A4554412053494E20464F524D41540C
:102269004F20004655455241204445204C494E4592
:10227900412000554E204D4F4D454E544F20504F53
:1022890052204641564F52200053494E2054415244
:102299004A4554415320004249454E56454E49440A
:1022A9004F20004E4956454C2042414A4F20444553
:1022B900205441524A4554415320004E4F20455322
:1022C900205441524A455441204D454E5355414CA5
:1022D90020004D454E5355414C204655455241200D
:1022E900444520484F524152494F20004249454EEA
:1022F90056454E49444F2E2050554C534520454C88
:1023090020424F544F4E20005441524A45544120D7
:1023190053494E2053414C494441200052454749B5
:102329005354524120494E475245534F20454E2060
:10233900504152515545414445524F2000484F5252
:102349004152494F204E4F2050524F4752414D4123
:10235900444F2000613B38353B494E475245534570
:10236900205441524A4554410A0D0000613B383618
:102379003B5441524A4554412053494E20494E4706
:102389005245534F200A0D0000613B38373B5441F9
:10239900524A455441204E4F2052454749535452C1
:1023A90041205041474F0A0D0000613B38383B45F9
:1023B9005843454445205449454D504F20444520F4
:1023C900475241434941200A0D0000613B38393BDE
:1023D9004D454E5355414C204E4F204553544120B5
:1023E900454E20504152515545414445524F0A0DE1
:1023F9000000613B39303B444952494A4153452029
:10240900412043414A410A0D0000613B39313B47B4
:102419005241434941532E2E2E200A0D0000613BA3
:1024290039333B4D454E5355414C204E4F20455372
:10243900544120454E205041525155454144455241
:102449004F0A0D0000613B39343B4D454E53554110
:102459004C494441442056454E434944410A0D00E4
:1024690000613B39353B4D454E5355414C4944413B
:10247900442045584345444520484F524152494F0D
:102489002041434552515545534520412043414A36
:10249900410A0D0000613B39363B4E4F2045532020
:1024A9004D454E5355414C49444144204E492050D5
:1024B90052455041474F0A0D0000613B39373B4DAA
:1024C900454E5355414C204E4F205041474F204CCB
:1024D9004F434143494F4E20484F590A0D0000616F
:1024E9003B39383B5441524A455441204E4F2045CF
:1024F900532044454C205041525155454144455281
:102509004F200A0D0000613B39383B53494E20509A
:10251900524553454E434941205645484943554C38
:102529004152200A0D0000613B39383B5441524A5F
:1025390045544120494E56414C4944410A0D000039
:10254900613B39383B5441524A4554412053494E25
:1025590020464F524D41544F200A0D0000613B392E
:10256900383B4655455241204445204C494E45414A
:102579000A0D0000613B39383B554E204D4F4D4502
:102589004E544F20504F52204641564F520A0D008B
:1025990000613B39383B53494E205441524A455416
:1025A90041530A0D0000613B39383B4E4956454CB1
:1025B9002042414A4F204445205441524A45544102
:1025C900530A0D0000613B30383B4E4F20455320E4
:1025D9005441524A455441204D454E5355414C0AA8
:1025E9000D0000613B30363B4D454E5355414C2063
:1025F900465545524120444520484F524152494F82
:102609000A0D0000613B30303B4249454E56454E6C
:1026190049444F2E2050554C534520454C20424F9C
:10262900544F4E0A0D0000613B30313B524554492D
:102639005245205355205441524A4554410A0D00F0
:1026490000613B30333B4249454E56454E49444F64
:102659000A0D0000613B39383B5441524A45544107
:102669002053494E2053414C4944410A0D00006111
:102679003B39383B524547495354524120494E470B
:102689005245534F20454E205041525155454144E2
:1026990045524F0A0D0000613B30373BA1204D45A3
:1026A9004E5355414C494441442056454E434944B3
:1026B9004120210A0D0000613B39383B484F524106
:1026C90052494F204E4F2050524F4752414D41449D
:1026D9004F0A0D000057494547414E4420004752D3
:1026E90041434941532000613B39323B57494547F2
:1026F900414E443A000A6400613B39313B4752413B
:10270900434941532000613B30333B4249454E56D2
:10271900454E49444F2000613B30373B20A1204DB5
:10272900454E5355414C494441442056454E434931
:10273900444120212056454E43494F3A203230002A
:10274900AA802807200000000000140000AA8018B1
:09275900010200AA80180102002F
:099F7800900032E025E0FFE4FD59
:059F810090004BEDF023
:109F8600129AF990004CEFF090004BE0600AE4FF63
:089F9600129AF990004CEFF063
:019F9E0022A0
:08992F007B017A007915E4FDCB
:0E993700900046EBF0A3EAF0A3E9F0A3EDF0F8
:10994500E4A3F0900046E0FBA3E0FAA3E0F9900061
:109955004AE0F582758300121579FF601090004981
:0D996500E0FD129F8190004AE004F080D6E2
:0199720022D2
:0E98A30090001EEBF0A3EAF0A3E9F0A3EDF0B5
:1098B100E4900023F0900021E0FF900023E0FEC33C
:1098C1009F502490001EE0FBA3E0FAA3E0F98E82F2
:1098D100758300121579FF900022E0FD129F81909F
:0798E1000023E004F080CE3B
:0198E800225D
:0B946000900046EBF0A3EAF0A3E9F057
:10946B0012000E900049EFF0E4900207F0900049D3
:10947B00E02401FFE433FE900207E0C39FEE64801B
:10948B00F87480985029900046E0FBA3E0FAA3E023
:10949B00F9121560FF129AF990004AEFF09000470D
:0F94AB00E475F0011215EC900207E004F080BEAA
:0194BA00228F
:10956C0078117C007D017BFF7A2779497E007F0D85
:10957C0012153A900192E07022C2877B017A007931
:10958C0016127338C29C7B017A007911E490002288
:10959C00F07D0D1298A3D29CD28722C287E4900052
:1095AC0011F07B017A0079111273387BFF7A2079E4
:0695BC00E9129460D28761
:0195C2002286
:0527620090002BEFF0D8
:10276700782C7C007D017BFF7A2779567E007F06D7
:1027770012153AC287900192E06003022B277B0172
:102787007A00792CFD12993790002BE01216E62A71
:102797004B0127EB55280B56282B57284B58286BEE
:1027A70059288B5A28AB5B286B5D28CB5E28EB5FDB
:1027B700290B60292B61296BAA294BAB2AABAC29C2
:1027C700ABAD29CBAE29EBAF2A6BB0298BB12ACAA7
:1027D700B22AE9B32A8BB52B08B62A0BFA2A2BFEA5
:1027E70000002B247BFF7A2079F012000E90003234
:1027F700EFF0E4FDFF129F81129F787BFF7A20792B
:10280700F0022B1F7BFF7A21790112000E90003214
:10281700EFF0E4FDFF129F81129F787BFF7A217909
:1028270001022B1F7BFF7A21791612000E900032CE
:10283700EFF0E4FDFF129F81129F787BFF7A2179E9
:1028470016022B1F7BFF7A21793012000E9000327F
:10285700EFF0E4FDFF129F81129F787BFF7A2179C9
:1028670030022B1F7BFF7A21794912000E9000322C
:10287700EFF0E4FDFF129F81129F787BFF7A2179A9
:1028870049022B1F7BFF7A21796912000E900032D3
:10289700EFF0E4FDFF129F81129F787BFF7A217989
:1028A70069022B1F7BFF7A21797A12000E90003282
:1028B700EFF0E4FDFF129F81129F787BFF7A217969
:1028C70086022B1F7BFF7A21799112000E9000322E
:1028D700EFF0E4FDFF129F81129F787BFF7A217949
:1028E70091022B1F7BFF7A2179A612000E900032EE
:1028F700EFF0E4FDFF129F81129F787BFF7A217929
:10290700A6022B1F7BFF7A2179D312000E9000328B
:10291700EFF0E4FDFF129F81129F787BFF7A217908
:10292700D3022B1F7BFF7A2179F012000E90003221
:10293700EFF0E4FDFF129F81129F787BFF7A2179E8
:10294700F0022B1F7BFF7A22790D12000E900032C6
:10295700EFF0E4FDFF129F81129F787BFF7A2279C7
:102967000D022B1F7BFF7A22792C12000E9000326A
:10297700EFF0E4FDFF129F81129F787BFF7A2279A7
:102987002C022B1F7BFF7A22794512000E90003212
:10299700EFF0E4FDFF129F81129F787BFF7A227987
:1029A70045022B1F7BFF7A22795712000E900032C7
:1029B700EFF0E4FDFF129F81129F787BFF7A227967
:1029C70057022B1F7BFF7A22796C12000E90003280
:1029D700EFF0E4FDFF129F81129F787BFF7A227947
:1029E7006C022B1F7BFF7A22797C12000E9000323B
:1029F700EFF0E4FDFF129F81129F787BFF7A227927
:102A07007C022B1F7BFF7A22799212000E900032F4
:102A1700EFF0E4FDFF129F81129F787BFF7A227906
:102A270092022B1F7BFF7A2279A012000E900032B0
:102A3700EFF0E4FDFF129F81129F787BFF7A2279E6
:102A4700A0022B1F7BFF7A2279AC12000E90003276
:102A5700EFF0E4FDFF129F81129F787BFF7A2279C6
:102A6700AC022B1F7BFF7A2279C412000E90003232
:102A7700EFF0E4FDFF129F81129F787BFF7A2279A6
:102A8700C4022B1F7BFF7A2279DB12000E900032E3
:102A9700EFF0E4FDFF129F81129F787BFF7A227986
:102AA700DB022B1F7BFF7A2279F512000E90003292
:102AB700EFF0E4FDFF129F81129F787BFF7A227966
:102AC700F580557BFF7A23791112000E900032EFC3
:102AD700F0E4FDFF129F81129F787BFF7A23791123
:102AE70080367BFF7A23792512000E900032EFF0B3
:102AF700E4FDFF129F81129F787BFF7A237925805F
:102B0700177BFF7A23794612000E900032EFF012FE
:102B17009F7C7BFF7A2379467D01129937D28722E2
:102B2700C28790002BE01216E62C2C012B88552B20
:102B370091562B9A572BA3582BAC592BB55A2BBE12
:102B47005B2BC75D2BD05E2BD95F2BE2602BEB6134
:102B57002BFCAA2BF4AB2C44AC2C0CAD2C14AE2CB8
:102B67001CAF2C34B02C04B12C5CB22C64B32C6C8D
:102B7700B42C3CB52C74B62C24FA2C54FE00002C33
:102B87004C7BFF7A23795D022C7A7BFF7A23797558
:102B9700022C7A7BFF7A237992022C7A7BFF7A23A5
:102BA70079B3022C7A7BFF7A2379D4022C7A7BFFC4
:102BB7007A2379FB022C7A7BFF7A247913022C7A09
:102BC7007BFF7A247927022C7A7BFF7A24794E02BD
:102BD7002C7A7BFF7A24796A022C7A7BFF7A247914
:102BE7009E022C7A7BFF7A2479C3022C7A7BFF7AA8
:102BF7002479E8807E7BFF7A25790F80767BFF7AC0
:102C0700257930806E7BFF7A25794980667BFF7A4C
:102C1700257966805E7BFF7A25797D80567BFF7AF2
:102C270025799A804E7BFF7A2579AF80467BFF7A9C
:102C37002579CE803E7BFF7A2579EC80367BFF7A3B
:102C470026790D802E7BFF7A26793080267BFF7AC6
:102C570026794A801E7BFF7A26795D80167BFF7A6C
:102C6700267978800E7BFF7A2679A080067BFF7A0B
:082C77002679C0129460D28797
:012C7F002232
:0E45F300900011EFF0A3EBF0A3EAF0A3E9F0C3
:1046010078157C007D017BFF7A27795C7E007F062F
:1046110012153AC287900192E060030246B79000FA
:1046210011E024A560401460030246B412992F7B67
:10463100FF7A2679DE12000E90001BEFF090001237
:10464100E0FBA3E0FAA3E0F912000E90001BE02FBB
:1046510004F0E4FDFF129F8190001B129F7B7BFF02
:104661007A2679DE803812992F7BFF7A2679E71234
:10467100000E90001BEFF0900012E0FBA3E0FAA304
:10468100E0F912000E90001BE02F04F0E4FDFF1290
:104691009F8190001B129F7B7BFF7A2679E77D012A
:1046A100129937900012E0FBA3E0FAA3E0F97D0133
:1046B100129937D28722C287900011E024A5602485
:1046C10024A7700302476124B6605724A260030245
:1046D10047DB781C7C007D017BFF7A2679F012197B
:1046E1007302479D781C7C007D017BFF7A2779014D
:1046F100121973900012E0FBA3E0FAA3E0F9120093
:104701000E90001BEFF024FFFFE434FFFE90001237
:10471100E0FBA3E0FAA3E0F98F828E83E41215B8DF
:10472100807A781C7C007D017BFF7A27790F121932
:1047310073900012E0FBA3E0FAA3E0F912000E90DF
:10474100001BEFF024FFFFE434FFFE900012E0FBBA
:10475100A3E0FAA3E0F98F828E83E41215B8803CBE
:10476100781C7C007D017BFF7A27792012197390D8
:104771000012E0FBA3E0FAA3E0F912000E90001B87
:10478100EFF024FFFFE434FFFE900012E0FBA3E012
:10479100FAA3E0F98F828E83E41215B8900012E03B
:1047A100F9A3E0FAA3E090004AC9F0A3EAF0A3E973
:1047B100F07B017A00791C1291B390004A74FFF0EA
:1047C100A37426F0A374FEF07B017A00791C129188
:0C47D100B37B017A00791C129460D2873F
:0147DD0022B9
:100026004023216046625E262A003A5B3C253F5803
:10003600545D3D29000D0A0A25733E200025630004
:100046002564000D0A0A2041435455414C20494479
:100056005F434C49454E54453D25730D0A0A000D34
:100066000A0A20444947495445205355204E5545D0
:10007600564F2049445F434C49454E54453D000D7B
:100086000A0A204441544F204D4F444946494341B2
:10009600444F2049445F434C49454E54453D2573E2
:1000A6000D0A0A000D0A0A2041435455414C2043CB
:1000B6004F445F5041524B3D25730D0A0A000D0A0D
:1000C6000A20444947495445205355204E55455624
:1000D6004F20434F445F5041524B3D000D0A0A20CA
:1000E6004441544F204D4F444946494341444F20D3
:1000F600434F445F5041524B3D25730D0A0A000D94
:100106000A0A2041435455414C205449454D504F0D
:100116005F4752414349413D25730D0A0A000D0AC6
:100126000A20444947495445205355204E554556C3
:100136004F205449454D504F5F4752414349413D39
:10014600000D0A0A204441544F204D4F4449464968
:100156004341444F205449454D504F5F4752414318
:1001660049413D25730D0A0A000D0A0A20414354F0
:1001760055414C2053494E5F434F42524F20494E02
:10018600484142494C495441444F3D25730D0A0AA2
:10019600000D0A0A2041435455414C2053494E5FF5
:1001A600434F42524F204752415449533D25730D08
:1001B6000A0A000D0A0A2041435455414C2053496E
:1001C6004E5F434F42524F204752415449532059A4
:1001D6002053414C49444120454C204D49534D4FF5
:1001E600204449413D25730D0A0A000D0A0A2044A0
:1001F6004947495445205355204E5545564F20539F
:10020600494E5F434F42524F3D000D0A0A2041437B
:100216005455414C20444542554720494E48414299
:10022600494C495441444F3D25730D0A0A000D0AB5
:100236000A2041435455414C2044454255472048E5
:100246004142494C495441444F3D25730D0A0A0029
:100256000D0A0A2044494749544520454C204E552D
:1002660045564F2045535441444F2044452044456C
:100276004255473D000D0A0A2041435455414C2042
:100286005553455F4C505220494E484142494C49CE
:100296005441444F3D25730D0A0A000D0A0A2041B8
:1002A600435455414C205553455F4C5052204841CC
:1002B60042494C495441444F3D25730D0A0A000DED
:1002C6000A0A2044494749544520454C204E554585
:1002D600564F2045535441444F20444520555345DD
:1002E6005F4C50523D000D0A0A2050414E54414C7D
:1002F6004C41204C434420484142494C49544144D6
:10030600413D25730D0A0A000D0A0A2050414E543C
:10031600414C4C41205241535042455252592020A3
:10032600484142494C49544144413D25730D0A0A0E
:10033600000D0A0A2044494749544520454C204EA1
:100346005545564F2045535441444F204445204C73
:10035600412050414E54414C4C41203D000D0A0A6B
:100366002041435455414C20434F4D504152414347
:10037600494F4E2041435449564120204841424965
:100386004C49544144413D25730D0A0A000D0A0AA1
:1003960020455850494445205441524A455441202D
:1003A60050554C53414E444F20424F544F4E0D0A28
:1003B6000A000D0A0A204558504944452054415226
:1003C6004A455441204155544F4D41544943410DEE
:1003D6000A0A000D0A0A2044494749544520454C5B
:1003E600204E5545564F2045535441444F204445D1
:1003F6004C20455850454449444F523D000D0A0A89
:100406002041435455414C20414E54495041535389
:100416004241434B20494E484142494C495441448C
:100426004F3D25730D0A0A000D0A0A204143545513
:10043600414C20414E5449504153534241434B2075
:10044600484142494C495441444F3D25730D0A0ADF
:10045600000D0A0A2044494749544520454C204E80
:100466005545564F2045535441444F20444520415D
:100476004E5449504153534241434B3D000D0A0AE5
:100486002041435455414C20504C41434120494E54
:10049600484142494C495441444F3D25730D0A0A8F
:1004A600000D0A0A2041435455414C20504C41430B
:1004B6004120484142494C495441444F3D25730D22
:1004C6000A0A000D0A0A2044494749544520454C6A
:1004D600204E5545564F2045535441444F204445E0
:1004E60020504C4143413D000D0A0A2041435455DA
:1004F600414C20414444524553535F484947485F65
:10050600424F4152443D25730D0A0A000D0A0A2046
:10051600444947495445204C41204E5545564120B3
:10052600414444524553535F484947485F424F410F
:1005360052443D000D0A0A2041435455414C20487F
:100546004F524152494F20494E484142494C495425
:1005560041444F3D25730D0A0A000D0A0A20414306
:100566005455414C20484F524152494F2048414230
:10057600494C495441444F3D25730D0A0A000D0A62
:100586000A2044494749544520454C204E55455676
:100596004F2045535441444F20444520484F524133
:1005A60052494F3D000D0A0A204469676974652067
:1005B600486F72612030383A3030204D696E75745C
:1005C6006F732044657364653A20000D0A0A20485B
:1005D6006F72612050726F6772616D616461204451
:1005E600657364653A200025633A000D0A0A2044C3
:1005F600696769746520486F72613A4D696E7574F2
:100606006F732048617374613A20000D0A0A20480E
:100616006F72612050726F6772616D61646120480C
:10062600617374613A20000D0A0A2044696769748F
:1006360065206C6F73206469617320612070726F2E
:100646006772616D6172204C756E6573203D203254
:100656002C20004D6172746573203D20332C204D93
:10066600696572636F6C6573203D20342C204A7572
:1006760065766573203D20352C2000566965726EBF
:100686006573203D20362C2053616261646F203DE6
:1006960020372C20446F6D696E676F203D20312016
:1006A6003A20000D0A0A20446961732050726F6770
:1006B60072616D61646F73203A2000204C756E651F
:1006C60073003D2025632C00204D61727465730014
:1006D600204D696572636F6C657300204A75657697
:1006E60065730020566965726E65730020536162FA
:1006F60061646F0020446F6D696E676F003D202551
:1007060063000D0A0A2044696769746520656C20D8
:100716006E756D65726F2064656C20486F726172CC
:10072600696F20612070726F6772616D6172203D22
:1007360020000D0A0A2050726F6772616D61722087
:10074600736567756E646F20486F726172696F209A
:1007560073693D283129206E6F3D2830293D2000E0
:100766000D0A0A2041435455414C205449504F5FCD
:100776005645484943554C4F204D454E5355414CDF
:1007860020494E484142494C495441444F3D257306
:100796000D0A0A000D0A0A2041435455414C2054C3
:1007A60049504F5F5645484943554C4F204D454E9D
:1007B6005355414C20484142494C495441444F3DD0
:1007C60025730D0A0A000D0A0A2044494749544573
:1007D60020454C204E5545564F2045535441444FD5
:1007E600204445205449504F5F5645484943554C8F
:1007F6004F204D454E5355414C3D000D0A0A2041B0
:10080600435455414C205449504F5F56454849433F
:10081600554C4F20204D454E5355414C20484142A2
:10082600494C495441444F3D25730D0A0A000D0AAF
:100836000A2041435455414C20414E54495041539E
:10084600534241434B204D454E5355414C20494E52
:10085600484142494C495441444F3D25730D0A0ACB
:10086600000D0A0A2041435455414C20414E54493B
:10087600504153534241434B204D454E5355414CF5
:1008860020484142494C495441444F3D25730D0A85
:100896000A000D0A0A2044494749544520454C2080
:1008A6004E5545564F2045535441444F204445200C
:1008B600414E5449504153534241434B204D454EBE
:1008C6005355414C3D000D0A0A2041435455414CB5
:1008D60020414E5449504153534241434B20204DF1
:1008E600454E5355414C20484142494C4954414498
:1008F6004F3D25730D0A0A000D0A0A20414354553F
:10090600414C2046454348412056454E43494D49B2
:10091600454E544F2050415353574F52443A257336
:100926000D0A0A000D0A0A2F3E49642052656769BE
:100936007374726F3A002573000D0A0A2F3E5061D8
:100946007373776F72643A000D0A0A204449474967
:100956005445204C41204E55455641204645434876
:10096600412044452056454E43494D49454E544F36
:100976003D000D0A0A2025730D0A0A000D0A0A20F9
:100986002558000D0A0A2041435455414C2046453E
:100996004348412044452056454E43494D49454E1E
:1009A600544F2050524F4752414D414441203D251E
:1009B600730D0A0A000D0A2049445F434C49454E0F
:1009C60054452020202020202020202D2D2D20437E
:1009D6004D442030204964656E74696669636164BC
:1009E6006F722064656C20636C69656E7465206D3A
:1009F6006178696D6F20323535000D0A20434F440A
:100A06005F5041524B2020202020202020202020F3
:100A16002D2D2D20434D44203120456C206E756DC3
:100A260065726F2064656C207061727175656164B2
:100A360065726F206D6178696D6F20323535000DF6
:100A46000A20545F4752414349412020202020205C
:100A560020202020202D2D2D20434D4420322054AF
:100A660069656D706F2073696E20636F62726F20A7
:100A760030302C20206D6178696D6F20323535005D
:100A86000D0A2053494E5F434F42524F20202020EB
:100A96002020202020202D2D2D20434D44203320A2
:100AA600496E686162696C697461646F3D20302CBF
:100AB600204772617469733D2031202C2047726192
:100AC60074697320792073616C69646120656C2098
:100AD6006D69736D6F206469613D2032000D0A20D7
:100AE6004445425547202020202020202020202039
:100AF6002020202D2D2D20434D4420342048616296
:100B0600696C69746172203D20312C20496E6861E0
:100B160062696C69746172203D2030000D0A2055AF
:100B260053455F4C5052202020202020202020209A
:100B360020202D2D2D20434D44203520486162690B
:100B46006C69746172203D20312C20496E686162A7
:100B5600696C69746172203D2030000D0A20544989
:100B6600504F5F50414E54414C4C41202020202094
:100B7600202D2D2D20434D4420362050414E5441EA
:100B86004C4C41204C4344203D302050414E544172
:100B96004C4C41205241535042455252493D31003E
:100BA6000D0A20434152445F4155544F4D4154492B
:100BB6004341202020202D2D2D20434D4420372039
:100BC600424F54544F4E3D30204155544F4D4154A1
:100BD6004943413D31000D0A20414E54495041538D
:100BE600534241434B202020202020202D2D2D2014
:100BF600434D44203820486162696C6974617220F3
:100C06003D20312C20496E686162696C697461729D
:100C1600203D2030000D0A20504C41434120202029
:100C260020202020202020202020202D2D2D204374
:100C36004D44203920486162696C69746172203DB7
:100C460020312C20496E686162696C69746172207A
:100C56003D2030000D0A20414444524553535F481D
:100C66004947485F424F415244202D2D2D20434D88
:100C760044203130204C6120646972656363696F7A
:100C86006E20616C74612064656C20626F617264B1
:100C96002064656C206E756D65726F203520616C01
:100CA60020392073696E6F20736520757361206427
:100CB60065626520697220656E2030000D0A204845
:100CC6004F524152494F2020202020202020202012
:100CD60020202D2D2D20434D442031312050726F80
:100CE60067616D6120313020686F726172696F7360
:100CF6002064656C203120616C203130000D0A20A3
:100D060056414C4944415F564548495F4D454E530F
:100D160055414C2D2D2D20434D4420313220486124
:100D260062696C69746172203D20312C20496E68BD
:100D36006162696C69746172203D2030000D0A2081
:100D46005553455F4150425F4D454E5355414C20EA
:100D56002020202D2D2D20434D4420313320486165
:100D660062696C69746172203D20312C20496E687D
:100D76006162696C69746172203D2030000D0A2041
:100D86004159554441202020202020202020202089
:100D96002020202D2D2D20434D44203134204D750B
:100DA6006573747261206C6F7320636F6D616E641E
:100DB6006F73000D0A2053414C49522020202020F9
:100DC6002020202020202020202D2D2D20434D4482
:100DD6002031352053616C69722064652070726F12
:100DE6006772616D6163696F6E000D0A0A536973FC
:100DF60074656D612064652050726F6772616D6104
:100E060063696F6E20457870656469646F72200D42
:100E16000A0D0A000D0A436F6D616E646F206E6FD6
:100E2600206578697374652027257327003A5B3C33
:100E3600253F58545D3D2900232A594A41494D45CD
:100E460063616D696C744B0077727A32357136382E
:100E56002D393166532E4000200D0A00200D0A0060
:040E6600220D0A004F
:1077F1005401AB2F00000000000000000000000059
:10780100000000000000004B01A061646D696E0082
:107811000000000000603301BF3000003100003281
:10782100000033000034000035000036000037004E
:1078310000380000390000313000313100313200B0
:0C784100313300313400313500313600A5
:0B3FFE0090005EEBF0A3EAF0A3E9F0F6
:1040090078637C007D017BFF7A0E79337E007F0B1C
:1040190012153A786E7C007D017BFF7A0E793E7E1F
:10402900007F1012153A787E7C007D017BFF7A0EA5
:10403900794E7E007F1012153A7B017A0079997FBB
:10404900507E0312921E7B017A00799912726FEFEA
:104059003395E0FEEF64014E78637C007D017BFFC0
:1040690060067A00792680047A00793012197390F3
:10407900005EE0FBA3E0FAA3E0F912000E900061F4
:10408900EFF0E4A3F0900061E0FFA3E0FEC39F40DE
:10409900030241EE90005EE0FBA3E0FAA3E0F98E93
:1040A90082758300121579FD7C0074632EF582E414
:1040B9003400F583E02DFFEC3390019CF0A3EFF081
:1040C9007E00540FFFA3EEF0A3EFF0700BE004F0B5
:1040D900700690019EE004F090019EE0FEA3E024AA
:1040E9006DF58274003EF583E07E002DFFEE3C9075
:1040F900019CF0A3EFF07E00540FFFA3EEF0A3EFB5
:10410900F0700BE004F0700690019EE004F090015D
:104119009EE0FEA3E0247DF58274003EF583E0FF76
:1041290090019CE0FEA3E06FFF90019CEEF0FEA3DE
:10413900EFF0D394FFEE9400400590019CE4F090D9
:10414900019CE0FEA3E0FFC3947AEE94004015D3EE
:10415900EF94FFEE9400500CEF547AFF90019CE429
:10416900F0A3EFF0C390019DE0943090019CE0949E
:1041790000500CA3E02440F090019CE03400F09042
:10418900019CE0FEA3E0FFC3945BEE94004014D3CE
:10419900EF9460EE9400500BE02407F090019CE04E
:1041A9003400F090019CE0FEA3E0FFC3943AEE9442
:1041B900004014D3EF9440EE9400500BE024F9F042
:1041C90090019CE034FFF090019CA3E0FF90006215
:1041D900E0248EF582E43400F583EFF0900062E08C
:1041E90004F002408E900062E0248EF582E43400EF
:0A41F900F583E4F07B017A00798E73
:014203002298
:0B928400900047EBF0A3EAF0A3E9F034
:10928F00E490004DF090004DE0FFC3941174809472
:10929F00805041EF75F003A424BFF9740135F0FA43
:1092AF007B01784A7C007D01121973784A7C007D1E
:1092BF0001900047E0FBA3E0FAA3E0F912188AEF50
:1092CF003395E04F700690004DE0FF2290004DE087
:0692DF0004F080B17FFFE6
:0192E5002266
:0899B600E0FBA3E0FAA3E0F9D5
:0B99BE0090005EEBF0A3EAF0A3E9F0DC
:1099C90078617C007D017B017A0179A01219737895
:1099D900617C007D0190005EE0FBA3E0FAA3E0F961
:0E99E90012188AEF3395E04F7002FF227FFFC5
:0199F700224D
:069A7A007B017A00793344
:0B9A800090005EEBF0A3EAF0A3E9F019
:109A8B0078617C007D017BFF7A0E795E7E007F041E
:109A9B0012153A9000687401F0A37400F0A374617E
:0F9AAB00F090005EE0FBA3E0FAA3E0F9026BBAD3
:10861C00E0FBA3E0FAA3E02FF9EA3EFAE92401F922
:03862C00E43AFA33
:0B862F00900047EBF0A3EAF0A3E9F095
:10863A00784A7C007D017BFF7A0E79627E007F0496
:10864A0012153A784E7C007D017BFF7A0E79667EA0
:10865A00007F0412153A900047E0FBA3E0FAA3E07A
:10866A00F9121560FFB4200C900048E475F001126D
:10867A0015EC80E2EF900068B4220D7401F0A37447
:10868A0000F0A3744EF080167401F0A37400F0A3F6
:10869A00744AF0900047E0FBA3E0FAA3E0F9126BFA
:0186AA00BA15
:0186AB0022AC
:10A12C009000797401F0A37401F0A374ABF07BFF81
:07A13C007A00793B022CEBD5
:088C7D007A0079647B01E4FD3B
:0E8C8500900072EBF0A3EAF0A3E9F0A3EDF08B
:108C930012A20B900072E0FBA3E0FAA3E0F9EF123B
:108CA30015A6900075E0701D900072E0FBA3E0FA3A
:108CB300A3E0F9121560900079F07BFF7A00794305
:108CC300122CEB80057F2A129AF9900072E0FBA325
:108CD300E0FAA3E0F9121560FF7E00900073E475DB
:108CE300F0011215EC900072E0FBA3E0FAA3E0F9A7
:098CF300E41215A6EF640D709760
:018CFC002255
:107B7100E4FDFC7FA8129B787E00900051EEF0A3FB
:107B8100EFF090007974FFF0A37400F0A37446F055
:107B9100A3EEF0A3EFF07B017A007947122CE59078
:107BA10000797401F0A37400F0A37447F07BFF7AAD
:107BB100007949122CEB7BFF7A007965122CEB7A64
:107BC100007947128C817B017A007947126D7C9094
:107BD1000051EEF0A3EFF0FBE4FDFC7FA8129864E6
:107BE100E4FDFC7FA8129B787E00900051EEF0A38B
:107BF100EFF090007974FFF0A37400F0A37446F0E5
:107C0100A3EEF0A3EFF07B017A007947122CE59007
:107C110000797401F0A37400F0A37447F07BFF7A3C
:067C2100007985022CEB46
:107881007D027C007FA8129B787E00900051EEF073
:10789100A3EFF090007974FFF0A37400F0A3744695
:1078A100F0A3EEF0A3EFF07B017A007947122CE50B
:1078B1009000797401F0A37400F0A37447F07BFF8A
:1078C1007A0079AA122CEB7BFF7A0079C4122CEB97
:1078D1007B017A007947E4FD128C857B017A00797E
:1078E10047126D7C900051EEF0A3EFF0FB7D027C1E
:1078F100007FA81298647D027C007FA8129B787E8D
:1079010000900051EEF0A3EFF090007974FFF0A326
:107911007400F0A37446F0A3EEF0A3EFF07B017ABC
:10792100007947122CE59000797401F0A37400F0FE
:0D793100A37447F07BFF7A0079E2022CEB93
:10793E007D047C007FA8129B787E00900051EEF0B3
:10794E00A3EFF090007974FFF0A37400F0A37446D7
:10795E00F0A3EEF0A3EFF07B017A007947122CE54D
:10796E009000797401F0A37400F0A37447F07BFFCC
:10797E007A017905122CEB7BFF7A017924122CEB1C
:10798E007B017A007947E4FD128C857B017A0079C0
:10799E0047126D7C900051EEF0A3EFF0FB7D047C5E
:1079AE00007FA81298647D047C007FA8129B787ECD
:1079BE0000900051EEF0A3EFF090007974FFF0A369
:1079CE007400F0A37446F0A3EEF0A3EFF07B017AFF
:1079DE00007947122CE59000797401F0A37400F041
:0D79EE00A37447F07BFF7A017947022CEB70
:1056CD007D067C007FA8129B787E00900051EEF045
:1056DD00A3EFF090007974FFF0A37400F0A374466B
:1056ED00F0A3EEF0A3EFF07B017A007947122CE5E1
:1056FD00900051E07002A3E0701590007904F0A3C2
:10570D007400F0A37447F07BFF7A01796F803590B8
:10571D000051E07004A3E06401701590007904F06D
:10572D00A37400F0A37447F07BFF7A01799780147E
:10573D009000797401F0A37400F0A37447F07BFF1F
:10574D007A0179B9122CEB7BFF7A0179F1122CEBEE
:10575D007B017A007947E4FD128C857B017A007913
:10576D0047126D7C900051EEF0A3EFF0FB7D067CAF
:10577D00007FA81298647D067C007FA8129B787E1E
:10578D0000900051EEF0A3EFF090007974FFF0A3BC
:10579D007400F0A37446F0A3EEF0A3EFF07B017A52
:1057AD00007947122CE5900051E07002A3E07015CE
:1057BD0090007904F0A37400F0A37447F07BFF7A96
:1057CD0001796F8035900051E07004A3E0640170A1
:1057DD001590007904F0A37400F0A37447F07BFFDB
:1057ED007A01799780149000797401F0A37400F018
:0D57FD00A37447F07BFF7A0179B9122CEB01
:01580A00227B
:106306007D087C007FA8129B787E00900051EEF0FD
:10631600A3EFF090007974FFF0A37400F0A3744625
:10632600F0A3EEF0A3EFF07B017A007947122CE59B
:10633600900051E07002A3E0701590007904F0A37C
:106346007400F0A37447F07BFF7A027910801490F2
:1063560000797401F0A37400F0A37447F07BFF7A10
:10636600027934122CEB7BFF7A027956122CEB7BE6
:10637600017A007947E4FD128C857B017A00794722
:10638600126D7C900051EEF0A3EFF0FB7D087C00CF
:106396007FA81298647D087C007FA8129B787E00F7
:1063A600900051EEF0A3EFF090007974FFF0A37423
:1063B60000F0A37446F0A3EEF0A3EFF07B017A00A1
:1063C6007947122CE5900051E07002A3E070159019
:1063D600007904F0A37400F0A37447F07BFF7A02FF
:1063E600791080149000797401F0A37400F0A374FE
:0B63F60047F07BFF7A027934122CEB99
:016401002278
:106402007D0A7C007FA8129B787E00900051EEF0FE
:10641200A3EFF090007974FFF0A37400F0A3744628
:10642200F0A3EEF0A3EFF07B017A007947122CE59E
:10643200900051E07002A3E0701590007904F0A37F
:106442007400F0A37447F07BFF7A02797B8014908A
:1064520000797401F0A37400F0A37447F07BFF7A13
:106462000279A1122CEB7BFF7A0279C5122CEB7B0D
:10647200017A007947E4FD128C857B017A00794725
:10648200126D7C900051EEF0A3EFF0FB7D0A7C00D0
:106492007FA81298647D0A7C007FA8129B787E00F8
:1064A200900051EEF0A3EFF090007974FFF0A37426
:1064B20000F0A37446F0A3EEF0A3EFF07B017A00A4
:1064C2007947122CE5900051E07002A3E07015901C
:1064D200007904F0A37400F0A37447F07BFF7A0202
:1064E200797B80149000797401F0A37400F0A37496
:0B64F20047F07BFF7A0279A1122CEB2F
:0164FD00227C
:1064FE007D0E7C007FA8129B787E00900051EEF0FE
:10650E00A3EFF090007974FFF0A37400F0A374462B
:10651E00F0A3EEF0A3EFF07B017A007947122CE5A1
:10652E00900051E07002A3E0701590007904F0A382
:10653E007400F0A37447F07BFF7A0279EC8014901C
:10654E0000797401F0A37400F0A37447F07BFF7A16
:10655E0003790E122CEB7BFF7A037937122CEB7B2F
:10656E00017A007947E4FD128C857B017A00794728
:10657E00126D7C900051EEF0A3EFF0FB7D0E7C00CF
:10658E007FA81298647D0E7C007FA8129B787E00F7
:10659E00900051EEF0A3EFF090007974FFF0A37429
:1065AE0000F0A37446F0A3EEF0A3EFF07B017A00A7
:1065BE007947122CE5900051E07002A3E07015901F
:1065CE00007904F0A37400F0A37447F07BFF7A0205
:1065DE0079EC80149000797401F0A37400F0A37428
:0B65EE0047F07BFF7A037963122CEB6F
:0165F900227F
:107583007D0F7C007FA8129B787E00900051EEF067
:10759300A3EFF090007974FFF0A37400F0A3744696
:1075A300F0A3EEF0A3EFF07B017A007947122CE50C
:1075B300900051E07002A3E07BFF70067A03799399
:1075C30080047A0379B8122CEB7BFF7A0379D91202
:1075D3002CEB7B017A007947E4FD128C857B017AE1
:1075E300007947126D7C900051EEF0A3EFF0FB7D24
:1075F3000F7C007FA81298647D0F7C007FA8129BEC
:10760300787E00900051EEF0A3EFF090007974FFC4
:10761300F0A37400F0A37446F0A3EEF0A3EFF07BA5
:10762300017A007947122CE5900051E07002A3E043
:107633007BFF70067A03799380047A0379B8122C5E
:01764300EB5B
:017644002223
:1065FA007D107C007FA8129B787E00900051EEF0FF
:10660A00A3EFF090007974FFF0A37400F0A374462E
:10661A00F0A3EEF0A3EFF07B017A007947122CE5A4
:10662A00900051E07002A3E0701590007904F0A385
:10663A007400F0A37447F07BFF7A04790380149006
:10664A0000797401F0A37400F0A37447F07BFF7A19
:10665A0004792E122CEB7BFF7A047957122CEB7BF0
:10666A00017A007947E4FD128C857B017A0079472B
:10667A00126D7C900051EEF0A3EFF0FB7D107C00D0
:10668A007FA81298647D107C007FA8129B787E00F8
:10669A00900051EEF0A3EFF090007974FFF0A3742C
:1066AA0000F0A37446F0A3EEF0A3EFF07B017A00AA
:1066BA007947122CE5900051E07002A3E070159022
:1066CA00007904F0A37400F0A37447F07BFF7A0406
:1066DA00790380149000797401F0A37400F0A37414
:0B66EA0047F07BFF7A04792E122CEBA6
:0166F5002282
:1066F6007D117C007FA8129B787E00900051EEF001
:10670600A3EFF090007974FFF0A37400F0A3744631
:10671600F0A3EEF0A3EFF07B017A007947122CE5A7
:10672600900051E07002A3E0701590007904F0A388
:106736007400F0A37447F07BFF7A04798380149089
:1067460000797401F0A37400F0A37447F07BFF7A1C
:106756000479A7122CEB7BFF7A0479C9122CEB7B08
:10676600017A007947E4FD128C857B017A0079472E
:10677600126D7C900051EEF0A3EFF0FB7D117C00D2
:106786007FA81298647D117C007FA8129B787E00FA
:10679600900051EEF0A3EFF090007974FFF0A3742F
:1067A60000F0A37446F0A3EEF0A3EFF07B017A00AD
:1067B6007947122CE5900051E07002A3E070159025
:1067C600007904F0A37400F0A37447F07BFF7A0409
:1067D600798380149000797401F0A37400F0A37497
:0B67E60047F07BFF7A0479A7122CEB30
:0167F1002285
:106C9E007D127C007FA8129B787E00900051EEF052
:106CAE00A3EFF090007974FFF0A37400F0A3744684
:106CBE00F0A3EEF0A3EFF07B017A007947122CE5FA
:106CCE00900051E07002A3E07006900079048005F8
:106CDE009000797401F0A37400F0A37447F07BFF69
:106CEE007A0479EE122CEB7BFF7A057912122CEBDB
:106CFE007B017A007947E4FD128C857B017A00795D
:106D0E0047126D7C900051EEF0A3EFF0FB7D127CEC
:106D1E00007FA81298647D127C007FA8129B787E5B
:106D2E0000900051EEF0A3EFF090007974FFF0A305
:106D3E007400F0A37446F0A3EEF0A3EFF07B017A9B
:106D4E00007947122CE5900051E07002A3E0700626
:106D5E009000790480059000797401F0A37400F01E
:0D6D6E00A37447F07BFF7A0479EE122CEB42
:016D7B0022F5
:109DB2009000627419F0A37432F0A3744BF0A37490
:109DC20064F0A3747DF0A37496F0A374AFF0A3744F
:109DD200C8F0A374E1F0A374FAF0E4A3F07B017A73
:039DE200007962A3
:019DE500225B
:0A5CB900900062EEF0FCA3EFF0FD96
:105CC3007FA8129B787E0090006EEEF0A3EFF09019
:105CD300007974FFF0A37400F0A37446F0A3EEF010
:105CE300A3EFF07B017A007964122CE590006EE05B
:105CF3007002A3E0701590007904F0A37400F0A380
:105D03007464F07BFF7A05793A801490007974010A
:105D1300F0A37400F0A37464F07BFF7A057960123A
:105D23002CEB7BFF7A057984122CEB7B017A0079CB
:105D330064E4FD128C857B017A007964126D7C909A
:105D4300006EEEF0A3EFF0900062E0FCA3E0FDAB89
:105D5300077FA8129864900062E0FCA3E0FD7FA88F
:105D6300129B787E0090006EEEF0A3EFF090007926
:105D730074FFF0A37400F0A37446F0A3EEF0A3EF56
:105D8300F07B017A007964122CE590006EE07002DA
:105D9300A3E09000707018F0A3F090007904F0A3D2
:105DA3007400F0A37464F07BFF7A05793A8017E4FA
:105DB300F0A304F0900079F0A37400F0A37464F0EE
:0F5DC3007BFF7A057960122CEB900070A3E0FF54
:015DD20022AE
:08420400900062EEF0A3EFF060
:10420C007BFF7A0579AB122CEB128C7D7BFF7A0548
:10421C0079D1122CEB900063E02407FD900062E052
:10422C003400FC900064E0FB7FA81298649000635B
:10423C00E02407FD900062E03400FC7FA8129B781C
:10424C007BFF7A007943900079EFF0122CEB900011
:10425C0063E02408FD900062E03400FC900065E00F
:10426C00FB7FA8129864900063E02408FD90006224
:10427C00E03400FC7FA8129B787BFF7A0579ED90E7
:10428C000079EFF0122CEB900063E02409FD900014
:10429C0062E03400FC900067E0FB7FA81298649009
:1042AC000063E02409FD900062E03400FC7FA8125A
:1042BC009B787BFF7A007943900079EFF0122CEB1E
:1042CC00900063E0240AFD900062E03400FC900052
:1042DC0068E0FB7FA8129864900063E0240AFD90CC
:1042EC000062E03400FC7FA8129B787BFF7A007997
:1042FC0043900079EFF0122CEB7BFF7A0579F112E9
:10430C002CEB128C7D7BFF7A067911122CEB900032
:10431C0063E0240BFD900062E03400FC900064E04C
:10432C00FB7FA8129864900063E0240BFD90006260
:10433C00E03400FC7FA8129B787BFF7A00794390D5
:10434C000079EFF0122CEB900063E0240CFD900050
:10435C0062E03400FC900065E0FB7FA8129864904A
:10436C000063E0240CFD900062E03400FC7FA81296
:10437C009B787BFF7A0579ED900079EFF0122CEBAE
:10438C00900063E0240DFD900062E03400FC90008E
:10439C0067E0FB7FA8129864900063E0240DFD9009
:1043AC000062E03400FC7FA8129B787BFF7A0079D6
:1043BC0043900079EFF0122CEB900063E0240EFD9B
:1043CC00900062E03400FC900068E0FB7FA812983B
:1043DC0064900063E0240EFD900062E03400FC7FEA
:1043EC00A8129B787BFF7A007943900079EFF0025A
:0243FC002CEBA8
:083B2800900062EEF0A3EFF043
:103B30007BFF7A06792D122CEB7BFF7A06795912DE
:103B40002CEB7BFF7A067981122CEB7B017A0079D2
:103B500064E4FD128C857BFF7A0679A9122CEBE4D4
:103B600090006FF090006FE0FFC394087480948021
:103B70004003023DDE74642FF582E43400F583E0F7
:103B8000900070F0643270437BFF7A0679C1122C8A
:103B9000EB900063E02401FD900062E03400FC7BC8
:103BA000327FA8129864900063E02401FD900062C7
:103BB000E03400FC7FA8129B7890006EEFF07BFF52
:103BC0007A0679C8900079F0122CEB90006FE0240F
:103BD00064F582E43400F583E0900070F0643370A3
:103BE000437BFF7A0679CE122CEB900063E024022F
:103BF000FD900062E03400FC7B337FA81298649053
:103C00000063E02402FD900062E03400FC7FA81213
:103C10009B7890006EEFF07BFF7A0679C890007970
:103C2000F0122CEB90006FE02464F582E43400F590
:103C300083E0900070F0643470437BFF7A0679D69D
:103C4000122CEB900063E02403FD900062E034004E
:103C5000FC7B347FA8129864900063E02403FD90FD
:103C60000062E03400FC7FA8129B7890006EEFF0B9
:103C70007BFF7A0679C8900079F0122CEB90006FE8
:103C8000E02464F582E43400F583E0900070F06491
:103C90003570437BFF7A0679E1122CEB900063E0EC
:103CA0002404FD900062E03400FC7B357FA812986C
:103CB00064900063E02404FD900062E03400FC7F27
:103CC000A8129B7890006EEFF07BFF7A0679C8907F
:103CD0000079F0122CEB90006FE02464F582E4345C
:103CE00000F583E0900070F0643670437BFF7A0645
:103CF00079E9122CEB900063E02405FD900062E06E
:103D00003400FC7B367FA8129864900063E02405A1
:103D1000FD900062E03400FC7FA8129B7890006E5A
:103D2000EFF07BFF7A0679C8900079F0122CEB90C7
:103D3000006FE02464F582E43400F583E0900070C5
:103D4000F0643770437BFF7A0679F2122CEB900017
:103D500063E02406FD900062E03400FC7B377FA81E
:103D6000129864900063E02406FD900062E0340045
:103D7000FC7FA8129B7890006EEFF07BFF7A0679AB
:103D8000C8900079F0122CEB90006FE02464F5826B
:103D9000E43400F583E0900070F0643170377BFF0D
:103DA0007A0679FA122CEB900062E0FCA3E0FD7B2E
:103DB000317FA8129864900062E0FCA3E0FD7FA828
:103DC000129B7890006EEFF07BFF7A0779039000EA
:0E3DD00079F0122CEB90006FE004F0023B64DF
:013DDE0022C2
:10544600129DB278517C007D011219737BFF7A0799
:105456007908122CEB7B017A007947E4FD128C85E2
:105466007B017A007947126D7CEF14900061F0E0C1
:105476002451F582E43400F583E0FF7E0090005C61
:10548600EEF0A3EFF0A3EEF0A3EFF090005DE024C2
:105496000FF090005CE03400F0E0FEA3E0FF125C49
:1054A600B990005EE0FFA3E090005CCFF0A3EFF0C0
:1054B6009000617401F0900061E0FFC3940874806D
:1054C6009480501C90005DE02FFD90005CE034005D
:1054D600FC7BFF7FA8129864900061E004F080D600
:1054E60090005EE0FEA3E0FF90005CEEF0A3EFF01C
:1054F600123B2890005CE0FEA3E0FF1242047BFF13
:105506007A077938122CEB7B017A007947E4FD1291
:105516008C857B017A007947126D7C900060EFF0F4
:10552600FB90005DE02410FD90005CE03400FC7F01
:10553600A812986490005DE02410FD90005CE034B1
:1055460000FC7FA8129B78900060EFF090007974C1
:10555600FFF0A37400F0A37446F0A3EFF07B017A8A
:10556600007947122CE5900060E064017016900007
:105576005DE0240AF090005CE03400F0E0FEA3E079
:04558600FF124204CA
:01558A0022FE
:1067F2007D147C007FA8129B787E00900051EEF001
:10680200A3EFF090007974FFF0A37400F0A3744634
:10681200F0A3EEF0A3EFF07B017A007947122CE5AA
:10682200900051E07002A3E0701590007904F0A38B
:106832007400F0A37447F07BFF7A077966801490A6
:1068420000797401F0A37400F0A37447F07BFF7A1F
:1068520007799A122CEB7BFF7A0779CC122CEB7B0F
:10686200017A007947E4FD128C857B017A00794731
:10687200126D7C900051EEF0A3EFF0FB7D147C00D2
:106882007FA81298647D147C007FA8129B787E00FA
:10689200900051EEF0A3EFF090007974FFF0A37432
:1068A20000F0A37446F0A3EEF0A3EFF07B017A00B0
:1068B2007947122CE5900051E07002A3E070159028
:1068C200007904F0A37400F0A37447F07BFF7A0709
:1068D200796680149000797401F0A37400F0A374B7
:0B68E20047F07BFF7A087901122CEBD5
:0168ED002288
:1068EE007D157C007FA8129B787E00900051EEF003
:1068FE00A3EFF090007974FFF0A37400F0A3744638
:10690E00F0A3EEF0A3EFF07B017A007947122CE5AD
:10691E00900051E07002A3E0701590007904F0A38E
:10692E007400F0A37447F07BFF7A087934801490DA
:10693E0000797401F0A37400F0A37447F07BFF7A22
:10694E00087967122CEB7BFF7A087998122CEB7B77
:10695E00017A007947E4FD128C857B017A00794734
:10696E00126D7C900051EEF0A3EFF0FB7D157C00D4
:10697E007FA81298647D157C007FA8129B787E00FC
:10698E00900051EEF0A3EFF090007974FFF0A37435
:10699E0000F0A37446F0A3EEF0A3EFF07B017A00B3
:1069AE007947122CE5900051E07002A3E07015902B
:1069BE00007904F0A37400F0A37447F07BFF7A080B
:1069CE00793480149000797401F0A37400F0A374EC
:0B69DE0047F07BFF7A0879CC122CEB0D
:0169E900228B
:1043FE007B017A0079477F507E0312921E900061F6
:10440E007401F0A37400F0A37455F07B017A007967
:10441E00471283D99000797401F0A37400F0A3744D
:10442E0055F07BFF7A0879FE122CEB7BFF7A097927
:10443E002A122CEB7B017A0079477F007E031292C1
:10444E001E9000797401F0A37400F0A37447F07B02
:10445E00FF7A09793C122CEB7B017A007947123FE7
:10446E00FE78A07C017D011219737BFF7A09793FDA
:10447E00122CEB7B017A0079477D01128C857B0132
:10448E007A007947129A80900052EBF0A3EAF0A3DB
:10449E00E9F07B017A0179A07F007E03128FE8900C
:1044AE0000521299B6EF70837BFF7A09794E122C67
:1044BE00EB7B017A007947E4FD128C8590007974CC
:1044CE0001F0A37400F0A37447F07BFF7A097978AA
:1044DE00122CEB900047E0900055F0900048E090D1
:1044EE000056F0E4A3F07B017A007955126D7C90B2
:1044FE00005CEEF0A3EFF07BFF7A097982900079F1
:10450E00EEF0A3EFF0122CEB90005CA3E0FB7D50DD
:10451E007C037FA8129864900049E0900055F090BB
:10452E00004AE0900056F0E4A3F07B017A00795542
:10453E00126D7C90005CEEF0A3EFF07BFF7A0979B0
:10454E0082900079EEF0A3EFF0122CEB90005CA3BA
:10455E00E0FB7D517C037FA812986490004BE090A5
:10456E000055F090004CE0900056F0E4A3F07B0173
:10457E007A007955126D7C90005CEEF0A3EFF07B23
:10458E00FF7A097982900079EEF0A3EFF0122CEB0E
:10459E0090005CA3E0FB7D527C037FA8129864E43C
:1045AE00FB7D537C037FA81298647B017A007947C8
:1045BE007F507E0312921E9000617401F0A374006E
:1045CE00F0A37455F07B017A0079471283D99000DD
:1045DE00797401F0A37400F0A37455F07BFF7A098F
:0545EE007989022CEBAD
:1086AC007BFF7A0979BB122CEB7BFF7A0A790012DB
:1086BC002CEB7BFF7A0A7945122CEB7BFF7A0A793B
:1086CC0086122CEB7BFF7A0A79E3122CEB7BFF7A78
:1086DC000B7922122CEB7BFF7A0B7961122CEB7B42
:1086EC00FF7A0B79A6122CEB7BFF7A0B79DC122C20
:1086FC00EB7BFF7A0C791B122CEB7BFF7A0C795AF3
:10870C00122CEB7BFF7A0C79C2122CEB7BFF7A0DCF
:10871C007903122CEB7BFF7A0D7943122CEB7BFF48
:10872C007A0D7983122CEB7BFF7A0D79B9022CEB45
:109741007B017A00794712502AE4900051F07B01A5
:109751007A007947123FFE78A07C017D01121973CE
:109761007B017A0179A07F007E03128FE89001A02E
:109771007414F07408F07414F0E4F07B017A017948
:08978100A07F507E03028FE877
:103DDF007BFF7A0D79F0122CEB7D137C007FA812FC
:103DEF009B78EF600D129741E4FB7D13FC7FA812C7
:103DFF0098647BFF7A09792A122CEB7B017A007980
:103E0F00337F007E0312921E9000797401F0A37429
:103E1F0000F0A37433F07BFF7A09793C122CEB7B13
:103E2F00017A007933123FFE78A07C017D011219CF
:103E3F00737BFF7A09793F122CEB7B017A00793380
:103E4F007D01128C85129A7A900002EBF0A3EAF0B2
:103E5F00A3E9F07B017A0179A07F007E03128FE83E
:103E6F009000021299B6EF7089023FD012A12C7BFD
:103E7F00017A007933E4FD128C85129A7A90000250
:103E8F00EBF0A3EAF0A3E9F012000E900002128605
:103E9F001C900005EBF0A3EAF0A3E9F012000E90DE
:103EAF00000512861C900008EBF0A3EAF0A3E9F0DE
:103EBF00900005E0FBA3E0FAA3E0F9EA494B601795
:103ECF00121560B42F11780B7C007D01900005A3B3
:103EDF00A3E0121973803D900005E0FBA3E0FAA365
:103EEF00E0F9EA494B602D780B7C007D017B017A6C
:103EFF000179AB121973900005E0F9A3E0FAA3E082
:103F0F0090004AC9F0A3EAF0A3E9F07B017A0079A7
:103F1F000B1291B3900002E0FBA3E0FAA3E0F9EAE1
:103F2F00494B7003023E7B129284EFB411004003A1
:103F3F00023FDC903F49F8282873023F7C023F8202
:103F4F00023F88023F8E023F94023F9A023FA00237
:103F5F003FA6023FAC023FB2023FB8023FBE023F54
:103F6F00C4023FCA023FD0023FFD023FD6127B710F
:103F7F00023E7B127881023E7B12793E023E7B121B
:103F8F0056CD023E7B126306023E7B126402023E56
:103F9F007B1264FE023E7B127583023E7B1265FA32
:103FAF00023E7B1266F6023E7B126C9E023E7B1235
:103FBF005446023E7B1267F2023E7B1268EE023ECF
:103FCF007B1286AC023E7B1243FE023E7B900002C8
:103FDF00E0F9A3E0FAA3E0900079C9F0A3EAF0A317
:0E3FEF00E9F07BFF7A0E791A122CEB023E7B72
:013FFD0022A1
:03A283002564004F
:0B82A800900002EBF0A3EAF0A3E9F065
:1082B300900007E4F0A374A0F0E4A3F020B37612D7
:1082C300A280E4900006F0C286900005F0C2B2904E
:1082D3000007805620B35A900005E0705430B40D67
:1082E300EF1F70011EEF4E70EB04F0804490000608
:1082F300E0C3942874809480503720B408E5A0909C
:108303000009F080F5900009E0FF900002E0FBA374
:10831300E0FAA3E0F9EF1215A6900003E475F0016B
:108323001215EC900006E004F0A3E0FEA3E0FF804A
:0D833300A3D2B2D28612A271900006E0FF24
:01834000221A
:0E7C2700900016EBF0A3EAF0A3E9F0A3EDF055
:107C350090001FF0D2B2D2B4C286E490001EF0C20A
:107C4500B290001A12169500004E2030B3499000EC
:107C55001EE07043C2B2D2B490001AE0FCA3E0FD6E
:107C6500A3E0FEA3E0FFEF24FFFFEE34FFFEED34BB
:107C7500FFFDEC34FFFC90001A12168990001AE003
:107C8500FCA3E0FDA3E0FEA3E0FFEC4D4E4F70BB6F
:107C9500A304F0C28280B490001EE0702920B326B0
:107CA500900016E0FBA3E0FAA3E0F9121560F5A039
:107CB50012A1A6900017E475F0011215EC900019B9
:107CC500E014F0E070DA75A0FFD2B2D2B4D2867FAC
:067CD500627E0002A182A4
:10A1A600C2B47F217E0012A182D2B47F217E00023A
:02A1B600A18284
:0688570090002BEFF0FB86
:10885D00D2B4C286E4A3F0A312169500003A988B09
:10886D00A0C2B230B34390002CE0703DA3E0FCA356
:10887D00E0FDA3E0FEA3E0FFEF24FFFFEE34FFFEDB
:10888D00ED34FFFDEC34FFFC90002D1216899000A5
:10889D002DE0FCA3E0FDA3E0FEA3E0FFEC4D4E4F69
:1088AD0070C190002C04F080BA90002CE0700C2068
:1088BD00B30990002BE0F5A012A1A6D2B2D2B4D28A
:1088CD008675A0FF7F627E0012A1827F627E00020C
:0288DD00A18276
:0AA21700D2B4D2B2D28675A0FF22A5
:109EAA009000037402F0A37469F07B017A007905CB
:109EBA001273387F8B12859690000BEFF0A3740310
:0C9ECA00F07B017A0079037D0A027C27FE
:105B9D00E4900013F0FDFC7FA8129B78900014EFA9
:105BAD00F07D027C007FA8129B78900015EFF0909D
:105BBD0000037402F0A37444F090007974FFF0A315
:105BCD0074A2F0A37483F0900014E090007CF07B3D
:105BDD00017A00790E122CE59000127402F09000FB
:105BED0013E0240EF582E43400F583E0FF60179096
:105BFD000012E02403F582E43400F583EFF0900009
:105C0D0013E004F08018900012E02403F582E434D0
:105C1D0000F583743BF0900012E004F080089000D2
:105C2D0012E004F080B890007974FFF0A374A2F034
:105C3D00A37483F0900015E090007CF07B017A0056
:105C4D00790E122CE5E4900013F0900013E0240E71
:105C5D00F582E43400F583E0FF6017900012E02434
:105C6D0003F582E43400F583EFF0900013E004F0C7
:105C7D008018900012E02403F582E43400F583745B
:105C8D003BF0900012E004F08008900012E004F068
:105C9D0080B8900012E0FD2403F582E43400F58312
:0C5CAD007403F07B017A007903027C276D
:107AB7004461746F7320526563696269646F7320F0
:107AC70064656C205472616E73706F7274653A20CE
:107AD700004461746F7320456E766961646F73202B
:107AE700616C205472616E73706F7274653A200016
:107AF7000A0D2F2A2D2D2D2D2D2D2D2D2D2D2D2DF3
:107B07002D2D2D2D2D2D2D2D2D2D2D2D2D2D2D2D9E
:107B17002D2D2D2D2D2D2D2D2D2D2D2A2F0A0D00FF
:107B2700526563696265207472616D612070746F5C
:107B370020706172616C3D20000A0D006C6F6E67EA
:107B470069747564206465206C61207472616D616D
:107B57003A2000526563696265207472616D612025
:0A7B67004D6F6E69746F723D2000CF
:06A0B500AE07EEC313FE2E
:10A0BB00E4FFEFD3940774809480500C00000000F1
:08A0CB0000000000000F80EA14
:01A0D300226A
:10A14300E4FFEFD3940474809480500A000000006D
:06A153000000000F80EC8B
:01A1590022E3
:0396AD004430FF47
:0296B000AE0703
:1096B200C2AFC29012A0BB0000AD06EE5401FE7014
:1096C20004C2908002D29012A0BB7C01ECD394071A
:1096D200748094805015EDC313FD5401FE7004C2D2
:1096E200908002D29012A0BB0C80E1D29012A0BB5B
:0596F20012A0BBD2AF85
:0196F7002250
:1098E900E4900019F0A3F0FEFBFA900191E0640105
:1098F9007033EFC39464748094804007749C2FFF85
:109909000E80EFEFC3940A74809480400774F62F99
:10991900FF0B80EFAA07EE1296ADEB1296ADEA4463
:0599290030FF1296B0B2
:01992E002216
:02978900AB072C
:10978B00900191E06401703CEB54F0C4540FFFD393
:10979B00940974809480400674372FFF80047430D2
:1097AB002FFF1296B0EB540FFFD394097480948063
:1097BB00400674372FFF800474302FFF1296B07F52
:0497CB00201296B022
:0197CF002277
:0E905E00900028EBF0A3EAF0A3E9F0A3EDF0F8
:10906C00900191E06401705C90002CE0FF3395E07E
:10907C00FEEF4E7BFF60067A7A79B780047A7A79B4
:10908C00D8129703E490002DF090002BE0FF900095
:10909C002DE0C39F5024900028E0FBA3E0FAA3E04E
:1090AC00F9121560FF129789900029E475F00112EE
:1090BC0015EC90002DE004F080CF7F0D1296B07F60
:0490CC000A1296B03E
:0190D000227D
:0B96F800E0FF1297897BFF7A7B79402E
:0B970300900038EBF0A3EAF0A3E9F0BF
:10970E00E4A3F0900191E06401702790003BF0908B
:10971E000038E0FBA3E0FAA3E0F9A3E0F58275833D
:10972E0000121579FF600B1296B090003BE004F02A
:02973E0080DDCC
:019740002206
:0BA15A00EBF0A3EAF0A3E9F0A3EDF0A6
:09A165007BFF7A7A79F702970377
