:1081710041016A0A41019D004101A80041019E009F
:108181004101A60042019F00004101A7064101AC47
:0D819100034101ABF2C109C10A41016900BF
:03000B0002B066DA
:10B06600C0E0C083C08290016AE014F0E064017021
:10B076000690019DE004F09001A0E004F0700690B7
:0EB08600019FE004F0C28DD082D083D0E03272
:10B3D500E58954F04401F589E4F58CF58AD28C228F
:05B46A00C28DD2A922F1
:03B47900C2A92243
:0BB4040012B189EFF47002EEF460F565
:01B40F00221A
:05ACDE009000A7EFF05B
:10ACE3009000A7E0FF12AE85EF3395E04F6024E4B8
:10ACF3009000A8F0A3F0C39000A9E094E89000A806
:10AD0300E0940350DBA3E004F070EB9000A8E004B0
:08AD1300F080E39000A7E0FFCF
:01AD1B002215
:0EAA4200900027EBF0A3EAF0A3E9F0A3EDF0FB
:10AA5000E4A3F090002AE0FFA3E0C39F50299000F8
:10AA600027E0FBA3E0FAA3E0F9121A24FF12ACDE00
:10AA700090002CEFF0900028E475F001121AB090CD
:07AA8000002BE004F080CC84
:01AA870022AC
:10B3E50012B47412B42C12B410C283D287C297223D
:10A7F2007D047C007FA812AD5D9001A9E4F0A3EF77
:10A80200F07D067C007FA812AD5D9001A4E4F0A368
:10A81200EFF07D087C007FA812AD5D9001A2EFF001
:10A822007D0A7C007FA812AD5D9001A1EFF07D0E44
:0DA832007C007FA812AD5D9001A3EFF02225
:109FD90012B3D512B46A12B0C012B11212B3E5D2DB
:109FE900AF12B2A57F217E0012B37B12B3267F6127
:109FF90012A8DB12B433209103124AAB12A7F21252
:10A009006453EF70FA90016A7405F020800312B16D
:10A01900D5900169E0FF1237B1900169EFF020B3E3
:10A02900267B017A0179411293F2900000EFF0FD4D
:10A039007B017A01794112AE4A7B017A017941901B
:0CA049000000E0FD123F34129DD980BFE2
:05B46F004C49564500A8
:0E3F3400900001EBF0A3EAF0A3E9F0A3EDF09A
:103F42006419705D900001E0FBA3E0FAA3E0F912AE
:103F52001A246402704B900002121A3D64487041A8
:103F6200900004E07E0024FFF582EE34FFF5831218
:103F72001A3D6403702B900001A3A3E02403F9E42B
:103F82003AFA126D93EF6003024271900001E0FB76
:103F9200A3E0FAA3E02403F9E43AFA1297FA02A79B
:103FA200A4900001E0FBA3E0FAA3E0F9121A246452
:103FB200B67028900267E004F0E0D3940474809411
:103FC2008050030242717FAE1225E4C282E4900166
:103FD2009DF0C297C283900267F022900001E0FB3D
:103FE200A3E0FAA3E0F9121A24FF64B76005EF64B4
:103FF200AA705390019DE0C3941474809480400889
:10400200E4F0C297D282C2839001A2E0600302422E
:10401200719001A1E064016003024271C39001A0AA
:10402200E0945890019FE094025003024271E4F040
:10403200A3F09001A204F07BFF7AB4796F12A92E4B
:10404200E49001A2F022900001E0FBA3E0FAA3E0D9
:10405200F9121A2464B170057F60024129900001AF
:10406200E0FBA3E0FAA3E0F9121A2464B270057F20
:104072005D024129900004E064017017900001E0A4
:10408200FBA3E0FAA3E0F9121A2464A170057F5A97
:10409200024129900004E064017016900001E0FBE7
:1040A200A3E0FAA3E0F9121A24640670047FAA803E
:1040B20076900004E064017016900001E0FBA3E03A
:1040C200FAA3E0F9121A24640770047F5F80589003
:1040D2000004E064017016900001E0FBA3E0FAA383
:1040E200E0F9121A24640870047F61803A90000497
:1040F200E064017016900001E0FBA3E0FAA3E0F98E
:10410200121A24640970047FAF801C900004E064DA
:10411200017017900001E0FBA3E0FAA3E0F9121A84
:104122002464B470057F5E0225E4900004E0FF641D
:10413200137038900001E0FBA3E0FAA3E0F99000CD
:1041420001121A3DB456247E0074FF2FF582EE341C
:10415200FFF583121A3D64037011900001A3A3E0DE
:104162002402F9E43AFA7F5B024232900004E0FF53
:1041720064066003024235900001E0FBA3E0FAA36B
:10418200E0F9121A2464026003024235900001121F
:104192001A3D64576003024235FE74FF2FF582EE2A
:1041A20034FFF583121A3D64036003024235900026
:1041B20001A3A3900002121A3DFD7B017A0079054A
:1041C20012A58A9000087420F0900001E0FBA3E0A1
:1041D200FAA3E0F9900003121A3DFD900001A3A397
:1041E200900004121A3D900019F07B017A007909BF
:1041F2001242729001A1E06401702112AEFAEFF452
:1042020060077FAA1225E480097B017A00790512F2
:104212007EF97B017A0079057F5C801412AEFAEF99
:10422200F460057FAA1225E47B017A0079057F5CA0
:104232000247F9900004E0FF640C7033900001E043
:10424200FBA3E0FAA3E0F9121A2464027021FE74BF
:10425200FF2FF582EE34FFF583121A3D6403700FCF
:0F426200900001A3A3E02401F9E43AFA12823F8D
:01427100222A
:0EABDD00900032EBF0A3EAF0A3E9F0A3EDF054
:10ABEB00E4A3F0900035E0FFA3E0C39F5024900056
:10ABFB0032E0FBA3E0FAA3E0F9121A24FF12A8DB60
:10AC0B00900033E475F001121AB0900036E004F0B6
:02AC1B0080D1E6
:01AC1D002214
:0B7EF900900010EBF0A3EAF0A3E9F00A
:107F04009000317403F090001314F012AB589000F9
:107F140014EFF0A37453F09001A6E09000316013C5
:107F2400E0FF04F074132FF582E43400F583744DFC
:107F3400F08011E0FF04F074132FF582E43400F5AF
:107F4400837443F09000317404F0900010E0FBA3BC
:107F5400E0FAA3E0F9121A24FF6021900031E02432
:107F640013F582E43400F583EFF0900011E475F02A
:107F740001121AB0900031E004F080CE900031E09C
:107F8400FF04F074132FF582E43400F583743AF09F
:107F9400900031E02413F9E43400FA7B01125B27EA
:107FA400900031E0FF241DF582E43400F583743A37
:107FB400F0741E2FF582E43400F5837403F07B0122
:0B7FC4007A007913EF240CFD02ABDD06
:08000300D29412B47FC29422D2
:05AC9F009000B4EFF08D
:10ACA400E4A3F0A3F09000B4E0FFA2E713F030D7E0
:10ACB40004D2958002C2951200039000B6E004F01D
:10ACC40070069000B5E004F0C39000B6E0940890DC
:09ACD40000B5E06480948040CCDE
:01ACDD002254
:0A96DA00EBF0A3EAF0A3E9F07F8DA6
:0596E4009000B1EFF061
:1096E900D2967F037E0012B37B9000B1E0FF12ACEB
:1096F9009FE49000B2F0A3F09000B2E0FCA3E0FD7B
:10970900C39408EC64809480504F30951690026899
:10971900E04480F0ED9406EC648094805005E0FF0D
:10972900C313F0209520900268E0547FF0D3900095
:10973900B3E094069000B2E06480948050089002EF
:1097490068E0FFC313F01200039000B3E004F07067
:10975900A79000B2E004F0809FC296900268E0FFF3
:0197690022DD
:10B0EA00900013EFF0A3EDF0D2967F037E0012B327
:10B0FA007B900013E0FF12AC9F900014E0FF9000D9
:08B10A0013F012AC9FC2962263
:10AC1E00900011E475F001121AB0900011E475F075
:10AC2E0001121AB0900011E475F001121AB09000E2
:10AC3E0010E0FBA3E0FAA3E0F9121A24FF90000142
:04AC4E00121A3DFD9C
:0CAC5200EF540FC454F0FFED540F4FFFFF
:01AC5E0022D3
:106D9300E4FF121A24FEC394305003026EA5EED30F
:106DA30094394003026EA5900001121A3DFEC3946C
:106DB300305003026EA2EED394394003026EA290C8
:106DC3000003121A3DFEC394305003026E9FEED3AC
:106DD30094394003026E9F900004121A3DFEC3943F
:106DE300305003026EA7EED394394003026EA7908E
:106DF3000008121A3DFEC394305003026E9CEED37A
:106E030094394003026E9C90000B121A3DFEC3940A
:106E1300305003026E99EED39439507A90000C12DD
:106E23001A3DFEC39430406BEED394395065900005
:106E33000E121A3DFEC394304056EED3943950508F
:106E430090000F121A3DFEC394304041EED39439A3
:106E5300503B900011121A3DFEC39430402CEED3E8
:106E630094395026900012121A3DFEC394304017F5
:106E7300EED394395011900014121A3DFEC394308E
:106E83004022EED39439227F01227F01227F012207
:106E93007F01227F01227F01227F01227F01227F46
:046EA30001227F0148
:016EA70022C8
:0B97FA00900010EBF0A3EAF0A3E9F0F0
:1098050012AC3CAD077F8612B0EA12AC1EAD077FE5
:109815008812B0EA900011E475F001121AB09000B8
:1098250011E475F001121AB012AC1EAD077F8C124F
:10983500B0EA12AC1EAD077F8412B0EA12AC1EADC1
:10984500077F8212B0EA12AC1EAD077F8012B0EA24
:10985500900011E475F001121AB0900011E475F052
:1098650001121AB0900011E475F001121AB09000BF
:1098750010E0FBA3E0FAA3E0F9121A245407FD7FD8
:049885008A02B0EAB9
:10B2BE00AE07EEC4540F540FFE6012EF540FFFE4AE
:0DB2CE00FDEDC39E5007740A2FFF0D80F4A4
:01B2DB002250
:10AD1C00121A7C90005EE475F001121AB090005D7E
:0CAD2C00E0FBA3E0FAA3E0F9121A24FFF8
:10AD3800E4FEFDFCECC39F500B0DED640A7002FDB0
:10AD48000E0C80F0EEC454F054F0FEED540F4EFF9C
:01AD580022D8
:0B95B80090005DEBF0A3EAF0A3E9F0E7
:1095C30012AD29EF54F0C4540F4430FE900060E014
:1095D300FBA3E0FAA3E0F9EE121A6AEF540F44304A
:1095E300FF900060E0FBA3E0FAA3E0F9900001EF35
:1095F30012AD1CEF54F0C4540F4430FE900060E0F1
:10960300FBA3E0FAA3E0F9900002EE121A7CEF54F8
:109613000F443090000312AD1CEF54F0C4540F44B8
:1096230030FE900060E0FBA3E0FAA3E0F9900004B1
:10963300EE121A7CEF540F4430900005121A7C90FE
:069643000006E4021A7C9F
:10A58A00E4FFFE900015EDF0900015E0C3946474AA
:10A59A008094804007E0249CF00F80ECEF44301256
:10A5AA001A6A740129F9E43AFA900015E0C3940A88
:10A5BA00748094804007E024F6F00E80ECEE44307C
:10A5CA00121A6A740129F9E43AFA900015E0443043
:0EA5DA00121A6A740129F9E43AFAE4021A6AC4
:0E427200900015EBF0A3EAF0A3E9F0A3EDF045
:10428000E490001AF0A3F090001DF0A3F0A3F0A3B7
:10429000F090001CEDF054F0F0E0FFC4540FF090EB
:1042A0000025121B59404000007F007E007D807C6D
:1042B00041125C95C004C005C006C00790001CE018
:1042C000FCE4121536D003D002D001D0001214261F
:1042D000C004C005C006C00790001AE0FCA3E0FDC2
:1042E000E4121531D003D002D001D00012133512E0
:1042F000156A90001AEEF0A3EFF0900018E090001D
:104300001CF0540FF0900025121B59400000007F54
:10431000007E007D807C41125C95C004C005C00613
:10432000C00790001CE0FCE4121536D003D002D088
:1043300001D000121426C004C005C006C0079000BA
:104340001AE0FCA3E0FDE4121531D003D002D00145
:10435000D00012133512156A90001AEEF0A3EFF098
:10436000900019E090001CF054F0F0E0FFC4540FEE
:10437000F0900025121B593F8000007F007E007DD9
:10438000807C41125C95C004C005C006C007900047
:104390001CE0FCE4121536D003D002D001D000128C
:1043A0001426C004C005C006C00790001AE0FCA394
:1043B000E0FDE4121531D003D002D001D000121379
:1043C0003512156A90001AEEF0A3EFF0900019E094
:1043D00090001CF0540FF0900025121B59000000B3
:1043E000007F007E007D807C41125C95C004C0058A
:1043F000C006C00790001CE0FCE4121536D003D0C4
:1044000002D001D000121426C004C005C006C007A7
:1044100090001AE0FCA3E0FDE4121531D003D002B5
:10442000D001D00012133512156A90001AEEF0A3D5
:10443000EFF0C3EF9410EE9427401074F02FFF7448
:10444000D83EFE90001DE004F080E790001DE0449F
:1044500030FD900015E0FBA3E0FAA3E0F9ED121A9D
:104460006A900016E475F001121AB0C3EF94E8EEFA
:104470009403401074182FFF74FC3EFE90001EE061
:1044800004F080E790001EE04430FD900015E0FB52
:10449000A3E0FAA3E0F9ED121A6A900016E475F0B1
:1044A00001121AB0C3EF9464EE94004010749C2F74
:1044B000FF74FF3EFE90001FE004F080E790001FB5
:1044C000E04430FD900015E0FBA3E0FAA3E0F9ED35
:1044D000121A6A900016E475F001121AB0C3EF9434
:1044E0000AEE9400401074F62FFF74FF3EFE900019
:1044F00020E004F080E7900020E04430FD900015BB
:10450000E0FBA3E0FAA3E0F9ED121A6A900016E4CA
:1045100075F001121AB0EF4430FF900015E0FBA3D4
:10452000E0FAA3E0F9EF121A6A900016E475F001C0
:10453000121AB0900015E0FBA3E0FAA3E0F9E40240
:024540001A6AF5
:035B27009000519A
:105B2A001296DAEF54F0C4540F4430FE900051E05C
:105B3A00FBA3E0FAA3E0F9EE121A6A900052E475A8
:105B4A00F001121AB0EF540F4430FF900051E0FBFD
:105B5A00A3E0FAA3E0F9EF121A6A900052E475F092
:105B6A0001121AB07F891296E4EF54F0C4540F441C
:105B7A0030FE900051E0FBA3E0FAA3E0F9EE121A1E
:105B8A006A900052E475F001121AB0EF540F4430D3
:105B9A00FF900051E0FBA3E0FAA3E0F9EF121A6AC2
:105BAA00900052E475F001121AB07F871296E4EF62
:105BBA0054F0C4540F4430FE900051E0FBA3E0FAC5
:105BCA00A3E0F9EE121A6A900052E475F001121A73
:105BDA00B0EF540F4430FF900051E0FBA3E0FAA36A
:105BEA00E0F9EF121A6A900052E475F001121AB045
:105BFA007F851296E4EF54F0C4540F4430FE9000AF
:105C0A0051E0FBA3E0FAA3E0F9EE121A6A900052FF
:105C1A00E475F001121AB0EF540F4430FF900051AE
:105C2A00E0FBA3E0FAA3E0F9EF121A6A900052E44B
:105C3A0075F001121AB07F831296E4EF54F0C4543F
:105C4A000F4430FE900051E0FBA3E0FAA3E0F9EE26
:105C5A00121A6A900052E475F001121AB0EF540F4A
:105C6A004430FF900051E0FBA3E0FAA3E0F9EF1201
:105C7A001A6A900052E475F001121AB0900051E0CD
:0B5C8A00FBA3E0FAA3E0F9E4021A6AB1
:10903F009000AE1296DA12B2BE9000AEE0FBA3E043
:10904F00FAA3E0F9EF121A6A9000AFE475F001127B
:10905F001AB07F891296E412B2BE9000AEE0FBA365
:10906F00E0FAA3E0F9EF121A6A9000AFE475F0018D
:10907F00121AB07F871296E412B2BE9000AEE0FBD8
:10908F00A3E0FAA3E0F9EF121A6A9000AFE475F0CB
:10909F0001121AB07F851296E412B2BE9000AEE0B4
:1090AF00FBA3E0FAA3E0F9EF121A6A9000AFE475A0
:1090BF00F001121AB07F831296E412B2BE9000AE86
:1090CF00E0FBA3E0FAA3E0F9EF121A6A9000AFE415
:0690DF0075F001021AB059
:1085690090001D1296DA90001DE0FBA3E0FAA3E04B
:10857900F9EF121A6A90001EE475F001121AB07F21
:10858900891296E490001DE0FBA3E0FAA3E0F9EF5D
:10859900121A6A90001EE475F001121AB07F871250
:1085A90096E490001DE0FBA3E0FAA3E0F9EF121AAC
:1085B9006A90001EE475F001121AB07F851296E4E4
:1085C90090001DE0FBA3E0FAA3E0F9EF121A6A900C
:1085D900001EE475F001121AB07F831296E4900030
:1085E9001DE0FBA3E0FAA3E0F9EF121A6A90001E5E
:1085F900E475F001121AB07F811296E490001DE033
:10860900FBA3E0FAA3E0F9EF121A6A90001EE475E1
:10861900F001121AB090001DE0FBA3E0FAA3E0F903
:04862900E4021A6AE3
:07B42C00C294C296D29522E2
:0B84A00090009CEBF0A3EAF0A3E9F0D1
:1084AB007B017A0079A712903F9000A7E0FF7E0036
:1084BB007C017D6D121A9EAC06AD07A3E075F01E14
:1084CB00A42DFFEC35F0FEA3E07C002FFFEC3EFE6D
:1084DB00E4FD90009F121B4D90009CE0FBA3E0FA83
:1084EB00A3E0F9900001121A3DFF3395E0FE7C00EA
:1084FB007D1E121A9EC006C007121A24FF3395E088
:10850B00FE0C7D6D121A9ED0E02FFFD0E03EFE9048
:10851B000002121A3DFD3395E0FCEF2DFFEE3CFE01
:10852B003395E0FDFC9000A3121B4D90009FE0FCE7
:10853B00A3E0FDA3E0FEA3E0FFA3E0F8A3E0F9A313
:10854B00E0FAA3E0FBC3121AEA40089000AD7401F5
:0D855B00F08005E49000ADF09000ADE0FF71
:0185680022F0
:10B37B00E4FDFCC3ED9FEC9E50070DBD00010C805E
:01B38B00F2CF
:01B38C00229E
:04B2DC00AB07AA060C
:10B2E000900000C3E5829BE5839A500A7F967E001A
:06B2F00012B37BA380ED08
:01B2F6002235
:08AEC000900008EEF0A3EFF092
:10AEC800E4A3F0A3F0900008E0FEA3E0FFC3900025
:10AED8000BE09F90000AE09E50177F0A7E0012B296
:10AEE800DC90000BE004F070DC90000AE004F080D5
:01AEF800D485
:01AEF9002236
:01B47F0022AA
:10AE0F004572726F72206465207469636B6574009C
:10AE1F000A0D004E756D65726F206465207469634D
:10AE2F006B65743A004E6F206465207469636B65BF
:0BAE3F0074204845583A00256C75004F
:03B2400012B21E29
:10B24300D20DD293D292E4FFFE209205C20DC29397
:0CB25300220FBF00010EBE04F0BF4CED46
:01B25F0022CC
:03B2600012B21E09
:10B26300D293D292D20DE4FFFE209205C20DC29377
:0CB27300220FBF00010EBE02F0BF8AEDEA
:01B27F0022AC
:06B46400D29300C2932206
:10B21E00E4FEEEC39408748094805015EF25E0FF91
:10B22E0030D704D2928002C292D29312B4640E80AE
:01B23E00E12E
:01B23F0022EC
:08B38D00ECFD7C00C293C292AA
:0AB39500D292D29300C292C293221A
:09B41A00C293C292D293D2922295
:10A83F00E4FBEBFDC39408748094805038C29330CE
:10A84F00921690025FE04401F0ED940674809480BC
:10A85F005006E025E0F0D29320921790025FE0546B
:10A86F00FEF0EBD39406748094805006E025E0F060
:0CA87F00D2930B80BDC29390025FE0FFFB
:01A88B0022AA
:10A74E0090005DE0FCA3E0FDA3E0FBA3E0FAA3E034
:07A75E00F9121A24FB7FA889
:02A76500AA0741
:10A76700AF05A90712B38DAF0212B240AF0512B2FF
:10A7770040AF0112B21E12B243AF0312B21E12B2A1
:10A787004312B41A7F0D7E0012B2DCD293D2927FAD
:0DA79700627E0012B37B7F627E0002B37B06
:04AD59007C027FA851
:02AD5D00AB0742
:10AD5F00AF05AA0712B38DAF0312B260AF0512B2DF
:10AD6F0060AF0212B21E12B26312B395EB04FF1260
:10AD7F00B21E12B243C29312A83F12B41AD293D288
:06AD8F009290025FE0FF5C
:01AD9500229B
:0B823F00900010EBF0A3EAF0A3E9F0C0
:10824A00E4900014F0900010E0FBA3E0FAA3E0F938
:10825A0090000AE4121A7CE4900013F0900013E0F4
:10826A00FFD39409748094805057900010E0FBA3C8
:10827A00E0FAA3E0F98F82758300121A3DFF7E00AF
:10828A00C3943074809480400AD3EF9439748094F4
:10829A008040269000147401F07BFF7AAE790F12A9
:1082AA00A92E900010E0FBA3E0FAA3E0F912A92E90
:1082BA007BFF7AAE791F12A92E900013E004F0809A
:1082CA009B900014E0700E900010E0FBA3E0FAA36C
:1082DA00E0F90279AAE4FBFD7C027FA812A765E413
:1082EA00FB7D017C027FA812A765E4FB7402FDFCFA
:1082FA007FA812A765E4FB7D037C027FA812A7650D
:01830A002250
:0B79AA00900015EBF0A3EAF0A3E9F059
:1079B5007F007E007D007C007BFF7AAE792212A9D4
:1079C5002E900015E0FBA3E0FAA3E0F912A92E7BA7
:1079D500FF7AAE791F12A92E900015E0FBA3E0FAFD
:1079E500A3E0F9126FB790001C121B4D7BFF7AAE16
:1079F500793412A92E90001CE0FCA3E0FDA3E0FE63
:107A0500A3E0FF7818121AFB900018EFF012A9B442
:107A150090001CE0FCA3E0FDA3E0FEA3E0FF7810CE
:107A2500121AFB900019EFF012A9B490001CE0FCAB
:107A3500A3E0FDA3E0FEA3E0FF7808121AFB900087
:107A45001AEFF012A9B490001CA3A3A3E0FF9000C5
:107A55001BF012A9B47BFF7AAE791F12A92E9000F4
:107A650018E0FB7D007C027FA812A765900019E055
:107A7500FB7D017C027FA812A76590001AE0FB74CC
:107A850002FDFC7FA812A76590001BE0FB7D037C2F
:067A9500027FA802A765B4
:10A88C001283D690007A74FFF0A374AEF0A37446D2
:10A89C00F0A3121B4D7B017A00791D1233937B01BF
:10A8AC007A00791D12000E741D2FF582E43400F528
:10A8BC0083E4F07B017A00791D12A92E7BFF7AAE1E
:0BA8CC00791F12A92E7B017A00791D74
:01A8D700225E
:1083D60090002B121B59000000007D0012AD59A918
:1083E600077D0112AD59900028EFF07402FDFC7F65
:1083F600A812AD5D900029EFF07D0312AD599000F3
:108406002AEFF0AF01A3E0F8A3E0F9A3E0FAA3E0B6
:108416004FFFEAFEE9FDE8FC7808121B0E90002BE0
:10842600121B4D900028E0FF90002BE0F8A3E0F926
:10843600A3E0FAA3E04FFFEAFEE9FDE8FC780812A4
:108446001B0E90002B121B4D900029E0FF90002B75
:10845600E0F8A3E0F9A3E0FAA3E04FFFEAFEE9FDA6
:10846600E8FC7808121B0E90002B121B4D90002A78
:10847600E0FFA3E0F8A3E0F9A3E0FAA3E04FFFEAE8
:10848600FEE9FDE8FC90002B121B4D90002BE0FC52
:09849600A3E0FDA3E0FEA3E0FF5A
:01849F0022BA
:10AF68001283D6EF2401FFE43EFEE43DFDE43CFC01
:10AF780090007A74FFF0A374AEF0A37446F0A312A5
:10AF88001B4D7B017A0079061233937B017A007995
:04AF9800060279AA8A
:10A3FB0090009CEEF0A3EFF0A3EBF0A3EAF0A3E93F
:01A40B00F060
:10A40C0090009CE0FCA3E0FD7FA812AD5D90009E47
:10A41C00E0FBA3E0FAA3E0F9EF121A6A90009EE0C9
:10A42C00FBA3E0FAA3E0F9121A24FF90009DE004CC
:10A43C00F0700690009CE004F090009FE475F00131
:10A44C00121AB0EF70BA90009EE0FBA3E0FAA3E002
:05A45C00F9E4021A6A98
:10A3210090005DEEF0A3EFF0A3EBF0A3EAF0A3E958
:10A33100F090005FE0FBA3E0FAA3E0F9121A2460B9
:10A3410024B40D04E4121A6A12A74E90005EE004D0
:10A35100F0700690005DE004F0900060E475F0019B
:10A36100121AB080CC12A74E90005EE004F0700685
:10A3710090005DE004F0900060E475F001121AB005
:0FA3810090005DE0FCA3E0FDE4FB7FA802A76570
:108D930053656E736F726573204175746F2079200C
:108DA30073656E736F72312061637469766F732EAE
:108DB3000A0D0053656E736F722061637469766F79
:108DC3002073656E736F72312E0A0D0044657465EE
:108DD300637461646F2E2053656E736F72204175E7
:108DE300746F2E0A0D0053656E736F726573206E78
:108DF3006F2064657465637461646F732E0A0D007C
:108E03005665686963756C6F204573706572616E32
:108E1300646F2053616C69722E0A0D005665686990
:108E230063756C6F2053616C69656E646F2E20559A
:0D8E33006E206D6F6D656E746F2E0A0D0060
:04819E004102690031
:07B43300C2B5C2B6C2B72288
:07B43A00C2B5D2B6C2B72271
:07B44100D2B5D2B6C2B7225A
:07B44800C2B5C2B6D2B72263
:07B44F00D2B5C2B6D2B7224C
:07B45600C2B5D2B6D2B72245
:07B45D00D2B5D2B6D2B7222E
:10B28000E4FF7DF47C01309115EFFB3395E04B70CA
:0EB290000DED1D70011CED4C70EC7F0180E88F
:01B29E00228D
:10AB58009000327401F012B456309103E004F01200
:10AB6800B45D309107900032E02402F0900032E0AA
:10AB7800640170177D12FC7FA812AD5DEF600CF4C4
:10AB8800900032700404F08002EFF0900032E0246C
:02AB980030FF8C
:01AB9A002298
:10B33D007D127C007FA812AD5DEF6005F470027F79
:05B34D0001EF2430FFB8
:01B3520022D8
:10A69E0012B44F20912312B43A7BFF20910D7A8D84
:10A6AE00799312A92EE49001A680227A8D79B612A2
:10A6BE00A92E9001A67401801412B43A7BFF20914A
:10A6CE00157A8D79CF12A92E9001A67401F0900003
:10A6DE001174FFF0800C7A8D79E912A92EE49000A6
:07A6EE0011F0900011E0FFE4
:01A6F5002242
:10AEFA0012B44830912012B280EF3395E0FEEF642D
:10AF0A00014E700A12A69E900010EFF080147BFF8B
:10AF1A007A8E790380067BFF7A8E791F12A92E7F9B
:07AF2A000022900010E0FF7F
:01AF310022FD
:109DD900E4900001F012B433209169900269E070B7
:109DE90016900001E0701030B35A04F012B094904C
:109DF90002697401F0804D900269E0640170169067
:109E09000001E0701030B33C04F0126A449002691A
:109E19007402F0802F900269E064027027900001BB
:109E2900E0702130B31E04F07D0C7C007FA812ADD8
:109E39005DEF640170047F5380027F4E129ABAE489
:0F9E4900900269F012B433309105E4900001F0FB
:019E580022E7
:102CD800494E4752455345205441524A4554412094
:102CE800005441524A4554412053494E20494E47C9
:102CF8005245534F20005441524A455441204E4FAB
:102D0800205245474953545241205041474F2000D3
:102D1800455843454445205449454D504F20444566
:102D28002047524143494120004D454E5355414C9F
:102D3800204E4F204553544120454E20504152517A
:102D48005545414445524F2000444952494A415350
:102D58004520412043414A412000475241434941CF
:102D6800532E2E2E2000475241434941532E2E2EDA
:102D7800004D454E5355414C494441442056454E1B
:102D88004349444120004D454E5355414C49444127
:102D9800442045584345444520484F524152494FE5
:102DA8002041434552515545534520412043414A0E
:102DB8004120004E4F204553204D454E5355414C20
:102DC80049444144204E49205052455041474F0004
:102DD8004D454E5355414C204E4F205041474F20B2
:102DE8004C4F434143494F4E20484F590053494E99
:102DF8002050524553454E43494120564548494382
:102E0800554C415220005441524A455441204E4F9E
:102E18002045532044454C2050415251554541448A
:102E280045524F20004249454E56454E49444F2E83
:102E38002050554C534520454C20424F544F4E206E
:102E4800005441524A4554412053494E20464F525E
:102E58004D41544F20004655455241204445204C91
:102E6800494E45412000554E204D4F4D454E544F3B
:102E780020504F52204641564F5220004E4F204579
:102E880053205441524A455441204D454E535541D3
:102E98004C20005441524A45544120494E56414C19
:102EA80049444120005441524A4554412053494E17
:102EB8002053414C494441200052454749535452FC
:102EC8004120494E475245534F20454E20504152CC
:102ED800515545414445524F20004D454E535541AB
:102EE8004C20465545524120444520484F524152B6
:102EF800494F2000484F524152494F204E4F2050D1
:102F0800524F4752414D41444F200053494E20549F
:102F180041524A4554415320004249454E56454E78
:102F280049444F20004E4956454C2042414A4F20C3
:102F38004445205441524A455441532000613B388E
:102F4800353B494E4752455345205441524A455412
:102F5800410A0000613B38363B5441524A455441CE
:102F68002053494E20494E475245534F0A000061AD
:102F78003B38373B5441524A455441204E4F20522A
:102F880045474953545241205041474F0A00006178
:102F98003B38383B455843454445205449454D50F6
:102FA8004F204445204752414349410A0000613BB4
:102FB80038393B4D454E5355414C204E4F204553D3
:102FC800544120454E2050415251554541444552A7
:102FD8004F0A0000613B39303B444952494A41534A
:102FE8004520412043414A410A0000613B39313BB9
:102FF800475241434941532E2E2E200A0000613B7F
:1030080039333B4D454E5355414C204E4F20455387
:10301800544120454E205041525155454144455256
:103028004F0A0000613B39343B4D454E5355414CE6
:10303800494441442056454E434944410A000061F1
:103048003B39353B4D454E5355414C49444144204D
:1030580045584345444520484F524152494F204125
:10306800434552515545534520412043414A410A61
:103078000000613B39363B4E4F204553204D454EAD
:103088005355414C49444144204E492050524550E3
:1030980041474F0A0000613B39373B4D454E535578
:1030A800414C204E4F205041474F204C4F43414305
:1030B800494F4E20484F590A0000613B39383B536D
:1030C800494E2050524553454E43494120564548A4
:1030D8004943554C41520A0000613B39383B544141
:1030E800524A455441204E4F2045532044454C20D8
:1030F800504152515545414445524F0A0000613BE9
:1031080030303B4249454E56454E49444F2E20509B
:10311800554C534520454C20424F544F4E0A000011
:10312800613B39383B5441524A4554412053494E3A
:1031380020464F524D41544F0A0000613B39383BFD
:103148004655455241204445204C494E45410A00C8
:1031580000613B39383B554E204D4F4D454E544F3D
:1031680020504F52204641564F520A0000613B30D2
:10317800383B4E4F204553205441524A4554412034
:103188004D454E5355414C0A0000613B39383B547C
:1031980041524A45544120494E56414C4944410AFE
:1031A8000000613B39383B5441524A455441205351
:1031B800494E2053414C4944410A0000613B39388B
:1031C8003B524547495354524120494E4752455373
:1031D8004F20454E20504152515545414445524F8C
:1031E8000A0000613B30373BA1204D454E53554105
:1031F8004C494441442056454E4349444120210A04
:103208000000613B30363B4D454E5355414C2046FE
:103218005545524120444520484F524152494F0A92
:103228000000613B39383B53494E205441524A45CE
:103238005441530A0000613B39383B4E4956454CCE
:103248002042414A4F204445205441524A45544166
:10325800530A0000613B39383B484F524152494FAD
:10326800204E4F2050524F4752414D41444F0A0083
:1032780000613B30313B524554495245205355205B
:103288005441524A4554410A0000613B30333B42A5
:1032980049454E56454E49444F0A0000574945474F
:1032A800414E442000475241434941532000613B6D
:1032B80039323B57494547414E4420000A000061D6
:1032C8003B39313B475241434941532000613B3030
:1032D800333B4249454E56454E49444F2000205005
:1032E8004C41434100613B30373B20A1204D454EC6
:1032F8005355414C494441442056454E4349444165
:1033080020212056454E43494F20323000AA8018CC
:10331800010200AA8018010200AA802807200000E4
:063328000000001400008B
:0525E40090002AEFF059
:1025E900782B7C007D017BFF7A3379157E007F068D
:1025F9001219FE7E027F067D287C0012ADD37F284A
:102609007E001280A0900032EEF0A3EFF0C2879016
:1026190001A3E060030229C37B017A00792BFD1233
:10262900AB1C90002AE0121BAA299E012687552679
:10263900A75626C75726E75827075927275A27474E
:102649005B27075D27675E27875F27A76027C76125
:1026590027E7AA2807AB2827AC2847AD2867AE2863
:1026690087AF28A7B028C7B128E7B22907B3292718
:10267900B52947B62960FA297FFE000029C07BFFEA
:102689007A2C79D812000E900031EFF0E4FDFF1298
:10269900B16B12B1627BFF7A2C79D80229BB7BFF1F
:1026A9007A2C79E912000E900031EFF0E4FDFF1267
:1026B900B16B12B1627BFF7A2C79E90229BB7BFFEE
:1026C9007A2C79FE12000E900031EFF0E4FDFF1232
:1026D900B16B12B1627BFF7A2C79FE0229BB7BFFB9
:1026E9007A2D791812000E900031EFF0E4FDFF12F7
:1026F900B16B12B1627BFF7A2D79180229BB7BFF7E
:102709007A2D793112000E900031EFF0E4FDFF12BD
:10271900B16B12B1627BFF7A2D79310229BB7BFF44
:102729007A2D795112000E900031EFF0E4FDFF127D
:10273900B16B12B1627BFF7A2D79510229BB7BFF04
:102749007A2D796212000E900031EFF0E4FDFF124C
:10275900B16B12B1627BFF7A2D796E0229BB7BFFC7
:102769007A2D797912000E900031EFF0E4FDFF1215
:10277900B16B12B1627BFF7A2D79790229BB7BFF9C
:102789007A2D798E12000E900031EFF0E4FDFF12E0
:10279900B16B12B1627BFF7A2D798E0229BB7BFF67
:1027A9007A2D79BB12000E900031EFF0E4FDFF1293
:1027B900B16B12B1627BFF7A2D79BB0229BB7BFF1A
:1027C9007A2D79D812000E900031EFF0E4FDFF1256
:1027D900B16B12B1627BFF7A2D79D80229BB7BFFDD
:1027E9007A2D79F512000E900031EFF0E4FDFF1219
:1027F900B16B12B1627BFF7A2D79F50229BB7BFFA0
:102809007A2E790E12000E900031EFF0E4FDFF12DE
:10281900B16B12B1627BFF7A2E790E0229BB7BFF65
:102829007A2E792D12000E900031EFF0E4FDFF129F
:10283900B16B12B1627BFF7A2E792D0229BB7BFF26
:102849007A2E794912000E900031EFF0E4FDFF1263
:10285900B16B12B1627BFF7A2E79490229BB7BFFEA
:102869007A2E795E12000E900031EFF0E4FDFF122E
:10287900B16B12B1627BFF7A2E795E0229BB7BFFB5
:102889007A2E796E12000E900031EFF0E4FDFF12FE
:10289900B16B12B1627BFF7A2E796E0229BB7BFF85
:1028A9007A2E798412000E900031EFF0E4FDFF12C8
:1028B900B16B12B1627BFF7A2E79840229BB7BFF4F
:1028C9007A2E799B12000E900031EFF0E4FDFF1291
:1028D900B16B12B1627BFF7A2E799B0229BB7BFF18
:1028E9007A2E79AD12000E900031EFF0E4FDFF125F
:1028F900B16B12B1627BFF7A2E79AD0229BB7BFFE6
:102909007A2E79C112000E900031EFF0E4FDFF122A
:10291900B16B12B1627BFF7A2E79C10229BB7BFFB1
:102929007A2E79E212000E900031EFF0E4FDFF12E9
:10293900B16B12B1627BFF7A2E79E20229BB7BFF70
:102949007A2E79FC12000E900031EFF012B1667BFD
:10295900FF7A2E79FC805B7BFF7A2F791312000EA8
:10296900900031EFF0E4FDFF12B16B12B1627BFF11
:102979007A2F7913803C7BFF7A2F792112000E90F0
:102989000031EFF0E4FDFF12B16B12B1627BFF7A07
:102999002F7921801D7BFF7A2F792D12000E90004F
:1029A90031EFF0E4FDFF12B16B12B1627BFF7A2FB8
:1029B900792D7D0112AB1CD28722C28790002AE0B3
:1029C900121BAA2C64012A27552A3E562A55572A32
:1029D9006C582A83592A9A5A2AB15B2AC85D2ADF78
:1029E9005E2AF65F2B0D602B24612C90A12B3BAA4C
:1029F9002B52AB2B69AC2B80AD2B97AE2BAEAF2BEB
:102A0900C5B02BDCB12BF3B22C0AB32C21B42C3872
:102A1900B52C7AB62C4EFA2CA6FE00002CC39000D9
:102A290032E0FEA3E0AA06F8AC027D017BFF7A2F13
:102A39007945022CBA900032E0FEA3E0AA06F8AC70
:102A4900027D017BFF7A2F795C022CBA900032E07B
:102A5900FEA3E0AA06F8AC027D017BFF7A2F797705
:102A6900022CBA900032E0FEA3E0AA06F8AC027D7F
:102A7900017BFF7A2F7997022CBA900032E0FEA3EE
:102A8900E0AA06F8AC027D017BFF7A2F79B6022C09
:102A9900BA900032E0FEA3E0AA06F8AC027D017B01
:102AA900FF7A2F79DC022CBA900032E0FEA3E0AA6B
:102AB90006F8AC027D017BFF7A2F79F3022CBA90DC
:102AC9000032E0FEA3E0AA06F8AC027D017BFF7AA2
:102AD900307906022CBA900032E0FEA3E0AA06F88B
:102AE900AC027D017BFF7A30792C022CBA9000323E
:102AF900E0FEA3E0AA06F8AC027D017BFF7A3079FB
:102B090047022CBA900032E0FEA3E0AA06F8AC0214
:102B19007D017BFF7A30797A022CBA900032E0FE8F
:102B2900A3E0AA06F8AC027D017BFF7A30799E0208
:102B39002CBA900032E0FEA3E0AA06F8AC027D01AF
:102B49007BFF7A3079C2022CBA900032E0FEA3E012
:102B5900AA06F8AC027D017BFF7A3079E1022CBA32
:102B6900900032E0FEA3E0AA06F8AC027D017BFFEB
:102B79007A317906022CBA900032E0FEA3E0AA0667
:102B8900F8AC027D017BFF7A317928022CBA9000DA
:102B990032E0FEA3E0AA06F8AC027D017BFF7A31A0
:102BA9007943022CBA900032E0FEA3E0AA06F8AC01
:102BB900027D017BFF7A317959022CBA900032E00B
:102BC900FEA3E0AA06F8AC027D017BFF7A31797594
:102BD900022CBA900032E0FEA3E0AA06F8AC027D0E
:102BE900017BFF7A317992022CBA900032E0FEA380
:102BF900E0AA06F8AC027D017BFF7A3179AA022CA2
:102C0900BA900032E0FEA3E0AA06F8AC027D017B8F
:102C1900FF7A3179C4022CBA900032E0FEA3E0AA0F
:102C290006F8AC027D017BFF7A3179EB022CBA9070
:102C39000032E0FEA3E0AA06F8AC027D017BFF7A30
:102C490032790A806C900032E0FEA3E0AA06F8AC63
:102C5900027D017BFF7A32792A8056900032E0FEAC
:102C6900A3E0AA06F8AC027D017BFF7A32793E80A7
:102C790040900032E0FEA3E0AA06F8AC027D017B99
:102C8900FF7A32795C802A900032E0FEA3E0AA063E
:102C9900F8AC027D017BFF7A327979801490003299
:102CA900E0FEA3E0AA06F8AC027D017BFF7A327947
:102CB90092121E37900032129A37900032E0FEA32A
:0E2CC900E0FF1261D6E4900032F0A3F0D28753
:012CD70022DA
:0E47F900900010EFF0A3EBF0A3EAF0A3E9F0BC
:1048070078147C007D017BFF7A33791B7E007F065D
:104817001219FE7E027F067D287C0012ADD37F2809
:104827007E001280A090001BEEF0A3EFF0C28790ED
:1048370001A3E060030248D7900010E024A5604080
:104847001460030248D412AB147BFF7A3279A412A6
:10485700000E90001AEFF0900011E0FBA3E0FAA31E
:10486700E0F912000E90001AE02F04F0E4FDFF12A9
:10487700B16B90001A12B1657BFF7A3279A4803848
:1048870012AB147BFF7A3279AD12000E90001AEF4B
:10489700F0900011E0FBA3E0FAA3E0F912000E90FC
:1048A700001AE02F04F0E4FDFF12B16B90001A121A
:1048B700B1657BFF7A3279AD7D0112AB1C90001197
:1048C700E0FBA3E0FAA3E0F97D0112AB1CD287223B
:1048D700C287900010E024A5602C24A77003024A29
:1048E7000624B6606824A26003024A9690001BE083
:1048F700FEA3E0AA06F8AC027D017BFF7A3279B607
:10490700121E37024A4A90001BE0FEA3E0AA06F8EF
:10491700AC027D017BFF7A3279C7121E37900011F6
:10492700E0FBA3E0FAA3E0F912000E90001AEFF003
:1049370024FFFFE434FFFE900011E0FBA3E0FAA39D
:10494700E0F98F828E83E4121A7C024A4A90001B98
:10495700E0FEA3E0AA06F8AC027D017BFF7A32797C
:10496700D5129A31200E1712A88CC00290001BE0B6
:10497700FEA3E0AA06F8AC027D01D00280199000E0
:104987001BE0FEA3E0AA06F8AC027D01900011E04F
:10499700FBA3E0FAA3E0F9129A3190001BE0FEA313
:1049A700E0AA06F8AC027D017BFF300A487A32792B
:1049B700E6121E3790001BE0FEA3E0AA06F97B0172
:1049C700C0031B900049EBF0A37400F0A37411F02F
:1049D700D00312A39090001BE0FEA3E0AA06F97B88
:1049E7000190004974FFF0A37432F0A374C4F0126D
:1049F700A390024A937A3279C4121E37024A9390DF
:104A0700001BE0FEA3E0AA06F8AC027D017BFF7A5B
:104A17003279ED121E37900011E0FBA3E0FAA3E014
:104A2700F912000E90001AEFF024FFFFE434FFFEA6
:104A3700900011E0FBA3E0FAA3E0F98F828E83E4F4
:104A4700121A7C90001BE0FEA3E0AA06F97B01C0C6
:104A570002C001900011E0F9A3E0FAA3E090004939
:104A6700C9F0A3EAF0A3E9F0D001D00212A3909015
:104A7700001BE0FEA3E0AA06F97B0190004974FF42
:104A8700F0A37432F0A374C4F012A390129A349076
:104A9700001BE0FEA3E0FF1261D6E490001BF0A329
:034AA700F0D287C3
:014AAA0022E9
:09B16200900031E025E0FFE4FD5E
:05B16B00900039EDF039
:10B1700012ACDE90003AEFF0900039E0600AE4FF94
:08B1800012ACDE90003AEFF082
:01B1880022A4
:08AB14007B017A007914E4FDD5
:0EAB1C00900034EBF0A3EAF0A3E9F0A3EDF013
:10AB2A00E4A3F0900034E0FBA3E0FAA3E0F990007C
:10AB3A0038E0F582758300121A3DFF6010900037E5
:0DAB4A00E0FD12B16B900038E004F080D601
:01AB570022DB
:0EAA880090001DEBF0A3EAF0A3E9F0A3EDF0BF
:10AA9600E4900022F0900020E0FF900022E0FEC348
:10AAA6009F502490001DE0FBA3E0FAA3E0F98E82FC
:10AAB600758300121A3DFF900021E0FD12B16B90E4
:07AAC6000022E004F080CE45
:01AACD002266
:0F9A3100121E3790001BE0FEA3E0AA06F97B018E
:0B9A4000900034EBF0A3EAF0A3E9F083
:109A4B0012000E900038EFF0E4900037F0900038E1
:109A5B00E0FF900037E0C39F503DE4900039F09059
:109A6B000039E0C39464748094805005E004F08066
:109A7B00EE900034E0FBA3E0FAA3E0F9A3E0F5825B
:109A8B00758300121A3DFF12ACDE900039EFF09097
:109A9B000037E004F080B6E4900039F0900039E034
:0E9AAB00C39464748094805005E004F080EE53
:019AB900228A
:10A7A40078107C007D017BFF7A3379217E007F0D58
:10A7B4001219FE9001A3E07022C2877B017A00790E
:10A7C40015128569C29C7B017A007910E4900021FE
:10A7D400F07D0D12AA88D29CD28722C287E4900011
:0DA7E40010F07B017A007910128569D28790
:01A7F1002245
:10002600402321246046625E262A003A5B3C253F37
:1000360058545D3D29000D0A0A25733E20002563AC
:10004600002564000D0A0A2041435455414C2049BD
:10005600445F434C49454E54453D25730D0A0A00FD
:100066000D0A0A20444947495445205355204E5508
:1000760045564F2049445F434C49454E54453D0043
:100086000D0A0A204441544F204D4F4449464943E6
:1000960041444F2049445F434C49454E54453D2514
:1000A600730D0A0A000D0A0A2041435455414C209B
:1000B600434F445F5041524B3D25730D0A0A000DD4
:1000C6000A0A20444947495445205355204E554570
:1000D600564F20434F445F5041524B3D000D0A0A94
:1000E600204441544F204D4F444946494341444FD3
:1000F60020434F445F5041524B3D25730D0A0A0081
:100106000D0A0A2041435455414C205449454D504F
:100116004F5F4752414349413D25730D0A0A000D81
:100126000A0A20444947495445205355204E55450F
:10013600564F205449454D504F5F47524143494120
:100146003D000D0A0A204441544F204D4F44494674
:10015600494341444F205449454D504F5F47524112
:100166004349413D25730D0A0A000D0A0A20414301
:100176005455414C2053494E5F434F42524F2049FC
:100186004E484142494C495441444F3D25730D0A5E
:100196000A000D0A0A2041435455414C2053494E4A
:1001A6005F434F42524F204752415449533D2573B6
:1001B6000D0A0A000D0A0A2041435455414C2053AA
:1001C600494E5F434F42524F2047524154495320B4
:1001D600592053414C49444120454C204D49534DEB
:1001E6004F204449413D25730D0A0A000D0A0A2095
:1001F600444947495445205355204E5545564F20AE
:1002060053494E5F434F42524F3D000D0A0A20416B
:10021600435455414C20444542554720494E484198
:1002260042494C495441444F3D25730D0A0A000D7D
:100236000A0A2041435455414C2044454255472023
:10024600484142494C495441444F3D25730D0A0AE1
:10025600000D0A0A2044494749544520454C204E82
:100266005545564F2045535441444F20444520445C
:10027600454255473D000D0A0A2041435455414C1D
:10028600205553455F4C505220494E484142494CF7
:10029600495441444F3D25730D0A0A000D0A0A20B0
:1002A60041435455414C205553455F4C50522048CC
:1002B6004142494C495441444F3D25730D0A0A00B9
:1002C6000D0A0A2044494749544520454C204E55BD
:1002D60045564F2045535441444F204445205553DD
:1002E600455F4C50523D000D0A0A2050414E544184
:1002F6004C4C41204C434420484142494C495441CE
:1003060044413D25730D0A0A000D0A0A2050414E4C
:1003160054414C4C4120524153504245525259206F
:1003260020484142494C49544144413D25730D0AF8
:100336000A000D0A0A2044494749544520454C20E5
:100346004E5545564F2045535441444F2044452071
:100356004C412050414E54414C4C41203D000D0A29
:100366000A2041435455414C20434F4D5041524180
:1003760043494F4E2041435449564120204841426B
:10038600494C49544144413D25730D0A0A000D0A62
:100396000A20455850494445205441524A45544143
:1003A6002050554C53414E444F20424F544F4E0D12
:1003B6000A0A000D0A0A204558504944452054416E
:1003C600524A455441204155544F4D4154494341A9
:1003D6000D0A0A000D0A0A2044494749544520459A
:1003E6004C204E5545564F2045535441444F2044CA
:1003F600454C20455850454449444F523D000D0A4E
:100406000A2041435455414C20414E5449504153D2
:10041600534241434B20494E484142494C4954417D
:10042600444F3D25730D0A0A000D0A0A2041435424
:1004360055414C20414E5449504153534241434B40
:1004460020484142494C495441444F3D25730D0AC9
:100456000A000D0A0A2044494749544520454C20C4
:100466004E5545564F2045535441444F2044452050
:10047600414E5449504153534241434B3D000D0AAE
:100486000A2041435455414C20504C414341204998
:100496004E484142494C495441444F3D25730D0A4B
:1004A6000A000D0A0A2041435455414C20504C4144
:1004B600434120484142494C495441444F3D2573EC
:1004C6000D0A0A000D0A0A204449474954452045A9
:1004D6004C204E5545564F2045535441444F2044D9
:1004E6004520504C4143413D000D0A0A20414354EA
:1004F60055414C20414444524553535F484947486F
:100506005F424F4152443D25730D0A0A000D0A0A07
:1005160020444947495445204C41204E55455641B3
:1005260020414444524553535F484947485F424F30
:100536004152443D000D0A0A2041435455414C2086
:10054600484F524152494F20494E484142494C4931
:100556005441444F3D25730D0A0A000D0A0A2041F5
:10056600435455414C20484F524152494F2048412F
:1005760042494C495441444F3D25730D0A0A000D2A
:100586000A0A2044494749544520454C204E5545C2
:10059600564F2045535441444F20444520484F521E
:1005A6004152494F3D000D0A0A2044696769746546
:1005B60020486F72612030383A3030204D696E75B0
:1005C600746F732044657364653A20000D0A0A202F
:1005D600486F72612050726F6772616D616461204D
:1005E60044657364653A200025633A000D0A0A20C3
:1005F60044696769746520486F72613A4D696E7522
:10060600746F732048617374613A20000D0A0A20E2
:10061600486F72612050726F6772616D616461200C
:1006260048617374613A20000D0A2044657364655D
:10063600202048617374610D0A002025630025633C
:10064600202020000D0A0A20446967697465206C21
:100656006F73206469617320612070726F677261C5
:100666006D6172204C756E6573203D20322C200022
:100676004D6172746573203D20332C204D6965727F
:10068600636F6C6573203D20342C204A7565766552
:1006960073203D20352C2000566965726E657320E7
:1006A6003D20362C2053616261646F203D20372C3B
:1006B60020446F6D696E676F203D2031203A20001F
:1006C6000D0A0A20446961732050726F6772616D6A
:1006D60061646F73203A2000204C756E6573003D8F
:1006E6002025632C00204D617274657300204D69CE
:1006F6006572636F6C657300204A75657665730075
:1007060020566965726E6573002053616261646F7D
:100716000020446F6D696E676F003D2025630020E1
:100726004C756E6573203D2050726F6772616D6106
:10073600646F0D0A00204C756E6573203D204E6F68
:100746002070726F6772616D61646F0D0A00204DD3
:100756006172746573203D2050726F6772616D61BE
:10076600646F0D0A00204D6172746573203D204E42
:100776006F2070726F6772616D61646F0D0A002081
:100786004D696572636F6C6573203D2050726F67AB
:1007960072616D61646F0D0A00204D696572636F49
:1007A6006C6573203D204E6F2070726F6772616DAD
:1007B60061646F0D0A00204A7565766573203D20D9
:1007C60050726F6772616D61646F0D0A00204A7521
:1007D60065766573203D204E6F2070726F6772617B
:1007E6006D61646F0D0A0020566965726E6573202F
:1007F6003D2050726F6772616D61646F0D0A002053
:10080600566965726E6573203D204E6F2070726F5B
:100816006772616D61646F0D0A00205361626164E5
:100826006F203D2050726F6772616D61646F0D0AB3
:10083600002053616261646F203D204E6F2070720C
:100846006F6772616D61646F0D0A0020446F6D6998
:100856006E676F203D2050726F6772616D61646FC5
:100866000D0A0020446F6D696E676F203D204E6F44
:100876002070726F6772616D61646F0D0A000D0AF8
:100886000A2044696769746520656C206E756D651C
:10089600726F2064656C20486F726172696F2061A7
:1008A6002070726F6772616D6172203D20000D0AC3
:1008B6000A2050726F6772616D6172207365677589
:1008C6006E646F20486F726172696F2073693D288C
:1008D6003129206E6F3D2830293D20000D0A0A205F
:1008E60041435455414C205449504F5F5645484961
:1008F60043554C4F204D454E5355414C20494E488B
:100906004142494C495441444F3D25730D0A0A0062
:100916000D0A0A2041435455414C205449504F5F1B
:100926005645484943554C4F204D454E5355414C2D
:1009360020484142494C495441444F3D25730D0AD4
:100946000A000D0A0A2044494749544520454C20CF
:100956004E5545564F2045535441444F204445205B
:100966005449504F5F5645484943554C4F204D45D5
:100976004E5355414C3D000D0A0A20414354554102
:100986004C205449504F5F5645484943554C4F20DB
:10099600204D454E5355414C20484142494C4954FF
:1009A60041444F3D25730D0A0A000D0A0A204143B2
:1009B6005455414C20414E544950415353424143B2
:1009C6004B204D454E5355414C20494E48414249D6
:1009D6004C495441444F3D25730D0A0A000D0A0A3D
:1009E6002041435455414C20414E544950415353A4
:1009F6004241434B204D454E5355414C20484142C0
:100A0600494C495441444F3D25730D0A0A000D0ACD
:100A16000A2044494749544520454C204E554556E1
:100A26004F2045535441444F20444520414E54499C
:100A3600504153534241434B204D454E5355414C33
:100A46003D000D0A0A2041435455414C20414E5465
:100A560049504153534241434B20204D454E535537
:100A6600414C20484142494C495441444F3D25732D
:100A76000D0A0A000D0A0A2041435455414C2046EE
:100A8600454348412056454E43494D49454E544FEE
:100A96002050415353574F52443A25730D0A0A00CA
:100AA6000D0A0A2F3E496420526567697374726F96
:100AB6003A002573000D0A0A2F3E50617373776F53
:100AC60072643A000D0A0A20444947495445204CAD
:100AD60041204E5545564120464543484120444510
:100AE6002056454E43494D49454E544F3D000D0A4B
:100AF6000A2025730D0A0A000D0A0A202558000D42
:100B06000A0A2041435455414C204645434841205A
:100B160044452056454E43494D49454E544F205075
:100B2600524F4752414D414441203D25730D0A0A1B
:100B3600000D0A206E756D65726F2064656C204825
:100B46006F726172696F202070726F6772616D617A
:100B5600646F203D2025630D0A000D0A2020484FB2
:100B6600524152494F20484142494C495441444F11
:100B760020203D204F4E0D0A000D0A204469617366
:100B86002050726F6772616D61646F730D0A000D9C
:100B96000A2020534547554E444F20484F52415254
:100BA600494F20484142494C495441444F20203D39
:100BB600204F4E0D0A000D0A20534547554E444F0F
:100BC60020484F524152494F20484142494C4954CE
:100BD60041444F20203D204F46460D0A000D0A2075
:100BE60020484F524152494F20484142494C4954AE
:100BF60041444F20203D204F46460D0A000D0A2055
:100C060049445F434C49454E54455F50524F475205
:100C1600414D41444F203D2025730D0A000D0A2009
:100C2600434F445F5041524B5F50524F4752414DE4
:100C360041444F203D2025730D0A000D0A205052D5
:100C46004F4752414D41444F204445425547203D70
:100C5600204F4E0D0A000D0A2050524F4752414D6B
:100C660041444F204445425547203D204F46460DBE
:100C76000A000D0A205553455F4C5052203D204F27
:100C860046460D0A000D0A205553455F4C5052202A
:100C96003D204F4E0D0A000D0A2050414E54414C46
:100CA6004C41204C43442050524F4752414D414401
:100CB600410D0A000D0A2050414E54414C4C412032
:100CC600524153504245525259202050524F47529A
:100CD600414D4144410D0A000D0A204558504944F2
:100CE60045205441524A4554412050554C53414E9B
:100CF600444F20424F544F4E0D0A000D0A204558CE
:100D060050494445205441524A4554412041555486
:100D16004F4D41544943410D0A000D0A2020414ED2
:100D26005449504153534241434B203D204F464680
:100D36000D0A000D0A20414E544950415353424179
:100D4600434B203D204F4E0D0A000D0A20504C41CA
:100D56004341203D204F46460D0A000D0A20504CC7
:100D6600414341203D204F4E0D0A000D0A204143CC
:100D76005455414C20414444524553535F484947DA
:100D8600485F424F415244203D2025730D0A000D15
:100D96000A205449504F5F5645484943554C4F2009
:100DA6004D454E5355414C203D204F46460D0A00B9
:100DB6000D0A205449504F5F5645484943554C4FFC
:100DC600204D454E5355414C203D204F4E0D0A00B7
:100DD6000D0A20414E5449504153534241434B2042
:100DE6004D454E5355414C203D204F46460D0A0079
:100DF6000D0A2020414E5449504153534241434B22
:100E0600204D454E5355414C203D204F4E0D0A0076
:100E16000D0A2041435455414C2046454348412044
:100E260044452056454E43494D49454E544F205062
:100E3600524F4752414D414441203D25730D0A0012
:100E46000D0A2049445F434C49454E544520202015
:100E56002020202020202D2D2D20434D44203020E1
:100E66004964656E746966696361646F722064655E
:100E76006C20636C69656E7465206D6178696D6F51
:100E860020323535000D0A20434F445F5041524B06
:100E960020202020202020202020202D2D2D204302
:100EA6004D44203120456C206E756D65726F20644F
:100EB600656C20706172717565616465726F206D15
:100EC6006178696D6F20323535000D0A20545F4711
:100ED600524143494120202020202020202020204C
:100EE6002D2D2D20434D442032205469656D706FA1
:100EF6002073696E20636F62726F2030302C202061
:100F06006D6178696D6F20323535000D0A205349C1
:100F16004E5F434F42524F20202020202020202089
:100F2600202D2D2D20434D44203320496E686162CB
:100F3600696C697461646F3D20302C20477261745E
:100F460069733D2031202C204772617469732079C2
:100F56002073616C69646120656C206D69736D6FC7
:100F6600206469613D2032000D0A20444542554700
:100F760020202020202020202020202020202D2D51
:100F86002D20434D44203420486162696C697461A8
:100F960072203D20312C20496E686162696C69744B
:100FA6006172203D2030000D0A205553455F4C509C
:100FB600522020202020202020202020202D2D2DD2
:100FC60020434D44203520486162696C6974617222
:100FD600203D20312C20496E686162696C6974611C
:100FE60072203D2030000D0A205449504F5F504179
:100FF6004E54414C4C412020202020202D2D2D20C8
:10100600434D4420362050414E54414C4C41204CD7
:101016004344203D302050414E54414C4C412052D7
:1010260041535042455252493D31000D0A20434139
:1010360052445F4155544F4D41544943412020206D
:10104600202D2D2D20434D44203720424F54544F00
:101056004E3D30204155544F4D41544943413D3159
:10106600000D0A20414E5449504153534241434BCF
:10107600202020202020202D2D2D20434D442038B7
:1010860020486162696C69746172203D20312C20B0
:10109600496E686162696C69746172203D20300036
:1010A6000D0A20504C4143412020202020202020A2
:1010B6002020202020202D2D2D20434D4420392076
:1010C600486162696C69746172203D20312C204947
:1010D6006E686162696C69746172203D2030000D32
:1010E6000A20414444524553535F484947485F42AA
:1010F6004F415244202D2D2D20434D442031302088
:101106004C6120646972656363696F6E20616C74FB
:10111600612064656C20626F6172642064656C2076
:101126006E756D65726F203520616C20392073698C
:101136006E6F207365207573612064656265206932
:101146007220656E2030000D0A20484F52415249E8
:101156004F2020202020202020202020202D2D2D33
:1011660020434D442031312050726F67616D6120FC
:10117600313020686F726172696F732064656C200C
:101186003120616C203130000D0A2056414C494413
:10119600415F564548495F4D454E5355414C2D2DAF
:1011A6002D20434D4420313220486162696C6974B8
:1011B6006172203D20312C20496E686162696C693C
:1011C600746172203D2030000D0A205553455F4161
:1011D60050425F4D454E5355414C202020202D2D29
:1011E6002D20434D4420313320486162696C697477
:1011F6006172203D20312C20496E686162696C69FC
:10120600746172203D2030000D0A205645525F5011
:10121600524F4752414D4143494F4E2020202D2DDC
:101226002D20434D44203134204D75657374726111
:10123600206C612070726F6772616D6163696F6E99
:10124600000D0A204159554441202020202020200D
:10125600202020202020202D2D2D20434D442031DC
:1012660035204D756573747261206C6F7320636FE2
:101276006D616E646F73000D0A2053414C49522014
:10128600202020202020202020202020202D2D2D31
:1012960020434D442031362053616C6972206465C9
:1012A6002070726F6772616D6163696F6E000D0AFF
:1012B6000A53697374656D612064652050726F67A7
:1012C60072616D6163696F6E2045787065646964EB
:1012D6006F72200D0A0D0A000D0A436F6D616E6470
:1012E6006F206E6F206578697374652027257327D4
:1012F600003A5B3C253F58545D3D2900232A594A54
:1013060041494D4563616D696C744B0077727A3261
:10131600357136382D393166532E4000200D0A00BE
:08132600200D0A00220D0A004F
:1081A2005401BC2F0000000000000000000000008D
:1081B200000000000000004B01B161646D696E00B7
:1081C2000000000000603601D030000031000032B3
:1081D2000000330000340000350000360000370094
:1081E20000380000390000313000313100313200F6
:0F81F20031330031340031350031360031370080
:0B4CD70090005DEBF0A3EAF0A3E9F011
:104CE20078627C007D017BFF7A1279F77E007F0B70
:104CF2001219FE786D7C007D017BFF7A1379027EAA
:104D0200007F101219FE787D7C007D017BFF7A13F3
:104D120079127E007F101219FE7B017A0079987F4A
:104D2200507E0312A3FB7B017A0079981284A0EFD4
:104D32003395E0FEEF64014E78627C007D017BFFDB
:104D420060067A00792680047A007931121E379043
:104D5200005DE0FBA3E0FAA3E0F912000E90006010
:104D6200EFF0E4A3F0900061E0FFC3940A74809432
:104D7200804003024EC990005DE0FBA3E0FAA3E08D
:104D8200F98F82758300121A3DFD7C0074622FF543
:104D920082E43400F583E02DFFEC339001ADF0A303
:104DA200EFF07E00540FFFA3EEF0A3EFF0700BE0E4
:104DB20004F070069001AFE004F09001AFE0FEA3B2
:104DC200E0246CF58274003EF583E07E002DFFEE58
:104DD2003C9001ADF0A3EFF07E00540FFFA3EEF084
:104DE200A3EFF0700BE004F070069001AFE004F066
:104DF2009001AFE0FEA3E0247CF58274003EF583CF
:104E0200E0FF9001ADE0FEA3E06FFF9001ADEEF098
:104E1200FEA3EFF0D394FFEE940040059001ADE4C1
:104E2200F09001ADE0FEA3E0FFC3947AEE9400405F
:104E320015D3EF94FFEE9400500CEF547AFF9001DB
:104E4200ADE4F0A3EFF0C39001AEE094309001AD79
:104E5200E09400500CA3E02440F09001ADE0340057
:104E6200F09001ADE0FEA3E0FFC3945BEE9400403E
:104E720014D3EF9460EE9400500BE02407F09001FD
:104E8200ADE03400F09001ADE0FEA3E0FFC3943A40
:104E9200EE94004014D3EF9440EE9400500BE024C3
:104EA200F9F09001ADE034FFF09001ADA3E0FF9086
:104EB2000061E0248DF582E43400F583EFF0900088
:104EC20061E004F0024D67900061E0248DF582E418
:0C4ED2003400F583E4F07B017A00798D58
:014EDE0022B1
:0BA4C700900046EBF0A3EAF0A3E9F0E0
:10A4D200E490004CF090004CE0FFC394127480941E
:10A4E200805041EF75F003A424D0F9740135F0FADD
:10A4F2007B0178497C007D01121E3778497C007D02
:10A5020001900046E0FBA3E0FAA3E0F9121D4EEF32
:10A512003395E04F700690004CE0FF2290004CE033
:06A5220004F080B17FFF90
:01A528002210
:08AB9B00E0FBA3E0FAA3E0F9DE
:0BABA30090005DEBF0A3EAF0A3E9F0E6
:10ABAE0078607C007D017B017A0179B1121E3778C5
:10ABBE00607C007D0190005DE0FBA3E0FAA3E0F96C
:0EABCE00121D4EEF3395E04F7002FF227FFF05
:01ABDC002256
:06AC5F007B017A0079324E
:0BAC650090005DEBF0A3EAF0A3E9F023
:10AC700078607C007D017BFF7A1379227E007F045F
:10AC80001219FE9000677401F0A37400F0A37460C1
:0FAC9000F090005DE0FBA3E0FAA3E0F9027B8502
:10976A00E0FBA3E0FAA3E02FF9EA3EFAE92401F9C3
:03977A00E43AFAD4
:0B977D00900046EBF0A3EAF0A3E9F037
:1097880078497C007D017BFF7A1379267E007F046F
:109798001219FE784D7C007D017BFF7A13792A7EB1
:1097A800007F041219FE900046E0FBA3E0FAA3E054
:1097B800F9121A24FFB4200C900047E475F0011246
:1097C8001AB080E2EF900067B4220D7401F0A37420
:1097D80000F0A3744DF080167401F0A37400F0A398
:1097E8007449F0900046E0FBA3E0FAA3E0F9127B8D
:0197F80085EB
:0197F900224D
:10B30F0090007A7401F0A37401F0A374BCF07BFF7A
:07B31F007A00793C0233992A
:089E59007A0079637B01E4FD4E
:0E9E6100900071EBF0A3EAF0A3E9F0A3EDF09E
:109E6F0012B404900071E0FBA3E0FAA3E0F9EF1243
:109E7F001A6A900074E0701D900071E0FBA3E0FA85
:109E8F00A3E0F9121A2490007AF07BFF7A0079444C
:109E9F0012339980057F2A12ACDE900071E0FBA38C
:109EAF00E0FAA3E0F9121A24FF7E00900072E47525
:109EBF00F001121AB0900071E0FBA3E0FAA3E0F9F1
:099ECF00E4121A6AEF640D7097A9
:019ED8002267
:108C2900E4FDFC7FA812AD5D7E00900050EEF0A33C
:108C3900EFF090007A74FFF0A37400F0A37447F08A
:108C4900A3EEF0A3EFF07B017A00794612339390FB
:108C5900007A7401F0A37400F0A37446F07BFF7AE4
:108C690000794A1233997BFF7A0079661233997A2F
:108C7900007946129E5D7B017A007946127D479004
:108C89000050EEF0A3EFF0FBE4FDFC7FA812A7650E
:108C9900E4FDFC7FA812AD5D7E00900050EEF0A3CC
:108CA900EFF090007A74FFF0A37400F0A37447F01A
:108CB900A3EEF0A3EFF07B017A007946123393908B
:108CC900007A7401F0A37400F0A37446F07BFF7A74
:068CD900007986023399C8
:1089F5007D027C007FA812AD5D7E00900050EEF0F8
:108A0500A3EFF090007A74FFF0A37400F0A374470D
:108A1500F0A3EEF0A3EFF07B017A007946123393D1
:108A250090007A7401F0A37400F0A37446F07BFF04
:108A35007A0079AB1233997BFF7A0079C5123399A5
:108A45007B017A007946E4FD129E617B017A00790B
:108A550046127D47900050EEF0A3EFF0FB7D027CBF
:108A6500007FA812A7657D027C007FA812AD5D7E00
:108A750000900050EEF0A3EFF090007A74FFF0A3A1
:108A85007400F0A37447F0A3EEF0A3EFF07B017A36
:108A950000794612339390007A7401F0A37400F0C4
:0D8AA500A37446F07BFF7A0079E302339959
:108AB2007D047C007FA812AD5D7E00900050EEF038
:108AC200A3EFF090007A74FFF0A37400F0A3744750
:108AD200F0A3EEF0A3EFF07B017A00794612339314
:108AE20090007A7401F0A37400F0A37446F07BFF47
:108AF2007A0179061233997BFF7A0179251233992B
:108B02007B017A007946E4FD129E617B017A00794D
:108B120046127D47900050EEF0A3EFF0FB7D047CFF
:108B2200007FA812A7657D047C007FA812AD5D7E40
:108B320000900050EEF0A3EFF090007A74FFF0A3E3
:108B42007400F0A37447F0A3EEF0A3EFF07B017A78
:108B520000794612339390007A7401F0A37400F006
:0D8B6200A37446F07BFF7A01794802339935
:106315007D067C007FA812AD5D7E00900050EEF0FA
:10632500A3EFF090007A74FFF0A37400F0A3744714
:10633500F0A3EEF0A3EFF07B017A007946123393D8
:10634500900050E07002A3E0701590007A04F0A36D
:106355007400F0A37446F07BFF7A01797080359064
:106365000050E07004A3E06401701590007A04F019
:10637500A37400F0A37446F07BFF7A01799880142A
:1063850090007A7401F0A37400F0A37446F07BFFCB
:106395007A0179BA1233997BFF7A0179F21233992E
:1063A5007B017A007946E4FD129E617B017A0079D2
:1063B50046127D47900050EEF0A3EFF0FB7D067C82
:1063C500007FA812A7657D067C007FA812AD5D7EC3
:1063D50000900050EEF0A3EFF090007A74FFF0A368
:1063E5007400F0A37447F0A3EEF0A3EFF07B017AFD
:1063F500007946123393900050E07002A3E07015C7
:1064050090007A04F0A37400F0A37446F07BFF7A41
:106415000179708035900050E07004A3E06401704C
:106425001590007A04F0A37400F0A37446F07BFF86
:106435007A017998801490007A7401F0A37400F0C1
:0D644500A37446F07BFF7A0179BA123399F7
:016452002227
:1072C6007D087C007FA812AD5D7E00900050EEF038
:1072D600A3EFF090007A74FFF0A37400F0A3744754
:1072E600F0A3EEF0A3EFF07B017A00794612339318
:1072F600900050E07002A3E0701590007A04F0A3AD
:107306007400F0A37446F07BFF7A02791180149022
:10731600007A7401F0A37400F0A37446F07BFF7A40
:107326000279351233997BFF7A0279571233997BAA
:10733600017A007946E4FD129E617B017A00794666
:10734600127D47900050EEF0A3EFF0FB7D087C0025
:107356007FA812A7657D087C007FA812AD5D7E0020
:10736600900050EEF0A3EFF090007A74FFF0A37453
:1073760000F0A37447F0A3EEF0A3EFF07B017A00D0
:107386007946123393900050E07002A3E070159096
:10739600007A04F0A37400F0A37446F07BFF7A022F
:1073A6007911801490007A7401F0A37400F0A3742C
:0B73B60046F07BFF7A02793512339914
:0173C10022A9
:1073C2007D0A7C007FA812AD5D7E00900050EEF039
:1073D200A3EFF090007A74FFF0A37400F0A3744757
:1073E200F0A3EEF0A3EFF07B017A0079461233931B
:1073F200900050E07002A3E0701590007A04F0A3B0
:107402007400F0A37446F07BFF7A02797C801490BA
:10741200007A7401F0A37400F0A37446F07BFF7A43
:107422000279A21233997BFF7A0279C61233997BD1
:10743200017A007946E4FD129E617B017A00794669
:10744200127D47900050EEF0A3EFF0FB7D0A7C0026
:107452007FA812A7657D0A7C007FA812AD5D7E0021
:10746200900050EEF0A3EFF090007A74FFF0A37456
:1074720000F0A37447F0A3EEF0A3EFF07B017A00D3
:107482007946123393900050E07002A3E070159099
:10749200007A04F0A37400F0A37446F07BFF7A0232
:1074A200797C801490007A7401F0A37400F0A374C4
:0B74B20046F07BFF7A0279A2123399AA
:0174BD0022AC
:1074BE007D0E7C007FA812AD5D7E00900050EEF038
:1074CE00A3EFF090007A74FFF0A37400F0A374475A
:1074DE00F0A3EEF0A3EFF07B017A0079461233931E
:1074EE00900050E07002A3E0701590007A04F0A3B3
:1074FE007400F0A37446F07BFF7A0279ED8014904D
:10750E00007A7401F0A37400F0A37446F07BFF7A46
:10751E0003790F1233997BFF7A0379381233997BF3
:10752E00017A007946E4FD129E617B017A0079466C
:10753E00127D47900050EEF0A3EFF0FB7D0E7C0025
:10754E007FA812A7657D0E7C007FA812AD5D7E0020
:10755E00900050EEF0A3EFF090007A74FFF0A37459
:10756E0000F0A37447F0A3EEF0A3EFF07B017A00D6
:10757E007946123393900050E07002A3E07015909C
:10758E00007A04F0A37400F0A37446F07BFF7A0235
:10759E0079ED801490007A7401F0A37400F0A37456
:0B75AE0046F07BFF7A037964123399EA
:0175B90022AF
:1087B4007D0F7C007FA812AD5D7E00900050EEF02E
:1087C400A3EFF090007A74FFF0A37400F0A3744751
:1087D400F0A3EEF0A3EFF07B017A00794612339315
:1087E400900050E07002A3E07BFF70067A03799456
:1087F40080047A0379B91233997BFF7A0379DA1208
:1088040033997B017A007946E4FD129E617B017AFB
:10881400007946127D47900050EEF0A3EFF0FB7D07
:108824000F7C007FA812A7657D0F7C007FA812AD86
:108834005D7E00900050EEF0A3EFF090007A74FF9C
:10884400F0A37400F0A37447F0A3EEF0A3EFF07B61
:10885400017A007946123393900050E07002A3E04D
:108864007BFF70067A03799480047A0379B9123312
:01887400996A
:0188750022E0
:1075BA007D107C007FA812AD5D7E00900050EEF039
:1075CA00A3EFF090007A74FFF0A37400F0A374475D
:1075DA00F0A3EEF0A3EFF07B017A00794612339321
:1075EA00900050E07002A3E0701590007A04F0A3B6
:1075FA007400F0A37446F07BFF7A04790480149037
:10760A00007A7401F0A37400F0A37446F07BFF7A49
:10761A0004792F1233997BFF7A0479581233997BB4
:10762A00017A007946E4FD129E617B017A0079466F
:10763A00127D47900050EEF0A3EFF0FB7D107C0026
:10764A007FA812A7657D107C007FA812AD5D7E0021
:10765A00900050EEF0A3EFF090007A74FFF0A3745C
:10766A0000F0A37447F0A3EEF0A3EFF07B017A00D9
:10767A007946123393900050E07002A3E07015909F
:10768A00007A04F0A37400F0A37446F07BFF7A0436
:10769A007904801490007A7401F0A37400F0A37442
:0B76AA0046F07BFF7A04792F12339921
:0176B50022B2
:1076B6007D117C007FA812AD5D7E00900050EEF03B
:1076C600A3EFF090007A74FFF0A37400F0A3744760
:1076D600F0A3EEF0A3EFF07B017A00794612339324
:1076E600900050E07002A3E0701590007A04F0A3B9
:1076F6007400F0A37446F07BFF7A047984801490BA
:10770600007A7401F0A37400F0A37446F07BFF7A4C
:107716000479A81233997BFF7A0479CA1233997BCC
:10772600017A007946E4FD129E617B017A00794672
:10773600127D47900050EEF0A3EFF0FB7D117C0028
:107746007FA812A7657D117C007FA812AD5D7E0023
:10775600900050EEF0A3EFF090007A74FFF0A3745F
:1077660000F0A37447F0A3EEF0A3EFF07B017A00DC
:107776007946123393900050E07002A3E0701590A2
:10778600007A04F0A37400F0A37446F07BFF7A0439
:107796007984801490007A7401F0A37400F0A374C5
:0B77A60046F07BFF7A0479A8123399AB
:0177B10022B5
:107C69007D127C007FA812AD5D7E00900050EEF081
:107C7900A3EFF090007A74FFF0A37400F0A37447A7
:107C8900F0A3EEF0A3EFF07B017A0079461233936B
:107C9900900050E07002A3E0700690007A0480051D
:107CA90090007A7401F0A37400F0A37446F07BFF8E
:107CB9007A0479EF1233997BFF7A05791312339994
:107CC9007B017A007946E4FD129E617B017A007995
:107CD90046127D47900050EEF0A3EFF0FB7D127C39
:107CE900007FA812A7657D127C007FA812AD5D7E7A
:107CF90000900050EEF0A3EFF090007A74FFF0A32B
:107D09007400F0A37447F0A3EEF0A3EFF07B017ABF
:107D1900007946123393900050E07002A3E0700698
:107D290090007A04800590007A7401F0A37400F041
:0D7D3900A37446F07BFF7A0479EF123399B2
:017D4600221A
:10AF9C009000747419F0A37432F0A3744BF0A37482
:10AFAC0064F0A3747DF0A37496F0A374AFF0A37453
:10AFBC00C8F0A374E1F0A374FAF0E4A3F07B017A77
:03AFCC0000797495
:01AFCF00225F
:0A6B6000900061EEF0FCA3EFF0FDE1
:106B6A007FA812AD5D7E0090006DEEF0A3EFF0906D
:106B7A00007A74FFF0A37400F0A37447F0A3EEF058
:106B8A00A3EFF07B017A00796312339390006DE0F2
:106B9A007002A3E0701590007A04F0A37400F0A3C9
:106BAA007463F07BFF7A05793B801490007A740154
:106BBA00F0A37400F0A37463F07BFF7A0579611285
:106BCA0033997BFF7A0579851233997B017A0079AB
:106BDA0063E4FD129E617B017A007963127D47901E
:106BEA00006DEEF0A3EFF0900061E0FCA3E0FDABD6
:106BFA00077FA812A765900061E0FCA3E0FD7FA8CB
:106C0A0012AD5D7E0090006DEEF0A3EFF090007A79
:106C1A0074FFF0A37400F0A37447F0A3EEF0A3EF9F
:106C2A00F07B017A00796312339390006DE0700271
:106C3A00A3E090006F7018F0A3F090007A04F0A31C
:106C4A007400F0A37463F07BFF7A05793B8017E444
:106C5A00F0A304F090007AF0A37400F0A37463F038
:0F6C6A007BFF7A05796112339990006FA3E0FFE9
:016C790022F8
:084EDF00900061EEF0A3EFF07A
:104EE7007BFF7A0579AC123399129E597BFF7A05BD
:104EF70079D2123399900062E02407FD900061E0B7
:104F07003400FC900063E0FB7FA812A76590006265
:104F1700E02407FD900061E03400FC7FA812AD5D3E
:104F27007BFF7A00794490007AEFF0123399900072
:104F370062E02408FD900061E03400FC900064E02A
:104F4700FB7FA812A765900062E02408FD9000612E
:104F5700E03400FC7FA812AD5D7BFF7A0579EE9007
:104F6700007AEFF0123399900062E02409FD900077
:104F770061E03400FC900066E0FB7FA812A7659013
:104F87000062E02409FD900061E03400FC7FA81274
:104F9700AD5D7BFF7A00794490007AEFF012339988
:104FA700900062E0240AFD900061E03400FC90006C
:104FB70067E0FB7FA812A765900062E0240AFD90D6
:104FC7000061E03400FC7FA812AD5D7BFF7A0079B9
:104FD7004490007AEFF01233997BFF7A0579F21249
:104FE7003399129E597BFF7A0679121233999000F2
:104FF70062E0240BFD900061E03400FC900063E068
:10500700FB7FA812A765900062E0240BFD9000616A
:10501700E03400FC7FA812AD5D7BFF7A00794490F5
:10502700007AEFF0123399900062E0240CFD9000B3
:1050370061E03400FC900064E0FB7FA812A7659054
:105047000062E0240CFD900061E03400FC7FA812B0
:10505700AD5D7BFF7A0579EE90007AEFF012339918
:10506700900062E0240DFD900061E03400FC9000A8
:1050770066E0FB7FA812A765900062E0240DFD9013
:105087000061E03400FC7FA812AD5D7BFF7A0079F8
:105097004490007AEFF0123399900062E0240EFDFD
:1050A700900061E03400FC900067E0FB7FA812A746
:1050B70065900062E0240EFD900061E03400FC7F03
:1050C700A812AD5D7BFF7A00794490007AEFF00279
:0250D70033990B
:086C7A00900074EEF0A3EFF0AE
:106C82007BFF7A06792E123399900075E02407FD76
:106C9200900074E03400FC7FA812AD5D7BFF7A06A1
:106CA200794090007AEFF0123399900075E0240851
:106CB200FD900074E03400FC7FA812AD5D7BFF7A8A
:106CC2000579EE90007AEFF0123399900075E02486
:106CD20009FD900074E03400FC7FA812AD5D7BFFDB
:106CE2007A00794490007AEFF0123399900075E0BF
:106CF200240AFD900074E03400FC7FA812AD5D7B95
:106D0200FF7A06794490007AEFF012339990007579
:106D1200E0240BFD900074E03400FC7FA812AD5D0E
:106D22007BFF7A00794490007AEFF0123399900059
:106D320075E0240CFD900074E03400FC7FA812ADD5
:106D42005D7BFF7A0579EE90007AEFF0123399902D
:106D52000075E0240DFD900074E03400FC7FA81261
:106D6200AD5D7BFF7A00794490007AEFF01233999F
:106D7200900075E0240EFD900074E03400FC7FA8C2
:106D820012AD5D7BFF7A00794490007AEFF0023316
:016D92009967
:08454200900061EEF0A3EFF020
:10454A007BFF7A06794A1233997BFF7A06797612CB
:10455A0033997BFF7A06799E1233997B017A007927
:10456A0063E4FD129E617BFF7A0679C6123399E4F1
:10457A0090006EF090006EE0FFC3940874809480FF
:10458A0040030247F874632FF582E43400F583E0B0
:10459A0090006FF0643270437BFF7A0679DE123343
:1045AA0099900062E02401FD900061E03400FC7BF8
:1045BA00327FA812A765900062E02401FD90006195
:1045CA00E03400FC7FA812AD5D90006DEFF07BFF38
:1045DA007A0679E590007AF012339990006EE02419
:1045EA0063F582E43400F583E090006FF064337081
:1045FA00437BFF7A0679EB123399900062E024023A
:10460A00FD900061E03400FC7B337FA812A765901F
:10461A000062E02402FD900061E03400FC7FA812F1
:10462A00AD5D90006DEFF07BFF7A0679E590007A38
:10463A00F012339990006EE02463F582E43400F5B9
:10464A0083E090006FF0643470437BFF7A0679F35D
:10465A00123399900062E02403FD900061E0340077
:10466A00FC7B347FA812A765900062E02403FD90CA
:10467A000061E03400FC7FA812AD5D90006DEFF0A0
:10468A007BFF7A0679E590007AF012339990006EF2
:10469A00E02463F582E43400F583E090006FF0646F
:1046AA003570437BFF7A0679FE123399900062E0F7
:1046BA002404FD900061E03400FC7B357FA812A73A
:1046CA0065900062E02404FD900061E03400FC7F04
:1046DA00A812AD5D90006DEFF07BFF7A0679E59048
:1046EA00007AF012339990006EE02463F582E43484
:1046FA0000F583E090006FF0643670437BFF7A0721
:10470A007906123399900062E02405FD900061E079
:10471A003400FC7B367FA812A765900062E024056E
:10472A00FD900061E03400FC7FA812AD5D90006D41
:10473A00EFF07BFF7A0679E590007AF012339990D0
:10474A00006EE02463F582E43400F583E090006FA4
:10475A00F0643770437BFF7A07790F123399900020
:10476A0062E02406FD900061E03400FC7B377FA8FC
:10477A0012A765900062E02406FD900061E0340013
:10478A00FC7FA812AD5D90006DEFF07BFF7A067991
:10479A00E590007AF012339990006EE02463F58276
:1047AA00E43400F583E090006FF0643170377BFFEA
:1047BA007A077917123399900061E0FCA3E0FD7B38
:1047CA00317FA812A765900061E0FCA3E0FD7FA8F5
:1047DA0012AD5D90006DEFF07BFF7A0779209000B3
:0E47EA007AF012339990006EE004F002457EE2
:0147F800229E
:08691C00900074EEF0A3EFF00F
:106924002401FDE43EFC7FA812AD5D900076EFF0FB
:1069340064327BFF70067A07792580047A07793BF5
:10694400123399900075E02402FD900074E0340045
:10695400FC7FA812AD5D900076EFF064337BFF708E
:10696400067A07795480047A07796B123399900078
:1069740075E02403FD900074E03400FC7FA812ADA0
:106984005D900076EFF064347BFF70067A077985BA
:1069940080047A07799F123399900075E02404FDEE
:1069A400900074E03400FC7FA812AD5D900076EF97
:1069B400F064357BFF70067A0779BC80047A077926
:1069C400D3123399900075E02405FD900074E034EF
:1069D40000FC7FA812AD5D900076EFF064367BFF7B
:1069E40070067A0779ED80047A0879051233999054
:1069F4000075E02406FD900074E03400FC7FA812CA
:106A0400AD5D900076EFF064377BFF70067A08790D
:106A14002080047A087937123399900074E0FCA33B
:106A2400E0FD7FA812AD5D900076EFF064317BFF4E
:0F6A340070067A08795180047A087969123399CB
:016A43002230
:105F4F0012AF9C78507C007D01121E377BFF7A08C0
:105F5F0079841233997B017A007946E4FD129E61B0
:105F6F007B017A007946127D47EF14900060F0E0D4
:105F7F002450F582E43400F583E0FF7E0090005B4F
:105F8F00EEF0A3EFF0A3EEF0A3EFF090005CE024AF
:105F9F000FF090005BE03400F0E0FEA3E0FF126B27
:105FAF006090005DE0FFA3E090005BCFF0A3EFF007
:105FBF009000607401F0900060E0FFC3940874805B
:105FCF009480501C90005CE02FFD90005BE034004B
:105FDF00FC7BFF7FA812A765900060E004F080D6DD
:105FEF0090005DE0FEA3E0FF90005BEEF0A3EFF00A
:105FFF0012454290005BE0FEA3E0FF124EDF7BFFF5
:10600F007A0879B41233997B017A007946E4FD124C
:10601F009E617B017A007946127D4790005FEFF019
:10602F00FB90005CE02410FD90005BE03400FC7FEF
:10603F00A812A76590005CE02410FD90005BE0348F
:10604F0000FC7FA812AD5D90005FEFF090007A74B6
:10605F00FFF0A37400F0A37447F0A3EFF07B017A75
:10606F0000794612339390005FE064017016900040
:10607F005CE0240AF090005BE03400F0E0FEA3E067
:04608F00FF124EDFCF
:0160930022EA
:1077B2007D147C007FA812AD5D7E00900050EEF03B
:1077C200A3EFF090007A74FFF0A37400F0A3744763
:1077D200F0A3EEF0A3EFF07B017A00794612339327
:1077E200900050E07002A3E0701590007A04F0A3BC
:1077F2007400F0A37446F07BFF7A0879E28014905B
:10780200007A7401F0A37400F0A37446F07BFF7A4F
:107812000979161233997BFF7A0979481233997BD9
:10782200017A007946E4FD129E617B017A00794675
:10783200127D47900050EEF0A3EFF0FB7D147C0028
:107842007FA812A7657D147C007FA812AD5D7E0023
:10785200900050EEF0A3EFF090007A74FFF0A37462
:1078620000F0A37447F0A3EEF0A3EFF07B017A00DF
:107872007946123393900050E07002A3E0701590A5
:10788200007A04F0A37400F0A37446F07BFF7A0838
:1078920079E2801490007A7401F0A37400F0A3746A
:0B78A20046F07BFF7A09797D123399D4
:0178AD0022B8
:1078AE007D157C007FA812AD5D7E00900050EEF03D
:1078BE00A3EFF090007A74FFF0A37400F0A3744766
:1078CE00F0A3EEF0A3EFF07B017A0079461233932A
:1078DE00900050E07002A3E0701590007A04F0A3BF
:1078EE007400F0A37446F07BFF7A0979B08014908F
:1078FE00007A7401F0A37400F0A37446F07BFF7A53
:10790E000979E31233997BFF7A0A79141233997B42
:10791E00017A007946E4FD129E617B017A00794678
:10792E00127D47900050EEF0A3EFF0FB7D157C002A
:10793E007FA812A7657D157C007FA812AD5D7E0025
:10794E00900050EEF0A3EFF090007A74FFF0A37465
:10795E0000F0A37447F0A3EEF0A3EFF07B017A00E2
:10796E007946123393900050E07002A3E0701590A8
:10797E00007A04F0A37400F0A37446F07BFF7A093A
:10798E0079B0801490007A7401F0A37400F0A3749F
:0B799E0046F07BFF7A0A79481233990B
:0179A90022BB
:1050D9007B017A0079467F507E0312A3FB90006022
:1050E9007401F0A37400F0A37454F07B017A007981
:1050F900461295B890007A7401F0A37400F0A37475
:1051090054F07BFF7A0A797A1233997BFF7A0A790C
:10511900A61233997B017A0079467F007E0312A398
:10512900FB90007A7401F0A37400F0A37446F07B3D
:10513900FF7A0A79B81233997B017A007946124CC1
:10514900D778B17C017D01121E377BFF7A0A79BBC2
:105159001233997B017A0079467D01129E617B01A8
:105169007A00794612AC65900051EBF0A3EAF0A3FE
:10517900E9F07B017A0179B17F007E0312A32190C6
:10518900005112AB9BEF70837BFF7A0A79CA123305
:10519900997B017A007946E4FD129E6190007A7448
:1051A90001F0A37400F0A37446F07BFF7A0A79F446
:1051B900123399900046E0900054F0900047E09037
:1051C9000055F0E4A3F07B017A007954127D4790F1
:1051D900005BEEF0A3EFF07BFF7A0A79FE90007A8C
:1051E900EEF0A3EFF012339990005BA3E0FB7D5042
:1051F9007C037FA812A765900048E0900054F090C6
