:10811F0041016A0A41019D004101A80041019E00F1
:10812F004101A60042019F00004101A7064101AC99
:0F813F00034101ABF2C10AC10BC1094101690043
:03000B0002B3B18C
:10B3B100C0E0C083C08290016AE014F0E0640170D3
:10B3C1000690019DE004F09001A0E004F070069069
:0EB3D100019FE004F0C28DD082D083D0E03224
:10B73200E58954F04401F589E4F58CF58AD28C222E
:05B7C700C28DD2A92291
:03B7D600C2A922E3
:0BB7610012B4D4EFF47002EEF460F5B7
:01B76C0022BA
:05AFB8009000A7EFF07E
:10AFBD009000A7E0FF12B19DEF3395E04F6024E4C0
:10AFCD009000A8F0A3F0C39000A9E094E89000A829
:10AFDD00E0940350DBA3E004F070EB9000A8E004D4
:08AFED00F080E39000A7E0FFF3
:01AFF5002239
:0EACD600900027EBF0A3EAF0A3E9F0A3EDF065
:10ACE400E4A3F090002AE0FFA3E0C39F5029900062
:10ACF40027E0FBA3E0FAA3E0F9121A24FF12AFB88D
:10AD040090002CEFF0900028E475F001121AB09036
:07AD1400002BE004F080CCED
:01AD1B002215
:10B7420012B7D112B78912B76DC283D287C29722BC
:10AA86007D047C007FA812B0759001A9E4F0A3EFC5
:10AA9600F07D067C007FA812B0759001A4E4F0A3B7
:10AAA600EFF07D087C007FA812B0759001A2EFF050
:10AAB6007D0A7C007FA812B0759001A1EFF07D0E93
:0DAAC6007C007FA812B0759001A3EFF02274
:10A3B70012B73212B7C712B40B12B45D12B742D23A
:10A3C700AF12B5F07F217E0012B6C612B6717F615B
:10A3D70012AB6F12B790209103124BD012AA8612BC
:10A3E70065A3EF70FA90016A7405F020800312B537
:10A3F70020900169E0FF1233F1900169EFF020B37B
:10A40700292009267B017A01794112974F90000094
:10A41700EFF0FD7B017A01794112B1627B017A018C
:0FA427007941900000E0FD12405912A1B780BCAE
:05B7CC004C4956450048
:0E405900900001EBF0A3EAF0A3E9F0A3EDF074
:104067006419705D900001E0FBA3E0FAA3E0F91288
:104077001A246402704B900002121A3D6448704182
:10408700900004E07E0024FFF582EE34FFF58312F2
:104097001A3D6403702B900001A3A3E02403F9E405
:1040A7003AFA126EE3EF6003024396900001E0FBD9
:1040B700A3E0FAA3E02403F9E43AFA129B5202AA16
:1040C70038900001E0FBA3E0FAA3E0F9121A246498
:1040D700B67028900267E004F0E0D39404748094EB
:1040E7008050030243967FAE1226A7C282E4900156
:1040F7009DF0C297C283900267F022900001E0FB17
:10410700A3E0FAA3E0F9121A24FF64B76005EF648D
:10411700AA705390019DE0C3941474809480400862
:10412700E4F0C297D282C2839001A2E06003024307
:10413700969001A1E064016003024396C39001A039
:10414700E0945890019FE094025003024396E4F0F4
:10415700A3F09001A204F07BFF7AB779CC12ABC22F
:10416700E49001A2F022900001E0FBA3E0FAA3E0B3
:10417700F9121A2464B170057F6002424E90000163
:10418700E0FBA3E0FAA3E0F9121A2464B270057FFA
:104197005D02424E900004E064017017900001E058
:1041A700FBA3E0FAA3E0F9121A2464A170057F5A71
:1041B70002424E900004E064017016900001E0FB9B
:1041C700A3E0FAA3E0F9121A24640670047FAA8018
:1041D70076900004E064017016900001E0FBA3E014
:1041E700FAA3E0F9121A24640770047F5F805890DD
:1041F7000004E064017016900001E0FBA3E0FAA35D
:10420700E0F9121A24640870047F61803A90000470
:10421700E064017016900001E0FBA3E0FAA3E0F967
:10422700121A24640970047FAF801C900004E064B4
:10423700017017900001E0FBA3E0FAA3E0F9121A5E
:104247002464B470057F5E0226A7900004E0FF6433
:10425700137038900001E0FBA3E0FAA3E0F99000A7
:1042670001121A3DB456247E0074FF2FF582EE34F6
:10427700FFF583121A3D64037011900001A3A3E0B8
:104287002402F9E43AFA7F5B024357900004E0FF07
:104297006406600302435A900001E0FBA3E0FAA31F
:1042A700E0F9121A246402600302435A90000112D3
:1042B7001A3D6457600302435AFE74FF2FF582EEDE
:1042C70034FFF583121A3D6403600302435A9000DA
:1042D70001A3A3900002121A3DFD7B017A00790524
:1042E70012A81E9000087420F0900001E0FBA3E0E4
:1042F700FAA3E0F9900003121A3DFD900001A3A371
:10430700900004121A3D900018F07B017A00790999
:104317001243979001A1E06401702112B212EFF4E9
:1043270060077FAA1226A780097B017A0079051208
:1043370080497B017A0079057F5C801412B212EF05
:10434700F460057FAA1226A77B017A0079057F5CB6
:1043570002491E900004E0FF640C7033900001E0F6
:10436700FBA3E0FAA3E0F9121A2464027021FE7499
:10437700FF2FF582EE34FFF583121A3D6403700FA9
:0F438700900001A3A3E02401F9E43AFA12839312
:014396002204
:0EAEB700900032EBF0A3EAF0A3E9F0A3EDF077
:10AEC500E4A3F0900035E0FFA3E0C39F5024900079
:10AED50032E0FBA3E0FAA3E0F9121A24FF12AB6FEC
:10AEE500900033E475F001121AB0900036E004F0DA
:02AEF50080D10A
:01AEF7002238
:0B804900900010EBF0A3EAF0A3E9F0B8
:108054009000317403F090001314F012AE329000CB
:1080640014EFF0A37453F09001A6E0900031601374
:10807400E0FF04F074132FF582E43400F583744DAB
:10808400F08011E0FF04F074132FF582E43400F55E
:10809400837443F09000317404F0900010E0FBA36B
:1080A400E0FAA3E0F9121A24FF6021900031E024E1
:1080B40013F582E43400F583EFF0900011E475F0D9
:1080C40001121AB0900031E004F080CE900031E04B
:1080D400FF04F074132FF582E43400F583743AF04E
:1080E400900031E02413F9E43400FA7B01125C7748
:1080F400900031E0FF241DF582E43400F583743AE6
:10810400F0741E2FF582E43400F5837403F07B01D0
:0B8114007A007913EF240CFD02AEB7D7
:08000300D29412B7DCC2942272
:05AF79009000B4EFF0B0
:10AF7E00E4A3F0A3F09000B4E0FFA2E713F030D703
:10AF8E0004D2958002C2951200039000B6E004F040
:10AF9E0070069000B5E004F0C39000B6E0940890FF
:09AFAE0000B5E06480948040CC01
:01AFB7002277
:0A99A200EBF0A3EAF0A3E9F07F8DDB
:0599AC009000B1EFF096
:1099B100D2967F037E0012B6C69000B1E0FF12AFCF
:1099C10079E49000B2F0A3F09000B2E0FCA3E0FDD6
:1099D100C39408EC64809480504F309516900268CF
:1099E100E04480F0ED9406EC648094805005E0FF43
:1099F100C313F0209520900268E0547FF0D39000CB
:109A0100B3E094069000B2E0648094805008900224
:109A110068E0FFC313F01200039000B3E004F0709C
:109A2100A79000B2E004F0809FC296900268E0FF28
:019A31002212
:10B43500900013EFF0A3EDF0D2967F037E0012B6D5
:10B44500C6900013E0FF12AF79900014E0FF900062
:08B4550013F012AF79C2962238
:10AEF800900011E475F001121AB0900011E475F099
:10AF080001121AB0900011E475F001121AB0900005
:10AF180010E0FBA3E0FAA3E0F9121A24FF90000165
:04AF2800121A3DFDBF
:0CAF2C00EF540FC454F0FFED540F4FFF22
:01AF380022F6
:106EE300E4FF121A24FEC394305003026FF5EED36D
:106EF30094394003026FF5900001121A3DFEC394CA
:106F0300305003026FF2EED394394003026FF290D4
:106F13000003121A3DFEC394305003026FEFEED309
:106F230094394003026FEF900004121A3DFEC3949C
:106F3300305003026FF7EED394394003026FF7909A
:106F43000008121A3DFEC394305003026FECEED3D7
:106F530094394003026FEC90000B121A3DFEC39468
:106F6300305003026FE9EED39439507A90000C123B
:106F73001A3DFEC39430406BEED3943950659000B4
:106F83000E121A3DFEC394304056EED3943950503E
:106F930090000F121A3DFEC394304041EED3943952
:106FA300503B900011121A3DFEC39430402CEED397
:106FB30094395026900012121A3DFEC394304017A4
:106FC300EED394395011900014121A3DFEC394303D
:106FD3004022EED39439227F01227F01227F0122B6
:106FE3007F01227F01227F01227F01227F01227FF5
:046FF30001227F01F7
:016FF7002277
:0B9B5200900010EBF0A3EAF0A3E9F094
:109B5D0012AF16AD077F8612B43512AEF8AD077F82
:109B6D008812B435900011E475F001121AB090000E
:109B7D0011E475F001121AB012AEF8AD077F8C1218
:109B8D00B43512AEF8AD077F8412B43512AEF8AD10
:109B9D00077F8212B43512AEF8AD077F8012B4354F
:109BAD00900011E475F001121AB0900011E475F0F7
:109BBD0001121AB0900011E475F001121AB0900064
:109BCD0010E0FBA3E0FAA3E0F9121A245407FD7F7D
:049BDD008A02B4350F
:10B60900AE07EEC4540F540FFE6012EF540FFFE45F
:0DB61900FDEDC39E5007740A2FFF0D80F455
:01B626002201
:10B03400121A7C90005EE475F001121AB090005D63
:0CB04400E0FBA3E0FAA3E0F9121A24FFDD
:10B05000E4FEFDFCECC39F500B0DED640A7002FD95
:10B060000E0C80F0EEC454F054F0FEED540F4EFF81
:01B0700022BD
:0B98800090005DEBF0A3EAF0A3E9F01C
:10988B0012B041EF54F0C4540F4430FE900060E02E
:10989B00FBA3E0FAA3E0F9EE121A6AEF540F44307F
:1098AB00FF900060E0FBA3E0FAA3E0F9900001EF6A
:1098BB0012B034EF54F0C4540F4430FE900060E00B
:1098CB00FBA3E0FAA3E0F9900002EE121A7CEF542E
:1098DB000F443090000312B034EF54F0C4540F44D3
:1098EB0030FE900060E0FBA3E0FAA3E0F9900004E7
:1098FB00EE121A7CEF540F4430900005121A7C9034
:06990B000006E4021A7CD4
:10A81E00E4FFFE900014EDF0900014E0C394647415
:10A82E008094804007E0249CF00F80ECEF443012BF
:10A83E001A6A740129F9E43AFA900014E0C3940AF2
:10A84E00748094804007E024F6F00E80ECEE4430E5
:10A85E00121A6A740129F9E43AFA900014E04430AD
:0EA86E00121A6A740129F9E43AFAE4021A6A2D
:0E439700900014EBF0A3EAF0A3E9F0A3EDF020
:1043A500E4900019F0A3F090001CF0A3F0A3F0A393
:1043B500F090001BEDF054F0F0E0FFC4540FF090C6
:1043C5000024121B59404000007F007E007D807C48
:1043D50041125DE5C004C005C006C00790001BE0A2
:1043E500FCE4121536D003D002D001D000121426F9
:1043F500C004C005C006C007900019E0FCA3E0FD9D
:10440500E4121531D003D002D001D00012133512B9
:10441500156A900019EEF0A3EFF0900017E09000F8
:104425001BF0540FF0900024121B59400000007F30
:10443500007E007D807C41125DE5C004C005C0069C
:10444500C00790001BE0FCE4121536D003D002D063
:1044550001D000121426C004C005C006C007900094
:1044650019E0FCA3E0FDE4121531D003D002D00120
:10447500D00012133512156A900019EEF0A3EFF073
:10448500900018E090001BF054F0F0E0FFC4540FCA
:10449500F0900024121B593F8000007F007E007DB4
:1044A500807C41125DE5C004C005C006C0079000D0
:1044B5001BE0FCE4121536D003D002D001D0001267
:1044C5001426C004C005C006C007900019E0FCA36F
:1044D500E0FDE4121531D003D002D001D000121353
:1044E5003512156A900019EEF0A3EFF0900018E070
:1044F50090001BF0540FF0900024121B590000008F
:10450500007F007E007D807C41125DE5C004C00512
:10451500C006C00790001BE0FCE4121536D003D09E
:1045250002D001D000121426C004C005C006C00781
:10453500900019E0FCA3E0FDE4121531D003D00290
:10454500D001D00012133512156A900019EEF0A3B0
:10455500EFF0C3EF9410EE9427401074F02FFF7422
:10456500D83EFE90001CE004F080E790001CE0447B
:1045750030FD900014E0FBA3E0FAA3E0F9ED121A78
:104585006A900015E475F001121AB0C3EF94E8EED5
:104595009403401074182FFF74FC3EFE90001DE03C
:1045A50004F080E790001DE04430FD900014E0FB2E
:1045B500A3E0FAA3E0F9ED121A6A900015E475F08C
:1045C50001121AB0C3EF9464EE94004010749C2F4E
:1045D500FF74FF3EFE90001EE004F080E790001E91
:1045E500E04430FD900014E0FBA3E0FAA3E0F9ED10
:1045F500121A6A900015E475F001121AB0C3EF940F
:104605000AEE9400401074F62FFF74FF3EFE9000F2
:104615001FE004F080E790001FE04430FD90001497
:10462500E0FBA3E0FAA3E0F9ED121A6A900015E4A5
:1046350075F001121AB0EF4430FF900014E0FBA3AF
:10464500E0FAA3E0F9EF121A6A900015E475F0019B
:10465500121AB0900014E0FBA3E0FAA3E0F9E4021B
:024665001A6ACF
:035C770090005149
:105C7A001299A2EF54F0C4540F4430FE900051E040
:105C8A00FBA3E0FAA3E0F9EE121A6A900052E47557
:105C9A00F001121AB0EF540F4430FF900051E0FBAC
:105CAA00A3E0FAA3E0F9EF121A6A900052E475F041
:105CBA0001121AB07F891299ACEF54F0C4540F4400
:105CCA0030FE900051E0FBA3E0FAA3E0F9EE121ACD
:105CDA006A900052E475F001121AB0EF540F443082
:105CEA00FF900051E0FBA3E0FAA3E0F9EF121A6A71
:105CFA00900052E475F001121AB07F871299ACEF46
:105D0A0054F0C4540F4430FE900051E0FBA3E0FA73
:105D1A00A3E0F9EE121A6A900052E475F001121A21
:105D2A00B0EF540F4430FF900051E0FBA3E0FAA318
:105D3A00E0F9EF121A6A900052E475F001121AB0F3
:105D4A007F851299ACEF54F0C4540F4430FE900092
:105D5A0051E0FBA3E0FAA3E0F9EE121A6A900052AE
:105D6A00E475F001121AB0EF540F4430FF9000515D
:105D7A00E0FBA3E0FAA3E0F9EF121A6A900052E4FA
:105D8A0075F001121AB07F831299ACEF54F0C45423
:105D9A000F4430FE900051E0FBA3E0FAA3E0F9EED5
:105DAA00121A6A900052E475F001121AB0EF540FF9
:105DBA004430FF900051E0FBA3E0FAA3E0F9EF12B0
:105DCA001A6A900052E475F001121AB0900051E07C
:0B5DDA00FBA3E0FAA3E0F9E4021A6A60
:10925A009000AE1299A212B6099000AEE0FBA3E00C
:10926A00FAA3E0F9EF121A6A9000AFE475F001125E
:10927A001AB07F891299AC12B6099000AEE0FBA32E
:10928A00E0FAA3E0F9EF121A6A9000AFE475F00170
:10929A00121AB07F871299AC12B6099000AEE0FBA1
:1092AA00A3E0FAA3E0F9EF121A6A9000AFE475F0AE
:1092BA0001121AB07F851299AC12B6099000AEE07D
:1092CA00FBA3E0FAA3E0F9EF121A6A9000AFE47583
:1092DA00F001121AB07F831299AC12B6099000AE4F
:1092EA00E0FBA3E0FAA3E0F9EF121A6A9000AFE4F8
:0692FA0075F001021AB03C
:1086BD0090001D1299A290001DE0FBA3E0FAA3E02B
:1086CD00F9EF121A6A90001EE475F001121AB07FCC
:1086DD00891299AC90001DE0FBA3E0FAA3E0F9EF3D
:1086ED00121A6A90001EE475F001121AB07F8712FB
:1086FD0099AC90001DE0FBA3E0FAA3E0F9EF121A8C
:10870D006A90001EE475F001121AB07F851299ACC3
:10871D0090001DE0FBA3E0FAA3E0F9EF121A6A90B6
:10872D00001EE475F001121AB07F831299AC90000F
:10873D001DE0FBA3E0FAA3E0F9EF121A6A90001E08
:10874D00E475F001121AB07F811299AC90001DE012
:10875D00FBA3E0FAA3E0F9EF121A6A90001EE4758C
:10876D00F001121AB090001DE0FBA3E0FAA3E0F9AE
:04877D00E4021A6A8E
:07B78900C294C296D2952282
:0B85F40090009CEBF0A3EAF0A3E9F07C
:1085FF007B017A0079A712925A9000A7E0FF7E00C4
:10860F007C017D6D121A9EAC06AD07A3E075F01EBE
:10861F00A42DFFEC35F0FEA3E07C002FFFEC3EFE17
:10862F00E4FD90009F121B4D90009CE0FBA3E0FA2D
:10863F00A3E0F9900001121A3DFF3395E0FE7C0094
:10864F007D1E121A9EC006C007121A24FF3395E032
:10865F00FE0C7D6D121A9ED0E02FFFD0E03EFE90F3
:10866F000002121A3DFD3395E0FCEF2DFFEE3CFEAC
:10867F003395E0FDFC9000A3121B4D90009FE0FC92
:10868F00A3E0FDA3E0FEA3E0FFA3E0F8A3E0F9A3BE
:10869F00E0FAA3E0FBC3121AEA40089000AD7401A0
:0D86AF00F08005E49000ADF09000ADE0FF1C
:0186BC00229B
:10B6C600E4FDFCC3ED9FEC9E50070DBD00010C8010
:01B6D600F281
:01B6D7002250
:04B62700AB07AA06BD
:10B62B00900000C3E5829BE5839A500A7F967E00CB
:06B63B0012B6C6A380ED6B
:01B6410022E6
:08B1D800900008EEF0A3EFF077
:10B1E000E4A3F0A3F0900008E0FEA3E0FFC390000A
:10B1F0000BE09F90000AE09E50177F0A7E0012B677
:10B200002790000BE004F070DC90000AE004F0806E
:01B21000D469
:01B21100221A
:01B7DC00224A
:10B127004572726F72206465207469636B65740081
:10B137000A0D004E756D65726F2064652074696332
:10B147006B65743A004E6F206465207469636B65A4
:0BB1570074204845583A00256C750034
:03B58B0012B5698D
:10B58E00D20ED293D292E4FFFE209205C20EC29347
:0CB59E00220FBF00010EBE04F0BF4CEDF8
:01B5AA00227E
:03B5AB0012B5696D
:10B5AE00D293D292D20EE4FFFE209205C20EC29327
:0CB5BE00220FBF00010EBE02F0BF8AED9C
:01B5CA00225E
:06B7C100D29300C29322A6
:10B56900E4FEEEC39408748094805015EF25E0FF43
:10B5790030D704D2928002C292D29312B7C10E8000
:01B58900E1E0
:01B58A00229E
:08B6D800ECFD7C00C293C2925C
:0AB6E000D292D29300C292C29322CC
:09B77700C293C292D293D2922235
:10AAD300E4FBEBFDC39408748094805038C2933038
:10AAE300921690025FE04401F0ED94067480948026
:10AAF3005006E025E0F0D29320921790025FE054D5
:10AB0300FEF0EBD39406748094805006E025E0F0C9
:0CAB1300D2930B80BDC29390025FE0FF64
:01AB1F002213
:10A9900090005DE0FCA3E0FDA3E0FBA3E0FAA3E0F0
:07A9A000F9121A24FB7FA845
:02A9A700AA07FD
:10A9A900AF05A90712B6D8AF0212B58BAF0512B51C
:10A9B9008BAF0112B56912B58EAF0312B56912B525
:10A9C9008E12B7777F0D7E0012B627D293D2927F6F
:0DA9D900627E0012B6C67F627E0002B6C626
:04B071007C027FA836
:02B07500AB0727
:10B07700AF05AA0712B6D8AF0312B5ABAF0512B525
:10B08700ABAF0212B56912B5AE12B6E0EB04FF1210
:10B09700B56912B58EC29312AAD312B777D293D2DB
:06B0A7009290025FE0FF41
:01B0AD002280
:0B839300900010EBF0A3EAF0A3E9F06B
:10839E00E4900014F0900010E0FBA3E0FAA3E0F9E3
:1083AE0090000AE4121A7CE4900013F0900013E09F
:1083BE00FFD39409748094805057900010E0FBA373
:1083CE00E0FAA3E0F98F82758300121A3DFF7E005A
:1083DE00C3943074809480400AD3EF94397480949F
:1083EE008040269000147401F07BFF7AB179271239
:1083FE00ABC2900010E0FBA3E0FAA3E0F912ABC20F
:10840E007BFF7AB1793712ABC2900013E004F08093
:10841E009B900014E0700E900010E0FBA3E0FAA316
:10842E00E0F9027AFAE4FBFD7C027FA812A9A7E428
:10843E00FB7D017C027FA812A9A7E4FB7402FDFC60
:10844E007FA812A9A7E4FB7D037C027FA812A9A72F
:01845E0022FB
:0B7AFA00900015EBF0A3EAF0A3E9F008
:107B05007F007E007D007C007BFF7AB1793A12AB65
:107B1500C2900015E0FBA3E0FAA3E0F912ABC27B2B
:107B2500FF7AB1793712ABC2900015E0FBA3E0FAFA
:107B3500A3E0F912710790001C121B4D7BFF7AB16F
:107B4500794C12ABC290001CE0FCA3E0FDA3E0FE63
:107B5500A3E0FF7818121AFB900018EFF012AC485A
:107B650090001CE0FCA3E0FDA3E0FEA3E0FF78107D
:107B7500121AFB900019EFF012AC4890001CE0FCC3
:107B8500A3E0FDA3E0FEA3E0FF7808121AFB900036
:107B95001AEFF012AC4890001CA3A3A3E0FF9000DD
:107BA5001BF012AC487BFF7AB1793712ABC290005B
:107BB50018E0FB7D007C027FA812A9A7900019E0C0
:107BC500FB7D017C027FA812A9A790001AE0FB7437
:107BD50002FDFC7FA812A9A790001BE0FB7D037C9A
:067BE500027FA802A9A71F
:10AB200012852A90007A74FFF0A374B1F0A3745ECA
:10AB3000F0A3121B4D7B017A00791D1238DF7B01D7
:10AB40007A00791D12000E741D2FF582E43400F591
:10AB500083E4F07B017A00791D12ABC27BFF7AB1EE
:0BAB6000793712ABC27B017A00791D2F
:01AB6B0022C7
:10852A0090002B121B59000000007D0012B071A9A7
:10853A00077D0112B071900028EFF07402FDFC7FF4
:10854A00A812B075900029EFF07D0312B071900067
:10855A002AEFF0AF01A3E0F8A3E0F9A3E0FAA3E061
:10856A004FFFEAFEE9FDE8FC7808121B0E90002B8B
:10857A00121B4D900028E0FF90002BE0F8A3E0F9D1
:10858A00A3E0FAA3E04FFFEAFEE9FDE8FC7808124F
:10859A001B0E90002B121B4D900029E0FF90002B20
:1085AA00E0F8A3E0F9A3E0FAA3E04FFFEAFEE9FD51
:1085BA00E8FC7808121B0E90002B121B4D90002A23
:1085CA00E0FFA3E0F8A3E0F9A3E0FAA3E04FFFEA93
:1085DA00FEE9FDE8FC90002B121B4D90002BE0FCFD
:0985EA00A3E0FDA3E0FEA3E0FF05
:0185F3002265
:10B2B60012852AEF2401FFE43EFEE43DFDE43CFC5A
:10B2C60090007A74FFF0A374B1F0A3745EF0A31239
:10B2D6001B4D7B017A0079061238DF7B017A0079F3
:04B2E60006027AFAE8
:10A7560090009CEEF0A3EFF0A3EBF0A3EAF0A3E9E0
:01A76600F002
:10A7670090009CE0FCA3E0FD7FA812B07590009ECE
:10A77700E0FBA3E0FAA3E0F9EF121A6A90009EE06B
:10A78700FBA3E0FAA3E0F9121A24FF90009DE0046E
:10A79700F0700690009CE004F090009FE475F001D3
:10A7A700121AB0EF70BA90009EE0FBA3E0FAA3E0A4
:05A7B700F9E4021A6A3A
:10A60D0090005DEEF0A3EFF0A3EBF0A3EAF0A3E969
:10A61D00F090005FE0FBA3E0FAA3E0F9121A2460CA
:10A62D0024B40D04E4121A6A12A99090005EE0049D
:10A63D00F0700690005DE004F0900060E475F001AC
:10A64D00121AB080CC12A99090005EE004F0700652
:10A65D0090005DE004F0900060E475F001121AB016
:0FA66D0090005DE0FCA3E0FDE4FB7FA802A9A73D
:108A8B0050756C7361646F722041637469766F0DFE
:108A9B000A0053656E736F726573204175746F2096
:108AAB00792073656E736F72312061637469766FB1
:108ABB00732E0A0D0053656E736F722061637469B8
:108ACB00766F2073656E736F72312E0A0D004465DD
:108ADB007465637461646F2E2053656E736F7220BF
:108AEB004175746F2E0A0D0053656E736F7265734B
:108AFB00206E6F2064657465637461646F732E0AF6
:108B0B000D005665686963756C6F204573706572EF
:108B1B00616E646F2053616C69722E0A0D0056658D
:108B2B00686963756C6F2053616C69656E646F2E39
:0F8B3B0020556E206D6F6D656E746F2E0A0D00E4
:06814E00C10F41026900AF
:07B79000C2B5C2B6C2B72228
:07B79700C2B5D2B6C2B72211
:07B79E00D2B5D2B6C2B722FA
:07B7A500C2B5C2B6D2B72203
:07B7AC00D2B5C2B6D2B722EC
:07B7B300C2B5D2B6D2B722E5
:07B7BA00D2B5D2B6D2B722CE
:10B6EA0012B79E20910B7BFF7A8A798B12ABC2D25A
:02B6FA000F221D
:10B5CB00E4FF7DF47C01309115EFFB3395E04B707C
:0EB5DB000DED1D70011CED4C70EC7F0180E841
:01B5E900223F
:10AE32009000327401F012B7B3309103E004F012C3
:10AE4200B7BA309107900032E02402F0900032E06D
:10AE5200640170177D12FC7FA812B075EF600CF4CC
:10AE6200900032700404F08002EFF0900032E0248F
:02AE720030FFAF
:01AE740022BB
:10B688007D127C007FA812B075EF6005F470027F10
:05B6980001EF2430FF6A
:01B69D00228A
:10A9350012B7AC20912312B7977BFF20910D7A8A2D
:10A94500799D12ABC2E49001A680227A8A79C01261
:10A95500ABC29001A67401801412B7977BFF2091BA
:10A96500187A8A79D912ABC29001A67401F09000C9
:10A975001174FFF012B6EA800C7A8A79F312ABC231
:0AA98500E4900011F0900011E0FFD3
:01A98F0022A5
:10B2120012B7A530912012B5CBEF3395E0FEEF6463
:10B22200014E700A12A935900010EFF080147BFFD6
:10B232007A8B790D80067BFF7A8B792912ABC27FDC
:07B242000022900010E0FF64
:01B2490022E2
:10A1B700E4900001F012B790209169900269E07075
:10A1C70016900001E0701030B35A04F012B3DF901C
:10A1D70002697401F0804D900269E0640170169085
:10A1E7000001E0701030B33C04F0126B94900269E8
:10A1F7007402F0802F900269E064027027900001DA
:10A20700E0702130B31E04F07D0C7C007FA812B0F3
:10A2170075EF640170047F5380027F4E129E12E433
:0FA22700900269F012B790309105E4900001F0B9
:01A236002205
:102D9B00494E4752455345205441524A45544120D0
:102DAB00005441524A4554412053494E20494E4705
:102DBB005245534F20005441524A455441204E4FE7
:102DCB00205245474953545241205041474F200010
:102DDB00455843454445205449454D504F204445A3
:102DEB002047524143494120004D454E5355414CDC
:102DFB00204E4F204553544120454E2050415251B7
:102E0B005545414445524F2000444952494A41538C
:102E1B004520412043414A4120004752414349410B
:102E2B00532E2E2E2000475241434941532E2E2E16
:102E3B00004D454E5355414C494441442056454E57
:102E4B004349444120004D454E5355414C49444163
:102E5B00442045584345444520484F524152494F21
:102E6B002041434552515545534520412043414A4A
:102E7B004120004E4F204553204D454E5355414C5C
:102E8B0049444144204E49205052455041474F0040
:102E9B004D454E5355414C204E4F205041474F20EE
:102EAB004C4F434143494F4E20484F590053494ED5
:102EBB002050524553454E434941205645484943BE
:102ECB00554C415220005441524A455441204E4FDB
:102EDB002045532044454C205041525155454144C7
:102EEB0045524F20004249454E56454E49444F2EC0
:102EFB002050554C534520454C20424F544F4E20AB
:102F0B00005441524A4554412053494E20464F529A
:102F1B004D41544F20004655455241204445204CCD
:102F2B00494E45412000554E204D4F4D454E544F77
:102F3B0020504F52204641564F5220004E4F2045B5
:102F4B0053205441524A455441204D454E5355410F
:102F5B004C20005441524A45544120494E56414C55
:102F6B0049444120005441524A4554412053494E53
:102F7B002053414C49444120005245474953545238
:102F8B004120494E475245534F20454E2050415208
:102F9B00515545414445524F20004D454E535541E7
:102FAB004C20465545524120444520484F524152F2
:102FBB00494F2000484F524152494F204E4F20500D
:102FCB00524F4752414D41444F200053494E2054DC
:102FDB0041524A4554415320004249454E56454EB5
:102FEB0049444F20004E4956454C2042414A4F2000
:102FFB004445205441524A455441532000613B38CB
:10300B00353B494E4752455345205441524A45544E
:10301B00410A0000613B38363B5441524A4554410A
:10302B002053494E20494E475245534F0A000061E9
:10303B003B38373B5441524A455441204E4F205266
:10304B0045474953545241205041474F0A000061B4
:10305B003B38383B455843454445205449454D5032
:10306B004F204445204752414349410A0000613BF0
:10307B0038393B4D454E5355414C204E4F2045530F
:10308B00544120454E2050415251554541444552E3
:10309B004F0A0000613B39303B444952494A415386
:1030AB004520412043414A410A0000613B39313BF5
:1030BB00475241434941532E2E2E200A0000613BBB
:1030CB0039333B4D454E5355414C204E4F204553C4
:1030DB00544120454E205041525155454144455293
:1030EB004F0A0000613B39343B4D454E5355414C23
:1030FB00494441442056454E434944410A0000612E
:10310B003B39353B4D454E5355414C494441442089
:10311B0045584345444520484F524152494F204161
:10312B00434552515545534520412043414A410A9D
:10313B000000613B39363B4E4F204553204D454EE9
:10314B005355414C49444144204E4920505245501F
:10315B0041474F0A0000613B39373B4D454E5355B4
:10316B00414C204E4F205041474F204C4F43414341
:10317B00494F4E20484F590A0000613B39383B53A9
:10318B00494E2050524553454E43494120564548E0
:10319B004943554C41520A0000613B39383B54417D
:1031AB00524A455441204E4F2045532044454C2014
:1031BB00504152515545414445524F0A0000613B25
:1031CB0030303B4249454E56454E49444F2E2050D8
:1031DB00554C534520454C20424F544F4E0A00004E
:1031EB00613B39383B5441524A4554412053494E77
:1031FB0020464F524D41544F0A0000613B39383B3A
:10320B004655455241204445204C494E45410A0004
:10321B0000613B39383B554E204D4F4D454E544F79
:10322B0020504F52204641564F520A0000613B300E
:10323B00383B4E4F204553205441524A4554412070
:10324B004D454E5355414C0A0000613B39383B54B8
:10325B0041524A45544120494E56414C4944410A3A
:10326B000000613B39383B5441524A45544120538D
:10327B00494E2053414C4944410A0000613B3938C7
:10328B003B524547495354524120494E47524553AF
:10329B004F20454E20504152515545414445524FC8
:1032AB000A0000613B30373BA1204D454E53554141
:1032BB004C494441442056454E4349444120210A40
:1032CB000000613B30363B4D454E5355414C20463B
:1032DB005545524120444520484F524152494F0ACF
:1032EB000000613B39383B53494E205441524A450B
:1032FB005441530A0000613B39383B4E4956454C0B
:10330B002042414A4F204445205441524A455441A2
:10331B00530A0000613B39383B484F524152494FE9
:10332B00204E4F2050524F4752414D41444F0A00BF
:10333B0000613B30313B5245544952452053552097
:10334B005441524A4554410A0000613B30333B42E1
:10335B0049454E56454E49444F0A0000574945478B
:10336B00414E442000475241434941532000613BA9
:10337B0039323B57494547414E4420000A00006112
:10338B003B39313B475241434941532000613B306C
:10339B00333B4249454E56454E49444F2000205041
:1033AB004C41434100613B30373B20A1204D454E02
:1033BB005355414C494441442056454E43494441A1
:1033CB0020212056454E43494F20323000AA801809
:1033DB00010200AA8018010200AA80280720000021
:0633EB00000000140000C8
:0526A70090002AEFF095
:1026AC00782B7C007D017BFF7A3379D87E007F0606
:1026BC001219FE7E027F067D287C0012B0EB7F286B
:1026CC007E001282C2900032EEF0A3EFF0C287902F
:1026DC0001A3E06003022A867B017A00792BFD12AC
:1026EC00ADF690002AE0121BAA2A6101274A552751
:1026FC006A56278A5727AA5827CA5927EA5A280AF6
:10270C005B27CA5D282A5E284A5F286A60288A618E
:10271C0028AAAA28CAAB28EAAC290AAD292AAE29CC
:10272C004AAF296AB0298AB129AAB229CAB329EABF
:10273C00B52A0AB62A23FA2A42FE00002A837BFF16
:10274C007A2D799B12000E900031EFF0E4FDFF1210
:10275C00B4B612B4AD7BFF7A2D799B022A7E7BFF37
:10276C007A2D79AC12000E900031EFF0E4FDFF12DF
:10277C00B4B612B4AD7BFF7A2D79AC022A7E7BFF06
:10278C007A2D79C112000E900031EFF0E4FDFF12AA
:10279C00B4B612B4AD7BFF7A2D79C1022A7E7BFFD1
:1027AC007A2D79DB12000E900031EFF0E4FDFF1270
:1027BC00B4B612B4AD7BFF7A2D79DB022A7E7BFF97
:1027CC007A2D79F412000E900031EFF0E4FDFF1237
:1027DC00B4B612B4AD7BFF7A2D79F4022A7E7BFF5E
:1027EC007A2E791412000E900031EFF0E4FDFF12F6
:1027FC00B4B612B4AD7BFF7A2E7914022A7E7BFF1D
:10280C007A2E792512000E900031EFF0E4FDFF12C4
:10281C00B4B612B4AD7BFF7A2E7931022A7E7BFFDF
:10282C007A2E793C12000E900031EFF0E4FDFF128D
:10283C00B4B612B4AD7BFF7A2E793C022A7E7BFFB4
:10284C007A2E795112000E900031EFF0E4FDFF1258
:10285C00B4B612B4AD7BFF7A2E7951022A7E7BFF7F
:10286C007A2E797E12000E900031EFF0E4FDFF120B
:10287C00B4B612B4AD7BFF7A2E797E022A7E7BFF32
:10288C007A2E799B12000E900031EFF0E4FDFF12CE
:10289C00B4B612B4AD7BFF7A2E799B022A7E7BFFF5
:1028AC007A2E79B812000E900031EFF0E4FDFF1291
:1028BC00B4B612B4AD7BFF7A2E79B8022A7E7BFFB8
:1028CC007A2E79D112000E900031EFF0E4FDFF1258
:1028DC00B4B612B4AD7BFF7A2E79D1022A7E7BFF7F
:1028EC007A2E79F012000E900031EFF0E4FDFF1219
:1028FC00B4B612B4AD7BFF7A2E79F0022A7E7BFF40
:10290C007A2F790C12000E900031EFF0E4FDFF12DB
:10291C00B4B612B4AD7BFF7A2F790C022A7E7BFF02
:10292C007A2F792112000E900031EFF0E4FDFF12A6
:10293C00B4B612B4AD7BFF7A2F7921022A7E7BFFCD
:10294C007A2F793112000E900031EFF0E4FDFF1276
:10295C00B4B612B4AD7BFF7A2F7931022A7E7BFF9D
:10296C007A2F794712000E900031EFF0E4FDFF1240
:10297C00B4B612B4AD7BFF7A2F7947022A7E7BFF67
:10298C007A2F795E12000E900031EFF0E4FDFF1209
:10299C00B4B612B4AD7BFF7A2F795E022A7E7BFF30
:1029AC007A2F797012000E900031EFF0E4FDFF12D7
:1029BC00B4B612B4AD7BFF7A2F7970022A7E7BFFFE
:1029CC007A2F798412000E900031EFF0E4FDFF12A3
:1029DC00B4B612B4AD7BFF7A2F7984022A7E7BFFCA
:1029EC007A2F79A512000E900031EFF0E4FDFF1262
:1029FC00B4B612B4AD7BFF7A2F79A5022A7E7BFF89
:102A0C007A2F79BF12000E900031EFF012B4B17B27
:102A1C00FF7A2F79BF805B7BFF7A2F79D612000E5D
:102A2C00900031EFF0E4FDFF12B4B612B4AD7BFFB1
:102A3C007A2F79D6803C7BFF7A2F79E412000E90A6
:102A4C000031EFF0E4FDFF12B4B612B4AD7BFF7AA7
:102A5C002F79E4801D7BFF7A2F79F012000E900005
:102A6C0031EFF0E4FDFF12B4B612B4AD7BFF7A2F58
:102A7C0079F07D0112ADF6D28722C28790002AE050
:102A8C00121BAA2D27012AEA552B01562B18572B5E
:102A9C002F582B46592B5D5A2B745B2B8B5D2BA21D
:102AAC005E2BB95F2BD0602BE7612D53A12BFEAAB7
:102ABC002C15AB2C2CAC2C43AD2C5AAE2C71AF2C52
:102ACC0088B02C9FB12CB6B22CCDB32CE4B42CFB1B
:102ADC00B52D3DB62D11FA2D69FE00002D86900006
:102AEC0032E0FEA3E0AA06F8AC027D017BFF7A304F
:102AFC007908022D7D900032E0FEA3E0AA06F8AC26
:102B0C00027D017BFF7A30791F022D7D900032E02F
:102B1C00FEA3E0AA06F8AC027D017BFF7A30793A7D
:102B2C00022D7D900032E0FEA3E0AA06F8AC027DF7
:102B3C00017BFF7A30795A022D7D900032E0FEA3A2
:102B4C00E0AA06F8AC027D017BFF7A307979022D80
:102B5C007D900032E0FEA3E0AA06F8AC027D017B7A
:102B6C00FF7A30799F022D7D900032E0FEA3E0AA1F
:102B7C0006F8AC027D017BFF7A3079B6022D7D9090
:102B8C000032E0FEA3E0AA06F8AC027D017BFF7ADE
:102B9C003079C9022D7D900032E0FEA3E0AA06F840
:102BAC00AC027D017BFF7A3079EF022D7D900032F3
:102BBC00E0FEA3E0AA06F8AC027D017BFF7A317936
:102BCC000A022D7D900032E0FEA3E0AA06F8AC02CA
:102BDC007D017BFF7A31793D022D7D900032E0FE44
:102BEC00A3E0AA06F8AC027D017BFF7A3179610281
:102BFC002D7D900032E0FEA3E0AA06F8AC027D0128
:102C0C007BFF7A317985022D7D900032E0FEA3E0C6
:102C1C00AA06F8AC027D017BFF7A3179A4022D7DE6
:102C2C00900032E0FEA3E0AA06F8AC027D017BFF27
:102C3C007A3179C9022D7D900032E0FEA3E0AA061C
:102C4C00F8AC027D017BFF7A3179EB022D7D90008F
:102C5C0032E0FEA3E0AA06F8AC027D017BFF7A32DB
:102C6C007906022D7D900032E0FEA3E0AA06F8ACB6
:102C7C00027D017BFF7A32791C022D7D900032E0BF
:102C8C00FEA3E0AA06F8AC027D017BFF7A3279380C
:102C9C00022D7D900032E0FEA3E0AA06F8AC027D86
:102CAC00017BFF7A327955022D7D900032E0FEA334
:102CBC00E0AA06F8AC027D017BFF7A32796D022D19
:102CCC007D900032E0FEA3E0AA06F8AC027D017B09
:102CDC00FF7A327987022D7D900032E0FEA3E0AAC4
:102CEC0006F8AC027D017BFF7A3279AE022D7D9025
:102CFC000032E0FEA3E0AA06F8AC027D017BFF7A6D
:102D0C003279CD806C900032E0FEA3E0AA06F8ACDC
:102D1C00027D017BFF7A3279ED8056900032E0FE25
:102D2C00A3E0AA06F8AC027D017BFF7A337901801F
:102D3C0040900032E0FEA3E0AA06F8AC027D017BD5
:102D4C00FF7A33791F802A900032E0FEA3E0AA06B6
:102D5C00F8AC027D017BFF7A33793C801490003211
:102D6C00E0FEA3E0AA06F8AC027D017BFF7A337982
:102D7C0055121E37900032129D8F900032E0FEA348
:0E2D8C00E0FF126326E4900032F0A3F0D2873D
:012D9A002216
:0E491E00900010EFF0A3EBF0A3EAF0A3E9F095
:10492C0078147C007D017BFF7A3379DE7E007F0674
:10493C001219FE7E027F067D287C0012B0EB7F28C8
:10494C007E001282C290001BEEF0A3EFF0C28790A3
:10495C0001A3E060030249FC900010E024A5604034
:10496C001460030249F912ADEE7BFF7A33796712BA
:10497C00000E90001AEFF0900011E0FBA3E0FAA3F8
:10498C00E0F912000E90001AE02F04F0E4FDFF1283
:10499C00B4B690001A12B4B07BFF7A3379678038C2
:1049AC0012ADEE7BFF7A33797012000E90001AEF85
:1049BC00F0900011E0FBA3E0FAA3E0F912000E90D6
:1049CC00001AE02F04F0E4FDFF12B4B690001A12A6
:1049DC00B4B07BFF7A3379707D0112ADF690001183
:1049EC00E0FBA3E0FAA3E0F97D0112ADF6D2872239
:1049FC00C287900010E024A5602C24A77003024B02
:104A0C002B24B6606824A26003024BBB90001BE011
:104A1C00FEA3E0AA06F8AC027D017BFF7A3379791C
:104A2C00121E37024B6F90001BE0FEA3E0AA06F8A3
:104A3C00AC027D017BFF7A33798A121E379000110C
:104A4C00E0FBA3E0FAA3E0F912000E90001AEFF0DD
:104A5C0024FFFFE434FFFE900011E0FBA3E0FAA377
:104A6C00E0F98F828E83E4121A7C024B6F90001B4C
:104A7C00E0FEA3E0AA06F8AC027D017BFF7A337955
:104A8C0098129D8920101712AB20C00290001BE0D9
:104A9C00FEA3E0AA06F8AC027D01D00280199000BA
:104AAC001BE0FEA3E0AA06F8AC027D01900011E029
:104ABC00FBA3E0FAA3E0F9129D8990001BE0FEA392
:104ACC00E0AA06F8AC027D017BFF300B487A337903
:104ADC00A9121E3790001BE0FEA3E0AA06F97B0189
:104AEC00C0031B900049EBF0A37400F0A37411F009
:104AFC00D00312A6EB90001BE0FEA3E0AA06F97B04
:104B0C000190004974FFF0A37433F0A37487F01282
:104B1C00A6EB024BB87A337987121E37024BB8904A
:104B2C00001BE0FEA3E0AA06F8AC027D017BFF7A35
:104B3C003379B0121E37900011E0FBA3E0FAA3E02A
:104B4C00F912000E90001AEFF024FFFFE434FFFE80
:104B5C00900011E0FBA3E0FAA3E0F98F828E83E4CE
:104B6C00121A7C90001BE0FEA3E0AA06F97B01C0A0
:104B7C0002C001900011E0F9A3E0FAA3E090004913
:104B8C00C9F0A3EAF0A3E9F0D001D00212A6EB9091
:104B9C00001BE0FEA3E0AA06F97B0190004974FF1C
:104BAC00F0A37433F0A37487F012A6EB129D8C90D3
:104BBC00001BE0FEA3E0FF126326E490001BF0A3B1
:034BCC00F0D2879D
:014BCF0022C3
:09B4AD00900031E025E0FFE4FD10
:05B4B600900039EDF0EB
:10B4BB0012AFB890003AEFF0900039E0600AE4FF69
:08B4CB0012AFB890003AEFF057
:01B4D3002256
:08ADEE007B017A007914E4FDF9
:0EADF600900034EBF0A3EAF0A3E9F0A3EDF037
:10AE0400E4A3F0900034E0FBA3E0FAA3E0F990009F
:10AE140038E0F582758300121A3DFF601090003708
:0DAE2400E0FD12B4B6900038E004F080D6D6
:01AE310022FE
:0EAD1C0090001DEBF0A3EAF0A3E9F0A3EDF028
:10AD2A00E4900022F0900020E0FF900022E0FEC3B1
:10AD3A009F502490001DE0FBA3E0FAA3E0F98E8265
:10AD4A00758300121A3DFF900021E0FD12B4B690FF
:07AD5A000022E004F080CEAE
:01AD610022CF
:0F9D8900121E3790001BE0FEA3E0AA06F97B0133
:0B9D9800900034EBF0A3EAF0A3E9F028
:109DA30012000E900038EFF0E4900037F090003886
:109DB300E0FF900037E0C39F503DE4900039F090FE
:109DC3000039E0C39464748094805005E004F0800B
:109DD300EE900034E0FBA3E0FAA3E0F9A3E0F58200
:109DE300758300121A3DFF12AFB8900039EFF0905F
:109DF3000037E004F080B6E4900039F0900039E0D9
:0E9E0300C39464748094805005E004F080EEF7
:019E1100222E
:10AA380078107C007D017BFF7A3379E47E007F0DFE
:10AA48001219FE9001A3E07022C2877B017A007977
:10AA5800151286BDC29C7B017A007910E490002112
:10AA6800F07D0D12AD1CD29CD28722C287E49000E3
:0DAA780010F07B017A0079101286BDD287A4
:01AA850022AE
:10002600402321246046625E262A003A5B3C253F37
:1000360058545D3D29000D0A0A25733E20002563AC
:10004600002564000D0A0A2041435455414C2049BD
:10005600445F434C49454E54453D25730D0A0A00FD
:100066000D0A0A20444947495445205355204E5508
:1000760045564F2049445F434C49454E54453D0043
:100086000D0A0A204441544F204D4F4449464943E6
:1000960041444F2049445F434C49454E54453D2514
:1000A600730D0A0A000D0A0A2041435455414C209B
:1000B600434F445F5041524B3D25730D0A0A000DD4
:1000C6000A0A20444947495445205355204E554570
:1000D600564F20434F445F5041524B3D000D0A0A94
:1000E600204441544F204D4F444946494341444FD3
:1000F60020434F445F5041524B3D25730D0A0A0081
:100106000D0A0A2041435455414C205449454D504F
:100116004F5F4752414349413D25730D0A0A000D81
:100126000A0A20444947495445205355204E55450F
:10013600564F205449454D504F5F47524143494120
:100146003D000D0A0A204441544F204D4F44494674
:10015600494341444F205449454D504F5F47524112
:100166004349413D25730D0A0A000D0A0A20414301
:100176005455414C2053494E5F434F42524F2049FC
:100186004E484142494C495441444F3D25730D0A5E
:100196000A000D0A0A2041435455414C2053494E4A
:1001A6005F434F42524F204752415449533D2573B6
:1001B6000D0A0A000D0A0A2041435455414C2053AA
:1001C600494E5F434F42524F2047524154495320B4
:1001D600592053414C49444120454C204D49534DEB
:1001E6004F204449413D25730D0A0A000D0A0A2095
:1001F600444947495445205355204E5545564F20AE
:1002060053494E5F434F42524F3D000D0A0A20416B
:10021600435455414C20444542554720494E484198
:1002260042494C495441444F3D25730D0A0A000D7D
:100236000A0A2041435455414C2044454255472023
:10024600484142494C495441444F3D25730D0A0AE1
:10025600000D0A0A2044494749544520454C204E82
:100266005545564F2045535441444F20444520445C
:10027600454255473D000D0A0A2041435455414C1D
:10028600205553455F4C505220494E484142494CF7
:10029600495441444F3D25730D0A0A000D0A0A20B0
:1002A60041435455414C205553455F4C50522048CC
:1002B6004142494C495441444F3D25730D0A0A00B9
:1002C6000D0A0A2044494749544520454C204E55BD
:1002D60045564F2045535441444F204445205553DD
:1002E600455F4C50523D000D0A0A2050414E544184
:1002F6004C4C41204C434420484142494C495441CE
:1003060044413D25730D0A0A000D0A0A2050414E4C
:1003160054414C4C4120524153504245525259206F
:1003260020484142494C49544144413D25730D0AF8
:100336000A000D0A0A2044494749544520454C20E5
:100346004E5545564F2045535441444F2044452071
:100356004C412050414E54414C4C41203D000D0A29
:100366000A2041435455414C20434F4D5041524180
:1003760043494F4E2041435449564120204841426B
:10038600494C49544144413D25730D0A0A000D0A62
:100396000A20455850494445205441524A45544143
:1003A6002050554C53414E444F20424F544F4E0D12
:1003B6000A0A000D0A0A204558504944452054416E
:1003C600524A455441204155544F4D4154494341A9
:1003D6000D0A0A000D0A0A2044494749544520459A
:1003E6004C204E5545564F2045535441444F2044CA
:1003F600454C20455850454449444F523D000D0A4E
:100406000A2041435455414C20414E5449504153D2
:10041600534241434B20494E484142494C4954417D
:10042600444F3D25730D0A0A000D0A0A2041435424
:1004360055414C20414E5449504153534241434B40
:1004460020484142494C495441444F3D25730D0AC9
:100456000A000D0A0A2044494749544520454C20C4
:100466004E5545564F2045535441444F2044452050
:10047600414E5449504153534241434B3D000D0AAE
:100486000A2041435455414C20504C414341204998
:100496004E484142494C495441444F3D25730D0A4B
:1004A6000A000D0A0A2041435455414C20504C4144
:1004B600434120484142494C495441444F3D2573EC
:1004C6000D0A0A000D0A0A204449474954452045A9
:1004D6004C204E5545564F2045535441444F2044D9
:1004E6004520504C4143413D000D0A0A20414354EA
:1004F60055414C20414444524553535F484947486F
:100506005F424F4152443D25730D0A0A000D0A0A07
:1005160020444947495445204C41204E55455641B3
:1005260020414444524553535F484947485F424F30
:100536004152443D000D0A0A2041435455414C2086
:10054600484F524152494F20494E484142494C4931
:100556005441444F3D25730D0A0A000D0A0A2041F5
:10056600435455414C20484F524152494F2048412F
:1005760042494C495441444F3D25730D0A0A000D2A
:100586000A0A2044494749544520454C204E5545C2
:10059600564F2045535441444F20444520484F521E
:1005A6004152494F3D000D0A0A2044696769746546
:1005B60020486F72612030383A3030204D696E75B0
:1005C600746F732044657364653A20000D0A0A202F
:1005D600486F72612050726F6772616D616461204D
:1005E60044657364653A200025633A000D0A0A20C3
:1005F60044696769746520486F72613A4D696E7522
:10060600746F732048617374613A20000D0A0A20E2
:10061600486F72612050726F6772616D616461200C
:1006260048617374613A20000D0A2044657364655D
:10063600202048617374610D0A002025630025633C
:10064600202020000D0A0A20446967697465206C21
:100656006F73206469617320612070726F677261C5
:100666006D6172204C756E6573203D20322C200022
:100676004D6172746573203D20332C204D6965727F
:10068600636F6C6573203D20342C204A7565766552
:1006960073203D20352C2000566965726E657320E7
:1006A6003D20362C2053616261646F203D20372C3B
:1006B60020446F6D696E676F203D2031203A20001F
:1006C6000D0A0A20446961732050726F6772616D6A
:1006D60061646F73203A2000204C756E6573003D8F
:1006E6002025632C00204D617274657300204D69CE
:1006F6006572636F6C657300204A75657665730075
:1007060020566965726E6573002053616261646F7D
:100716000020446F6D696E676F003D2025630020E1
:100726004C756E6573203D2050726F6772616D6106
:10073600646F0D0A00204C756E6573203D204E6F68
:100746002070726F6772616D61646F0D0A00204DD3
:100756006172746573203D2050726F6772616D61BE
:10076600646F0D0A00204D6172746573203D204E42
:100776006F2070726F6772616D61646F0D0A002081
:100786004D696572636F6C6573203D2050726F67AB
:1007960072616D61646F0D0A00204D696572636F49
:1007A6006C6573203D204E6F2070726F6772616DAD
:1007B60061646F0D0A00204A7565766573203D20D9
:1007C60050726F6772616D61646F0D0A00204A7521
:1007D60065766573203D204E6F2070726F6772617B
:1007E6006D61646F0D0A0020566965726E6573202F
:1007F6003D2050726F6772616D61646F0D0A002053
:10080600566965726E6573203D204E6F2070726F5B
:100816006772616D61646F0D0A00205361626164E5
:100826006F203D2050726F6772616D61646F0D0AB3
:10083600002053616261646F203D204E6F2070720C
:100846006F6772616D61646F0D0A0020446F6D6998
:100856006E676F203D2050726F6772616D61646FC5
:100866000D0A0020446F6D696E676F203D204E6F44
:100876002070726F6772616D61646F0D0A000D0AF8
:100886000A2044696769746520656C206E756D651C
:10089600726F2064656C20486F726172696F2061A7
:1008A6002070726F6772616D6172203D20000D0AC3
:1008B6000A2050726F6772616D6172207365677589
:1008C6006E646F20486F726172696F2073693D288C
:1008D6003129206E6F3D2830293D20000D0A0A205F
:1008E60041435455414C205449504F5F5645484961
:1008F60043554C4F204D454E5355414C20494E488B
:100906004142494C495441444F3D25730D0A0A0062
:100916000D0A0A2041435455414C205449504F5F1B
:100926005645484943554C4F204D454E5355414C2D
:1009360020484142494C495441444F3D25730D0AD4
:100946000A000D0A0A2044494749544520454C20CF
:100956004E5545564F2045535441444F204445205B
:100966005449504F5F5645484943554C4F204D45D5
:100976004E5355414C3D000D0A0A20414354554102
:100986004C205449504F5F5645484943554C4F20DB
:10099600204D454E5355414C20484142494C4954FF
:1009A60041444F3D25730D0A0A000D0A0A204143B2
:1009B6005455414C20414E544950415353424143B2
:1009C6004B204D454E5355414C20494E48414249D6
:1009D6004C495441444F3D25730D0A0A000D0A0A3D
:1009E6002041435455414C20414E544950415353A4
:1009F6004241434B204D454E5355414C20484142C0
:100A0600494C495441444F3D25730D0A0A000D0ACD
:100A16000A2044494749544520454C204E554556E1
:100A26004F2045535441444F20444520414E54499C
:100A3600504153534241434B204D454E5355414C33
:100A46003D000D0A0A2041435455414C20414E5465
:100A560049504153534241434B20204D454E535537
:100A6600414C20484142494C495441444F3D25732D
:100A76000D0A0A000D0A0A2041435455414C2046EE
:100A8600454348412056454E43494D49454E544FEE
:100A96002050415353574F52443A25730D0A0A00CA
:100AA6000D0A0A2F3E496420526567697374726F96
:100AB6003A002573000D0A0A2F3E50617373776F53
:100AC60072643A000D0A0A20444947495445204CAD
:100AD60041204E5545564120464543484120444510
:100AE6002056454E43494D49454E544F3D000D0A4B
:100AF6000A2025730D0A0A000D0A0A202558000D42
:100B06000A0A2041435455414C204645434841205A
:100B160044452056454E43494D49454E544F205075
:100B2600524F4752414D414441203D25730D0A0A1B
:100B3600000D0A206E756D65726F2064656C204825
:100B46006F726172696F202070726F6772616D617A
:100B5600646F203D2025630D0A000D0A2020484FB2
:100B6600524152494F20484142494C495441444F11
:100B760020203D204F4E0D0A000D0A204469617366
:100B86002050726F6772616D61646F730D0A000D9C
:100B96000A2020534547554E444F20484F52415254
:100BA600494F20484142494C495441444F20203D39
:100BB600204F4E0D0A000D0A20534547554E444F0F
:100BC60020484F524152494F20484142494C4954CE
:100BD60041444F20203D204F46460D0A000D0A2075
:100BE60020484F524152494F20484142494C4954AE
:100BF60041444F20203D204F46460D0A000D0A2055
:100C060049445F434C49454E54455F50524F475205
:100C1600414D41444F203D2025730D0A000D0A2009
:100C2600434F445F5041524B5F50524F4752414DE4
:100C360041444F203D2025730D0A000D0A205052D5
:100C46004F4752414D41444F204445425547203D70
:100C5600204F4E0D0A000D0A2050524F4752414D6B
:100C660041444F204445425547203D204F46460DBE
:100C76000A000D0A205553455F4C5052203D204F27
:100C860046460D0A000D0A205553455F4C5052202A
:100C96003D204F4E0D0A000D0A2050414E54414C46
:100CA6004C41204C43442050524F4752414D414401
:100CB600410D0A000D0A2050414E54414C4C412032
:100CC600524153504245525259202050524F47529A
:100CD600414D4144410D0A000D0A204558504944F2
:100CE60045205441524A4554412050554C53414E9B
:100CF600444F20424F544F4E0D0A000D0A204558CE
:100D060050494445205441524A4554412041555486
:100D16004F4D41544943410D0A000D0A2020414ED2
:100D26005449504153534241434B203D204F464680
:100D36000D0A000D0A20414E544950415353424179
:100D4600434B203D204F4E0D0A000D0A20504C41CA
:100D56004341203D204F46460D0A000D0A20504CC7
:100D6600414341203D204F4E0D0A000D0A204143CC
:100D76005455414C20414444524553535F484947DA
:100D8600485F424F415244203D2025730D0A000D15
:100D96000A205449504F5F5645484943554C4F2009
:100DA6004D454E5355414C203D204F46460D0A00B9
:100DB6000D0A205449504F5F5645484943554C4FFC
:100DC600204D454E5355414C203D204F4E0D0A00B7
:100DD6000D0A20414E5449504153534241434B2042
:100DE6004D454E5355414C203D204F46460D0A0079
:100DF6000D0A2020414E5449504153534241434B22
:100E0600204D454E5355414C203D204F4E0D0A0076
:100E16000D0A2041435455414C2046454348412044
:100E260044452056454E43494D49454E544F205062
:100E3600524F4752414D414441203D25730D0A0012
:100E46000D0A2049445F434C49454E544520202015
:100E56002020202020202D2D2D20434D44203020E1
:100E66004964656E746966696361646F722064655E
:100E76006C20636C69656E7465206D6178696D6F51
:100E860020323535000D0A20434F445F5041524B06
:100E960020202020202020202020202D2D2D204302
:100EA6004D44203120456C206E756D65726F20644F
:100EB600656C20706172717565616465726F206D15
:100EC6006178696D6F20323535000D0A20545F4711
:100ED600524143494120202020202020202020204C
:100EE6002D2D2D20434D442032205469656D706FA1
:100EF6002073696E20636F62726F2030302C202061
:100F06006D6178696D6F20323535000D0A205349C1
:100F16004E5F434F42524F20202020202020202089
:100F2600202D2D2D20434D44203320496E686162CB
:100F3600696C697461646F3D20302C20477261745E
:100F460069733D2031202C204772617469732079C2
:100F56002073616C69646120656C206D69736D6FC7
:100F6600206469613D2032000D0A20444542554700
:100F760020202020202020202020202020202D2D51
:100F86002D20434D44203420486162696C697461A8
:100F960072203D20312C20496E686162696C69744B
:100FA6006172203D2030000D0A205553455F4C509C
:100FB600522020202020202020202020202D2D2DD2
:100FC60020434D44203520486162696C6974617222
:100FD600203D20312C20496E686162696C6974611C
:100FE60072203D2030000D0A205449504F5F504179
:100FF6004E54414C4C412020202020202D2D2D20C8
:10100600434D4420362050414E54414C4C41204CD7
:101016004344203D302050414E54414C4C412052D7
:1010260041535042455252493D31000D0A20434139
:1010360052445F4155544F4D41544943412020206D
:10104600202D2D2D20434D44203720424F54544F00
:101056004E3D30204155544F4D41544943413D3159
:10106600000D0A20414E5449504153534241434BCF
:10107600202020202020202D2D2D20434D442038B7
:1010860020486162696C69746172203D20312C20B0
:10109600496E686162696C69746172203D20300036
:1010A6000D0A20504C4143412020202020202020A2
:1010B6002020202020202D2D2D20434D4420392076
:1010C600486162696C69746172203D20312C204947
:1010D6006E686162696C69746172203D2030000D32
:1010E6000A20414444524553535F484947485F42AA
:1010F6004F415244202D2D2D20434D442031302088
:101106004C6120646972656363696F6E20616C74FB
:10111600612064656C20626F6172642064656C2076
:101126006E756D65726F203520616C20392073698C
:101136006E6F207365207573612064656265206932
:101146007220656E2030000D0A20484F52415249E8
:101156004F2020202020202020202020202D2D2D33
:1011660020434D442031312050726F67616D6120FC
:10117600313020686F726172696F732064656C200C
:101186003120616C203130000D0A2056414C494413
:10119600415F564548495F4D454E5355414C2D2DAF
:1011A6002D20434D4420313220486162696C6974B8
:1011B6006172203D20312C20496E686162696C693C
:1011C600746172203D2030000D0A205553455F4161
:1011D60050425F4D454E5355414C202020202D2D29
:1011E6002D20434D4420313320486162696C697477
:1011F6006172203D20312C20496E686162696C69FC
:10120600746172203D2030000D0A205645525F5011
:10121600524F4752414D4143494F4E2020202D2DDC
:101226002D20434D44203134204D75657374726111
:10123600206C612070726F6772616D6163696F6E99
:10124600000D0A204159554441202020202020200D
:10125600202020202020202D2D2D20434D442031DC
:1012660035204D756573747261206C6F7320636FE2
:101276006D616E646F73000D0A2053414C49522014
:10128600202020202020202020202020202D2D2D31
:1012960020434D442031362053616C6972206465C9
:1012A6002070726F6772616D6163696F6E000D0AFF
:1012B6000A53697374656D612064652050726F67A7
:1012C60072616D6163696F6E2045787065646964EB
:1012D6006F72200D0A0D0A000D0A436F6D616E6470
:1012E6006F206E6F206578697374652027257327D4
:1012F600003A5B3C253F58545D3D2900232A594A54
:1013060041494D4563616D696C744B0077727A3261
:10131600357136382D393166532E4000200D0A00BE
:08132600200D0A00220D0A004F
:108154005401BC2F000000000000000000000000DB
:10816400000000000000004B01B161646D696E0005
:108174000000000000603601D03000003100003201
:1081840000003300003400003500003600003700E2
:108194000038000039000031300031310031320044
:0F81A400313300313400313500313600313700CE
:0B4DFC0090005DEBF0A3EAF0A3E9F0EB
:104E070078627C007D017BFF7A1279F77E007F0B49
:104E17001219FE786D7C007D017BFF7A1379027E83
:104E2700007F101219FE787D7C007D017BFF7A13CD
:104E370079127E007F101219FE7B017A0079987F24
:104E4700507E0312A7567B017A0079981285F4EFFA
:104E57003395E0FEEF64014E78627C007D017BFFB5
:104E670060067A00792680047A007931121E37901D
:104E7700005DE0FBA3E0FAA3E0F912000E900060EA
:104E8700EFF0E4A3F0900061E0FFC3940A7480940C
:104E9700804003024FEE90005DE0FBA3E0FAA3E041
:104EA700F98F82758300121A3DFD7C0074622FF51D
:104EB70082E43400F583E02DFFEC339001ADF0A3DD
:104EC700EFF07E00540FFFA3EEF0A3EFF0700BE0BE
:104ED70004F070069001AFE004F09001AFE0FEA38C
:104EE700E0246CF58274003EF583E07E002DFFEE32
:104EF7003C9001ADF0A3EFF07E00540FFFA3EEF05E
:104F0700A3EFF0700BE004F070069001AFE004F03F
:104F17009001AFE0FEA3E0247CF58274003EF583A8
:104F2700E0FF9001ADE0FEA3E06FFF9001ADEEF072
:104F3700FEA3EFF0D394FFEE940040059001ADE49B
:104F4700F09001ADE0FEA3E0FFC3947AEE94004039
:104F570015D3EF94FFEE9400500CEF547AFF9001B5
:104F6700ADE4F0A3EFF0C39001AEE094309001AD53
:104F7700E09400500CA3E02440F09001ADE0340031
:104F8700F09001ADE0FEA3E0FFC3945BEE94004018
:104F970014D3EF9460EE9400500BE02407F09001D7
:104FA700ADE03400F09001ADE0FEA3E0FFC3943A1A
:104FB700EE94004014D3EF9440EE9400500BE0249D
:104FC700F9F09001ADE034FFF09001ADA3E0FF9060
:104FD7000061E0248DF582E43400F583EFF0900062
:104FE70061E004F0024E8C900061E0248DF582E4CC
:0C4FF7003400F583E4F07B017A00798D32
:01500300228A
:0BA7BC00900046EBF0A3EAF0A3E9F0E8
:10A7C700E490004CF090004CE0FFC3941274809426
:10A7D700805041EF75F003A424D0F9740135F0FAE5
:10A7E7007B0178497C007D01121E3778497C007D0A
:10A7F70001900046E0FBA3E0FAA3E0F9121D4EEF3B
:10A807003395E04F700690004CE0FF2290004CE03B
:06A8170004F080B17FFF98
:01A81D002218
:08AE7500E0FBA3E0FAA3E0F901
:0BAE7D0090005DEBF0A3EAF0A3E9F009
:10AE880078607C007D017B017A0179B1121E3778E8
:10AE9800607C007D0190005DE0FBA3E0FAA3E0F98F
:0EAEA800121D4EEF3395E04F7002FF227FFF28
:01AEB6002279
:06AF39007B017A00793271
:0BAF3F0090005DEBF0A3EAF0A3E9F046
:10AF4A0078607C007D017BFF7A1379227E007F0482
:10AF5A001219FE9000677401F0A37400F0A37460E4
:0FAF6A00F090005DE0FBA3E0FAA3E0F9027CD5D4
:109A3200E0FBA3E0FAA3E02FF9EA3EFAE92401F9F8
:039A4200E43AFA09
:0B9A4500900046EBF0A3EAF0A3E9F06C
:109A500078497C007D017BFF7A1379267E007F04A4
:109A60001219FE784D7C007D017BFF7A13792A7EE6
:109A7000007F041219FE900046E0FBA3E0FAA3E089
:109A8000F9121A24FFB4200C900047E475F001127B
:109A90001AB080E2EF900067B4220D7401F0A37455
:109AA00000F0A3744DF080167401F0A37400F0A3CD
:109AB0007449F0900046E0FBA3E0FAA3E0F9127CC1
:019AC000D5D0
:019AC1002282
:10B65A0090007A7401F0A37401F0A374BCF07BFF2C
:07B66A007A00793C0238E58B
:08A237007A0079637B01E4FD6C
:0EA23F00900071EBF0A3EAF0A3E9F0A3EDF0BC
:10A24D0012B761900071E0FBA3E0FAA3E0F9EF1201
:10A25D001A6A900074E0701D900071E0FBA3E0FAA3
:10A26D00A3E0F9121A2490007AF07BFF7A0079446A
:10A27D001238E580057F2A12AFB8900071E0FBA37C
:10A28D00E0FAA3E0F9121A24FF7E00900072E47543
:10A29D00F001121AB0900071E0FBA3E0FAA3E0F90F
:09A2AD00E4121A6AEF640D7097C7
:01A2B6002285
:108E3C00E4FDFC7FA812B0757E00900050EEF0A30C
:108E4C00EFF090007A74FFF0A37400F0A37447F075
:108E5C00A3EEF0A3EFF07B017A0079461238DF9095
:108E6C00007A7401F0A37400F0A37446F07BFF7ACF
:108E7C0000794A1238E57BFF7A0079661238E57A78
:108E8C0000794612A23B7B017A007946127E9790BC
:108E9C000050EEF0A3EFF0FBE4FDFC7FA812A9A7B5
:108EAC00E4FDFC7FA812B0757E00900050EEF0A39C
:108EBC00EFF090007A74FFF0A37400F0A37447F005
:108ECC00A3EEF0A3EFF07B017A0079461238DF9025
:108EDC00007A7401F0A37400F0A37446F07BFF7A5F
:068EEC000079860238E562
:108C08007D027C007FA812B0757E00900050EEF0C7
:108C1800A3EFF090007A74FFF0A37400F0A37447F8
:108C2800F0A3EEF0A3EFF07B017A0079461238DF6B
:108C380090007A7401F0A37400F0A37446F07BFFEF
:108C48007A0079AB1238E57BFF7A0079C51238E5EE
:108C58007B017A007946E4FD12A23F7B017A007914
:108C680046127E97900050EEF0A3EFF0FB7D027C59
:108C7800007FA812A9A77D027C007FA812B0757E8C
:108C880000900050EEF0A3EFF090007A74FFF0A38C
:108C98007400F0A37447F0A3EEF0A3EFF07B017A21
:108CA8000079461238DF90007A7401F0A37400F05E
:0D8CB800A37446F07BFF7A0079E30238E5F3
:108CC5007D047C007FA812B0757E00900050EEF008
:108CD500A3EFF090007A74FFF0A37400F0A374473B
:108CE500F0A3EEF0A3EFF07B017A0079461238DFAE
:108CF50090007A7401F0A37400F0A37446F07BFF32
:108D05007A0179061238E57BFF7A0179251238E573
:108D15007B017A007946E4FD12A23F7B017A007956
:108D250046127E97900050EEF0A3EFF0FB7D047C99
:108D3500007FA812A9A77D047C007FA812B0757ECC
:108D450000900050EEF0A3EFF090007A74FFF0A3CE
:108D55007400F0A37447F0A3EEF0A3EFF07B017A63
:108D65000079461238DF90007A7401F0A37400F0A0
:0D8D7500A37446F07BFF7A0179480238E5CF
:106465007D067C007FA812B0757E00900050EEF08E
:10647500A3EFF090007A74FFF0A37400F0A37447C3
:10648500F0A3EEF0A3EFF07B017A0079461238DF36
:10649500900050E07002A3E0701590007A04F0A31C
:1064A5007400F0A37446F07BFF7A01797080359013
:1064B5000050E07004A3E06401701590007A04F0C8
:1064C500A37400F0A37446F07BFF7A0179988014D9
:1064D50090007A7401F0A37400F0A37446F07BFF7A
:1064E5007A0179BA1238E57BFF7A0179F21238E53B
:1064F5007B017A007946E4FD12A23F7B017A00799F
:1065050046127E97900050EEF0A3EFF0FB7D067CDF
:10651500007FA812A9A77D067C007FA812B0757E12
:1065250000900050EEF0A3EFF090007A74FFF0A316
:106535007400F0A37447F0A3EEF0A3EFF07B017AAB
:106545000079461238DF900050E07002A3E0701524
:1065550090007A04F0A37400F0A37446F07BFF7AF0
:106565000179708035900050E07004A3E0640170FB
:106575001590007A04F0A37400F0A37446F07BFF35
:106585007A017998801490007A7401F0A37400F070
:0D659500A37446F07BFF7A0179BA1238E555
:0165A20022D6
:107416007D087C007FA812B0757E00900050EEF0CB
:10742600A3EFF090007A74FFF0A37400F0A3744702
:10743600F0A3EEF0A3EFF07B017A0079461238DF75
:10744600900050E07002A3E0701590007A04F0A35B
:107456007400F0A37446F07BFF7A027911801490D1
:10746600007A7401F0A37400F0A37446F07BFF7AEF
:107476000279351238E57BFF7A0279571238E57BB7
:10748600017A007946E4FD12A23F7B017A00794633
:10749600127E97900050EEF0A3EFF0FB7D087C0083
:1074A6007FA812A9A77D087C007FA812B0757E0070
:1074B600900050EEF0A3EFF090007A74FFF0A37402
:1074C60000F0A37447F0A3EEF0A3EFF07B017A007F
:1074D60079461238DF900050E07002A3E0701590F4
:1074E600007A04F0A37400F0A37446F07BFF7A02DE
:1074F6007911801490007A7401F0A37400F0A374DB
:0B75060046F07BFF7A0279351238E571
:017511002257
:107512007D0A7C007FA812B0757E00900050EEF0CC
:10752200A3EFF090007A74FFF0A37400F0A3744705
:10753200F0A3EEF0A3EFF07B017A0079461238DF78
:10754200900050E07002A3E0701590007A04F0A35E
:107552007400F0A37446F07BFF7A02797C80149069
:10756200007A7401F0A37400F0A37446F07BFF7AF2
:107572000279A21238E57BFF7A0279C61238E57BDE
:10758200017A007946E4FD12A23F7B017A00794636
:10759200127E97900050EEF0A3EFF0FB7D0A7C0084
:1075A2007FA812A9A77D0A7C007FA812B0757E0071
:1075B200900050EEF0A3EFF090007A74FFF0A37405
:1075C20000F0A37447F0A3EEF0A3EFF07B017A0082
:1075D20079461238DF900050E07002A3E0701590F7
:1075E200007A04F0A37400F0A37446F07BFF7A02E1
:1075F200797C801490007A7401F0A37400F0A37473
:0B76020046F07BFF7A0279A21238E507
:01760D00225A
:10760E007D0E7C007FA812B0757E00900050EEF0CB
:10761E00A3EFF090007A74FFF0A37400F0A3744708
:10762E00F0A3EEF0A3EFF07B017A0079461238DF7B
:10763E00900050E07002A3E0701590007A04F0A361
:10764E007400F0A37446F07BFF7A0279ED801490FB
:10765E00007A7401F0A37400F0A37446F07BFF7AF5
:10766E0003790F1238E57BFF7A0379381238E57B00
:10767E00017A007946E4FD12A23F7B017A00794639
:10768E00127E97900050EEF0A3EFF0FB7D0E7C0083
:10769E007FA812A9A77D0E7C007FA812B0757E0070
:1076AE00900050EEF0A3EFF090007A74FFF0A37408
:1076BE0000F0A37447F0A3EEF0A3EFF07B017A0085
:1076CE0079461238DF900050E07002A3E0701590FA
:1076DE00007A04F0A37400F0A37446F07BFF7A02E4
:1076EE0079ED801490007A7401F0A37400F0A37405
:0B76FE0046F07BFF7A0379641238E548
:01770900225D
:108908007D0F7C007FA812B0757E00900050EEF0BD
:10891800A3EFF090007A74FFF0A37400F0A37447FB
:10892800F0A3EEF0A3EFF07B017A0079461238DF6E
:10893800900050E07002A3E07BFF70067A03799400
:1089480080047A0379B91238E57BFF7A0379DA1261
:1089580038E57B017A007946E4FD12A23F7B017A73
:10896800007946127E97900050EEF0A3EFF0FB7D61
:108978000F7C007FA812A9A77D0F7C007FA812B0EA
:10898800757E00900050EEF0A3EFF090007A74FF2F
:10899800F0A37400F0A37447F0A3EEF0A3EFF07B0C
:1089A800017A0079461238DF900050E07002A3E0A7
:1089B8007BFF70067A03799480047A0379B91238B8
:0189C800E5C9
:0189C900228B
:10770A007D107C007FA812B0757E00900050EEF0CC
:10771A00A3EFF090007A74FFF0A37400F0A374470B
:10772A00F0A3EEF0A3EFF07B017A0079461238DF7E
:10773A00900050E07002A3E0701590007A04F0A364
:10774A007400F0A37446F07BFF7A047904801490E5
:10775A00007A7401F0A37400F0A37446F07BFF7AF8
:10776A0004792F1238E57BFF7A0479581238E57BC1
:10777A00017A007946E4FD12A23F7B017A0079463C
:10778A00127E97900050EEF0A3EFF0FB7D107C0084
:10779A007FA812A9A77D107C007FA812B0757E0071
:1077AA00900050EEF0A3EFF090007A74FFF0A3740B
:1077BA0000F0A37447F0A3EEF0A3EFF07B017A0088
:1077CA0079461238DF900050E07002A3E0701590FD
:1077DA00007A04F0A37400F0A37446F07BFF7A04E5
:1077EA007904801490007A7401F0A37400F0A374F1
:0B77FA0046F07BFF7A04792F1238E57F
:017805002260
:107806007D117C007FA812B0757E00900050EEF0CE
:10781600A3EFF090007A74FFF0A37400F0A374470E
:10782600F0A3EEF0A3EFF07B017A0079461238DF81
:10783600900050E07002A3E0701590007A04F0A367
:107846007400F0A37446F07BFF7A04798480149068
:10785600007A7401F0A37400F0A37446F07BFF7AFB
:107866000479A81238E57BFF7A0479CA1238E57BD9
:10787600017A007946E4FD12A23F7B017A0079463F
:10788600127E97900050EEF0A3EFF0FB7D117C0086
:107896007FA812A9A77D117C007FA812B0757E0073
:1078A600900050EEF0A3EFF090007A74FFF0A3740E
:1078B60000F0A37447F0A3EEF0A3EFF07B017A008B
:1078C60079461238DF900050E07002A3E070159000
:1078D600007A04F0A37400F0A37446F07BFF7A04E8
:1078E6007984801490007A7401F0A37400F0A37474
:0B78F60046F07BFF7A0479A81238E509
:017901002263
:107DB9007D127C007FA812B0757E00900050EEF015
:107DC900A3EFF090007A74FFF0A37400F0A3744756
:107DD900F0A3EEF0A3EFF07B017A0079461238DFC9
:107DE900900050E07002A3E0700690007A048005CC
:107DF90090007A7401F0A37400F0A37446F07BFF3D
:107E09007A0479EF1238E57BFF7A0579131238E5A0
:107E19007B017A007946E4FD12A23F7B017A007961
:107E290046127E97900050EEF0A3EFF0FB7D127C96
:107E3900007FA812A9A77D127C007FA812B0757EC9
:107E490000900050EEF0A3EFF090007A74FFF0A3D9
:107E59007400F0A37447F0A3EEF0A3EFF07B017A6E
:107E69000079461238DF900050E07002A3E07006F6
:107E790090007A04800590007A7401F0A37400F0F0
:0D7E8900A37446F07BFF7A0479EF1238E510
:017E960022C9
:10B2EA009000747419F0A37432F0A3744BF0A37431
:10B2FA0064F0A3747DF0A37496F0A374AFF0A37402
:10B30A00C8F0A374E1F0A374FAF0E4A3F07B017A25
:03B31A0000797443
:01B31D00220D
:0A6CB000900061EEF0FCA3EFF0FD90
:106CBA007FA812B0757E0090006DEEF0A3EFF09001
:106CCA00007A74FFF0A37400F0A37447F0A3EEF007
:106CDA00A3EFF07B017A0079631238DF90006DE050
:106CEA007002A3E0701590007A04F0A37400F0A378
:106CFA007463F07BFF7A05793B801490007A740103
:106D0A00F0A37400F0A37463F07BFF7A0579611233
:106D1A0038E57BFF7A0579851238E57B017A0079B7
:106D2A0063E4FD12A23F7B017A007963127E979099
:106D3A00006DEEF0A3EFF0900061E0FCA3E0FDAB84
:106D4A00077FA812A9A7900061E0FCA3E0FD7FA835
:106D5A0012B0757E0090006DEEF0A3EFF090007A0D
:106D6A0074FFF0A37400F0A37447F0A3EEF0A3EF4E
:106D7A00F07B017A0079631238DF90006DE07002CF
:106D8A00A3E090006F7018F0A3F090007A04F0A3CB
:106D9A007400F0A37463F07BFF7A05793B8017E4F3
:106DAA00F0A304F090007AF0A37400F0A37463F0E7
:0F6DBA007BFF7A0579611238E590006FA3E0FF47
:016DC90022A7
:08500400900061EEF0A3EFF053
:10500C007BFF7A0579AC1238E512A2377BFF7A0563
:10501C0079D21238E5900062E02407FD900061E03F
:10502C003400FC900063E0FB7FA812A9A7900062FB
:10503C00E02407FD900061E03400FC7FA812B075FD
:10504C007BFF7A00794490007AEFF01238E59000FB
:10505C0062E02408FD900061E03400FC900064E004
:10506C00FB7FA812A9A7900062E02408FD900061C4
:10507C00E03400FC7FA812B0757BFF7A0579EE90C6
:10508C00007AEFF01238E5900062E02409FD900000
:10509C0061E03400FC900066E0FB7FA812A9A790A9
:1050AC000062E02409FD900061E03400FC7FA8124E
:1050BC00B0757BFF7A00794490007AEFF01238E5F6
:1050CC00900062E0240AFD900061E03400FC900046
:1050DC0067E0FB7FA812A9A7900062E0240AFD906C
:1050EC000061E03400FC7FA812B0757BFF7A007978
:1050FC004490007AEFF01238E57BFF7A0579F212D2
:10510C0038E512A2377BFF7A0679121238E5900047
:10511C0062E0240BFD900061E03400FC900063E041
:10512C00FB7FA812A9A7900062E0240BFD90006100
:10513C00E03400FC7FA812B0757BFF7A00794490B4
:10514C00007AEFF01238E5900062E0240CFD90003C
:10515C0061E03400FC900064E0FB7FA812A9A790EA
:10516C000062E0240CFD900061E03400FC7FA8128A
:10517C00B0757BFF7A0579EE90007AEFF01238E586
:10518C00900062E0240DFD900061E03400FC900082
:10519C0066E0FB7FA812A9A7900062E0240DFD90A9
:1051AC000061E03400FC7FA812B0757BFF7A0079B7
:1051BC004490007AEFF01238E5900062E0240EFD86
:1051CC00900061E03400FC900067E0FB7FA812A91E
:1051DC00A7900062E0240EFD900061E03400FC7F9B
:1051EC00A812B0757BFF7A00794490007AEFF00238
:0251FC0038E594
:086DCA00900074EEF0A3EFF05D
:106DD2007BFF7A06792E1238E5900075E02407FDD4
:106DE200900074E03400FC7FA812B0757BFF7A0635
:106DF200794090007AEFF01238E5900075E02408AF
:106E0200FD900074E03400FC7FA812B0757BFF7A1D
:106E12000579EE90007AEFF01238E5900075E024E3
:106E220009FD900074E03400FC7FA812B0757BFF6E
:106E32007A00794490007AEFF01238E5900075E01C
:106E4200240AFD900074E03400FC7FA812B0757B28
:106E5200FF7A06794490007AEFF01238E5900075D7
:106E6200E0240BFD900074E03400FC7FA812B075A2
:106E72007BFF7A00794490007AEFF01238E59000B7
:106E820075E0240CFD900074E03400FC7FA812B081
:106E9200757BFF7A0579EE90007AEFF01238E59073
:106EA2000075E0240DFD900074E03400FC7FA81210
:106EB200B0757BFF7A00794490007AEFF01238E5E2
:106EC200900075E0240EFD900074E03400FC7FA871
:106ED20012B0757BFF7A00794490007AEFF00238A5
:016EE200E5CA
:08466700900061EEF0A3EFF0FA
:10466F007BFF7A06794A1238E57BFF7A0679761254
:10467F0038E57BFF7A06799E1238E57B017A00795F
:10468F0063E4FD12A23F7BFF7A0679C61238E5E498
:10469F0090006EF090006EE0FFC3940874809480D9
:1046AF00400302491D74632FF582E43400F583E063
:1046BF0090006FF0643270437BFF7A0679DE123818
:1046CF00E5900062E02401FD900061E03400FC7B86
:1046DF00327FA812A9A7900062E02401FD9000612B
:1046EF00E03400FC7FA812B07590006DEFF07BFFF7
:1046FF007A0679E590007AF01238E590006EE024A2
:10470F0063F582E43400F583E090006FF06433705A
:10471F00437BFF7A0679EB1238E5900062E02402C2
:10472F00FD900061E03400FC7B337FA812A9A790B5
:10473F000062E02402FD900061E03400FC7FA812CB
:10474F00B07590006DEFF07BFF7A0679E590007AF7
:10475F00F01238E590006EE02463F582E43400F542
:10476F0083E090006FF0643470437BFF7A0679F337
:10477F001238E5900062E02403FD900061E0340000
:10478F00FC7B347FA812A9A7900062E02403FD9060
:10479F000061E03400FC7FA812B07590006DEFF05F
:1047AF007BFF7A0679E590007AF01238E590006E7B
:1047BF00E02463F582E43400F583E090006FF06449
:1047CF003570437BFF7A0679FE1238E5900062E080
:1047DF002404FD900061E03400FC7B357FA812A912
:1047EF00A7900062E02404FD900061E03400FC7F9C
:1047FF00A812B07590006DEFF07BFF7A0679E59007
:10480F00007AF01238E590006EE02463F582E4340C
:10481F0000F583E090006FF0643670437BFF7A07FA
:10482F0079061238E5900062E02405FD900061E002
:10483F003400FC7B367FA812A9A7900062E0240504
:10484F00FD900061E03400FC7FA812B07590006D00
:10485F00EFF07BFF7A0679E590007AF01238E59059
:10486F00006EE02463F582E43400F583E090006F7E
:10487F00F0643770437BFF7A07790F1238E59000A9
:10488F0062E02406FD900061E03400FC7B377FA8D6
:10489F0012A9A7900062E02406FD900061E03400A9
:1048AF00FC7FA812B07590006DEFF07BFF7A067950
:1048BF00E590007AF01238E590006EE02463F582FF
:1048CF00E43400F583E090006FF0643170377BFFC4
:1048DF007A0779171238E5900061E0FCA3E0FD7BC1
:1048EF00317FA812A9A7900061E0FCA3E0FD7FA88B
:1048FF0012B07590006DEFF07BFF7A077920900072
:0E490F007AF01238E590006EE004F00246A344
:01491D002277
:086A6C00900074EEF0A3EFF0BE
:106A74002401FDE43EFC7FA812B075900076EFF08F
:106A840064327BFF70067A07792580047A07793BA4
:106A94001238E5900075E02402FD900074E03400A3
:106AA400FC7FA812B075900076EFF064337BFF7022
:106AB400067A07795480047A07796B1238E59000D6
:106AC40075E02403FD900074E03400FC7FA812B04C
:106AD40075900076EFF064347BFF70067A07798551
:106AE40080047A07799F1238E5900075E02404FD4C
:106AF400900074E03400FC7FA812B075900076EF2B
:106B0400F064357BFF70067A0779BC80047A0779D4
:106B1400D31238E5900075E02405FD900074E0344C
:106B240000FC7FA812B075900076EFF064367BFF0E
:106B340070067A0779ED80047A0879051238E590B1
:106B44000075E02406FD900074E03400FC7FA81278
:106B5400B075900076EFF064377BFF70067A0879A1
:106B64002080047A0879371238E5900074E0FCA399
:106B7400E0FD7FA812B075900076EFF064317BFFE2
:0F6B840070067A08795180047A0879691238E529
:016B930022DF
:10609F0012B2EA78507C007D01121E377BFF7A081E
:1060AF0079841238E57B017A007946E4FD12A23F2C
:1060BF007B017A007946127E97EF14900060F0E032
:1060CF002450F582E43400F583E0FF7E0090005BFE
:1060DF00EEF0A3EFF0A3EEF0A3EFF090005CE0245E
:1060EF000FF090005BE03400F0E0FEA3E0FF126CD5
:1060FF00B090005DE0FFA3E090005BCFF0A3EFF066
:10610F009000607401F0900060E0FFC39408748009
:10611F009480501C90005CE02FFD90005BE03400F9
:10612F00FC7BFF7FA812A9A7900060E004F080D647
:10613F0090005DE0FEA3E0FF90005BEEF0A3EFF0B8
:10614F0012466790005BE0FEA3E0FF1250047BFF56
:10615F007A0879B41238E57B017A007946E4FD12AA
:10616F00A23F7B017A007946127E9790005FEFF095
:10617F00FB90005CE02410FD90005BE03400FC7F9E
:10618F00A812A9A790005CE02410FD90005BE034FA
:10619F0000FC7FA812B07590005FEFF090007A744A
:1061AF00FFF0A37400F0A37447F0A3EFF07B017A24
:1061BF000079461238DF90005FE06401701690009E
:1061CF005CE0240AF090005BE03400F0E0FEA3E016
:0461DF00FF12500457
:0161E3002299
:107902007D147C007FA812B0757E00900050EEF0CE
:10791200A3EFF090007A74FFF0A37400F0A3744711
:10792200F0A3EEF0A3EFF07B017A0079461238DF84
:10793200900050E07002A3E0701590007A04F0A36A
:107942007400F0A37446F07BFF7A0879E280149009
:10795200007A7401F0A37400F0A37446F07BFF7AFE
:107962000979161238E57BFF7A0979481238E57BE6
:10797200017A007946E4FD12A23F7B017A00794642
:10798200127E97900050EEF0A3EFF0FB7D147C0086
:107992007FA812A9A77D147C007FA812B0757E0073
:1079A200900050EEF0A3EFF090007A74FFF0A37411
:1079B20000F0A37447F0A3EEF0A3EFF07B017A008E
:1079C20079461238DF900050E07002A3E070159003
:1079D200007A04F0A37400F0A37446F07BFF7A08E7
:1079E20079E2801490007A7401F0A37400F0A37419
:0B79F20046F07BFF7A09797D1238E532
:0179FD002267
:1079FE007D157C007FA812B0757E00900050EEF0D1
:107A0E00A3EFF090007A74FFF0A37400F0A3744714
:107A1E00F0A3EEF0A3EFF07B017A0079461238DF87
:107A2E00900050E07002A3E0701590007A04F0A36D
:107A3E007400F0A37446F07BFF7A0979B08014903D
:107A4E00007A7401F0A37400F0A37446F07BFF7A01
:107A5E000979E31238E57BFF7A0A79141238E57B4F
:107A6E00017A007946E4FD12A23F7B017A00794645
:107A7E00127E97900050EEF0A3EFF0FB7D157C0088
:107A8E007FA812A9A77D157C007FA812B0757E0075
:107A9E00900050EEF0A3EFF090007A74FFF0A37414
:107AAE0000F0A37447F0A3EEF0A3EFF07B017A0091
:107ABE0079461238DF900050E07002A3E070159006
:107ACE00007A04F0A37400F0A37446F07BFF7A09E9
:107ADE0079B0801490007A7401F0A37400F0A3744E
:0B7AEE0046F07BFF7A0A79481238E569
:017AF900226A
:1051FE007B017A0079467F507E0312A7569000609D
:10520E007401F0A37400F0A37454F07B017A00795A
:10521E004612988090007A7401F0A37400F0A37483
:10522E0054F07BFF7A0A797A1238E57BFF7A0A7995
:10523E00A61238E57B017A0079467F007E0312A71D
:10524E005690007A7401F0A37400F0A37446F07BBC
:10525E00FF7A0A79B81238E57B017A007946124D49
:10526E00FC78B17C017D01121E377BFF7A0A79BB77
:10527E001238E57B017A0079467D0112A23F7B014F
:10528E007A00794612AF3F900051EBF0A3EAF0A3FB
:10529E00E9F07B017A0179B17F007E0312A60D90B1
:1052AE00005112AE75EF70837BFF7A0A79CA1238FD
:1052BE00E57B017A007946E4FD12A23F90007A74F4
:1052CE0001F0A37400F0A37446F07BFF7A0A79F420
:1052DE001238E5900046E0900054F0900047E090C0
:1052EE000055F0E4A3F07B017A007954127E97907A
