:108BFD004101710A4101A4004101AF004101A500ED
:108C0D004101AD004201A600004101AE064101B394
:0F8C1D00034101B2F2C10AC10BC109410170004C
:03000B0002BE7AB8
:10BE7A00C0E0C083C082900171E014F0E0640170F8
:10BE8A00069001A4E004F09001A7E004F070069087
:0EBE9A0001A6E004F0C28DD082D083D0E03249
:10C21200E58954F04401F589E4F58CF58AD28C2243
:05C2B100C28DD2A9229C
:03C2BB00C2A922F3
:0BC2410012BF71EFF47002EEF460F524
:01C24C0022CF
:05BA0E009000A7EFF01D
:10BA13009000A7E0FF12BBF4EF3395E04F6024E4FE
:10BA23009000A8F0A3F0C39000A9E094E89000A8C8
:10BA3300E0940350DBA3E004F070EB9000A8E00473
:08BA4300F080E39000A7E0FF92
:01BA4B0022D8
:0EB73200900027EBF0A3EAF0A3E9F0A3EDF0FE
:10B74000E4A3F090002AE0FFA3E0C39F50299000FB
:10B7500027E0FBA3E0FAA3E0F9121A3EFF12BA0EAB
:10B7600090002CEFF0900028E475F001121ACA90B6
:07B77000002BE004F080CC87
:01B7770022AF
:10C2220012C2B612C27312C257C283D287C29722F7
:10B496007D047C007FA812BACB9001B0E4F0A3EF44
:10B4A600F07D067C007FA812BACB9001ABE4F0A336
:10B4B600EFF07D087C007FA812BACB9001A9EFF0CF
:10B4C6007D0A7C007FA812BACB9001A8EFF07D0E12
:0DB4D6007C007FA812BACB9001AAEFF022F3
:10AD2D0012C21212C2B112BEA812BEFA12C222D2A1
:10AD3D00AF12C0D07F217E0012C1A612C1517F611A
:10AD4D0012B5CB12C27A2091031254DD12B49612B1
:10AD5D006E4AEF70FA9001717405F020800312BFF6
:10AD6D00BD900170E0FF123ADC900170EFF020B35E
:10AD7D00292009267B017A01794812A1D79000007C
:10AD8D00EFF0FD7B017A01794812B98F7B017A01D1
:0FAD9D007948900000E0FD1235C612999380BCF2
:10BB7E007072696D6172696F204243433D20000D02
:10BB8E000A0063616C63756C6F204243433D200075
:10BB9E005245454E56494152207472616D6120489E
:0BBBAE006F72613A20004C49564500C0
:0E35C600900001EBF0A3EAF0A3E9F0A3EDF012
:1035D400E4A3F0ED641A60030236F7900001E0FB07
:1035E400A3E0FAA3E0F9121A3E640260030236F77C
:1035F400900002121A57644860030236F7900004E0
:10360400E07E0024FEF582EE34FFF583121A57643F
:103614000360030236F77BFF7ABB797E12B61E90F5
:103624000001E0FBA3E0FAA3E0F9900019121A5795
:10363400FF12B6A47BFF7ABB798D12B61E900001EF
:10364400E0FBA3E0FAA3E0F9A3E014FD12BD7D9032
:103654000005EFF07BFF7ABB799012B61E9000054F
:10366400E0FF12B6A47BFF7ABB798D12B61E9000E0
:1036740001E0FBA3E0FAA3E0F9900019121A57FF46
:10368400900005E0B50726E92403F9E43AFA127834
:10369400D8EF6003023ADB900001E0FBA3E0FAA359
:1036A400E02403F9E43AFA129E3002ADAC90001122
:1036B4007402F0A37405F0A37403F0E4A3F07B0197
:1036C4007A0079117D041298DF7BFF7ABB799E1210
:1036D400B61E900011E0FF12B6A4900012E0FF1293
:1036E400B6A4900013E0FF12B6A47BFF7ABB798DD9
:1036F40002B61E900001E0FBA3E0FAA3E0F9121A5F
:103704003E64B170057F6002390E900001E0FBA3B6
:10371400E0FAA3E0F9121A3E64B270057F5D023943
:103724000E900001E0FBA3E0FAA3E0F9121A3E6454
:10373400B370057F6302390E900004E064017017D2
:10374400900001E0FBA3E0FAA3E0F9121A3E64B48E
:1037540070057F5E02390E900004E06401701790DA
:103764000001E0FBA3E0FAA3E0F9121A3E64B5708D
:10377400057F6202390E900001E0FBA3E0FAA3E0AA
:10378400F9121A3E64B67028900218E004F0E0D3EF
:103794009404748094805003023ADB7FAE12279025
:1037A400C282E49001A4F0C297C283900218F0226E
:1037B400900001E0FBA3E0FAA3E0F9121A3EFF64D3
:1037C400B76005EF64AA70539001A4E0C394147425
:1037D4008094804008E4F0C297D282C2839001A909
:1037E400E06003023ADB9001A8E064016003023A5E
:1037F400DBC39001A7E094589001A6E09402500323
:10380400023ADBE4F0A3F09001A904F07BFF7ABB59
:1038140079B412B61EE49001A9F022900004E06489
:10382400017017900001E0FBA3E0FAA3E0F9121A7B
:103834003E64B870057F9A02390E900004E064017A
:103844007015900001E0FBA3E0FAA3E0F9121A3E20
:103854006455700302BCDB900004E06401701790AF
:103864000001E0FBA3E0FAA3E0F9121A3E64A170A0
:10387400057F5A02390E900004E06401701690002E
:1038840001E0FBA3E0FAA3E0F9121A3E6405700418
:103894007F9C8076900004E064017016900001E043
:1038A400FBA3E0FAA3E0F9121A3E640670047F9EBB
:1038B4008058900004E064017016900001E0FBA3BE
:1038C400E0FAA3E0F9121A3E640770047F5F803ABD
:1038D400900004E064017016900001E0FBA3E0FA9C
:1038E400A3E0F9121A3E640870047F61801C900002
:1038F40004E064017017900001E0FBA3E0FAA3E088
:10390400F9121A3E640970057FAF022790900004F3
:10391400E0FF6413703C900001E0FBA3E0FAA3E035
:10392400F9900001121A5764567027EF24FFFFE440
:1039340034FFFE8F82F583121A57640370148F824A
:103944008E83E4121A96E92402F9E43AFA7F5B02C0
:103954003A9C900004E0FF6413703C900001E0FB8B
:10396400A3E0FAA3E0F9900001121A57644F7027FC
:10397400EF24FFFFE434FFFE8F82F583121A5764AD
:103984000370148F828E83E4121A96E92402F9E4F8
:103994003AFA7F9B023A9C900004E0FF64066003BD
:1039A400023A53900001E0FBA3E0FAA3E0F9121AF3
:1039B4003E64026003023A53900001121A5764579E
:1039C4006003023A53FE74FF2FF582EE34FFF58351
:1039D400121A5764037078900001A3A39000021296
:1039E4001A57FD7B017A00790612B27A90000974A5
:1039F40020F0900001E0FBA3E0FAA3E0F9900003BB
:103A0400121A57FD900001A3A3900004121A5790B4
:103A14000019F07B017A00790A1247B89001A8E0F6
:103A24006401702112BCA3EFF460077FAA122790EF
:103A340080097B017A007906128B277B017A007951
:103A4400067F5C80537B017A0079067F5C80499015
:103A54000004E0FF64077043900001E0FBA3E0FA78
:103A6400A3E0F9121A3E64027031900001121A5751
:103A740064637027EF24FFFFE434FFFE8F82F58335
:103A8400121A57640370148F828E83E4121A96E913
:103A94002402F9E43AFA7F9D024D3F900004E0FFCE
:103AA400640C7033900001E0FBA3E0FAA3E0F91288
:103AB4001A3E64027021FE74FF2FF582EE34FFF586
:103AC40083121A576403700F900001A3A3E024012A
:073AD400F9E43AFA128CD06C
:013ADB0022C8
:0EB8CD00900037EBF0A3EAF0A3E9F0A3EDF052
:10B8DB00E4A3F090003AE0FFA3E0C39F5024900054
:10B8EB0037E0FBA3E0FAA3E0F9121A3EFF12B5CB47
:10B8FB00900038E475F001121ACA90003BE004F096
:02B90B0080D1E9
:01B90D002217
:0B8B2700900015EBF0A3EAF0A3E9F0CA
:108B32009000367403F090001814F012B8489000B8
:108B420019EFF0A37453F09001ADE090003660137A
:108B5200E0FF04F074182FF582E43400F583744DBD
:108B6200F08011E0FF04F074182FF582E43400F570
:108B7200837443F09000367404F0900015E0FBA378
:108B8200E0FAA3E0F9121A3EFF6021900036E024D9
:108B920018F582E43400F583EFF0900016E475F0E6
:108BA20001121ACA900036E004F080CE900036E03E
:108BB200FF04F074182FF582E43400F583743AF060
:108BC200900036E02418F9E43400FA7B0112679C25
:108BD200900036E0FF2422F582E43400F583743AF3
:108BE200F074232FF582E43400F5837403F07B01E3
:0B8BF2007A007918EF240CFD02B8CDCA
:0EBD7D00900015EBF0A3EAF0A3E9F0A3EDF0BF
:10BD8B00E4FFFE900018E0FDEEC39D5018900015E7
:10BD9B00E0FBA3E0FAA3E0F98E82758300121A5739
:05BDAB006FFF0E80DEB9
:01BDB0002270
:10C17E0050524F4752414D414D4F5320484F52411F
:04C18E00000D0A0096
:08000300D29412C2BEC2942285
:05B9CF009000B4EFF050
:10B9D400E4A3F0A3F09000B4E0FFA2E713F030D7A3
:10B9E40004D2958002C2951200039000B6E004F0E0
:10B9F40070069000B5E004F0C39000B6E09408909F
:09BA040000B5E06480948040CCA0
:01BA0D002216
:0AA42A00EBF0A3EAF0A3E9F07F8D48
:05A434009000B1EFF003
:10A43900D2967F037E0012C1A69000B1E0FF12B947
:10A44900CFE49000B2F0A3F09000B2E0FCA3E0FDED
:10A45900C39408EC64809480504F3095169002198B
:10A46900E04480F0ED9406EC648094805005E0FFB0
:10A47900C313F0209520900219E0547FF0D3900087
:10A48900B3E094069000B2E0648094805008900292
:10A4990019E0FFC313F01200039000B3E004F07059
:10A4A900A79000B2E004F0809FC296900219E0FFE5
:01A4B9002280
:10BED200900018EFF0A3EDF0D2967F037E0012C11E
:10BEE200A6900018E0FF12B9CF900019E0FF900071
:08BEF20018F012B9CFC296222C
:10B90E00900016E475F001121ACA900016E475F054
:10B91E0001121ACA900016E475F001121ACA9000AC
:10B92E0015E0FBA3E0FAA3E0F9121A3EFF90000126
:04B93E00121A57FD85
:0CB94200EF540FC454F0FFED540F4FFF02
:01B94E0022D6
:1078D800E4FF121A3EFEC3943050030279EAEED355
:1078E800943940030279EA900001121A57FEC394B2
:1078F8003050030279E7EED3943940030279E790D8
:107908000003121A57FEC3943050030279E4EED3F1
:10791800943940030279E4900004121A57FEC39484
:107928003050030279ECEED3943940030279EC909D
:107938000008121A57FEC3943050030279E1EED3BF
:10794800943940030279E190000B121A57FEC39450
:107958003050030279DEEED39439507A90000C123D
:107968001A57FEC39430406BEED39439506590009B
:107978000E121A57FEC394304056EED39439505025
:1079880090000F121A57FEC394304041EED3943939
:10799800503B900011121A57FEC39430402CEED37E
:1079A80094395026900012121A57FEC3943040178B
:1079B800EED394395011900014121A57FEC3943024
:1079C8004022EED39439227F01227F01227F0122B7
:1079D8007F01227F01227F01227F01227F01227FF6
:0479E80001227F01F8
:0179EC002278
:0B9E3000900015EBF0A3EAF0A3E9F0AE
:109E3B007BFF7AC1797E12B61E7BFF7AC1798F12B6
:109E4B00B61E12B92CAD077F8612BED212B90EAD5B
:109E5B00077F8812BED2900016E475F001121ACA61
:109E6B00900016E475F001121ACA12B90EAD077FF5
:109E7B008C12BED212B90EAD077F8412BED212B9AC
:109E8B000EAD077F8212BED212B90EAD077F8012C4
:109E9B00BED2900016E475F001121ACA900016E4B7
:109EAB0075F001121ACA900016E475F001121ACA65
:109EBB00900015E0FBA3E0FAA3E0F9121A3E540759
:069ECB00FD7F8A02BED2F9
:10C0E900AE07EEC4540F540FFE6012EF540FFFE475
:0DC0F900FDEDC39E5007740A2FFF0D80F46B
:01C106002216
:10BA8A00121A9690005EE475F001121ACA90005DCF
:0CBA9A00E0FBA3E0FAA3E0F9121A3EFF63
:10BAA600E4FEFDFCECC39F500B0DED640A7002FD35
:10BAB6000E0C80F0EEC454F054F0FEED540F4EFF21
:01BAC600225D
:0BA3080090005DEBF0A3EAF0A3E9F089
:10A3130012BA97EF54F0C4540F4430FE900060E03B
:10A32300FBA3E0FAA3E0F9EE121A84EF540F4430D2
:10A33300FF900060E0FBA3E0FAA3E0F9900001EFD7
:10A3430012BA8AEF54F0C4540F4430FE900060E018
:10A35300FBA3E0FAA3E0F9900002EE121A96EF5481
:10A363000F443090000312BA8AEF54F0C4540F44E0
:10A3730030FE900060E0FBA3E0FAA3E0F990000454
:10A38300EE121A96EF540F4430900005121A96906D
:06A393000006E4021A9628
:10B27A00E4FFFE900015EDF0900015E0C3946474AD
:10B28A008094804007E0249CF00F80ECEF44301259
:10B29A001A84740129F9E43AFA900015E0C3940A71
:10B2AA00748094804007E024F6F00E80ECEE44307F
:10B2BA00121A84740129F9E43AFA900015E044302C
:0EB2CA00121A84740129F9E43AFAE4021A8493
:0E47B800900015EBF0A3EAF0A3E9F0A3EDF0FA
:1047C600E490001AF0A3F090001DF0A3F0A3F0A36C
:1047D600F090001CEDF054F0F0E0FFC4540FF090A0
:1047E6000025121B73404000007F007E007D807C08
:1047F6004112690AC004C005C006C00790001CE04B
:10480600FCE4121550D003D002D001D0001214409F
:10481600C004C005C006C00790001AE0FCA3E0FD76
:10482600E412154BD003D002D001D00012134F1260
:10483600158490001AEEF0A3EFF0900018E09000B7
:104846001CF0540FF0900025121B73400000007FEF
:10485600007E007D807C4112690AC004C005C00646
:10486600C00790001CE0FCE4121550D003D002D023
:1048760001D000121440C004C005C006C007900055
:104886001AE0FCA3E0FDE412154BD003D002D001E0
:10489600D00012134F12158490001AEEF0A3EFF019
:1048A600900019E090001CF054F0F0E0FFC4540FA3
:1048B600F0900025121B733F8000007F007E007D74
:1048C600807C4112690AC004C005C006C00790007A
:1048D6001CE0FCE4121550D003D002D001D0001227
:1048E6001440C004C005C006C00790001AE0FCA32F
:1048F600E0FDE412154BD003D002D001D000121314
:104906004F12158490001AEEF0A3EFF0900019E014
:1049160090001CF0540FF0900025121B730000004D
:10492600007F007E007D807C4112690AC004C005BC
:10493600C006C00790001CE0FCE4121550D003D05E
:1049460002D001D000121440C004C005C006C00742
:1049560090001AE0FCA3E0FDE412154BD003D00250
:10496600D001D00012134F12158490001AEEF0A356
:10497600EFF0C3EF9410EE9427401074F02FFF74FD
:10498600D83EFE90001DE004F080E790001DE04454
:1049960030FD900015E0FBA3E0FAA3E0F9ED121A52
:1049A60084900016E475F001121ACAC3EF94E8EE7B
:1049B6009403401074182FFF74FC3EFE90001EE016
:1049C60004F080E790001EE04430FD900015E0FB07
:1049D600A3E0FAA3E0F9ED121A84900016E475F04C
:1049E60001121ACAC3EF9464EE94004010749C2F0F
:1049F600FF74FF3EFE90001FE004F080E790001F6A
:104A0600E04430FD900015E0FBA3E0FAA3E0F9EDE9
:104A1600121A84900016E475F001121ACAC3EF94B4
:104A26000AEE9400401074F62FFF74FF3EFE9000CD
:104A360020E004F080E7900020E04430FD9000156F
:104A4600E0FBA3E0FAA3E0F9ED121A84900016E465
:104A560075F001121ACAEF4430FF900015E0FBA36F
:104A6600E0FAA3E0F9EF121A84900016E475F0015B
:104A7600121ACA900015E0FBA3E0FAA3E0F9E402DB
:024A86001A8490
:03679C0090005119
:10679F0012A42AEF54F0C4540F4430FE900051E07D
:1067AF00FBA3E0FAA3E0F9EE121A84900052E4750D
:1067BF00F001121ACAEF540F4430FF900051E0FB62
:1067CF00A3E0FAA3E0F9EF121A84900052E475F0F7
:1067DF0001121ACA7F8912A434EF54F0C4540F4423
:1067EF0030FE900051E0FBA3E0FAA3E0F9EE121A9D
:1067FF0084900052E475F001121ACAEF540F44301E
:10680F00FF900051E0FBA3E0FAA3E0F9EF121A8426
:10681F00900052E475F001121ACA7F8712A434EF68
:10682F0054F0C4540F4430FE900051E0FBA3E0FA43
:10683F00A3E0F9EE121A84900052E475F001121AD7
:10684F00CAEF540F4430FF900051E0FBA3E0FAA3CE
:10685F00E0F9EF121A84900052E475F001121ACA8F
:10686F007F8512A434EF54F0C4540F4430FE9000CF
:10687F0051E0FBA3E0FAA3E0F9EE121A8490005264
:10688F00E475F001121ACAEF540F4430FF90005113
:10689F00E0FBA3E0FAA3E0F9EF121A84900052E4B0
:1068AF0075F001121ACA7F8312A434EF54F0C45446
:1068BF000F4430FE900051E0FBA3E0FAA3E0F9EEA5
:1068CF00121A84900052E475F001121ACAEF540F95
:1068DF004430FF900051E0FBA3E0FAA3E0F9EF1280
:1068EF001A84900052E475F001121ACA900051E018
:0B68FF00FBA3E0FAA3E0F9E4021A8416
:0B60CA00900022EBF0A3EAF0A3E9F045
:1060D5007F8912A434EF54F0C4540F4430FE90006D
:1060E50022E0FBA3E0FAA3E0F9EE121A8490002364
:1060F500E475F001121ACAEF540F4430FF900022E4
:10610500E0FBA3E0FAA3E0F9EF121A84900023E480
:1061150075F001121ACA7F8712A434EF54F0C454E3
:106125000F4430FE900022E0FBA3E0FAA3E0F9EE75
:10613500121A84900023E475F001121ACAEF540F65
:106145004430FF900022E0FBA3E0FAA3E0F9EF1250
:106155001A84900023E475F001121ACA7F8D12A4E7
:1061650034EF54F0C4540F4430FE900022E0FBA3FA
:10617500E0FAA3E0F9EE121A84900023E475F00129
:10618500121ACAEF540F4430FF900022E0FBA3E03F
:10619500FAA3E0F9EF121A84900023E475F00112D6
:1061A5001ACA7F8512A434EF54F0C4540F4430FE4C
:1061B500900022E0FBA3E0FAA3E0F9EE121A849026
:1061C5000023E475F001121ACAEF540F4430FF9012
:1061D5000022E0FBA3E0FAA3E0F9EF121A84900095
:1061E50023E475F001121ACA7F8312A434EF54F028
:1061F500C4540F4430FE900022E0FBA3E0FAA3E074
:10620500F9EE121A84900023E475F001121ACAEF10
:10621500540F4430FF900022E0FBA3E0FAA3E0F91D
:10622500EF121A84900023E475F001121ACA900047
:1062350022E0FBA3E0FAA3E0F9742E121A84900081
:1062450023E475F001121ACA7F8112A434EF54F0C9
:10625500C4540F4430FE900022E0FBA3E0FAA3E013
:10626500F9EE121A84900023E475F001121ACAEFB0
:10627500540F4430FF900022E0FBA3E0FAA3E0F9BD
:10628500EF121A84900023E475F001121ACA9000E7
:0D62950022E0FBA3E0FAA3E0F9E4021A8482
:109C41009000AE12A42A12C0E99000AEE0FBA3E09E
:109C5100FAA3E0F9EF121A849000AFE475F0011253
:109C61001ACA7F8912A43412C0E99000AEE0FBA3A6
:109C7100E0FAA3E0F9EF121A849000AFE475F00165
:109C8100121ACA7F8712A43412C0E99000AEE0FB19
:109C9100A3E0FAA3E0F9EF121A849000AFE475F0A3
:109CA10001121ACA7F8512A43412C0E99000AEE0F5
:109CB100FBA3E0FAA3E0F9EF121A849000AFE47578
:109CC100F001121ACA7F8312A43412C0E99000AEC7
:109CD100E0FBA3E0FAA3E0F9EF121A849000AFE4ED
:069CE10075F001021ACA31
:10AF1C0090000512A42A900005E0FBA3E0FAA3E040
:10AF2C00F990000EEF121A967F8912A43490000546
:10AF3C00E0FBA3E0FAA3E0F990000FEF121A967F62
:10AF4C008712A434900005E0FBA3E0FAA3E0F9908B
:10AF5C000010EF121A967F8512A434900005E0FBC6
:10AF6C00A3E0FAA3E0F9900011EF121A967F831276
:10AF7C00A434900005E0FBA3E0FAA3E0F9900012E2
:04AF8C00EF021A9620
:108FFA0090002212A42A900022E0FBA3E0FAA3E048
:10900A00F9EF121A84900023E475F001121ACA7F4C
:10901A008912A434900022E0FBA3E0FAA3E0F9EF5E
:10902A00121A84900023E475F001121ACA7F87127B
:10903A00A434900022E0FBA3E0FAA3E0F9EF121AAD
:10904A0084900023E475F001121ACA7F8512A434B1
:10905A00900022E0FBA3E0FAA3E0F9EF121A849051
:10906A000023E475F001121ACA7F8312A434900017
:10907A0022E0FBA3E0FAA3E0F9EF121A849000239E
:10908A00E475F001121ACA7F8112A434900022E01A
:10909A00FBA3E0FAA3E0F9EF121A84900023E47527
:1090AA00F001121ACA900022E0FBA3E0FAA3E0F949
:0490BA00E4021A842E
:07C27300C294C296D295228D
:0B8F310090009CEBF0A3EAF0A3E9F035
:108F3C007B017A0079A7129C419000A7E0FF7E008C
:108F4C007C017D6D121AB8AC06AD07A3E075F01E5E
:108F5C00A42DFFEC35F0FEA3E07C002FFFEC3EFED1
:108F6C00E4FD90009F121B6790009CE0FBA3E0FACD
:108F7C00A3E0F9900001121A57FF3395E0FE7C0034
:108F8C007D1E121AB8C006C007121A3EFF3395E0B8
:108F9C00FE0C7D6D121AB8D0E02FFFD0E03EFE9093
:108FAC000002121A57FD3395E0FCEF2DFFEE3CFE4C
:108FBC003395E0FDFC9000A3121B6790009FE0FC32
:108FCC00A3E0FDA3E0FEA3E0FFA3E0F8A3E0F9A378
:108FDC00E0FAA3E0FBC3121B0440089000AD74013F
:0D8FEC00F08005E49000ADF09000ADE0FFD6
:018FF9002255
:10C1A600E4FDFCC3ED9FEC9E50070DBD00010C8025
:01C1B600F296
:01C1B7002265
:04C10700AB07AA06D2
:10C10B00900000C3E5829BE5839A500A7F967E00E0
:06C11B0012C1A6A380ED95
:01C1210022FB
:08BC2F0090001CEEF0A3EFF001
:10BC3700E4A3F0A3F090001CE0FEA3E0FFC3900094
:10BC47001FE09F90001EE09E50177F0A7E0012C1E2
:10BC57000790001FE004F070DC90001EE004F08005
:01BC6700D408
:01BC680022B9
:01C2BE00225D
:10BBB9004572726F72206465207469636B657400E5
:10BBC9000A0D004E756D65726F2064652074696396
:10BBD9006B65743A004E6F206465207469636B6508
:0BBBE90074204845583A00256C750098
:03C06B0012C006FA
:10C06E00D20ED293D292E4FFFE209205C20EC2935C
:0CC07E00220FBF00010EBE04F0BF4CED0D
:01C08A002293
:03C08B0012C006DA
:10C08E00D293D292D20EE4FFFE209205C20EC2933C
:0CC09E00220FBF00010EBE02F0BF8AEDB1
:01C0AA002273
:06C2AB00D29300C29322B1
:10C00600E4FEEEC39408748094805015EF25E0FF9B
:10C0160030D704D2928002C292D29312C2AB0E8063
:01C02600E138
:01C0270022F6
:08C1B800ECFD7C00C293C29271
:0AC1C000D292D29300C292C29322E1
:0AC24D00C293C29200D293D2922253
:10B4E300E4FBEBFDC39408748094805038C293301E
:10B4F300921690020EE04401F0ED9406748094805D
:10B503005006E025E0F0D29320921790020EE0540B
:10B51300FEF0EBD39406748094805006E025E0F0AF
:0CB52300D2930B80BDC29390020EE0FF9B
:01B52F0022F9
:10B3EC0090005DE0FCA3E0FDA3E0FBA3E0FAA3E08A
:07B3FC00F9121A3EFB7FA8C5
:02B40300AA0796
:10B40500AF05A90712C1B8AF0212C06BAF0512C0D4
:10B415006BAF0112C00612C06EAF0312C00612C098
:10B425006E12C24D7F0D7E0012C107D293D2927F5C
:0DB43500627E0012C1A67F627E0002C1A6E9
:04BAC7007C027FA8D6
:02BACB00AB07C7
:10BACD00AF05AA0712C1B8AF0312C08BAF0512C0E4
:10BADD008BAF0212C00612C08E12C1C0EB04FF1252
:10BAED00C00612C06EC29312B4E312C24DD293D2ED
:06BAFD009290020EE0FF32
:01BB0300221F
:0B8CD000900015EBF0A3EAF0A3E9F020
:108CDB00E4900019F0900015E0FBA3E0FAA3E0F993
:108CEB0090000AE4121A96E4900018F0900018E035
:108CFB00FFD39409748094805057900015E0FBA328
:108D0B00E0FAA3E0F98F82758300121A57FF7E00F9
:108D1B00C3943074809480400AD3EF943974809458
:108D2B008040269000197401F07BFF7ABB79B91251
:108D3B00B61E900015E0FBA3E0FAA3E0F912B61EF5
:108D4B007BFF7ABB79C912B61E900018E004F08045
:108D5B009B900019E0700E900015E0FBA3E0FAA3C6
:108D6B00E0F90284E8E4FBFD7C027FA812B403E483
:108D7B00FB7D017C027FA812B403E4FB7402FDFCB3
:108D8B007FA812B403E4FB7D037C027FA812B4031B
:018D9B0022B5
:0B84E80090001AEBF0A3EAF0A3E9F00B
:1084F3007F007E007D007C007BFF7ABB79CC12B6C7
:108503001E90001AE0FBA3E0FAA3E0F912B61E7B6B
:10851300FF7ABB79C912B61E90001AE0FBA3E0FAFA
:10852300A3E0F9127AFC900021121B677BFF7ABB50
:1085330079DE12B61E900021E0FCA3E0FDA3E0FE6D
:10854300A3E0FF7818121B1590001DEFF012B6A4DC
:10855300900021E0FCA3E0FDA3E0FEA3E0FF781080
:10856300121B1590001EEFF012B6A4900021E0FC40
:10857300A3E0FDA3E0FEA3E0FF7808121B15900023
:108583001FEFF012B6A4900021A3A3A3E0FF900075
:1085930020F012B6A47BFF7ABB79C912B61E9000F5
:1085A3001DE0FB7D007C027FA812B40390001EE057
:1085B300FB7D017C027FA812B40390001FE0FB74D3
:1085C30002FDFC7FA812B403900020E0FB7D037C36
:0685D300027FA802B403C0
:10B53000128E6790007A74FFF0A374BBF0A374F0CE
:10B54000F0A3121B677B017A00795912401B7B0123
:10B550007A00795912000E74592FF582E43400F5FF
:10B5600083E4F07B017A00795912B61E7BFF7ABB27
:0BB5700079C912B61E7B017A007959E0
:01B57B0022AD
:108E6700900067121B73000000007D0012BAC7A9AB
:108E7700077D0112BAC7900064EFF07402FDFC7F12
:108E8700A812BACB900065EFF07D0312BAC7900025
:108E970066EFF0AF01A3E0F8A3E0F9A3E0FAA3E0DF
:108EA7004FFFEAFEE9FDE8FC7808121B28900067EF
:108EB700121B67900064E0FF900067E0F8A3E0F9F9
:108EC700A3E0FAA3E04FFFEAFEE9FDE8FC78081209
:108ED7001B28900067121B67900065E0FF900067F2
:108EE700E0F8A3E0F9A3E0FAA3E04FFFEAFEE9FD0B
:108EF700E8FC7808121B28900067121B6790006631
:108F0700E0FFA3E0F8A3E0F9A3E0FAA3E04FFFEA4C
:108F1700FEE9FDE8FC900067121B67900067E0FC24
:098F2700A3E0FDA3E0FEA3E0FFBE
:018F3000221E
:10BDB100128E67EF2401FFE43EFEE43DFDE43CFC0E
:10BDC10090007A74FFF0A374BBF0A374F0F0A31297
:10BDD1001B677B017A00790912401B7B017A00798C
:04BDE100090284E8E7
:10B1B20090009CEEF0A3EFF0A3EBF0A3EAF0A3E97A
:01B1C200F09C
:10B1C30090009CE0FCA3E0FD7FA812BACB90009E08
:10B1D300E0FBA3E0FAA3E0F9EF121A8490009EE0EB
:10B1E300FBA3E0FAA3E0F9121A3EFF90009DE004EE
:10B1F300F0700690009CE004F090009FE475F0016D
:10B20300121ACAEF70BA90009EE0FBA3E0FAA3E023
:05B21300F9E4021A84B9
:10B0010090005DEEF0A3EFF0A3EBF0A3EAF0A3E96B
:10B01100F090005FE0FBA3E0FAA3E0F9121A3E60B2
:10B0210024B40D04E4121A8412B3EC90005EE0041F
:10B03100F0700690005DE004F0900060E475F001AE
:10B04100121ACA80CC12B3EC90005EE004F07006D4
:10B0510090005DE004F0900060E475F001121ACAFE
:0FB0610090005DE0FCA3E0FDE4FB7FA802B403D8
:10BCDB0090001574FFF0E4A3F0A3F0900016E0FCC5
:10BCEB00A3E0FDC39450EC9403501A900015E0FBB5
:10BCFB007FA812B403900017E004F070DE900016DA
:05BD0B00E004F080D609
:01BD10002210
:1085D90050756C7361646F722041637469766F0DB5
:1085E9000A0053656E736F726573204175746F204D
:1085F900792073656E736F72312061637469766F68
:10860900732E0A0D0053656E736F7220616374696E
:10861900766F2073656E736F72312E0A0D00446593
:108629007465637461646F2E2053656E736F722075
:108639004175746F2E0A0D0053656E736F72657301
:10864900206E6F2064657465637461646F732E0AAC
:108659000D005665686963756C6F204573706572A6
:10866900616E646F2053616C69722E0A0D00566544
:10867900686963756C6F2053616C69656E646F2EF0
:1086890020556E206D6F6D656E746F2E0A0D006D2D
:10869900736A5F6C63645F696E666F726D6174693A
:1086A900766F2072656C6F6A006D736A5F6C6364C4
:1086B9005F696E666F726D617469766F20494400F7
:0A8C2C00C10F4102160041021700BB
:07C27A00C2B5C2B6C2B72233
:07C28100C2B5D2B6C2B7221C
:07C28800D2B5D2B6C2B72205
:07C28F00C2B5C2B6D2B7220E
:07C29600D2B5C2B6D2B722F7
:07C29D00C2B5D2B6D2B722F0
:07C2A400D2B5D2B6D2B722D9
:10C1CA0012C28820910B7BFF7A8579D912B61ED2CA
:02C1DA000F2232
:10C0AB00E4FF7DF47C01309115EFFB3395E04B7091
:0EC0BB000DED1D70011CED4C70EC7F0180E856
:01C0C9002254
:10C028007F017DF47C01209118EFFB3395E0FAEB5A
:10C0380064014A700CED1D70011CED4C70E8FF8026
:01C04800E512
:01C0490022D4
:10B848009000377401F012C29D309103E004F012A9
:10B85800C2A4309107900037E02402F0900037E04E
:10B86800640170177D12FC7FA812BACBEF600CF44C
:10B87800900037700404F08002EFF0900037E02465
:02B8880030FF8F
:01B88A00229B
:10C168007D127C007FA812BACBEF6005F470027FC5
:05C1780001EF2430FF7F
:01C17D00229F
:10B3910012C29620912312C2817BFF20910D7A85E2
:10B3A10079EB12B61EE49001AD80227A86790E12F5
:10B3B100B61E9001AD7401801412C2817BFF2091F1
:10B3C100187A86792712B61E9001AD7401F09000AB
:10B3D1001674FFF012C1CA800C7A86794112B61E2A
:0AB3E100E4900016F0900016E0FF63
:01B3EB00223F
:10BCA30012C28F30912012C0ABEF3395E0FEEF64E8
:10BCB300014E700A12B391900015EFF080147BFFD0
:10BCC3007A86795B80067BFF7A86797712B61E7F48
:07BCD3000022900015E0FFC4
:01BCDA002247
:10999300E4900001F0900216E004F0E0C394327406
:1099A3008094805003029A41E4F012C27A3091030A
:1099B300029A36900001E0707A12C028EF3395E0E6
:1099C3004F70707BFF7A86799812B61E900001E083
:1099D300FF12B6A4900217E0FF12B6A4900217E09C
:1099E300702A900001E0702430B30B04F012B57CB0
:1099F3009002177401F012C0ABEF3395E0FEEF64F1
:109A0300014E702F7F0AFE12BC2F8027900217E0B1
:109A13006401701F900001E070197BFF7A8679B2B0
:109A230012B61E30B30DE4900001F0126F88E4907B
:0E9A33000217F012C27A309105E4900001F0A3
:019A41002202
:102ED700494E4752455345205441524A4554412093
:102EE700005441524A4554412053494E20494E47C8
:102EF7005245534F20005441524A455441204E4FAA
:102F0700205245474953545241205041474F2000D2
:102F1700455843454445205449454D504F20444565
:102F27002047524143494120004D454E5355414C9E
:102F3700204E4F204553544120454E205041525179
:102F47005545414445524F2000444952494A41534F
:102F57004520412043414A412000475241434941CE
:102F6700532E2E2E2000475241434941532E2E2ED9
:102F7700004D454E5355414C494441442056454E1A
:102F87004349444120004D454E5355414C49444126
:102F9700442045584345444520484F524152494FE4
:102FA7002041434552515545534520412043414A0D
:102FB7004120004E4F204553204D454E5355414C1F
:102FC70049444144204E49205052455041474F0003
:102FD7004D454E5355414C204E4F205041474F20B1
:102FE7004C4F434143494F4E20484F590053494E98
:102FF7002050524553454E43494120564548494381
:10300700554C415220005441524A455441204E4F9D
:103017002045532044454C20504152515545414489
:1030270045524F20004249454E56454E49444F2E82
:103037002050554C534520454C20424F544F4E206D
:10304700005441524A4554412053494E20464F525D
:103057004D41544F20004655455241204445204C90
:10306700494E45412000554E204D4F4D454E544F3A
:1030770020504F52204641564F5220004E4F204578
:1030870053205441524A455441204D454E535541D2
:103097004C20005441524A45544120494E56414C18
:1030A70049444120005441524A4554412053494E16
:1030B7002053414C494441200052454749535452FB
:1030C7004120494E475245534F20454E20504152CB
:1030D700515545414445524F20004D454E535541AA
:1030E7004C20465545524120444520484F524152B5
:1030F700494F2000484F524152494F204E4F2050D0
:10310700524F4752414D41444F200053494E20549E
:1031170041524A4554415320004249454E56454E77
:1031270049444F20004E4956454C2042414A4F20C2
:103137004445205441524A455441532000613B388D
:10314700353B494E4752455345205441524A455411
:10315700410A0000613B38363B5441524A455441CD
:103167002053494E20494E475245534F0A000061AC
:103177003B38373B5441524A455441204E4F205229
:1031870045474953545241205041474F0A00006177
:103197003B38383B455843454445205449454D50F5
:1031A7004F204445204752414349410A0000613BB3
:1031B70038393B4D454E5355414C204E4F204553D2
:1031C700544120454E2050415251554541444552A6
:1031D7004F0A0000613B39303B444952494A415349
:1031E7004520412043414A410A0000613B39313BB8
:1031F700475241434941532E2E2E200A0000613B7E
:1032070039333B4D454E5355414C204E4F20455386
:10321700544120454E205041525155454144455255
:103227004F0A0000613B39333B4D454E5355414CE6
:10323700204553544120454E205041525155454158
:103247004445524F0A0000613B39343B4D454E53CC
:1032570055414C494441442056454E434944410A4F
:103267000000613B39353B4D454E5355414C494470
:1032770041442045584345444520484F524152490F
:103287004F20414345525155455345204120434125
:103297004A410A0000613B39363B4E4F20455320D7
:1032A7004D454E5355414C49444144204E492050C9
:1032B70052455041474F0A0000613B39373B4D4566
:1032C7004E5355414C204E4F205041474F204C4FB5
:1032D700434143494F4E20484F590A0000613B394B
:1032E700383B53494E2050524553454E43494120A0
:1032F7005645484943554C41520A0000613B39380D
:103307003B5441524A455441204E4F204553204497
:10331700454C20504152515545414445524F0A00B2
:1033270000613B30303B4249454E56454E49444F7C
:103337002E2050554C534520454C20424F544F4E5C
:103347000A0000613B39383B5441524A45544120F9
:1033570053494E20464F524D41544F0A0000613B9E
:1033670039383B4655455241204445204C494E4546
:10337700410A0000613B39383B554E204D4F4D45C2
:103387004E544F20504F52204641564F520A00008C
:10339700613B30383B4E4F204553205441524A45FC
:1033A7005441204D454E5355414C0A0000613B396D
:1033B700383B5441524A45544120494E56414C49A5
:1033C70044410A0000613B39383B5441524A455455
:1033D700412053494E2053414C4944410A00006162
:1033E7003B39383B524547495354524120494E4790
:1033F7005245534F20454E20504152515545414467
:1034070045524F0A0000613B30373BA1204D454EE6
:103417005355414C494441442056454E4349444144
:1034270020210A0000613B30363B4D454E53554144
:103437004C20465545524120444520484F52415261
:10344700494F0A0000613B39383B53494E205441EC
:10345700524A455441530A0000613B39383B4E49B3
:1034670056454C2042414A4F204445205441524A38
:10347700455441530A0000613B39383B484F52419C
:1034870052494F204E4F2050524F4752414D4144D1
:103497004F0A0000613B39383B414345525155457E
:1034A700205355205441524A455441204445204E0B
:1034B7005545564F0A0000613B30313B5245544950
:1034C7005245205355205441524A4554410A000061
:1034D700613B30333B4249454E56454E49444F0ABE
:1034E7000000613B39393B4C4F5445204153494714
:1034F7004E41444F2045535441204C4C454E4F0AB2
:10350700000057494547414E44200047524143492F
:1035170041532000613B39323B57494547414E44AF
:1035270020000A0000613B39313B47524143494182
:10353700532000613B30333B4249454E56454E4987
:10354700444F200020504C414341000A00613B306A
:10355700373B20A1204D454E5355414C49444144EA
:103567002056454E4349444120212056454E434964
:103577004F20323000633B39303B00643B00AA8068
:1035870018010200AA8018010200000000000000D4
:103597000000000000000000000000000000000024
:1035A7000000000000000000000000000000000014
:0F35B7000000AA80280720000000000014000078
:0527900090002AEFF0AB
:10279500782B7C007D017BFF7A3579857E007F066D
:1027A500121A18E4900032F0A3F0C2879001AAE053
:1027B5006003022B5C7B017A00792BFD12B80C902B
:1027C500002AE0121BC42B37012820552840562823
:1027D500605728805828A05928C05A28E05B28A0AF
:1027E5005D29005E29205F2940602960612980AA52
:1027F50029A0AB29C0AC29E0AD2A00AE2A20AF2A1A
:1028050040B02A60B12A80B22AA0B32AC0B52AE016
:10281500B62AF9FA2B18FE00002B597BFF7A2E7980
:10282500D712000E900031EFF0E4FDFF12BF5312F6
:10283500BF4A7BFF7A2E79D7022B547BFF7A2E79FC
:10284500E812000E900031EFF0E4FDFF12BF5312C5
:10285500BF4A7BFF7A2E79E8022B547BFF7A2E79CB
:10286500FD12000E900031EFF0E4FDFF12BF531290
:10287500BF4A7BFF7A2E79FD022B547BFF7A2F7995
:102885001712000E900031EFF0E4FDFF12BF531256
:10289500BF4A7BFF7A2F7917022B547BFF7A2F795A
:1028A5003012000E900031EFF0E4FDFF12BF53121D
:1028B500BF4A7BFF7A2F7930022B547BFF7A2F7921
:1028C5005012000E900031EFF0E4FDFF12BF5312DD
:1028D500BF4A7BFF7A2F7950022B547BFF7A2F79E1
:1028E5006112000E900031EFF0E4FDFF12BF5312AC
:1028F500BF4A7BFF7A2F796D022B547BFF7A2F79A4
:102905007812000E900031EFF0E4FDFF12BF531274
:10291500BF4A7BFF7A2F7978022B547BFF7A2F7978
:102925008D12000E900031EFF0E4FDFF12BF53123F
:10293500BF4A7BFF7A2F798D022B547BFF7A2F7943
:10294500BA12000E900031EFF0E4FDFF12BF5312F2
:10295500BF4A7BFF7A2F79BA022B547BFF7A2F79F6
:10296500D712000E900031EFF0E4FDFF12BF5312B5
:10297500BF4A7BFF7A2F79D7022B547BFF7A2F79B9
:10298500F412000E900031EFF0E4FDFF12BF531278
:10299500BF4A7BFF7A2F79F4022B547BFF7A30797B
:1029A5000D12000E900031EFF0E4FDFF12BF53123F
:1029B500BF4A7BFF7A30790D022B547BFF7A307941
:1029C5002C12000E900031EFF0E4FDFF12BF531200
:1029D500BF4A7BFF7A30792C022B547BFF7A307902
:1029E5004812000E900031EFF0E4FDFF12BF5312C4
:1029F500BF4A7BFF7A307948022B547BFF7A3079C6
:102A05005D12000E900031EFF0E4FDFF12BF53128E
:102A1500BF4A7BFF7A30795D022B547BFF7A307990
:102A25006D12000E900031EFF0E4FDFF12BF53125E
:102A3500BF4A7BFF7A30796D022B547BFF7A307960
:102A45008312000E900031EFF0E4FDFF12BF531228
:102A5500BF4A7BFF7A307983022B547BFF7A30792A
:102A65009A12000E900031EFF0E4FDFF12BF5312F1
:102A7500BF4A7BFF7A30799A022B547BFF7A3079F3
:102A8500AC12000E900031EFF0E4FDFF12BF5312BF
:102A9500BF4A7BFF7A3079AC022B547BFF7A3079C1
:102AA500C012000E900031EFF0E4FDFF12BF53128B
:102AB500BF4A7BFF7A3079C0022B547BFF7A30798D
:102AC500E112000E900031EFF0E4FDFF12BF53124A
:102AD500BF4A7BFF7A3079E1022B547BFF7A30794C
:102AE500FB12000E900031EFF012BF4E7BFF7A30E3
:102AF50079FB805B7BFF7A31791212000E900031F1
:102B0500EFF0E4FDFF12BF5312BF4A7BFF7A317924
:102B150012803C7BFF7A31792012000E900031EF54
:102B2500F0E4FDFF12BF5312BF4A7BFF7A317920D3
:102B3500801D7BFF7A31792C12000E900031EFF069
:102B4500E4FDFF12BF5312BF4A7BFF7A31792C7D1A
:102B55000112B80CD28722C28790002AE0121BC44A
:102B65002E22012BCC552BE3562BFA572C11582C22
:102B750028592C3F5A2C565B2C6D5D2C9B5E2CB234
:102B85005F2CC9602CE0612C84632EA79A2E919C42
:102B95002E4F9E2E65A12CF7AA2D0EAB2D25AC2D03
:102BA5003CAD2D53AE2D6AAF2D81B02D98B12DAF13
:102BB500B22DC6B32DDDB42DF4B52E39B62E0BFAD4
:102BC5002E7BFE00002ECD900032E0FEA3E0AA068B
:102BD500F8AC027D017BFF7A317944022EBB90006F
:102BE50032E0FEA3E0AA06F8AC027D017BFF7A3154
:102BF500795B022EBB900032E0FEA3E0AA06F8AC9A
:102C0500027D017BFF7A317976022EBB900032E09E
:102C1500FEA3E0AA06F8AC027D017BFF7A31799626
:102C2500022EBB900032E0FEA3E0AA06F8AC027DBE
:102C3500017BFF7A3179B5022EBB900032E0FEA30D
:102C4500E0AA06F8AC027D017BFF7A3179DB022E22
:102C5500BB900032E0FEA3E0AA06F8AC027D017B42
:102C6500FF7A3179F2022EBB900032E0FEA3E0AA92
:102C750006F8AC027D017BFF7A327905022EBB9006
:102C85000032E0FEA3E0AA06F8AC027D017BFF7AE4
:102C950032792B022EBB900032E0FEA3E0AA06F8A3
:102CA500AC027D017BFF7A32794E022EBB90003259
:102CB500E0FEA3E0AA06F8AC027D017BFF7A32793B
:102CC50069022EBB900032E0FEA3E0AA06F8AC0232
:102CD5007D017BFF7A32799C022EBB900032E0FEAB
:102CE500A3E0AA06F8AC027D017BFF7A3279C00227
:102CF5002EBB900032E0FEA3E0AA06F8AC027D01EF
:102D05007BFF7A3279E4022EBB900032E0FEA3E02D
:102D1500AA06F8AC027D017BFF7A337903022EBB4C
:102D2500900032E0FEA3E0AA06F8AC027D017BFF2D
:102D35007A337928022EBB900032E0FEA3E0AA0682
:102D4500F8AC027D017BFF7A33794A022EBB9000F5
:102D550032E0FEA3E0AA06F8AC027D017BFF7A33E0
:102D65007965022EBB900032E0FEA3E0AA06F8AC1E
:102D7500027D017BFF7A33797B022EBB900032E026
:102D8500FEA3E0AA06F8AC027D017BFF7A337997B2
:102D9500022EBB900032E0FEA3E0AA06F8AC027D4D
:102DA500017BFF7A3379B4022EBB900032E0FEA39B
:102DB500E0AA06F8AC027D017BFF7A3379CC022EBE
:102DC500BB900032E0FEA3E0AA06F8AC027D017BD1
:102DD500FF7A3379E6022EBB900032E0FEA3E0AA2B
:102DE50006F8AC027D017BFF7A34790D022EBB908B
:102DF5000032E0FEA3E0AA06F8AC027D017BFF7A73
:102E050034792C022EBB900032E0FEA3E0AA06F82E
:102E1500AC027D017BFF7A34794C022EBB900032E7
:102E2500E0FEA3E0AA06F8AC027D017BFF7A3479C7
:102E350060022EBB900032E0FEA3E0AA06F8AC02C9
:102E45007D017BFF7A34797E806C900032E0FEA3B1
:102E5500E0AA06F8AC027D017BFF7A34799B8056A7
:102E6500900032E0FEA3E0AA06F8AC027D017BFFEC
:102E75007A3479BE8040900032E0FEA3E0AA06F8DD
:102E8500AC027D017BFF7A3479D7802A900032E04D
:102E9500FEA3E0AA06F8AC027D017BFF7A3479E94E
:102EA5008014900032E0FEA3E0AA06F8AC027D0192
:102EB5007BFF7A34792C121E51900032E0FEA3E09C
:102EC500AA06F97B0112AAB2E4900032F0A3F0D26F
:012ED5008775
:012ED60022D9
:0E4D3F00900015EFF0A3EBF0A3EAF0A3E9F06B
:104D4D0078197C007D017BFF7A35798B7E007F069B
:104D5D00121A1878207C007D017BFF7A3579917EBF
:104D6D00007F28121A18C2879001AAE06003024E34
:104D7D0016900015E024A56040146003024E131236
:104D8D00B8047BFF7A35790912000E90001FEFF001
:104D9D00900016E0FBA3E0FAA3E0F912000E9000DC
:104DAD001FE02F04F0E4FDFF12BF5390001F12BF50
:104DBD004D7BFF7A357909803812B8047BFF7A353F
:104DCD00791212000E90001FEFF0900016E0FBA379
:104DDD00E0FAA3E0F912000E90001FE02F04F0E4BA
:104DED00FDFF12BF5390001F12BF4D7BFF7A357927
:104DFD00127D0112B80C900016E0FBA3E0FAA3E0BF
:104E0D00F97D0112B80CD28722C287900015E024DB
:104E1D00A5602F24C07003024EDB24FE7003024FE9
:104E2D009524E97003024F2224B6602524A2600365
:104E3D00024FDC78207C007D017BFF7A35791B02E7
:104E4D004EE778207C007D017BFF7A35792C024F6F
:104E5D002E78207C007D017BFF7A35793A12AAA944
:104E6D0020100B12B53078207C007D018011782048
:104E7D007C007D01900016E0FBA3E0FAA3E0F9129F
:104E8D00AAA978207C007D017BFF300B377A35791C
:104E9D004B121E5190004BE4F0A37400F0A374115B
:104EAD00F07B017A00792012B14790004B74FFF02E
:104EBD00A37435F0A37429F07B017A00792012B127
:104ECD0047024FD97A357952121E51024FD97820A7
:104EDD007C007D017BFF7A35793A121E51900016C8
:104EED00E0F9A3E0FAA3E090004BC9F0A3EAF0A328
:104EFD00E9F07B017A00792012B14790004B74FFE5
:104F0D00F0A37435F0A37429F07B017A0079201297
:104F1D00B147024FD978207C007D017BFF7A35792E
:104F2D0054121E51900016E0FBA3E0FAA3E0F91213
:104F3D00000E90001FEFF024FFFFE434FFFE900001
:104F4D0016E0FBA3E0FAA3E0F98F828E83E4121A38
:104F5D0096900016E0F9A3E0FAA3E090004BC9F09B
:104F6D00A3EAF0A3E9F07B017A00792012B1479012
:104F7D00004B74FFF0A37435F0A37429F07B017A14
:104F8D0000792012B147804478207C007D017BFFA1
:104F9D007A35797C121E51900016E0F9A3E0FAA340
:104FAD00E090004BC9F0A3EAF0A3E9F07B017A0091
:104FBD00792012B14790004B74FFF0A37435F0A324
:104FCD007429F07B017A00792012B14712AAACE462
:064FDD00900020F0D287D5
:014FE30022AB
:09BF4A00900031E025E0FFE4FD68
:05BF530090004DEDF02F
:10BF580012BA0E90004EEFF090004DE0600AE4FF38
:08BF680012BA0E90004EEFF03A
:01BF700022AE
:08B804007B017A007919E4FDD3
:0EB80C00900048EBF0A3EAF0A3E9F0A3EDF002
:10B81A00E4A3F0900048E0FBA3E0FAA3E0F990006B
:10B82A004CE0F582758300121A57FF601090004BA6
:0DB83A00E0FD12BF5390004CE004F080D6FA
:01B8470022DE
:0EB77800900022EBF0A3EAF0A3E9F0A3EDF0BD
:10B78600E4900027F0900025E0FF900027E0FEC33C
:10B796009F5024900022E0FBA3E0FAA3E0F98E82FA
:10B7A600758300121A57FF900026E0FD12BF5390D2
:07B7B6000027E004F080CE43
:01B7BD002269
:09AAA900121E517B017A00792094
:0BAAB200900048EBF0A3EAF0A3E9F0ED
:10AABD0012000E90004CEFF0E490004BF090004C23
:10AACD00E0FF90004BE0C39F503DE490004DF090AF
:10AADD00004DE0C39464748094805005E004F080D0
:10AAED00EE900048E0FBA3E0FAA3E0F9A3E0F582C5
:10AAFD00758300121A57FF12BA0E90004DEFF090A9
:10AB0D00004BE004F080B6E490004DF090004DE075
:0EAB1D00C39464748094805005E004F080EED0
:01AB2B002207
:10ADAC0078157C007D017BFF7A3579B97E007F0DAB
:10ADBC00121A189001AAE07022C2877B017A0079DE
:10ADCC001A128FFAC29C7B017A007915E490002646
:10ADDC00F07D0D12B778D29CD28722C287E4900006
:10ADEC0015F078157C007D017BFF7A357982121E77
:10ADFC00517B017A0079171260CA90004B74FFF0F6
:10AE0C00A37435F0A37429F07B017A00791512B183
:0CAE1C00477B017A00791512AAB2D28798
:01AE28002207
:10002600402321246046625E262A003A5B3C253F37
:1000360058545D3D29000D0A0A25733E20002563AC
:10004600002564000D0A0A2041435455414C2049BD
:10005600445F434C49454E54453D25730D0A0A00FD
:100066000D0A0A20444947495445205355204E5508
:1000760045564F2049445F434C49454E54453D0043
:100086000D0A0A204441544F204D4F4449464943E6
:1000960041444F2049445F434C49454E54453D2514
:1000A600730D0A0A000D0A0A2041435455414C209B
:1000B600434F445F5041524B3D25730D0A0A000DD4
:1000C6000A0A20444947495445205355204E554570
:1000D600564F20434F445F5041524B3D000D0A0A94
:1000E600204441544F204D4F444946494341444FD3
:1000F60020434F445F5041524B3D25730D0A0A0081
:100106000D0A0A2041435455414C205449454D504F
:100116004F5F4752414349413D25730D0A0A000D81
:100126000A0A20444947495445205355204E55450F
:10013600564F205449454D504F5F47524143494120
:100146003D000D0A0A204441544F204D4F44494674
:10015600494341444F205449454D504F5F47524112
:100166004349413D25730D0A0A000D0A0A20414301
:100176005455414C2053494E5F434F42524F2049FC
:100186004E484142494C495441444F3D25730D0A5E
:100196000A000D0A0A2041435455414C2053494E4A
:1001A6005F434F42524F204752415449533D2573B6
:1001B6000D0A0A000D0A0A2041435455414C2053AA
:1001C600494E5F434F42524F2047524154495320B4
:1001D600592053414C49444120454C204D49534DEB
:1001E6004F204449413D25730D0A0A000D0A0A2095
:1001F600444947495445205355204E5545564F20AE
:1002060053494E5F434F42524F3D000D0A0A20416B
:10021600435455414C20444542554720494E484198
:1002260042494C495441444F3D25730D0A0A000D7D
:100236000A0A2041435455414C2044454255472023
:10024600484142494C495441444F3D25730D0A0AE1
:10025600000D0A0A2044494749544520454C204E82
:100266005545564F2045535441444F20444520445C
:10027600454255473D000D0A0A2041435455414C1D
:10028600205553455F4C505220494E484142494CF7
:10029600495441444F3D25730D0A0A000D0A0A20B0
:1002A60041435455414C205553455F4C50522048CC
:1002B6004142494C495441444F3D25730D0A0A00B9
:1002C6000D0A0A2044494749544520454C204E55BD
:1002D60045564F2045535441444F204445205553DD
:1002E600455F4C50523D000D0A0A2050414E544184
:1002F6004C4C41204C434420484142494C495441CE
:1003060044413D25730D0A0A000D0A0A2050414E4C
:1003160054414C4C4120524153504245525259206F
:1003260020484142494C49544144413D25730D0AF8
:100336000A000D0A0A2044494749544520454C20E5
:100346004E5545564F2045535441444F2044452071
:100356004C412050414E54414C4C41203D000D0A29
:100366000A2041435455414C20434F4D5041524180
:1003760043494F4E2041435449564120204841426B
:10038600494C49544144413D25730D0A0A000D0A62
:100396000A20455850494445205441524A45544143
:1003A6002050554C53414E444F20424F544F4E0D12
:1003B6000A0A000D0A0A204558504944452054416E
:1003C600524A455441204155544F4D4154494341A9
:1003D6000D0A0A000D0A0A2044494749544520459A
:1003E6004C204E5545564F2045535441444F2044CA
:1003F600454C20455850454449444F523D000D0A4E
:100406000A2041435455414C20414E5449504153D2
:10041600534241434B20494E484142494C4954417D
:10042600444F3D25730D0A0A000D0A0A2041435424
:1004360055414C20414E5449504153534241434B40
:1004460020484142494C495441444F3D25730D0AC9
:100456000A000D0A0A2044494749544520454C20C4
:100466004E5545564F2045535441444F2044452050
:10047600414E5449504153534241434B3D000D0AAE
:100486000A2041435455414C20504C414341204998
:100496004E484142494C495441444F3D25730D0A4B
:1004A6000A000D0A0A2041435455414C20504C4144
:1004B600434120484142494C495441444F3D2573EC
:1004C6000D0A0A000D0A0A204449474954452045A9
:1004D6004C204E5545564F2045535441444F2044D9
:1004E6004520504C4143413D000D0A0A20414354EA
:1004F60055414C20414444524553535F484947486F
:100506005F424F4152443D25730D0A0A000D0A0A07
:1005160020444947495445204C41204E55455641B3
:1005260020414444524553535F484947485F424F30
:100536004152443D000D0A0A2041435455414C2086
:10054600484F524152494F20494E484142494C4931
:100556005441444F3D25730D0A0A000D0A0A2041F5
:10056600435455414C20484F524152494F2048412F
:1005760042494C495441444F3D25730D0A0A000D2A
:100586000A0A2044494749544520454C204E5545C2
:10059600564F2045535441444F20444520484F521E
:1005A6004152494F3D000D0A0A2044696769746546
:1005B60020486F72612030383A3030204D696E75B0
:1005C600746F732044657364653A20000D0A0A202F
:1005D600486F72612050726F6772616D616461204D
:1005E60044657364653A200025633A000D0A0A20C3
:1005F60044696769746520486F72613A4D696E7522
:10060600746F732048617374613A20000D0A0A20E2
:10061600486F72612050726F6772616D616461200C
:1006260048617374613A20000D0A2044657364655D
:10063600202048617374610D0A002025630025633C
:10064600202020000D0A0A20446967697465206C21
:100656006F73206469617320612070726F677261C5
:100666006D6172204C756E6573203D20322C200022
:100676004D6172746573203D20332C204D6965727F
:10068600636F6C6573203D20342C204A7565766552
:1006960073203D20352C2000566965726E657320E7
:1006A6003D20362C2053616261646F203D20372C3B
:1006B60020446F6D696E676F203D2031203A20001F
:1006C6000D0A0A20446961732050726F6772616D6A
:1006D60061646F73203A2000204C756E6573003D8F
:1006E6002025632C00204D617274657300204D69CE
:1006F6006572636F6C657300204A75657665730075
:1007060020566965726E6573002053616261646F7D
:100716000020446F6D696E676F003D2025630020E1
:100726004C756E6573203D2050726F6772616D6106
:10073600646F0D0A00204C756E6573203D204E6F68
:100746002070726F6772616D61646F0D0A00204DD3
:100756006172746573203D2050726F6772616D61BE
:10076600646F0D0A00204D6172746573203D204E42
:100776006F2070726F6772616D61646F0D0A002081
:100786004D696572636F6C6573203D2050726F67AB
:1007960072616D61646F0D0A00204D696572636F49
:1007A6006C6573203D204E6F2070726F6772616DAD
:1007B60061646F0D0A00204A7565766573203D20D9
:1007C60050726F6772616D61646F0D0A00204A7521
:1007D60065766573203D204E6F2070726F6772617B
:1007E6006D61646F0D0A0020566965726E6573202F
:1007F6003D2050726F6772616D61646F0D0A002053
:10080600566965726E6573203D204E6F2070726F5B
:100816006772616D61646F0D0A00205361626164E5
:100826006F203D2050726F6772616D61646F0D0AB3
:10083600002053616261646F203D204E6F2070720C
:100846006F6772616D61646F0D0A0020446F6D6998
:100856006E676F203D2050726F6772616D61646FC5
:100866000D0A0020446F6D696E676F203D204E6F44
:100876002070726F6772616D61646F0D0A000D0AF8
:100886000A2044696769746520656C206E756D651C
:10089600726F2064656C20486F726172696F2061A7
:1008A6002070726F6772616D6172203D20000D0AC3
:1008B6000A2050726F6772616D6172207365677589
:1008C6006E646F20486F726172696F2073693D288C
:1008D6003129206E6F3D2830293D20000D0A0A205F
:1008E60041435455414C205449504F5F5645484961
:1008F60043554C4F204D454E5355414C20494E488B
:100906004142494C495441444F3D25730D0A0A0062
:100916000D0A0A2041435455414C205449504F5F1B
:100926005645484943554C4F204D454E5355414C2D
:1009360020484142494C495441444F3D25730D0AD4
:100946000A000D0A0A2044494749544520454C20CF
:100956004E5545564F2045535441444F204445205B
:100966005449504F5F5645484943554C4F204D45D5
:100976004E5355414C3D000D0A0A20414354554102
:100986004C205449504F5F5645484943554C4F20DB
:10099600204D454E5355414C20484142494C4954FF
:1009A60041444F3D25730D0A0A000D0A0A204143B2
:1009B6005455414C20414E544950415353424143B2
:1009C6004B204D454E5355414C20494E48414249D6
:1009D6004C495441444F3D25730D0A0A000D0A0A3D
:1009E6002041435455414C20414E544950415353A4
:1009F6004241434B204D454E5355414C20484142C0
:100A0600494C495441444F3D25730D0A0A000D0ACD
:100A16000A2044494749544520454C204E554556E1
:100A26004F2045535441444F20444520414E54499C
:100A3600504153534241434B204D454E5355414C33
:100A46003D000D0A0A2041435455414C20414E5465
:100A560049504153534241434B20204D454E535537
:100A6600414C20484142494C495441444F3D25732D
:100A76000D0A0A000D0A0A2041435455414C2046EE
:100A8600454348412056454E43494D49454E544FEE
:100A96002050415353574F52443A25730D0A0A00CA
:100AA6000D0A0A2F3E496420526567697374726F96
:100AB6003A002573000D0A0A2F3E50617373776F53
:100AC60072643A000D0A0A20444947495445204CAD
:100AD60041204E5545564120464543484120444510
:100AE6002056454E43494D49454E544F3D000D0A4B
:100AF6000A2025730D0A0A000D0A0A202558000D42
:100B06000A0A2041435455414C204645434841205A
:100B160044452056454E43494D49454E544F205075
:100B2600524F4752414D414441203D25730D0A0A1B
:100B3600000D0A206E756D65726F2064656C204825
:100B46006F726172696F202070726F6772616D617A
:100B5600646F203D2025630D0A000D0A2020484FB2
:100B6600524152494F20484142494C495441444F11
:100B760020203D204F4E0D0A000D0A204469617366
:100B86002050726F6772616D61646F730D0A000D9C
:100B96000A2020534547554E444F20484F52415254
:100BA600494F20484142494C495441444F20203D39
:100BB600204F4E0D0A000D0A20534547554E444F0F
:100BC60020484F524152494F20484142494C4954CE
:100BD60041444F20203D204F46460D0A000D0A2075
:100BE60020484F524152494F20484142494C4954AE
:100BF60041444F20203D204F46460D0A000D0A2055
:100C060049445F434C49454E54455F50524F475205
:100C1600414D41444F203D2025730D0A000D0A2009
:100C2600434F445F5041524B5F50524F4752414DE4
:100C360041444F203D2025730D0A000D0A205052D5
:100C46004F4752414D41444F204445425547203D70
:100C5600204F4E0D0A000D0A2050524F4752414D6B
:100C660041444F204445425547203D204F46460DBE
:100C76000A000D0A205553455F4C5052203D204F27
:100C860046460D0A000D0A205553455F4C5052202A
:100C96003D204F4E0D0A000D0A2050414E54414C46
:100CA6004C41204C43442050524F4752414D414401
:100CB600410D0A000D0A2050414E54414C4C412032
:100CC600524153504245525259202050524F47529A
:100CD600414D4144410D0A000D0A204558504944F2
:100CE60045205441524A4554412050554C53414E9B
:100CF600444F20424F544F4E0D0A000D0A204558CE
:100D060050494445205441524A4554412041555486
:100D16004F4D41544943410D0A000D0A2020414ED2
:100D26005449504153534241434B203D204F464680
:100D36000D0A000D0A20414E544950415353424179
:100D4600434B203D204F4E0D0A000D0A20504C41CA
:100D56004341203D204F46460D0A000D0A20504CC7
:100D6600414341203D204F4E0D0A000D0A204143CC
:100D76005455414C20414444524553535F484947DA
:100D8600485F424F415244203D2025730D0A000D15
:100D96000A205449504F5F5645484943554C4F2009
:100DA6004D454E5355414C203D204F46460D0A00B9
:100DB6000D0A205449504F5F5645484943554C4FFC
:100DC600204D454E5355414C203D204F4E0D0A00B7
:100DD6000D0A20414E5449504153534241434B2042
:100DE6004D454E5355414C203D204F46460D0A0079
:100DF6000D0A2020414E5449504153534241434B22
:100E0600204D454E5355414C203D204F4E0D0A0076
:100E16000D0A2041435455414C2046454348412044
:100E260044452056454E43494D49454E544F205062
:100E3600524F4752414D414441203D25730D0A0012
:100E46000D0A204E756D65726F20646520746963A6
:100E56006B6574203D25730D0A000D0A2049445F19
:100E6600434C49454E544520202020202020202058
:100E76002D2D2D20434D442030204964656E746924
:100E860066696361646F722064656C20636C696572
:100E96006E7465206D6178696D6F20323535000D91
:100EA6000A20434F445F5041524B202020202020EF
:100EB60020202020202D2D2D20434D44203120455B
:100EC6006C206E756D65726F2064656C2070617242
:100ED600717565616465726F206D6178696D6F20EB
:100EE600323535000D0A20545F47524143494120AF
:100EF600202020202020202020202D2D2D20434D75
:100F0600442032205469656D706F2073696E2063CA
:100F16006F62726F2030302C20206D6178696D6FA2
:100F260020323535000D0A2053494E5F434F425259
:100F36004F202020202020202020202D2D2D204332
:100F46004D44203320496E686162696C697461643E
:100F56006F3D20302C204772617469733D2031202B
:100F66002C2047726174697320792073616C6964FF
:100F76006120656C206D69736D6F206469613D2029
:100F860032000D0A204445425547202020202020CB
:100F960020202020202020202D2D2D20434D4420B0
:100FA6003420486162696C69746172203D20312C7D
:100FB60020496E686162696C69746172203D2030F7
:100FC600000D0A205553455F4C505220202020200A
:100FD600202020202020202D2D2D20434D4420355B
:100FE60020486162696C69746172203D20312C2051
:100FF600496E686162696C69746172203D203000D7
:101006000D0A205449504F5F50414E54414C4C41BB
:101016002020202020202D2D2D20434D4420362019
:1010260050414E54414C4C41204C4344203D3020CD
:1010360050414E54414C4C4120524153504245522E
:1010460052493D31000D0A20434152445F415554F7
:101056004F4D4154494341202020202D2D2D204322
:101066004D44203720424F54544F4E3D3020415579
:10107600544F4D41544943413D31000D0A20414EE4
:101086005449504153534241434B202020202020B5
:10109600202D2D2D20434D44203820486162696C57
:1010A60069746172203D20312C20496E6861626945
:1010B6006C69746172203D2030000D0A20504C414D
:1010C60043412020202020202020202020202020D6
:1010D6002D2D2D20434D44203920486162696C69CD
:1010E600746172203D20312C20496E686162696C02
:1010F60069746172203D2030000D0A20414444523B
:101106004553535F484947485F424F415244202D5B
:101116002D2D20434D44203130204C6120646972CE
:10112600656363696F6E20616C74612064656C2011
:10113600626F6172642064656C206E756D65726F96
:10114600203520616C20392073696E6F207365200D
:10115600757361206465626520697220656E203052
:10116600000D0A20484F524152494F20202020208E
:10117600202020202020202D2D2D20434D442031BD
:10118600312050726F67616D6120313020686F7257
:101196006172696F732064656C203120616C203147
:1011A60030000D0A2056414C4944415F5645484996
:1011B6005F4D454E5355414C2D2D2D20434D44201A
:1011C600313220486162696C69746172203D203158
:1011D6002C20496E686162696C69746172203D20D9
:1011E60030000D0A205553455F4150425F4D454E34
:1011F6005355414C202020202D2D2D20434D442099
:10120600313320486162696C69746172203D203116
:101216002C20496E686162696C69746172203D2098
:1012260030000D0A205645525F50524F4752414DED
:101236004143494F4E2020202D2D2D20434D442043
:101246003134204D756573747261206C6120707243
:101256006F6772616D6163696F6E000D0A20415997
:1012660055444120202020202020202020202020FE
:10127600202D2D2D20434D44203135204D7565738D
:10128600747261206C6F7320636F6D616E646F732F
:10129600000D0A2053414C495220202020202020B6
:1012A600202020202020202D2D2D20434D4420318C
:1012B600362053616C69722064652070726F6772A4
:1012C600616D6163696F6E000D0A0A536973746517
:1012D6006D612064652050726F6772616D6163692C
:1012E6006F6E20457870656469646F72200D0A0D13
:1012F6000A000D0A436F6D616E646F206E6F206584
:1013060078697374652027257327003A5B3C253F6F
:1013160058545D3D2900232A594A41494D45636188
:101326006D696C744B0077727A32357136382D39A7
:101336003166532E4000200D0A00200D0A00220DB2
:021346000A009B
:108C36005401C32F000000000000000000000000E7
:108C4600000000000000004B01B861646D696E0011
:108C56000000000000603601D7300000310000320D
:108C660000003300003400003500003600003700F5
:108C76000038000039000031300031310031320057
:0F8C8600313300313400313500313600313700E1
:0B57090090005DEBF0A3EAF0A3E9F0D4
:1057140078627C007D017BFF7A1379117E007F0B18
:10572400121A18786D7C007D017BFF7A13791C7E38
:10573400007F10121A18787D7C007D017BFF7A139C
:10574400792C7E007F10121A187B017A0079987FD9
:10575400507E0312B1B27B017A007998128F31EF37
:105764003395E0FEEF64014E78627C007D017BFF9F
:1057740060067A00792680047A007931121E5190ED
:10578400005DE0FBA3E0FAA3E0F912000E900060D4
:10579400EFF0E4A3F0900061E0FFC3940A748094F6
:1057A4008040030258FB90005DE0FBA3E0FAA3E015
:1057B400F98F82758300121A57FD7C0074622FF5ED
:1057C40082E43400F583E02DFFEC339001B4F0A3C0
:1057D400EFF07E00540FFFA3EEF0A3EFF0700BE0A8
:1057E40004F070069001B6E004F09001B6E0FEA368
:1057F400E0246CF58274003EF583E07E002DFFEE1C
:105804003C9001B4F0A3EFF07E00540FFFA3EEF040
:10581400A3EFF0700BE004F070069001B6E004F022
:105824009001B6E0FEA3E0247CF58274003EF5838B
:10583400E0FF9001B4E0FEA3E06FFF9001B4EEF04E
:10584400FEA3EFF0D394FFEE940040059001B4E47E
:10585400F09001B4E0FEA3E0FFC3947AEE9400401C
:1058640015D3EF94FFEE9400500CEF547AFF90019F
:10587400B4E4F0A3EFF0C39001B5E094309001B428
:10588400E09400500CA3E02440F09001B4E0340014
:10589400F09001B4E0FEA3E0FFC3945BEE940040FB
:1058A40014D3EF9460EE9400500BE02407F09001C1
:1058B400B4E03400F09001B4E0FEA3E0FFC3943AF6
:1058C400EE94004014D3EF9440EE9400500BE02487
:1058D400F9F09001B4E034FFF09001B4A3E0FF903C
:1058E4000061E0248DF582E43400F583EFF090004C
:1058F40061E004F0025799900061E0248DF582E4A0
:0C5904003400F583E4F07B017A00798D1B
:015910002274
:0BB21800900046EBF0A3EAF0A3E9F081
:10B22300E490004CF090004CE0FFC39412748094BF
:10B23300805041EF75F003A424D7F9740135F0FA77
:10B243007B0178497C007D01121E5178497C007D89
:10B2530001900046E0FBA3E0FAA3E0F9121D68EFBA
:10B263003395E04F700690004CE0FF2290004CE0D5
:06B2730004F080B17FFF32
:01B2790022B2
:08B88B00E0FBA3E0FAA3E0F9E1
:0BB8930090005DEBF0A3EAF0A3E9F0E9
:10B89E0078607C007D017B017A0179B8121E5178A7
:10B8AE00607C007D0190005DE0FBA3E0FAA3E0F96F
:0EB8BE00121D68EF3395E04F7002FF227FFFEE
:01B8CC002259
:06B94F007B017A00793251
:0BB9550090005DEBF0A3EAF0A3E9F026
:10B9600078607C007D017BFF7A13793C7E007F0448
:10B97000121A189000677401F0A37400F0A37460A9
:0FB98000F090005DE0FBA3E0FAA3E0F90287B3CB
:10A4BA00E0FBA3E0FAA3E02FF9EA3EFAE92401F966
:03A4CA00E43AFA77
:0BA4CD00900046EBF0A3EAF0A3E9F0DA
:10A4D80078497C007D017BFF7A1379407E007F04F8
:10A4E800121A18784D7C007D017BFF7A1379447E1F
:10A4F800007F04121A18900046E0FBA3E0FAA3E0DC
:10A50800F9121A3EFFB4200C900047E475F00112CE
:10A518001ACA80E2EF900067B4220D7401F0A374A8
:10A5280000F0A3744DF080167401F0A37400F0A33A
:10A538007449F0900046E0FBA3E0FAA3E0F9128723
:01A54800B35F
:01A5490022EF
:10C13A0090007A7401F0A37401F0A374C3F07BFF3A
:07C14A007A00793C0240215C
:08ABAD007A0079637B01E4FDED
:0EABB500900071EBF0A3EAF0A3E9F0A3EDF03D
:10ABC30012C241900071E0FBA3E0FAA3E0F9EF1297
:10ABD3001A84900074E0701D900071E0FBA3E0FA0A
:10ABE300A3E0F9121A3E90007AF07BFF7A007944D1
:10ABF30012402180057F2A12BA0E900071E0FBA358
:10AC0300E0FAA3E0F9121A3EFF7E00900072E475A9
:10AC1300F001121ACA900071E0FBA3E0FAA3E0F975
:09AC2300E4121A84EF640D70972D
:01AC2C002205
:10977400E4FDFC7FA812BACB7E00900050EEF0A36B
:10978400EFF090007A74FFF0A37400F0A37447F034
:10979400A3EEF0A3EFF07B017A00794612401B9010
:1097A400007A7401F0A37400F0A37446F07BFF7A8E
:1097B40000794A1240217BFF7A0079661240217AAF
:1097C40000794612ABB17B017A0079461289759013
:1097D4000050EEF0A3EFF0FBE4FDFC7FA812B4030D
:1097E400E4FDFC7FA812BACB7E00900050EEF0A3FB
:1097F400EFF090007A74FFF0A37400F0A37447F0C4
:10980400A3EEF0A3EFF07B017A00794612401B909F
:10981400007A7401F0A37400F0A37446F07BFF7A1D
:06982400007986024021DC
:109486007D027C007FA812BACB7E00900050EEF0E1
:10949600A3EFF090007A74FFF0A37400F0A3744772
:1094A600F0A3EEF0A3EFF07B017A00794612401BA1
:1094B60090007A7401F0A37400F0A37446F07BFF69
:1094C6007A0079AB1240217BFF7A0079C5124021E0
:1094D6007B017A007946E4FD12ABB57B017A00790F
:1094E60046128975900050EEF0A3EFF0FB7D027CEA
:1094F600007FA812B4037D027C007FA812BACB7E3F
:1095060000900050EEF0A3EFF090007A74FFF0A305
:109516007400F0A37447F0A3EEF0A3EFF07B017A9A
:1095260000794612401B90007A7401F0A37400F093
:0D953600A37446F07BFF7A0079E302402128
:109543007D047C007FA812BACB7E00900050EEF021
:10955300A3EFF090007A74FFF0A37400F0A37447B4
:10956300F0A3EEF0A3EFF07B017A00794612401BE3
:1095730090007A7401F0A37400F0A37446F07BFFAB
:109583007A0179061240217BFF7A01792512402165
:109593007B017A007946E4FD12ABB57B017A007951
:1095A30046128975900050EEF0A3EFF0FB7D047C2A
:1095B300007FA812B4037D047C007FA812BACB7E7F
:1095C30000900050EEF0A3EFF090007A74FFF0A348
:1095D3007400F0A37447F0A3EEF0A3EFF07B017ADD
:1095E30000794612401B90007A7401F0A37400F0D6
:0D95F300A37446F07BFF7A01794802402105
:106D0C007D067C007FA812BACB7E00900050EEF07E
:106D1C00A3EFF090007A74FFF0A37400F0A3744713
:106D2C00F0A3EEF0A3EFF07B017A00794612401B42
:106D3C00900050E07002A3E0701590007A04F0A36C
:106D4C007400F0A37446F07BFF7A01797080359063
:106D5C000050E07004A3E06401701590007A04F018
:106D6C00A37400F0A37446F07BFF7A017998801429
:106D7C0090007A7401F0A37400F0A37446F07BFFCA
:106D8C007A0179BA1240217BFF7A0179F212402103
:106D9C007B017A007946E4FD12ABB57B017A007970
:106DAC0046128975900050EEF0A3EFF0FB7D067C47
:106DBC00007FA812B4037D067C007FA812BACB7E9C
:106DCC0000900050EEF0A3EFF090007A74FFF0A367
:106DDC007400F0A37447F0A3EEF0A3EFF07B017AFC
:106DEC0000794612401B900050E07002A3E0701531
:106DFC0090007A04F0A37400F0A37446F07BFF7A41
:106E0C000179708035900050E07004A3E06401704B
:106E1C001590007A04F0A37400F0A37446F07BFF85
:106E2C007A017998801490007A7401F0A37400F0C0
:0D6E3C00A37446F07BFF7A0179BA12402161
:016E49002226
:107D08007D087C007FA812BACB7E00900050EEF070
:107D1800A3EFF090007A74FFF0A37400F0A3744707
:107D2800F0A3EEF0A3EFF07B017A00794612401B36
:107D3800900050E07002A3E0701590007A04F0A360
:107D48007400F0A37446F07BFF7A027911801490D6
:107D5800007A7401F0A37400F0A37446F07BFF7AF4
:107D68000279351240217BFF7A0279571240217B34
:107D7800017A007946E4FD12ABB57B017A007946B9
:107D8800128975900050EEF0A3EFF0FB7D087C009F
:107D98007FA812B4037D087C007FA812BACB7E00AE
:107DA800900050EEF0A3EFF090007A74FFF0A37407
:107DB80000F0A37447F0A3EEF0A3EFF07B017A0084
:107DC800794612401B900050E07002A3E0701590B5
:107DD800007A04F0A37400F0A37446F07BFF7A02E3
:107DE8007911801490007A7401F0A37400F0A374E0
:0B7DF80046F07BFF7A02793512402133
:017E0300225C
:107E04007D0A7C007FA812BACB7E00900050EEF071
:107E1400A3EFF090007A74FFF0A37400F0A374470A
:107E2400F0A3EEF0A3EFF07B017A00794612401B39
:107E3400900050E07002A3E0701590007A04F0A363
:107E44007400F0A37446F07BFF7A02797C8014906E
:107E5400007A7401F0A37400F0A37446F07BFF7AF7
:107E64000279A21240217BFF7A0279C61240217B5B
:107E7400017A007946E4FD12ABB57B017A007946BC
:107E8400128975900050EEF0A3EFF0FB7D0A7C00A0
:107E94007FA812B4037D0A7C007FA812BACB7E00AF
:107EA400900050EEF0A3EFF090007A74FFF0A3740A
:107EB40000F0A37447F0A3EEF0A3EFF07B017A0087
:107EC400794612401B900050E07002A3E0701590B8
:107ED400007A04F0A37400F0A37446F07BFF7A02E6
:107EE400797C801490007A7401F0A37400F0A37478
:0B7EF40046F07BFF7A0279A2124021C9
:017EFF002260
:107F00007D0E7C007FA812BACB7E00900050EEF070
:107F1000A3EFF090007A74FFF0A37400F0A374470D
:107F2000F0A3EEF0A3EFF07B017A00794612401B3C
:107F3000900050E07002A3E0701590007A04F0A366
:107F40007400F0A37446F07BFF7A0279ED80149000
:107F5000007A7401F0A37400F0A37446F07BFF7AFA
:107F600003790F1240217BFF7A0379381240217B7D
:107F7000017A007946E4FD12ABB57B017A007946BF
:107F8000128975900050EEF0A3EFF0FB7D0E7C009F
:107F90007FA812B4037D0E7C007FA812BACB7E00AE
:107FA000900050EEF0A3EFF090007A74FFF0A3740D
:107FB00000F0A37447F0A3EEF0A3EFF07B017A008A
:107FC000794612401B900050E07002A3E0701590BB
:107FD000007A04F0A37400F0A37446F07BFF7A02E9
:107FE00079ED801490007A7401F0A37400F0A3740A
:0B7FF00046F07BFF7A03796412402109
:017FFB002263
:109245007D0F7C007FA812BACB7E00900050EEF017
:10925500A3EFF090007A74FFF0A37400F0A37447B5
:10926500F0A3EEF0A3EFF07B017A00794612401BE4
:10927500900050E07002A3E07BFF70067A037994BA
:1092850080047A0379B91240217BFF7A0379DA12D7
:1092950040217B017A007946E4FD12ABB57B017A6A
:1092A500007946128975900050EEF0A3EFF0FB7D32
:1092B5000F7C007FA812B4037D0F7C007FA812BA33
:1092C500CB7E00900050EEF0A3EFF090007A74FF93
:1092D500F0A37400F0A37447F0A3EEF0A3EFF07BC6
:1092E500017A00794612401B900050E07002A3E01D
:1092F5007BFF70067A03799480047A0379B912406A
:019305002146
:019306002244
:107FFC007D107C007FA812BACB7E00900050EEF072
:10800C00A3EFF090007A74FFF0A37400F0A3744710
:10801C00F0A3EEF0A3EFF07B017A00794612401B3F
:10802C00900050E07002A3E0701590007A04F0A369
:10803C007400F0A37446F07BFF7A047904801490EA
:10804C00007A7401F0A37400F0A37446F07BFF7AFD
:10805C0004792F1240217BFF7A0479581240217B3E
:10806C00017A007946E4FD12ABB57B017A007946C2
:10807C00128975900050EEF0A3EFF0FB7D107C00A0
:10808C007FA812B4037D107C007FA812BACB7E00AF
:10809C00900050EEF0A3EFF090007A74FFF0A37410
:1080AC0000F0A37447F0A3EEF0A3EFF07B017A008D
:1080BC00794612401B900050E07002A3E0701590BE
:1080CC00007A04F0A37400F0A37446F07BFF7A04EA
:1080DC007904801490007A7401F0A37400F0A374F6
:0B80EC0046F07BFF7A04792F12402140
:0180F7002266
:1080F8007D117C007FA812BACB7E00900050EEF074
:10810800A3EFF090007A74FFF0A37400F0A3744713
:10811800F0A3EEF0A3EFF07B017A00794612401B42
:10812800900050E07002A3E0701590007A04F0A36C
:108138007400F0A37446F07BFF7A0479848014906D
:10814800007A7401F0A37400F0A37446F07BFF7A00
:108158000479A81240217BFF7A0479CA1240217B56
:10816800017A007946E4FD12ABB57B017A007946C5
:10817800128975900050EEF0A3EFF0FB7D117C00A2
:108188007FA812B4037D117C007FA812BACB7E00B1
:10819800900050EEF0A3EFF090007A74FFF0A37413
:1081A80000F0A37447F0A3EEF0A3EFF07B017A0090
:1081B800794612401B900050E07002A3E0701590C1
:1081C800007A04F0A37400F0A37446F07BFF7A04ED
:1081D8007984801490007A7401F0A37400F0A37479
:0B81E80046F07BFF7A0479A8124021CA
:0181F3002269
:108897007D127C007FA812BACB7E00900050EEF0CC
:1088A700A3EFF090007A74FFF0A37400F0A374476D
:1088B700F0A3EEF0A3EFF07B017A00794612401B9C
:1088C700900050E07002A3E0700690007A048005E3
:1088D70090007A7401F0A37400F0A37446F07BFF54
:1088E7007A0479EF1240217BFF7A05791312402130
:1088F7007B017A007946E4FD12ABB57B017A0079FA
:1089070046128975900050EEF0A3EFF0FB7D127CC4
:10891700007FA812B4037D127C007FA812BACB7E19
:1089270000900050EEF0A3EFF090007A74FFF0A3F0
:108937007400F0A37447F0A3EEF0A3EFF07B017A85
:1089470000794612401B900050E07002A3E07006C9
:1089570090007A04800590007A7401F0A37400F007
:0D896700A37446F07BFF7A0479EF124021E3
:0189740022E0
:10BDE5009000747419F0A37432F0A3744BF0A3742B
:10BDF50064F0A3747DF0A37496F0A374AFF0A374FC
:10BE0500C8F0A374E1F0A374FAF0E4A3F07B017A1F
:03BE15000079743D
:01BE18002207
:0A76A500900061EEF0FCA3EFF0FD91
:1076AF007FA812BACB7E0090006DEEF0A3EFF090A2
:1076BF00007A74FFF0A37400F0A37447F0A3EEF008
:1076CF00A3EFF07B017A00796312401B90006DE00D
:1076DF007002A3E0701590007A04F0A37400F0A379
:1076EF007463F07BFF7A05793B801490007A740104
:1076FF00F0A37400F0A37463F07BFF7A0579611235
:10770F0040217BFF7A0579851240217B017A007930
:10771F0063E4FD12ABB57B017A0079631289759032
:10772F00006DEEF0A3EFF0900061E0FCA3E0FDAB85
:10773F00077FA812B403900061E0FCA3E0FD7FA8CF
:10774F0012BACB7E0090006DEEF0A3EFF090007AAE
:10775F0074FFF0A37400F0A37447F0A3EEF0A3EF4F
:10776F00F07B017A00796312401B90006DE070028C
:10777F00A3E090006F7018F0A3F090007A04F0A3CC
:10778F007400F0A37463F07BFF7A05793B8017E4F4
:10779F00F0A304F090007AF0A37400F0A37463F0E8
:0F77AF007BFF7A05796112402190006FA3E0FF04
:0177BE0022A8
:08591100900061EEF0A3EFF03D
:105919007BFF7A0579AC12402112ABAD7BFF7A058A
:1059290079D2124021900062E02407FD900061E0E5
:105939003400FC900063E0FB7FA812B4039000627E
:10594900E02407FD900061E03400FC7FA812BACB87
:105959007BFF7A00794490007AEFF01240219000A1
:1059690062E02408FD900061E03400FC900064E0EE
:10597900FB7FA812B403900062E02408FD90006147
:10598900E03400FC7FA812BACB7BFF7A0579EE9050
:10599900007AEFF0124021900062E02409FD9000A6
:1059A90061E03400FC900066E0FB7FA812B403902C
:1059B9000062E02409FD900061E03400FC7FA81238
:1059C900BACB7BFF7A00794490007AEFF01240213C
:1059D900900062E0240AFD900061E03400FC900030
:1059E90067E0FB7FA812B403900062E0240AFD90EF
:1059F9000061E03400FC7FA812BACB7BFF7A007902
:105A09004490007AEFF01240217BFF7A0579F21277
:105A1900402112ABAD7BFF7A06791212402190002A
:105A290062E0240BFD900061E03400FC900063E02B
:105A3900FB7FA812B403900062E0240BFD90006183
:105A4900E03400FC7FA812BACB7BFF7A007944903E
:105A5900007AEFF0124021900062E0240CFD9000E2
:105A690061E03400FC900064E0FB7FA812B403906D
:105A79000062E0240CFD900061E03400FC7FA81274
:105A8900BACB7BFF7A0579EE90007AEFF0124021CC
:105A9900900062E0240DFD900061E03400FC90006C
:105AA90066E0FB7FA812B403900062E0240DFD902C
:105AB9000061E03400FC7FA812BACB7BFF7A007941
:105AC9004490007AEFF0124021900062E0240EFD2C
:105AD900900061E03400FC900067E0FB7FA812B4FD
:105AE90003900062E0240EFD900061E03400FC7F29
:105AF900A812BACB7BFF7A00794490007AEFF002C2
:025B0900402139
:0877BF00900074EEF0A3EFF05E
:1077C7007BFF7A06792E124021900075E02407FD91
:1077D700900074E03400FC7FA812BACB7BFF7A06D6
:1077E700794090007AEFF0124021900075E024086C
:1077F700FD900074E03400FC7FA812BACB7BFF7ABF
:107807000579EE90007AEFF0124021900075E024A0
:1078170009FD900074E03400FC7FA812BACB7BFF0F
:107827007A00794490007AEFF0124021900075E0D9
:10783700240AFD900074E03400FC7FA812BACB7BC9
:10784700FF7A06794490007AEFF012402190007594
:10785700E0240BFD900074E03400FC7FA812BACB43
:107867007BFF7A00794490007AEFF0124021900074
:1078770075E0240CFD900074E03400FC7FA812BA78
:10788700CB7BFF7A0579EE90007AEFF012402190DA
:107897000075E0240DFD900074E03400FC7FA81211
:1078A700BACB7BFF7A00794490007AEFF01240213F
:1078B700900075E0240EFD900074E03400FC7FA872
:1078C70012BACB7BFF7A00794490007AEFF002403E
:0178D700218F
:084A8800900061EEF0A3EFF0D5
:104A90007BFF7A06794A1240217BFF7A06797612EB
:104AA00040217BFF7A06799E1240217B017A0079B2
:104AB00063E4FD12ABB57BFF7A0679C6124021E4B0
:104AC00090006EF090006EE0FFC3940874809480B4
:104AD0004003024D3E74632FF582E43400F583E019
:104AE00090006FF0643270437BFF7A0679DE1240EB
:104AF00021900062E02401FD900061E03400FC7B25
:104B0000327FA812B403900062E02401FD9000619E
:104B1000E03400FC7FA812BACB90006DEFF07BFF71
:104B20007A0679E590007AF012402190006EE02438
:104B300063F582E43400F583E090006FF064337035
:104B4000437BFF7A0679EB124021900062E0240259
:104B5000FD900061E03400FC7B337FA812B4039029
:104B60000062E02402FD900061E03400FC7FA812A6
:104B7000BACB90006DEFF07BFF7A0679E590007A72
:104B8000F012402190006EE02463F582E43400F5D9
:104B900083E090006FF0643470437BFF7A0679F312
:104BA000124021900062E02403FD900061E0340097
:104BB000FC7B347FA812B403900062E02403FD90D4
:104BC0000061E03400FC7FA812BACB90006DEFF0DA
:104BD0007BFF7A0679E590007AF012402190006E12
:104BE000E02463F582E43400F583E090006FF06424
:104BF0003570437BFF7A0679FE124021900062E017
