:107B190013031D0B0E00000000000113031D0E1DB1
:107B2900323130373135000000000000000000011B
:10625A004100EB0A41011E0041012A0041011F00D1
:10626A0041013000410127004100EA0042012000BB
:0F627A0000410129064101310341012FF2C10DFD
:03000B000279E88F
:1079E800C0E0C083C0829000EBE014F090011EE07C
:1079F80004F0900121E004F07006900120E004F00A
:097A0800C28DD082D083D0E0329F
:107CB200E58954F04401F589E4F58CF58AD28C22E9
:057D3E00C28DD2A92254
:037D4D00C2A922A6
:0B7CE100127AB0EFF47002EEF460F5D0
:017CEC002275
:0576EA009000BEEFF06E
:1076EF009000BEE0FF127817EF3395E04F6024E46F
:1076FF009000BFF0A3F0C39000C0E094E89000BFEB
:10770F00E0940350DBA3E004F070EB9000BFE004C3
:08771F00F080E39000BEE0FFE2
:01772700223F
:0E744600900048EBF0A3EAF0A3E9F0A3EDF00C
:10745400E4A3F090004BE0FFA3E0C39F5029900009
:1074640048E0FBA3E0FAA3E0F912071CFF1276EA56
:1074740090004DEFF0900049E475F0011207EB9095
:07748400004CE004F080CC95
:01748B0022DE
:107CC200127D48127D00127CEDC283D287C29722B8
:106E4D00E4FDFC7FA812772C900132E4F0A3EFF063
:106E5D007D027C007FA812772C90012DE4F0A3EF2A
:106E6D00F07D047C007FA812772C90012BE4F0A319
:106E7D00EFF07D067C007FA812772C900125E4F0C1
:106E8D00A3EFF09001237401F07D0A7C007FA8121E
:106E9D00772C900122EFF07D0C7C007FA812772CCF
:106EAD00900128EFF07D0E7C007FA812772C9001C9
:046EBD0024EFF022AC
:105C400078007C007D017BFF7A7B79197E007F10D4
:105C50001206F678107C007D017BFF7A7B79297E25
:105C6000007F101206F6E4900020F0127CB2127D44
:105C70003E1279BE127A39127CC2D2AF127B9E7F5D
:105C8000217E00127C46127C077F6112736E127DAA
:105C900007209103123711126E4D1244DFEF70FA94
:105CA0009000EB7405F02080187B017A0079C21215
:105CB0006429900021EFF0FD7B017A0079C212790E
:105CC00060900020E0FF1232E6900020EFF020B359
:105CD000267B017A0079C2126390900021EFF0FDDB
:105CE0007B017A0079C21277DC7B017A0079C2905D
:0C5CF0000021E0FD122DB6126C5180AABC
:057D43004C495645000B
:0E2DB600900022EBF0A3EAF0A3E9F0A3EDF009
:102DC4006419705D900022E0FBA3E0FAA3E0F9121D
:102DD400071C6402704B900002120735644870416E
:102DE400900025E07E0024FFF582EE34FFF5831287
:102DF40007356403702B900022A3A3E02403F9E4B5
:102E04003AFA12485EEF6003023053900022E0FB6E
:102E1400A3E0FAA3E02403F9E43AFA1267900272F9
:102E240027900022E0FBA3E0FAA3E0F912071C6458
:102E3400B6702190011EE0C39414748094805003F2
:102E44000230537FB6122AFCC282E490011EF0C203
:102E540097C28322900022E0FBA3E0FAA3E0F912D8
:102E6400071C64AA705390011EE0C39414748094E8
:102E7400804008E4F0C297D282C283900123E060CC
:102E840003023053900122E064016003023053C313
:102E9400900121E09458900120E094025003023004
:102EA40053E4F0A3F090012304F07BFF7A7D79438F
:102EB4001273C1E4900123F022900025E0FF641313
:102EC4007032900022E0FBA3E0FAA3E0F912071CA1
:102ED40064027020900001120735B44F177E00740D
:102EE400FF2FF582EE34FFF5831207356403700477
:102EF4007FFE801C900025E064017017900022E0A2
:102F0400FBA3E0FAA3E0F912071C64A170057FE7B4
:102F1400022AFC900025E0FF64066003023017904B
:102F24000022E0FBA3E0FAA3E0F912071C640260AC
:102F34000302301790000112073564576003023012
:102F440017FE74FF2FF582EE34FFF5831207356404
:102F5400036003023017900122E06401705F900067
:102F640022A3A3900002120735FD7B017A00792683
:102F740012727E9000297420F0900022E0FBA3E0FE
:102F8400FAA3E0F9900003120735FD900022A3A3F1
:102F9400900004120735900035F07B017A00792AFD
:102FA4001225677B017A0079267FB0126B4D12706F
:102FB40019EF60FA7B017A0079260256DD9000222F
:102FC400E0FBA3E0FAA3E0F9900002120735FD7BD1
:102FD400017A00792612727E9000297420F0900004
:102FE40022E0FBA3E0FAA3E0F9900003120735FD09
:102FF400900022A3A3900004120735900035F07BC3
:10300400017A00792A1225677B017A0079267FB03C
:10301400026B4D900025E0FF640C7033900022E0B9
:10302400FBA3E0FAA3E0F912071C64027021FE740A
:10303400FF2FF582EE34FFF5831207356403700F1A
:0F304400900022A3A3E02401F9E43AFA123C47DA
:01305300225A
:0B642900900022EBF0A3EAF0A3E9F0E2
:10643400E4900026F0A3740BF0900122E064017054
:1064440073900025F0900027E0FF900025E0C39FA3
:106454005053E4FFFEFD30801DED701A0FBF0001A4
:106464000ED3EF9420EE944E40EC7D01900027E093
:10647400900025F080E0ED6401602A900026E0049D
:10648400F01269BC900022E0FBA3E0FAA3E0F9EF6C
:10649400120762900023E475F0011207EB900025C7
:1064A400E004F080A0900022E0FBA3E0FAA3E0F96E
:0964B400E4120762900026E0FFEB
:0164BD0022BC
:0E75E900900053EBF0A3EAF0A3E9F0A3EDF05D
:1075F700E4A3F0900056E0FFA3E0C39F502490005F
:1076070053E0FBA3E0FAA3E0F912071CFF12736E25
:10761700900054E475F0011207EB900057E004F076
:0276270080D110
:01762900223E
:0B56DD00900031EBF0A3EAF0A3E9F02D
:1056E8009000527403F090003414F0127C6A900019
:1056F80035EFF0A37453F0900127E0900052601347
:10570800E0FF04F074342FF582E43400F583744D1F
:10571800F08011E0FF04F074342FF582E43400F5D2
:10572800837443F09000527404F0900031E0FBA3BE
:10573800E0FAA3E0F912071CFF6021900052E02470
:1057480034F582E43400F583EFF0900032E475F02C
:10575800011207EB900052E004F080CE900052E076
:10576800FF04F074342FF582E43400F583743AF0C2
:10577800900052E02434F9E43400FA7B0112353900
:10578800900052E0FF243EF582E43400F583743A39
:10579800F0743F2FF582E43400F5837403F07B0145
:0B57A8007A007934EF240CFD0275E953
:0B3054009001D3EBF0A3EAF0A3E9F039
:10305F009001F77403F09001D914F0127C6A90017B
:10306F00DAEFF0A37453F09001D6E0FBA3E0FAA3DC
:10307F00E0F99000081207359001F76013E0FF04A4
:10308F00F074D92FF582E43401F583744DF080117B
:10309F00E0FF04F074D92FF582E43401F583744313
:1030AF00F09001D3E0FBA3E0FAA3E0F912071CFFB5
:1030BF009001F7E0FE04F074D92EF582E43401F5A7
:1030CF0083EFF09001D4E475F0011207EB9001D378
:1030DF00E0FBA3E0FAA3E0F912071C70C49001F71C
:1030EF00E0FF04F074D92FF582E43401F583743ACC
:1030FF00F09001D6E0FBA3E0FAA3E0F912071CFF62
:10310F00127AF8AD077C00ED54F0FFE4C4F854F0E8
:10311F00C8EFC4540F484430FF9001F7E0FE04F0AD
:10312F0074D92EF582E43401F583EFF0ED540F449A
:10313F0030FF9001F7E0FE04F074D92EF582E434ED
:10314F0001F583EFF09001D6E0FBA3E0FAA3E0F9DD
:10315F00900001120735FF127AF87C00AD07ED548D
:10316F00F0FFE4C4F854F0C8EFC4540F484430FFE4
:10317F009001F7E0FE04F074D92EF582E43401F5E6
:10318F0083EFF0ED540F4430FF9001F7E0FE04F0B1
:10319F0074D92EF582E43401F583EFF09001D6E077
:1031AF00FBA3E0FAA3E0F9900002120735FF127AB1
:1031BF00F87C00AD07ED54F0FFE4C4F854F0C8EF0D
:1031CF00C4540F484430FF9001F7E0FE04F074D967
:1031DF002EF582E43401F583EFF0ED540F4430FF08
:1031EF009001F7E0FE04F074D92EF582E43401F576
:1031FF0083EFF09001D6E0FBA3E0FAA3E0F9900093
:10320F0003120735FF127AF87C00AD07ED54F0FF7B
:10321F00E4C4F854F0C8EFC4540F484430FF900191
:10322F00F7E0FE04F074D92EF582E43401F583EF54
:10323F00F0ED540F4430FF9001F7E0FE04F074D925
:10324F002EF582E43401F583EFF09001D6E0FBA375
:10325F00E0FAA3E0F9900004120735FF127AF87C28
:10326F0000AD07ED54F0FFE4C4F854F0C8EFC454B8
:10327F000F484430FF9001F7E0FE04F074D92EF5AB
:10328F0082E43401F583EFF0ED540F4430FF9001E9
:10329F00F7E0FE04F074D92EF582E43401F583EFE4
:1032AF00F09001F7E0FF04F074D92FF582E43401B8
:1032BF00F583743AF09001F7E0FF04F074D92FF51D
:1032CF0082E43401F5837403F07B017A0179D9909C
:0732DF0001F7E0FD0275E9B3
:1078C3009002167403F09001F814F0127C6A900190
:1078D300F9EFF0A37445F0900127E09001FB7004E9
:1078E30074438002744DF0E4A3F012788C78F87C32
:0678F300017D01020B4BB8
:08000300D294127D53C2942235
:0576AB00900059EFF012
:1076B000E4A3F0A3F0900059E0FFA2E713F030D765
:1076C00004D2958002C29512000390005BE004F0A2
:1076D000700690005AE004F0C390005BE0940890BC
:0976E000005AE06480948040CC63
:0176E900227E
:0A65E000EBF0A3EAF0A3E9F07F8DD1
:0565EA00900056EFF0E7
:1065EF00D2967F037E00127C46900056E0FF127613
:1065FF00ABE4900057F0A3F0900057E0FCA3E0FD50
:10660F00C39408EC64809480504F309516900262CA
:10661F00E04480F0ED9406EC648094805005E0FF38
:10662F00C313F0209520900262E0547FF0D39000C6
:10663F0058E09406900057E06480948050089002D0
:10664F0062E0FFC313F0120003900058E004F070F3
:10665F00A7900057E004F0809FC296900262E0FF7F
:01666F002208
:107A1100900034EFF0A3EDF0D2967F037E00127C4C
:107A210046900034E0FF1276AB900035E0FF900005
:087A310034F01276ABC296227C
:10762A00900032E475F0011207EB900032E475F035
:10763A00011207EB900032E475F0011207EB90009B
:10764A0031E0FBA3E0FAA3E0F912071CFF90000166
:04765A00120735FDE1
:0C765E00EF540FC454F0FFED540F4FFF29
:01766A0022FD
:10485E00E4FF12071CFEC394305003024970EED3DE
:10486E0094394003024970900001120735FEC3943B
:10487E0030500302496DEED39439400302496D90D6
:10488E000003120735FEC39430500302496AEED37B
:10489E009439400302496A900004120735FEC3940E
:1048AE00305003024972EED394394003024972909C
:1048BE000008120735FEC394305003024967EED349
:1048CE009439400302496790000B120735FEC394DA
:1048DE00305003024964EED39439507A90000C1292
:1048EE000735FEC39430406BEED39439506590007B
:1048FE000E120735FEC394304056EED39439505005
:10490E0090000F120735FEC394304041EED3943918
:10491E00503B900011120735FEC39430402CEED35D
:10492E0094395026900012120735FEC3943040176A
:10493E00EED394395011900014120735FEC3943003
:10494E004022EED39439227F01227F01227F012261
:10495E007F01227F01227F01227F01227F01227FA0
:04496E0001227F01A2
:014972002222
:10679000900031EBF0A3EAF0A3E9F0127648AD07E0
:1067A0007F86127A1112762AAD077F88127A1190AD
:1067B0000032E475F0011207EB900032E475F0014D
:1067C0001207EB12762AAD077F8C127A1112762A05
:1067D000AD077F84127A1112762AAD077F82127A72
:1067E0001112762AAD077F80127A11900032E4757B
:1067F000F0011207EB900032E475F0011207EB9004
:106800000032E475F0011207EB900031E0FBA3E0E9
:0F681000FAA3E0F912071C540FFD7F8A027A11D8
:107BB700AE07EEC4540F540FFE6012EF540FFFE4EC
:0D7BC700FDEDC39E5007740A2FFF0D80F4E2
:017BD400228E
:107AF800E4FEFDFCECC39F500B0DED640A7002FD23
:107B08000E0C80F0EEC454F054F0FEED540F4EFF0E
:017B1800224A
:10727E00E4FFFE900031EDF0900031E0C3946474B1
:10728E008094804007E0249CF00F80ECEF44301295
:10729E000762740129F9E43AFA900031E0C3940AC6
:1072AE00748094804007E024F6F00E80ECEE4430BB
:1072BE00120762740129F9E43AFA900031E0443081
:0372CE0002076252
:0E256700900031EBF0A3EAF0A3E9F0A3EDF051
:10257500E4900036F0A3F0900039F0A3F0A3F0A3A7
:10258500F0900038EDF054F0F0E0FFC4540FF090F7
:10259500004112086D404000007F007E007D807C78
:1025A500411240EDC004C005C006C007900038E0E8
:1025B500FCE412022ED003D002D001D00012011E7D
:1025C500C004C005C006C007900036E0FCA3E0FDCE
:1025D500E4120229D003D002D001D00012002D123E
:1025E5000262900036EEF0A3EFF0900034E0900028
:1025F50038F0540FF090004112086D400000007F44
:10260500007E007D807C411240EDC004C005C006FF
:10261500C007900038E0FCE412022ED003D002D0AF
:1026250001D00012011EC004C005C006C0079000FD
:1026350036E0FCA3E0FDE4120229D003D002D0016C
:10264500D00012002D120262900036EEF0A3EFF0DA
:10265500900035E0900038F054F0F0E0FFC4540FDE
:10266500F090004112086D3F8000007F007E007DE4
:10267500807C411240EDC004C005C006C007900033
:1026850038E0FCE412022ED003D002D001D00012B3
:10269500011EC004C005C006C007900036E0FCA3BB
:1026A500E0FDE4120229D003D002D001D0001200CF
:1026B5002D120262900036EEF0A3EFF0900035E0A7
:1026C500900038F0540FF090004112086D000000A2
:1026D500007F007E007D807C411240EDC004C00576
:1026E500C006C007900038E0FCE412022ED003D0EB
:1026F50002D001D00012011EC004C005C006C007EB
:10270500900036E0FCA3E0FDE4120229D003D002DC
:10271500D001D00012002D120262900036EEF0A317
:10272500EFF0C3EF9410EE9427401074F02FFF7470
:10273500D83EFE900039E004F080E7900039E0448F
:1027450030FD900031E0FBA3E0FAA3E0F9ED1207BC
:1027550062900032E475F0011207EBC3EF94E8EEE6
:102765009403401074182FFF74FC3EFE90003AE06D
:1027750004F080E790003AE04430FD900031E0FB42
:10278500A3E0FAA3E0F9ED120762900032E475F0D8
:10279500011207EBC3EF9464EE94004010749C2F74
:1027A500FF74FF3EFE90003BE004F080E790003BA5
:1027B500E04430FD900031E0FBA3E0FAA3E0F9ED41
:1027C500120762900032E475F0011207EBC3EF9433
:1027D5000AEE9400401074F62FFF74FF3EFE900041
:1027E5003CE004F080E790003CE04430FD9000318F
:1027F500E0FBA3E0FAA3E0F9ED120762900032E4F2
:1028050075F0011207EBEF4430FF900031E0FBA3B8
:10281500E0FAA3E0F9EF120762900032E475F001E7
:102825001207EB900031E0FBA3E0FAA3E0F9E40224
:02283500076238
:03353900900053AC
:10353C001265E0EF54F0C4540F4430FE900053E099
:10354C00FBA3E0FAA3E0F9EE120762900054E475D5
:10355C00F0011207EBEF540F4430FF900053E0FBE7
:10356C00A3E0FAA3E0F9EF120762900054E475F0BF
:10357C00011207EB7F891265EAEF54F0C4540F4433
:10358C0030FE900053E0FBA3E0FAA3E0F9EE120743
:10359C0062900054E475F0011207EBEF540F4430C5
:1035AC00FF900053E0FBA3E0FAA3E0F9EF120762EF
:1035BC00900054E475F0011207EB7F871265EAEF77
:1035CC0054F0C4540F4430FE900053E0FBA3E0FAD7
:1035DC00A3E0F9EE120762900054E475F0011207B3
:1035EC00EBEF540F4430FF900053E0FBA3E0FAA341
:1035FC00E0F9EF120762900054E475F0011207EB4A
:10360C007F851265EAEF54F0C4540F4430FE9000ED
:10361C0053E0FBA3E0FAA3E0F9EE1207629000542A
:10362C00E475F0011207EBEF540F4430FF90005398
:10363C00E0FBA3E0FAA3E0F9EF120762900054E478
:10364C0075F0011207EB7F831265EAEF54F0C45456
:10365C000F4430FE900053E0FBA3E0FAA3E0F9EE38
:10366C00120762900054E475F0011207EBEF540F4F
:10367C004430FF900053E0FBA3E0FAA3E0F9EF1213
:10368C000762900054E475F0011207EB7F8112651C
:10369C00EAEF54F0C4540F4430FE900053E0FBA307
:1036AC00E0FAA3E0F9EE120762900054E475F00121
:1036BC001207EBEF540F4430FF900053E0FBA3E0F4
:1036CC00FAA3E0F9EF120762900054E475F00112CE
:1036DC0007EB7F8B1265EAEF540F4430FF900053D9
:1036EC00E0FBA3E0FAA3E0F9EF120762900054E4C8
:1036FC0075F0011207EB900053E0FBA3E0FAA3E096
:05370C00F9E402076270
:106071009000411265E0127BB7900041E0FBA3E084
:10608100FAA3E0F9EF120762900042E475F0011201
:1060910007EB7F891265EA127BB7900041E0FBA311
:1060A100E0FAA3E0F9EF120762900042E475F00113
:1060B1001207EB7F871265EA127BB7900041E0FB84
:1060C100A3E0FAA3E0F9EF120762900042E475F051
:1060D100011207EB7F851265EA127BB7900041E060
:1060E100FBA3E0FAA3E0F9EF120762900042E47526
:1060F100F0011207EB7F831265EA127BB790004132
:10610100E0FBA3E0FAA3E0F9EF120762900042E49A
:0661110075F0010207EB2E
:10587D0090003E1265E090003EE0FBA3E0FAA3E04D
:10588D00F9EF12076290003FE475F0011207EB7F0C
:10589D00891265EA90003EE0FBA3E0FAA3E0F9EF80
:1058AD0012076290003FE475F0011207EB7F87123B
:1058BD0065EA90003EE0FBA3E0FAA3E0F9EF1207E2
:1058CD006290003FE475F0011207EB7F851265EAE7
:1058DD0090003EE0FBA3E0FAA3E0F9EF120762901F
:1058ED00003FE475F0011207EB7F831265EA90002B
:1058FD003EE0FBA3E0FAA3E0F9EF12076290003F50
:10590D00E475F0011207EB7F811265EA90003EE02D
:10591D00FBA3E0FAA3E0F9EF12076290003FE475F4
:10592D00F0011207EB90003EE0FBA3E0FAA3E0F9D3
:04593D00E402076217
:077D0000C294C296D2952245
:0B3F7400900244EBF0A3EAF0A3E9F098
:103F7F00A37401F012071CFF3395E04F70479002B6
:103F8F0044E0FBA3E0FAA3E0F9900001120735FF2C
:103F9F003395E04F702F900002120735FF3395E0F5
:103FAF004F7022900003120735FF3395E04F7015C5
:103FBF00900004120735FF3395E04F7008900247C9
:103FCF0004F00240E77B017A027948126071900198
:103FDF0023E0640170097B017A027948126117901E
:103FEF000244E0FBA3E0FAA3E0F912071CFFFD3344
:103FFF0095E0FC900248E0C39DEC6480F8748098D3
:10400F0050030240D4900248E06F60030240E190F9
:10401F000244E0FBA3E0FAA3E0F990000112073598
:10402F00FFFD3395E0FC900249E0C39DEC6480F8FE
:10403F0074809850030240D4900249E06F600302ED
:10404F0040DF900244E0FBA3E0FAA3E0F990000206
:10405F00120735FFFD3395E0FC90024AE0C39DEC5B
:10406F006480F87480985002805B90024AE06F7011
:10407F005D900244E0FBA3E0FAA3E0F99000031285
:10408F000735FFFD3395E0FC90024BE0C39DEC64D8
:10409F0080F87480985002802C90024BE0B5072C6A
:1040AF00900244E0FBA3E0FAA3E0F99000041207AA
:1040BF0035FF3395E0FE90024CE0C39FEE6480F82D
:1040CF00748098500DE4900247F0800C80048002B9
:0D40DF0080009002477402F0900247E0FF5D
:0140EC0022B1
:10146E00900238ECF0A3EDF0900235EBF0A3EAF029
:03147E00A3E9F0EF
:10148100C209C20A90000B120735FF3395E04F6085
:10149100030219A4900235E0FBA3E0FAA3E0F9905E
:1014A100000C120735FF3395E04F60030219A49039
:1014B100000D120735FF3395E04F60030219A49028
:1014C100000E120735FF3395E04F60030219A49017
:1014D100000F120735FF3395E04F60030219A49006
:1014E1000238E0FEA3E0C3943CEE94009002384041
:1014F1001CA3E0FB7C007D3CFF120796900241EFAC
:10150100F075F03CA4FFC3EB9FA3F0800BA3E09028
:101511000242F0E4900241F0900242E0FF700302C7
:1015210017D9900235E0FBA3E0FAA3E0F99000049B
:10153100120735FEEF2E900240F0D3943B74809455
:101541008050030217AEE0FF75F03C84900243F037
:10155100E0FE75F03CA4FDC3EF9D900240F09000C9
:1015610003120735FFEE2F90023FF0D394177480DA
:101571009480500302178DE0FF75F01884900243A8
:10158100F0E0FE75F018A4FDC3EF9D90023FF090CE
:101591000002120735FFEE2F90023EF0900001127B
:1015A1000735FF3395E0FEEF64014E6024EF6403DD
:1015B1004E601EEF64054E6018EF64074E6012EF37
:1015C10064084E600CEF640A4E6006EF640C4E70C6
:1015D1005790023EE0D3941F748094804032E024FF
:1015E100E1F0900235E0FBA3E0FAA3E0F9900001FD
:1015F1001207350490023DF0D3940C74809480401E
:101601002412071C0490023CF0A37401F002181389
:10161100900235E0FBA3E0FAA3E0F9900001120784
:101621003590023DF002180C900235E0FBA3E0FA80
:10163100A3E0F9900001120735FF3395E0FEEF6456
:10164100044E6012EF64064E600CEF64094E6006B2
:10165100EF640B4E702790023EE0D3941E74809489
:1016610080400DE024E2F09000011207350480066D
:1016710090000112073590023DF002180C900235DE
:10168100E0FBA3E0FAA3E0F9900001120735FF3374
:1016910095E0FEEF64024E600302177012071CFF13
:1016A100FD3395E0FCED24D0FAEC340790023AF0DA
:1016B100A3CAF0C209ED64104C6023EF3395E0FE3C
:1016C100EF64144E6018EF64184E6012EF641C4E04
:1016D100600CEF64204E6006EF64244E7002D20964
:1016E10030094990023EE0FDD3941D7480948090AE
:1016F1000235E0FBA3E0FAA3E0F9401712071C90C2
:10170100023CF090023EE024E3F090000112073524
:1017110004801212071C90023CF090023EEDF09002
:10172100000112073590023DF002181390023EE0CD
:10173100FDD3941C748094804018E024E4F090025E
:1017410035E0FBA3E0FAA3E0F990000112073504AC
:10175100801690023EEDF0900235E0FBA3E0FAA383
:10176100E0F990000112073590023DF002180C904B
:10177100023EE0F0900235E0FBA3E0FAA3E0F9902D
:10178100000112073590023DF002180C900235E07D
:10179100FBA3E0FAA3E0F990000212073590023EA4
:1017A100F090000112073590023DF0805E90023505
:1017B100E0FBA3E0FAA3E0F99000031207359002E1
:1017C1003FF090000212073590023EF090000112A6
:1017D100073590023DF08033900235E0FBA3E0FA3B
:1017E100A3E0F9900004120735900240F090000345
:1017F10012073590023FF090000212073590023E29
:10180100F090000112073590023DF012071C900282
:101811003CF0900241E0FF700302196590023FE045
:101821002FF0E0FFD3941774809480500302196560
:10183100EF75F01884900243F0E0FE75F018A4FDF6
:10184100C3EF9D90023FF090023EE02EF090023DEA
:10185100E0FF6401601EEF64036019EF640560142A
:10186100EF6407600FEF6408600AEF640A6005EF38
:10187100640C703590023EE0D3941F7480948050C4
:1018810003021965E024E1F090023DE004F0E0D3A9
:10189100940C7480948090023CE0400904F0A3749D
:1018A10001F0021965F002196590023DE0FF640440
:1018B100600FEF6406600AEF64096005EF640B7066
:1018C1001F90023EE0D3941E74809480400CE0246B
:1018D100E2F090023DE00402195F90023DE0807E5B
:1018E10090023DE0FA6402707B90023CE0FBFD7CDB
:1018F1000024D0FEEC340790023AF0A3CEF0C209E6
:10190100ED6410601AEBFF64146014EF6418600F4B
:10191100EF641C600AEF64206005EF64247002D25A
:101921000930092490023EE0FFD3941D7480948015
:10193100400BE024E3F090023DE004800990023E78
:10194100EFF090023DEA801690023EE0D3941C74C1
:10195100809480400FE024E4F090023DE004F09098
:10196100023CE0F090023CE0FF900235E0FBA3E096
:10197100FAA3E0F990000BEF12077490023DE0909A
:10198100000C12077490023EE090000D1207749053
:10199100023FE090000E120774900240E090000FA9
:0319A100120774B6
:0119A4002220
:107C4600E4FDFCC3ED9FEC9E50070DBD00010C80CA
:017C5600F23B
:017C5700220A
:047BD500AB07AA064A
:107BD900900000C3E5829BE5839A500A7F967E0058
:067BE900127C46A380EDB2
:017BEF002273
:0878520090002AEEF0A3EFF014
:10785A00E4A3F0A3F090002AE0FEA3E0FFC39000A7
:10786A002DE09F90002CE09E50177F0A7E00127B2D
:10787A00D590002DE004F070DC90002CE004F0803C
:01788A00D429
:01788B0022DA
:017D5300220D
:1077A1004572726F72206465207469636B65740041
:1077B1000A0D004E756D65726F20646520746963F2
:1077C1006B65743A004E6F206465207469636B6564
:0B77D10074204845583A00256C7500F4
:037B3900127AD6E7
:107B3C00D20ED293D292E4FFFE209205C20EC293D3
:0C7B4C00220FBF00010EBE04F0BF4CED84
:017B5800220A
:037B5900127AD6C7
:107B5C00D293D292D20EE4FFFE209205C20EC293B3
:0C7B6C00220FBF00010EBE02F0BF8AED28
:017B780022EA
:067D3800D29300C2932269
:107AD600E4FEEEC39408748094805015EF25E0FF11
:107AE60030D704D2928002C292D293127D380E8091
:017AF600E1AE
:017AF700226C
:087C5800ECFD7C00C293C29216
:0A7C6000D292D29300C292C2932286
:097CF700C293C292D293D29222F0
:1072D100E4FBEBFDC39408748094805038C2933072
:1072E1009216900257E04401F0ED94067480948068
:1072F1005006E025E0F0D293209217900257E05417
:10730100FEF0EBD39406748094805006E025E0F003
:0C731100D2930B80BDC293900257E0FFA6
:01731D00224D
:07748C007D02FB7C017FA8DB
:02749300AA0746
:10749500AF05A907127C58AF02127B39AF05127BE5
:1074A50039AF01127AD6127B3CAF03127AD6127B22
:1074B5003C127CF77F0D7E00127BD5D293D2927F52
:0D74C500627E00127C467F627E00027C46E3
:047728007C017FA8B9
:02772C00AB07A9
:10772E00AF05AA07127C58AF03127B59AF05127B27
:10773E0059AF02127AD6127B5C127C60EB04FF12F8
:10774E007AD6127B3CC2931272D1127CF7D293D2AC
:06775E0092900257E0FFCB
:017764002202
:0B3C4700900034EBF0A3EAF0A3E9F0DA
:103C5200E490003CF090004112086D0000000090DA
:103C62000034E0FBA3E0FAA3E0F990000AE41207B3
:103C720074E4900037F0900037E0FFD39409748029
:103C820094805057900034E0FBA3E0FAA3E0F98F50
:103C920082758300120735FF7E00C39430748094CE
:103CA20080400AD3EF943974809480402690003C7F
:103CB2007401F07BFF7A7779A11273C1900034E02E
:103CC200FBA3E0FAA3E0F91273C17BFF7A7779B123
:103CD2001273C1900037E004F0809B90003CE060DA
:103CE20003023DD17BFF7A7779B41273C19000341D
:103CF200E0FBA3E0FAA3E0F91273C17BFF7A7779C4
:103D0200B11273C1900034E0FBA3E0FAA3E0F91210
:103D12004A8390003D1208617BFF7A7779C612735D
:103D2200C190003DE0FCA3E0FDA3E0FEA3E0FF782C
:103D32001812080FA3120861900041A3A3A3E0FF89
:103D4200900038F01273FF90003DE0FCA3E0FDA369
:103D5200E0FEA3E0FF781012080FA31208619000A2
:103D620041A3A3A3E0FF900039F01273FF90003D3E
:103D7200E0FCA3E0FDA3E0FEA3E0FF780812080F39
:103D8200A3120861900041A3A3A3E0FF90003AF0C0
:103D92001273FF90003DA3A3A3E0FF90003BF0123B
:103DA20073FF7BFF7A7779B11273C1900038E07D9F
:103DB2000012748E900039E0FB7401FDFC7FA812A2
:103DC200749390003AE012748C90003BE08015E40A
:103DD200FBFD12748FE4FB04FDFC7FA8127493E4D4
:0A3DE20012748CE4FB7D0312748F51
:013DEC0022B4
:10788C001257B390009174FFF0A37477F0A374D8DF
:10789C00F0A31208617B017A00792C121A0A7B0181
:1078AC007A00792C1273C17BFF7A7779B11273C18C
:0678BC007B017A00792C2B
:0178C20022A3
:1057B30090003A12086D000000007D00127728A9BE
:1057C300077401FDFC7FA812772C900037EFF07D62
:1057D30002127728900038EFF07D031277289000AB
:1057E30039EFF0AF01A3E0F8A3E0F9A3E0FAA3E0F7
:1057F3004FFFEAFEE9FDE8FC780812082290003A20
:10580300120861900037E0FF90003AE0F8A3E0F956
:10581300A3E0FAA3E04FFFEAFEE9FDE8FC780812F3
:10582300082290003A120861900038E0FF90003A95
:10583300E0F8A3E0F9A3E0FAA3E04FFFEAFEE9FDF5
:10584300E8FC780812082290003A120861900039A7
:10585300E0FFA3E0F8A3E0F9A3E0FAA3E04FFFEA37
:10586300FEE9FDE8FC90003A12086190003AE0FC82
:09587300A3E0FDA3E0FEA3E0FFA9
:01587C002209
:1078F9001257B3EF2401FFE43EFEE43DFDE43CFCF6
:1079090090009174FFF0A37477F0A374D8F0A312D8
:1079190008617B017A007929121A0A7B017A0079B8
:0479290029023C47AC
:105F1B0053656E736F726573204175746F207920B2
:105F2B0073656E736F72312061637469766F732E54
:105F3B000A0D0053656E736F722061637469766F1F
:105F4B002073656E736F72312E0A0D004465746594
:105F5B00637461646F2E2053656E736F722041758D
:105F6B00746F2E0A0D0053656E736F726573206E1E
:105F7B006F2064657465637461646F732E0A0D0022
:105F8B005665686963756C6F204573706572616ED9
:105F9B00646F2053616C69722E0A0D005665686937
:105FAB0063756C6F2053616C69656E646F2E205541
:0D5FBB006E206D6F6D656E746F2E0A0D0007
:04628900410263006B
:077D0700C2B5C2B6C2B722EB
:077D0E00C2B5D2B6C2B722D4
:077D1500D2B5D2B6C2B722BD
:077D1C00C2B5C2B6D2B722C6
:077D2300D2B5C2B6D2B722AF
:077D2A00C2B5D2B6D2B722A8
:077D3100D2B5D2B6D2B72291
:107B7900E4FF7DF47C01309115EFFB3395E04B7008
:0E7B89000DED1D70011CED4C70EC7F0180E8CD
:017B970022CB
:107C6A007F31127D2A3091010F127D313091020F3E
:017C7A000FFA
:017C7B0022E6
:10701900127D1C30915D127B79EF3395E0FEEF64B0
:10702900014E7047127D23209123127D0E7BFF2094
:10703900910D7A5F791B1273C1E490012780227A3E
:107049005F793E1273C190012774018014127D0E7D
:107059007BFF2091107A5F79571273C190012774D1
:1070690001F07FFF227A5F7971800E7BFF7A5F7969
:0F7079008B80067BFF7A5F79A71273C17F00229D
:106C5100E4900022F0127D07209169900263E070B8
:106C610016900022E0701030B35A04F0127992901D
:106C710002637401F0804D900263E064017016902C
:106C81000022E0701030B33C04F0124973900263AB
:106C91007402F0802F900263E0640270279000225A
:106CA100E0702130B31E04F07D0C7C007FA81277C8
:106CB1002CEF640170047F5380027F4E126934E42B
:0F6CC100900263F0127D07309105E4900022F0FD
:016CD00022A1
:101E2800643B686F7261004552524F523A205641E6
:101E38004C4944414E444F20504C4143412E2E2E94
:101E480020004552524F523A204C4F4F50312053A8
:101E5800494E2050524553454E4349412056454826
:101E68004943554C415220004552524F523A205452
:101E780041524A45544120494E56414C494441201B
:101E8800005441524A455441204E4F204553204466
:101E9800454C20504152512E20005441524A45543D
:101EA800412053494E20464F524D41544F20005433
:101EB80041524A455441204E4F20524547495354B8
:101EC8005241205041474F20004558434544452042
:101ED8005449454D504F20444520475241434941BC
:101EE80020004655455241204445204C494E454125
:101EF80020004249454E56454E49444F2000455220
:101F0800524F523A2053494E20494E475245534F5B
:101F18002000613B39383B4552524F522056414CC4
:101F28004944414E444F20504C414341200A0D0042
:101F380000613B32373BA1204E4F20524547495361
:101F4800545241205041474F2021200A0D00006182
:101F58003B39383B53494E2050524553454E43492F
:101F680041205645484943554C4152200A0D00002E
:101F7800613B39383B5441524A45544120494E56F9
:101F8800414C494441200A0D0000613B39383B452A
:101F980052524F523A20414E5449434F4C4C200A1A
:101FA8000D0000613B39383B4552524F523A20539D
:101FB800454C4543542043415244200A0D000061DA
:101FC8003B39383B43415244204E4F20455320442F
:101FD8004520504152515545414445524F200A0D24
:101FE8000000613B33303B5441524A455441205331
:101FF800494E20494E475245534F200A0D00006173
:102008003B32373B5441524A455441204E4F2052AF
:1020180045474953545241205041474F0A0D00004B
:10202800613B32383B455843454445205449454D6A
:10203800504F20444520475241434941200A0D0052
:1020480000613B39383B4552524F523A2047524182
:10205800424143494F4E204445204441544F532068
:102068000A0D0000613B32373B444952494A41530B
:102078004520412043414A41200A0D000020204DBF
:10208800454E5355414C494441442056454E4349D9
:102098004441202120202000202056454E43494F0E
:1020A800203A20323000613B39383B53494E2052A8
:1020B8004553505545535441200A0D000054415290
:1020C8004A455441204154415343414441200A0D5B
:1020D8000000613B39383B53414C49444120494E4B
:1020E80056414C494441200A0D0000613B32363BC1
:1020F800475241434941532E2E2E200A0D000061BC
:102108003B39393B4655455241204445204C494EC0
:1021180045410A0D0000613B30303B4249454E566F
:10212800454E49444F2E2050554C534520454C2090
:10213800424F544F4E0A0D0000613B39393B4E4F18
:10214800204F4C5649444520504153415220504F4E
:102158005220454C2050554E544F20444520504164
:10216800474F0A0D0000613B39393B4249454E56FD
:10217800454E49444F0A0D0000613B39373B4D45F8
:102188004E5355414C494441442043414E43454CEC
:10219800414441202E2E2E20444952494A4153455C
:1021A80020412041444D494E495354524143494FDF
:1021B8004E0A0D0000613B39393B4E4956454C20CB
:1021C80042414A4F204445205441524A45544153C4
:1021D8000A0D000057494547414E442000AA80286F
:1021E80007200000000000140000AA801801020067
:0621F800AA80180102009C
:097A890090003FE025E0FFE4FD60
:057A9200900045EDF03D
:107A97001276EA900046EFF0900045E0600AE4FFB6
:087AA7001276EA900046EFF0B0
:017AAF0022B4
:0E776500900040EBF0A3EAF0A3E9F0A3EDF0F2
:10777300E4A3F0900040E0FBA3E0FAA3E0F990005B
:1077830044E0F582758300120735FF6010900043D3
:0D779300E0FD127A92900044E004F080D6F0
:0177A00022C6
:0E74D20090003EEBF0A3EAF0A3E9F0A3EDF08A
:1074E000E4900043F0900041E0FF900043E0FEC3D1
:1074F0009F502490003EE0FBA3E0FAA3E0F98E82C7
:10750000758300120735FF900042E0FD127A9290D9
:077510000043E004F080CE0F
:017517002251
:0B6FA700900040EBF0A3EAF0A3E9F03B
:106FB20012000E900043EFF01273FF127C29900032
:106FC20040E0FBA3E0FAA3E0F91273C1127C29E4CA
:106FD200900264F0900043E02401FFE433FE90024B
:106FE20064E0C39FEE6480F874809850299000405A
:106FF200E0FBA3E0FAA3E0F912071CFF1276EA9085
:107002000044EFF0900041E475F0011207EB9002AA
:0670120064E004F080BE02
:017018002255
:1072270078317C007D017BFF7A2179E57E007F0D37
:107237001206F6900124E07022C2877B017A00795A
:107247003612587DC29C7B017A007931E490004266
:10725700F07D0D1274D2D29CD28722C287E49000AF
:1072670031F07B017A00793112587D7BFF7A1E79E4
:0672770028126FA7D28768
:01727D0022EE
:052AFC00900038EFF02E
:102B010078397C007D017BFF7A2179F27E007F0696
:102B11001206F6C287900124E06003022C947B0127
:102B21007A007939FD127765900038E01208BE2BE2
:102B310052502C31B62BD2DF2B72E02B92E12BB20B
:102B4100E52C6FE62BF2E72C12E82C50FE00002C4E
:102B5100917BFF7A1E792F12000E90003FEFF0E477
:102B6100FDFF127A92127A897BFF7A1E792F022C4D
:102B71008C7BFF7A1E794A12000E90003FEFF0E441
:102B8100FDFF127A92127A897BFF7A1E794A022C12
:102B91008C7BFF7A1E797012000E90003FEFF0E4FB
:102BA100FDFF127A92127A897BFF7A1E7970022CCC
:102BB1008C7BFF7A1E798912000E90003FEFF0E4C2
:102BC100FDFF127A92127A897BFF7A1E7989022C93
:102BD1008C7BFF7A1E79A212000E90003FEFF0E489
:102BE100FDFF127A92127A897BFF7A1E79A2022C5A
:102BF1008C7BFF7A1E79B712000E90003FEFF0E454
:102C0100FDFF127A92127A897BFF7A1E79B7022C24
:102C11008C7BFF7A1E79D112000E90003FEFF0E419
:102C2100FDFF127A92127A897BFF7A1E79D1805B3D
:102C31007BFF7A1E79EA12000E90003FEFF0E4FD6F
:102C4100FF127A92127A897BFF7A1E79EA803C7BA5
:102C5100FF7A1E79FA12000E90003FEFF0E4FDFFBB
:102C6100127A92127A897BFF7A1E79FA801D7BFF94
:102C71007A1F790612000E90003FEFF0E4FDFF127B
:102C81007A92127A897BFF7A1F79067D0112776524
:102C9100D28722C287900038E01208BE2D8A302DDB
:102CA10092392DA2432CE9502D9A582DAA612CF26C
:102CB100A12D82B62CFBE02D04E12D0DE22D16E3B2
:102CC1002D04E42D1FE52D28E62D31E72D39E82DC2
:102CD10041E92D49EB2D51EC2D62ED2D6AEF2D725D
:102CE100F82D7AFF00002DB37BFF7A1F791A022D90
:102CF100B07BFF7A1F7939022DB07BFF7A1F79579C
:102D0100022DB07BFF7A1F7978022DB07BFF7A1FED
:102D11007992022DB07BFF7A1F79AB022DB07BFF38
:102D21007A1F79C7022DB07BFF7A1F79EA022DB095
:102D31007BFF7A20790780777BFF7A207928806F63
:102D41007BFF7A20794980677BFF7A20796C805FED
:102D51007BFF7A207985126FA77BFF7A2079A0808B
:102D61004E7BFF7A2079AE80467BFF7A2079C58041
:102D71003E7BFF7A2079DA80367BFF7A2079F380F7
:102D81002E7BFF7A21790780267BFF7A21791E80AD
:102D91001E7BFF7A21794180167BFF7A21796E8033
:102DA1000E7BFF7A21798180067BFF7A2179BD1222
:042DB1006FA7D287AF
:012DB50022FB
:0E6B4D00900031EFF0A3EBF0A3EAF0A3E9F023
:106B5B0078357C007D017BFF7A2179F87E007F06FA
:106B6B001206F6C287900031E0245070557B017AF3
:106B7B00007935E4FD1277657BFF7A2179DC120011
:106B8B000E90003BEFF0900032E0FBA3E0FAA3E0A5
:106B9B00F912000E90003BE02F04F0E4FDFF127A97
:106BAB009290003B127A8C7BFF7A2179DC7D01126B
:106BBB007765900032E0FBA3E0FAA3E0F97D0112C8
:046BCB007765D28791
:016BCF0022A3
:100BDF000D0A0A25733E20002563002564000D0AC7
:100BEF000A2041435455414C2049445F434C4945E9
:100BFF004E54453D25730D0A0A000D0A0A2044493B
:100C0F0047495445205355204E5545564F2049448A
:100C1F005F434C49454E54453D000D0A0A2044415F
:100C2F00544F204D4F444946494341444F20494476
:100C3F005F434C49454E54453D25730D0A0A000D3F
:100C4F000A0A2041435455414C20434F445F5041C1
:100C5F00524B3D25730D0A0A000D0A0A20444947DD
:100C6F00495445205355204E5545564F20434F4428
:100C7F005F5041524B3D000D0A0A204441544F2012
:100C8F004D4F444946494341444F20434F445F50E1
:100C9F0041524B3D25730D0A0A000D0A0A204143AC
:100CAF005455414C205449454D504F5F4752414395
:100CBF0049413D25730D0A0A000D0A0A2044494790
:100CCF00495445205355204E5545564F20544945BC
:100CDF004D504F5F4752414349413D000D0A0A2095
:100CEF004441544F204D4F444946494341444F20BE
:100CFF005449454D504F5F4752414349413D25733C
:100D0F000D0A0A000D0A0A2041435455414C205345
:100D1F00494E5F434F42524F20494E484142494C42
:100D2F00495441444F3D25730D0A0A000D0A0A200C
:100D3F0041435455414C2053494E5F434F42524F0C
:100D4F00204752415449533D25730D0A0A000D0A9D
:100D5F000A2041435455414C2053494E5F434F4263
:100D6F00524F2047524154495320592053414C4927
:100D7F00444120454C204D49534D4F204449413D5E
:100D8F0025730D0A0A000D0A0A20444947495445A4
:100D9F00205355204E5545564F2053494E5F434FD4
:100DAF0042524F3D000D0A0A2041435455414C20F9
:100DBF00444542554720494E484142494C495441C8
:100DCF00444F3D25730D0A0A000D0A0A2041435472
:100DDF0055414C20444542554720484142494C49D2
:100DEF005441444F3D25730D0A0A000D0A0A204451
:100DFF00494749544520454C204E5545564F2045AF
:100E0F00535441444F2044452044454255473D00EB
:100E1F000D0A0A2041435455414C205553455F4C10
:100E2F00505220494E484142494C495441444F3D4C
:100E3F0025730D0A0A000D0A0A2041435455414CEF
:100E4F00205553455F4C505220484142494C49541C
:100E5F0041444F3D25730D0A0A000D0A0A204449EB
:100E6F004749544520454C204E5545564F20455334
:100E7F005441444F204445205553455F4C50523DFB
:100E8F00000D0A0A2041435455414C20434F4D5009
:100E9F0041524143494F4E20414354495641204905
:100EAF004E484142494C495441444F3D25730D0A28
:100EBF000A000D0A0A2041435455414C20434F4D1F
:100ECF005041524143494F4E2041435449564120CE
:100EDF0020484142494C495441444F3D25730D0A26
:100EEF000A000D0A0A2044494749544520454C2021
:100EFF004E5545564F2045535441444F20444520AD
:100F0F00434F4D5041524143494F4E204143544965
:100F1F005641203D000D0A0A2041435455414C20B3
:100F2F00434F4D5041524143494F4E204143544945
:100F3F0056412020494E484142494C495441444F63
:100F4F003D25730D0A0A000D0A0A2050414E5441E7
:100F5F004C4C41204C434420484142494C49544158
:100F6F0044413D25730D0A0A000D0A0A2050414ED7
:100F7F0054414C4C412052415350424552525920FA
:100F8F0020484142494C49544144413D25730D0A83
:100F9F000A000D0A0A2044494749544520454C2070
:100FAF004E5545564F2045535441444F20444520FC
:100FBF004C412050414E54414C4C41203D000D0AB4
:100FCF000A2041435455414C20434F4D504152410B
:100FDF0043494F4E204143544956412020484142F6
:100FEF00494C49544144413D25730D0A0A000D0AED
:100FFF000A20455850494445205441524A455441CE
:10100F002050554C53414E444F20424F544F4E0D9C
:10101F000A0A000D0A0A20455850494445205441F8
:10102F00524A455441204155544F4D415449434133
:10103F000D0A0A000D0A0A20444947495445204524
:10104F004C204E5545564F2045535441444F204454
:10105F00454C20455850454449444F523D000D0AD8
:10106F000A2041435455414C20414E54495041535D
:10107F00534241434B20494E484142494C49544108
:10108F00444F3D25730D0A0A000D0A0A20414354AF
:10109F0055414C20414E5449504153534241434BCB
:1010AF0020484142494C495441444F3D25730D0A54
:1010BF000A000D0A0A2044494749544520454C204F
:1010CF004E5545564F2045535441444F20444520DB
:1010DF00414E5449504153534241434B3D000D0A39
:1010EF002049445F434C49454E5445202020202D34
:1010FF002D2D20434D442030204964656E74696660
:10110F00696361646F722064656C20636C69656EDE
:10111F007465206D6178696D6F20323535000D0A69
:10112F0020434F445F5041524B2020202020202D40
:10113F002D2D20434D44203120456C206E756D655B
:10114F00726F2064656C2070617271756561646582
:10115F00726F206D6178696D6F20323535000D0A21
:10116F0020545F4752414349412020202020202D09
:10117F002D2D20434D442032205469656D706F2012
:10118F0073696E20636F62726F2030302C20206D78
:10119F006178696D6F20323535000D0A2053494E45
:1011AF005F434F42524F20202020202D2D2D2043D2
:1011BF004D44203320496E686162696C69746164C3
:1011CF006F3D20302C204772617469733D203120B0
:1011DF002C2047726174697320792073616C696484
:1011EF006120656C206D69736D6F206469613D20AE
:1011FF0032000D0A20444542554720202020202050
:10120F002020202D2D2D20434D4420342048616275
:10121F00696C69746172203D20312C20496E6861C0
:10122F0062696C69746172203D2030000D0A20558F
:10123F0053455F4C5052202020202020202D2D2D53
:10124F0020434D44203520486162696C6974617296
:10125F00203D20312C20496E686162696C69746190
:10126F0072203D2030000D0A20434F4D5041524116
:10127F0043494F4E5F414354495641202D2D2D2058
:10128F00434D44203620486162696C697461722055
:10129F003D20312C20496E686162696C69746172FE
:1012AF00203D2030000D0A205449504F5F50414ED1
:1012BF0054414C4C4120202020202D2D2D20434DDA
:1012CF004420372050414E54414C4C41204C434414
:1012DF00203D302050414E54414C4C4120524153FF
:1012EF005042455252493D31000D0A20434152446C
:1012FF005F4155544F4D41544943412020202D2DDE
:10130F002D20434D44203820424F54544F4E3D30F2
:10131F00204155544F4D41544943413D31000D0A31
:10132F0020414E5449504153534241434B202020BA
:10133F0020202020202D2D2D20434D4420392048C2
:10134F006162696C69746172203D20312C20496E95
:10135F00686162696C69746172203D2030000D0A0A
:10136F002041595544412020202020202020202D8D
:10137F002D2D20434D44203130204D7565737472EF
:10138F0061206C6F7320636F6D616E646F73000DFE
:10139F000A2053414C495220202020202020202079
:1013AF002D2D2D20434D442031312053616C697216
:1013BF002064652070726F6772616D6163696F6E13
:1013CF00000D0A0A53697374656D612064652050BE
:1013DF00726F6772616D6163696F6E2045787065BA
:1013EF006469646F72200D0A0D0A000D0A0A2F3E00
:1013FF005573756172696F3A000D0A0A2F3E50617D
:10140F007373776F72643A00313233343536000DAF
:10141F000A436F6D616E646F206E6F20657869731C
:10142F0074652027257327003A5B3C253F58545D90
:10143F003D2900232A594A41494D4563616D696C25
:10144F00744B0077727A32357136382D39316653D5
:0F145F002E4000200D0A00200D0A00220D0A0069
:10628D005401412F0000000000000000000000003C
:10629D000000000000000049013861646D696E0066
:1062AD000000006024015530000031000032000074
:1062BD003300003400003500003600003700003890
:0B62CD000000390000313000313100CA
:0B38D30090007EEBF0A3EAF0A3E9F008
:1038DE0078837C007D017BFF7A1479377E007F0B25
:1038EE001206F6788E7C007D017BFF7A1479427E7B
:1038FE00007F101206F6789E7C007D017BFF7A1405
:10390E0079527E007F101206F690007EE0FBA3E057
:10391E00FAA3E0F912000E900081EFF0E4A3F0900C
:10392E000081E0FFA3E0FEC39F4003023A8D9000AA
:10393E007EE0FBA3E0FAA3E0F98E82758300120706
:10394E0035FD7C0074832EF582E43400F583E02D82
:10395E00FFEC33900134F0A3EFF07E00540FFFA381
:10396E00EEF0A3EFF0700BE004F07006900136E07D
:10397E0004F0900136E0FEA3E0248DF58274003E43
:10398E00F583E07E002DFFEE3C900134F0A3EFF0C6
:10399E007E00540FFFA3EEF0A3EFF0700BE004F0E7
:1039AE007006900136E004F0900136E0FEA3E024AC
:1039BE009DF58274003EF583E0FF900134E0FEA396
:1039CE00E06FFF900134EEF0FEA3EFF0D394FFEE24
:1039DE0094004005900134E4F0900134E0FEA3E041
:1039EE00FFC3947AEE94004015D3EF94FFEE94004B
:1039FE00500CEF547AFF900134E4F0A3EFF0C39033
:103A0E000135E09430900134E09400500CA3E02492
:103A1E0040F0900134E03400F0900134E0FEA3E079
:103A2E00FFC3945BEE94004014D3EF9460EE9400C9
:103A3E00500BE02407F0900134E03400F090013494
:103A4E00E0FEA3E0FFC3943AEE94004014D3EF944B
:103A5E0040EE9400500BE024F9F0900134E034FF76
:103A6E00F0900134A3E0FF900082E024AEF582E4F2
:103A7E003400F583EFF0900082E004F002392D7BE4
:053A8E00017A0079AE91
:013A93002210
:0B71C50090007EEBF0A3EAF0A3E9F0DD
:1071D000E4900084F0900084E0FFC3940C748094E9
:1071E000805041EF75F003A42455F9740135F0FA8D
:1071F0007B0178817C007D01120B4B78817C007DC6
:107200000190007EE0FBA3E0FAA3E0F9120A62EF2E
:107210003395E04F7006900084E0FF22900084E0F8
:0672200004F080B17FFFC5
:017226002245
:0B75A400900022E0FBA3E0FAA3E0F956
:0B75AF0090007EEBF0A3EAF0A3E9F0EF
:1075BA0078817C007D017B017A017938120B4B7846
:1075CA00817C007D0190007EE0FBA3E0FAA3E0F954
:0E75DA00120A62EF3395E04F7002FF227FFF2E
:0175E8002280
:06766B007B017A00795654
:0B76710090007EEBF0A3EAF0A3E9F02C
:10767C0078817C007D017BFF7A1479627E007F0427
:10768C001206F690008C7401F0A37400F0A37481C0
:0F769C00F090007EE0FBA3E0FAA3E0F902536454
:10667000E0FBA3E0FAA3E02FF9EA3EFAE92401F9EE
:03668000E43AFAFF
:0B66830090007EEBF0A3EAF0A3E9F02A
:10668E0078817C007D017BFF7A1479667E007F0421
:10669E001206F678857C007D017BFF7A14796A7E7E
:1066AE00007F041206F690007EE0FBA3E0FAA3E062
:1066BE00F912071CFFB4200C90007FE475F0011254
:1066CE0007EB80E2EF90008CB4220D7401F0A374FE
:1066DE0000F0A37485F080167401F0A37400F0A38B
:1066EE007481F090007EE0FBA3E0FAA3E0F9125370
:0166FE006437
:0166FF002278
:107BF0009000917401F0A37401F0A37441F07BFF35
:077C00007A0B79DF021A1074
:086CD1007A0079567B01E4FD15
:0E6CD90090008AEBF0A3EAF0A3E9F0A3EDF03F
:106CE700127CE190008AE0FBA3E0FAA3E0F9EF123F
:106CF700076290008DE0701D90008AE0FBA3E0FA28
:106D0700A3E0F912071C900091F07BFF7A0B79E75B
:106D1700121A1080057F2A1276EA90008AE0FBA3F8
:106D2700E0FAA3E0F912071CFF7E0090008BE475E0
:106D3700F0011207EB90008AE0FBA3E0FAA3E0F969
:096D4700E4120762EF640D70977D
:016D50002220
:105CFC00E4FDFC7FA812772C7E00900088EEF0A3C8
:105D0C00EFF090009174FFF0A3740BF0A374EAF021
:105D1C00A3EEF0A3EFF07B017A00797E121A0A90C1
:105D2C0000917401F0A37400F0A3747EF07BFF7AF1
:105D3C000B79ED121A107BFF7A0C7909121A107A72
:105D4C0000797E126CD57B017A00797E12552B90EE
:105D5C000088EEF0A3EFF0FBE4FDFC7FA812749337
:105D6C00E4FDFC7FA812772C7E00900088EEF0A357
:105D7C00EFF090009174FFF0A3740BF0A374EAF0B1
:105D8C00A3EEF0A3EFF07B017A00797E121A0A9051
:105D9C0000917401F0A37400F0A3747EF07BFF7A81
:065DAC000C7929021A1017
:105AC6007D027C007FA812772C7E00900088EEF085
:105AD600A3EFF090009174FFF0A3740BF0A374EAA7
:105AE600F0A3EEF0A3EFF07B017A00797E121A0A9A
:105AF6009000917401F0A37400F0A3747EF07BFF14
:105B06007A0C794E121A107BFF7A0C7968121A10E9
:105B16007B017A00797EE4FD126CD97B017A0079EB
:105B26007E12552B900088EEF0A3EFF0FB7D027CF1
:105B3600007FA81274937D027C007FA812772C7ECA
:105B460000900088EEF0A3EFF090009174FFF0A3B0
:105B5600740BF0A374EAF0A3EEF0A3EFF07B017AE6
:105B660000797E121A0A9000917401F0A37400F075
:0D5B7600A3747EF07BFF7A0C7986021A1072
:105B83007D047C007FA812772C7E00900088EEF0C5
:105B9300A3EFF090009174FFF0A3740BF0A374EAE9
:105BA300F0A3EEF0A3EFF07B017A00797E121A0ADC
:105BB3009000917401F0A37400F0A3747EF07BFF56
:105BC3007A0C79A9121A107BFF7A0C79C8121A1071
:105BD3007B017A00797EE4FD126CD97B017A00792E
:105BE3007E12552B900088EEF0A3EFF0FB7D047C32
:105BF300007FA81274937D047C007FA812772C7E0B
:105C030000900088EEF0A3EFF090009174FFF0A3F2
:105C1300740BF0A374EAF0A3EEF0A3EFF07B017A28
:105C230000797E121A0A9000917401F0A37400F0B7
:0D5C3300A3747EF07BFF7A0C79EB021A104F
:1043A1007D067C007FA812772C7E00900088EEF0BD
:1043B100A3EFF090009174FFF0A3740BF0A374EAE3
:1043C100F0A3EEF0A3EFF07B017A00797E121A0AD6
:1043D100900088E07002A3E0701590009104F0A3B2
:1043E1007400F0A3747EF07BFF7A0D791380359011
:1043F1000088E07004A3E06401701590009104F05E
:10440100A37400F0A3747EF07BFF7A0D793B8014D6
:104411009000917401F0A37400F0A3747EF07BFF0F
:104421007A0D795D121A107BFF7A0D7995121A10A7
:104431007B017A00797EE4FD126CD97B017A0079E7
:104441007E12552B900088EEF0A3EFF0FB7D067CE9
:10445100007FA81274937D067C007FA812772C7EC2
:1044610000900088EEF0A3EFF090009174FFF0A3AC
:10447100740BF0A374EAF0A3EEF0A3EFF07B017AE2
:1044810000797E121A0A900088E07002A3E070158C
:1044910090009104F0A37400F0A3747EF07BFF7A86
:1044A1000D79138035900088E07004A3E0640170F9
:1044B1001590009104F0A37400F0A3747EF07BFFCB
:1044C1007A0D793B80149000917401F0A37400F08F
:0D44D100A3747EF07BFF7A0D795D121A1046
:0144DE0022BB
:104D8E007D087C007FA812772C7E00900088EEF0C4
:104D9E00A3EFF090009174FFF0A3740BF0A374EAEC
:104DAE00F0A3EEF0A3EFF07B017A00797E121A0ADF
:104DBE00900088E07002A3E0701590009104F0A3BB
:104DCE007400F0A3747EF07BFF7A0D79B48014909A
:104DDE0000917401F0A37400F0A3747EF07BFF7A4F
:104DEE000D79D8121A107BFF7A0D79FA121A107BF0
:104DFE00017A00797EE4FD126CD97B017A00797E0E
:104E0E0012552B900088EEF0A3EFF0FB7D087C008E
:104E1E007FA81274937D087C007FA812772C7E00E9
:104E2E00900088EEF0A3EFF090009174FFF0A37461
:104E3E000BF0A374EAF0A3EEF0A3EFF07B017A007F
:104E4E00797E121A0A900088E07002A3E070159025
:104E5E00009104F0A37400F0A3747EF07BFF7A0D32
:104E6E0079B480149000917401F0A37400F0A374CF
:0B4E7E007EF07BFF7A0D79D8121A102D
:014E89002206
:104E8A007D0A7C007FA812772C7E00900088EEF0C5
:104E9A00A3EFF090009174FFF0A3740BF0A374EAEF
:104EAA00F0A3EEF0A3EFF07B017A00797E121A0AE2
:104EBA00900088E07002A3E0701590009104F0A3BE
:104ECA007400F0A3747EF07BFF7A0E791F80149031
:104EDA0000917401F0A37400F0A3747EF07BFF7A52
:104EEA000E7945121A107BFF7A0E7969121A107B15
:104EFA00017A00797EE4FD126CD97B017A00797E11
:104F0A0012552B900088EEF0A3EFF0FB7D0A7C008F
:104F1A007FA81274937D0A7C007FA812772C7E00EA
:104F2A00900088EEF0A3EFF090009174FFF0A37464
:104F3A000BF0A374EAF0A3EEF0A3EFF07B017A0082
:104F4A00797E121A0A900088E07002A3E070159028
:104F5A00009104F0A37400F0A3747EF07BFF7A0E34
:104F6A00791F80149000917401F0A37400F0A37467
:0B4F7A007EF07BFF7A0E7945121A10C2
:014F85002209
:104F86007D0C7C007FA812772C7E00900088EEF0C6
:104F9600A3EFF090009174FFF0A3740BF0A374EAF2
:104FA600F0A3EEF0A3EFF07B017A00797E121A0AE5
:104FB600900088E07002A3E0701590009104F0A3C1
:104FC6007400F0A3747EF07BFF7A0E7990801490C3
:104FD60000917401F0A37400F0A3747EF07BFF7A55
:104FE6000E79C1121A107BFF7A0E79F1121A107B14
:104FF600017A00797EE4FD126CD97B017A00797E14
:1050060012552B900088EEF0A3EFF0FB7D0C7C0090
:105016007FA81274937D0C7C007FA812772C7E00EB
:10502600900088EEF0A3EFF090009174FFF0A37467
:105036000BF0A374EAF0A3EEF0A3EFF07B017A0085
:10504600797E121A0A900088E07002A3E07015902B
:10505600009104F0A37400F0A3747EF07BFF7A0F36
:10506600792480149000917401F0A37400F0A37465
:0B5076007EF07BFF7A0E79C1121A1049
:01508100220C
:105082007D0E7C007FA812772C7E00900088EEF0C7
:10509200A3EFF090009174FFF0A3740BF0A374EAF5
:1050A200F0A3EEF0A3EFF07B017A00797E121A0AE8
:1050B200900088E07002A3E0701590009104F0A3C4
:1050C2007400F0A3747EF07BFF7A0F7956801490FF
:1050D20000917401F0A37400F0A3747EF07BFF7A58
:1050E2000F7978121A107BFF7A0F79A1121A107BAE
:1050F200017A00797EE4FD126CD97B017A00797E17
:1051020012552B900088EEF0A3EFF0FB7D0E7C0091
:105112007FA81274937D0E7C007FA812772C7E00EC
:10512200900088EEF0A3EFF090009174FFF0A3746A
:105132000BF0A374EAF0A3EEF0A3EFF07B017A0088
:10514200797E121A0A900088E07002A3E07015902E
:10515200009104F0A37400F0A3747EF07BFF7A0F39
:10516200795680149000917401F0A37400F0A37436
:0B5172007EF07BFF7A0F79CD121A103F
:01517D00220F
:105A04007D0F7C007FA812772C7E00900088EEF03A
:105A1400A3EFF090009174FFF0A3740BF0A374EA69
:105A2400F0A3EEF0A3EFF07B017A00797E121A0A5C
:105A3400900088E07002A3E07BFF70067A0F79FD86
:105A440080047A107922121A107BFF7A107943129B
:105A54001A107B017A00797EE4FD126CD97B017AFD
:105A640000797E12552B900088EEF0A3EFF0FB7DB9
:105A74000F7C007FA81274937D0F7C007FA812779F
:105A84002C7E00900088EEF0A3EFF090009174FF5C
:105A9400F0A3740BF0A374EAF0A3EEF0A3EFF07B91
:105AA400017A00797E121A0A900088E07002A3E05D
:105AB4007BFF70067A0F79FD80047A107922121A1E
:015AC40010D1
:015AC50022BE
:10517E007D107C007FA812772C7E00900088EEF0C8
:10518E00A3EFF090009174FFF0A3740BF0A374EAF8
:10519E00F0A3EEF0A3EFF07B017A00797E121A0AEB
:1051AE00900088E07002A3E0701590009104F0A3C7
:1051BE007400F0A3747EF07BFF7A10796D801490EA
:1051CE0000917401F0A37400F0A3747EF07BFF7A5B
:1051DE00107998121A107BFF7A1079C1121A107B6F
:1051EE00017A00797EE4FD126CD97B017A00797E1A
:1051FE0012552B900088EEF0A3EFF0FB7D107C0093
:10520E007FA81274937D107C007FA812772C7E00ED
:10521E00900088EEF0A3EFF090009174FFF0A3746D
:10522E000BF0A374EAF0A3EEF0A3EFF07B017A008B
:10523E00797E121A0A900088E07002A3E070159031
:10524E00009104F0A37400F0A3747EF07BFF7A103B
:10525E00796D80149000917401F0A37400F0A37422
:0B526E007EF07BFF7A107998121A1076
:015279002212
:107088007BFF7A1079ED121A107BFF7A11792D1295
:107098001A107BFF7A11796D121A107BFF7A117919
:1070A800A9121A107BFF7A127901121A107BFF7A43
:1070B80012793B121A107BFF7A127975121A107B1B
:1070C800FF7A1279B4121A107BFF7A1279F8121A21
:1070D800107BFF7A13792D121A107BFF7A13796DC2
:0C70E800121A107BFF7A13799E021A1016
:103711007BFF7A1379D0121A107BFF7A1379FA1290
:103721001A10126CD112766B900022EBF0A3EAF022
:10373100A3E9F07B017A0079561238D390002BEB84
:10374100F0A3EAF0A3E9F01275A4EF70CC7BFF7A45
:10375100147908121A107B017A0079567D01126CD6
:10376100D912766B900022EBF0A3EAF0A3E9F0788E
:10377100387C017D017BFF7A147917120B4B12758E
:10378100A4EF70C90238AB127BF0126CD112766BC8
:10379100900022EBF0A3EAF0A3E9F012000E9000F2
:1037A10022126670900025EBF0A3EAF0A3E9F01273
:1037B100000E900025126670900028EBF0A3EAF04D
:1037C100A3E9F0900025E0FBA3E0FAA3E0F9EA49C0
:1037D1004B601712071CB42F11782E7C007D0190CD
:1037E1000025A3A3E0120B4B803D900025E0FBA335
:1037F100E0FAA3E0F9EA494B602D782E7C007D01C7
:103801007B017A017941120B4B900025E0F9A3E08D
:10381100FAA3E0900081C9F0A3EAF0A3E9F07B01EB
:103821007A00792E1270F4900022E0FBA3E0FAA353
:10383100E0F9EA494B70030237881271C5EFB40C05
:1038410000506D90384BF828287302386F02387594
:1038510002387B02388102388702388D02389302A0
:10386100389902389F0238A50238AB0238D2125C6F
:10387100FC023788125AC6023788125B83023788E6
:103881001243A1023788124D8E023788124E8A02E6
:103891003788124F86023788125082023788125AAF
:1038A1000402378812517E023788127088023788E5
:1038B100900022E0F9A3E0FAA3E0900091C9F0A3FF
:1038C100EAF0A3E9F07BFF7A14791E121A1002378D
:0138D100886E
:0138D20022D3
:037D5000256400A7
:0B639000900022EBF0A3EAF0A3E9F07C
:10639B00900027E4F0A374A0F0E4A3F020B37612EE
:1063AB007D4DE4900026F0C286900025F0C2B2909D
:1063BB000027805620B35A900025E0705430B40D5E
:1063CB00EF1F70011EEF4E70EB04F080449000261F
:1063DB00E0C3942874809480503720B408E5A090D3
:1063EB000029F080F5900029E0FF900022E0FBA34C
:1063FB00E0FAA3E0F9EF120762900023E475F001D5
:10640B001207EB900026E004F0A3E0FEA3E0FF8070
:0D641B00A3D2B2D286127D3E900026E0FF93
:016428002251
:0E5E6700900034EBF0A3EAF0A3E9F0A3EDF015
:105E750090003DF0D2B2D2B4C286E490003CF0C2AC
:105E8500B290003812086D00004E2030B3499000E2
:105E95003CE07043C2B2D2B4900038E0FCA3E0FD10
:105EA500A3E0FEA3E0FFEF24FFFFEE34FFFEED3499
:105EB500FFFDEC34FFFC900038120861900038E0DB
:105EC500FCA3E0FDA3E0FEA3E0FFEC4D4E4F70BB4D
:105ED500A304F0C28280B490003CE0702920B32670
:105EE500900034E0FBA3E0FAA3E0F912071CF5A04B
:105EF500127C7C900035E475F0011207EB900037B9
:105F0500E014F0E070DA75A0FFD2B2D2B4D2867F89
:065F1500627E00027C46E2
:104C8F009002557403F090021714F0900254E090C4
:104C9F000218F0A37415F012071CFF900255E0FEE6
:104CAF0004F074172EF582E43402F583EFF07401EB
:104CBF0029F9E43AFA12071C70DD900255E024FD41
:104CCF00900219F0900251E0FBA3E0FAA3E0F990F3
:104CDF0000051207356030900255E0FF04F074179D
:104CEF002FF582E43402F583742DF090000512073E
:104CFF00352430FF900255E0FE04F074172EF58234
:104D0F00E43402F583EFF0900255E0FF04F07417DE
:104D1F002FF582E43402F583742EF0900251E0FBFC
:104D2F00A3E0FAA3E0F9900008120735900255604E
:104D3F0013E0FF04F074172FF582E43402F5837447
:104D4F004DF08011E0FF04F074172FF582E4340268
:104D5F00F5837443F0C2B27B017A02791790025542
:104D6F00E0FD125E67127C297B017A0279179002AF
:0F4D7F0055E0FD90004C7401F0126EC1027C29CA
:102837009001D27402F09001B4F09001B3E09001DE
:10284700B5F012071CFF9001D2E0FE04F074B42E1D
:10285700F582E43401F583EFF0740129F9E43AFADB
:1028670012071C70DD9001B0E0FBA3E0FAA3E0F9CA
:102877009000051207359001D2602FE0FF04F07435
:10288700B42FF582E43401F583742DF0900005121E
:1028970007352430FF9001D2E0FE04F074B42EF522
:1028A70082E43401F583EFF08025E0FF04F074B48F
:1028B7002FF582E43401F583742DF09001D2E0FF07
:1028C70004F074B42FF582E43401F5837430F0908A
:1028D70001B0E0FBA3E0FAA3E0F990000912073585
:1028E700540F640F9001B570057443F0800374733F
:1028F700F09001D2E0FF04F074B42FF582E43401C4
:10290700F583742DF012071C2430FF9001D2E0FEEE
:1029170004F074B42EF582E43401F583EFF09000EF
:10292700011207352430FF9001D2E0FE04F074B4A1
:102937002EF582E43401F583EFF09000021207359B
:102947002430FF9001D2E0FE04F074B42EF582E447
:102957003401F583EFF09000031207352430FF9020
:1029670001D2E0FE04F074B42EF582E43401F5835D
:10297700EFF09000041207352430FF9001D2E0FEFB
:1029870004F074B42EF582E43401F583EFF090017E
:10299700D2E0FF04F074B42FF582E43401F58374B8
:1029A7002DF09001D2E024B4F9E43401FA7B01124E
:1029B70060719001D2E024B4F582E43401F583E03C
:1029C7002430FF9001D2E0FE04F074B42EF582E4C7
:1029D7003401F583EFF09001D2E024B4F582E434BA
:1029E70001F583E02430FF9001D2E0FE04F074B4D7
:1029F7002EF582E43401F583EFF09001D2E024B4A0
:102A0700F582E43401F583E02430FF9001D2E0FE43
:102A170004F074B42EF582E43401F583EFF09001ED
:102A2700D2E024B4F582E43401F583E02430FF904A
:102A370001D2E0FE04F074B42EF582E43401F5838C
:102A4700EFF09001D2E024B4F582E43401F583E09D
:102A57002430FF9001D2E0FE04F074B42EF582E436
:102A67003401F583EFF09001D2E0FF04F074B42F46
:102A7700F582E43401F583742EF09001B0E0FBA3F6
:102A8700E0FAA3E0F99000081207359001D260132D
:102A9700E0FF04F074B42FF582E43401F583744D3C
:102AA700F08011E0FF04F074B42FF582E43401F5EF
:102AB700837443F09001D2E0FF04F074B42FF582E1
:102AC700E43401F5837403F0C2B230B3FD7B017ABD
:102AD7000179B49001D2E0FD125E67127C297B0177
:102AE7007A0179B49001D2E0FD90004C7401F012A4
:052AF7006EC1027C2904
:107C7C00C2B47F217E00127C46D2B47F217E0002EA
:027C8C007C4634
:06693400900038EFF0FBBB
:10693A00D2B4C286E4A3F0A312086D00003A988B81
:10694A00A0C2B230B343900039E0703DA3E0FCA38B
:10695A00E0FDA3E0FEA3E0FFEF24FFFFEE34FFFE1D
:10696A00ED34FFFDEC34FFFC90003A120861900010
:10697A003AE0FCA3E0FDA3E0FEA3E0FFEC4D4E4F9E
:10698A0070C190003904F080BA900039E0700C2090
:10699A00B309900038E0F5A0127C7CD2B2D2B4D20E
:1069AA008675A0FF7F627E00127C467F627E0002AF
:0269BA007C4619
:0A7CED00D2B4D2B2D28675A0FF22F5
:107992009000237402F0A37469F07B017A007925C8
:1079A20012587D7F8B1265EA90002BEFF0A37403CF
:0C79B200F07B017A0079237D0A025E67F9
:10497300E4900033F09000237402F0A37444F090A9
:10498300009174FFF0A3747DF0A37450F090013292
:10499300E0FFA3E0900094CFF0A3EFF07B017A0057
:1049A300792E121A0A9000327402F0900033E02438
:1049B3002EF582E43400F583E0FF6017900032E0C7
:1049C3002423F582E43400F583EFF0900033E00410
:1049D300F08018900032E02423F582E43400F5835C
:1049E300743BF0900032E004F08008900032E00461
:1049F300F080B890009174FFF0A3747DF0A374501D
:104A0300F090012DE0FFA3E0900094CFF0A3EFF02E
:104A13007B017A00792E121A0AE4900033F0900099
:104A230033E0242EF582E43400F583E0FF60179031
:104A33000032E02423F582E43400F583EFF09000A4
:104A430033E004F08018900032E02423F582E4344C
:104A530000F583743BF0900032E004F0800890008E
:104A630032E004F080B8900032E0FD2423F582E4C4
:104A73003400F5837403F07B017A007923025E67C7
:105606004461746F7320526563696269646F7320C5
:1056160064656C205472616E73706F7274653A20A3
:10562600004461746F7320456E766961646F732000
:10563600616C205472616E73706F7274653A2000EB
:105646000A0D2F2A2D2D2D2D2D2D2D2D2D2D2D2DC8
:105656002D2D2D2D2D2D2D2D2D2D2D2D2D2D2D2D74
:105666002D2D2D2D2D2D2D2D2D2D2D2A2F0A0D00D5
:1056760046656368612041637475616C20656E20C0
:10568600426F6172643A20000D0A0D0A005265638A
:10569600696265207472616D612070746F2070613B
:1056A60072616C3D20000A0D006C6F6E676974753F
:1056B60064206465206C61207472616D613A20001B
:1056C600526563696265207472616D61204D6F6E0B
:0756D60069746F723D2000B2
:067B9800AE07EEC313FE70
:107B9E00E4FFEFD3940774809480500C0000000033
:087BAE0000000000000F80EA56
:017BB60022AC
:107C0700E4FFEFD3940474809480500A00000000CE
:067C17000000000F80ECEC
:017C1D002244
:03736B004430FFAC
:02736E00AE0768
:10737000C2AFC290127B9E0000AD06EE5401FE70BB
:1073800004C2908002D290127B9E7C01ECD39407C1
:10739000748094805015EDC313FD5401FE7004C237
:1073A000908002D290127B9E0C80E1D290127B9E44
:0573B000127B9ED2AF2C
:0173B50022B5
:10751800E4900038F0A3F0FEFBFA900123E0640148
:107528007033EFC39464748094804007749C2FFF79
:107538000E80EFEFC3940A74809480400774F62F8E
:10754800FF0B80EFAA07EE12736BEB12736BEA4422
:0575580030FF12736E0C
:01755D00220B
:0273FF00AB07DA
:10740100900123E06401703CEB54F0C4540FFFD3AE
:10741100940974809480400674372FFF800474307F
:107421002FFF12736EEB540FFFD394097480948075
:10743100400674372FFF800474302FFF12736E7F64
:047441002012736E34
:017445002224
:0E6EC100900048EBF0A3EAF0A3E9F0A3EDF097
:106ECF00900123E06401705C90004CE0FF3395E08B
:106EDF00FEEF4E7BFF60067A56790680047A56796C
:106EEF00271273C1E490004DF090004BE0FF90002B
:106EFF004DE0C39F5024900048E0FBA3E0FAA3E0CD
:106F0F00F912071CFF1273FF900049E475F001128C
:106F1F0007EB90004DE004F080CF7F0D12736E7F72
:046F2F000A12736E61
:016F3300223B
:0B73B600E0FF1273FF7BFF7A5679ACFA
:0B73C10090004EEBF0A3EAF0A3E9F00F
:1073CC00E4A3F0900123E064017027900051F09049
:1073DC00004EE0FBA3E0FAA3E0F9A3E0F58275838D
:1073EC0000120735FF600B12736E900051E004F031
:0273FC0080DD32
:0173FE00226C
:0B7C1E00EBF0A3EAF0A3E9F0A3EDF007
:097C29007BFF7A5679460273C113
:1069BC007EFF127C07127B9E208005747FFF800473
:1069CC00EE4480FF127B98EE208005547FFF8003FD
:1069DC004480FF127B98EE208005547FFF80034497
:1069EC0080FF127B98EE208005547FFF800344804B
:1069FC00FF127B98EE208005547FFF80034480FFBC
:106A0C00127B98EE208005547FFF80034480FF1298
:106A1C007B98EE208005547FFF80034480FF127B1F
:106A2C0098EE208005547FFF80034480FFAE071250
:076A3C007B9E3080FDAF06D8
:016A43002230
:10611700900259EBF0A3EAF0A3E9F07BFF7A5679F6
:10612700761273C1900259E0FBA3E0FAA3E0F912DB
:10613700071CFF127AF81273FF7F2F12736E9002FB
:1061470059E0FBA3E0FAA3E0F9900001120735FF3D
:10615700127AF81273FF7F2F12736E900259E0FBC9
:10616700A3E0FAA3E0F9900002120735FF127AF8CC
:106177001273FF7F2012736E900259E0FBA3E0FABF
:10618700A3E0F9900003120735FF127AF81273FFA4
:106197007F3A12736E900259E0FBA3E0FAA3E0F98D
:1061A700900004120735FF127AF81273FF7BFF7A0B
:0661B70056798E0273C14F
:057D4800D290D2802260
:1077DC00900022127C1E7BFF7A5679931273C19013
:1077EC000022E0FBA3E0FAA3E0F9A3E0FD90004C3B
:1077FC007401F0126EC11273BB7BFF7A5679AF1213
:0B780C0073C19000251273B6027C29A6
:10796000900022127C1E7BFF7A5679C61273C1905A
:107970000022E0FBA3E0FAA3E0F91273C11273BB8B
:107980007BFF7A5679AF1273C19000251273B6024D
:027990007C2950
:1062D80041025E00C10B010F00011000010D000119
:0462E8000E00C10CD7
:03002300023A940A
:103A9400C0E0C083C082C0D075D000C000C004C0E4
:053AA40005C006C0078B
:103AA900209803023C17C29890025CE599F0C3E59F
:103AB9000D950EFFE49400FEEF54F84E700DE0FFF3
:103AC900E50D54072422F8A607050D90011FE0FF14
:103AD9007E00D3943274809480400590012AE4F0EA
:103AE90090012AE014603114605C147003023B9267
:103AF90024036003023C12900129E0FD90025CE07E
:103B09006D6003023C17D20B90011FF0F50DF50E05
:103B190090012A04F0023C1790025CE0FD90011F1D
:103B2900E0FC04F074EC2CF582E43400F583EDF04C
:103B390090012FE0FD9000ECE090012AB50502808C
:103B490042E4F0023C17EF64034E90025C701CE003
:103B5900FE2402A3F090011FE0FF04F074EC2FF59E
:103B690082E43400F583EEF0023C0AE0FF90011F85
:103B7900E0FE04F074EC2EF582E43400F583EFF0F6
:103B890090012A7402F0023C1790025CE0FF900158
:103B99001FE0FE04F074EC2EF582E43400F583EFA7
:103BA900F090025DE014F0E0705790011FE024EA04
:103BB900F582E43400F583E0FF900131E0FEEF6E19
:103BC900703DFFFE90011FE0FD14FCEEC39C5010F8
:103BD90074EC2EF582E43400F583E06FFF0E80E487
:103BE90074EB2DF582E43400F583E0B5070FC20BC1
:103BF90090025EE4F0D20D90012AF08011800A80D3
:103C09000890012A7403F0800590012AE4F03099A4
:103C19001AC299E50F65106010E51054012454F893
:0B3C2900E6F5990510C20C8002D20CD9
:103C3400D007D006D005D004D000D0D0D082D08315
:033C4400D0E0329B
:1079BE00D310AF01C3C0D0127A39E4F50FF510F52C
:1079CE000DF50EC29FD29EC29DD29CC298C299D274
:0A79DE000CD2ACD2BCD0D092AF2284
:107A3900D310AF01C3C0D0C299E4F50FF510C28EBF
:107A4900C2AB43878053890F438920758DF4758BA9
:087A5900F4D28ED0D092AF22CE
:10781700D310AF01C3C0D09000C1EFF0127CA0C35A
:10782700EF94027480948040047FFF80199000C118
:10783700E0FFE50F54012454F8A607050F300C04A8
:0B784700C20CD2997F00D0D092AF227B
:107AB000D310AF01C3C0D0127C8EEF70067EFF7F63
:107AC000FF800EAF0E050EEF54072422F8E6FF7E6E
:067AD00000D0D092AF22AD
:107C8E00D310AF01C3C0D0C3E50D950EFFD0D09277
:027C9E00AF2213
:107CA000D310AF01C3C0D0C3E50F9510FFD0D09261
:027CB000AF2201
:10425300496E6369616C697A612044697370656E44
:104263007361646F720D0A0D0A00436865636B5FC7
:104273005374617475730D0A00486162696C6974E3
:104283006120496E73657273696F6E0D0A00496E22
:10429300686162696C69746120496E7365727369E0
:1042A3006F6E0D0A004D6F7669656E646F20546101
:1042B300726A65746120612052460D0A004D6F7663
:1042C30069656E646F205461726A65746120612050
:1042D30049435C720A004D6F7669656E646F2054C2
:1042E30061726A65746120612042657A656C0D0AAA
:1042F30000457870756C73616E646F205461726AE7
:104303006574610D0A00436170747572616E646F48
:10431300205461726A6574610D0A004175745F43CC
:104323006172645F636865636B5F53746174757313
:104333000D0A00446F776E6C6F6164204D46204513
:104343004570726F6D0D0A004361726761207920B9
:1043530056657269666963612064652045457072BC
:104363006F6D0D0A004C6579656E646F204D4620B4
:104373003E20536563746F723A200020426C6F7164
:1043830075653A20000D0A00457363726962652002
:0E4393004D46203E20536563746F723A200041
:0561BD00900023EFF04B
:1061C200E4A3F0EF64336011900023E0FF643060D9
:1061D20008EF643160030262597BFF7A42795312FD
:1061E20073C190002574F2F0E4A3F0A3F0A374034A
:1061F200F0A37443F0A37430F0900023E090002BDE
:10620200F0A37403F0E4FBEBC39408748094805011
:106212001774252BF582E43400F583E0FE90002408
:10622200E0FDEE6DF00B80DF900024E090002DF099
:10623200C20DE490012AF07B017A00792590004C8E
:10624200F07D09126EC17B017A0079257D091274F5
:07625200469000EB7464F0BC
:016259002222
:056DD100900023EFF02B
:106DD6007BFF7A42796D1273C1E4FF90002474F24E
:106DE600F0E4A3F0A3F0A37403F0A37443F0A37438
:106DF60031F0900023E090002AF0A37403F0E4FE43
:106E0600EEC3940874809480501074242EF582E4A6
:106E16003400F583E06FFF0E80E690002CEFF0C2A1
:106E26000DE490012AF07B017A00792490004CF061
:106E36007D09126EC17B017A0079247D09127446A0
:066E46009000EB7464F003
:016E4C002223
:1064BE00EF3395E0FEEF64304E7BFF700F7A42793A
:1064CE007C1273C19000297430F0800D7A4279915C
:1064DE001273C19000297431F0E4FF90002374F21E
:1064EE00F0E4A3F0A3F0A37403F0A37443F0A37439
:1064FE0033F090002A7403F0E4FEEEC39408748027
:10650E009480501074232EF582E43400F583E06FEE
:10651E00FF0E80E690002BEFF0C20DE490012AF002
:10652E007B017A00792390004CF07D09126EC17BBD
:10653E00017A0079237D091274469000EB7464F0A1
:01654E00222A
:05527A00900023EFF09D
:10527F00E4A3F0EF6432601B900023E0FF64316021
:10528F0012EF6430600DEF64396008EF6433600330
:10529F00025363900023E0B432087BFF7A4279A86F
:1052AF00803A900023E0B431087BFF7A4279C080C6
:1052BF002B900023E0B430087BFF7A4279D9801C11
:1052CF00900023E0B439087BFF7A4279F4800D9087
:1052DF000023E0B433097BFF7A4379091273C1903D
:1052EF00002574F2F0E4A3F0A3F0A37403F0A37409
:1052FF0043F0A37432F0900023E090002BF0A374DE
:10530F0003F0E4FBEBC3940874809480501774256A
:10531F002BF582E43400F583E0FE900024E0FDEEEF
:10532F006DF00B80DF900024E090002DF0C20DE4B3
:10533F0090012AF07B017A00792590004CF07D09CD
:10534F00126EC17B017A0079257D09127446900097
:04535F00EB7464F097
:015363002227
:106D5100E4900023F07BFF7A43791E1273C1900007
:106D61002474F2F0E4A3F0A3F0A37403F0A374433A
:106D7100F0A37450F0A37431F0A37403F0E4FBEBBF
:106D8100C3940874809480501774242BF582E434E2
:106D910000F583E0FE900023E0FDEE6DF00B80DF57
:106DA100900023E090002CF0C20DE490012AF07BCA
:106DB100017A00792490004CF07D09126EC17B01AB
:0F6DC1007A0079247D091274469000EB7464F017
:016DD00022A0
:105FC800E4900023F07BFF7A4379361273C1900086
:105FD8002474F2F0E4A3F0A3F0A3740EF0A37443C6
:105FE800F0A37460F0A37433F0E4A3F0A374D0F0CA
:105FF800E4A3F0A304F0A37406F0A37433F0A3742D
:1060080056F0A37430F0A37470F0A37434F0A37442
:1060180072F0A37403F0E4FBEBC3941374809480D0
:10602800501774242BF582E43400F583E0FE9000C9
:1060380023E0FDEE6DF00B80DF900023E090003749
:10604800F0C20DE490012AF07B017A0079249000D7
:106058004CF07D14126EC17B017A0079247D1412F4
:0860680074469000EB7464F033
:01607000220D
:10654F00E4900023F07BFF7A43794B1273C19000E4
:10655F002474F2F0E4A3F0A3F0A37407F0A3744340
:10656F00F0A37460F0A37433F0E4A3F0A37421F0EC
:10657F00E4A3F0A304F0A37403F0A374C6F0E4FB48
:10658F00EBC3940D74809480501774242BF582E420
:10659F003400F583E0FE900023E0FDEE6DF00B80FC
:1065AF00DF900023E0900031F0C20DE490012AF05B
:1065BF007B017A00792490004CF07D0E126EC17B26
:1065CF00017A0079247D0E1274469000EB7464F00A
:0165DF002299
:08594100900023EFF0A3EDF04C
:10594900E4A3F07BFF7A4379681273C1900023E0E6
:10595900FF1273FF7BFF7A43797E1273C190002493
:10596900E0FF1273FF7BFF7A4379881273C19000BD
:105979002674F2F0E4A3F0A3F0A37408F0A374432F
:10598900F0A37460F0A37433F0E4A3F0A374B0F04F
:10599900900023E090002FF0900024E0900030F078
:1059A900A37401F0A37403F0E4FBEBC3940D7480BA
:1059B9009480501774262BF582E43400F583E0FEB9
:1059C900900025E0FDEE6DF00B80DF900025E09062
:1059D9000033F0C20DE490012AF07B017A007926A8
:1059E90090004CF07D0E126EC17B017A0079267D04
:0A59F9000E1274469000EB7464F087
:015A03002280
:104B8F00900023EFF0A3EDF0A3EBF0A3EAF0A3E97D
:014B9F00F025
:104BA000E4A3F07BFF7A43798B1273C1900023E07A
:104BB000FF1273FF7BFF7A43797E1273C19000244A
:104BC000E0FF1273FF7BFF7A4379881273C1900074
:104BD0002974F2F0E4A3F0A3F0A37418F0A37443D3
:104BE000F0A37460F0A37433F0E4A3F0A374D1F0E5
:104BF000900023E0900032F0900024E0900033F029
:104C0000A37401F0E4FDEDD39410748094805023DC
:104C1000900025E0FBA3E0FAA3E0F98D8275830004
:104C2000120735FF74352DF582E43400F583EFF07B
:104C30000D80D39000457403F0E4FDEDD3941C7413
:104C4000809480501A900028E0FF74292DF582E4AA
:104C50003400F583E0FEEF6E900028F00D80DC90CC
:104C60000028E0900046F0C20DE490012AF07B019C
:104C70007A00792990004CF07D1E126EC17B017A7A
:0E4C80000079297D1E1274469000EB7464F0DA
:014C8E002203
:1021FE005265737075657374612020444553434F67
:10220E004E4F43494441200D0A0044697370656E78
:10221E007361646F72204E6F20526573706F6E64BF
:10222E00652050544F205345524945202E2E2E0DD9
:10223E000A0D0A000D0A0D0A005254415F434D4427
:10224E005F4552524F520D0A0D0A005461726A6573
:10225E0074613A204175746F6D617469636F0D0A14
:10226E000050756C7361646F722041637469766F90
:10227E000D0A0054415245415F50524553454E435D
:10228E0049415F5645484943554C41520D0A004E4F
:10229E006976656C2062616A6F2064652074617274
:1022AE006A657461730D0A0044697370656E7361BB
:1022BE00646F722053494E205441524A4554415343
:1022CE002E2E2E0D0A005461726A65746120656EA1
:1022DE00206C6120626F63610D0A005441524541CA
:1022EE005F5449504F204445205441524A45544171
:1022FE000D0A005461726A6574612076616C6964BE
:10230E0061204D4635300D0A005461726A65746164
:10231E0020696E76616C696461206E6F2065732032
:10232E004D4635300D0A0054415245415F4C4543F0
:10233E00545552415F5441524A4554415F534543AF
:10234E00544F52315F424C4F515545310D0A0042A8
:10235E0075666665725F73315F62310D0A004944BE
:10236E005F434C49454E54453A20000D0A00434FF9
:10237E00445F5041524B3A005449504F204445203F
:10238E005441524A4554413A20005449504F20443A
:10239E0045205441524A45544120524F54414349DD
:1023AE004F4E0D0A20004552524F52205441524A70
:1023BE0045544120494E56414C4944410D0A004571
:1023CE0052524F5220434F44205041524B0D0A005F
