:108AE5004101710A4101A4004101AF004101A50006
:108AF5004101AD004201A600004101AE064101B3AE
:0F8B0500034101B2F2C10AC10BC1094101700065
:03000B0002BDAB88
:10BDAB00C0E0C083C082900171E014F0E0640170C8
:10BDBB00069001A4E004F09001A7E004F070069057
:0EBDCB0001A6E004F0C28DD082D083D0E03219
:10C14300E58954F04401F589E4F58CF58AD28C2213
:05C1E200C28DD2A9226C
:03C1EC00C2A922C3
:0BC1720012BEA2EFF47002EEF460F5C4
:01C17D00229F
:05B9B0009000A7EFF07C
:10B9B5009000A7E0FF12BB5BEF3395E04F6024E4F6
:10B9C5009000A8F0A3F0C39000A9E094E89000A827
:10B9D500E0940350DBA3E004F070EB9000A8E004D2
:08B9E500F080E39000A7E0FFF1
:01B9ED002237
:0EB64E0090039CEBF0A3EAF0A3E9F0A3EDF06B
:10B65C00E4A3F090039FE0FFA3E0C39F5029900365
:10B66C009CE0FBA3E0FAA3E0F9121A24FF12B9B094
:10B67C009003A1EFF090039DE475F001121AB090C5
:07B68C0003A0E004F080CCF4
:01B693002294
:10C1530012C1E712C1A412C188C283D287C2972237
:10B720007D047C007FA812BA6D9001B0E4F0A3EF15
:10B73000F07D067C007FA812BA6D9001ABE4F0A307
:10B74000EFF07D0A7C007FA812BA6D9001A8EFF09F
:10B750007D0E7C007FA812BA6D9001AAEFF09001D7
:05B76000A97401F022B4
:10AF6D0012C14312C1E212BDD912BE2B12C153D26E
:10AF7D00AF12C0017F217E0012C0D712C0827F6147
:10AF8D0012B4E712C1AB2091031254AE12B7209048
:10AF9D0001717405F020800312BEEE20B329200943
:10AFAD00267B017A01794812A0CF900000EFF0FDC9
:10AFBD007B017A01794812B9317B017A0179489088
:0CAFCD000000E0FD1235AC12A89980C90C
:10B86F007072696D6172696F204243433D20000D14
:10B87F000A0063616C63756C6F204243433D200087
:10B88F004243433D20005245454E56494152207494
:10B89F0072616D6120486F72613A20004C495645C4
:01B8AF000098
:0E35AC00900001EBF0A3EAF0A3E9F0A3EDF02C
:1035BA00E4A3F0ED641A6003023708900001E0FB0F
:1035CA00A3E0FAA3E0F9121A24640260030237089E
:1035DA00900002121A3D6448600302370890000402
:1035EA00E07E0024FEF582EE34FFF583121A3D6474
:1035FA000360030237087BFF7AB8796F12B53A90F5
:10360A000001E0FBA3E0FAA3E0F9900019121A3DC9
:10361A00FF12B5C07BFF7AB8797E12B53A900001E5
:10362A00E0FBA3E0FAA3E0F9A3E014FD12BCAE901C
:10363A000005EFF07BFF7AB8798112B53A90000560
:10364A00E0FF12B5C07BFF7AB8797E12B53A9000D6
:10365A0001E0FBA3E0FAA3E0F9900019121A3DFF7A
:10366A00900005E06F70497BFF7AB8798F12B53AFE
:10367A00900005E0FF12B5C07BFF7AB8797E12B5DB
:10368A003A900001E0FBA3E0FAA3E02403F9E43A4C
:10369A00FA1278A9EF6003023ACF900001E0FBA387
:1036AA00E0FAA3E02403F9E43AFA129D2802ACA94D
:1036BA00900011E4F0A37402F0A3E4F0A37405F0FF
:1036CA00A3E4F0A37403F07B017A007911FD129848
:1036DA00867BFF7AB8799512B53A900011A3E0FF7C
:1036EA0012B5C0900013A3E0FF12B5C0900015A355
:1036FA00E0FF12B5C07BFF7AB8797E02B53A900036
:10370A0001E0FBA3E0FAA3E0F9121A2464B1700500
:10371A007F60023902900001E0FBA3E0FAA3E0F91E
:10372A00121A2464B270057F5D023902900001E02A
:10373A00FBA3E0FAA3E0F9121A2464B370057F63CD
:10374A00023902900004E064017017900001E0FB66
:10375A00A3E0FAA3E0F9121A2464B470057F5E02AA
:10376A003902900004E064017017900001E0FBA3A5
:10377A00E0FAA3E0F9121A2464B570057F620239EF
:10378A0002900001E0FBA3E0FAA3E0F9121A246414
:10379A00B670289003FCE004F0E0D394047480949B
:1037AA00805003023ACF7FAE122776C282E490019C
:1037BA00A4F0C297C2839003FCF022900001E0FBC0
:1037CA00A3E0FAA3E0F9121A24FF64B76005EF64D4
:1037DA00AA70539001A4E0C39414748094804008A2
:1037EA00E4F0C297D282C2839001A9E06003023A50
:1037FA00CF9001A8E064016003023ACFC39001A709
:10380A00E094589001A6E094025003023ACFE4F003
:10381A00A3F09001A904F07BFF7AB879AB12B53A0C
:10382A00E49001A9F022900004E06401701790006E
:10383A0001E0FBA3E0FAA3E0F9121A2464B87005C8
:10384A007F9A023902900004E06401701790000127
:10385A00E0FBA3E0FAA3E0F9121A2464A170057F41
:10386A005A023902900004E064017016900001E0E7
:10387A00FBA3E0FAA3E0F9121A24640570047F9C02
:10388A008076900004E064017016900001E0FBA3CA
:10389A00E0FAA3E0F9121A24640670047F9E8058A5
:1038AA00900004E064017016900001E0FBA3E0FAC6
:1038BA00A3E0F9121A24640770047F5F803A90002B
:1038CA0004E064017016900001E0FBA3E0FAA3E0B3
:1038DA00F9121A24640870047F61801C900004E0C5
:1038EA0064017017900001E0FBA3E0FAA3E0F9126B
:1038FA001A24640970057FAF022776900004E0FF5E
:10390A006413703C900001E0FBA3E0FAA3E0F99095
:10391A000001121A3D64567027EF24FFFFE434FFBA
:10392A00FE8F82F583121A3D640370148F828E8390
:10393A00E4121A7CE92402F9E43AFA7F5B023A902B
:10394A00900004E0FF6413703C900001E0FBA3E0E8
:10395A00FAA3E0F9900001121A3D644F7027EF2490
:10396A00FFFFE434FFFE8F82F583121A3D64037071
:10397A00148F828E83E4121A7CE92402F9E43AFA5B
:10398A007F9B023A90900004E0FF64066003023ACB
:10399A0047900001E0FBA3E0FAA3E0F9121A2464BD
:1039AA00026003023A47900001121A3D645760030D
:1039BA00023A47FE74FF2FF582EE34FFF583121A9E
:1039CA003D64037078900001A3A3900002121A3D8F
:1039DA00FD7B017A00790612B1E39000097420F0A8
:1039EA00900001E0FBA3E0FAA3E0F9900003121AA9
:1039FA003DFD900001A3A3900004121A3D90001D02
:103A0A00F07B017A00790A1247899001A8E06401E3
:103A1A00702112BC0AEFF460077FAA122776800988
:103A2A007B017A007906128A0F7B017A0079067F78
:103A3A005C80537B017A0079067F5C8049900004A0
:103A4A00E0FF64077043900001E0FBA3E0FAA3E003
:103A5A00F9121A2464027031900001121A3D64634B
:103A6A007027EF24FFFFE434FFFE8F82F583121ADA
:103A7A003D640370148F828E83E4121A7CE9240257
:103A8A00F9E43AFA7F9D024D10900004E0FF640CBD
:103A9A007033900001E0FBA3E0FAA3E0F9121A24C4
:103AAA0064027021FE74FF2FF582EE34FFF5831253
:103ABA001A3D6403700F900001A3A3E02401F9E406
:053ACA003AFA128BB86E
:013ACF0022D4
:0EB82E0090003BEBF0A3EAF0A3E9F0A3EDF0ED
:10B83C00E4A3F090003EE0FFA3E0C39F50249000EF
:10B84C003BE0FBA3E0FAA3E0F9121A24FF12B4E7E1
:10B85C0090003CE475F001121AB090003FE004F047
:02B86C0080D189
:01B86E0022B7
:0B8A0F00900019EBF0A3EAF0A3E9F0DF
:108A1A0090003A7403F090001C14F012B7A9900069
:108A2A001DEFF0A37453F09001ADE090003A60138B
:108A3A00E0FF04F0741C2FF582E43400F583744DD2
:108A4A00F08011E0FF04F0741C2FF582E43400F585
:108A5A00837443F090003A7404F0900019E0FBA389
:108A6A00E0FAA3E0F9121A24FF602190003AE02408
:108A7A001CF582E43400F583EFF090001AE475F0F7
:108A8A0001121AB090003AE004F080CE90003AE069
:108A9A00FF04F0741C2FF582E43400F583743AF075
:108AAA0090003AE0241CF9E43400FA7B0112676D65
:108ABA0090003AE0FF2426F582E43400F583743A04
:108ACA00F074272FF582E43400F5837403F07B01F8
:0B8ADA007A00791CEF240CFD02B82E7E
:0EBCAE00900019EBF0A3EAF0A3E9F0A3EDF08B
:10BCBC00E4FFFE90001CE0FDEEC39D5018900019AF
:10BCCC00E0FBA3E0FAA3E0F98E82758300121A3D23
:05BCDC006FFF0E80DE89
:01BCE1002240
:10C0AF0050524F4752414D414D4F5320484F5241EF
:04C0BF00000D0A0066
:08000300D29412C1EFC2942255
:05B971009000B4EFF0AE
:10B97600E4A3F0A3F09000B4E0FFA2E713F030D701
:10B9860004D2958002C2951200039000B6E004F03E
:10B9960070069000B5E004F0C39000B6E0940890FD
:09B9A60000B5E06480948040CCFF
:01B9AF002275
:0AA32200EBF0A3EAF0A3E9F07F8D51
:05A32C009000B1EFF00C
:10A33100D2967F037E0012C0D79000B1E0FF12B920
:10A3410071E49000B2F0A3F09000B2E0FCA3E0FD54
:10A35100C39408EC64809480504F3095169003FDAF
:10A36100E04480F0ED9406EC648094805005E0FFB9
:10A37100C313F02095209003FDE0547FF0D39000AB
:10A38100B3E094069000B2E064809480500890039A
:10A39100FDE0FFC313F01200039000B3E004F0707E
:10A3A100A79000B2E004F0809FC2969003FDE0FF09
:01A3B1002289
:10BE030090001CEFF0A3EDF0D2967F037E0012C0EA
:10BE1300D790001CE0FF12B97190001DE0FF900065
:08BE23001CF012B971C2962255
:10B8B00090001AE475F001121AB090001AE475F0C5
:10B8C00001121AB090001AE475F001121AB090003B
:10B8D00019E0FBA3E0FAA3E0F9121A24FF9000019B
:04B8E000121A3DFDFE
:0CB8E400EF540FC454F0FFED540F4FFF61
:01B8F0002235
:1078A900E4FF121A24FEC3943050030279BBEED3CD
:1078B900943940030279BB900001121A3DFEC3942A
:1078C9003050030279B8EED3943940030279B89065
:1078D9000003121A3DFEC3943050030279B5EED36A
:1078E900943940030279B5900004121A3DFEC394FD
:1078F9003050030279BDEED3943940030279BD902B
:107909000008121A3DFEC3943050030279B2EED337
:10791900943940030279B290000B121A3DFEC394C8
:107929003050030279AFEED39439507A90000C129B
:107939001A3DFEC39430406BEED3943950659000E4
:107949000E121A3DFEC394304056EED3943950506E
:1079590090000F121A3DFEC394304041EED3943982
:10796900503B900011121A3DFEC39430402CEED3C7
:1079790094395026900012121A3DFEC394304017D4
:10798900EED394395011900014121A3DFEC394306D
:107999004022EED39439227F01227F01227F0122E6
:1079A9007F01227F01227F01227F01227F01227F25
:0479B90001227F0127
:0179BD0022A7
:0B9D2800900019EBF0A3EAF0A3E9F0B3
:109D33007BFF7AC079AF12B53A7BFF7AC079C01244
:109D4300B53A12B8CEAD077F8612BE0312B8B0ADD6
:109D5300077F8812BE0390001AE475F001121AB04F
:109D630090001AE475F001121AB012B8B0AD077F73
:109D73008C12BE0312B8B0AD077F8412BE0312B8B3
:109D8300B0AD077F8212BE0312B8B0AD077F801259
:109D9300BE0390001AE475F001121AB090001AE4A1
:109DA30075F001121AB090001AE475F001121AB09E
:109DB300900019E0FBA3E0FAA3E0F9121A24540778
:069DC300FD7F8A02BE03D1
:10C01A00AE07EEC4540F540FFE6012EF540FFFE444
:0DC02A00FDEDC39E5007740A2FFF0D80F43A
:01C0370022E6
:10BA2C00121A7C90005EE475F001121AB090005D61
:0CBA3C00E0FBA3E0FAA3E0F9121A24FFDB
:10BA4800E4FEFDFCECC39F500B0DED640A7002FD93
:10BA58000E0C80F0EEC454F054F0FEED540F4EFF7F
:01BA680022BB
:0BA2000090005DEBF0A3EAF0A3E9F092
:10A20B0012BA39EF54F0C4540F4430FE900060E0A2
:10A21B00FBA3E0FAA3E0F9EE121A6AEF540F4430F5
:10A22B00FF900060E0FBA3E0FAA3E0F9900001EFE0
:10A23B0012BA2CEF54F0C4540F4430FE900060E07F
:10A24B00FBA3E0FAA3E0F9900002EE121A7CEF54A4
:10A25B000F443090000312BA2CEF54F0C4540F4447
:10A26B0030FE900060E0FBA3E0FAA3E0F99000045D
:10A27B00EE121A7CEF540F4430900005121A7C90AA
:06A28B000006E4021A7C4B
:10B1E300E4FFFE900019EDF0900019E0C39464743D
:10B1F3008094804007E0249CF00F80ECEF443012F1
:10B203001A6A740129F9E43AFA900019E0C3940A1E
:10B21300748094804007E024F6F00E80ECEE443016
:10B22300121A6A740129F9E43AFA900019E04430D9
:0EB23300121A6A740129F9E43AFAE4021A6A5E
:0E478900900019EBF0A3EAF0A3E9F0A3EDF025
:10479700E490001EF0A3F0900021F0A3F0A3F0A393
:1047A700F0900020EDF054F0F0E0FFC4540FF090CB
:1047B7000029121B59404000007F007E007D807C4D
:1047C700411268DBC004C005C006C007900020E0A6
:1047D700FCE4121536D003D002D001D00012142603
:1047E700C004C005C006C00790001EE0FCA3E0FDA2
:1047F700E4121531D003D002D001D00012133512C4
:10480700156A90001EEEF0A3EFF090001CE09000F8
:1048170020F0540FF0900029121B59400000007F30
:10482700007E007D807C411268DBC004C005C006A5
:10483700C007900020E0FCE4121536D003D002D068
:1048470001D000121426C004C005C006C00790009E
:104857001EE0FCA3E0FDE4121531D003D002D00125
:10486700D00012133512156A90001EEEF0A3EFF078
:1048770090001DE0900020F054F0F0E0FFC4540FCA
:10488700F0900029121B593F8000007F007E007DB9
:10489700807C411268DBC004C005C006C0079000D9
:1048A70020E0FCE4121536D003D002D001D000126C
:1048B7001426C004C005C006C00790001EE0FCA374
:1048C700E0FDE4121531D003D002D001D00012135D
:1048D7003512156A90001EEEF0A3EFF090001DE070
:1048E700900020F0540FF0900029121B590000008F
:1048F700007F007E007D807C411268DBC004C0051C
:10490700C006C007900020E0FCE4121536D003D0A3
:1049170002D001D000121426C004C005C006C0078B
:1049270090001EE0FCA3E0FDE4121531D003D00295
:10493700D001D00012133512156A90001EEEF0A3B5
:10494700EFF0C3EF9410EE9427401074F02FFF742C
:10495700D83EFE900021E004F080E7900021E0447B
:1049670030FD900019E0FBA3E0FAA3E0F9ED121A7D
:104977006A90001AE475F001121AB0C3EF94E8EEDA
:104987009403401074182FFF74FC3EFE900022E041
:1049970004F080E7900022E04430FD900019E0FB2E
:1049A700A3E0FAA3E0F9ED121A6A90001AE475F091
:1049B70001121AB0C3EF9464EE94004010749C2F58
:1049C700FF74FF3EFE900023E004F080E790002391
:1049D700E04430FD900019E0FBA3E0FAA3E0F9ED15
:1049E700121A6A90001AE475F001121AB0C3EF9414
:1049F7000AEE9400401074F62FFF74FF3EFE9000FD
:104A070024E004F080E7900024E04430FD90001992
:104A1700E0FBA3E0FAA3E0F9ED121A6A90001AE4AA
:104A270075F001121AB0EF4430FF900019E0FBA3B4
:104A3700E0FAA3E0F9EF121A6A90001AE475F001A0
:104A4700121AB0900019E0FBA3E0FAA3E0F9E40220
:024A57001A6AD9
:03676D0090005148
:1067700012A322EF54F0C4540F4430FE900051E0B5
:10678000FBA3E0FAA3E0F9EE121A6A900052E47556
:10679000F001121AB0EF540F4430FF900051E0FBAB
:1067A000A3E0FAA3E0F9EF121A6A900052E475F040
:1067B00001121AB07F8912A32CEF54F0C4540F4475
:1067C00030FE900051E0FBA3E0FAA3E0F9EE121ACC
:1067D0006A900052E475F001121AB0EF540F443081
:1067E000FF900051E0FBA3E0FAA3E0F9EF121A6A70
:1067F000900052E475F001121AB07F8712A32CEFBB
:1068000054F0C4540F4430FE900051E0FBA3E0FA72
:10681000A3E0F9EE121A6A900052E475F001121A20
:10682000B0EF540F4430FF900051E0FBA3E0FAA317
:10683000E0F9EF121A6A900052E475F001121AB0F2
:106840007F8512A32CEF54F0C4540F4430FE900007
:1068500051E0FBA3E0FAA3E0F9EE121A6A900052AD
:10686000E475F001121AB0EF540F4430FF9000515C
:10687000E0FBA3E0FAA3E0F9EF121A6A900052E4F9
:1068800075F001121AB07F8312A32CEF54F0C45498
:106890000F4430FE900051E0FBA3E0FAA3E0F9EED4
:1068A000121A6A900052E475F001121AB0EF540FF8
:1068B0004430FF900051E0FBA3E0FAA3E0F9EF12AF
:1068C0001A6A900052E475F001121AB0900051E07B
:0B68D000FBA3E0FAA3E0F9E4021A6A5F
:0B609B00900026EBF0A3EAF0A3E9F070
:1060A6007F8912A32CEF54F0C4540F4430FE9000A5
:1060B60026E0FBA3E0FAA3E0F9EE121A6A900027A5
:1060C600E475F001121AB0EF540F4430FF90002629
:1060D600E0FBA3E0FAA3E0F9EF121A6A900027E4C6
:1060E60075F001121AB07F8712A32CEF54F0C45436
:1060F6000F4430FE900026E0FBA3E0FAA3E0F9EEA1
:10610600121A6A900027E475F001121AB0EF540FC4
:106116004430FF900026E0FBA3E0FAA3E0F9EF127B
:106126001A6A900027E475F001121AB07F8D12A347
:106136002CEF54F0C4540F4430FE900026E0FBA32D
:10614600E0FAA3E0F9EE121A6A900027E475F0016E
:10615600121AB0EF540F4430FF900026E0FBA3E084
:10616600FAA3E0F9EF121A6A900027E475F001121B
:106176001AB07F8512A32CEF54F0C4540F4430FE9E
:10618600900026E0FBA3E0FAA3E0F9EE121A6A906B
:106196000027E475F001121AB0EF540F4430FF9057
:1061A6000026E0FBA3E0FAA3E0F9EF121A6A9000DA
:1061B60027E475F001121AB07F8312A32CEF54F076
:1061C600C4540F4430FE900026E0FBA3E0FAA3E09F
:1061D600F9EE121A6A900027E475F001121AB0EF70
:1061E600540F4430FF900026E0FBA3E0FAA3E0F949
:1061F600EF121A6A900027E475F001121AB09000A7
:1062060026E0FBA3E0FAA3E0F9742E121A6A9000C6
:1062160027E475F001121AB07F8112A32CEF54F017
:10622600C4540F4430FE900026E0FBA3E0FAA3E03E
:10623600F9EE121A6A900027E475F001121AB0EF0F
:10624600540F4430FF900026E0FBA3E0FAA3E0F9E8
:10625600EF121A6A900027E475F001121AB0900046
:0D62660026E0FBA3E0FAA3E0F9E4021A6AC7
:109B39009000AE12A32212C01A9000AEE0FBA3E07F
:109B4900FAA3E0F9EF121A6A9000AFE475F0011276
:109B59001AB07F8912A32C12C01A9000AEE0FBA3A1
:109B6900E0FAA3E0F9EF121A6A9000AFE475F00188
:109B7900121AB07F8712A32C12C01A9000AEE0FB14
:109B8900A3E0FAA3E0F9EF121A6A9000AFE475F0C6
:109B990001121AB07F8512A32C12C01A9000AEE0F0
:109BA900FBA3E0FAA3E0F9EF121A6A9000AFE4759B
:109BB900F001121AB07F8312A32C12C01A9000AEC2
:109BC900E0FBA3E0FAA3E0F9EF121A6A9000AFE410
:069BD90075F001021AB054
:10AE19009003DA12A3229003DAE0FBA3E0FAA3E09D
:10AE2900F990000EEF121A7C7F8912A32C9003DA95
:10AE3900E0FBA3E0FAA3E0F990000FEF121A7C7F80
:10AE49008712A32C9003DAE0FBA3E0FAA3E0F990C0
:10AE59000010EF121A7C7F8512A32C9003DAE0FB15
:10AE6900A3E0FAA3E0F9900011EF121A7C7F831294
:10AE7900A32C9003DAE0FBA3E0FAA3E0F990001217
:04AE8900EF021A7C3E
:108EE20090002612A322900026E0FBA3E0FAA3E062
:108EF200F9EF121A6A900027E475F001121AB07F96
:108F02008912A32C900026E0FBA3E0FAA3E0F9EF7C
:108F1200121A6A900027E475F001121AB07F8712C4
:108F2200A32C900026E0FBA3E0FAA3E0F9EF121ACB
:108F32006A900027E475F001121AB07F8512A32C03
:108F4200900026E0FBA3E0FAA3E0F9EF121A6A9080
:108F52000027E475F001121AB07F8312A32C90004F
:108F620026E0FBA3E0FAA3E0F9EF121A6A900027C9
:108F7200E475F001121AB07F8112A32C900026E052
:108F8200FBA3E0FAA3E0F9EF121A6A900027E47556
:108F9200F001121AB0900026E0FBA3E0FAA3E0F978
:048FA200E4021A6A61
:07C1A400C294C296D295225D
:0B8E190090009CEBF0A3EAF0A3E9F04E
:108E24007B017A0079A7129B399000A7E0FF7E00AE
:108E34007C017D6D121A9EAC06AD07A3E075F01E91
:108E4400A42DFFEC35F0FEA3E07C002FFFEC3EFEEA
:108E5400E4FD90009F121B4D90009CE0FBA3E0FA00
:108E6400A3E0F9900001121A3DFF3395E0FE7C0067
:108E74007D1E121A9EC006C007121A24FF3395E005
:108E8400FE0C7D6D121A9ED0E02FFFD0E03EFE90C6
:108E94000002121A3DFD3395E0FCEF2DFFEE3CFE7F
:108EA4003395E0FDFC9000A3121B4D90009FE0FC65
:108EB400A3E0FDA3E0FEA3E0FFA3E0F8A3E0F9A391
:108EC400E0FAA3E0FBC3121AEA40089000AD740173
:0D8ED400F08005E49000ADF09000ADE0FFEF
:018EE100226E
:10C0D700E4FDFCC3ED9FEC9E50070DBD00010C80F5
:01C0E700F266
:01C0E8002235
:04C03800AB07AA06A2
:10C03C00900000C3E5829BE5839A500A7F967E00B0
:06C04C0012C0D7A380ED35
:01C0520022CB
:08BB9600900014EEF0A3EFF0A3
:10BB9E00E4A3F0A3F0900014E0FEA3E0FFC3900036
:10BBAE0017E09F900016E09E50177F0A7E0012C08D
:10BBBE0038900017E004F070DC900016E004F0807E
:01BBCE00D4A2
:01BBCF002253
:01C1EF00222D
:10BB20004572726F72206465207469636B6574007E
:10BB30000A0D004E756D65726F206465207469632F
:10BB40006B65743A004E6F206465207469636B65A1
:0BBB500074204845583A00256C750031
:03BF9C0012BF379A
:10BF9F00D20ED293D292E4FFFE209205C20EC2932C
:0CBFAF00220FBF00010EBE04F0BF4CEDDD
:01BFBB002263
:03BFBC0012BF377A
:10BFBF00D293D292D20EE4FFFE209205C20EC2930C
:0CBFCF00220FBF00010EBE02F0BF8AED81
:01BFDB002243
:06C1DC00D29300C2932281
:10BF3700E4FEEEC39408748094805015EF25E0FF6B
:10BF470030D704D2928002C292D29312C1DC0E8003
:01BF5700E108
:01BF580022C6
:08C0E900ECFD7C00C293C29241
:0AC0F100D292D29300C292C29322B1
:0AC17E00C293C29200D293D2922223
:10B3FF00E4FBEBFDC39408748094805038C2933003
:10B40F0092169003DEE04401F0ED94067480948070
:10B41F005006E025E0F0D2932092179003DEE0541F
:10B42F00FEF0EBD39406748094805006E025E0F094
:0CB43F00D2930B80BDC2939003DEE0FFAF
:01B44B0022DE
:10B3550090005DE0FCA3E0FDA3E0FBA3E0FAA3E021
:07B36500F9121A24FB7FA876
:02B36C00AA072E
:10B36E00AF05A90712C0E9AF0212BF9CAF0512BF0D
:10B37E009CAF0112BF3712BF9FAF0312BF3712BF70
:10B38E009F12C17E7F0D7E0012C038D293D2927F63
:0DB39E00627E0012C0D77F627E0002C0D721
:04BA69007C027FA834
:02BA6D00AB0725
:10BA6F00AF05AA0712C0E9AF0312BFBCAF0512BFE3
:10BA7F00BCAF0212BF3712BFBF12C0F1EB04FF12EF
:10BA8F00BF3712BF9FC29312B3FF12C17ED293D2A0
:06BA9F00929003DEE0FFBF
:01BAA500227E
:0B8BB800900019EBF0A3EAF0A3E9F035
:108BC300E490001DF0900019E0FBA3E0FAA3E0F9A4
:108BD30090000AE4121A7CE490001CF090001CE060
:108BE300FFD39409748094805057900019E0FBA33D
:108BF300E0FAA3E0F98F82758300121A3DFF7E002D
:108C0300C3943074809480400AD3EF943974809471
:108C130080402690001D7401F07BFF7ABB792012FF
:108C2300B53A900019E0FBA3E0FAA3E0F912B53AD4
:108C33007BFF7ABB793012B53A90001CE004F080D8
:108C43009B90001DE0700E900019E0FBA3E0FAA3D7
:108C5300E0F90284C0E4FBFD7C027FA812B36CE45C
:108C6300FB7D017C027FA812B36CE4FB7402FDFC64
:108C73007FA812B36CE4FB7D037C027FA812B36C64
:018C830022CE
:0B84C00090001EEBF0A3EAF0A3E9F02F
:1084CB007F007E007D007C007BFF7ABB793312B589
:1084DB003A90001EE0FBA3E0FAA3E0F912B53A7B59
:1084EB00FF7ABB793012B53A90001EE0FBA3E0FA9D
:1084FB00A3E0F9127ACD900025121B4D7BFF7ABBBE
:10850B00794512B53A900025E0FCA3E0FDA3E0FE0F
:10851B00A3E0FF7818121AFB900021EFF012B5C000
:10852B00900025E0FCA3E0FDA3E0FEA3E0FF7810A4
:10853B00121AFB900022EFF012B5C0900025E0FC60
:10854B00A3E0FDA3E0FEA3E0FF7808121AFB900066
:10855B0023EFF012B5C0900025A3A3A3E0FF90007A
:10856B0024F012B5C07BFF7ABB793012B53A90007C
:10857B0021E0FB7D007C027FA812B36C900022E00F
:10858B00FB7D017C027FA812B36C900023E0FB748F
:10859B0002FDFC7FA812B36C900024E0FB7D037CF2
:0685AB00027FA802B36C80
:10B44C00128D4F90007A74FFF0A374BBF0A3745765
:10B45C00F0A3121B4D7B017A00794C12400F7B013B
:10B46C007A00794C12000E744C2FF582E43400F5FE
:10B47C0083E4F07B017A00794C12B53A7BFF7ABBFE
:0BB48C00793012B53A7B017A00794C50
:01B497002292
:108D4F0090005A121B59000000007D0012BA69A949
:108D5F00077D0112BA69900057EFF07402FDFC7F96
:108D6F00A812BA6D900058EFF07D0312BA69900007
:108D7F0059EFF0AF01A3E0F8A3E0F9A3E0FAA3E005
:108D8F004FFFEAFEE9FDE8FC7808121B0E90005A2F
:108D9F00121B4D900057E0FF90005AE0F8A3E0F946
:108DAF00A3E0FAA3E04FFFEAFEE9FDE8FC78081222
:108DBF001B0E90005A121B4D900058E0FF90005A66
:108DCF00E0F8A3E0F9A3E0FAA3E04FFFEAFEE9FD24
:108DDF00E8FC7808121B0E90005A121B4D90005998
:108DEF00E0FFA3E0F8A3E0F9A3E0FAA3E04FFFEA66
:108DFF00FEE9FDE8FC90005A121B4D90005AE0FC72
:098E0F00A3E0FDA3E0FEA3E0FFD7
:018E18002237
:10BCE200128D4FEF2401FFE43EFEE43DFDE43CFCF7
:10BCF20090007A74FFF0A374BBF0A37457F0A31200
:10BD02001B4D7B017A03790C12400F7B017A037978
:04BD12000C0284C0DB
:10B11B0090009CEEF0A3EFF0A3EBF0A3EAF0A3E911
:01B12B00F033
:10B12C0090009CE0FCA3E0FD7FA812BA6D90009EFD
:10B13C00E0FBA3E0FAA3E0F9EF121A6A90009EE09C
:10B14C00FBA3E0FAA3E0F9121A24FF90009DE0049F
:10B15C00F0700690009CE004F090009FE475F00104
:10B16C00121AB0EF70BA90009EE0FBA3E0FAA3E0D5
:05B17C00F9E4021A6A6B
:10AEFE0090005DEEF0A3EFF0A3EBF0A3EAF0A3E970
:10AF0E00F090005FE0FBA3E0FAA3E0F9121A2460D0
:10AF1E0024B40D04E4121A6A12B35590005EE004D4
:10AF2E00F0700690005DE004F0900060E475F001B2
:10AF3E00121AB080CC12B35590005EE004F0700689
:10AF4E0090005DE004F0900060E475F001121AB01C
:0FAF5E0090005DE0FCA3E0FDE4FB7FA802B36C74
:1092B00050756C7361646F722041637469766F0DD1
:1092C0000A0053656E736F726573204175746F2069
:1092D000792073656E736F72312061637469766F84
:1092E000732E0A0D0053656E736F7220616374698B
:1092F000766F2073656E736F72312E0A0D004465B0
:109300007465637461646F2E2053656E736F722091
:109310004175746F2E0A0D0053656E736F7265731D
:10932000206E6F2064657465637461646F732E0AC8
:109330000D005665686963756C6F204573706572C2
:10934000616E646F2053616C69722E0A0D00566560
:10935000686963756C6F2053616C69656E646F2E0C
:0F93600020556E206D6F6D656E746F2E0A0D00B7
:0A8B1400C10F4103F8004103F9000E
:07C1AB00C2B5C2B6C2B72203
:07C1B200C2B5D2B6C2B722EC
:07C1B900D2B5D2B6C2B722D5
:07C1C000C2B5C2B6D2B722DE
:07C1C700D2B5C2B6D2B722C7
:07C1CE00C2B5D2B6D2B722C0
:07C1D500D2B5D2B6D2B722A9
:10C0FB0012C1B920910B7BFF7A9279B012B53AD26B
:02C10B000F2201
:10BFDC00E4FF7DF47C01309115EFFB3395E04B7061
:0EBFEC000DED1D70011CED4C70EC7F0180E826
:01BFFA002224
:10BF59007F017DF47C01209118EFFB3395E0FAEB2A
:10BF690064014A700CED1D70011CED4C70E8FF80F6
:01BF7900E5E2
:01BF7A0022A4
:10B7A90090003B7401F012C1CE309103E004F01215
:10B7B900C1D530910790003BE02402F090003BE0B6
:10B7C900640170177D12FC7FA812BA6DEF600CF44A
:10B7D90090003B700404F08002EFF090003BE024FD
:02B7E90030FF2F
:01B7EB00223B
:10C099007D127C007FA812BA6DEF6005F470027FF3
:05C0A90001EF2430FF4F
:01C0AE00226F
:10B2FA0012C1C720912312C1B27BFF20910D7A920D
:10B30A0079C212B53AE49001AD80227A9279E512B7
:10B31A00B53A9001AD7401801412C1B27BFF20913D
:10B32A00187A9279FE12B53A9001AD7401F0900044
:10B33A001A74FFF012C0FB800C7A93791812B53A8E
:0AB34A00E490001AF090001AE0FFF2
:01B3540022D6
:10BC0A0012C1C030912012BFDCEF3395E0FEEF6421
:10BC1A00014E700A12B2FA900019EFF080147BFFFD
:10BC2A007A93793280067BFF7A93794E12B53A7FFE
:07BC3A000022900019E0FF59
:01BC410022E0
:10A89900E4900001F09003F8E004F0E0C39432740E
:10A8A900809480406EE4F012C1AB20915B9000016E
:10A8B900E0705512BF59EF3395E04F704B9003F993
:10A8C900E0702A900001E0702430B30B04F012B458
:10A8D900989003F97401F012BFDCEF3395E0FEEFB5
:10A8E90064014E70237F0AFE12BB96801B9003F908
:10A8F900E064017013900001E0700D30B30A04F0B8
:10A90900126F59E49003F9F012C1AB309105E4904C
:03A919000001F04A
:01A91C002218
:102EBD00494E4752455345205441524A45544120AD
:102ECD00005441524A4554412053494E20494E47E2
:102EDD005245534F20005441524A455441204E4FC4
:102EED00205245474953545241205041474F2000ED
:102EFD00455843454445205449454D504F20444580
:102F0D002047524143494120004D454E5355414CB8
:102F1D00204E4F204553544120454E205041525193
:102F2D005545414445524F2000444952494A415369
:102F3D004520412043414A412000475241434941E8
:102F4D00532E2E2E2000475241434941532E2E2EF3
:102F5D00004D454E5355414C494441442056454E34
:102F6D004349444120004D454E5355414C49444140
:102F7D00442045584345444520484F524152494FFE
:102F8D002041434552515545534520412043414A27
:102F9D004120004E4F204553204D454E5355414C39
:102FAD0049444144204E49205052455041474F001D
:102FBD004D454E5355414C204E4F205041474F20CB
:102FCD004C4F434143494F4E20484F590053494EB2
:102FDD002050524553454E4349412056454849439B
:102FED00554C415220005441524A455441204E4FB8
:102FFD002045532044454C205041525155454144A4
:10300D0045524F20004249454E56454E49444F2E9C
:10301D002050554C534520454C20424F544F4E2087
:10302D00005441524A4554412053494E20464F5277
:10303D004D41544F20004655455241204445204CAA
:10304D00494E45412000554E204D4F4D454E544F54
:10305D0020504F52204641564F5220004E4F204592
:10306D0053205441524A455441204D454E535541EC
:10307D004C20005441524A45544120494E56414C32
:10308D0049444120005441524A4554412053494E30
:10309D002053414C49444120005245474953545215
:1030AD004120494E475245534F20454E20504152E5
:1030BD00515545414445524F20004D454E535541C4
:1030CD004C20465545524120444520484F524152CF
:1030DD00494F2000484F524152494F204E4F2050EA
:1030ED00524F4752414D41444F200053494E2054B9
:1030FD0041524A4554415320004249454E56454E92
:10310D0049444F20004E4956454C2042414A4F20DC
:10311D004445205441524A455441532000613B38A7
:10312D00353B494E4752455345205441524A45542B
:10313D00410A0000613B38363B5441524A455441E7
:10314D002053494E20494E475245534F0A000061C6
:10315D003B38373B5441524A455441204E4F205243
:10316D0045474953545241205041474F0A00006191
:10317D003B38383B455843454445205449454D500F
:10318D004F204445204752414349410A0000613BCD
:10319D0038393B4D454E5355414C204E4F204553EC
:1031AD00544120454E2050415251554541444552C0
:1031BD004F0A0000613B39303B444952494A415363
:1031CD004520412043414A410A0000613B39313BD2
:1031DD00475241434941532E2E2E200A0000613B98
:1031ED0039333B4D454E5355414C204E4F204553A1
:1031FD00544120454E205041525155454144455270
:10320D004F0A0000613B39333B4D454E5355414C00
:10321D00204553544120454E205041525155454172
:10322D004445524F0A0000613B39343B4D454E53E6
:10323D0055414C494441442056454E434944410A69
:10324D000000613B39353B4D454E5355414C49448A
:10325D0041442045584345444520484F5241524929
:10326D004F2041434552515545534520412043413F
:10327D004A410A0000613B39363B4E4F20455320F1
:10328D004D454E5355414C49444144204E492050E3
:10329D0052455041474F0A0000613B39373B4D4580
:1032AD004E5355414C204E4F205041474F204C4FCF
:1032BD00434143494F4E20484F590A0000613B3965
:1032CD00383B53494E2050524553454E43494120BA
:1032DD005645484943554C41520A0000613B393827
:1032ED003B5441524A455441204E4F2045532044B2
:1032FD00454C20504152515545414445524F0A00CD
:10330D0000613B30303B4249454E56454E49444F96
:10331D002E2050554C534520454C20424F544F4E76
:10332D000A0000613B39383B5441524A4554412013
:10333D0053494E20464F524D41544F0A0000613BB8
:10334D0039383B4655455241204445204C494E4560
:10335D00410A0000613B39383B554E204D4F4D45DC
:10336D004E544F20504F52204641564F520A0000A6
:10337D00613B30383B4E4F204553205441524A4516
:10338D005441204D454E5355414C0A0000613B3987
:10339D00383B5441524A45544120494E56414C49BF
:1033AD0044410A0000613B39383B5441524A45546F
:1033BD00412053494E2053414C4944410A0000617C
:1033CD003B39383B524547495354524120494E47AA
:1033DD005245534F20454E20504152515545414481
:1033ED0045524F0A0000613B30373BA1204D454E01
:1033FD005355414C494441442056454E434944415F
:10340D0020210A0000613B30363B4D454E5355415E
:10341D004C20465545524120444520484F5241527B
:10342D00494F0A0000613B39383B53494E20544106
:10343D00524A455441530A0000613B39383B4E49CD
:10344D0056454C2042414A4F204445205441524A52
:10345D00455441530A0000613B39383B484F5241B6
:10346D0052494F204E4F2050524F4752414D4144EB
:10347D004F0A0000613B39383B4143455251554598
:10348D00205355205441524A455441204445204E25
:10349D005545564F0A0000613B30313B524554496A
:1034AD005245205355205441524A4554410A00007B
:1034BD00613B30333B4249454E56454E49444F0AD8
:1034CD000000613B39393B4C4F544520415349472E
:1034DD004E41444F2045535441204C4C454E4F0ACC
:1034ED00000057494547414E44200047524143494A
:1034FD0041532000613B39323B57494547414E44CA
:10350D0020000A0000613B39313B4752414349419C
:10351D00532000613B30333B4249454E56454E49A1
:10352D00444F200020504C414341000A00613B3084
:10353D00373B20A1204D454E5355414C4944414404
:10354D002056454E4349444120212056454E43497E
:10355D004F20323000633B39303B00643B00AA8082
:10356D0018010200AA8018010200000000000000EE
:10357D00000000000000000000000000000000003E
:10358D00000000000000000000000000000000002E
:0F359D000000AA80280720000000000014000092
:05277600900019EFF0D6
:10277B00781A7C007D017BFF7A35796B7E007F06B2
:10278B001219FEE4900021F0A3F0C2879001AAE099
:10279B006003022B427B017A00791AFD12B76D9010
:1027AB000019E0121BAA2B1D0128065528265628B6
:1027BB00465728665828865928A65A28C65B288665
:1027CB005D28E65E29065F2926602946612966AAEF
:1027DB002986AB29A6AC29C6AD29E6AE2A06AF2AB7
:1027EB0026B02A46B12A66B22A86B32AA6B52AC6CD
:1027FB00B62ADFFA2AFEFE00002B3F7BFF7A2E79EA
:10280B00BD12000E900020EFF0E4FDFF12BE84120B
:10281B00BE7B7BFF7A2E79BD022B3A7BFF7A2E791A
:10282B00CE12000E900020EFF0E4FDFF12BE8412DA
:10283B00BE7B7BFF7A2E79CE022B3A7BFF7A2E79E9
:10284B00E312000E900020EFF0E4FDFF12BE8412A5
:10285B00BE7B7BFF7A2E79E3022B3A7BFF7A2E79B4
:10286B00FD12000E900020EFF0E4FDFF12BE84126B
:10287B00BE7B7BFF7A2E79FD022B3A7BFF7A2F7979
:10288B001612000E900020EFF0E4FDFF12BE841232
:10289B00BE7B7BFF7A2F7916022B3A7BFF7A2F793F
:1028AB003612000E900020EFF0E4FDFF12BE8412F2
:1028BB00BE7B7BFF7A2F7936022B3A7BFF7A2F79FF
:1028CB004712000E900020EFF0E4FDFF12BE8412C1
:1028DB00BE7B7BFF7A2F7953022B3A7BFF7A2F79C2
:1028EB005E12000E900020EFF0E4FDFF12BE84128A
:1028FB00BE7B7BFF7A2F795E022B3A7BFF7A2F7997
:10290B007312000E900020EFF0E4FDFF12BE841254
:10291B00BE7B7BFF7A2F7973022B3A7BFF7A2F7961
:10292B00A012000E900020EFF0E4FDFF12BE841207
:10293B00BE7B7BFF7A2F79A0022B3A7BFF7A2F7914
:10294B00BD12000E900020EFF0E4FDFF12BE8412CA
:10295B00BE7B7BFF7A2F79BD022B3A7BFF7A2F79D7
:10296B00DA12000E900020EFF0E4FDFF12BE84128D
:10297B00BE7B7BFF7A2F79DA022B3A7BFF7A2F799A
:10298B00F312000E900020EFF0E4FDFF12BE841254
:10299B00BE7B7BFF7A2F79F3022B3A7BFF7A307960
:1029AB001212000E900020EFF0E4FDFF12BE841215
:1029BB00BE7B7BFF7A307912022B3A7BFF7A307920
:1029CB002E12000E900020EFF0E4FDFF12BE8412D9
:1029DB00BE7B7BFF7A30792E022B3A7BFF7A3079E4
:1029EB004312000E900020EFF0E4FDFF12BE8412A4
:1029FB00BE7B7BFF7A307943022B3A7BFF7A3079AF
:102A0B005312000E900020EFF0E4FDFF12BE841273
:102A1B00BE7B7BFF7A307953022B3A7BFF7A30797E
:102A2B006912000E900020EFF0E4FDFF12BE84123D
:102A3B00BE7B7BFF7A307969022B3A7BFF7A307948
:102A4B008012000E900020EFF0E4FDFF12BE841206
:102A5B00BE7B7BFF7A307980022B3A7BFF7A307911
:102A6B009212000E900020EFF0E4FDFF12BE8412D4
:102A7B00BE7B7BFF7A307992022B3A7BFF7A3079DF
:102A8B00A612000E900020EFF0E4FDFF12BE8412A0
:102A9B00BE7B7BFF7A3079A6022B3A7BFF7A3079AB
:102AAB00C712000E900020EFF0E4FDFF12BE84125F
:102ABB00BE7B7BFF7A3079C7022B3A7BFF7A30796A
:102ACB00E112000E900020EFF012BE7F7BFF7A30F8
:102ADB0079E1805B7BFF7A3079F812000E90002051
:102AEB00EFF0E4FDFF12BE8412BE7B7BFF7A3079E0
:102AFB00F8803C7BFF7A31790612000E900020EFB4
:102B0B00F0E4FDFF12BE8412BE7B7BFF7A317906A7
:102B1B00801D7BFF7A31791212000E900020EFF0AE
:102B2B00E4FDFF12BE8412BE7B7BFF7A3179127DEE
:102B3B000112B76DD28722C287900019E0121BAA2F
:102B4B002E08012BB2552BC9562BE0572BF7582CBF
:102B5B000E592C255A2C3C5B2C535D2C815E2C98EA
:102B6B005F2CAF602CC6612C6A632E8D9A2E779CDE
:102B7B002E359E2E4BA12CDDAA2CF4AB2D0BAC2DA0
:102B8B0022AD2D39AE2D50AF2D67B02D7EB12D95C9
:102B9B00B22DACB32DC3B42DDAB52E1FB62DF1FA71
:102BAB002E61FE00002EB3900021E0FEA3E0AA06EA
:102BBB00F8AC027D017BFF7A31792A022EA19000BD
:102BCB0021E0FEA3E0AA06F8AC027D017BFF7A317F
:102BDB007941022EA1900021E0FEA3E0AA06F8ACF9
:102BEB00027D017BFF7A31795C022EA1900021E0FE
:102BFB00FEA3E0AA06F8AC027D017BFF7A31797C5B
:102C0B00022EA1900021E0FEA3E0AA06F8AC027D03
:102C1B00017BFF7A31799B022EA1900021E0FEA36C
:102C2B00E0AA06F8AC027D017BFF7A3179C1022E56
:102C3B00A1900021E0FEA3E0AA06F8AC027D017B87
:102C4B00FF7A3179D8022EA1900021E0FEA3E0AAF1
:102C5B0006F8AC027D017BFF7A3179EB022EA19055
:102C6B000021E0FEA3E0AA06F8AC027D017BFF7A0F
:102C7B00327911022EA1900021E0FEA3E0AA06F802
:102C8B00AC027D017BFF7A327934022EA1900021B8
:102C9B00E0FEA3E0AA06F8AC027D017BFF7A327955
:102CAB004F022EA1900021E0FEA3E0AA06F8AC0291
:102CBB007D017BFF7A327982022EA1900021E0FE0A
:102CCB00A3E0AA06F8AC027D017BFF7A3279A6025B
:102CDB002EA1900021E0FEA3E0AA06F8AC027D0134
:102CEB007BFF7A3279CA022EA1900021E0FEA3E08D
:102CFB00AA06F8AC027D017BFF7A3279E9022EA19C
:102D0B00900021E0FEA3E0AA06F8AC027D017BFF58
:102D1B007A33790E022EA1900021E0FEA3E0AA06E1
:102D2B00F8AC027D017BFF7A337930022EA1900043
:102D3B0021E0FEA3E0AA06F8AC027D017BFF7A330B
:102D4B00794B022EA1900021E0FEA3E0AA06F8AC7D
:102D5B00027D017BFF7A337961022EA1900021E085
:102D6B00FEA3E0AA06F8AC027D017BFF7A33797DE6
:102D7B00022EA1900021E0FEA3E0AA06F8AC027D92
:102D8B00017BFF7A33799A022EA1900021E0FEA3FA
:102D9B00E0AA06F8AC027D017BFF7A3379B2022EF2
:102DAB00A1900021E0FEA3E0AA06F8AC027D017B16
:102DBB00FF7A3379CC022EA1900021E0FEA3E0AA8A
:102DCB0006F8AC027D017BFF7A3379F3022EA190DA
:102DDB000021E0FEA3E0AA06F8AC027D017BFF7A9E
:102DEB00347912022EA1900021E0FEA3E0AA06F88E
:102DFB00AC027D017BFF7A347932022EA190002147
:102E0B00E0FEA3E0AA06F8AC027D017BFF7A3479E1
:102E1B0046022EA1900021E0FEA3E0AA06F8AC0228
:102E2B007D017BFF7A347964806C900021E0FEA3F6
:102E3B00E0AA06F8AC027D017BFF7A3479818056DB
:102E4B00900021E0FEA3E0AA06F8AC027D017BFF17
:102E5B007A3479A48040900021E0FEA3E0AA06F822
:102E6B00AC027D017BFF7A3479BD802A900021E092
:102E7B00FEA3E0AA06F8AC027D017BFF7A3479CF82
:102E8B008014900021E0FEA3E0AA06F8AC027D01BD
:102E9B007BFF7A347912121E37900021E0FEA3E0FB
:102EAB00AA06F97B0112AA2EE4900021F0A3F0D21E
:012EBB00878F
:012EBC0022F3
:0E4D1000900019EFF0A3EBF0A3EAF0A3E9F096
:104D1E00781D7C007D017BFF7A3579717E007F06E0
:104D2E001219FE78247C007D017BFF7A3579777E1F
:104D3E00007F281219FEC2879001AAE06003024D7F
:104D4E00E7900019E024A56040146003024DE412C0
:104D5E00B7657BFF7A3479EF12000E900023EFF0E7
:104D6E0090001AE0FBA3E0FAA3E0F912000E900007
:104D7E0023E02F04F0E4FDFF12BE8490002312BE48
:104D8E007E7BFF7A3479EF803812B7657BFF7A34F9
:104D9E0079F812000E900023EFF090001AE0FBA3BA
:104DAE00E0FAA3E0F912000E900023E02F04F0E4E5
:104DBE00FDFF12BE8490002312BE7E7BFF7A3479F3
:104DCE00F87D0112B76D90001AE0FBA3E0FAA3E0A4
:104DDE00F97D0112B76DD28722C287900019E024A7
:104DEE00A5602F24C07003024EAC24FE7003024F48
:104DFE006624E97003024EF324B6602524A26003F4
:104E0E00024FAD78247C007D017BFF7A357901025B
:104E1E004EB878247C007D017BFF7A357912024EE4
:104E2E00FF78247C007D017BFF7A35792012AA253C
:104E3E0020100B12B44C78247C007D018011782454
:104E4E007C007D0190001AE0FBA3E0FAA3E0F912CA
:104E5E00AA2578247C007D017BFF300B377A3579CB
:104E6E0031121E3790004FE4F0A37400F0A37411BA
:104E7E00F07B017A00792412B0B090004F74FFF0ED
:104E8E00A37435F0A3740FF07B017A00792412B06D
:104E9E00B0024FAA7A357938121E37024FAA7824FB
:104EAE007C007D017BFF7A357920121E3790001A27
:104EBE00E0F9A3E0FAA3E090004FC9F0A3EAF0A353
:104ECE00E9F07B017A00792412B0B090004F74FFA4
:104EDE00F0A37435F0A3740FF07B017A00792412DD
:104EEE00B0B0024FAA78247C007D017BFF7A357921
:104EFE003A121E3790001AE0FBA3E0FAA3E0F91273
:104F0E00000E900023EFF024FFFFE434FFFE90002C
:104F1E001AE0FBA3E0FAA3E0F98F828E83E4121A63
:104F2E007C90001AE0F9A3E0FAA3E090004FC9F0DC
:104F3E00A3EAF0A3E9F07B017A00792412B0B090D5
:104F4E00004F74FFF0A37435F0A3740FF07B017A59
:104F5E0000792412B0B0804478247C007D017BFF60
:104F6E007A357962121E3790001AE0F9A3E0FAA39F
:104F7E00E090004FC9F0A3EAF0A3E9F07B017A00BC
:104F8E00792412B0B090004F74FFF0A37435F0A3E3
:104F9E00740FF07B017A00792412B0B012AA28E4C3
:064FAE00900024F0D28700
:014FB40022DA
:09BE7B00900020E025E0FFE4FD49
:05BE8400900051EDF0FB
:10BE890012B9B0900052EFF0900051E0600AE4FF5F
:08BE990012B9B0900052EFF065
:01BEA100227E
:08B765007B017A00791DE4FD6F
:0EB76D0090004CEBF0A3EAF0A3E9F0A3EDF09E
:10B77B00E4A3F090004CE0FBA3E0FAA3E0F9900007
:10B78B0050E0F582758300121A3DFF601090004F58
:0DB79B00E0FD12BE84900050E004F080D666
:01B7A800227E
:0EB69400900026EBF0A3EAF0A3E9F0A3EDF09E
:10B6A200E490002BF0900029E0FF90002BE0FEC315
:10B6B2009F5024900026E0FBA3E0FAA3E0F98E82DB
:10B6C200758300121A3DFF90002AE0FD12BE84909D
:07B6D200002BE004F080CE24
:01B6D900224E
:09AA2500121E377B017A0079242E
:0BAA2E0090004CEBF0A3EAF0A3E9F06D
:10AA390012000E900050EFF0E490004FF09000509B
:10AA4900E0FF90004FE0C39F503DE4900051F0902B
:10AA59000051E0C39464748094805005E004F08050
:10AA6900EE90004CE0FBA3E0FAA3E0F9A3E0F58245
:10AA7900758300121A3DFF12B9B0900051EFF090A2
:10AA8900004FE004F080B6E4900051F0900051E0EE
:0EAA9900C39464748094805005E004F080EE55
:01AAA700228C
:10ACA90078197C007D017BFF7A35799F7E007F0DC5
:10ACB9001219FE9001AAE07022C2877B017A0079FD
:10ACC9001E128EE2C29C7B017A007919E490002A57
:10ACD900F07D0D12B694D29CD28722C287E49000EF
:10ACE90019F078197C007D017BFF7A357968121E8D
:10ACF900377B017A00791B12609B90004F74FFF03B
:10AD0900A37435F0A3740FF07B017A00791912B09E
:0CAD1900B07B017A00791912AA2ED287B3
:01AD2500220B
:10002600402321246046625E262A003A5B3C253F37
:1000360058545D3D29000D0A0A25733E20002563AC
:10004600002564000D0A0A2041435455414C2049BD
:10005600445F434C49454E54453D25730D0A0A00FD
:100066000D0A0A20444947495445205355204E5508
:1000760045564F2049445F434C49454E54453D0043
:100086000D0A0A204441544F204D4F4449464943E6
:1000960041444F2049445F434C49454E54453D2514
:1000A600730D0A0A000D0A0A2041435455414C209B
:1000B600434F445F5041524B3D25730D0A0A000DD4
:1000C6000A0A20444947495445205355204E554570
:1000D600564F20434F445F5041524B3D000D0A0A94
:1000E600204441544F204D4F444946494341444FD3
:1000F60020434F445F5041524B3D25730D0A0A0081
:100106000D0A0A2041435455414C205449454D504F
:100116004F5F4752414349413D25730D0A0A000D81
:100126000A0A20444947495445205355204E55450F
:10013600564F205449454D504F5F47524143494120
:100146003D000D0A0A204441544F204D4F44494674
:10015600494341444F205449454D504F5F47524112
:100166004349413D25730D0A0A000D0A0A20414301
:100176005455414C2053494E5F434F42524F2049FC
:100186004E484142494C495441444F3D25730D0A5E
:100196000A000D0A0A2041435455414C2053494E4A
:1001A6005F434F42524F204752415449533D2573B6
:1001B6000D0A0A000D0A0A2041435455414C2053AA
:1001C600494E5F434F42524F2047524154495320B4
:1001D600592053414C49444120454C204D49534DEB
:1001E6004F204449413D25730D0A0A000D0A0A2095
:1001F600444947495445205355204E5545564F20AE
:1002060053494E5F434F42524F3D000D0A0A20416B
:10021600435455414C20444542554720494E484198
:1002260042494C495441444F3D25730D0A0A000D7D
:100236000A0A2041435455414C2044454255472023
:10024600484142494C495441444F3D25730D0A0AE1
:10025600000D0A0A2044494749544520454C204E82
:100266005545564F2045535441444F20444520445C
:10027600454255473D000D0A0A2041435455414C1D
:10028600205553455F4C505220494E484142494CF7
:10029600495441444F3D25730D0A0A000D0A0A20B0
:1002A60041435455414C205553455F4C50522048CC
:1002B6004142494C495441444F3D25730D0A0A00B9
:1002C6000D0A0A2044494749544520454C204E55BD
:1002D60045564F2045535441444F204445205553DD
:1002E600455F4C50523D000D0A0A2050414E544184
:1002F6004C4C41204C434420484142494C495441CE
:1003060044413D25730D0A0A000D0A0A2050414E4C
:1003160054414C4C4120524153504245525259206F
:1003260020484142494C49544144413D25730D0AF8
:100336000A000D0A0A2044494749544520454C20E5
:100346004E5545564F2045535441444F2044452071
:100356004C412050414E54414C4C41203D000D0A29
:100366000A2041435455414C20434F4D5041524180
:1003760043494F4E2041435449564120204841426B
:10038600494C49544144413D25730D0A0A000D0A62
:100396000A20455850494445205441524A45544143
:1003A6002050554C53414E444F20424F544F4E0D12
:1003B6000A0A000D0A0A204558504944452054416E
:1003C600524A455441204155544F4D4154494341A9
:1003D6000D0A0A000D0A0A2044494749544520459A
:1003E6004C204E5545564F2045535441444F2044CA
:1003F600454C20455850454449444F523D000D0A4E
:100406000A2041435455414C20414E5449504153D2
:10041600534241434B20494E484142494C4954417D
:10042600444F3D25730D0A0A000D0A0A2041435424
:1004360055414C20414E5449504153534241434B40
:1004460020484142494C495441444F3D25730D0AC9
:100456000A000D0A0A2044494749544520454C20C4
:100466004E5545564F2045535441444F2044452050
:10047600414E5449504153534241434B3D000D0AAE
:100486000A2041435455414C20504C414341204998
:100496004E484142494C495441444F3D25730D0A4B
:1004A6000A000D0A0A2041435455414C20504C4144
:1004B600434120484142494C495441444F3D2573EC
:1004C6000D0A0A000D0A0A204449474954452045A9
:1004D6004C204E5545564F2045535441444F2044D9
:1004E6004520504C4143413D000D0A0A20414354EA
:1004F60055414C20414444524553535F484947486F
:100506005F424F4152443D25730D0A0A000D0A0A07
:1005160020444947495445204C41204E55455641B3
:1005260020414444524553535F484947485F424F30
:100536004152443D000D0A0A2041435455414C2086
:10054600484F524152494F20494E484142494C4931
:100556005441444F3D25730D0A0A000D0A0A2041F5
:10056600435455414C20484F524152494F2048412F
:1005760042494C495441444F3D25730D0A0A000D2A
:100586000A0A2044494749544520454C204E5545C2
:10059600564F2045535441444F20444520484F521E
:1005A6004152494F3D000D0A0A2044696769746546
:1005B60020486F72612030383A3030204D696E75B0
:1005C600746F732044657364653A20000D0A0A202F
:1005D600486F72612050726F6772616D616461204D
:1005E60044657364653A200025633A000D0A0A20C3
:1005F60044696769746520486F72613A4D696E7522
:10060600746F732048617374613A20000D0A0A20E2
:10061600486F72612050726F6772616D616461200C
:1006260048617374613A20000D0A2044657364655D
:10063600202048617374610D0A002025630025633C
:10064600202020000D0A0A20446967697465206C21
:100656006F73206469617320612070726F677261C5
:100666006D6172204C756E6573203D20322C200022
:100676004D6172746573203D20332C204D6965727F
:10068600636F6C6573203D20342C204A7565766552
:1006960073203D20352C2000566965726E657320E7
:1006A6003D20362C2053616261646F203D20372C3B
:1006B60020446F6D696E676F203D2031203A20001F
:1006C6000D0A0A20446961732050726F6772616D6A
:1006D60061646F73203A2000204C756E6573003D8F
:1006E6002025632C00204D617274657300204D69CE
:1006F6006572636F6C657300204A75657665730075
:1007060020566965726E6573002053616261646F7D
:100716000020446F6D696E676F003D2025630020E1
:100726004C756E6573203D2050726F6772616D6106
:10073600646F0D0A00204C756E6573203D204E6F68
:100746002070726F6772616D61646F0D0A00204DD3
:100756006172746573203D2050726F6772616D61BE
:10076600646F0D0A00204D6172746573203D204E42
:100776006F2070726F6772616D61646F0D0A002081
:100786004D696572636F6C6573203D2050726F67AB
:1007960072616D61646F0D0A00204D696572636F49
:1007A6006C6573203D204E6F2070726F6772616DAD
:1007B60061646F0D0A00204A7565766573203D20D9
:1007C60050726F6772616D61646F0D0A00204A7521
:1007D60065766573203D204E6F2070726F6772617B
:1007E6006D61646F0D0A0020566965726E6573202F
:1007F6003D2050726F6772616D61646F0D0A002053
:10080600566965726E6573203D204E6F2070726F5B
:100816006772616D61646F0D0A00205361626164E5
:100826006F203D2050726F6772616D61646F0D0AB3
:10083600002053616261646F203D204E6F2070720C
:100846006F6772616D61646F0D0A0020446F6D6998
:100856006E676F203D2050726F6772616D61646FC5
:100866000D0A0020446F6D696E676F203D204E6F44
:100876002070726F6772616D61646F0D0A000D0AF8
:100886000A2044696769746520656C206E756D651C
:10089600726F2064656C20486F726172696F2061A7
:1008A6002070726F6772616D6172203D20000D0AC3
:1008B6000A2050726F6772616D6172207365677589
:1008C6006E646F20486F726172696F2073693D288C
:1008D6003129206E6F3D2830293D20000D0A0A205F
:1008E60041435455414C205449504F5F5645484961
:1008F60043554C4F204D454E5355414C20494E488B
:100906004142494C495441444F3D25730D0A0A0062
:100916000D0A0A2041435455414C205449504F5F1B
:100926005645484943554C4F204D454E5355414C2D
:1009360020484142494C495441444F3D25730D0AD4
:100946000A000D0A0A2044494749544520454C20CF
:100956004E5545564F2045535441444F204445205B
:100966005449504F5F5645484943554C4F204D45D5
:100976004E5355414C3D000D0A0A20414354554102
:100986004C205449504F5F5645484943554C4F20DB
:10099600204D454E5355414C20484142494C4954FF
:1009A60041444F3D25730D0A0A000D0A0A204143B2
:1009B6005455414C20414E544950415353424143B2
:1009C6004B204D454E5355414C20494E48414249D6
:1009D6004C495441444F3D25730D0A0A000D0A0A3D
:1009E6002041435455414C20414E544950415353A4
:1009F6004241434B204D454E5355414C20484142C0
:100A0600494C495441444F3D25730D0A0A000D0ACD
:100A16000A2044494749544520454C204E554556E1
:100A26004F2045535441444F20444520414E54499C
:100A3600504153534241434B204D454E5355414C33
:100A46003D000D0A0A2041435455414C20414E5465
:100A560049504153534241434B20204D454E535537
:100A6600414C20484142494C495441444F3D25732D
:100A76000D0A0A000D0A0A2041435455414C2046EE
:100A8600454348412056454E43494D49454E544FEE
:100A96002050415353574F52443A25730D0A0A00CA
:100AA6000D0A0A2F3E496420526567697374726F96
:100AB6003A002573000D0A0A2F3E50617373776F53
:100AC60072643A000D0A0A20444947495445204CAD
:100AD60041204E5545564120464543484120444510
:100AE6002056454E43494D49454E544F3D000D0A4B
:100AF6000A2025730D0A0A000D0A0A202558000D42
:100B06000A0A2041435455414C204645434841205A
:100B160044452056454E43494D49454E544F205075
:100B2600524F4752414D414441203D25730D0A0A1B
:100B3600000D0A206E756D65726F2064656C204825
:100B46006F726172696F202070726F6772616D617A
:100B5600646F203D2025630D0A000D0A2020484FB2
:100B6600524152494F20484142494C495441444F11
:100B760020203D204F4E0D0A000D0A204469617366
:100B86002050726F6772616D61646F730D0A000D9C
:100B96000A2020534547554E444F20484F52415254
:100BA600494F20484142494C495441444F20203D39
:100BB600204F4E0D0A000D0A20534547554E444F0F
:100BC60020484F524152494F20484142494C4954CE
:100BD60041444F20203D204F46460D0A000D0A2075
:100BE60020484F524152494F20484142494C4954AE
:100BF60041444F20203D204F46460D0A000D0A2055
:100C060049445F434C49454E54455F50524F475205
:100C1600414D41444F203D2025730D0A000D0A2009
:100C2600434F445F5041524B5F50524F4752414DE4
:100C360041444F203D2025730D0A000D0A205052D5
:100C46004F4752414D41444F204445425547203D70
:100C5600204F4E0D0A000D0A2050524F4752414D6B
:100C660041444F204445425547203D204F46460DBE
:100C76000A000D0A205553455F4C5052203D204F27
:100C860046460D0A000D0A205553455F4C5052202A
:100C96003D204F4E0D0A000D0A2050414E54414C46
:100CA6004C41204C43442050524F4752414D414401
:100CB600410D0A000D0A2050414E54414C4C412032
:100CC600524153504245525259202050524F47529A
:100CD600414D4144410D0A000D0A204558504944F2
:100CE60045205441524A4554412050554C53414E9B
:100CF600444F20424F544F4E0D0A000D0A204558CE
:100D060050494445205441524A4554412041555486
:100D16004F4D41544943410D0A000D0A2020414ED2
:100D26005449504153534241434B203D204F464680
:100D36000D0A000D0A20414E544950415353424179
:100D4600434B203D204F4E0D0A000D0A20504C41CA
:100D56004341203D204F46460D0A000D0A20504CC7
:100D6600414341203D204F4E0D0A000D0A204143CC
:100D76005455414C20414444524553535F484947DA
:100D8600485F424F415244203D2025730D0A000D15
:100D96000A205449504F5F5645484943554C4F2009
:100DA6004D454E5355414C203D204F46460D0A00B9
:100DB6000D0A205449504F5F5645484943554C4FFC
:100DC600204D454E5355414C203D204F4E0D0A00B7
:100DD6000D0A20414E5449504153534241434B2042
:100DE6004D454E5355414C203D204F46460D0A0079
:100DF6000D0A2020414E5449504153534241434B22
:100E0600204D454E5355414C203D204F4E0D0A0076
:100E16000D0A2041435455414C2046454348412044
:100E260044452056454E43494D49454E544F205062
:100E3600524F4752414D414441203D25730D0A0012
:100E46000D0A2049445F434C49454E544520202015
:100E56002020202020202D2D2D20434D44203020E1
:100E66004964656E746966696361646F722064655E
:100E76006C20636C69656E7465206D6178696D6F51
:100E860020323535000D0A20434F445F5041524B06
:100E960020202020202020202020202D2D2D204302
:100EA6004D44203120456C206E756D65726F20644F
:100EB600656C20706172717565616465726F206D15
:100EC6006178696D6F20323535000D0A20545F4711
:100ED600524143494120202020202020202020204C
:100EE6002D2D2D20434D442032205469656D706FA1
:100EF6002073696E20636F62726F2030302C202061
:100F06006D6178696D6F20323535000D0A205349C1
:100F16004E5F434F42524F20202020202020202089
:100F2600202D2D2D20434D44203320496E686162CB
:100F3600696C697461646F3D20302C20477261745E
:100F460069733D2031202C204772617469732079C2
:100F56002073616C69646120656C206D69736D6FC7
:100F6600206469613D2032000D0A20444542554700
:100F760020202020202020202020202020202D2D51
:100F86002D20434D44203420486162696C697461A8
:100F960072203D20312C20496E686162696C69744B
:100FA6006172203D2030000D0A205553455F4C509C
:100FB600522020202020202020202020202D2D2DD2
:100FC60020434D44203520486162696C6974617222
:100FD600203D20312C20496E686162696C6974611C
:100FE60072203D2030000D0A205449504F5F504179
:100FF6004E54414C4C412020202020202D2D2D20C8
:10100600434D4420362050414E54414C4C41204CD7
:101016004344203D302050414E54414C4C412052D7
:1010260041535042455252493D31000D0A20434139
:1010360052445F4155544F4D41544943412020206D
:10104600202D2D2D20434D44203720424F54544F00
:101056004E3D30204155544F4D41544943413D3159
:10106600000D0A20414E5449504153534241434BCF
:10107600202020202020202D2D2D20434D442038B7
:1010860020486162696C69746172203D20312C20B0
:10109600496E686162696C69746172203D20300036
:1010A6000D0A20504C4143412020202020202020A2
:1010B6002020202020202D2D2D20434D4420392076
:1010C600486162696C69746172203D20312C204947
:1010D6006E686162696C69746172203D2030000D32
:1010E6000A20414444524553535F484947485F42AA
:1010F6004F415244202D2D2D20434D442031302088
:101106004C6120646972656363696F6E20616C74FB
:10111600612064656C20626F6172642064656C2076
:101126006E756D65726F203520616C20392073698C
:101136006E6F207365207573612064656265206932
:101146007220656E2030000D0A20484F52415249E8
:101156004F2020202020202020202020202D2D2D33
:1011660020434D442031312050726F67616D6120FC
:10117600313020686F726172696F732064656C200C
:101186003120616C203130000D0A2056414C494413
:10119600415F564548495F4D454E5355414C2D2DAF
:1011A6002D20434D4420313220486162696C6974B8
:1011B6006172203D20312C20496E686162696C693C
:1011C600746172203D2030000D0A205553455F4161
:1011D60050425F4D454E5355414C202020202D2D29
:1011E6002D20434D4420313320486162696C697477
:1011F6006172203D20312C20496E686162696C69FC
:10120600746172203D2030000D0A205645525F5011
:10121600524F4752414D4143494F4E2020202D2DDC
:101226002D20434D44203134204D75657374726111
:10123600206C612070726F6772616D6163696F6E99
:10124600000D0A204159554441202020202020200D
:10125600202020202020202D2D2D20434D442031DC
:1012660035204D756573747261206C6F7320636FE2
:101276006D616E646F73000D0A2053414C49522014
:10128600202020202020202020202020202D2D2D31
:1012960020434D442031362053616C6972206465C9
:1012A6002070726F6772616D6163696F6E000D0AFF
:1012B6000A53697374656D612064652050726F67A7
:1012C60072616D6163696F6E2045787065646964EB
:1012D6006F72200D0A0D0A000D0A436F6D616E6470
:1012E6006F206E6F206578697374652027257327D4
:1012F600003A5B3C253F58545D3D2900232A594A54
:1013060041494D4563616D696C744B0077727A3261
:10131600357136382D393166532E4000200D0A00BE
:08132600200D0A00220D0A004F
:108B1E005401C32F00000000000000000000000000
:108B2E00000000000000004B01B861646D696E002A
:108B3E000000000000603601D73000003100003226
:108B4E00000033000034000035000036000037000E
:108B5E000038000039000031300031310031320070
:0F8B6E00313300313400313500313600313700FA
:0B56DA0090005DEBF0A3EAF0A3E9F004
:1056E50078627C007D017BFF7A1279F77E007F0B63
:1056F5001219FE786D7C007D017BFF7A1379027E9D
:10570500007F101219FE787D7C007D017BFF7A13E6
:1057150079127E007F101219FE7B017A0079987F3D
:10572500507E0312B11B7B017A007998128E19EF16
:105735003395E0FEEF64014E78627C007D017BFFCE
:1057450060067A00792680047A007931121E379036
:10575500005DE0FBA3E0FAA3E0F912000E90006003
:10576500EFF0E4A3F0900061E0FFC3940A74809425
:105775008040030258CC90005DE0FBA3E0FAA3E073
:10578500F98F82758300121A3DFD7C0074622FF536
:1057950082E43400F583E02DFFEC339001B4F0A3EF
:1057A500EFF07E00540FFFA3EEF0A3EFF0700BE0D7
:1057B50004F070069001B6E004F09001B6E0FEA397
:1057C500E0246CF58274003EF583E07E002DFFEE4B
:1057D5003C9001B4F0A3EFF07E00540FFFA3EEF070
:1057E500A3EFF0700BE004F070069001B6E004F052
:1057F5009001B6E0FEA3E0247CF58274003EF583BB
:10580500E0FF9001B4E0FEA3E06FFF9001B4EEF07D
:10581500FEA3EFF0D394FFEE940040059001B4E4AD
:10582500F09001B4E0FEA3E0FFC3947AEE9400404B
:1058350015D3EF94FFEE9400500CEF547AFF9001CE
:10584500B4E4F0A3EFF0C39001B5E094309001B457
:10585500E09400500CA3E02440F09001B4E0340043
:10586500F09001B4E0FEA3E0FFC3945BEE9400402A
:1058750014D3EF9460EE9400500BE02407F09001F0
:10588500B4E03400F09001B4E0FEA3E0FFC3943A25
:10589500EE94004014D3EF9440EE9400500BE024B6
:1058A500F9F09001B4E034FFF09001B4A3E0FF906B
:1058B5000061E0248DF582E43400F583EFF090007B
:1058C50061E004F002576A900061E0248DF582E4FE
:0C58D5003400F583E4F07B017A00798D4B
:0158E10022A4
:0BB18100900046EBF0A3EAF0A3E9F019
:10B18C00E490004CF090004CE0FFC3941274809457
:10B19C00805041EF75F003A424D7F9740135F0FA0F
:10B1AC007B0178497C007D01121E3778497C007D3B
:10B1BC0001900046E0FBA3E0FAA3E0F9121D4EEF6C
:10B1CC003395E04F700690004CE0FF2290004CE06D
:06B1DC0004F080B17FFFCA
:01B1E200224A
:08B7EC00E0FBA3E0FAA3E0F981
:0BB7F40090005DEBF0A3EAF0A3E9F089
:10B7FF0078607C007D017B017A0179B8121E377861
:10B80F00607C007D0190005DE0FBA3E0FAA3E0F90E
:0EB81F00121D4EEF3395E04F7002FF227FFFA7
:01B82D0022F8
:06B8F1007B017A007932B0
:0BB8F70090005DEBF0A3EAF0A3E9F085
:10B9020078607C007D017BFF7A1379227E007F04C0
:10B912001219FE9000677401F0A37400F0A3746022
:0FB92200F090005DE0FBA3E0FAA3E0F902869B42
:10A3B200E0FBA3E0FAA3E02FF9EA3EFAE92401F96F
:03A3C200E43AFA80
:0BA3C500900046EBF0A3EAF0A3E9F0E3
:10A3D00078497C007D017BFF7A1379267E007F041B
:10A3E0001219FE784D7C007D017BFF7A13792A7E5D
:10A3F000007F041219FE900046E0FBA3E0FAA3E000
:10A40000F9121A24FFB4200C900047E475F00112F1
:10A410001AB080E2EF900067B4220D7401F0A374CB
:10A4200000F0A3744DF080167401F0A37400F0A343
:10A430007449F0900046E0FBA3E0FAA3E0F912862D
:01A440009B80
:01A4410022F8
:10C06B0090007A7401F0A37401F0A374C3F07BFF0A
:07C07B007A00793C02401538
:08AB29007A0079637B01E4FD71
:0EAB3100900071EBF0A3EAF0A3E9F0A3EDF0C1
:10AB3F0012C172900071E0FBA3E0FAA3E0F9EF12EB
:10AB4F001A6A900074E0701D900071E0FBA3E0FAA8
:10AB5F00A3E0F9121A2490007AF07BFF7A0079446F
:10AB6F0012401580057F2A12B9B0900071E0FBA347
:10AB7F00E0FAA3E0F9121A24FF7E00900072E47548
:10AB8F00F001121AB0900071E0FBA3E0FAA3E0F914
:09AB9F00E4121A6AEF640D7097CC
:01ABA800228A
:10971B00E4FDFC7FA812BA6D7E00900050EEF0A322
:10972B00EFF090007A74FFF0A37400F0A37447F08D
:10973B00A3EEF0A3EFF07B017A00794612400F9075
:10974B00007A7401F0A37400F0A37446F07BFF7AE7
:10975B0000794A1240157BFF7A0079661240157A20
:10976B0000794612AB2D7B017A00794612885D9009
:10977B000050EEF0A3EFF0FBE4FDFC7FA812B36CFE
:10978B00E4FDFC7FA812BA6D7E00900050EEF0A3B2
:10979B00EFF090007A74FFF0A37400F0A37447F01D
:1097AB00A3EEF0A3EFF07B017A00794612400F9005
:1097BB00007A7401F0A37400F0A37446F07BFF7A77
:0697CB0000798602401542
:10942D007D027C007FA812BA6D7E00900050EEF098
:10943D00A3EFF090007A74FFF0A37400F0A37447CB
:10944D00F0A3EEF0A3EFF07B017A00794612400F06
:10945D0090007A7401F0A37400F0A37446F07BFFC2
:10946D007A0079AB1240157BFF7A0079C512401551
:10947D007B017A007946E4FD12AB317B017A0079EC
:10948D004612885D900050EEF0A3EFF0FB7D027C5C
:10949D00007FA812B36C7D027C007FA812BA6D7E8E
:1094AD0000900050EEF0A3EFF090007A74FFF0A35F
:1094BD007400F0A37447F0A3EEF0A3EFF07B017AF4
:1094CD0000794612400F90007A7401F0A37400F0F9
:0D94DD00A37446F07BFF7A0079E30240158E
:1094EA007D047C007FA812BA6D7E00900050EEF0D9
:1094FA00A3EFF090007A74FFF0A37400F0A374470E
:10950A00F0A3EEF0A3EFF07B017A00794612400F48
:10951A0090007A7401F0A37400F0A37446F07BFF04
:10952A007A0179061240157BFF7A017925124015D6
:10953A007B017A007946E4FD12AB317B017A00792E
:10954A004612885D900050EEF0A3EFF0FB7D047C9C
:10955A00007FA812B36C7D047C007FA812BA6D7ECE
:10956A0000900050EEF0A3EFF090007A74FFF0A3A1
:10957A007400F0A37447F0A3EEF0A3EFF07B017A36
:10958A0000794612400F90007A7401F0A37400F03B
:0D959A00A37446F07BFF7A0179480240156A
:106CDD007D067C007FA812BA6D7E00900050EEF00C
:106CED00A3EFF090007A74FFF0A37400F0A3744743
:106CFD00F0A3EEF0A3EFF07B017A00794612400F7E
:106D0D00900050E07002A3E0701590007A04F0A39B
:106D1D007400F0A37446F07BFF7A01797080359092
:106D2D000050E07004A3E06401701590007A04F047
:106D3D00A37400F0A37446F07BFF7A017998801458
:106D4D0090007A7401F0A37400F0A37446F07BFFF9
:106D5D007A0179BA1240157BFF7A0179F21240154A
:106D6D007B017A007946E4FD12AB317B017A007923
:106D7D004612885D900050EEF0A3EFF0FB7D067C8F
:106D8D00007FA812B36C7D067C007FA812BA6D7EC1
:106D9D0000900050EEF0A3EFF090007A74FFF0A396
:106DAD007400F0A37447F0A3EEF0A3EFF07B017A2B
:106DBD0000794612400F900050E07002A3E070156C
:106DCD0090007A04F0A37400F0A37446F07BFF7A70
:106DDD000179708035900050E07004A3E06401707B
:106DED001590007A04F0A37400F0A37446F07BFFB5
:106DFD007A017998801490007A7401F0A37400F0F0
:0D6E0D00A37446F07BFF7A0179BA1240159C
:016E1A002255
:107DDC007D087C007FA812BA6D7E00900050EEF0FA
:107DEC00A3EFF090007A74FFF0A37400F0A3744733
:107DFC00F0A3EEF0A3EFF07B017A00794612400F6E
:107E0C00900050E07002A3E0701590007A04F0A38B
:107E1C007400F0A37446F07BFF7A02791180149001
:107E2C00007A7401F0A37400F0A37446F07BFF7A1F
:107E3C000279351240157BFF7A0279571240157B77
:107E4C00017A007946E4FD12AB317B017A00794668
:107E5C0012885D900050EEF0A3EFF0FB7D087C00E3
:107E6C007FA812B36C7D087C007FA812BA6D7E00CF
:107E7C00900050EEF0A3EFF090007A74FFF0A37432
:107E8C0000F0A37447F0A3EEF0A3EFF07B017A00AF
:107E9C00794612400F900050E07002A3E0701590EC
:107EAC00007A04F0A37400F0A37446F07BFF7A020E
:107EBC007911801490007A7401F0A37400F0A3740B
:0B7ECC0046F07BFF7A0279351240156A
:017ED7002288
:107ED8007D0A7C007FA812BA6D7E00900050EEF0FB
:107EE800A3EFF090007A74FFF0A37400F0A3744736
:107EF800F0A3EEF0A3EFF07B017A00794612400F71
:107F0800900050E07002A3E0701590007A04F0A38E
:107F18007400F0A37446F07BFF7A02797C80149099
:107F2800007A7401F0A37400F0A37446F07BFF7A22
:107F38000279A21240157BFF7A0279C61240157B9E
:107F4800017A007946E4FD12AB317B017A0079466B
:107F580012885D900050EEF0A3EFF0FB7D0A7C00E4
:107F68007FA812B36C7D0A7C007FA812BA6D7E00D0
:107F7800900050EEF0A3EFF090007A74FFF0A37435
:107F880000F0A37447F0A3EEF0A3EFF07B017A00B2
:107F9800794612400F900050E07002A3E0701590EF
:107FA800007A04F0A37400F0A37446F07BFF7A0211
:107FB800797C801490007A7401F0A37400F0A374A3
:0B7FC80046F07BFF7A0279A212401500
:017FD300228B
:107FD4007D0E7C007FA812BA6D7E00900050EEF0FA
:107FE400A3EFF090007A74FFF0A37400F0A3744739
:107FF400F0A3EEF0A3EFF07B017A00794612400F74
:10800400900050E07002A3E0701590007A04F0A391
:108014007400F0A37446F07BFF7A0279ED8014902B
:10802400007A7401F0A37400F0A37446F07BFF7A25
:1080340003790F1240157BFF7A0379381240157BC0
:10804400017A007946E4FD12AB317B017A0079466E
:1080540012885D900050EEF0A3EFF0FB7D0E7C00E3
:108064007FA812B36C7D0E7C007FA812BA6D7E00CF
:10807400900050EEF0A3EFF090007A74FFF0A37438
:1080840000F0A37447F0A3EEF0A3EFF07B017A00B5
:10809400794612400F900050E07002A3E0701590F2
:1080A400007A04F0A37400F0A37446F07BFF7A0214
:1080B40079ED801490007A7401F0A37400F0A37435
:0B80C40046F07BFF7A03796412401540
:0180CF00228E
:10912D007D0F7C007FA812BA6D7E00900050EEF08E
:10913D00A3EFF090007A74FFF0A37400F0A37447CE
:10914D00F0A3EEF0A3EFF07B017A00794612400F09
:10915D00900050E07002A3E07BFF70067A037994D3
:10916D0080047A0379B91240157BFF7A0379DA12FC
:10917D0040157B017A007946E4FD12AB317B017A13
:10918D0000794612885D900050EEF0A3EFF0FB7D64
:10919D000F7C007FA812B36C7D0F7C007FA812BAE4
:1091AD006D7E00900050EEF0A3EFF090007A74FF0A
:1091BD00F0A37400F0A37447F0A3EEF0A3EFF07BDF
:1091CD00017A00794612400F900050E07002A3E042
:1091DD007BFF70067A03799480047A0379B9124083
:0191ED00156C
:0191EE00225E
:1080D0007D107C007FA812BA6D7E00900050EEF0FB
:1080E000A3EFF090007A74FFF0A37400F0A374473C
:1080F000F0A3EEF0A3EFF07B017A00794612400F77
:10810000900050E07002A3E0701590007A04F0A394
:108110007400F0A37446F07BFF7A04790480149015
:10812000007A7401F0A37400F0A37446F07BFF7A28
:1081300004792F1240157BFF7A0479581240157B81
:10814000017A007946E4FD12AB317B017A00794671
:1081500012885D900050EEF0A3EFF0FB7D107C00E4
:108160007FA812B36C7D107C007FA812BA6D7E00D0
:10817000900050EEF0A3EFF090007A74FFF0A3743B
:1081800000F0A37447F0A3EEF0A3EFF07B017A00B8
:10819000794612400F900050E07002A3E0701590F5
:1081A000007A04F0A37400F0A37446F07BFF7A0415
:1081B0007904801490007A7401F0A37400F0A37421
:0B81C00046F07BFF7A04792F12401577
:0181CB002291
:1081CC007D117C007FA812BA6D7E00900050EEF0FD
:1081DC00A3EFF090007A74FFF0A37400F0A374473F
:1081EC00F0A3EEF0A3EFF07B017A00794612400F7A
:1081FC00900050E07002A3E0701590007A04F0A398
:10820C007400F0A37446F07BFF7A04798480149098
:10821C00007A7401F0A37400F0A37446F07BFF7A2B
:10822C000479A81240157BFF7A0479CA1240157B99
:10823C00017A007946E4FD12AB317B017A00794674
:10824C0012885D900050EEF0A3EFF0FB7D117C00E6
:10825C007FA812B36C7D117C007FA812BA6D7E00D2
:10826C00900050EEF0A3EFF090007A74FFF0A3743E
:10827C0000F0A37447F0A3EEF0A3EFF07B017A00BB
:10828C00794612400F900050E07002A3E0701590F8
:10829C00007A04F0A37400F0A37446F07BFF7A0418
:1082AC007984801490007A7401F0A37400F0A374A4
:0B82BC0046F07BFF7A0479A812401501
:0182C7002294
:10877F007D127C007FA812BA6D7E00900050EEF043
:10878F00A3EFF090007A74FFF0A37400F0A3744786
:10879F00F0A3EEF0A3EFF07B017A00794612400FC1
:1087AF00900050E07002A3E0700690007A048005FC
:1087BF0090007A7401F0A37400F0A37446F07BFF6D
:1087CF007A0479EF1240157BFF7A05791312401561
:1087DF007B017A007946E4FD12AB317B017A007997
:1087EF004612885D900050EEF0A3EFF0FB7D127CF7
:1087FF00007FA812B36C7D127C007FA812BA6D7E29
:10880F0000900050EEF0A3EFF090007A74FFF0A309
:10881F007400F0A37447F0A3EEF0A3EFF07B017A9E
:10882F0000794612400F900050E07002A3E07006EE
:10883F0090007A04800590007A7401F0A37400F020
:0D884F00A37446F07BFF7A0479EF12401508
:01885C0022F9
:10BD16009000747419F0A37432F0A3744BF0A374FA
:10BD260064F0A3747DF0A37496F0A374AFF0A374CB
:10BD3600C8F0A374E1F0A374FAF0E4A3F07B017AEF
:03BD46000079740D
:01BD490022D7
:0A767600900061EEF0FCA3EFF0FDC0
:107680007FA812BA6D7E0090006DEEF0A3EFF0902F
:10769000007A74FFF0A37400F0A37447F0A3EEF037
:1076A000A3EFF07B017A00796312400F90006DE048
:1076B0007002A3E0701590007A04F0A37400F0A3A8
:1076C0007463F07BFF7A05793B801490007A740133
:1076D000F0A37400F0A37463F07BFF7A0579611264
:1076E00040157BFF7A0579851240157B017A007978
:1076F00063E4FD12AB317B017A00796312885D90FF
:10770000006DEEF0A3EFF0900061E0FCA3E0FDABB4
:10771000077FA812B36C900061E0FCA3E0FD7FA896
:1077200012BA6D7E0090006DEEF0A3EFF090007A3B
:1077300074FFF0A37400F0A37447F0A3EEF0A3EF7E
:10774000F07B017A00796312400F90006DE07002C7
:10775000A3E090006F7018F0A3F090007A04F0A3FB
:107760007400F0A37463F07BFF7A05793B8017E423
:10777000F0A304F090007AF0A37400F0A37463F017
:0F7780007BFF7A05796112401590006FA3E0FF3F
:01778F0022D7
:0858E200900061EEF0A3EFF06D
:1058EA007BFF7A0579AC12401512AB297BFF7A054A
:1058FA0079D2124015900062E02407FD900061E021
:10590A003400FC900063E0FB7FA812B36C90006245
:10591A00E02407FD900061E03400FC7FA812BA6D14
:10592A007BFF7A00794490007AEFF01240159000DC
:10593A0062E02408FD900061E03400FC900064E01D
:10594A00FB7FA812B36C900062E02408FD9000610E
:10595A00E03400FC7FA812BA6D7BFF7A0579EE90DD
:10596A00007AEFF0124015900062E02409FD9000E1
:10597A0061E03400FC900066E0FB7FA812B36C90F3
:10598A000062E02409FD900061E03400FC7FA81267
:10599A00BA6D7BFF7A00794490007AEFF0124015D5
:1059AA00900062E0240AFD900061E03400FC90005F
:1059BA0067E0FB7FA812B36C900062E0240AFD90B6
:1059CA000061E03400FC7FA812BA6D7BFF7A00798F
:1059DA004490007AEFF01240157BFF7A0579F212B3
:1059EA00401512AB297BFF7A0679121240159000F6
:1059FA0062E0240BFD900061E03400FC900063E05B
:105A0A00FB7FA812B36C900062E0240BFD9000614A
:105A1A00E03400FC7FA812BA6D7BFF7A00794490CB
:105A2A00007AEFF0124015900062E0240CFD90001D
:105A3A0061E03400FC900064E0FB7FA812B36C9034
:105A4A000062E0240CFD900061E03400FC7FA812A3
:105A5A00BA6D7BFF7A0579EE90007AEFF012401565
:105A6A00900062E0240DFD900061E03400FC90009B
:105A7A0066E0FB7FA812B36C900062E0240DFD90F3
:105A8A000061E03400FC7FA812BA6D7BFF7A0079CE
:105A9A004490007AEFF0124015900062E0240EFD67
:105AAA00900061E03400FC900067E0FB7FA812B32D
:105ABA006C900062E0240EFD900061E03400FC7FEF
:105ACA00A812BA6D7BFF7A00794490007AEFF0024F
:025ADA00401575
:08779000900074EEF0A3EFF08D
:107798007BFF7A06792E124015900075E02407FDCC
:1077A800900074E03400FC7FA812BA6D7BFF7A0663
:1077B800794090007AEFF0124015900075E02408A7
:1077C800FD900074E03400FC7FA812BA6D7BFF7A4C
:1077D8000579EE90007AEFF0124015900075E024DC
:1077E80009FD900074E03400FC7FA812BA6D7BFF9D
:1077F8007A00794490007AEFF0124015900075E015
:10780800240AFD900074E03400FC7FA812BA6D7B56
:10781800FF7A06794490007AEFF0124015900075CF
:10782800E0240BFD900074E03400FC7FA812BA6DD0
:107838007BFF7A00794490007AEFF01240159000AF
:1078480075E0240CFD900074E03400FC7FA812BAA7
:107858006D7BFF7A0579EE90007AEFF01240159073
:107868000075E0240DFD900074E03400FC7FA81240
:10787800BA6D7BFF7A00794490007AEFF0124015D8
:10788800900075E0240EFD900074E03400FC7FA8A1
:1078980012BA6D7BFF7A00794490007AEFF00240CB
:0178A80015CA
:084A5900900061EEF0A3EFF004
:104A61007BFF7A06794A1240157BFF7A0679761226
:104A710040157BFF7A06799E1240157B017A0079F9
:104A810063E4FD12AB317BFF7A0679C6124015E46F
:104A910090006EF090006EE0FFC3940874809480E3
:104AA1004003024D0F74632FF582E43400F583E077
:104AB10090006FF0643270437BFF7A0679DE12401A
:104AC10015900062E02401FD900061E03400FC7B60
:104AD100327FA812B36C900062E02401FD90006166
:104AE100E03400FC7FA812BA6D90006DEFF07BFFFF
:104AF1007A0679E590007AF012401590006EE02474
:104B010063F582E43400F583E090006FF064337064
:104B1100437BFF7A0679EB124015900062E0240294
:104B2100FD900061E03400FC7B337FA812B36C90F0
:104B31000062E02402FD900061E03400FC7FA812D5
:104B4100BA6D90006DEFF07BFF7A0679E590007AFF
:104B5100F012401590006EE02463F582E43400F514
:104B610083E090006FF0643470437BFF7A0679F341
:104B7100124015900062E02403FD900061E03400D2
:104B8100FC7B347FA812B36C900062E02403FD909B
:104B91000061E03400FC7FA812BA6D90006DEFF067
:104BA1007BFF7A0679E590007AF012401590006E4D
:104BB100E02463F582E43400F583E090006FF06453
:104BC1003570437BFF7A0679FE124015900062E052
:104BD1002404FD900061E03400FC7B357FA812B312
:104BE1006C900062E02404FD900061E03400FC7FE1
:104BF100A812BA6D90006DEFF07BFF7A0679E5900F
:104C0100007AF012401590006EE02463F582E434DE
:104C110000F583E090006FF0643670437BFF7A0704
:104C21007906124015900062E02405FD900061E0D4
:104C31003400FC7B367FA812B36C900062E024053F
:104C4100FD900061E03400FC7FA812BA6D90006D08
:104C5100EFF07BFF7A0679E590007AF0124015902B
:104C6100006EE02463F582E43400F583E090006F88
:104C7100F0643770437BFF7A07790F12401590007B
:104C810062E02406FD900061E03400FC7B377FA8E0
