:1085020041016A0A41019D004101A80041019E000A
:108512004101A60042019F00004101A7064101ACB2
:09852200034101ABF2C109C10AD9
:03000B0002AC95AF
:10AC9500C0E0C083C08290016AE014F0E0640170F6
:10ACA5000690019DE004F09001A0E004F07006908C
:0EACB500019FE004F0C28DD082D083D0E03247
:10AFEE00E58954F04401F589E4F58CF58AD28C227A
:05B08300C28DD2A922DC
:03B09200C2A9222E
:0BB01D0012ADB8EFF47002EEF460F525
:01B028002205
:05A949009000A8EFF0F2
:10A94E009000A8E0FF12AAB4EF3395E04F6024E424
:10A95E009000A9F0A3F0C39000AAE094E89000A99B
:10A96E00E0940350DBA3E004F070EB9000A9E00448
:08A97E00F080E39000A8E0FF67
:01A9860022AE
:0EA6AD00900028EBF0A3EAF0A3E9F0A3EDF093
:10A6BB00E4A3F090002BE0FFA3E0C39F5029900090
:10A6CB0028E0FBA3E0FAA3E0F9121A24FF12A94930
:10A6DB0090002DEFF0900029E475F001121AB09064
:07A6EB00002CE004F080CC1C
:01A6F2002245
:10AFFE0012B08D12B04512B029C283D287C29722E9
:10A45D007D047C007FA812A9C89001A9E4F0A3EFA8
:10A46D00F07D067C007FA812A9C89001A4E4F0A39A
:10A47D00EFF07D087C007FA812A9C89001A2EFF033
:10A48D007D0A7C007FA812A9C89001A1EFF07D0E76
:0DA49D007C007FA812A9C89001A3EFF02257
:10996300E4900000F012AFEE12B08312ACEF12AD30
:109973004112AFFED2AF12AED47F217E0012AF945C
:1099830012AF557F6112A54612B04C2091031247C6
:109993005612A45D1261CDEF70FA90016A7405F05E
:1099A30020800312AE04900000E0FF123700900005
:1099B30000EFF020B3267B017A01794212907C906C
:1099C3000001EFF0FD7B017A01794212AA797B0154
:1099D3007A017942900001E0FD123E91129A65806E
:0199E300BFC4
:05B088004C4956450093
:0E3E9100900002EBF0A3EAF0A3E9F0A3EDF03D
:103E9F006419705D900002E0FBA3E0FAA3E0F91251
:103EAF001A246402704B900002121A3D644870414C
:103EBF00900005E07E0024FFF582EE34FFF58312BB
:103ECF001A3D6403702B900002A3A3E02403F9E4CE
:103EDF003AFA126B0DEF60030241CE900002E0FB45
:103EEF00A3E0FAA3E02403F9E43AFA12951502A429
:103EFF0008900002E0FBA3E0FAA3E0F9121A246491
:103F0F00B6702890020FE004F0E0D394047480940C
:103F1F008050030241CE7FAE122CA4C282E49001E6
:103F2F009DF0C297C28390020FF022900002E0FB37
:103F3F00A3E0FAA3E0F9121A24FF64B76005EF6457
:103F4F00AA705390019DE0C394147480948040082C
:103F5F00E4F0C297D282C2839001A2E060030241D3
:103F6F00CE9001A1E0640160030241CEC39001A095
:103F7F00E0945890019FE0940250030241CEE4F088
:103F8F00A3F09001A204F07BFF7AB0798812A59973
:103F9F00E49001A2F022900002E0FBA3E0FAA3E07C
:103FAF00F9121A2464B170057F60024086900002F6
:103FBF00E0FBA3E0FAA3E0F9121A2464B270057FC4
:103FCF005D024086900005E064017017900002E0EA
:103FDF00FBA3E0FAA3E0F9121A2464A170057F5A3B
:103FEF00024086900005E064017016900002E0FB2D
:103FFF00A3E0FAA3E0F9121A24640670047FAA80E2
:10400F0076900005E064017016900002E0FBA3E0DB
:10401F00FAA3E0F9121A24640770047F5F805890A6
:10402F000005E064017016900002E0FBA3E0FAA324
:10403F00E0F9121A24640870047F61803A90000539
:10404F00E064017016900002E0FBA3E0FAA3E0F930
:10405F00121A24640970047FAF801C900005E0647D
:10406F00017017900002E0FBA3E0FAA3E0F9121A27
:10407F002464B470057F5E022CA4900005E0FF64F9
:10408F00137038900002E0FBA3E0FAA3E0F9900070
:10409F0001121A3DB456247E0074FF2FF582EE34C0
:1040AF00FFF583121A3D64037011900002A3A3E081
:1040BF002402F9E43AFA7F5B02418F900005E0FF9A
:1040CF0064066003024192900002E0FBA3E0FAA3B2
:1040DF00E0F9121A24640260030241929000011267
:1040EF001A3D64576003024192FE74FF2FF582EE72
:1040FF0034FFF583121A3D6403600302419290006E
:10410F0002A3A3900002121A3DFD7B017A007906EB
:10411F0012A1949000097420F0900002E0FBA3E03C
:10412F00FAA3E0F9900003121A3DFD900002A3A339
:10413F00900004121A3D90001AF07B017A00790A60
:10414F001241CF9001A1E06401702112AB29EFF46D
:10415F0060077FAA122CA480097B017A00790612CE
:10416F007C737B017A0079067F5C801412AB29EF98
:10417F00F460057FAA122CA47B017A0079067F5C7C
:10418F00024982900005E0FF640C7033900002E05A
:10419F00FBA3E0FAA3E0F9121A2464027021FE7463
:1041AF00FF2FF582EE34FFF583121A3D6403700F73
:0F41BF00900002A3A3E02401F9E43AFA127D492B
:0141CE0022CE
:0EA84800900033EBF0A3EAF0A3E9F0A3EDF0EB
:10A85600E4A3F0900036E0FFA3E0C39F50249000ED
:10A8660033E0FBA3E0FAA3E0F9121A24FF12A5468F
:10A87600900034E475F001121AB0900037E004F04D
:02A8860080D17F
:01A8880022AD
:0B7C7300900011EBF0A3EAF0A3E9F091
:107C7E009000327403F090001414F012A7C3900019
:107C8E0015EFF0A37453F09001A6E090003260134C
:107C9E00E0FF04F074142FF582E43400F583744D84
:107CAE00F08011E0FF04F074142FF582E43400F537
:107CBE00837443F09000327404F0900011E0FBA343
:107CCE00E0FAA3E0F9121A24FF6021900032E024BA
:107CDE0014F582E43400F583EFF0900012E475F0B1
:107CEE0001121AB0900032E004F080CE900032E023
:107CFE00FF04F074142FF582E43400F583743AF027
:107D0E00900032E02414F9E43400FA7B011259E0B9
:107D1E00900032E0FF241EF582E43400F583743ABD
:107D2E00F0741F2FF582E43400F5837403F07B01A9
:0B7D3E007A007914EF240CFD02A84825
:08000300D29412B098C29422BD
:05A90A009000B5EFF024
:10A90F00E4A3F0A3F09000B5E0FFA2E713F030D777
:10A91F0004D2958002C2951200039000B7E004F0B4
:10A92F0070069000B6E004F0C39000B7E094089072
:09A93F0000B6E06480948040CC75
:01A9480022EC
:0A93F500EBF0A3EAF0A3E9F07F8D8E
:0593FF009000B2EFF048
:10940400D2967F037E0012AF949000B2E0FF12A9BF
:109414000AE49000B3F0A3F09000B3E0FCA3E0FDF5
:10942400C39408EC64809480504F309516900210D9
:10943400E04480F0ED9406EC648094805005E0FFF5
:10944400C313F0209520900210E0547FF0D39000D5
:10945400B4E094069000B3E06480948050089002D5
:1094640010E0FFC313F01200039000B4E004F070A6
:10947400A79000B3E004F0809FC296900210E0FF32
:0194840022C5
:10AD1900900014EFF0A3EDF0D2967F037E0012AFFE
:10AD290094900014E0FF12A90A900015E0FF90002A
:08AD390014F012A90AC29622CF
:10A88900900012E475F001121AB0900012E475F00C
:10A8990001121AB0900012E475F001121AB090007A
:10A8A90011E0FBA3E0FAA3E0F9121A24FF900001DA
:04A8B900121A3DFD35
:0CA8BD00EF540FC454F0FFED540F4FFF98
:01A8C900226C
:106B0D00E4FF121A24FEC394305003026C1FEED31F
:106B1D0094394003026C1F900001121A3DFEC3947C
:106B2D00305003026C1CEED394394003026C1C9060
:106B3D000003121A3DFEC394305003026C19EED3BC
:106B4D0094394003026C19900004121A3DFEC3944F
:106B5D00305003026C21EED394394003026C219026
:106B6D000008121A3DFEC394305003026C16EED38A
:106B7D0094394003026C1690000B121A3DFEC3941B
:106B8D00305003026C13EED39439507A90000C12EE
:106B9D001A3DFEC39430406BEED39439506590008E
:106BAD000E121A3DFEC394304056EED39439505018
:106BBD0090000F121A3DFEC394304041EED394392C
:106BCD00503B900011121A3DFEC39430402CEED371
:106BDD0094395026900012121A3DFEC3943040177E
:106BED00EED394395011900014121A3DFEC3943017
:106BFD004022EED39439227F01227F01227F012290
:106C0D007F01227F01227F01227F01227F01227FCE
:046C1D0001227F01D0
:016C21002250
:0B951500900011EBF0A3EAF0A3E9F0D6
:1095200012A8A7AD077F8612AD1912A889AD077FD3
:109530008812AD19900012E475F001121AB0900073
:1095400012E475F001121AB012A889AD077F8C12CF
:10955000AD1912A889AD077F8412AD1912A889AD83
:10956000077F8212AD1912A889AD077F8012AD194D
:10957000900012E475F001121AB0900012E475F038
:1095800001121AB0900012E475F001121AB09000A6
:1095900011E0FBA3E0FAA3E0F9121A245407FD7FBF
:0495A0008A02AD1975
:10AEED00AE07EEC4540F540FFE6012EF540FFFE483
:0DAEFD00FDEDC39E5007740A2FFF0D80F479
:01AF0A002224
:10A98700121A7C90005FE475F001121AB090005E15
:0CA99700E0FBA3E0FAA3E0F9121A24FF91
:10A9A300E4FEFDFCECC39F500B0DED640A7002FD49
:10A9B3000E0C80F0EEC454F054F0FEED540F4EFF35
:01A9C3002271
:0B92420090005EEBF0A3EAF0A3E9F05F
:10924D0012A994EF54F0C4540F4430FE900061E025
:10925D00FBA3E0FAA3E0F9EE121A6AEF540F4430C3
:10926D00FF900061E0FBA3E0FAA3E0F9900001EFAD
:10927D0012A987EF54F0C4540F4430FE900061E002
:10928D00FBA3E0FAA3E0F9900002EE121A7CEF5472
:10929D000F443090000312A987EF54F0C4540F44CB
:1092AD0030FE900061E0FBA3E0FAA3E0F99000042A
:1092BD00EE121A7CEF540F4430900005121A7C9078
:0692CD000006E4021A7C19
:10A19400E4FFFE900016EDF0900016E0C3946474A2
:10A1A4008094804007E0249CF00F80ECEF44301250
:10A1B4001A6A740129F9E43AFA900016E0C3940A81
:10A1C400748094804007E024F6F00E80ECEE443076
:10A1D400121A6A740129F9E43AFA900016E044303C
:0EA1E400121A6A740129F9E43AFAE4021A6ABE
:0E41CF00900016EBF0A3EAF0A3E9F0A3EDF0E8
:1041DD00E490001BF0A3F090001EF0A3F0A3F0A359
:1041ED00F090001DEDF054F0F0E0FFC4540FF0908E
:1041FD000026121B59404000007F007E007D807C10
:10420D0041125B4EC004C005C006C00790001DE002
:10421D00FCE4121536D003D002D001D000121426C2
:10422D00C004C005C006C00790001BE0FCA3E0FD64
:10423D00E4121531D003D002D001D0001213351283
:10424D00156A90001BEEF0A3EFF0900019E09000BE
:10425D001DF0540FF0900026121B59400000007FF6
:10426D00007E007D807C41125B4EC004C005C006FF
:10427D00C00790001DE0FCE4121536D003D002D02B
:10428D0001D000121426C004C005C006C00790005E
:10429D001BE0FCA3E0FDE4121531D003D002D001E8
:1042AD00D00012133512156A90001BEEF0A3EFF03B
:1042BD0090001AE090001DF054F0F0E0FFC4540F90
:1042CD00F0900026121B593F8000007F007E007D7C
:1042DD00807C41125B4EC004C005C006C007900033
:1042ED001DE0FCE4121536D003D002D001D000122F
:1042FD001426C004C005C006C00790001BE0FCA337
:10430D00E0FDE4121531D003D002D001D00012131C
:10431D003512156A90001BEEF0A3EFF090001AE035
:10432D0090001DF0540FF0900026121B5900000054
:10433D00007F007E007D807C41125B4EC004C00575
:10434D00C006C00790001DE0FCE4121536D003D066
:10435D0002D001D000121426C004C005C006C0074B
:10436D0090001BE0FCA3E0FDE4121531D003D00258
:10437D00D001D00012133512156A90001BEEF0A378
:10438D00EFF0C3EF9410EE9427401074F02FFF74EC
:10439D00D83EFE90001EE004F080E790001EE04441
:1043AD0030FD900016E0FBA3E0FAA3E0F9ED121A40
:1043BD006A900017E475F001121AB0C3EF94E8EE9D
:1043CD009403401074182FFF74FC3EFE90001FE004
:1043DD0004F080E790001FE04430FD900016E0FBF4
:1043ED00A3E0FAA3E0F9ED121A6A900017E475F054
:1043FD0001121AB0C3EF9464EE94004010749C2F18
:10440D00FF74FF3EFE900020E004F080E790002056
:10441D00E04430FD900016E0FBA3E0FAA3E0F9EDD7
:10442D00121A6A900017E475F001121AB0C3EF94D6
:10443D000AEE9400401074F62FFF74FF3EFE9000BC
:10444D0021E004F080E7900021E04430FD9000165B
:10445D00E0FBA3E0FAA3E0F9ED121A6A900017E46D
:10446D0075F001121AB0EF4430FF900016E0FBA377
:10447D00E0FAA3E0F9EF121A6A900017E475F00163
:10448D00121AB0900016E0FBA3E0FAA3E0F9E402E3
:02449D001A6A99
:0359E000900052E2
:1059E3001293F5EF54F0C4540F4430FE900052E08C
:1059F300FBA3E0FAA3E0F9EE121A6A900053E475F0
:105A0300F001121AB0EF540F4430FF900052E0FB44
:105A1300A3E0FAA3E0F9EF121A6A900053E475F0D9
:105A230001121AB07F891293FFEF54F0C4540F444C
:105A330030FE900052E0FBA3E0FAA3E0F9EE121A65
:105A43006A900053E475F001121AB0EF540F44301A
:105A5300FF900052E0FBA3E0FAA3E0F9EF121A6A09
:105A6300900053E475F001121AB07F871293FFEF91
:105A730054F0C4540F4430FE900052E0FBA3E0FA0C
:105A8300A3E0F9EE121A6A900053E475F001121ABA
:105A9300B0EF540F4430FF900052E0FBA3E0FAA3B1
:105AA300E0F9EF121A6A900053E475F001121AB08C
:105AB3007F851293FFEF54F0C4540F4430FE9000DF
:105AC30052E0FBA3E0FAA3E0F9EE121A6A90005346
:105AD300E475F001121AB0EF540F4430FF900052F6
:105AE300E0FBA3E0FAA3E0F9EF121A6A900053E493
:105AF30075F001121AB07F831293FFEF54F0C45470
:105B03000F4430FE900052E0FBA3E0FAA3E0F9EE6D
:105B1300121A6A900053E475F001121AB0EF540F91
:105B23004430FF900052E0FBA3E0FAA3E0F9EF1248
:105B33001A6A900053E475F001121AB0900052E013
:0B5B4300FBA3E0FAA3E0F9E4021A6AF9
:108CC9009000AF1293F512AEED9000AFE0FBA3E078
:108CD900FAA3E0F9EF121A6A9000B0E475F00112F4
:108CE9001AB07F891293FF12AEED9000AFE0FBA39B
:108CF900E0FAA3E0F9EF121A6A9000B0E475F00106
:108D0900121AB07F871293FF12AEED9000AFE0FB0D
:108D1900A3E0FAA3E0F9EF121A6A9000B0E475F043
:108D290001121AB07F851293FF12AEED9000AFE0E9
:108D3900FBA3E0FAA3E0F9EF121A6A9000B0E47518
:108D4900F001121AB07F831293FF12AEED9000AFBB
:108D5900E0FBA3E0FAA3E0F9EF121A6A9000B0E48D
:068D690075F001021AB0D2
:1080730090001E1293F590001EE0FBA3E0FAA3E02C
:10808300F9EF121A6A90001FE475F001121AB07F1B
:10809300891293FF90001EE0FBA3E0FAA3E0F9EF3F
:1080A300121A6A90001FE475F001121AB07F87124A
:1080B30093FF90001EE0FBA3E0FAA3E0F9EF121A8E
:1080C3006A90001FE475F001121AB07F851293FFC6
:1080D30090001EE0FBA3E0FAA3E0F9EF121A6A9006
:1080E300001FE475F001121AB07F831293FF900012
:1080F3001EE0FBA3E0FAA3E0F9EF121A6A90001F57
:10810300E475F001121AB07F811293FF90001EE014
:10811300FBA3E0FAA3E0F9EF121A6A90001FE475DB
:10812300F001121AB090001EE0FBA3E0FAA3E0F9FD
:04813300E4021A6ADE
:07B04500C294C296D29522CD
:0B7FAA0090009DEBF0A3EAF0A3E9F0CB
:107FB5007B017A0079A8128CC99000A8E0FF7E00A9
:107FC5007C017D6D121A9EAC06AD07A3E075F01E0F
:107FD500A42DFFEC35F0FEA3E07C002FFFEC3EFE68
:107FE500E4FD9000A0121B4D90009DE0FBA3E0FA7C
:107FF500A3E0F9900001121A3DFF3395E0FE7C00E5
:108005007D1E121A9EC006C007121A24FF3395E082
:10801500FE0C7D6D121A9ED0E02FFFD0E03EFE9043
:108025000002121A3DFD3395E0FCEF2DFFEE3CFEFC
:108035003395E0FDFC9000A4121B4D9000A0E0FCE0
:10804500A3E0FDA3E0FEA3E0FFA3E0F8A3E0F9A30E
:10805500E0FAA3E0FBC3121AEA40089000AE7401EF
:0D806500F08005E49000AEF09000AEE0FF6A
:0180720022EB
:10AF9400E4FDFCC3ED9FEC9E50070DBD00010C8049
:01AFA400F2BA
:01AFA5002289
:04AF0B00AB07AA06E0
:10AF0F00900000C3E5829BE5839A500A7F967E00EE
:06AF1F0012AF94A380EDC7
:01AF25002209
:08AAEF00900009EEF0A3EFF066
:10AAF700E4A3F0A3F0900009E0FEA3E0FFC39000F9
:10AB07000CE09F90000BE09E50177F0A7E0012AF6B
:10AB17000B90000CE004F070DC90000BE004F08078
:01AB2700D459
:01AB2800220A
:01B098002295
:10AA3E004572726F72206465207469636B65740071
:10AA4E000A0D004E756D65726F2064652074696322
:10AA5E006B65743A004E6F206465207469636B6594
:0BAA6E0074204845583A00256C750024
:03AE6F0012AE4DD3
:10AE7200D20DD293D292E4FFFE209205C20DC2936C
:0CAE8200220FBF00010EBE04F0BF4CED1B
:01AE8E0022A1
:03AE8F0012AE4DB3
:10AE9200D293D292D20DE4FFFE209205C20DC2934C
:0CAEA200220FBF00010EBE02F0BF8AEDBF
:01AEAE002281
:06B07D00D29300C29322F1
:10AE4D00E4FEEEC39408748094805015EF25E0FF66
:10AE5D0030D704D2928002C292D29312B07D0E806E
:01AE6D00E103
:01AE6E0022C1
:08AFA600ECFD7C00C293C29295
:0AAFAE00D292D29300C292C2932205
:09B03300C293C292D293D2922280
:10A4AA00E4FBEBFDC39408748094805038C2933067
:10A4BA009216900207E04401F0ED940674809480AD
:10A4CA005006E025E0F0D293209217900207E0545C
:10A4DA00FEF0EBD39406748094805006E025E0F0F9
:0CA4EA00D2930B80BDC293900207E0FFEC
:01A4F6002243
:10A3B20090005EE0FCA3E0FDA3E0FBA3E0FAA3E0D3
:07A3C200F9121A24FB7FA829
:02A3C900AA07E1
:10A3CB00AF05A90712AFA6AF0212AE6FAF0512AE63
:10A3DB006FAF0112AE4D12AE72AF0312AE4D12AE95
:10A3EB007212B0337F0D7E0012AF0BD293D2927FDD
:0DA3FB00627E0012AF947F627E0002AF947C
:04A9C4007C027FA8EA
:02A9C800AB07DB
:10A9CA00AF05AA0712AFA6AF0312AE8FAF0512AE3C
:10A9DA008FAF0212AE4D12AE9212AFAEEB04FF125F
:10A9EA00AE4D12AE72C29312A4AA12B033D293D24F
:06A9FA0092900207E0FF4D
:01AA00002233
:0B7D4900900011EBF0A3EAF0A3E9F0BA
:107D5400E4900015F0900011E0FBA3E0FAA3E0F931
:107D640090000AE4121A7CE4900014F0900014E0ED
:107D7400FFD39409748094805057900011E0FBA3C2
:107D8400E0FAA3E0F98F82758300121A3DFF7E00AA
:107D9400C3943074809480400AD3EF9439748094EF
:107DA4008040269000157401F07BFF7AAA793E1278
:107DB400A599900011E0FBA3E0FAA3E0F912A599BC
:107DC4007BFF7AAA794E12A599900014E004F08002
:107DD4009B900015E0700E900011E0FBA3E0FAA365
:107DE400E0F9027724E4FBFD7C027FA812A3C9E436
:107DF400FB7D017C027FA812A3C9E4FB7402FDFC95
:107E04007FA812A3C9E4FB7D037C027FA812A3C947
:017E1400224B
:0B772400900016EBF0A3EAF0A3E9F0E0
:10772F007F007E007D007C007BFF7AAA795112A535
:10773F0099900016E0FBA3E0FAA3E0F912A5997B5C
:10774F00FF7AAA794E12A599900016E0FBA3E0FAF2
:10775F00A3E0F9126D3190001D121B4D7BFF7AAA29
:10776F00796312A59990001DE0FCA3E0FDA3E0FE54
:10777F00A3E0FF7818121AFB900019EFF012A61F62
:10778F0090001DE0FCA3E0FDA3E0FEA3E0FF781056
:10779F00121AFB90001AEFF012A61F90001DE0FCCA
:1077AF00A3E0FDA3E0FEA3E0FF7808121AFB900010
:1077BF001BEFF012A61F90001DA3A3A3E0FF9000E4
:1077CF001CF012A61F7BFF7AAA794E12A599900082
:1077DF0019E0FB7D007C027FA812A3C990001AE07C
:1077EF00FB7D017C027FA812A3C990001BE0FB74F4
:1077FF0002FDFC7FA812A3C990001CE0FB7D037C57
:06780F00027FA802A3C9DC
:10A4F700127EE090007B74FFF0A374AAF0A374753A
:10A50700F0A3121B4D7B017A00791C1232E27B010A
:10A517007A00791C12000E741C2FF582E43400F5C2
:10A5270083E4F07B017A00791C12A5997BFF7AAA54
:0BA53700794E12A5997B017A00791C77
:01A5420022F6
:107EE00090002A121B59000000007D0012A9C4A9AD
:107EF000077D0112A9C4900027EFF07402FDFC7FFA
:107F0000A812A9C8900028EFF07D0312A9C4900020
:107F100029EFF0AF01A3E0F8A3E0F9A3E0FAA3E0B2
:107F20004FFFEAFEE9FDE8FC7808121B0E90002ADC
:107F3000121B4D900027E0FF90002AE0F8A3E0F923
:107F4000A3E0FAA3E04FFFEAFEE9FDE8FC7808129F
:107F50001B0E90002A121B4D900028E0FF90002A73
:107F6000E0F8A3E0F9A3E0FAA3E04FFFEAFEE9FDA1
:107F7000E8FC7808121B0E90002A121B4D90002975
:107F8000E0FFA3E0F8A3E0F9A3E0FAA3E04FFFEAE3
:107F9000FEE9FDE8FC90002A121B4D90002AE0FC4F
:097FA000A3E0FDA3E0FEA3E0FF55
:017FA90022B5
:10AB9700127EE0EF2401FFE43EFEE43DFDE43CFCD1
:10ABA70090007B74FFF0A374AAF0A37475F0A3124E
:10ABB7001B4D7B017A0079061232E27B017A00791C
:04ABC70006027724E7
:10A0050090009DEEF0A3EFF0A3EBF0A3EAF0A3E937
:01A01500F05A
:10A0160090009DE0FCA3E0FD7FA812A9C890009FD8
:10A02600E0FBA3E0FAA3E0F9EF121A6A90009FE0C2
:10A03600FBA3E0FAA3E0F9121A24FF90009EE004C5
:10A04600F0700690009DE004F09000A0E475F00129
:10A05600121AB0EF70BA90009FE0FBA3E0FAA3E0FB
:05A06600F9E4021A6A92
:109F2B0090005EEEF0A3EFF0A3EBF0A3EAF0A3E951
:109F3B00F0900060E0FBA3E0FAA3E0F9121A2460B2
:109F4B0024B40D04E4121A6A12A3B290005FE00469
:109F5B00F0700690005EE004F0900061E475F00193
:109F6B00121AB080CC12A3B290005FE004F070061E
:109F7B0090005EE004F0900061E475F001121AB0FD
:0F9F8B0090005EE0FCA3E0FDE4FB7FA802A3C909
:108A1D0053656E736F726573204175746F20792085
:108A2D0073656E736F72312061637469766F732E27
:108A3D000A0D0053656E736F722061637469766FF2
:108A4D002073656E736F72312E0A0D004465746567
:108A5D00637461646F2E2053656E736F7220417560
:108A6D00746F2E0A0D0053656E736F726573206EF1
:108A7D006F2064657465637461646F732E0A0D00F5
:108A8D005665686963756C6F204573706572616EAC
:108A9D00646F2053616C69722E0A0D00566568690A
:108AAD0063756C6F2053616C69656E646F2E205514
:0D8ABD006E206D6F6D656E746F2E0A0D00DA
:04852B0041021100F8
:07B04C00C2B5C2B6C2B72273
:07B05300C2B5D2B6C2B7225C
:07B05A00D2B5D2B6C2B72245
:07B06100C2B5C2B6D2B7224E
:07B06800D2B5C2B6D2B72237
:07B06F00C2B5D2B6D2B72230
:07B07600D2B5D2B6D2B72219
:10AEAF00E4FF7DF47C01309115EFFB3395E04B709F
:0EAEBF000DED1D70011CED4C70EC7F0180E864
:01AECD002262
:10A7C3009000337401F012B06F309103E004F01283
:10A7D300B076309107900033E02402F0900033E02C
:10A7E300640170177D12FC7FA812A9C8EF600CF4F6
:10A7F300900033700404F08002EFF0900033E02403
:02A8030030FF24
:01A805002230
:10A3020012B06820912312B0537BFF20910D7A8AFC
:10A31200791D12A599E49001A680227A8A794012C9
:10A32200A5999001A67401801412B0537BFF20916D
:10A33200157A8A795912A5999001A67401F09000B4
:10A342001274FFF0800C7A8A797312A599E4900056
:07A3520012F0900012E0FF81
:01A3590022E1
:10AB290012B06130912012AEAFEF3395E0FEEF64C1
:10AB3900014E700A12A302900011EFF080147BFFFE
:10AB49007A8A798D80067BFF7A8A79A912A5997FFD
:07AB59000022900011E0FF53
:01AB600022D2
:109A6500E4900002F012B04C209169900211E07070
:109A750016900002E0701030B35A04F012ACC39097
:109A850002117401F0804D900211E064017016908E
:109A95000002E0701030B33C04F01267BE90021172
:109AA5007402F0802F900211E0640270279000028A
:109AB500E0702130B31E04F07D0C7C007FA812A954
:109AC500C8EF640170047F5380027F4E1296BFE495
:0F9AD500900211F012B04C309105E4900002F0B5
:019AE400225F
:1025E500494E4752455345205441524A455441208E
:1025F500005441524A4554412053494E20494E47C3
:102605005245534F20005441524A455441204E4FA4
:10261500205245474953545241205041474F2000CD
:10262500455843454445205449454D504F20444560
:102635002047524143494120004D454E5355414C99
:10264500204E4F204553544120454E205041525174
:102655005545414445524F2000444952494A41534A
:102665004520412043414A412000475241434941C9
:10267500532E2E2E2000475241434941532E2E2ED4
:10268500004D454E5355414C494441442056454E15
:102695004349444120004D454E5355414C49444121
:1026A500442045584345444520484F524152494FDF
:1026B5002041434552515545534520412043414A08
:1026C5004120004E4F204553204D454E5355414C1A
:1026D50049444144204E49205052455041474F00FE
:1026E5004D454E5355414C204E4F205041474F20AC
:1026F5004C4F434143494F4E20484F590053494E93
:102705002050524553454E4349412056454849437B
:10271500554C415220005441524A455441204E4F98
:102725002045532044454C20504152515545414484
:1027350045524F20004249454E56454E49444F2E7D
:102745002050554C534520454C20424F544F4E2068
:10275500005441524A4554412053494E20464F5258
:102765004D41544F20004655455241204445204C8B
:10277500494E45412000554E204D4F4D454E544F35
:1027850020504F52204641564F5220004E4F204573
:1027950053205441524A455441204D454E535541CD
:1027A5004C20005441524A45544120494E56414C13
:1027B50049444120005441524A4554412053494E11
:1027C5002053414C494441200052454749535452F6
:1027D5004120494E475245534F20454E20504152C6
:1027E500515545414445524F20004D454E535541A5
:1027F5004C20465545524120444520484F524152B0
:10280500494F2000484F524152494F204E4F2050CA
:10281500524F4752414D41444F200053494E205499
:1028250041524A4554415320004249454E56454E72
:1028350049444F20004E4956454C2042414A4F20BD
:102845004445205441524A4554415320000A0D61E4
:102855003B38353B494E4752455345205441524A32
:102865004554410A0D00000A0D613B38363B544181
:10287500524A4554412053494E20494E47524553EB
:102885004F200A0D00000A0D613B38373B54415279
:102895004A455441204E4F205245474953545241D1
:1028A500205041474F0A0D00000A0D613B38383B67
:1028B500455843454445205449454D504F204445CE
:1028C500204752414349410A0D00000A0D613B383A
:1028D500393B4D454E5355414C204E4F20455354A1
:1028E5004120454E20504152515545414445524F96
:1028F5000A0D00000A0D613B39303B444952494AF3
:1029050041534520412043414A410A0D00000A0D2B
:10291500613B39313B475241434941532E2E2E20CD
:102925000A0D00000A0D613B39333B4D454E5355A9
:10293500414C204E4F204553544120454E20504197
:1029450052515545414445524F0A0D00000A0D614B
:102955003B39343B4D454E5355414C494441442048
:1029650056454E434944410A0D00000A0D613B3965
:10297500353B4D454E5355414C49444144204558FE
:102985004345444520484F524152494F2041434514
:1029950052515545534520412043414A410A0D00B6
:1029A500000A0D613B39363B4E4F204553204D45BE
:1029B5004E5355414C49444144204E4920505245BF
:1029C5005041474F0A0D00000A0D613B39373B4D19
:1029D500454E5355414C204E4F205041474F204CBA
:1029E5004F434143494F4E20484F590A0D00000AB5
:1029F5000D613B39383B53494E2050524553454EA6
:102A0500434941205645484943554C41520A0D001A
:102A1500000A0D613B39383B5441524A4554412027
:102A25004E4F2045532044454C2050415251554569
:102A3500414445524F200A0D00000A0D613B3030DC
:102A45003B4249454E56454E49444F2E2050554C24
:102A5500534520454C20424F544F4E0A0D00000A65
:102A65000D613B39383B5441524A45544120534945
:102A75004E20464F524D41544F200A0D00000A0D7D
:102A8500613B39383B4655455241204445204C4928
:102A95004E45410A0D00000A0D613B39383B554E44
:102AA500204D4F4D454E544F20504F5220464156D4
:102AB5004F520A0D00000A0D613B30383B4E4F2046
:102AC5004553205441524A455441204D454E535596
:102AD500414C0A0D00000A0D613B39383B54415207
:102AE5004A45544120494E56414C4944410A0D003E
:102AF500000A0D613B39383B5441524A4554412047
:102B050053494E2053414C4944410A0D00000A0DDA
:102B1500613B39383B524547495354524120494E50
:102B2500475245534F20454E20504152515545413E
:102B35004445524F0A0D00000A0D613B30373BA159
:102B4500204D454E5355414C494441442056454E30
:102B55004349444120210A0D00000A0D613B3036EE
:102B65003B4D454E5355414C204655455241204419
:102B75004520484F524152494F0A0D00000A0D6148
:102B85003B39383B53494E205441524A45544153F1
:102B95000A0D00000A0D613B39383B4E4956454C3C
:102BA5002042414A4F204445205441524A45544110
:102BB500530A0D00000A0D613B39383B484F52411D
:102BC50052494F204E4F2050524F4752414D41449C
:102BD5004F0A0D00000A0D613B30313B5245544907
:102BE5005245205355205441524A4554410A0D003F
:102BF500000A0D613B30333B4249454E56454E492F
:102C0500444F0A0D000057494547414E44200047AF
:102C15005241434941532000613B39323B574945B5
:102C250047414E443A000A6400613B39313B475203
:102C3500414349415320000A0D613B30333B424932
:102C4500454E56454E49444F200020504C41434186
:102C55003A000A0D0000613B30373B20A1204D456D
:102C65004E5355414C494441442056454E434944F1
:102C75004120212056454E43494F3A2032300064C9
:102C85003B686F726100AA8018010200AA801801D2
:0F2C95000200AA802807200000000000140000A1
:052CA40090002BEFF091
:102CA900782C7C007D017BFF7A2C798B7E007F0656
:102CB9001219FEC2879001A3E060030230697B010B
:102CC9007A00792CFD12A78790002BE0121BAA30FD
:102CD90044012D2D552D4D562D6D572D8D582DAD4A
:102CE900592DCD5A2DED5B2DAD5D2E0D5E2E2D5F2F
:102CF9002E4D602E6D612E8DAA2EADAB2ECDAC2E34
:102D0900EDAD2F0DAE2F2DAF2F4DB02F6DB12F8DF6
:102D1900B22FADB32FCDB52FEDB63006FA3025FE63
:102D2900000030667BFF7A2579E512000E900032AB
:102D3900EFF0E4FDFF12AD9A12AD917BFF7A257990
:102D4900E50230617BFF7A2579F612000E90003298
:102D5900EFF0E4FDFF12AD9A12AD917BFF7A257970
:102D6900F60230617BFF7A26790B12000E90003251
:102D7900EFF0E4FDFF12AD9A12AD917BFF7A26794F
:102D89000B0230617BFF7A26792512000E90003202
:102D9900EFF0E4FDFF12AD9A12AD917BFF7A26792F
:102DA900250230617BFF7A26793E12000E900032AF
:102DB900EFF0E4FDFF12AD9A12AD917BFF7A26790F
:102DC9003E0230617BFF7A26795E12000E90003256
:102DD900EFF0E4FDFF12AD9A12AD917BFF7A2679EF
:102DE9005E0230617BFF7A26796F12000E90003205
:102DF900EFF0E4FDFF12AD9A12AD917BFF7A2679CF
:102E09007B0230617BFF7A26798612000E900032B0
:102E1900EFF0E4FDFF12AD9A12AD917BFF7A2679AE
:102E2900860230617BFF7A26799B12000E90003270
:102E3900EFF0E4FDFF12AD9A12AD917BFF7A26798E
:102E49009B0230617BFF7A2679C812000E9000320E
:102E5900EFF0E4FDFF12AD9A12AD917BFF7A26796E
:102E6900C80230617BFF7A2679E512000E900032A4
:102E7900EFF0E4FDFF12AD9A12AD917BFF7A26794E
:102E8900E50230617BFF7A27790212000E90003249
:102E9900EFF0E4FDFF12AD9A12AD917BFF7A27792D
:102EA900020230617BFF7A27791B12000E900032F3
:102EB900EFF0E4FDFF12AD9A12AD917BFF7A27790D
:102EC9001B0230617BFF7A27793A12000E9000329B
:102ED900EFF0E4FDFF12AD9A12AD917BFF7A2779ED
:102EE9003A0230617BFF7A27795612000E90003240
:102EF900EFF0E4FDFF12AD9A12AD917BFF7A2779CD
:102F0900560230617BFF7A27796B12000E900032EE
:102F1900EFF0E4FDFF12AD9A12AD917BFF7A2779AC
:102F29006B0230617BFF7A27797B12000E900032A9
:102F3900EFF0E4FDFF12AD9A12AD917BFF7A27798C
:102F49007B0230617BFF7A27799112000E90003263
:102F5900EFF0E4FDFF12AD9A12AD917BFF7A27796C
:102F6900910230617BFF7A2779A812000E90003216
:102F7900EFF0E4FDFF12AD9A12AD917BFF7A27794C
:102F8900A80230617BFF7A2779BA12000E900032CD
:102F9900EFF0E4FDFF12AD9A12AD917BFF7A27792C
:102FA900BA0230617BFF7A2779CE12000E90003287
:102FB900EFF0E4FDFF12AD9A12AD917BFF7A27790C
:102FC900CE0230617BFF7A2779EF12000E90003232
:102FD900EFF0E4FDFF12AD9A12AD917BFF7A2779EC
:102FE900EF0230617BFF7A28790912000E900032D6
:102FF900EFF012AD957BFF7A287909805B7BFF7A28
:1030090028792012000E900032EFF0E4FDFF12AD96
:103019009A12AD917BFF7A287920803C7BFF7A2830
:10302900792E12000E900032EFF0E4FDFF12AD9AF6
:1030390012AD917BFF7A28792E801D7BFF7A287942
:103049003A12000E900032EFF0E4FDFF12AD9A1231
:10305900AD917BFF7A28793A7D0112A787D2872221
:10306900C28790002BE0121BAA323E0130CD5530A9
:10307900DC5630EB5730FA5831095931185A312793
:103089005B31365D31455E31545F31636031726168
:10309900325AA13181AA3190AB319FAC31AEAD31F9
:1030A900BDAE31CCAF31DBB031EAB131F8B2320665
:1030B900B33214B43222B5324CB63230FA3268FE29
:1030C9000000327A78687C007D007BFF7A2879528B
:1030D90002327478687C007D007BFF7A28796C0263
:1030E900327478687C007D007BFF7A28798B023204
:1030F9007478687C007D007BFF7A2879AE0232748F
:1031090078687C007D007BFF7A2879D00232747858
:10311900687C007D007BFF7A2879F902327478682F
:103129007C007D007BFF7A29791302327478687CF0
:10313900007D007BFF7A29792902327478687C0046
:103149007D007BFF7A29795202327478687C007D90
:10315900007BFF7A29797002327478687C007D00DF
:103169007BFF7A2979A602327478687C007D007B1E
:10317900FF7A2979CD02327478687C007D007BFF63
:103189007A2979F402327478687C007D007BFF7AB1
:103199002A791602327478687C007D007BFF7A2ACE
:1031A900793F02327478687C007D007BFF7A2A7946
:1031B9006402327478687C007D007BFF7A2A798307
:1031C90002327478687C007D007BFF7A2A799C0240
:1031D900327478687C007D007BFF7A2A79BB0232E1
:1031E9007478687C007D007BFF7A2A79DB807C78A3
:1031F900687C007D007BFF7A2A79F6806E78687C8E
:10320900007D007BFF7A2B7913806078687C007DD4
:10321900007BFF7A2B793D805278687C007D007BAA
:10322900FF7A2B795F804478687C007D007BFF7A88
:103239002B7982803678687C007D007BFF7A2B7938
:1032490099802878687C007D007BFF7A2B79BA8089
:103259001A78687C007D007BFF7A2B79DA800C78FC
:10326900687C007D007BFF7A2B79F6121E3712A24B
:033279005AD2879F
:01327C00222F
:0E498200900011EFF0A3EBF0A3EAF0A3E9F030
:1049900078157C007D017BFF7A2C79917E007F0663
:1049A0001219FEC2879001A3E06003024A469000FC
:1049B00011E024A56040146003024A4312A77F7BE4
:1049C000FF7A2C790B12000E90001BEFF090001272
:1049D000E0FBA3E0FAA3E0F912000E90001BE02F29
:1049E00004F0E4FDFF12AD9A90001B12AD947BFF22
:1049F0007A2C790B803812A77F7BFF7A2C791412DE
:104A0000000E90001BEFF0900012E0FBA3E0FAA371
:104A1000E0F912000E90001BE02F04F0E4FDFF12FD
:104A2000AD9A90001B12AD947BFF7A2C79147D0116
:104A300012A787900012E0FBA3E0FAA3E0F97D0142
:104A400012A787D28722C287900011E024A5602494
:104A500024A77003024B2924B6605824A2600302E5
:104A60004B9D78687C007D007BFF7A2C791D121E9F
:104A700037024B6578687C007D007BFF7A2C792EAD
:104A8000121E37900012E0FBA3E0FAA3E0F9120037
:104A90000E90001BEFF024FFFFE434FFFE900012A5
:104AA000E0FBA3E0FAA3E0F98F828E83E4121A7C84
:104AB000024B657A2C793C12A24F200E0B12A4F700
:104AC00078687C007D00801178687C007D00900013
:104AD00012E0FBA3E0FAA3E0F9121E3712A25A7803
:104AE000687C007D007BFF300A367A2C794F121EDD
:104AF0003790004AE4F0A37400F0A37411F07B0037
:104B00007A007968129F9A90004A74FFF0A3742C7F
:104B1000F0A37457F07B007A007968129F9A807A2C
:104B20007A2C7957121E37807178687C007D007B63
:104B3000FF7A2C795B121E37900012E0FBA3E0FA9B
:104B4000A3E0F912000E90001BEFF024FFFFE43405
:104B5000FFFE900012E0FBA3E0FAA3E0F98F828E43
:104B600083E4121A7C900012E0F9A3E0FAA3E0902B
:104B7000004AC9F0A3EAF0A3E9F07B007A00796863
:104B8000129F9A90004A74FFF0A3742CF0A3742B28
:0F4B9000F07B007A007968129F9A12A25AD2879E
:014B9F0022F3
:09AD9100900032E025E0FFE4FD32
:05AD9A00900038EDF00F
:10AD9F0012A949900039EFF0900038E0600AE4FF03
:08ADAF0012A949900039EFF0F0
:01ADB7002279
:08A77F007B017A007915E4FD6D
:0EA78700900033EBF0A3EAF0A3E9F0A3EDF0AD
:10A79500E4A3F0900033E0FBA3E0FAA3E0F9900016
:10A7A50037E0F582758300121A3DFF601090003680
:0DA7B500E0FD12AD9A900037E004F080D670
:01A7C2002274
:0EA6F30090001EEBF0A3EAF0A3E9F0A3EDF057
:10A70100E4900023F0900021E0FF900023E0FEC3DD
:10A711009F502490001EE0FBA3E0FAA3E0F98E8293
:10A72100758300121A3DFF900022E0FD12AD9A9050
:07A731000023E004F080CEDC
:01A7380022FE
:0BA24F0078687C007D007BFF121E374A
:10A25A007B007A00796812000E900034EFF0E490E7
:10A26A000033F0900034E0FF900033E0FEC39F50CB
:10A27A001674682EF8E6FF12A949900035EFF0909F
:10A28A000033E004F080DCE4900035F0900035E023
:0EA29A00C39464748094805005E004F080EE5C
:01A2A8002293
:10A4080078117C007D017BFF7A2C79977E007F0D87
:10A418001219FE9001A3E07022C2877B017A0079AD
:10A4280016128073C29C7B017A007911E490002295
:10A43800F07D0D12A6F3D29CD28722C287E4900049
:10A4480011F07B017A0079111280737A2C798412C9
:04A45800A24FD287B6
:01A45C0022DD
:10002600402321246046625E262A003A5B3C253F37
:1000360058545D3D29000D0A0A25733E20002563AC
:10004600002564000D0A0A2041435455414C2049BD
:10005600445F434C49454E54453D25730D0A0A00FD
:100066000D0A0A20444947495445205355204E5508
:1000760045564F2049445F434C49454E54453D0043
:100086000D0A0A204441544F204D4F4449464943E6
:1000960041444F2049445F434C49454E54453D2514
:1000A600730D0A0A000D0A0A2041435455414C209B
:1000B600434F445F5041524B3D25730D0A0A000DD4
:1000C6000A0A20444947495445205355204E554570
:1000D600564F20434F445F5041524B3D000D0A0A94
:1000E600204441544F204D4F444946494341444FD3
:1000F60020434F445F5041524B3D25730D0A0A0081
:100106000D0A0A2041435455414C205449454D504F
:100116004F5F4752414349413D25730D0A0A000D81
:100126000A0A20444947495445205355204E55450F
:10013600564F205449454D504F5F47524143494120
:100146003D000D0A0A204441544F204D4F44494674
:10015600494341444F205449454D504F5F47524112
:100166004349413D25730D0A0A000D0A0A20414301
:100176005455414C2053494E5F434F42524F2049FC
:100186004E484142494C495441444F3D25730D0A5E
:100196000A000D0A0A2041435455414C2053494E4A
:1001A6005F434F42524F204752415449533D2573B6
:1001B6000D0A0A000D0A0A2041435455414C2053AA
:1001C600494E5F434F42524F2047524154495320B4
:1001D600592053414C49444120454C204D49534DEB
:1001E6004F204449413D25730D0A0A000D0A0A2095
:1001F600444947495445205355204E5545564F20AE
:1002060053494E5F434F42524F3D000D0A0A20416B
:10021600435455414C20444542554720494E484198
:1002260042494C495441444F3D25730D0A0A000D7D
:100236000A0A2041435455414C2044454255472023
:10024600484142494C495441444F3D25730D0A0AE1
:10025600000D0A0A2044494749544520454C204E82
:100266005545564F2045535441444F20444520445C
:10027600454255473D000D0A0A2041435455414C1D
:10028600205553455F4C505220494E484142494CF7
:10029600495441444F3D25730D0A0A000D0A0A20B0
:1002A60041435455414C205553455F4C50522048CC
:1002B6004142494C495441444F3D25730D0A0A00B9
:1002C6000D0A0A2044494749544520454C204E55BD
:1002D60045564F2045535441444F204445205553DD
:1002E600455F4C50523D000D0A0A2050414E544184
:1002F6004C4C41204C434420484142494C495441CE
:1003060044413D25730D0A0A000D0A0A2050414E4C
:1003160054414C4C4120524153504245525259206F
:1003260020484142494C49544144413D25730D0AF8
:100336000A000D0A0A2044494749544520454C20E5
:100346004E5545564F2045535441444F2044452071
:100356004C412050414E54414C4C41203D000D0A29
:100366000A2041435455414C20434F4D5041524180
:1003760043494F4E2041435449564120204841426B
:10038600494C49544144413D25730D0A0A000D0A62
:100396000A20455850494445205441524A45544143
:1003A6002050554C53414E444F20424F544F4E0D12
:1003B6000A0A000D0A0A204558504944452054416E
:1003C600524A455441204155544F4D4154494341A9
:1003D6000D0A0A000D0A0A2044494749544520459A
:1003E6004C204E5545564F2045535441444F2044CA
:1003F600454C20455850454449444F523D000D0A4E
:100406000A2041435455414C20414E5449504153D2
:10041600534241434B20494E484142494C4954417D
:10042600444F3D25730D0A0A000D0A0A2041435424
:1004360055414C20414E5449504153534241434B40
:1004460020484142494C495441444F3D25730D0AC9
:100456000A000D0A0A2044494749544520454C20C4
:100466004E5545564F2045535441444F2044452050
:10047600414E5449504153534241434B3D000D0AAE
:100486000A2041435455414C20504C414341204998
:100496004E484142494C495441444F3D25730D0A4B
:1004A6000A000D0A0A2041435455414C20504C4144
:1004B600434120484142494C495441444F3D2573EC
:1004C6000D0A0A000D0A0A204449474954452045A9
:1004D6004C204E5545564F2045535441444F2044D9
:1004E6004520504C4143413D000D0A0A20414354EA
:1004F60055414C20414444524553535F484947486F
:100506005F424F4152443D25730D0A0A000D0A0A07
:1005160020444947495445204C41204E55455641B3
:1005260020414444524553535F484947485F424F30
:100536004152443D000D0A0A2041435455414C2086
:10054600484F524152494F20494E484142494C4931
:100556005441444F3D25730D0A0A000D0A0A2041F5
:10056600435455414C20484F524152494F2048412F
:1005760042494C495441444F3D25730D0A0A000D2A
:100586000A0A2044494749544520454C204E5545C2
:10059600564F2045535441444F20444520484F521E
:1005A6004152494F3D000D0A0A2044696769746546
:1005B60020486F72612030383A3030204D696E75B0
:1005C600746F732044657364653A20000D0A0A202F
:1005D600486F72612050726F6772616D616461204D
:1005E60044657364653A200025633A000D0A0A20C3
:1005F60044696769746520486F72613A4D696E7522
:10060600746F732048617374613A20000D0A0A20E2
:10061600486F72612050726F6772616D616461200C
:1006260048617374613A20000D0A2044657364655D
:10063600202048617374610D0A002025630025633C
:10064600202020000D0A0A20446967697465206C21
:100656006F73206469617320612070726F677261C5
:100666006D6172204C756E6573203D20322C200022
:100676004D6172746573203D20332C204D6965727F
:10068600636F6C6573203D20342C204A7565766552
:1006960073203D20352C2000566965726E657320E7
:1006A6003D20362C2053616261646F203D20372C3B
:1006B60020446F6D696E676F203D2031203A20001F
:1006C6000D0A0A20446961732050726F6772616D6A
:1006D60061646F73203A2000204C756E6573003D8F
:1006E6002025632C00204D617274657300204D69CE
:1006F6006572636F6C657300204A75657665730075
:1007060020566965726E6573002053616261646F7D
:100716000020446F6D696E676F003D2025630020E1
:100726004C756E6573203D2050726F6772616D6106
:10073600646F0D0A00204C756E6573203D204E6F68
:100746002070726F6772616D61646F0D0A00204DD3
:100756006172746573203D2050726F6772616D61BE
:10076600646F0D0A00204D6172746573203D204E42
:100776006F2070726F6772616D61646F0D0A002081
:100786004D696572636F6C6573203D2050726F67AB
:1007960072616D61646F0D0A00204D696572636F49
:1007A6006C6573203D204E6F2070726F6772616DAD
:1007B60061646F0D0A00204A7565766573203D20D9
:1007C60050726F6772616D61646F0D0A00204A7521
:1007D60065766573203D204E6F2070726F6772617B
:1007E6006D61646F0D0A0020566965726E6573202F
:1007F6003D2050726F6772616D61646F0D0A002053
:10080600566965726E6573203D204E6F2070726F5B
:100816006772616D61646F0D0A00205361626164E5
:100826006F203D2050726F6772616D61646F0D0AB3
:10083600002053616261646F203D204E6F2070720C
:100846006F6772616D61646F0D0A0020446F6D6998
:100856006E676F203D2050726F6772616D61646FC5
:100866000D0A0020446F6D696E676F203D204E6F44
:100876002070726F6772616D61646F0D0A000D0AF8
:100886000A2044696769746520656C206E756D651C
:10089600726F2064656C20486F726172696F2061A7
:1008A6002070726F6772616D6172203D20000D0AC3
:1008B6000A2050726F6772616D6172207365677589
:1008C6006E646F20486F726172696F2073693D288C
:1008D6003129206E6F3D2830293D20000D0A0A205F
:1008E60041435455414C205449504F5F5645484961
:1008F60043554C4F204D454E5355414C20494E488B
:100906004142494C495441444F3D25730D0A0A0062
:100916000D0A0A2041435455414C205449504F5F1B
:100926005645484943554C4F204D454E5355414C2D
:1009360020484142494C495441444F3D25730D0AD4
:100946000A000D0A0A2044494749544520454C20CF
:100956004E5545564F2045535441444F204445205B
:100966005449504F5F5645484943554C4F204D45D5
:100976004E5355414C3D000D0A0A20414354554102
:100986004C205449504F5F5645484943554C4F20DB
:10099600204D454E5355414C20484142494C4954FF
:1009A60041444F3D25730D0A0A000D0A0A204143B2
:1009B6005455414C20414E544950415353424143B2
:1009C6004B204D454E5355414C20494E48414249D6
:1009D6004C495441444F3D25730D0A0A000D0A0A3D
:1009E6002041435455414C20414E544950415353A4
:1009F6004241434B204D454E5355414C20484142C0
:100A0600494C495441444F3D25730D0A0A000D0ACD
:100A16000A2044494749544520454C204E554556E1
:100A26004F2045535441444F20444520414E54499C
:100A3600504153534241434B204D454E5355414C33
:100A46003D000D0A0A2041435455414C20414E5465
:100A560049504153534241434B20204D454E535537
:100A6600414C20484142494C495441444F3D25732D
:100A76000D0A0A000D0A0A2041435455414C2046EE
:100A8600454348412056454E43494D49454E544FEE
:100A96002050415353574F52443A25730D0A0A00CA
:100AA6000D0A0A2F3E496420526567697374726F96
:100AB6003A002573000D0A0A2F3E50617373776F53
:100AC60072643A000D0A0A20444947495445204CAD
:100AD60041204E5545564120464543484120444510
:100AE6002056454E43494D49454E544F3D000D0A4B
:100AF6000A2025730D0A0A000D0A0A202558000D42
:100B06000A0A2041435455414C204645434841205A
:100B160044452056454E43494D49454E544F205075
:100B2600524F4752414D414441203D25730D0A0A1B
:100B3600000D0A206E756D65726F2064656C204825
:100B46006F726172696F202070726F6772616D617A
:100B5600646F203D2025630D0A000D0A2020484FB2
:100B6600524152494F20484142494C495441444F11
:100B760020203D204F4E0D0A000D0A204469617366
:100B86002050726F6772616D61646F730D0A000D9C
:100B96000A2020534547554E444F20484F52415254
:100BA600494F20484142494C495441444F20203D39
:100BB600204F4E0D0A000D0A20534547554E444F0F
:100BC60020484F524152494F20484142494C4954CE
:100BD60041444F20203D204F46460D0A000D0A2075
:100BE60020484F524152494F20484142494C4954AE
:100BF60041444F20203D204F46460D0A000D0A2055
:100C060049445F434C49454E54455F50524F475205
:100C1600414D41444F203D2025730D0A000D0A2009
:100C2600434F445F5041524B5F50524F4752414DE4
:100C360041444F203D2025730D0A000D0A205052D5
:100C46004F4752414D41444F204445425547203D70
:100C5600204F4E0D0A000D0A2050524F4752414D6B
:100C660041444F204445425547203D204F46460DBE
:100C76000A000D0A205553455F4C5052203D204F27
:100C860046460D0A000D0A205553455F4C5052202A
:100C96003D204F4E0D0A000D0A2050414E54414C46
:100CA6004C41204C43442050524F4752414D414401
:100CB600410D0A000D0A2050414E54414C4C412032
:100CC600524153504245525259202050524F47529A
:100CD600414D4144410D0A000D0A204558504944F2
:100CE60045205441524A4554412050554C53414E9B
:100CF600444F20424F544F4E0D0A000D0A204558CE
:100D060050494445205441524A4554412041555486
:100D16004F4D41544943410D0A000D0A2020414ED2
:100D26005449504153534241434B203D204F464680
:100D36000D0A000D0A20414E544950415353424179
:100D4600434B203D204F4E0D0A000D0A20504C41CA
:100D56004341203D204F46460D0A000D0A20504CC7
:100D6600414341203D204F4E0D0A000D0A204143CC
:100D76005455414C20414444524553535F484947DA
:100D8600485F424F415244203D2025730D0A000D15
:100D96000A205449504F5F5645484943554C4F2009
:100DA6004D454E5355414C203D204F46460D0A00B9
:100DB6000D0A205449504F5F5645484943554C4FFC
:100DC600204D454E5355414C203D204F4E0D0A00B7
:100DD6000D0A20414E5449504153534241434B2042
:100DE6004D454E5355414C203D204F46460D0A0079
:100DF6000D0A2020414E5449504153534241434B22
:100E0600204D454E5355414C203D204F4E0D0A0076
:100E16000D0A2041435455414C2046454348412044
:100E260044452056454E43494D49454E544F205062
:100E3600524F4752414D414441203D25730D0A0012
:100E46000D0A2049445F434C49454E544520202015
:100E56002020202020202D2D2D20434D44203020E1
:100E66004964656E746966696361646F722064655E
:100E76006C20636C69656E7465206D6178696D6F51
:100E860020323535000D0A20434F445F5041524B06
:100E960020202020202020202020202D2D2D204302
:100EA6004D44203120456C206E756D65726F20644F
:100EB600656C20706172717565616465726F206D15
:100EC6006178696D6F20323535000D0A20545F4711
:100ED600524143494120202020202020202020204C
:100EE6002D2D2D20434D442032205469656D706FA1
:100EF6002073696E20636F62726F2030302C202061
:100F06006D6178696D6F20323535000D0A205349C1
:100F16004E5F434F42524F20202020202020202089
:100F2600202D2D2D20434D44203320496E686162CB
:100F3600696C697461646F3D20302C20477261745E
:100F460069733D2031202C204772617469732079C2
:100F56002073616C69646120656C206D69736D6FC7
:100F6600206469613D2032000D0A20444542554700
:100F760020202020202020202020202020202D2D51
:100F86002D20434D44203420486162696C697461A8
:100F960072203D20312C20496E686162696C69744B
:100FA6006172203D2030000D0A205553455F4C509C
:100FB600522020202020202020202020202D2D2DD2
:100FC60020434D44203520486162696C6974617222
:100FD600203D20312C20496E686162696C6974611C
:100FE60072203D2030000D0A205449504F5F504179
:100FF6004E54414C4C412020202020202D2D2D20C8
:10100600434D4420362050414E54414C4C41204CD7
:101016004344203D302050414E54414C4C412052D7
:1010260041535042455252493D31000D0A20434139
:1010360052445F4155544F4D41544943412020206D
:10104600202D2D2D20434D44203720424F54544F00
:101056004E3D30204155544F4D41544943413D3159
:10106600000D0A20414E5449504153534241434BCF
:10107600202020202020202D2D2D20434D442038B7
:1010860020486162696C69746172203D20312C20B0
:10109600496E686162696C69746172203D20300036
:1010A6000D0A20504C4143412020202020202020A2
:1010B6002020202020202D2D2D20434D4420392076
:1010C600486162696C69746172203D20312C204947
:1010D6006E686162696C69746172203D2030000D32
:1010E6000A20414444524553535F484947485F42AA
:1010F6004F415244202D2D2D20434D442031302088
:101106004C6120646972656363696F6E20616C74FB
:10111600612064656C20626F6172642064656C2076
:101126006E756D65726F203520616C20392073698C
:101136006E6F207365207573612064656265206932
:101146007220656E2030000D0A20484F52415249E8
:101156004F2020202020202020202020202D2D2D33
:1011660020434D442031312050726F67616D6120FC
:10117600313020686F726172696F732064656C200C
:101186003120616C203130000D0A2056414C494413
:10119600415F564548495F4D454E5355414C2D2DAF
:1011A6002D20434D4420313220486162696C6974B8
:1011B6006172203D20312C20496E686162696C693C
:1011C600746172203D2030000D0A205553455F4161
:1011D60050425F4D454E5355414C202020202D2D29
:1011E6002D20434D4420313320486162696C697477
:1011F6006172203D20312C20496E686162696C69FC
:10120600746172203D2030000D0A205645525F5011
:10121600524F4752414D4143494F4E2020202D2DDC
:101226002D20434D44203134204D75657374726111
:10123600206C612070726F6772616D6163696F6E99
:10124600000D0A204159554441202020202020200D
:10125600202020202020202D2D2D20434D442031DC
:1012660035204D756573747261206C6F7320636FE2
:101276006D616E646F73000D0A2053414C49522014
:10128600202020202020202020202020202D2D2D31
:1012960020434D442031362053616C6972206465C9
:1012A6002070726F6772616D6163696F6E000D0AFF
:1012B6000A53697374656D612064652050726F67A7
:1012C60072616D6163696F6E2045787065646964EB
:1012D6006F72200D0A0D0A000D0A436F6D616E6470
:1012E6006F206E6F206578697374652027257327D4
:1012F600003A5B3C253F58545D3D2900232A594A54
:1013060041494D4563616D696C744B0077727A3261
:10131600357136382D393166532E4000200D0A00BE
:08132600200D0A00220D0A004F
:10852F005401BC2F000000000000000000000000FC
:10853F00000000000000004B01B161646D696E0026
:10854F000000000000603601D03000003100003222
:10855F000000330000340000350000360000370003
:10856F000038000039000031300031310031320065
:0F857F00313300313400313500313600313700EF
:0B4BA00090005EEBF0A3EAF0A3E9F048
:104BAB0078637C007D017BFF7A1279F77E007F0BA7
:104BBB001219FE786E7C007D017BFF7A1379027EE1
:104BCB00007F101219FE787E7C007D017BFF7A132B
:104BDB0079127E007F101219FE7B017A0079997F82
:104BEB00507E0312A0057B017A007999127FAAEF00
:104BFB003395E0FEEF64014E78637C007D017BFF13
:104C0B0060067A00792680047A007931121E37907B
:104C1B00005EE0FBA3E0FAA3E0F912000E90006146
:104C2B00EFF0E4A3F0900062E0FFC3940A74809469
:104C3B00804003024D9290005EE0FBA3E0FAA3E0FC
:104C4B00F98F82758300121A3DFD7C0074632FF57A
:104C5B0082E43400F583E02DFFEC339001ADF0A33B
:104C6B00EFF07E00540FFFA3EEF0A3EFF0700BE01C
:104C7B0004F070069001AFE004F09001AFE0FEA3EA
:104C8B00E0246DF58274003EF583E07E002DFFEE8F
:104C9B003C9001ADF0A3EFF07E00540FFFA3EEF0BC
:104CAB00A3EFF0700BE004F070069001AFE004F09E
:104CBB009001AFE0FEA3E0247DF58274003EF58306
:104CCB00E0FF9001ADE0FEA3E06FFF9001ADEEF0D1
:104CDB00FEA3EFF0D394FFEE940040059001ADE4FA
:104CEB00F09001ADE0FEA3E0FFC3947AEE94004098
:104CFB0015D3EF94FFEE9400500CEF547AFF900114
:104D0B00ADE4F0A3EFF0C39001AEE094309001ADB1
:104D1B00E09400500CA3E02440F09001ADE034008F
:104D2B00F09001ADE0FEA3E0FFC3945BEE94004076
:104D3B0014D3EF9460EE9400500BE02407F0900135
:104D4B00ADE03400F09001ADE0FEA3E0FFC3943A78
:104D5B00EE94004014D3EF9440EE9400500BE024FB
:104D6B00F9F09001ADE034FFF09001ADA3E0FF90BE
:104D7B000062E0248EF582E43400F583EFF09000BE
:104D8B0062E004F0024C30900062E0248EF582E485
:0C4D9B003400F583E4F07B017A00798E8F
:014DA70022E9
:0BA0D100900047EBF0A3EAF0A3E9F0D9
:10A0DC00E490004DF090004DE0FFC3941274809416
:10A0EC00805041EF75F003A424D0F9740135F0FAD7
:10A0FC007B01784A7C007D01121E37784A7C007DFA
:10A10C0001900047E0FBA3E0FAA3E0F9121D4EEF2B
:10A11C003395E04F700690004DE0FF2290004DE02B
:06A12C0004F080B17FFF8A
:01A13200220A
:08A80600E0FBA3E0FAA3E0F976
:0BA80E0090005EEBF0A3EAF0A3E9F07D
:10A8190078617C007D017B017A0179B1121E37785C
:10A82900617C007D0190005EE0FBA3E0FAA3E0F902
:0EA83900121D4EEF3395E04F7002FF227FFF9D
:01A8470022EE
:06A8CA007B017A007933E6
:0BA8D00090005EEBF0A3EAF0A3E9F0BB
:10A8DB0078617C007D017BFF7A1379227E007F04F7
:10A8EB001219FE9000687401F0A37400F0A3746158
:0FA8FB00F090005EE0FBA3E0FAA3E0F90278FF23
:10948500E0FBA3E0FAA3E02FF9EA3EFAE92401F9AB
:03949500E43AFABC
:0B949800900047EBF0A3EAF0A3E9F01E
:1094A300784A7C007D017BFF7A1379267E007F0456
:1094B3001219FE784E7C007D017BFF7A13792A7E98
:1094C300007F041219FE900047E0FBA3E0FAA3E03B
:1094D300F9121A24FFB4200C900048E475F001122D
:1094E3001AB080E2EF900068B4220D7401F0A37407
:1094F30000F0A3744EF080167401F0A37400F0A37F
:10950300744AF0900047E0FBA3E0FAA3E0F9127875
:01951300FF58
:019514002234
:10AF3E0090007B7401F0A37401F0A374BCF07BFF4E
:07AF4E007A00793C0232E8B1
:089AE5007A0079647B01E4FDC5
:0E9AED00900072EBF0A3EAF0A3E9F0A3EDF015
:109AFB0012B01D900072E0FBA3E0FAA3E0F9EF12A5
:109B0B001A6A900075E0701D900072E0FBA3E0FAFA
:109B1B00A3E0F9121A2490007BF07BFF7A007944C2
:109B2B001232E880057F2A12A949900072E0FBA34C
:109B3B00E0FAA3E0F9121A24FF7E00900073E4759B
:109B4B00F001121AB0900072E0FBA3E0FAA3E0F967
:099B5B00E4121A6AEF640D709720
:019B640022DE
:1088B300E4FDFC7FA812A9C87E00900051EEF0A34E
:1088C300EFF090007B74FFF0A37400F0A37447F003
:1088D300A3EEF0A3EFF07B017A0079471232E29026
:1088E300007B7401F0A37400F0A37447F07BFF7A5C
:1088F30000794A1232E87BFF7A0079661232E87A0D
:10890300007947129AE97B017A007947127AC1907C
:108913000051EEF0A3EFF0FBE4FDFC7FA812A3C926
:10892300E4FDFC7FA812A9C87E00900051EEF0A3DD
:10893300EFF090007B74FFF0A37400F0A37447F092
:10894300A3EEF0A3EFF07B017A0079471232E290B5
:10895300007B7401F0A37400F0A37447F07BFF7AEB
:068963000079860232E8F3
:10867F007D027C007FA812A9C87E00900051EEF009
:10868F00A3EFF090007B74FFF0A37400F0A3744786
:10869F00F0A3EEF0A3EFF07B017A0079471232E2FC
:1086AF0090007B7401F0A37400F0A37447F07BFF7C
:1086BF007A0079AB1232E87BFF7A0079C51232E883
:1086CF007B017A007947E4FD129AED7B017A0079FC
:1086DF0047127AC1900051EEF0A3EFF0FB7D027CC0
:1086EF00007FA812A3C97D027C007FA812A9C87EB3
:1086FF0000900051EEF0A3EFF090007B74FFF0A319
:10870F007400F0A37447F0A3EEF0A3EFF07B017AAF
:10871F000079471232E290007B7401F0A37400F0ED
:0D872F00A37447F07BFF7A0079E30232E883
:10873C007D047C007FA812A9C87E00900051EEF049
:10874C00A3EFF090007B74FFF0A37400F0A37447C8
:10875C00F0A3EEF0A3EFF07B017A0079471232E23E
:10876C0090007B7401F0A37400F0A37447F07BFFBE
:10877C007A0179061232E87BFF7A0179251232E808
:10878C007B017A007947E4FD129AED7B017A00793E
:10879C0047127AC1900051EEF0A3EFF0FB7D047C00
:1087AC00007FA812A3C97D047C007FA812A9C87EF3
:1087BC0000900051EEF0A3EFF090007B74FFF0A35B
:1087CC007400F0A37447F0A3EEF0A3EFF07B017AF2
:1087DC000079471232E290007B7401F0A37400F030
:0D87EC00A37447F07BFF7A0179480232E860
:10608F007D067C007FA812A9C87E00900051EEF01B
:10609F00A3EFF090007B74FFF0A37400F0A374479C
:1060AF00F0A3EEF0A3EFF07B017A0079471232E212
:1060BF00900051E07002A3E0701590007B04F0A3F4
:1060CF007400F0A37447F07BFF7A017970803590EC
:1060DF000051E07004A3E06401701590007B04F0A0
:1060EF00A37400F0A37447F07BFF7A0179988014B2
:1060FF0090007B7401F0A37400F0A37447F07BFF52
:10610F007A0179BA1232E87BFF7A0179F21232E81A
:10611F007B017A007947E4FD129AED7B017A0079D1
:10612F0047127AC1900051EEF0A3EFF0FB7D067C91
:10613F00007FA812A3C97D067C007FA812A9C87E84
:10614F0000900051EEF0A3EFF090007B74FFF0A3EE
:10615F007400F0A37447F0A3EEF0A3EFF07B017A85
:10616F000079471232E2900051E07002A3E07015FF
:10617F0090007B04F0A37400F0A37447F07BFF7AC8
:10618F000179708035900051E07004A3E0640170D4
:10619F001590007B04F0A37400F0A37447F07BFF0D
:1061AF007A017998801490007B7401F0A37400F049
:0D61BF00A37447F07BFF7A0179BA1232E831
:0161CC0022B0
:107040007D087C007FA812A9C87E00900051EEF058
:10705000A3EFF090007B74FFF0A37400F0A37447DB
:10706000F0A3EEF0A3EFF07B017A0079471232E251
:10707000900051E07002A3E0701590007B04F0A333
:107080007400F0A37447F07BFF7A027911801490AA
:10709000007B7401F0A37400F0A37447F07BFF7AC7
:1070A0000279351232E87BFF7A0279571232E87B97
:1070B000017A007947E4FD129AED7B017A00794765
:1070C000127AC1900051EEF0A3EFF0FB7D087C0036
:1070D0007FA812A3C97D087C007FA812A9C87E00E2
:1070E000900051EEF0A3EFF090007B74FFF0A374DA
:1070F00000F0A37447F0A3EEF0A3EFF07B017A0059
:1071000079471232E2900051E07002A3E0701590CE
:10711000007B04F0A37400F0A37447F07BFF7A02B5
:107120007911801490007B7401F0A37400F0A374B3
:0B71300047F07BFF7A0279351232E84D
:01713B002231
:10713C007D0A7C007FA812A9C87E00900051EEF059
:10714C00A3EFF090007B74FFF0A37400F0A37447DE
:10715C00F0A3EEF0A3EFF07B017A0079471232E254
:10716C00900051E07002A3E0701590007B04F0A336
:10717C007400F0A37447F07BFF7A02797C80149042
:10718C00007B7401F0A37400F0A37447F07BFF7ACA
:10719C000279A21232E87BFF7A0279C61232E87BBE
:1071AC00017A007947E4FD129AED7B017A00794768
:1071BC00127AC1900051EEF0A3EFF0FB7D0A7C0037
:1071CC007FA812A3C97D0A7C007FA812A9C87E00E3
:1071DC00900051EEF0A3EFF090007B74FFF0A374DD
:1071EC0000F0A37447F0A3EEF0A3EFF07B017A005C
:1071FC0079471232E2900051E07002A3E0701590D2
:10720C00007B04F0A37400F0A37447F07BFF7A02B8
:10721C00797C801490007B7401F0A37400F0A3744B
:0B722C0047F07BFF7A0279A21232E8E3
:017237002234
:107238007D0E7C007FA812A9C87E00900051EEF058
:10724800A3EFF090007B74FFF0A37400F0A37447E1
:10725800F0A3EEF0A3EFF07B017A0079471232E257
:10726800900051E07002A3E0701590007B04F0A339
:107278007400F0A37447F07BFF7A0279ED801490D4
:10728800007B7401F0A37400F0A37447F07BFF7ACD
:1072980003790F1232E87BFF7A0379381232E87BE0
:1072A800017A007947E4FD129AED7B017A0079476B
:1072B800127AC1900051EEF0A3EFF0FB7D0E7C0036
:1072C8007FA812A3C97D0E7C007FA812A9C87E00E2
:1072D800900051EEF0A3EFF090007B74FFF0A374E0
:1072E80000F0A37447F0A3EEF0A3EFF07B017A005F
:1072F80079471232E2900051E07002A3E0701590D5
:10730800007B04F0A37400F0A37447F07BFF7A02BB
:1073180079ED801490007B7401F0A37400F0A374DD
:0B73280047F07BFF7A0379641232E823
:017333002237
:1082BE007D0F7C007FA812A9C87E00900051EEF0C1
:1082CE00A3EFF090007B74FFF0A37400F0A374474B
:1082DE00F0A3EEF0A3EFF07B017A0079471232E2C1
:1082EE00900051E07002A3E07BFF70067A03799450
:1082FE0080047A0379B91232E87BFF7A0379DA12B5
:10830E0032E87B017A007947E4FD129AED7B017A1F
:10831E00007947127AC1900051EEF0A3EFF0FB7D89
:10832E000F7C007FA812A3C97D0F7C007FA812A925
:10833E00C87E00900051EEF0A3EFF090007B74FF2A
:10834E00F0A37400F0A37447F0A3EEF0A3EFF07B5C
:10835E00017A0079471232E2900051E07002A3E0F8
:10836E007BFF70067A03799480047A0379B912320E
:01837E00E816
:01837F0022DB
:107334007D107C007FA812A9C87E00900051EEF059
:10734400A3EFF090007B74FFF0A37400F0A37447E4
:10735400F0A3EEF0A3EFF07B017A0079471232E25A
:10736400900051E07002A3E0701590007B04F0A33C
:107374007400F0A37447F07BFF7A047904801490BE
:10738400007B7401F0A37400F0A37447F07BFF7AD0
:1073940004792F1232E87BFF7A0479581232E87BA1
:1073A400017A007947E4FD129AED7B017A0079476E
:1073B400127AC1900051EEF0A3EFF0FB7D107C0037
:1073C4007FA812A3C97D107C007FA812A9C87E00E3
:1073D400900051EEF0A3EFF090007B74FFF0A374E3
:1073E40000F0A37447F0A3EEF0A3EFF07B017A0062
:1073F40079471232E2900051E07002A3E0701590D8
:10740400007B04F0A37400F0A37447F07BFF7A04BC
:107414007904801490007B7401F0A37400F0A374C9
:0B74240047F07BFF7A04792F1232E85A
:01742F00223A
:107430007D117C007FA812A9C87E00900051EEF05B
:10744000A3EFF090007B74FFF0A37400F0A37447E7
:10745000F0A3EEF0A3EFF07B017A0079471232E25D
:10746000900051E07002A3E0701590007B04F0A33F
:107470007400F0A37447F07BFF7A04798480149041
:10748000007B7401F0A37400F0A37447F07BFF7AD3
:107490000479A81232E87BFF7A0479CA1232E87BB9
:1074A000017A007947E4FD129AED7B017A00794771
:1074B000127AC1900051EEF0A3EFF0FB7D117C0039
:1074C0007FA812A3C97D117C007FA812A9C87E00E5
:1074D000900051EEF0A3EFF090007B74FFF0A374E6
:1074E00000F0A37447F0A3EEF0A3EFF07B017A0065
:1074F00079471232E2900051E07002A3E0701590DB
:10750000007B04F0A37400F0A37447F07BFF7A04BF
:107510007984801490007B7401F0A37400F0A3744C
:0B75200047F07BFF7A0479A81232E8E4
:01752B00223D
:1079E3007D127C007FA812A9C87E00900051EEF0A2
:1079F300A3EFF090007B74FFF0A37400F0A374472F
:107A0300F0A3EEF0A3EFF07B017A0079471232E2A4
:107A1300900051E07002A3E0700690007B048005A3
:107A230090007B7401F0A37400F0A37447F07BFF14
:107A33007A0479EF1232E87BFF7A0579131232E880
:107A43007B017A007947E4FD129AED7B017A007994
:107A530047127AC1900051EEF0A3EFF0FB7D127C48
:107A6300007FA812A3C97D127C007FA812A9C87E3B
:107A730000900051EEF0A3EFF090007B74FFF0A3B1
:107A83007400F0A37447F0A3EEF0A3EFF07B017A48
:107A93000079471232E2900051E07002A3E07006D1
:107AA30090007B04800590007B7401F0A37400F0C8
:0D7AB300A37447F07BFF7A0479EF1232E8EC
:017AC00022A3
:10ABCB009000757419F0A37432F0A3744BF0A37456
:10ABDB0064F0A3747DF0A37496F0A374AFF0A37428
:10ABEB00C8F0A374E1F0A374FAF0E4A3F07B017A4C
:03ABFB0000797569
:01ABFE002234
:0A68DA00900062EEF0FCA3EFF0FD69
:1068E4007FA812A9C87E0090006EEEF0A3EFF0908E
:1068F400007B74FFF0A37400F0A37447F0A3EEF0E0
:10690400A3EFF07B017A0079641232E290006EE02A
:106914007002A3E0701590007B04F0A37400F0A350
:106924007464F07BFF7A05793B801490007B7401DA
:10693400F0A37400F0A37464F07BFF7A057961120C
:1069440032E87BFF7A0579851232E87B017A007997
:1069540064E4FD129AED7B017A007964127AC190A5
:10696400006EEEF0A3EFF0900062E0FCA3E0FDAB5C
:10697400077FA812A3C9900062E0FCA3E0FD7FA8F2
:1069840012A9C87E0090006EEEF0A3EFF090007B99
:1069940074FFF0A37400F0A37447F0A3EEF0A3EF28
:1069A400F07B017A0079641232E290006EE07002AA
:1069B400A3E09000707018F0A3F090007B04F0A3A3
:1069C4007400F0A37464F07BFF7A05793B8017E4CC
:1069D400F0A304F090007BF0A37400F0A37464F0BF
:0F69E4007BFF7A0579611232E8900070A3E0FF23
:0169F3002281
:084DA800900062EEF0A3EFF0B1
:104DB0007BFF7A0579AC1232E8129AE57BFF7A051F
:104DC00079D21232E8900063E02407FD900062E09F
:104DD0003400FC900064E0FB7FA812A3C99000633C
:104DE000E02407FD900062E03400FC7FA812A9C80F
:104DF0007BFF7A00794490007BEFF01232E890005C
:104E000063E02408FD900062E03400FC900065E05F
:104E1000FB7FA812A3C9900063E02408FD90006204
:104E2000E03400FC7FA812A9C87BFF7A0579EE90D8
:104E3000007BEFF01232E8900063E02409FD90005F
:104E400062E03400FC900067E0FB7FA812A3C990E9
:104E50000063E02409FD900062E03400FC7FA812AA
:104E6000A9C87BFF7A00794490007BEFF01232E80A
:104E7000900063E0240AFD900062E03400FC9000A2
:104E800068E0FB7FA812A3C9900063E0240AFD90AC
:104E90000062E03400FC7FA812A9C87BFF7A007989
:104EA0004490007BEFF01232E87BFF7A0579F21232
:104EB00032E8129AE57BFF7A0679121232E8900006
:104EC00063E0240BFD900062E03400FC900064E09D
:104ED000FB7FA812A3C9900063E0240BFD90006241
:104EE000E03400FC7FA812A9C87BFF7A00794490C7
:104EF000007BEFF01232E8900063E0240CFD90009C
:104F000062E03400FC900065E0FB7FA812A3C9902A
:104F10000063E0240CFD900062E03400FC7FA812E6
:104F2000A9C87BFF7A0579EE90007BEFF01232E89A
:104F3000900063E0240DFD900062E03400FC9000DE
:104F400067E0FB7FA812A3C9900063E0240DFD90E9
:104F50000062E03400FC7FA812A9C87BFF7A0079C8
:104F60004490007BEFF01232E8900063E0240EFDE5
:104F7000900062E03400FC900068E0FB7FA812A380
:104F8000C9900063E0240EFD900062E03400FC7FD5
:104F9000A812A9C87BFF7A00794490007BEFF00249
:024FA00032E8F5
:0869F400900075EEF0A3EFF036
:1069FC007BFF7A06792E1232E8900076E02407FDB0
:106A0C00900075E03400FC7FA812A9C87BFF7A06C1
:106A1C00794090007BEFF01232E8900076E0240889
:106A2C00FD900075E03400FC7FA812A9C87BFF7AAA
:106A3C000579EE90007BEFF01232E8900076E024BE
:106A4C0009FD900075E03400FC7FA812A9C87BFFFB
:106A5C007A00794490007BEFF01232E8900076E0F7
:106A6C00240AFD900075E03400FC7FA812A9C87BB5
:106A7C00FF7A06794490007BEFF01232E8900076B2
:106A8C00E0240BFD900075E03400FC7FA812A9C82F
:106A9C007BFF7A00794490007BEFF01232E8900093
:106AAC0076E0240CFD900075E03400FC7FA812A960
:106ABC00C87BFF7A0579EE90007BEFF01232E890FC
:106ACC000076E0240DFD900075E03400FC7FA812E8
:106ADC00A9C87BFF7A00794490007BEFF01232E872
:106AEC00900076E0240EFD900075E03400FC7FA849
:106AFC0012A9C87BFF7A00794490007BEFF0023238
:016B0C00E8A0
:08449F00900062EEF0A3EFF0C3
:1044A7007BFF7A06794A1232E87BFF7A0679761221
:1044B70032E87BFF7A06799E1232E87B017A00792F
:1044C70064E4FD129AED7BFF7A0679C61232E8E4BE
:1044D70090006FF090006FE0FFC3940874809480A1
:1044E700400302475574642FF582E43400F583E0F6
:1044F700900070F0643270437BFF7A0679DE1232E7
:10450700E8900063E02401FD900062E03400FC7B4A
:10451700327FA812A3C9900063E02401FD900062D6
:10452700E03400FC7FA812A9C890006EEFF07BFF73
:104537007A0679E590007BF01232E890006FE0246C
:1045470064F582E43400F583E0900070F064337022
:10455700437BFF7A0679EB1232E8900063E024028E
:10456700FD900062E03400FC7B337FA812A3C99062
:104577000063E02402FD900062E03400FC7FA81293
:10458700A9C890006EEFF07BFF7A0679E590007B73
:10459700F01232E890006FE02464F582E43400F50D
:1045A70083E0900070F0643470437BFF7A0679F300
:1045B7001232E8900063E02403FD900062E03400CB
:1045C700FC7B347FA812A3C9900063E02403FD900D
:1045D7000062E03400FC7FA812A9C890006EEFF0DB
:1045E7007BFF7A0679E590007BF01232E890006F46
:1045F700E02464F582E43400F583E0900070F06411
:104607003570437BFF7A0679FE1232E8900063E04B
:104617002404FD900062E03400FC7B357FA812A3E0
:10462700C9900063E02404FD900062E03400FC7F41
:10463700A812A9C890006EEFF07BFF7A0679E59083
:10464700007BF01232E890006FE02464F582E434D6
:1046570000F583E0900070F0643670437BFF7A07C3
:1046670079061232E8900063E02405FD900062E0CD
:104677003400FC7B367FA812A3C9900063E02405B1
:10468700FD900062E03400FC7FA812A9C890006E7C
:10469700EFF07BFF7A0679E590007BF01232E89025
:1046A700006FE02464F582E43400F583E090007045
:1046B700F0643770437BFF7A07790F1232E8900076
:1046C70063E02406FD900062E03400FC7B377FA89E
:1046D70012A3C9900063E02406FD900062E0340055
:1046E700FC7FA812A9C890006EEFF07BFF7A0679CD
:1046F700E590007BF01232E890006FE02464F582C9
:10470700E43400F583E0900070F0643170377BFF8C
:104717007A0779171232E8900062E0FCA3E0FD7B8C
:10472700317FA812A3C9900062E0FCA3E0FD7FA837
:1047370012A9C890006EEFF07BFF7A0779209000EE
:0E4747007BF01232E890006FE004F00244DBD9
:014755002241
:08669600900075EEF0A3EFF097
:10669E002401FDE43EFC7FA812A9C8900077EFF01C
:1066AE0064327BFF70067A07792580047A07793B7E
:1066BE001232E8900076E02402FD900075E034007E
:1066CE00FC7FA812A9C8900077EFF064337BFF70AF
:1066DE00067A07795480047A07796B1232E89000B3
:1066EE0076E02403FD900075E03400FC7FA812A92B
:1066FE00C8900077EFF064347BFF70067A077985D7
:10670E0080047A07799F1232E8900076E02404FD27
:10671E00900075E03400FC7FA812A9C8900077EFB6
:10672E00F064357BFF70067A0779BC80047A0779AE
:10673E00D31232E8900076E02405FD900075E03427
:10674E0000FC7FA812A9C8900077EFF064367BFF9B
:10675E0070067A0779ED80047A0879051232E8908E
:10676E000076E02406FD900075E03400FC7FA81250
:10677E00A9C8900077EFF064377BFF70067A08792E
:10678E002080047A0879371232E8900075E0FCA375
:10679E00E0FD7FA812A9C8900077EFF064317BFF6F
:0F67AE0070067A08795180047A0879691232E806
:0167BD0022B9
:105E080012ABCB78517C007D01121E377BFF7A08DC
:105E180079841232E87B017A007947E4FD129AED21
:105E28007B017A007947127AC1EF14900061F0E0A3
:105E38002451F582E43400F583E0FF7E0090005C95
:105E4800EEF0A3EFF0A3EEF0A3EFF090005DE024F6
:105E58000FF090005CE03400F0E0FEA3E0FF126871
:105E6800DA90005EE0FFA3E090005CCFF0A3EFF0D3
:105E78009000617401F0900061E0FFC394087480A1
:105E88009480501C90005DE02FFD90005CE0340091
:105E9800FC7BFF7FA812A3C9900061E004F080D6C4
:105EA80090005EE0FEA3E0FF90005CEEF0A3EFF050
:105EB80012449F90005CE0FEA3E0FF124DA87BFF18
:105EC8007A0879B41232E87B017A007947E4FD1246
:105ED8009AED7B017A007947127AC1900060EFF061
:105EE800FB90005DE02410FD90005CE03400FC7F36
:105EF800A812A3C990005DE02410FD90005CE03476
:105F080000FC7FA812A9C8900060EFF090007B7495
:105F1800FFF0A37400F0A37447F0A3EFF07B017ABD
:105F28000079471232E2900060E064017016900038
:105F38005DE0240AF090005CE03400F0E0FEA3E0AD
:045F4800FF124DA84F
:015F4C002232
:10752C007D147C007FA812A9C87E00900051EEF05B
:10753C00A3EFF090007B74FFF0A37400F0A37447EA
:10754C00F0A3EEF0A3EFF07B017A0079471232E260
:10755C00900051E07002A3E0701590007B04F0A342
:10756C007400F0A37447F07BFF7A0879E2801490E2
:10757C00007B7401F0A37400F0A37447F07BFF7AD6
:10758C000979161232E87BFF7A0979481232E87BC6
:10759C00017A007947E4FD129AED7B017A00794774
:1075AC00127AC1900051EEF0A3EFF0FB7D147C0039
:1075BC007FA812A3C97D147C007FA812A9C87E00E5
:1075CC00900051EEF0A3EFF090007B74FFF0A374E9
:1075DC0000F0A37447F0A3EEF0A3EFF07B017A0068
:1075EC0079471232E2900051E07002A3E0701590DE
:1075FC00007B04F0A37400F0A37447F07BFF7A08BF
:10760C0079E2801490007B7401F0A37400F0A374F1
:0B761C0047F07BFF7A09797D1232E80D
:017627002240
:107628007D157C007FA812A9C87E00900051EEF05D
:10763800A3EFF090007B74FFF0A37400F0A37447ED
:10764800F0A3EEF0A3EFF07B017A0079471232E263
:10765800900051E07002A3E0701590007B04F0A345
:107668007400F0A37447F07BFF7A0979B080149016
:10767800007B7401F0A37400F0A37447F07BFF7AD9
:107688000979E31232E87BFF7A0A79141232E87B2F
:10769800017A007947E4FD129AED7B017A00794777
:1076A800127AC1900051EEF0A3EFF0FB7D157C003B
:1076B8007FA812A3C97D157C007FA812A9C87E00E7
:1076C800900051EEF0A3EFF090007B74FFF0A374EC
:1076D80000F0A37447F0A3EEF0A3EFF07B017A006B
:1076E80079471232E2900051E07002A3E0701590E1
:1076F800007B04F0A37400F0A37447F07BFF7A09C1
:1077080079B0801490007B7401F0A37400F0A37426
:0B77180047F07BFF7A0A79481232E844
:017723002243
:104FA2007B017A0079477F507E0312A00590006151
:104FB2007401F0A37400F0A37455F07B017A0079B8
:104FC2004712924290007B7401F0A37400F0A37424
:104FD20055F07BFF7A0A797A1232E87BFF7A0A79F6
:104FE200A61232E87B017A0079477F007E0312A085
:104FF2000590007B7401F0A37400F0A37447F07B6A
:10500200FF7A0A79B81232E87B017A007947124BAB
:10501200A078B17C017D01121E377BFF7A0A79BB31
:105022001232E87B017A0079477D01129AED7B0109
:105032007A00794712A8D0900052EBF0A3EAF0A3CD
:10504200E9F07B017A0179B17F007E03129F2B90F8
:10505200005212A806EF70837BFF7A0A79CA1232D5
:10506200E87B017A007947E4FD129AED90007B74A7
:1050720001F0A37400F0A37447F07BFF7A0A79F47D
:105082001232E8900047E0900055F0900048E0901E
:105092000056F0E4A3F07B017A007955127AC190B0
:1050A200005CEEF0A3EFF07BFF7A0A79FE90007BC2
:1050B200EEF0A3EFF01232E890005CA3E0FB7D502B
:1050C2007C037FA812A3C9900049E0900055F0909C
:1050D200004AE0900056F0E4A3F07B017A00795593
:1050E200127AC190005CEEF0A3EFF07BFF7A0A79AE
:1050F200FE90007BEEF0A3EFF01232E890005CA38A
:10510200E0FB7D517C037FA812A3C990004BE09085
:105112000055F090004CE0900056F0E4A3F07B01C3
:105122007A007955127AC190005CEEF0A3EFF07B21
:10513200FF7A0A79FE90007BEEF0A3EFF01232E8DC
:1051420090005CA3E0FB7D527C037FA812A3C9E41C
:10515200FB7D537C037FA812A3C97B017A007947A8
:105162007F507E0312A0059000617401F0A37400C9
:10517200F0A37455F07B017A0079471292429000B5
:105182007B7401F0A37400F0A37455F07BFF7A0BDB
:0551920079050232E87E
:10630B0012ABCB78647C007D01121E37E490006FDA
:10631B00F090006FE0FFC3940A74809480400302F6
:10632B0064417BFF7A0B7937EF243190007BF012BD
:10633B0032E890006FE02464F582E43400F583E0EA
:10634B00FF7E00900070EEF0A3EFF0A3EEF0A3EF52
:10635B00F0900071E0240FF0900070E03400F0E05A
:10636B00FCA3E0FD7FA812A9C8900074EFF0900089
:10637B007B74FFF0A37400F0A37447F0A3EFF07BE2
:10638B00017A00795A1232E2900074E064016003E2
:10639B0002642F7BFF7A0B79601232E87BFF7A0B5A
:1063AB00797F1232E8900072E0FEA3E0FF9000705C
