:108D99004101710A4101A4004101AF004101A5004F
:108DA9004101AD004201A600004101AE064101B3F7
:0F8DB900034101B2F2C10AC10BC10941017000AF
:03000B0002C0F838
:10C0F800C0E0C083C082900171E014F0E064017078
:10C10800069001A4E004F09001A7E004F070069006
:0EC1180001A6E004F0C28DD082D083D0E032C8
:10C46A00E58954F04401F589E4F58CF58AD28C22E9
:05C50900C28DD2A92241
:03C51300C2A92298
:0BC4990012C1EFEFF47002EEF460F54A
:01C4A4002275
:05BC8C009000A7EFF09D
:10BC91009000A7E0FF12BE72EF3395E04F6024E4FD
:10BCA1009000A8F0A3F0C39000A9E094E89000A848
:10BCB100E0940350DBA3E004F070EB9000A8E004F3
:08BCC100F080E39000A7E0FF12
:01BCC9002258
:0EB9B000900027EBF0A3EAF0A3E9F0A3EDF07E
:10B9BE00E4A3F090002AE0FFA3E0C39F502990007B
:10B9CE0027E0FBA3E0FAA3E0F9121B37FF12BC8CB1
:10B9DE0090002CEFF0900028E475F001121BC3903C
:07B9EE00002BE004F080CC07
:01B9F500222F
:10C47A0012C50E12C4CB12C4AFC283D287C297228E
:10B714007D047C007FA812BD499001B0E4F0A3EF42
:10B72400F07D067C007FA812BD499001ABE4F0A334
:10B73400EFF07D087C007FA812BD499001A9EFF0CD
:10B744007D0A7C007FA812BD499001A8EFF07D0E10
:0DB754007C007FA812BD499001AAEFF022F1
:10AFAB0012C46A12C50912C12612C17812C47AD210
:10AFBB00AF12C3287F217E0012C3FE12C3A97F618B
:10AFCB0012B84912C4D220910312564A12B7141266
:10AFDB006FC0EF70FA9001717405F020800312C2FC
:10AFEB0015900170E0FF123C00900170EFF020B360
:10AFFB00292009267B017A01794812A4559000007B
:10B00B00EFF0FD7B017A01794812BC0D7B017A01CF
:0FB01B007948900000E0FD1236BF129C0880BCFF
:10BDFC007072696D6172696F204243433D20000D82
:10BE0C000A0063616C63756C6F204243433D2000F4
:10BE1C005245454E56494152207472616D6120481D
:0BBE2C006F72613A20004C495645003F
:0E36BF00900001EBF0A3EAF0A3E9F0A3EDF018
:1036CD00E4A3F0ED641A6003023805900001E0FBFD
:1036DD00A3E0FAA3E0F9121B376402600302380578
:1036ED00900002121B5064486003023805900004DC
:1036FD00E07E0024FEF582EE34FFF583121B50644C
:10370D000360030238057BFF7ABD79FC12B89C90EB
:10371D000001E0FBA3E0FAA3E0F9900019121B50A1
:10372D00FF12B9227BFF7ABE790B12B89CE4FC9094
:10373D000004E014FEECC39E501F900001E0FBA3BB
:10374D00E0FAA3E0F9AF048F82758300121B50FEDF
:10375D00900005E06EF00C80D67BFF7ABE790E12DC
:10376D00B89C900005E0FF12B9227BFF7ABE790B61
:10377D0012B89C900001E0FBA3E0FAA3E0F99000E1
:10378D0019121B50FF900005E0B50726E92403F937
:10379D00E43AFA127A4EEF6003023BFF900001E02B
:1037AD00FBA3E0FAA3E02403F9E43AFA12A14702DD
:1037BD00B02A9000067402F0A37405F0A37403F010
:1037CD00E4A3F07B017A0079067D04129B547BFF04
:1037DD007ABE791C12B89C900006E0FF12B92290B7
:1037ED000007E0FF12B922900008E0FF12B9227B1A
:1037FD00FF7ABE790B02B89C900001E0FBA3E0FAC2
:10380D00A3E0F9121B3764B170057F60023A329064
:10381D000001E0FBA3E0FAA3E0F9121B3764B270DC
:10382D00057F5D023A32900001E0FBA3E0FAA3E0D0
:10383D00F9121B3764B370057F63023A32900004AE
:10384D00E064017017900001E0FBA3E0FAA3E0F93A
:10385D00121B3764B470057F5E023A32900004E0AB
:10386D0064017017900001E0FBA3E0FAA3E0F912E8
:10387D001B3764B570057F62023A32900001E0FBA0
:10388D00A3E0FAA3E0F9121B3764B6702890021B6F
:10389D00E004F0E0D39404748094805003023BFF65
:1038AD007FAE122889C282E49001A4F0C297C28330
:1038BD0090021BF022900001E0FBA3E0FAA3E0F9D7
:1038CD00121B37FF64B76005EF64AA70539001A413
:1038DD00E0C39414748094804008E4F0C297D282BF
:1038ED00C2839001A9E06003023BFF9001A8E06450
:1038FD00016003023BFFC39001A7E094589001A61D
:10390D00E094025003023BFFE4F0A3F09001A90400
:10391D00F07BFF7ABE793212B89CE49001A9F022B7
:10392D00900004E064017017900001E0FBA3E0FA41
:10393D00A3E0F9121B3764B870057F9A023A3290F2
:10394D000004E0FF6403702A900001E0FBA3E0FA9D
:10395D00A3E0F9900001121B5064557015FE74FF21
:10396D002FF582EE34FFF583121B506403700302B2
:10397D00BF59900004E064017017900001E0FBA3B3
:10398D00E0FAA3E0F9121B3764A170057F5A023AE1
:10399D0032900004E064017016900001E0FBA3E09A
:1039AD00FAA3E0F9121B37640570047F9C807690B2
:1039BD000004E064017016900001E0FBA3E0FAA39F
:1039CD00E0F9121B37640670047F9E805890000446
:1039DD00E064017016900001E0FBA3E0FAA3E0F9AA
:1039ED00121B37640770047F5F803A900004E06417
:1039FD00017016900001E0FBA3E0FAA3E0F9121BA1
:103A0D0037640870047F61801C900004E0640170CD
:103A1D0017900001E0FBA3E0FAA3E0F9121B376455
:103A2D000970057FAF022889900004E0FF641370D0
:103A3D003C900001E0FBA3E0FAA3E0F99000011235
:103A4D001B5064567027EF24FFFFE434FFFE8F8276
:103A5D00F583121B50640370148F828E83E4121B46
:103A6D008FE92402F9E43AFA7F5B023BC09000042F
:103A7D00E0FF6413703C900001E0FBA3E0FAA3E0CB
:103A8D00F9900001121B50644F7027EF24FFFFE4E3
:103A9D0034FFFE8F82F583121B50640370148F82E6
:103AAD008E83E4121B8FE92402F9E43AFA7F9B021C
:103ABD003BC0900004E0FF64066003023B7790007A
:103ACD0001E0FBA3E0FAA3E0F9121B3764026003E7
:103ADD00023B77900001121B5064576003023B7745
:103AED00FE74FF2FF582EE34FFF583121B50640335
:103AFD007078900001A3A3900002121B50FD7B0172
:103B0D007A00790612B4F89000097420F090000143
:103B1D00E0FBA3E0FAA3E0F9900003121B50FD9027
:103B2D000001A3A3900004121B50900018F07B011C
:103B3D007A00790A1249259001A8E06401702112DA
:103B4D00BF21EFF460077FAA12288980097B017AD3
:103B5D00007906128E6F7B017A0079067F5C8053A7
:103B6D007B017A0079067F5C8049900004E0FF6458
:103B7D00077043900001E0FBA3E0FAA3E0F9121BEC
:103B8D003764027031900001121B5064637027EF8F
:103B9D0024FFFFE434FFFE8F82F583121B50640374
:103BAD0070148F828E83E4121B8FE92402F9E43A9C
:103BBD00FA7F9D024EAC900004E0FF640C703390D0
:103BCD000001E0FBA3E0FAA3E0F9121B37640270D9
:103BDD0021FE74FF2FF582EE34FFF583121B506426
:103BED0003700F900001A3A3E02401F9E43AFA1247
:023BFD008F45F2
:013BFF0022A3
:0EBB4B00900033EBF0A3EAF0A3E9F0A3EDF0D5
:10BB5900E4A3F0900036E0FFA3E0C39F50249000D7
:10BB690033E0FBA3E0FAA3E0F9121B37FF12B8494F
:10BB7900900034E475F001121BC3900037E004F023
:02BB890080D169
:01BB8B002297
:0B8E6F00900011EBF0A3EAF0A3E9F083
:108E7A009000327403F090001414F012BAC69000F5
:108E8A0015EFF0A37453F09001ADE0900032601337
:108E9A00E0FF04F074142FF582E43400F583744D76
:108EAA00F08011E0FF04F074142FF582E43400F529
:108EBA00837443F09000327404F0900011E0FBA335
:108ECA00E0FAA3E0F9121B37FF6021900032E02498
:108EDA0014F582E43400F583EFF0900012E475F0A3
:108EEA0001121BC3900032E004F080CE900032E001
:108EFA00FF04F074142FF582E43400F583743AF019
:108F0A00900032E02414F9E43400FA7B0112691269
:108F1A00900032E0FF241EF582E43400F583743AAF
:108F2A00F0741F2FF582E43400F5837403F07B019B
:0B8F3A007A007914EF240CFD02BB4B01
:10C3D60050524F4752414D414D4F5320484F5241C5
:04C3E600000D0A003C
:08000300D29412C516C294222A
:05BC4D009000B4EFF0CF
:10BC5200E4A3F0A3F09000B4E0FFA2E713F030D722
:10BC620004D2958002C2951200039000B6E004F05F
:10BC720070069000B5E004F0C39000B6E09408901E
:09BC820000B5E06480948040CC20
:01BC8B002296
:0AA6A800EBF0A3EAF0A3E9F07F8DC8
:05A6B2009000B1EFF083
:10A6B700D2967F037E0012C3FE9000B1E0FF12BC6A
:10A6C7004DE49000B2F0A3F09000B2E0FCA3E0FDEF
:10A6D700C39408EC64809480504F30951690021C08
:10A6E700E04480F0ED9406EC648094805005E0FF30
:10A6F700C313F020952090021CE0547FF0D3900004
:10A70700B3E094069000B2E0648094805008900211
:10A717001CE0FFC313F01200039000B3E004F070D5
:10A72700A79000B2E004F0809FC29690021CE0FF61
:01A7370022FF
:10C15000900014EFF0A3EDF0D2967F037E0012C39F
:10C16000FE900014E0FF12BC4D900015E0FF90001F
:08C1700014F012BC4DC296222E
:10BB8C00900012E475F001121BC3900012E475F0E2
:10BB9C0001121BC3900012E475F001121BC390003C
:10BBAC0011E0FBA3E0FAA3E0F9121B37FF900001B0
:04BBBC00121B50FD0B
:0CBBC000EF540FC454F0FFED540F4FFF82
:01BBCC002256
:107A4E00E4FF121B37FEC394305003027B60EED36B
:107A5E0094394003027B60900001121B50FEC394C8
:107A6E00305003027B5DEED394394003027B5D9070
:107A7E000003121B50FEC394305003027B5AEED308
:107A8E0094394003027B5A900004121B50FEC3949B
:107A9E00305003027B62EED394394003027B629036
:107AAE000008121B50FEC394305003027B57EED3D6
:107ABE0094394003027B5790000B121B50FEC39467
:107ACE00305003027B54EED39439507A90000C124E
:107ADE001B50FEC39430406BEED39439506590002A
:107AEE000E121B50FEC394304056EED394395050B4
:107AFE0090000F121B50FEC394304041EED39439C8
:107B0E00503B900011121B50FEC39430402CEED30C
:107B1E0094395026900012121B50FEC39430401719
:107B2E00EED394395011900014121B50FEC39430B2
:107B3E004022EED39439227F01227F01227F01223F
:107B4E007F01227F01227F01227F01227F01227F7E
:047B5E0001227F0180
:017B62002200
:0BA14700900011EBF0A3EAF0A3E9F098
:10A152007BFF7AC379D612B89C7BFF7AC379E71268
:10A16200B89C12BBAAAD077F8612C15012BB8CAD40
:10A17200077F8812C150900012E475F001121BC3D0
:10A18200900012E475F001121BC312BB8CAD077F65
:10A192008C12C15012BB8CAD077F8412C15012BB0E
:10A1A2008CAD077F8212C15012BB8CAD077F80122B
:10A1B200C150900012E475F001121BC3900012E42A
:10A1C20075F001121BC3900012E475F001121BC35B
:10A1D200900011E0FBA3E0FAA3E0F9121B37540749
:06A1E200FD7F8A02C1505E
:10C34100AE07EEC4540F540FFE6012EF540FFFE41A
:0DC35100FDEDC39E5007740A2FFF0D80F410
:01C35E0022BC
:10BD0800121B8F90005EE475F001121BC390005D5A
:0CBD1800E0FBA3E0FAA3E0F9121B37FFE8
:10BD2400E4FEFDFCECC39F500B0DED640A7002FDB4
:10BD34000E0C80F0EEC454F054F0FEED540F4EFFA0
:01BD440022DC
:0BA5860090005DEBF0A3EAF0A3E9F009
:10A5910012BD15EF54F0C4540F4430FE900060E03A
:10A5A100FBA3E0FAA3E0F9EE121B7DEF540F443058
:10A5B100FF900060E0FBA3E0FAA3E0F9900001EF57
:10A5C10012BD08EF54F0C4540F4430FE900060E017
:10A5D100FBA3E0FAA3E0F9900002EE121B8FEF5407
:10A5E1000F443090000312BD08EF54F0C4540F44DF
:10A5F10030FE900060E0FBA3E0FAA3E0F9900004D4
:10A60100EE121B8FEF540F4430900005121B8F90F8
:06A611000006E4021B8FAD
:10B4F800E4FFFE900014EDF0900014E0C39464742F
:10B508008094804007E0249CF00F80ECEF443012D8
:10B518001B7D740129F9E43AFA900014E0C3940AF7
:10B52800748094804007E024F6F00E80ECEE4430FE
:10B53800121B7D740129F9E43AFA900014E04430B2
:0EB54800121B7D740129F9E43AFAE4021B7D1E
:0E492500900014EBF0A3EAF0A3E9F0A3EDF08C
:10493300E4900019F0A3F090001CF0A3F0A3F0A3FF
:10494300F090001BEDF054F0F0E0FFC4540FF09032
:104953000024121C6C404000007F007E007D807CA0
:1049630041126A80C004C005C006C00790001BE066
:10497300FCE4121649D003D002D001D0001215393D
:10498300C004C005C006C007900019E0FCA3E0FD09
:10499300E4121644D003D002D001D00012144812FE
:1049A300167D900019EEF0A3EFF0900017E0900051
:1049B3001BF0540FF0900024121C6C400000007F89
:1049C300007E007D807C41126A80C004C005C00661
:1049D300C00790001BE0FCE4121649D003D002D0BC
:1049E30001D000121539C004C005C006C0079000ED
:1049F30019E0FCA3E0FDE4121644D003D002D00179
:104A0300D00012144812167D900019EEF0A3EFF0B7
:104A1300900018E090001BF054F0F0E0FFC4540F36
:104A2300F0900024121C6C3F8000007F007E007D0C
:104A3300807C41126A80C004C005C006C007900094
:104A43001BE0FCE4121649D003D002D001D00012BF
:104A53001539C004C005C006C007900019E0FCA3C7
:104A6300E0FDE4121644D003D002D001D0001214AA
:104A73004812167D900019EEF0A3EFF0900018E0B5
:104A830090001BF0540FF0900024121C6C000000E7
:104A9300007F007E007D807C41126A80C004C005D7
:104AA300C006C00790001BE0FCE4121649D003D0F7
:104AB30002D001D000121539C004C005C006C007DA
:104AC300900019E0FCA3E0FDE4121644D003D002E9
:104AD300D001D00012144812167D900019EEF0A3F5
:104AE300EFF0C3EF9410EE9427401074F02FFF748F
:104AF300D83EFE90001CE004F080E790001CE044E8
:104B030030FD900014E0FBA3E0FAA3E0F9ED121BE3
:104B13007D900015E475F001121BC3C3EF94E8EE1A
:104B23009403401074182FFF74FC3EFE90001DE0A8
:104B330004F080E790001DE04430FD900014E0FB9A
:104B4300A3E0FAA3E0F9ED121B7D900015E475F0E4
:104B530001121BC3C3EF9464EE94004010749C2FA6
:104B6300FF74FF3EFE90001EE004F080E790001EFD
:104B7300E04430FD900014E0FBA3E0FAA3E0F9ED7C
:104B8300121B7D900015E475F001121BC3C3EF9453
:104B93000AEE9400401074F62FFF74FF3EFE90005F
:104BA3001FE004F080E790001FE04430FD90001404
:104BB300E0FBA3E0FAA3E0F9ED121B7D900015E4FE
:104BC30075F001121BC3EF4430FF900014E0FBA308
:104BD300E0FAA3E0F9EF121B7D900015E475F001F4
:104BE300121BC3900014E0FBA3E0FAA3E0F9E40274
:024BF3001B7D28
:03691200900051A1
:1069150012A6A8EF54F0C4540F4430FE900051E085
:10692500FBA3E0FAA3E0F9EE121B7D900052E4759B
:10693500F001121BC3EF540F4430FF900051E0FBF0
:10694500A3E0FAA3E0F9EF121B7D900052E475F085
:1069550001121BC37F8912A6B2EF54F0C4540F4431
:1069650030FE900051E0FBA3E0FAA3E0F9EE121B24
:106975007D900052E475F001121BC3EF540F4430B3
:10698500FF900051E0FBA3E0FAA3E0F9EF121B7DB5
:10699500900052E475F001121BC37F8712A6B2EF77
:1069A50054F0C4540F4430FE900051E0FBA3E0FACC
:1069B500A3E0F9EE121B7D900052E475F001121B65
:1069C500C3EF540F4430FF900051E0FBA3E0FAA35E
:1069D500E0F9EF121B7D900052E475F001121BC324
:1069E5007F8512A6B2EF54F0C4540F4430FE9000D8
:1069F50051E0FBA3E0FAA3E0F9EE121B7D900052F3
:106A0500E475F001121BC3EF540F4430FF900051A1
:106A1500E0FBA3E0FAA3E0F9EF121B7D900052E43E
:106A250075F001121BC37F8312A6B2EF54F0C45454
:106A35000F4430FE900051E0FBA3E0FAA3E0F9EE2D
:106A4500121B7D900052E475F001121BC3EF540F29
:106A55004430FF900051E0FBA3E0FAA3E0F9EF1208
:106A65001B7D900052E475F001121BC3900051E0AC
:0B6A7500FBA3E0FAA3E0F9E4021B7DA4
:0B62400090001EEBF0A3EAF0A3E9F0D1
:10624B007F8912A6B2EF54F0C4540F4430FE900075
:10625B001EE0FBA3E0FAA3E0F9EE121B7D90001FFA
:10626B00E475F001121BC3EF540F4430FF90001E76
:10627B00E0FBA3E0FAA3E0F9EF121B7D90001FE413
:10628B0075F001121BC37F8712A6B2EF54F0C454F2
:10629B000F4430FE90001EE0FBA3E0FAA3E0F9EE02
:1062AB00121B7D90001FE475F001121BC3EF540FFE
:1062BB004430FF90001EE0FBA3E0FAA3E0F9EF12DD
:1062CB001B7D90001FE475F001121BC37F8D12A67E
:1062DB00B2EF54F0C4540F4430FE90001EE0FBA309
:1062EB00E0FAA3E0F9EE121B7D90001FE475F001BC
:1062FB00121BC3EF540F4430FF90001EE0FBA3E0D2
:10630B00FAA3E0F9EF121B7D90001FE475F0011268
:10631B001BC37F8512A6B2EF54F0C4540F4430FE5A
:10632B0090001EE0FBA3E0FAA3E0F9EE121B7D90B8
:10633B00001FE475F001121BC3EF540F4430FF90A4
:10634B00001EE0FBA3E0FAA3E0F9EF121B7D900027
:10635B001FE475F001121BC37F8312A6B2EF54F03A
:10636B00C4540F4430FE90001EE0FBA3E0FAA3E000
:10637B00F9EE121B7D90001FE475F001121BC3EFA9
:10638B00540F4430FF90001EE0FBA3E0FAA3E0F9AA
:10639B00EF121B7D90001FE475F001121BC39000E0
:1063AB001EE0FBA3E0FAA3E0F9742E121B7D900014
:1063BB001FE475F001121BC37F8112A6B2EF54F0DC
:1063CB00C4540F4430FE90001EE0FBA3E0FAA3E0A0
:1063DB00F9EE121B7D90001FE475F001121BC3EF49
:1063EB00540F4430FF90001EE0FBA3E0FAA3E0F94A
:1063FB00EF121B7D90001FE475F001121BC3900080
:0D640B001EE0FBA3E0FAA3E0F9E4021B7D14
:109EB6009000AE12A6A812C3419000AEE0FBA3E04C
:109EC600FAA3E0F9EF121B7D9000AFE475F00112E2
:109ED6001BC37F8912A6B212C3419000AEE0FBA35A
:109EE600E0FAA3E0F9EF121B7D9000AFE475F001F4
:109EF600121BC37F8712A6B212C3419000AEE0FBCD
:109F0600A3E0FAA3E0F9EF121B7D9000AFE475F031
:109F160001121BC37F8512A6B212C3419000AEE0A8
:109F2600FBA3E0FAA3E0F9EF121B7D9000AFE47506
:109F3600F001121BC37F8312A6B212C3419000AE7A
:109F4600E0FBA3E0FAA3E0F9EF121B7D9000AFE47B
:069F560075F001021BC3BF
:10B19A0090000512A6A8900005E0FBA3E0FAA3E040
:10B1AA00F990000EEF121B8F7F8912A6B29000054C
:10B1BA00E0FBA3E0FAA3E0F990000FEF121B8F7FE8
:10B1CA008712A6B2900005E0FBA3E0FAA3E0F9908B
:10B1DA000010EF121B8F7F8512A6B2900005E0FBCC
:10B1EA00A3E0FAA3E0F9900011EF121B8F7F8312FC
:10B1FA00A6B2900005E0FBA3E0FAA3E0F9900012E2
:04B20A00EF021B8FA5
:10926F0090001E12A6A890001EE0FBA3E0FAA3E058
:10927F00F9EF121B7D90001FE475F001121BC37FE5
:10928F008912A6B290001EE0FBA3E0FAA3E0F9EF6B
:10929F00121B7D90001FE475F001121BC37F871214
:1092AF00A6B290001EE0FBA3E0FAA3E0F9EF121BB9
:1092BF007D90001FE475F001121BC37F8512A6B2CB
:1092CF0090001EE0FBA3E0FAA3E0F9EF121B7D90E4
:1092DF00001FE475F001121BC37F8312A6B290002A
:1092EF001EE0FBA3E0FAA3E0F9EF121B7D90001F35
:1092FF00E475F001121BC37F8112A6B290001EE02D
:10930F00FBA3E0FAA3E0F9EF121B7D90001FE475B9
:10931F00F001121BC390001EE0FBA3E0FAA3E0F9DB
:04932F00E4021B7DBC
:07C4CB00C294C296D2952233
:0B91A60090009CEBF0A3EAF0A3E9F0BE
:1091B1007B017A0079A7129EB69000A7E0FF7E009E
:1091C1007C017D6D121BB1AC06AD07A3E075F01EED
:1091D100A42DFFEC35F0FEA3E07C002FFFEC3EFE5A
:1091E100E4FD90009F121C6090009CE0FBA3E0FA5C
:1091F100A3E0F9900001121B50FF3395E0FE7C00C3
:109201007D1E121BB1C006C007121B37FF3395E04C
:10921100FE0C7D6D121BB1D0E02FFFD0E03EFE9021
:109221000002121B50FD3395E0FCEF2DFFEE3CFEDA
:109231003395E0FDFC9000A3121C6090009FE0FCC0
:10924100A3E0FDA3E0FEA3E0FFA3E0F8A3E0F9A300
:10925100E0FAA3E0FBC3121BFD40089000AD7401CE
:0D926100F08005E49000ADF09000ADE0FF5E
:01926E0022DD
:10C3FE00E4FDFCC3ED9FEC9E50070DBD00010C80CB
:01C40E00F23B
:01C40F00220A
:04C35F00AB07AA0678
:10C36300900000C3E5829BE5839A500A7F967E0086
:06C3730012C3FEA380EDE1
:01C3790022A1
:08BEAD0090001CEEF0A3EFF081
:10BEB500E4A3F0A3F090001CE0FEA3E0FFC3900014
:10BEC5001FE09F90001EE09E50177F0A7E0012C360
:10BED5005F90001FE004F070DC90001EE004F0802D
:01BEE500D488
:01BEE6002239
:01C516002202
:10BE37004572726F72206465207469636B65740064
:10BE47000A0D004E756D65726F2064652074696315
:10BE57006B65743A004E6F206465207469636B6587
:0BBE670074204845583A00256C750017
:03C2C30012C25E46
:10C2C600D20ED293D292E4FFFE209205C20EC29302
:0CC2D600220FBF00010EBE04F0BF4CEDB3
:01C2E2002239
:03C2E30012C25E26
:10C2E600D293D292D20EE4FFFE209205C20EC293E2
:0CC2F600220FBF00010EBE02F0BF8AED57
:01C302002218
:06C50300D29300C2932256
:10C25E00E4FEEEC39408748094805015EF25E0FF41
:10C26E0030D704D2928002C292D29312C5030E80AE
:01C27E00E1DE
:01C27F00229C
:08C41000ECFD7C00C293C29216
:0AC41800D292D29300C292C2932286
:0AC4A500C293C29200D293D29222F9
:10B76100E4FBEBFDC39408748094805038C293309D
:10B771009216900211E04401F0ED940674809480D9
:10B781005006E025E0F0D293209217900211E05488
:10B79100FEF0EBD39406748094805006E025E0F02F
:0CB7A100D2930B80BDC293900211E0FF18
:01B7AD002279
:10B66A0090005DE0FCA3E0FDA3E0FBA3E0FAA3E009
:07B67A00F9121B37FB7FA84A
:02B68100AA0716
:10B68300AF05A90712C410AF0212C2C3AF0512C29D
:10B69300C3AF0112C25E12C2C6AF0312C25E12C2B0
:10B6A300C612C4A57F0D7E0012C35FD293D2927FD0
:0DB6B300627E0012C3FE7F627E0002C3FEB5
:04BD45007C027FA855
:02BD4900AB0746
:10BD4B00AF05AA0712C410AF0312C2E3AF0512C2AC
:10BD5B00E3AF0212C25E12C2E612C418EB04FF126A
:10BD6B00C25E12C2C6C29312B76112C4A5D293D2DD
:06BD7B0092900211E0FFAE
:01BD8100229F
:0B8F4500900011EBF0A3EAF0A3E9F0AC
:108F5000E4900015F0900011E0FBA3E0FAA3E0F923
:108F600090000AE4121B8FE4900014F0900014E0CB
:108F7000FFD39409748094805057900011E0FBA3B4
:108F8000E0FAA3E0F98F82758300121B50FF7E0088
:108F9000C3943074809480400AD3EF9439748094E1
:108FA0008040269000157401F07BFF7ABE7937125D
:108FB000B89C900011E0FBA3E0FAA3E0F912B89C82
:108FC0007BFF7ABE794712B89C900014E004F080D1
:108FD0009B900015E0700E900011E0FBA3E0FAA357
:108FE000E0F902875AE4FBFD7C027FA812B681E417
:108FF000FB7D017C027FA812B681E4FB7402FDFCBC
:109000007FA812B681E4FB7D037C027FA812B681A3
:01901000223D
:0B875A00900016EBF0A3EAF0A3E9F09A
:108765007F007E007D007C007BFF7ABE794A12B8CF
:108775009C900016E0FBA3E0FAA3E0F912B89C7BFD
:10878500FF7ABE794712B89C900016E0FBA3E0FA89
:10879500A3E0F9127C7290001D121C607BFF7ABE6B
:1087A500795C12B89C90001DE0FCA3E0FDA3E0FEFF
:1087B500A3E0FF7818121C0E900019EFF012B922F1
:1087C50090001DE0FCA3E0FDA3E0FEA3E0FF781010
:1087D500121C0E90001AEFF012B92290001DE0FC59
:1087E500A3E0FDA3E0FEA3E0FF7808121C0E9000B5
:1087F5001BEFF012B92290001DA3A3A3E0FF900088
:108805001CF012B9227BFF7ABE794712B89C900002
:1088150019E0FB7D007C027FA812B68190001AE06A
:10882500FB7D017C027FA812B68190001BE0FB74E2
:1088350002FDFC7FA812B68190001CE0FB7D037C45
:06884500027FA802B681CB
:10B7AE001290DC90007A74FFF0A374BEF0A3746E56
:10B7BE00F0A3121C607B017A00795912413F7B0184
:10B7CE007A00795912000E74592FF582E43400F57F
:10B7DE0083E4F07B017A00795912B89C7BFF7ABE24
:0BB7EE00794712B89C7B017A00795962
:01B7F900222D
:1090DC00900067121C6C000000007D0012BD45A9B9
:1090EC00077D0112BD45900064EFF07402FDFC7F1A
:1090FC00A812BD49900065EFF07D0312BD459000AC
:10910C0066EFF0AF01A3E0F8A3E0F9A3E0FAA3E067
:10911C004FFFEAFEE9FDE8FC7808121C219000677D
:10912C00121C60900064E0FF900067E0F8A3E0F987
:10913C00A3E0FAA3E04FFFEAFEE9FDE8FC78081291
:10914C001C21900067121C60900065E0FF90006786
:10915C00E0F8A3E0F9A3E0FAA3E04FFFEAFEE9FD93
:10916C00E8FC7808121C21900067121C60900066C5
:10917C00E0FFA3E0F8A3E0F9A3E0FAA3E04FFFEAD5
:10918C00FEE9FDE8FC900067121C60900067E0FCB3
:09919C00A3E0FDA3E0FEA3E0FF47
:0191A50022A7
:10BFFB001290DCEF2401FFE43EFEE43DFDE43CFC4B
:10C00B0090007A74FFF0A374BEF0A3746EF0A312C9
:10C01B001C607B017A00790912413F7B017A007920
:04C02B000902875A25
:10B4300090009CEEF0A3EFF0A3EBF0A3EAF0A3E9F9
:01B44000F01B
:10B4410090009CE0FCA3E0FD7FA812BD4990009E06
:10B45100E0FBA3E0FAA3E0F9EF121B7D90009EE070
:10B46100FBA3E0FAA3E0F9121B37FF90009DE00473
:10B47100F0700690009CE004F090009FE475F001EC
:10B48100121BC3EF70BA90009EE0FBA3E0FAA3E0A9
:05B49100F9E4021B7D3F
:10B27F0090005DEEF0A3EFF0A3EBF0A3EAF0A3E9EB
:10B28F00F090005FE0FBA3E0FAA3E0F9121B376038
:10B29F0024B40D04E4121B7D12B66A90005EE00424
:10B2AF00F0700690005DE004F0900060E475F0012E
:10B2BF00121BC380CC12B66A90005EE004F07006D9
:10B2CF0090005DE004F0900060E475F001121BC384
:0FB2DF0090005DE0FCA3E0FDE4FB7FA802B681D8
:10BF590090001174FFF0E4A3F0A3F0900012E0FC4C
:10BF6900A3E0FDC39450EC9403501A900011E0FB38
:10BF79007FA812B681900013E004F070DE900012E1
:05BF8900E004F080D689
:01BF8E002290
:10884B0050756C7361646F722041637469766F0D40
:10885B000A0053656E736F726573204175746F20D8
:10886B00792073656E736F72312061637469766FF3
:10887B00732E0A0D0053656E736F722061637469FA
:10888B00766F2073656E736F72312E0A0D0044651F
:10889B007465637461646F2E2053656E736F722001
:1088AB004175746F2E0A0D0053656E736F7265738D
:1088BB00206E6F2064657465637461646F732E0A38
:1088CB000D005665686963756C6F20457370657232
:1088DB00616E646F2053616C69722E0A0D005665D0
:1088EB00686963756C6F2053616C69656E646F2E7C
:1088FB0020556E206D6F6D656E746F2E0A0D006DB9
:10890B00736A5F6C63645F696E666F726D617469C5
:10891B00766F2072656C6F6A006D736A5F6C63644F
:10892B005F696E666F726D617469766F2049440082
:0A8DC800C10F4102190041021A0018
:07C4D200C2B5C2B6C2B722D9
:07C4D900C2B5D2B6C2B722C2
:07C4E000D2B5D2B6C2B722AB
:07C4E700C2B5C2B6D2B722B4
:07C4EE00D2B5C2B6D2B7229D
:07C4F500C2B5D2B6D2B72296
:07C4FC00D2B5D2B6D2B7227F
:10C4220012C4E020910B7BFF7A88794B12B89CD220
:02C432000F22D7
:10C30300E4FF7DF47C01309115EFFB3395E04B7036
:0EC313000DED1D70011CED4C70EC7F0180E8FB
:01C3210022F9
:10C280007F017DF47C01209118EFFB3395E0FAEB00
:10C2900064014A700CED1D70011CED4C70E8FF80CC
:01C2A000E5B8
:01C2A100227A
:10BAC6009000337401F012C4F5309103E004F012D3
:10BAD600C4FC309107900033E02402F0900033E07C
:10BAE600640170177D12FC7FA812BD49EF600CF44B
:10BAF600900033700404F08002EFF0900033E024ED
:02BB060030FF0E
:01BB0800221A
:10C3C0007D127C007FA812BD49EF6005F470027FEA
:05C3D00001EF2430FF25
:01C3D5002245
:10B60F0012C4EE20912312C4D97BFF20910D7A88AA
:10B61F00795D12B89CE49001AD80227A887980120E
:10B62F00B89C9001AD7401801412C4D97BFF209196
:10B63F00187A88799912B89C9001AD7401F0900036
:10B64F001274FFF012C422800C7A8879B312B89C5E
:0AB65F00E4900012F0900012E0FFEA
:01B6690022BE
:10BF210012C4E730912012C303EF3395E0FEEF64B2
:10BF3100014E700A12B60F900011EFF080147BFFD2
:10BF41007A8879CD80067BFF7A8879E912B89C7F5F
:07BF51000022900011E0FF47
:01BF580022C6
:109C0800E4900001F0900219E004F0E0C39432748B
:109C18008094805003029CB6E4F012C4D2309103C1
:109C2800029CAB900001E0707A12C280EF3395E09D
:109C38004F70707BFF7A89790A12B89C900001E016
:109C4800FF12B92290021AE0FF12B92290021AE01C
:109C5800702A900001E0702430B30B04F012B7FAB8
:109C680090021A7401F012C303EF3395E0FEEF641B
:109C7800014E702F7F0AFE12BEAD802790021AE0B7
:109C88006401701F900001E070197BFF7A897924C4
:109C980012B89C30B30DE4900001F01270FEE4900D
:0E9CA800021AF012C4D2309105E4900001F0CF
:019CB600228B
:102FD000494E4752455345205441524A4554412099
:102FE000005441524A4554412053494E20494E47CE
:102FF0005245534F20005441524A455441204E4FB0
:10300000205245474953545241205041474F2000D8
:10301000455843454445205449454D504F2044456B
:103020002047524143494120004D454E5355414CA4
:10303000204E4F204553544120454E20504152517F
:103040005545414445524F2000444952494A415355
:103050004520412043414A412000475241434941D4
:10306000532E2E2E2000475241434941532E2E2EDF
:10307000004D454E5355414C494441442056454E20
:103080004349444120004D454E5355414C4944412C
:10309000442045584345444520484F524152494FEA
:1030A0002041434552515545534520412043414A13
:1030B0004120004E4F204553204D454E5355414C25
:1030C00049444144204E49205052455041474F0009
:1030D0004D454E5355414C204E4F205041474F20B7
:1030E0004C4F434143494F4E20484F590053494E9E
:1030F0002050524553454E43494120564548494387
:10310000554C415220005441524A455441204E4FA3
:103110002045532044454C2050415251554541448F
:1031200045524F20004249454E56454E49444F2E88
:103130002050554C534520454C20424F544F4E2073
:10314000005441524A4554412053494E20464F5263
:103150004D41544F20004655455241204445204C96
:10316000494E45412000554E204D4F4D454E544F40
:1031700020504F52204641564F5220004E4F20457E
:1031800053205441524A455441204D454E535541D8
:103190004C20005441524A45544120494E56414C1E
:1031A00049444120005441524A4554412053494E1C
:1031B0002053414C49444120005245474953545201
:1031C0004120494E475245534F20454E20504152D1
:1031D000515545414445524F20004D454E535541B0
:1031E0004C20465545524120444520484F524152BB
:1031F000494F2000484F524152494F204E4F2050D6
:10320000524F4752414D41444F200053494E2054A4
:1032100041524A4554415320004249454E56454E7D
:1032200049444F20004E4956454C2042414A4F20C8
:103230004445205441524A455441532000613B3893
:10324000353B494E4752455345205441524A455417
:10325000410A0000613B38363B5441524A455441D3
:103260002053494E20494E475245534F0A000061B2
:103270003B38373B5441524A455441204E4F20522F
:1032800045474953545241205041474F0A0000617D
:103290003B38383B455843454445205449454D50FB
:1032A0004F204445204752414349410A0000613BB9
:1032B00038393B4D454E5355414C204E4F204553D8
:1032C000544120454E2050415251554541444552AC
:1032D0004F0A0000613B39303B444952494A41534F
:1032E0004520412043414A410A0000613B39313BBE
:1032F000475241434941532E2E2E200A0000613B84
:1033000039333B4D454E5355414C204E4F2045538C
:10331000544120454E20504152515545414445525B
:103320004F0A0000613B39333B4D454E5355414CEC
:10333000204553544120454E20504152515545415E
:103340004445524F0A0000613B39343B4D454E53D2
:1033500055414C494441442056454E434944410A55
:103360000000613B39353B4D454E5355414C494476
:1033700041442045584345444520484F5241524915
:103380004F2041434552515545534520412043412B
:103390004A410A0000613B39363B4E4F20455320DD
:1033A0004D454E5355414C49444144204E492050CF
:1033B00052455041474F0A0000613B39373B4D456C
:1033C0004E5355414C204E4F205041474F204C4FBB
:1033D000434143494F4E20484F590A0000613B3951
:1033E000383B53494E2050524553454E43494120A6
:1033F0005645484943554C41520A0000613B393813
:103400003B5441524A455441204E4F20455320449D
:10341000454C20504152515545414445524F0A00B8
:1034200000613B30303B4249454E56454E49444F82
:103430002E2050554C534520454C20424F544F4E62
:103440000A0000613B39383B5441524A45544120FF
:1034500053494E20464F524D41544F0A0000613BA4
:1034600039383B4655455241204445204C494E454C
:10347000410A0000613B39383B554E204D4F4D45C8
:103480004E544F20504F52204641564F520A000092
:10349000613B30383B4E4F204553205441524A4502
:1034A0005441204D454E5355414C0A0000613B3973
:1034B000383B5441524A45544120494E56414C49AB
:1034C00044410A0000613B39383B5441524A45545B
:1034D000412053494E2053414C4944410A00006168
:1034E0003B39383B524547495354524120494E4796
:1034F0005245534F20454E2050415251554541446D
:1035000045524F0A0000613B30373BA1204D454EEC
:103510005355414C494441442056454E434944414A
:1035200020210A0000613B30363B4D454E5355414A
:103530004C20465545524120444520484F52415267
:10354000494F0A0000613B39383B53494E205441F2
:10355000524A455441530A0000613B39383B4E49B9
:1035600056454C2042414A4F204445205441524A3E
:10357000455441530A0000613B39383B484F5241A2
:1035800052494F204E4F2050524F4752414D4144D7
:103590004F0A0000613B39383B4143455251554584
:1035A000205355205441524A455441204445204E11
:1035B0005545564F0A0000613B30313B5245544956
:1035C0005245205355205441524A4554410A000067
:1035D000613B30333B4249454E56454E49444F0AC4
:1035E0000000613B39393B4C4F544520415349471A
:1035F0004E41444F2045535441204C4C454E4F0AB8
:10360000000057494547414E442000475241434935
:1036100041532000613B39323B57494547414E44B5
:1036200020000A0000613B39313B47524143494188
:10363000532000613B30333B4249454E56454E498D
:10364000444F200020504C414341000A00613B3070
:10365000373B20A1204D454E5355414C49444144F0
:103660002056454E4349444120212056454E43496A
:103670004F20323000633B39303B00643B00AA806E
:1036800018010200AA8018010200000000000000DA
:10369000000000000000000000000000000000002A
:1036A000000000000000000000000000000000001A
:0F36B0000000AA8028072000000000001400007E
:0528890090002AEFF0B1
:10288E00782B7C007D017BFF7A36797E7E007F0679
:10289E00121B11E4900032F0A3F0C2879001AAE05F
:1028AE006003022C557B017A00792BFD12BA8A90B7
:1028BE00002AE0121CBD2C30012919552939562940
:1028CE00595729795829995929B95A29D95B2999DA
:1028DE005D29F95E2A195F2A39602A59612A79AA77
:1028EE002A99AB2AB9AC2AD9AD2AF9AE2B19AF2B3E
:1028FE0039B02B59B12B79B22B99B32BB9B52BD942
:10290E00B62BF2FA2C11FE00002C527BFF7A2F7997
:10291E00D012000E900031EFF0E4FDFF12C1D11283
:10292E00C1C87BFF7A2F79D0022C4D7BFF7A2F798D
:10293E00E112000E900031EFF0E4FDFF12C1D11252
:10294E00C1C87BFF7A2F79E1022C4D7BFF7A2F795C
:10295E00F612000E900031EFF0E4FDFF12C1D1121D
:10296E00C1C87BFF7A2F79F6022C4D7BFF7A307926
:10297E001012000E900031EFF0E4FDFF12C1D112E3
:10298E00C1C87BFF7A307910022C4D7BFF7A3079EB
:10299E002912000E900031EFF0E4FDFF12C1D112AA
:1029AE00C1C87BFF7A307929022C4D7BFF7A3079B2
:1029BE004912000E900031EFF0E4FDFF12C1D1126A
:1029CE00C1C87BFF7A307949022C4D7BFF7A307972
:1029DE005A12000E900031EFF0E4FDFF12C1D11239
:1029EE00C1C87BFF7A307966022C4D7BFF7A307935
:1029FE007112000E900031EFF0E4FDFF12C1D11202
:102A0E00C1C87BFF7A307971022C4D7BFF7A307909
:102A1E008612000E900031EFF0E4FDFF12C1D112CC
:102A2E00C1C87BFF7A307986022C4D7BFF7A3079D4
:102A3E00B312000E900031EFF0E4FDFF12C1D1127F
:102A4E00C1C87BFF7A3079B3022C4D7BFF7A307987
:102A5E00D012000E900031EFF0E4FDFF12C1D11242
:102A6E00C1C87BFF7A3079D0022C4D7BFF7A30794A
:102A7E00ED12000E900031EFF0E4FDFF12C1D11205
:102A8E00C1C87BFF7A3079ED022C4D7BFF7A31790C
:102A9E000612000E900031EFF0E4FDFF12C1D112CC
:102AAE00C1C87BFF7A317906022C4D7BFF7A3179D2
:102ABE002512000E900031EFF0E4FDFF12C1D1128D
:102ACE00C1C87BFF7A317925022C4D7BFF7A317993
:102ADE004112000E900031EFF0E4FDFF12C1D11251
:102AEE00C1C87BFF7A317941022C4D7BFF7A317957
:102AFE005612000E900031EFF0E4FDFF12C1D1121C
:102B0E00C1C87BFF7A317956022C4D7BFF7A317921
:102B1E006612000E900031EFF0E4FDFF12C1D112EB
:102B2E00C1C87BFF7A317966022C4D7BFF7A3179F1
:102B3E007C12000E900031EFF0E4FDFF12C1D112B5
:102B4E00C1C87BFF7A31797C022C4D7BFF7A3179BB
:102B5E009312000E900031EFF0E4FDFF12C1D1127E
:102B6E00C1C87BFF7A317993022C4D7BFF7A317984
:102B7E00A512000E900031EFF0E4FDFF12C1D1124C
:102B8E00C1C87BFF7A3179A5022C4D7BFF7A317952
:102B9E00B912000E900031EFF0E4FDFF12C1D11218
:102BAE00C1C87BFF7A3179B9022C4D7BFF7A31791E
:102BBE00DA12000E900031EFF0E4FDFF12C1D112D7
:102BCE00C1C87BFF7A3179DA022C4D7BFF7A3179DD
:102BDE00F412000E900031EFF012C1CC7BFF7A316F
:102BEE0079F4805B7BFF7A32790B12000E90003104
:102BFE00EFF0E4FDFF12C1D112C1C87BFF7A32792A
:102C0E000B803C7BFF7A32791912000E900031EF67
:102C1E00F0E4FDFF12C1D112C1C87BFF7A327919DF
:102C2E00801D7BFF7A32792512000E900031EFF075
:102C3E00E4FDFF12C1D112C1C87BFF7A3279257D26
:102C4E000112BA8AD28722C28790002AE0121CBDD6
:102C5E002F1B012CC5552CDC562CF3572D0A582D45
:102C6E0021592D385A2D4F5B2D665D2D945E2DAB5F
:102C7E005F2DC2602DD9612D7D632FA09A2F8A9C66
:102C8E002F489E2F5EA12DF0AA2E07AB2E1EAC2E26
:102C9E0035AD2E4CAE2E63AF2E7AB02E91B12EA83E
:102CAE00B22EBFB32ED6B42EEDB52F32B62F04FAF8
:102CBE002F74FE00002FC6900032E0FEA3E0AA069D
:102CCE00F8AC027D017BFF7A32793D022FB4900081
:102CDE0032E0FEA3E0AA06F8AC027D017BFF7A3259
:102CEE007954022FB4900032E0FEA3E0AA06F8ACAD
:102CFE00027D017BFF7A32796F022FB4900032E0B1
:102D0E00FEA3E0AA06F8AC027D017BFF7A32798F32
:102D1E00022FB4900032E0FEA3E0AA06F8AC027DCA
:102D2E00017BFF7A3279AE022FB4900032E0FEA31F
:102D3E00E0AA06F8AC027D017BFF7A3279D4022F2D
:102D4E00B4900032E0FEA3E0AA06F8AC027D017B4F
:102D5E00FF7A3279EB022FB4900032E0FEA3E0AAA4
:102D6E0006F8AC027D017BFF7A3279FE022FB49019
:102D7E000032E0FEA3E0AA06F8AC027D017BFF7AEA
:102D8E00337924022FB4900032E0FEA3E0AA06F8B5
:102D9E00AC027D017BFF7A337947022FB49000326B
:102DAE00E0FEA3E0AA06F8AC027D017BFF7A337940
:102DBE0062022FB4900032E0FEA3E0AA06F8AC0245
:102DCE007D017BFF7A337995022FB4900032E0FEBD
:102DDE00A3E0AA06F8AC027D017BFF7A3379B90233
:102DEE002FB4900032E0FEA3E0AA06F8AC027D01FB
:102DFE007BFF7A3379DD022FB4900032E0FEA3E040
:102E0E00AA06F8AC027D017BFF7A3379FC022FB45F
:102E1E00900032E0FEA3E0AA06F8AC027D017BFF33
:102E2E007A347921022FB4900032E0FEA3E0AA0694
:102E3E00F8AC027D017BFF7A347943022FB4900007
:102E4E0032E0FEA3E0AA06F8AC027D017BFF7A34E5
:102E5E00795E022FB4900032E0FEA3E0AA06F8AC31
:102E6E00027D017BFF7A347974022FB4900032E038
:102E7E00FEA3E0AA06F8AC027D017BFF7A347990BE
:102E8E00022FB4900032E0FEA3E0AA06F8AC027D59
:102E9E00017BFF7A3479AD022FB4900032E0FEA3AD
:102EAE00E0AA06F8AC027D017BFF7A3479C5022FC9
:102EBE00B4900032E0FEA3E0AA06F8AC027D017BDE
:102ECE00FF7A3479DF022FB4900032E0FEA3E0AA3D
:102EDE0006F8AC027D017BFF7A357906022FB4909D
:102EEE000032E0FEA3E0AA06F8AC027D017BFF7A79
:102EFE00357925022FB4900032E0FEA3E0AA06F841
:102F0E00AC027D017BFF7A357945022FB4900032F9
:102F1E00E0FEA3E0AA06F8AC027D017BFF7A3579CC
:102F2E0059022FB4900032E0FEA3E0AA06F8AC02DC
:102F3E007D017BFF7A357977806C900032E0FEA3BD
:102F4E00E0AA06F8AC027D017BFF7A3579948056B3
:102F5E00900032E0FEA3E0AA06F8AC027D017BFFF2
:102F6E007A3579B78040900032E0FEA3E0AA06F8E9
:102F7E00AC027D017BFF7A3579D0802A900032E059
:102F8E00FEA3E0AA06F8AC027D017BFF7A3579E25A
:102F9E008014900032E0FEA3E0AA06F8AC027D0198
:102FAE007BFF7A357925121F4A900032E0FEA3E0AE
:102FBE00AA06F97B0112AD30E4900032F0A3F0D2F4
:012FCE00877B
:012FCF0022DF
:0E4EAC00900011EFF0A3EBF0A3EAF0A3E9F001
:104EBA0078157C007D017BFF7A3679847E007F0637
:104ECA00121B11781C7C007D017BFF7A36798A7E61
:104EDA00007F28121B11C2879001AAE06003024FCB
:104EEA0083900011E024A56040146003024F8012F1
:104EFA00BA827BFF7A36790212000E90001BEFF01D
:104F0A00900012E0FBA3E0FAA3E0F912000E900071
:104F1A001BE02F04F0E4FDFF12C1D190001B12C167
:104F2A00CB7BFF7A367902803812BA827BFF7A36D7
:104F3A00790B12000E90001BEFF0900012E0FBA319
:104F4A00E0FAA3E0F912000E90001BE02F04F0E44F
:104F5A00FDFF12C1D190001B12C1CB7BFF7A3679BB
:104F6A000B7D0112BA8A900012E0FBA3E0FAA3E0DB
:104F7A00F97D0112BA8AD28722C287900011E024F1
:104F8A00A5602F24C0700302504824FE700302510A
:104F9A000224E9700302508F24B6602524A260031C
:104FAA00025149781C7C007D017BFF7A3679140214
:104FBA005054781C7C007D017BFF7A36792502509B
:104FCA009B781C7C007D017BFF7A36793312AD27F2
:104FDA0020100B12B7AE781C7C007D018011781C62
:104FEA007C007D01900012E0FBA3E0FAA3E0F91235
:104FFA00AD27781C7C007D017BFF300B377A367930
:10500A0044121F4A900049E4F0A37400F0A37411FB
:10501A00F07B017A00791C12B3C590004974FFF045
:10502A00A37436F0A37422F07B017A00791C12B3C0
:10503A00C50251467A36794B121F4A025146781CEC
:10504A007C007D017BFF7A367933121F4A90001269
:10505A00E0F9A3E0FAA3E0900049C9F0A3EAF0A3BB
:10506A00E9F07B017A00791C12B3C590004974FFFC
:10507A00F0A37436F0A37422F07B017A00791C1233
:10508A00B3C5025146781C7C007D017BFF7A3679D4
:10509A004D121F4A900012E0FBA3E0FAA3E0F912B6
:1050AA00000E90001BEFF024FFFFE434FFFE900097
:1050BA0012E0FBA3E0FAA3E0F98F828E83E4121BCD
:1050CA008F900012E0F9A3E0FAA3E0900049C9F03A
:1050DA00A3EAF0A3E9F07B017A00791C12B3C59028
:1050EA00004974FFF0A37436F0A37422F07B017AAE
:1050FA0000791C12B3C58044781C7C007D017BFFBB
:10510A007A367975121F4A900012E0F9A3E0FAA3E1
:10511A00E0900049C9F0A3EAF0A3E9F07B017A0024
:10512A00791C12B3C590004974FFF0A37436F0A33A
:10513A007422F07B017A00791C12B3C512AD2AE4FD
:06514A0090001CF0D2876A
:01515000223C
:09C1C800900031E025E0FFE4FDE8
:05C1D100900049EDF0B3
:10C1D60012BC8C90004AEFF0900049E0600AE4FF40
:08C1E60012BC8C90004AEFF03E
:01C1EE00222E
:08BA82007B017A007915E4FD57
:0EBA8A00900044EBF0A3EAF0A3E9F0A3EDF086
:10BA9800E4A3F0900044E0FBA3E0FAA3E0F99000EF
:10BAA80048E0F582758300121B50FF601090004734
:0DBAB800E0FD12C1D1900048E004F080D6FE
:01BAC500225E
:0EB9F60090001EEBF0A3EAF0A3E9F0A3EDF041
:10BA0400E4900023F0900021E0FF900023E0FEC3C7
:10BA14009F502490001EE0FBA3E0FAA3E0F98E827D
:10BA2400758300121B50FF900022E0FD12C1D190DB
:07BA34000023E004F080CEC6
:01BA3B0022E8
:09AD2700121F4A7B017A00791C1D
:0BAD3000900044EBF0A3EAF0A3E9F070
:10AD3B0012000E900048EFF0E4900047F0900048AE
:10AD4B00E0FF900047E0C39F503DE4900049F09036
:10AD5B000049E0C39464748094805005E004F08053
:10AD6B00EE900044E0FBA3E0FAA3E0F9A3E0F58248
:10AD7B00758300121B50FF12BC8C900049EFF090B2
:10AD8B000047E004F080B6E4900049F0900049E001
:0EAD9B00C39464748094805005E004F080EE50
:01ADA9002287
:10B02A0078117C007D017BFF7A3679B27E007F0D34
:10B03A00121B119001AAE07022C2877B017A007963
:10B04A001612926FC29C7B017A007911E490002259
:10B05A00F07D0D12B9F6D29CD28722C287E4900005
:10B06A0011F078117C007D017BFF7A36797B121F03
:10B07A004A7B017A00791312624090004974FFF00A
:10B08A00A37436F0A37422F07B017A00791112B30B
:0CB09A00C57B017A00791112AD30D2871D
:01B0A6002287
:10002600402321246046625E262A003A5B3C253F37
:1000360058545D3D29000D0A0A25733E20002563AC
:10004600002564000D0A0A2041435455414C2049BD
:10005600445F434C49454E54453D25730D0A0A00FD
:100066000D0A0A20444947495445205355204E5508
:1000760045564F2049445F434C49454E54453D0043
:100086000D0A0A204441544F204D4F4449464943E6
:1000960041444F2049445F434C49454E54453D2514
:1000A600730D0A0A000D0A0A2041435455414C209B
:1000B600434F445F5041524B3D25730D0A0A000DD4
:1000C6000A0A20444947495445205355204E554570
:1000D600564F20434F445F5041524B3D000D0A0A94
:1000E600204441544F204D4F444946494341444FD3
:1000F60020434F445F5041524B3D25730D0A0A0081
:100106000D0A0A2041435455414C205449454D504F
:100116004F5F4752414349413D25730D0A0A000D81
:100126000A0A20444947495445205355204E55450F
:10013600564F205449454D504F5F47524143494120
:100146003D000D0A0A204441544F204D4F44494674
:10015600494341444F205449454D504F5F47524112
:100166004349413D25730D0A0A000D0A0A20414301
:100176005455414C2053494E5F434F42524F2049FC
:100186004E484142494C495441444F3D25730D0A5E
:100196000A000D0A0A2041435455414C2053494E4A
:1001A6005F434F42524F204752415449533D2573B6
:1001B6000D0A0A000D0A0A2041435455414C2053AA
:1001C600494E5F434F42524F2047524154495320B4
:1001D600592053414C49444120454C204D49534DEB
:1001E6004F204449413D25730D0A0A000D0A0A2095
:1001F600444947495445205355204E5545564F20AE
:1002060053494E5F434F42524F3D000D0A0A20416B
:10021600435455414C20444542554720494E484198
:1002260042494C495441444F3D25730D0A0A000D7D
:100236000A0A2041435455414C2044454255472023
:10024600484142494C495441444F3D25730D0A0AE1
:10025600000D0A0A2044494749544520454C204E82
:100266005545564F2045535441444F20444520445C
:10027600454255473D000D0A0A2041435455414C1D
:10028600205553455F4C505220494E484142494CF7
:10029600495441444F3D25730D0A0A000D0A0A20B0
:1002A60041435455414C205553455F4C50522048CC
:1002B6004142494C495441444F3D25730D0A0A00B9
:1002C6000D0A0A2044494749544520454C204E55BD
:1002D60045564F2045535441444F204445205553DD
:1002E600455F4C50523D000D0A0A2050414E544184
:1002F6004C4C41204C434420484142494C495441CE
:1003060044413D25730D0A0A000D0A0A2050414E4C
:1003160054414C4C4120524153504245525259206F
:1003260020484142494C49544144413D25730D0AF8
:100336000A000D0A0A2044494749544520454C20E5
:100346004E5545564F2045535441444F2044452071
:100356004C412050414E54414C4C41203D000D0A29
:100366000A2041435455414C20434F4D5041524180
:1003760043494F4E2041435449564120204841426B
:10038600494C49544144413D25730D0A0A000D0A62
:100396000A20455850494445205441524A45544143
:1003A6002050554C53414E444F20424F544F4E0D12
:1003B6000A0A000D0A0A204558504944452054416E
:1003C600524A455441204155544F4D4154494341A9
:1003D6000D0A0A000D0A0A2044494749544520459A
:1003E6004C204E5545564F2045535441444F2044CA
:1003F600454C20455850454449444F523D000D0A4E
:100406000A2041435455414C20414E5449504153D2
:10041600534241434B20494E484142494C4954417D
:10042600444F3D25730D0A0A000D0A0A2041435424
:1004360055414C20414E5449504153534241434B40
:1004460020484142494C495441444F3D25730D0AC9
:100456000A000D0A0A2044494749544520454C20C4
:100466004E5545564F2045535441444F2044452050
:10047600414E5449504153534241434B3D000D0AAE
:100486000A2041435455414C20504C414341204998
:100496004E484142494C495441444F3D25730D0A4B
:1004A6000A000D0A0A2041435455414C20504C4144
:1004B600434120484142494C495441444F3D2573EC
:1004C6000D0A0A000D0A0A204449474954452045A9
:1004D6004C204E5545564F2045535441444F2044D9
:1004E6004520504C4143413D000D0A0A20414354EA
:1004F60055414C20414444524553535F484947486F
:100506005F424F4152443D25730D0A0A000D0A0A07
:1005160020444947495445204C41204E55455641B3
:1005260020414444524553535F484947485F424F30
:100536004152443D000D0A0A2041435455414C2086
:10054600484F524152494F20494E484142494C4931
:100556005441444F3D25730D0A0A000D0A0A2041F5
:10056600435455414C20484F524152494F2048412F
:1005760042494C495441444F3D25730D0A0A000D2A
:100586000A0A2044494749544520454C204E5545C2
:10059600564F2045535441444F20444520484F521E
:1005A6004152494F3D000D0A0A2044696769746546
:1005B60020486F72612030383A3030204D696E75B0
:1005C600746F732044657364653A20000D0A0A202F
:1005D600486F72612050726F6772616D616461204D
:1005E60044657364653A200025633A000D0A0A20C3
:1005F60044696769746520486F72613A4D696E7522
:10060600746F732048617374613A20000D0A0A20E2
:10061600486F72612050726F6772616D616461200C
:1006260048617374613A20000D0A2044657364655D
:10063600202048617374610D0A002025630025633C
:10064600202020000D0A0A20446967697465206C21
:100656006F73206469617320612070726F677261C5
:100666006D6172204C756E6573203D20322C200022
:100676004D6172746573203D20332C204D6965727F
:10068600636F6C6573203D20342C204A7565766552
:1006960073203D20352C2000566965726E657320E7
:1006A6003D20362C2053616261646F203D20372C3B
:1006B60020446F6D696E676F203D2031203A20001F
:1006C6000D0A0A20446961732050726F6772616D6A
:1006D60061646F73203A2000204C756E6573003D8F
:1006E6002025632C00204D617274657300204D69CE
:1006F6006572636F6C657300204A75657665730075
:1007060020566965726E6573002053616261646F7D
:100716000020446F6D696E676F003D2025630020E1
:100726004C756E6573203D2050726F6772616D6106
:10073600646F0D0A00204C756E6573203D204E6F68
:100746002070726F6772616D61646F0D0A00204DD3
:100756006172746573203D2050726F6772616D61BE
:10076600646F0D0A00204D6172746573203D204E42
:100776006F2070726F6772616D61646F0D0A002081
:100786004D696572636F6C6573203D2050726F67AB
:1007960072616D61646F0D0A00204D696572636F49
:1007A6006C6573203D204E6F2070726F6772616DAD
:1007B60061646F0D0A00204A7565766573203D20D9
:1007C60050726F6772616D61646F0D0A00204A7521
:1007D60065766573203D204E6F2070726F6772617B
:1007E6006D61646F0D0A0020566965726E6573202F
:1007F6003D2050726F6772616D61646F0D0A002053
:10080600566965726E6573203D204E6F2070726F5B
:100816006772616D61646F0D0A00205361626164E5
:100826006F203D2050726F6772616D61646F0D0AB3
:10083600002053616261646F203D204E6F2070720C
:100846006F6772616D61646F0D0A0020446F6D6998
:100856006E676F203D2050726F6772616D61646FC5
:100866000D0A0020446F6D696E676F203D204E6F44
:100876002070726F6772616D61646F0D0A000D0AF8
:100886000A2044696769746520656C206E756D651C
:10089600726F2064656C20486F726172696F2061A7
:1008A6002070726F6772616D6172203D20000D0AC3
:1008B6000A2050726F6772616D6172207365677589
:1008C6006E646F20486F726172696F2073693D288C
:1008D6003129206E6F3D2830293D20000D0A0A205F
:1008E60041435455414C205449504F5F5645484961
:1008F60043554C4F204D454E5355414C20494E488B
:100906004142494C495441444F3D25730D0A0A0062
:100916000D0A0A2041435455414C205449504F5F1B
:100926005645484943554C4F204D454E5355414C2D
:1009360020484142494C495441444F3D25730D0AD4
:100946000A000D0A0A2044494749544520454C20CF
:100956004E5545564F2045535441444F204445205B
:100966005449504F5F5645484943554C4F204D45D5
:100976004E5355414C3D000D0A0A20414354554102
:100986004C205449504F5F5645484943554C4F20DB
:10099600204D454E5355414C20484142494C4954FF
:1009A60041444F3D25730D0A0A000D0A0A204143B2
:1009B6005455414C20414E544950415353424143B2
:1009C6004B204D454E5355414C20494E48414249D6
:1009D6004C495441444F3D25730D0A0A000D0A0A3D
:1009E6002041435455414C20414E544950415353A4
:1009F6004241434B204D454E5355414C20484142C0
:100A0600494C495441444F3D25730D0A0A000D0ACD
:100A16000A2044494749544520454C204E554556E1
:100A26004F2045535441444F20444520414E54499C
:100A3600504153534241434B204D454E5355414C33
:100A46003D000D0A0A2041435455414C20414E5465
:100A560049504153534241434B20204D454E535537
:100A6600414C20484142494C495441444F3D25732D
:100A76000D0A0A000D0A0A2041435455414C2046EE
:100A8600454348412056454E43494D49454E544FEE
:100A96002050415353574F52443A25730D0A0A00CA
:100AA6000D0A0A2F3E496420526567697374726F96
:100AB6003A002573000D0A0A2F3E50617373776F53
:100AC60072643A000D0A0A20444947495445204CAD
:100AD60041204E5545564120464543484120444510
:100AE6002056454E43494D49454E544F3D000D0A4B
:100AF6000A2025730D0A0A000D0A0A202558000D42
:100B06000A0A2041435455414C204645434841205A
:100B160044452056454E43494D49454E544F205075
:100B2600524F4752414D414441203D25730D0A0A1B
:100B3600000D0A206E756D65726F2064656C204825
:100B46006F726172696F202070726F6772616D617A
:100B5600646F203D2025630D0A000D0A2020484FB2
:100B6600524152494F20484142494C495441444F11
:100B760020203D204F4E0D0A000D0A204469617366
:100B86002050726F6772616D61646F730D0A000D9C
:100B96000A2020534547554E444F20484F52415254
:100BA600494F20484142494C495441444F20203D39
:100BB600204F4E0D0A000D0A20534547554E444F0F
:100BC60020484F524152494F20484142494C4954CE
:100BD60041444F20203D204F46460D0A000D0A2075
:100BE60020484F524152494F20484142494C4954AE
:100BF60041444F20203D204F46460D0A000D0A0A6B
:100C06002041435455414C204D454E5355414C20AF
:100C1600504F5220424F434120494E484142494C91
:100C2600495441444F3D25730D0A0A000D0A0A2016
:100C360041435455414C204D454E5355414C20504F
:100C46004F5220424F434120484142494C4954416A
:100C5600444F3D25730D0A0A000D0A0A20444947F0
:100C660049544520454C204E5545564F2045535432
:100C760041444F2044454C204D454E5355414C3D33
:100C8600000D0A2049445F434C49454E54455F5088
:100C9600524F4752414D41444F203D2025730D0A86
:100CA600000D0A20434F445F5041524B5F50524F54
:100CB6004752414D41444F203D2025730D0A000DFA
:100CC6000A2050524F4752414D41444F204445421D
:100CD6005547203D204F4E0D0A000D0A2050524F19
:100CE6004752414D41444F204445425547203D20FF
:100CF6004F46460D0A000D0A205553455F4C50528B
:100D0600203D204F46460D0A000D0A205553455FEB
:100D16004C5052203D204F4E0D0A000D0A205041E6
:100D26004E54414C4C41204C43442050524F475264
:100D3600414D4144410D0A000D0A2050414E544197
:100D46004C4C41205241535042455252592020505A
:100D5600524F4752414D4144410D0A000D0A20456C
:100D66005850494445205441524A45544120505513
:100D76004C53414E444F20424F544F4E0D0A000DE6
:100D86000A20455850494445205441524A45544149
:100D9600204155544F4D41544943410D0A000D0A17
:100DA6002020414E5449504153534241434B203D2C
:100DB600204F46460D0A000D0A20414E5449504127
:100DC60053534241434B203D204F4E0D0A000D0A1E
:100DD60020504C414341203D204F46460D0A000D10
:100DE6000A20504C414341203D204F4E0D0A000D34
:100DF6000A2041435455414C2041444452455353E3
:100E06005F484947485F424F415244203D20257381
:100E16000D0A000D0A205449504F5F564548494374
:100E2600554C4F204D454E5355414C203D204F4685
:100E3600460D0A000D0A205449504F5F5645484951
:100E460043554C4F204D454E5355414C203D204F68
:100E56004E0D0A000D0A20414E544950415353424B
:100E660041434B204D454E5355414C203D204F4666
:100E7600460D0A000D0A2020414E54495041535355
:100E86004241434B204D454E5355414C203D204F4A
:100E96004E0D0A000D0A4D454E5355414C20504FFC
:100EA6005220424F4341203D204F46460D0A000D39
:100EB6000A20204D454E5355414C20504F5220425A
:100EC6004F4341203D204F4E0D0A000D0A2041435D
:100ED6005455414C204645434841204445205645FB
:100EE6004E43494D49454E544F2050524F4752416B
:100EF6004D414441203D25730D0A000D0A204E75D3
:100F06006D65726F206465207469636B6574203D3E
:100F160025730D0A000D0A2049445F434C49454E8E
:100F260054452020202020202020202D2D2D204318
:100F36004D442030204964656E7469666963616456
:100F46006F722064656C20636C69656E7465206DD4
:100F56006178696D6F20323535000D0A20434F44A4
:100F66005F5041524B20202020202020202020208E
:100F76002D2D2D20434D44203120456C206E756D5E
:100F860065726F2064656C2070617271756561644D
:100F960065726F206D6178696D6F20323535000D91
:100FA6000A20545F475241434941202020202020F7
:100FB60020202020202D2D2D20434D44203220544A
:100FC60069656D706F2073696E20636F62726F2042
:100FD60030302C20206D6178696D6F2032353500F8
:100FE6000D0A2053494E5F434F42524F2020202086
:100FF6002020202020202D2D2D20434D442033203D
:10100600496E686162696C697461646F3D20302C59
:10101600204772617469733D2031202C204772612C
:1010260074697320792073616C69646120656C2032
:101036006D69736D6F206469613D2032000D0A2071
:1010460044454255472020202020202020202020D3
:101056002020202D2D2D20434D4420342048616230
:10106600696C69746172203D20312C20496E68617B
:1010760062696C69746172203D2030000D0A20554A
:1010860053455F4C50522020202020202020202035
:1010960020202D2D2D20434D4420352048616269A6
:1010A6006C69746172203D20312C20496E68616242
:1010B600696C69746172203D2030000D0A20544924
:1010C600504F5F50414E54414C4C4120202020202F
:1010D600202D2D2D20434D4420362050414E544185
:1010E6004C4C41204C4344203D302050414E54410D
:1010F6004C4C41205241535042455252493D3100D9
:101106000D0A20434152445F4155544F4D415449C5
:101116004341202020202D2D2D20434D44203720D3
:10112600424F54544F4E3D30204155544F4D41543B
:101136004943413D31000D0A20414E544950415327
:10114600534241434B202020202020202D2D2D20AE
:10115600434D44203820486162696C69746172208D
:101166003D20312C20496E686162696C6974617238
:10117600203D2030000D0A20504C414341202020C4
:1011860020202020202020202020202D2D2D20430F
:101196004D44203920486162696C69746172203D52
:1011A60020312C20496E686162696C697461722015
:1011B6003D2030000D0A20414444524553535F48B8
:1011C6004947485F424F415244202D2D2D20434D23
:1011D60044203130204C6120646972656363696F15
:1011E6006E20616C74612064656C20626F6172644C
:1011F6002064656C206E756D65726F203520616C9C
:1012060020392073696E6F207365207573612064C1
:1012160065626520697220656E2030000D0A2048DF
:101226004F524152494F20202020202020202020AC
:1012360020202D2D2D20434D442031312050726F1A
:1012460067616D6120313020686F726172696F73FA
:101256002064656C203120616C203130000D0A203D
:1012660056414C4944415F564548495F4D454E53AA
:1012760055414C2D2D2D20434D44203132204861BF
:1012860062696C69746172203D20312C20496E6858
:101296006162696C69746172203D2030000D0A201C
:1012A6005553455F4150425F4D454E5355414C2085
:1012B6002020202D2D2D20434D4420313320486100
:1012C60062696C69746172203D20312C20496E6818
:1012D6006162696C69746172203D2030000D0A20DC
:1012E6004D454E5355414C455309090920202020B0
:1012F600202D2D2D20434D44203134204861626934
:101306006C69746172203D20312C20496E686162DF
:10131600696C69746172203D2030000D0A205645C3
:10132600525F50524F4752414D4143494F4E202044
:10133600202D2D2D20434D44203135204D756573CC
:10134600747261206C612070726F6772616D616387
:10135600696F6E000D0A2041595544412020202016
:10136600202020202020202020202D2D2D20434D00
:1013760044203136204D756573747261206C6F732D
:1013860020636F6D616E646F73000D0A2053414CCC
:1013960049522020202020202020202020202020EC
:1013A6002D2D2D20434D442031372053616C697219
:1013B6002064652070726F6772616D6163696F6E1C
:1013C600000D0A0A53697374656D612064652050C7
:1013D600726F6772616D6163696F6E2045787065C3
:1013E6006469646F72200D0A0D0A000D0A436F6D61
:1013F600616E646F206E6F2065786973746520274F
:10140600257327003A5B3C253F58545D3D29002350
:101416002A594A41494D4563616D696C744B0077A1
:10142600727A32357136382D393166532E400020A6
:0B1436000D0A00200D0A00220D0A0024
:108DD2005401C32F0000000000000000000000004A
:108DE200000000000000004B01B861646D696E0074
:108DF2000000000000603901D7300000310000326D
:108E02000000330000340000350000360000370057
:108E120000380000390000313000313100313200B9
:108E22003133003134003135003136003137003111
:028E3200380006
:0B587F0090005DEBF0A3EAF0A3E9F05D
:10588A0078627C007D017BFF7A14790A7E007F0BA7
:10589A00121B11786D7C007D017BFF7A1479157ECD
:1058AA00007F10121B11787D7C007D017BFF7A142A
:1058BA0079257E007F10121B117B017A0079987F6F
:1058CA00507E0312B4307B017A0079981291A6EFC8
:1058DA003395E0FEEF64014E78627C007D017BFF28
:1058EA0060067A00792680047A007931121F4A907C
:1058FA00005DE0FBA3E0FAA3E0F912000E9000605D
:10590A00EFF0E4A3F0900061E0FFC3940A7480947E
:10591A00804003025A7190005DE0FBA3E0FAA3E025
:10592A00F98F82758300121B50FD7C0074622FF57B
:10593A0082E43400F583E02DFFEC339001B4F0A348
:10594A00EFF07E00540FFFA3EEF0A3EFF0700BE030
:10595A0004F070069001B6E004F09001B6E0FEA3F0
:10596A00E0246CF58274003EF583E07E002DFFEEA4
:10597A003C9001B4F0A3EFF07E00540FFFA3EEF0C9
:10598A00A3EFF0700BE004F070069001B6E004F0AB
:10599A009001B6E0FEA3E0247CF58274003EF58314
:1059AA00E0FF9001B4E0FEA3E06FFF9001B4EEF0D7
:1059BA00FEA3EFF0D394FFEE940040059001B4E407
:1059CA00F09001B4E0FEA3E0FFC3947AEE940040A5
:1059DA0015D3EF94FFEE9400500CEF547AFF900128
:1059EA00B4E4F0A3EFF0C39001B5E094309001B4B1
:1059FA00E09400500CA3E02440F09001B4E034009D
:105A0A00F09001B4E0FEA3E0FFC3945BEE94004083
:105A1A0014D3EF9460EE9400500BE02407F0900149
:105A2A00B4E03400F09001B4E0FEA3E0FFC3943A7E
:105A3A00EE94004014D3EF9440EE9400500BE0240F
:105A4A00F9F09001B4E034FFF09001B4A3E0FF90C4
:105A5A000061E0248DF582E43400F583EFF09000D4
:105A6A0061E004F002590F900061E0248DF582E4B0
:0C5A7A003400F583E4F07B017A00798DA4
:015A860022FD
:0BB49600900046EBF0A3EAF0A3E9F001
:10B4A100E490004CF090004CE0FFC394137480943E
:10B4B100805041EF75F003A424D7F9740135F0FAF7
:10B4C1007B0178497C007D01121F4A78497C007D0F
:10B4D10001900046E0FBA3E0FAA3E0F9121E61EF40
:10B4E1003395E04F700690004CE0FF2290004CE055
:06B4F10004F080B17FFFB2
:01B4F7002232
:08BB0900E0FBA3E0FAA3E0F960
:0BBB110090005DEBF0A3EAF0A3E9F068
:10BB1C0078607C007D017B017A0179B8121F4A782C
:10BB2C00607C007D0190005DE0FBA3E0FAA3E0F9EE
:0EBB3C00121E61EF3395E04F7002FF227FFF73
:01BB4A0022D8
:06BBCD007B017A007932D1
:0BBBD30090005DEBF0A3EAF0A3E9F0A6
:10BBDE0078607C007D017BFF7A1479357E007F04CE
:10BBEE00121B119000677401F0A37400F0A374602F
:0FBBFE00F090005DE0FBA3E0FAA3E0F9028A25D6
:10A73800E0FBA3E0FAA3E02FF9EA3EFAE92401F9E5
:03A74800E43AFAF6
:0BA74B00900046EBF0A3EAF0A3E9F059
:10A7560078497C007D017BFF7A1479397E007F047D
:10A76600121B11784D7C007D017BFF7A14793D7EAA
:10A77600007F04121B11900046E0FBA3E0FAA3E061
:10A78600F9121B37FFB4200C900047E475F0011254
:10A796001BC380E2EF900067B4220D7401F0A3742E
:10A7A60000F0A3744DF080167401F0A37400F0A3BA
:10A7B6007449F0900046E0FBA3E0FAA3E0F9128AA0
:01A7C600256D
:01A7C700226F
:10C3920090007A7401F0A37401F0A374C3F07BFFE0
:07C3A2007A00793C024145DD
:08AE2B007A0079637B01E4FD6C
:0EAE3300900071EBF0A3EAF0A3E9F0A3EDF0BC
:10AE410012C499900071E0FBA3E0FAA3E0F9EF12BC
:10AE51001B7D900074E0701D900071E0FBA3E0FA8F
:10AE6100A3E0F9121B3790007AF07BFF7A00794456
:10AE710012414580057F2A12BC8C900071E0FBA332
:10AE8100E0FAA3E0F9121B37FF7E00900072E4752F
:10AE9100F001121BC3900071E0FBA3E0FAA3E0F9FB
:09AEA100E4121B7DEF640D7097B3
:01AEAA002285
:1099E900E4FDFC7FA812BD497E00900050EEF0A373
:1099F900EFF090007A74FFF0A37400F0A37447F0BD
:109A0900A3EEF0A3EFF07B017A00794612413F9073
:109A1900007A7401F0A37400F0A37446F07BFF7A16
:109A290000794A1241457BFF7A0079661241457AED
:109A390000794612AE2F7B017A007946128BE790A6
:109A49000050EEF0A3EFF0FBE4FDFC7FA812B68115
:109A5900E4FDFC7FA812BD497E00900050EEF0A302
:109A6900EFF090007A74FFF0A37400F0A37447F04C
:109A7900A3EEF0A3EFF07B017A00794612413F9003
:109A8900007A7401F0A37400F0A37446F07BFF7AA6
:069A990000798602414540
:1096FB007D027C007FA812BD497E00900050EEF0E9
:10970B00A3EFF090007A74FFF0A37400F0A37447FA
:10971B00F0A3EEF0A3EFF07B017A00794612413F04
:10972B0090007A7401F0A37400F0A37446F07BFFF1
:10973B007A0079AB1241457BFF7A0079C51241451E
:10974B007B017A007946E4FD12AE337B017A007916
:10975B0046128BE7900050EEF0A3EFF0FB7D027CFE
:10976B00007FA812B6817D027C007FA812BD497EC6
:10977B0000900050EEF0A3EFF090007A74FFF0A38E
:10978B007400F0A37447F0A3EEF0A3EFF07B017A23
:10979B0000794612413F90007A7401F0A37400F0F7
:0D97AB00A37446F07BFF7A0079E30241458C
:1097B8007D047C007FA812BD497E00900050EEF029
:1097C800A3EFF090007A74FFF0A37400F0A374473D
:1097D800F0A3EEF0A3EFF07B017A00794612413F47
:1097E80090007A7401F0A37400F0A37446F07BFF34
:1097F8007A0179061241457BFF7A017925124145A4
:109808007B017A007946E4FD12AE337B017A007958
:1098180046128BE7900050EEF0A3EFF0FB7D047C3E
:10982800007FA812B6817D047C007FA812BD497E06
:1098380000900050EEF0A3EFF090007A74FFF0A3D0
:109848007400F0A37447F0A3EEF0A3EFF07B017A65
:1098580000794612413F90007A7401F0A37400F039
:0D986800A37446F07BFF7A01794802414568
:106E82007D067C007FA812BD497E00900050EEF086
:106E9200A3EFF090007A74FFF0A37400F0A374479C
:106EA200F0A3EEF0A3EFF07B017A00794612413FA6
:106EB200900050E07002A3E0701590007A04F0A3F5
:106EC2007400F0A37446F07BFF7A017970803590EC
:106ED2000050E07004A3E06401701590007A04F0A1
:106EE200A37400F0A37446F07BFF7A0179988014B2
:106EF20090007A7401F0A37400F0A37446F07BFF53
:106F02007A0179BA1241457BFF7A0179F212414541
:106F12007B017A007946E4FD12AE337B017A007977
:106F220046128BE7900050EEF0A3EFF0FB7D067C5B
:106F3200007FA812B6817D067C007FA812BD497E23
:106F420000900050EEF0A3EFF090007A74FFF0A3EF
:106F52007400F0A37447F0A3EEF0A3EFF07B017A84
:106F620000794612413F900050E07002A3E0701594
:106F720090007A04F0A37400F0A37446F07BFF7AC9
:106F82000179708035900050E07004A3E0640170D4
:106F92001590007A04F0A37400F0A37446F07BFF0E
:106FA2007A017998801490007A7401F0A37400F049
:0D6FB200A37446F07BFF7A0179BA124145C5
:016FBF0022AF
:107E7E007D087C007FA812BD497E00900050EEF078
:107E8E00A3EFF090007A74FFF0A37400F0A3744790
:107E9E00F0A3EEF0A3EFF07B017A00794612413F9A
:107EAE00900050E07002A3E0701590007A04F0A3E9
:107EBE007400F0A37446F07BFF7A0279118014905F
:107ECE00007A7401F0A37400F0A37446F07BFF7A7D
:107EDE000279351241457BFF7A0279571241457B73
:107EEE00017A007946E4FD12AE337B017A007946C1
:107EFE00128BE7900050EEF0A3EFF0FB7D087C00B4
:107F0E007FA812B6817D087C007FA812BD497E0035
:107F1E00900050EEF0A3EFF090007A74FFF0A3748F
:107F2E0000F0A37447F0A3EEF0A3EFF07B017A000C
:107F3E00794612413F900050E07002A3E070159018
:107F4E00007A04F0A37400F0A37446F07BFF7A026B
:107F5E007911801490007A7401F0A37400F0A37468
:0B7F6E0046F07BFF7A02793512414596
:017F790022E5
:107F7A007D0A7C007FA812BD497E00900050EEF079
:107F8A00A3EFF090007A74FFF0A37400F0A3744793
:107F9A00F0A3EEF0A3EFF07B017A00794612413F9D
:107FAA00900050E07002A3E0701590007A04F0A3EC
:107FBA007400F0A37446F07BFF7A02797C801490F7
:107FCA00007A7401F0A37400F0A37446F07BFF7A80
:107FDA000279A21241457BFF7A0279C61241457B9A
:107FEA00017A007946E4FD12AE337B017A007946C4
:107FFA00128BE7900050EEF0A3EFF0FB7D0A7C00B5
:10800A007FA812B6817D0A7C007FA812BD497E0036
:10801A00900050EEF0A3EFF090007A74FFF0A37492
:10802A0000F0A37447F0A3EEF0A3EFF07B017A000F
:10803A00794612413F900050E07002A3E07015901B
:10804A00007A04F0A37400F0A37446F07BFF7A026E
:10805A00797C801490007A7401F0A37400F0A37400
:0B806A0046F07BFF7A0279A21241452C
:0180750022E8
:108076007D0E7C007FA812BD497E00900050EEF078
:10808600A3EFF090007A74FFF0A37400F0A3744796
:10809600F0A3EEF0A3EFF07B017A00794612413FA0
:1080A600900050E07002A3E0701590007A04F0A3EF
:1080B6007400F0A37446F07BFF7A0279ED80149089
:1080C600007A7401F0A37400F0A37446F07BFF7A83
:1080D60003790F1241457BFF7A0379381241457BBC
:1080E600017A007946E4FD12AE337B017A007946C7
:1080F600128BE7900050EEF0A3EFF0FB7D0E7C00B4
:108106007FA812B6817D0E7C007FA812BD497E0035
:10811600900050EEF0A3EFF090007A74FFF0A37495
:1081260000F0A37447F0A3EEF0A3EFF07B017A0012
:10813600794612413F900050E07002A3E07015901E
:10814600007A04F0A37400F0A37446F07BFF7A0271
:1081560079ED801490007A7401F0A37400F0A37492
:0B81660046F07BFF7A0379641241456C
:0181710022EB
:1094BA007D0F7C007FA812BD497E00900050EEF01F
:1094CA00A3EFF090007A74FFF0A37400F0A374473E
:1094DA00F0A3EEF0A3EFF07B017A00794612413F48
:1094EA00900050E07002A3E07BFF70067A03799443
:1094FA0080047A0379B91241457BFF7A0379DA123B
:10950A0041457B017A007946E4FD12AE337B017A4C
:10951A00007946128BE7900050EEF0A3EFF0FB7D46
:10952A000F7C007FA812B6817D0F7C007FA812BD38
:10953A00497E00900050EEF0A3EFF090007A74FF9D
:10954A00F0A37400F0A37447F0A3EEF0A3EFF07B4E
:10955A00017A00794612413F900050E07002A3E080
:10956A007BFF70067A03799480047A0379B91241F1
:01957A0045AB
:01957B0022CD
:108172007D107C007FA812BD497E00900050EEF079
:10818200A3EFF090007A74FFF0A37400F0A3744799
:10819200F0A3EEF0A3EFF07B017A00794612413FA3
:1081A200900050E07002A3E0701590007A04F0A3F2
:1081B2007400F0A37446F07BFF7A04790480149073
:1081C200007A7401F0A37400F0A37446F07BFF7A86
:1081D20004792F1241457BFF7A0479581241457B7D
:1081E200017A007946E4FD12AE337B017A007946CA
:1081F200128BE7900050EEF0A3EFF0FB7D107C00B5
:108202007FA812B6817D107C007FA812BD497E0036
:10821200900050EEF0A3EFF090007A74FFF0A37498
:1082220000F0A37447F0A3EEF0A3EFF07B017A0015
:10823200794612413F900050E07002A3E070159021
:10824200007A04F0A37400F0A37446F07BFF7A0472
:108252007904801490007A7401F0A37400F0A3747E
:0B82620046F07BFF7A04792F124145A3
:01826D0022EE
:10826E007D117C007FA812BD497E00900050EEF07B
:10827E00A3EFF090007A74FFF0A37400F0A374479C
:10828E00F0A3EEF0A3EFF07B017A00794612413FA6
:10829E00900050E07002A3E0701590007A04F0A3F5
:1082AE007400F0A37446F07BFF7A047984801490F6
:1082BE00007A7401F0A37400F0A37446F07BFF7A89
:1082CE000479A81241457BFF7A0479CA1241457B95
:1082DE00017A007946E4FD12AE337B017A007946CD
:1082EE00128BE7900050EEF0A3EFF0FB7D117C00B7
:1082FE007FA812B6817D117C007FA812BD497E0039
:10830E00900050EEF0A3EFF090007A74FFF0A3749B
:10831E0000F0A37447F0A3EEF0A3EFF07B017A0018
:10832E00794612413F900050E07002A3E070159024
:10833E00007A04F0A37400F0A37446F07BFF7A0475
:10834E007984801490007A7401F0A37400F0A37401
:0B835E0046F07BFF7A0479A81241452D
:0183690022F1
:108B09007D127C007FA812BD497E00900050EEF0D6
:108B1900A3EFF090007A74FFF0A37400F0A37447F8
:108B2900F0A3EEF0A3EFF07B017A00794612413F02
:108B3900900050E07002A3E0700690007A0480056E
:108B490090007A7401F0A37400F0A37446F07BFFDF
:108B59007A0479EF1241457BFF7A05791312414571
:108B69007B017A007946E4FD12AE337B017A007904
:108B790046128BE7900050EEF0A3EFF0FB7D127CDC
:108B8900007FA812B6817D127C007FA812BD497EA4
:108B990000900050EEF0A3EFF090007A74FFF0A37C
:108BA9007400F0A37447F0A3EEF0A3EFF07B017A11
:108BB90000794612413F900050E07002A3E0700630
:108BC90090007A04800590007A7401F0A37400F093
:0D8BD900A37446F07BFF7A0479EF1241454A
:018BE600226C
:10C02F009000747419F0A37432F0A3744BF0A374DE
:10C03F0064F0A3747DF0A37496F0A374AFF0A374AF
:10C04F00C8F0A374E1F0A374FAF0E4A3F07B017AD3
:03C05F00007974F1
:01C0620022BB
:0A781B00900061EEF0FCA3EFF0FD19
:107825007FA812BD497E0090006DEEF0A3EFF090A9
:10783500007A74FFF0A37400F0A37447F0A3EEF090
:10784500A3EFF07B017A00796312413F90006DE070
:107855007002A3E0701590007A04F0A37400F0A301
:107865007463F07BFF7A05793B801490007A74018C
:10787500F0A37400F0A37463F07BFF7A05796112BD
:1078850041457BFF7A0579851241457B017A00796F
:1078950063E4FD12AE337B017A007963128BE790C6
:1078A500006DEEF0A3EFF0900061E0FCA3E0FDAB0E
:1078B500077FA812B681900061E0FCA3E0FD7FA8D8
:1078C50012BD497E0090006DEEF0A3EFF090007AB6
:1078D50074FFF0A37400F0A37447F0A3EEF0A3EFD8
:1078E500F07B017A00796312413F90006DE07002F0
:1078F500A3E090006F7018F0A3F090007A04F0A355
:107905007400F0A37463F07BFF7A05793B8017E47C
:10791500F0A304F090007AF0A37400F0A37463F070
:0F7925007BFF7A05796112414590006FA3E0FF67
:017934002230
:085A8700900061EEF0A3EFF0C6
:105A8F007BFF7A0579AC12414512AE2B7BFF7A056D
:105A9F0079D2124145900062E02407FD900061E049
:105AAF003400FC900063E0FB7FA812B68190006287
:105ABF00E02407FD900061E03400FC7FA812BD498F
:105ACF007BFF7A00794490007AEFF0124145900005
:105ADF0062E02408FD900061E03400FC900064E077
:105AEF00FB7FA812B681900062E02408FD90006150
:105AFF00E03400FC7FA812BD497BFF7A0579EE9058
:105B0F00007AEFF0124145900062E02409FD900009
:105B1F0061E03400FC900066E0FB7FA812B6819034
:105B2F000062E02409FD900061E03400FC7FA812C0
:105B3F00BD497BFF7A00794490007AEFF01241451E
:105B4F00900062E0240AFD900061E03400FC9000B8
:105B5F0067E0FB7FA812B681900062E0240AFD90F7
:105B6F000061E03400FC7FA812BD497BFF7A007909
:105B7F004490007AEFF01241457BFF7A0579F212DB
:105B8F00414512AE2B7BFF7A0679121241459000E8
:105B9F0062E0240BFD900061E03400FC900063E0B4
:105BAF00FB7FA812B681900062E0240BFD9000618C
:105BBF00E03400FC7FA812BD497BFF7A0079449046
:105BCF00007AEFF0124145900062E0240CFD900046
:105BDF0061E03400FC900064E0FB7FA812B6819076
:105BEF000062E0240CFD900061E03400FC7FA812FD
:105BFF00BD497BFF7A0579EE90007AEFF0124145AF
:105C0F00900062E0240DFD900061E03400FC9000F4
:105C1F0066E0FB7FA812B681900062E0240DFD9034
:105C2F000061E03400FC7FA812BD497BFF7A007948
:105C3F004490007AEFF0124145900062E0240EFD8F
:105C4F00900061E03400FC900067E0FB7FA812B683
:105C5F0081900062E0240EFD900061E03400FC7F33
:105C6F00A812BD497BFF7A00794490007AEFF002C9
:025C7F0041459D
:08793500900074EEF0A3EFF0E6
:10793D007BFF7A06792E124145900075E02407FDF4
:10794D00900074E03400FC7FA812BD497BFF7A06DD
:10795D00794090007AEFF0124145900075E02408CF
:10796D00FD900074E03400FC7FA812BD497BFF7AC6
:10797D000579EE90007AEFF0124145900075E02404
:10798D0009FD900074E03400FC7FA812BD497BFF17
:10799D007A00794490007AEFF0124145900075E03D
:1079AD00240AFD900074E03400FC7FA812BD497BD1
:1079BD00FF7A06794490007AEFF0124145900075F8
:1079CD00E0240BFD900074E03400FC7FA812BD494B
:1079DD007BFF7A00794490007AEFF01241459000D8
:1079ED0075E0240CFD900074E03400FC7FA812BDFE
:1079FD00497BFF7A0579EE90007AEFF012414590C0
:107A0D000075E0240DFD900074E03400FC7FA81299
:107A1D00BD497BFF7A00794490007AEFF012414521
:107A2D00900075E0240EFD900074E03400FC7FA8FA
:107A3D0012BD497BFF7A00794490007AEFF0024144
:017A4D0045F3
:084BF500900061EEF0A3EFF067
:104BFD007BFF7A06794A1241457BFF7A0679761258
:104C0D0041457BFF7A06799E1241457B017A0079F9
:104C1D0063E4FD12AE337BFF7A0679C6124145E49B
:104C2D0090006EF090006EE0FFC394087480948045
:104C3D004003024EAB74632FF582E43400F583E03C
:104C4D0090006FF0643270437BFF7A0679DE12417B
:104C5D0045900062E02401FD900061E03400FC7B92
:104C6D00327FA812B681900062E02401FD900061B0
:104C7D00E03400FC7FA812BD4990006DEFF07BFF82
