:1089510041016C0A41019F004101AA004101A000AF
:108961004101A8004201A100004101A9064101AE57
:0F897100034101ADF2C10AC10BC10941016B0005
:03000B0002BA82B4
:10BA8200C0E0C083C08290016CE014F0E0640170F9
:10BA92000690019FE004F09001A2E004F07006908D
:0EBAA20001A1E004F0C28DD082D083D0E0324A
:10BE1A00E58954F04401F589E4F58CF58AD28C223F
:05BEB900C28DD2A92298
:03BEC800C2A922EA
:0BBE490012BB79EFF47002EEF460F51C
:01BE540022CB
:05B6BB009000A7EFF074
:10B6C0009000A7E0FF12B866EF3395E04F6024E4E6
:10B6D0009000A8F0A3F0C39000A9E094E89000A81F
:10B6E000E0940350DBA3E004F070EB9000A8E004CA
:08B6F000F080E39000A7E0FFE9
:01B6F800222F
:0EB39900900027EBF0A3EAF0A3E9F0A3EDF09B
:10B3A700E4A3F090002AE0FFA3E0C39F5029900098
:10B3B70027E0FBA3E0FAA3E0F9121A24FF12B6BBB9
:10B3C70090002CEFF0900028E475F001121AB0906D
:07B3D700002BE004F080CC24
:01B3DE00224C
:10BE2A0012BEC312BE7B12BE5FC283D287C29722E2
:10B0FD007D047C007FA812B7789001ABE4F0A3EF3C
:10B10D00F07D067C007FA812B7789001A6E4F0A32D
:10B11D00EFF07D087C007FA812B7789001A4EFF0C6
:10B12D007D0A7C007FA812B7789001A3EFF07D0E09
:0DB13D007C007FA812B7789001A5EFF022EA
:10AA5C0012BE1A12BEB912BAB012BB0212BE2AD260
:10AA6C00AF12BCD87F217E0012BDAE12BD597F61E2
:10AA7C0012B23212BE8220910312512F12B0FD126B
:10AA8C006BF0EF70FA90016C7405F020800312BB30
:10AA9C00C590016BE0FF1235D490016BEFF020B341
:10AAAC00292009267B017A017943129F0D90000021
:10AABC00EFF0FD7B017A01794312B63C7B017A0100
:0FAACC007943900000E0FD123F3112A64C80BC90
:05BEBE004C495645004F
:0E3F3100900001EBF0A3EAF0A3E9F0A3EDF09D
:103F3F006419705D900001E0FBA3E0FAA3E0F912B1
:103F4F001A246402704B900002121A3D64487041AB
:103F5F00900004E07E0024FFF582EE34FFF583121B
:103F6F001A3D6403702B900001A3A3E02403F9E42E
:103F7F003AFA127550EF6003024367900001E0FBBD
:103F8F00A3E0FAA3E02403F9E43AFA129ACB02AAC7
:103F9F00DB900001E0FBA3E0FAA3E0F9121A24641E
:103FAF00B170057F6002419A900001E0FBA3E0FA37
:103FBF00A3E0F9121A2464B270057F5D02419A9052
:103FCF000001E0FBA3E0FAA3E0F9121A2464B37036
:103FDF00057F6302419A900004E06401701790001E
:103FEF0001E0FBA3E0FAA3E0F9121A2464B4700510
:103FFF007F5E02419A900004E06401701790000107
:10400F00E0FBA3E0FAA3E0F9121A2464B570057F70
:10401F006202419A900001E0FBA3E0FAA3E0F912DB
:10402F001A2464B67028900213E004F0E0D39404CD
:10403F007480948050030243677FAE12279EC28222
:10404F00E490019FF0C297C283900213F022900078
:10405F0001E0FBA3E0FAA3E0F9121A24FF64B760B2
:10406F0005EF64AA705390019FE0C3941474809479
:10407F00804008E4F0C297D282C2839001A4E0602E
:10408F00030243679001A3E064016003024367C327
:10409F009001A2E094589001A1E0940250030243D2
:1040AF0067E4F0A3F09001A404F07BFF7ABE79BE21
:1040BF0012B285E49001A4F022900004E064017034
:1040CF0017900001E0FBA3E0FAA3E0F9121A2464B1
:1040DF00B870057F9A02419A900004E0640170174E
:1040EF00900001E0FBA3E0FAA3E0F9121A2464A107
:1040FF0070057F5A02419A900004E0640170169097
:10410F000001E0FBA3E0FAA3E0F9121A24640570A2
:10411F00047F9C8076900004E0640170169000018B
:10412F00E0FBA3E0FAA3E0F9121A24640670047FFF
:10413F009E8058900004E064017016900001E0FB2F
:10414F00A3E0FAA3E0F9121A24640770047F5F80DA
:10415F003A900004E064017016900001E0FBA3E0C8
:10416F00FAA3E0F9121A24640870047F61801C908E
:10417F000004E064017017900001E0FBA3E0FAA3D4
:10418F00E0F9121A24640970057FAF02279E900090
:10419F0004E0FF6413703C900001E0FBA3E0FAA37E
:1041AF00E0F9900001121A3D64567027EF24FFFFCB
:1041BF00E434FFFE8F82F583121A3D640370148F6F
:1041CF00828E83E4121A7CE92402F9E43AFA7F5BC7
:1041DF00024328900004E0FF6413703C900001E05C
:1041EF00FBA3E0FAA3E0F9900001121A3D644F70AF
:1041FF0027EF24FFFFE434FFFE8F82F583121A3D71
:10420F00640370148F828E83E4121A7CE92402F9FE
:10421F00E43AFA7F9B024328900004E0FF640660B3
:10422F00030242DF900001E0FBA3E0FAA3E0F912E2
:10423F001A24640260030242DF900001121A3D64E7
:10424F005760030242DFFE74FF2FF582EE34FFF555
:10425F0083121A3D64037078900001A3A3900002AB
:10426F00121A3DFD7B017A00790512AF35900008D7
:10427F007420F0900001E0FBA3E0FAA3E0F99000B6
:10428F0003121A3DFD900001A3A3900004121A3DE2
:10429F00900018F07B017A0079091246C49001A3AF
:1042AF00E06401702112B915EFF460077FAA12279D
:1042BF009E80097B017A00790512887B7B017A0049
:1042CF0079057F5C80537B017A0079057F5C80499B
:1042DF00900004E0FF64077043900001E0FBA3E04F
:1042EF00FAA3E0F9121A2464027031900001121A35
:1042FF003D64637027EF24FFFFE434FFFE8F82F5E8
:10430F0083121A3D640370148F828E83E4121A7C19
:10431F00E92402F9E43AFA7F9D024C4B900004E045
:10432F00FF640C7033900001E0FBA3E0FAA3E0F907
:10433F00121A2464027021FE74FF2FF582EE34FFEF
:10434F00F583121A3D6403700F900001A3A3E024BC
:08435F0001F9E43AFA128A2484
:014367002233
:0EB57A00900032EBF0A3EAF0A3E9F0A3EDF0AD
:10B58800E4A3F0900035E0FFA3E0C39F50249000AF
:10B5980032E0FBA3E0FAA3E0F9121A24FF12B23258
:10B5A800900033E475F001121AB0900036E004F010
:02B5B80080D140
:01B5BA00226E
:0B887B00900010EBF0A3EAF0A3E9F07E
:108886009000317403F090001314F012B4F59000C8
:1088960014EFF0A37453F09001A8E0900031601338
:1088A600E0FF04F074132FF582E43400F583744D71
:1088B600F08011E0FF04F074132FF582E43400F524
:1088C600837443F09000317404F0900010E0FBA331
:1088D600E0FAA3E0F9121A24FF6021900031E024A7
:1088E60013F582E43400F583EFF0900011E475F09F
:1088F60001121AB0900031E004F080CE900031E011
:10890600FF04F074132FF582E43400F583743AF013
:10891600900031E02413F9E43400FA7B011263ED90
:10892600900031E0FF241DF582E43400F583743AAB
:10893600F0741E2FF582E43400F5837403F07B0196
:0B8946007A007913EF240CFD02B57AD3
:10BD860050524F4752414D414D4F5320484F52411B
:04BD9600000D0A0092
:08000300D29412BECBC294227C
:05B67C009000B4EFF0A6
:10B68100E4A3F0A3F09000B4E0FFA2E713F030D7F9
:10B6910004D2958002C2951200039000B6E004F036
:10B6A10070069000B5E004F0C39000B6E0940890F5
:09B6B10000B5E06480948040CCF7
:01B6BA00226D
:09A28600E475F001121AB07F87A3
:05A28F009000B1EFF0AA
:10A29400D2967F037E0012BDAE9000B1E0FF12B6ED
:10A2A4007CE49000B2F0A3F09000B2E0FCA3E0FDE7
:10A2B400C39408EC64809480504F30951690021437
:10A2C400E04480F0ED9406EC648094805005E0FF57
:10A2D400C313F0209520900214E0547FF0D3900033
:10A2E400B3E094069000B2E0648094805008900239
:10A2F40014E0FFC313F01200039000B3E004F07005
:10A30400A79000B2E004F0809FC296900214E0FF90
:01A314002226
:10BADA00900013EFF0A3EDF0D2967F037E0012BD23
:10BAEA00AE900013E0FF12B67C900014E0FF9000C5
:08BAFA0013F012B67CC2962283
:10B5BB00900011E475F001121AB0900011E475F0CF
:10B5CB0001121AB0900011E475F001121AB090003C
:10B5DB0010E0FBA3E0FAA3E0F9121A24FF9000019C
:04B5EB00121A3DFDF6
:0CB5EF00EF540FC454F0FFED540F4FFF59
:01B5FB00222D
:10755000E4FF121A24FEC394305003027662EED385
:1075600094394003027662900001121A3DFEC394E2
:1075700030500302765FEED39439400302765F9079
:107580000003121A3DFEC39430500302765CEED322
:107590009439400302765C900004121A3DFEC394B5
:1075A000305003027664EED394394003027664903F
:1075B0000008121A3DFEC394305003027659EED3F0
:1075C0009439400302765990000B121A3DFEC39481
:1075D000305003027656EED39439507A90000C1254
:1075E0001A3DFEC39430406BEED394395065900041
:1075F0000E121A3DFEC394304056EED394395050CB
:1076000090000F121A3DFEC394304041EED39439DE
:10761000503B900011121A3DFEC39430402CEED323
:1076200094395026900012121A3DFEC39430401730
:10763000EED394395011900014121A3DFEC39430C9
:107640004022EED39439227F01227F01227F012242
:107650007F01227F01227F01227F01227F01227F81
:0476600001227F0183
:017664002203
:0B9ACB00900010EBF0A3EAF0A3E9F01C
:109AD6007BFF7ABD798612B2857BFF7ABD799712B4
:109AE600B28512B5D9AD077F8612BADA12B5BBAD0B
:109AF600077F8812BADA900011E475F001121AB0E5
:109B0600900011E475F001121AB012B5BBAD077FD3
:109B16008C12BADA12B5BBAD077F8412BADA12B567
:109B2600BBAD077F8212BADA12B5BBAD077F8012D2
:109B3600BADA900011E475F001121AB0900011E43F
:109B460075F001121AB0900011E475F001121AB006
:109B5600900010E0FBA3E0FAA3E0F9121A245407E0
:069B6600FD7F8A02BADA5D
:10BCF100AE07EEC4540F540FFE6012EF540FFFE471
:0DBD0100FDEDC39E5007740A2FFF0D80F466
:01BD0E002212
:10B73700121A7C90005EE475F001121AB090005D59
:0CB74700E0FBA3E0FAA3E0F9121A24FFD3
:10B75300E4FEFDFCECC39F500B0DED640A7002FD8B
:10B763000E0C80F0EEC454F054F0FEED540F4EFF77
:01B7730022B3
:0BA0D40090005DEBF0A3EAF0A3E9F0C0
:10A0DF0012B744EF54F0C4540F4430FE900060E0C8
:10A0EF00FBA3E0FAA3E0F9EE121A6AEF540F443023
:10A0FF00FF900060E0FBA3E0FAA3E0F9900001EF0E
:10A10F0012B737EF54F0C4540F4430FE900060E0A4
:10A11F00FBA3E0FAA3E0F9900002EE121A7CEF54D1
:10A12F000F443090000312B737EF54F0C4540F446C
:10A13F0030FE900060E0FBA3E0FAA3E0F99000048A
:10A14F00EE121A7CEF540F4430900005121A7C90D7
:06A15F000006E4021A7C78
:10AF3500E4FFFE900014EDF0900014E0C3946474F7
:10AF45008094804007E0249CF00F80ECEF443012A1
:10AF55001A6A740129F9E43AFA900014E0C3940AD4
:10AF6500748094804007E024F6F00E80ECEE4430C7
:10AF7500121A6A740129F9E43AFA900014E044308F
:0EAF8500121A6A740129F9E43AFAE4021A6A0F
:0E46C400900014EBF0A3EAF0A3E9F0A3EDF0F0
:1046D200E4900019F0A3F090001CF0A3F0A3F0A363
:1046E200F090001BEDF054F0F0E0FFC4540FF09096
:1046F2000024121B59404000007F007E007D807C18
:104702004112655CC004C005C006C00790001BE0F2
:10471200FCE4121536D003D002D001D000121426C8
:10472200C004C005C006C007900019E0FCA3E0FD6C
:10473200E4121531D003D002D001D0001213351289
:10474200156A900019EEF0A3EFF0900017E09000C8
:104752001BF0540FF0900024121B59400000007F00
:10476200007E007D807C4112655CC004C005C006ED
:10477200C00790001BE0FCE4121536D003D002D033
:1047820001D000121426C004C005C006C007900064
:1047920019E0FCA3E0FDE4121531D003D002D001F0
:1047A200D00012133512156A900019EEF0A3EFF043
:1047B200900018E090001BF054F0F0E0FFC4540F9A
:1047C200F0900024121B593F8000007F007E007D84
:1047D200807C4112655CC004C005C006C007900021
:1047E2001BE0FCE4121536D003D002D001D0001237
:1047F2001426C004C005C006C007900019E0FCA33F
:10480200E0FDE4121531D003D002D001D000121322
:104812003512156A900019EEF0A3EFF0900018E03F
:1048220090001BF0540FF0900024121B590000005E
:10483200007F007E007D807C4112655CC004C00563
:10484200C006C00790001BE0FCE4121536D003D06E
:1048520002D001D000121426C004C005C006C00751
:10486200900019E0FCA3E0FDE4121531D003D00260
:10487200D001D00012133512156A900019EEF0A380
:10488200EFF0C3EF9410EE9427401074F02FFF74F2
:10489200D83EFE90001CE004F080E790001CE0444B
:1048A20030FD900014E0FBA3E0FAA3E0F9ED121A48
:1048B2006A900015E475F001121AB0C3EF94E8EEA5
:1048C2009403401074182FFF74FC3EFE90001DE00C
:1048D20004F080E790001DE04430FD900014E0FBFE
:1048E200A3E0FAA3E0F9ED121A6A900015E475F05C
:1048F20001121AB0C3EF9464EE94004010749C2F1E
:10490200FF74FF3EFE90001EE004F080E790001E60
:10491200E04430FD900014E0FBA3E0FAA3E0F9EDDF
:10492200121A6A900015E475F001121AB0C3EF94DE
:104932000AEE9400401074F62FFF74FF3EFE9000C2
:104942001FE004F080E790001FE04430FD90001467
:10495200E0FBA3E0FAA3E0F9ED121A6A900015E475
:1049620075F001121AB0EF4430FF900014E0FBA37F
:10497200E0FAA3E0F9EF121A6A900015E475F0016B
:10498200121AB0900014E0FBA3E0FAA3E0F9E402EB
:024992001A6A9F
:0B63ED00900051EBF0A3EAF0A3E9F0F0
:1063F8007F8D12A28FEF54F0C4540F4430FE9000EA
:1064080051E0FBA3E0FAA3E0F9EE121A6A900052F9
:10641800E475F001121AB0EF540F4430FF900051A8
:10642800E0FBA3E0FAA3E0F9EF121A6A900052E445
:1064380075F001121AB07F8912A28FEF54F0C4547C
:106448000F4430FE900051E0FBA3E0FAA3E0F9EE20
:10645800121A6A900052E475F001121AB0EF540F44
:106468004430FF900051E0FBA3E0FAA3E0F9EF12FB
:106478001A6A90005212A286EF54F0C4540F4430A6
:10648800FE900051E0FBA3E0FAA3E0F9EE121A6ACD
:10649800900052E475F001121AB0EF540F4430FF27
:1064A800900051E0FBA3E0FAA3E0F9EF121A6A901A
:1064B8000052E475F001121AB07F8512A28FEF54D2
:1064C800F0C4540F4430FE900051E0FBA3E0FAA35F
:1064D800E0F9EE121A6A900052E475F001121AB04F
:1064E800EF540F4430FF900051E0FBA3E0FAA3E023
:1064F800F9EF121A6A900052E475F001121AB07F8F
:106508008312A28FEF54F0C4540F4430FE90005110
:10651800E0FBA3E0FAA3E0F9EE121A6A900052E455
:1065280075F001121AB0EF540F4430FF900051E09B
:10653800FBA3E0FAA3E0F9EF121A6A900052E4759F
:10654800F001121AB0900051E0FBA3E0FAA3E0F9C1
:04655800E4021A6AD5
:0B5D240090001DEBF0A3EAF0A3E9F0F3
:105D2F007F8912A28FEF54F0C4540F4430FE9000BD
:105D3F001DE0FBA3E0FAA3E0F9EE121A6A90001E31
:105D4F00E475F001121AB0EF540F4430FF90001DAC
:105D5F00E0FBA3E0FAA3E0F9EF121A6A90001E121B
:105D6F00A286EF54F0C4540F4430FE90001DE0FBA8
:105D7F00A3E0FAA3E0F9EE121A6A90001EE475F0A0
:105D8F0001121AB0EF540F4430FF90001DE0FBA337
:105D9F00E0FAA3E0F9EF121A6A90001EE475F00121
:105DAF00121AB07F8D12A28FEF54F0C4540F4430EB
:105DBF00FE90001DE0FBA3E0FAA3E0F9EE121A6AD1
:105DCF0090001EE475F001121AB0EF540F4430FF2B
:105DDF0090001DE0FBA3E0FAA3E0F9EF121A6A901E
:105DEF00001EE475F001121AB07F8512A28FEF54D6
:105DFF00F0C4540F4430FE90001DE0FBA3E0FAA363
:105E0F00E0F9EE121A6A90001EE475F001121AB052
:105E1F00EF540F4430FF90001DE0FBA3E0FAA3E026
:105E2F00F9EF121A6A90001EE475F001121AB07F92
:105E3F008312A28FEF54F0C4540F4430FE90001D14
:105E4F00E0FBA3E0FAA3E0F9EE121A6A90001EE459
:105E5F0075F001121AB0EF540F4430FF90001DE09F
:105E6F00FBA3E0FAA3E0F9EF121A6A90001EE475A3
:105E7F00F001121AB090001DE0FBA3E0FAA3E0F9C5
:105E8F00742E121A6A90001EE475F001121AB07F78
:105E9F008112A28FEF54F0C4540F4430FE90001DB6
:105EAF00E0FBA3E0FAA3E0F9EE121A6A90001EE4F9
:105EBF0075F001121AB0EF540F4430FF90001DE03F
:105ECF00FBA3E0FAA3E0F9EF121A6A90001EE47543
:105EDF00F001121AB090001DE0FBA3E0FAA3E0F965
:045EEF00E4021A6A45
:1098DB009000AEEBF0A3EAF0A3E9F07F8D12A28F1C
:1098EB0012BCF19000AEE0FBA3E0FAA3E0F9EF129B
:1098FB001A6A9000AFE475F001121AB07F8912A2B8
:10990B008F12BCF19000AEE0FBA3E0FAA3E0F9EFFD
:10991B00121A6A9000AF12A28612BCF19000AEE050
:10992B00FBA3E0FAA3E0F9EF121A6A9000AFE4751B
:10993B00F001121AB07F8512A28F12BCF19000AE0B
:10994B00E0FBA3E0FAA3E0F9EF121A6A9000AFE490
:10995B0075F001121AB07F8312A28F12BCF1900026
:10996B00AEE0FBA3E0FAA3E0F9EF121A6A9000AFA6
:07997B00E475F001021AB0CF
:108C830090001DEBF0A3EAF0A3E9F07F8D12A28F11
:108C930090001DE0FBA3E0FAA3E0F9EF121A6A903B
:108CA300001EE475F001121AB07F8912A28F9000A2
:108CB3001DE0FBA3E0FAA3E0F9EF121A6A90001E8D
:108CC30012A28690001DE0FBA3E0FAA3E0F9EF12E5
:108CD3001A6A90001EE475F001121AB07F8512A281
:108CE3008F90001DE0FBA3E0FAA3E0F9EF121A6AEC
:108CF30090001EE475F001121AB07F8312A28F90C8
:108D0300001DE0FBA3E0FAA3E0F9EF121A6A90005A
:108D13001EE475F001121AB07F8112A28F90001D1C
:108D2300E0FBA3E0FAA3E0F9EF121A6A90001EE455
:108D330075F001121AB090001DE0FBA3E0FAA3E066
:058D4300F9E4021A6AC8
:07BE7B00C294C296D2952289
:0B8BBA0090009CEBF0A3EAF0A3E9F0B0
:108BC5007B017A0079A71298DB9000A7E0FF7E0071
:108BD5007C017D6D121A9EAC06AD07A3E075F01EF3
:108BE500A42DFFEC35F0FEA3E07C002FFFEC3EFE4C
:108BF500E4FD90009F121B4D90009CE0FBA3E0FA62
:108C0500A3E0F9900001121A3DFF3395E0FE7C00C8
:108C15007D1E121A9EC006C007121A24FF3395E066
:108C2500FE0C7D6D121A9ED0E02FFFD0E03EFE9027
:108C35000002121A3DFD3395E0FCEF2DFFEE3CFEE0
:108C45003395E0FDFC9000A3121B4D90009FE0FCC6
:108C5500A3E0FDA3E0FEA3E0FFA3E0F8A3E0F9A3F2
:108C6500E0FAA3E0FBC3121AEA40089000AD7401D4
:0D8C7500F08005E49000ADF09000ADE0FF50
:018C820022CF
:10BDAE00E4FDFCC3ED9FEC9E50070DBD00010C8021
:01BDBE00F292
:01BDBF002261
:04BD0F00AB07AA06CE
:10BD1300900000C3E5829BE5839A500A7F967E00DC
:06BD230012BDAEA380ED8D
:01BD290022F7
:08B8A10090001CEEF0A3EFF093
:10B8A900E4A3F0A3F090001CE0FEA3E0FFC3900026
:10B8B9001FE09F90001EE09E50177F0A7E0012BD78
:10B8C9000F90001FE004F070DC90001EE004F0808F
:01B8D900D49A
:01B8DA00224B
:01BECB002254
:10B82B004572726F72206465207469636B65740076
:10B83B000A0D004E756D65726F2064652074696327
:10B84B006B65743A004E6F206465207469636B6599
:0BB85B0074204845583A00256C750029
:03BC730012BC0EF2
:10BC7600D20ED293D292E4FFFE209205C20EC29358
:0CBC8600220FBF00010EBE04F0BF4CED09
:01BC9200228F
:03BC930012BC0ED2
:10BC9600D293D292D20EE4FFFE209205C20EC29338
:0CBCA600220FBF00010EBE02F0BF8AEDAD
:01BCB200226F
:06BEB300D29300C29322AD
:10BC0E00E4FEEEC39408748094805015EF25E0FF97
:10BC1E0030D704D2928002C292D29312BEB30E805B
:01BC2E00E134
:01BC2F0022F2
:08BDC000ECFD7C00C293C2926D
:0ABDC800D292D29300C292C29322DD
:0ABE5500C293C29200D293D292224F
:10B14A00E4FBEBFDC39408748094805038C29330BA
:10B15A009216900209E04401F0ED940674809480FE
:10B16A005006E025E0F0D293209217900209E054AD
:10B17A00FEF0EBD39406748094805006E025E0F04C
:0CB18A00D2930B80BDC293900209E0FF3D
:01B196002296
:10B0A70090005DE0FCA3E0FDA3E0FBA3E0FAA3E0D2
:07B0B700F9121A24FB7FA827
:02B0BE00AA07DF
:10B0C000AF05A90712BDC0AF0212BC73AF0512BC19
:10B0D00073AF0112BC0E12BC76AF0312BC0E12BCD1
:10B0E0007612BE557F0D7E0012BD0FD293D2927F95
:0DB0F000627E0012BDAE7F627E0002BDAE2A
:04B774007C027FA82C
:02B77800AB071D
:10B77A00AF05AA0712BDC0AF0312BC93AF0512BC36
:10B78A0093AF0212BC0E12BC9612BDC8EB04FF1294
:10B79A00BC0E12BC76C29312B14A12BE55D293D2D3
:06B7AA0092900209E0FF8D
:01B7B0002276
:0B8A2400900010EBF0A3EAF0A3E9F0D3
:108A2F00E4900014F0900010E0FBA3E0FAA3E0F94B
:108A3F0090000AE4121A7CE4900013F0900013E007
:108A4F00FFD39409748094805057900010E0FBA3DB
:108A5F00E0FAA3E0F98F82758300121A3DFF7E00C2
:108A6F00C3943074809480400AD3EF943974809407
:108A7F008040269000147401F07BFF7AB8792B1296
:108A8F00B285900010E0FBA3E0FAA3E0F912B285E3
:108A9F007BFF7AB8793B12B285900013E004F08027
:108AAF009B900014E0700E900010E0FBA3E0FAA37F
:108ABF00E0F9028167E4FBFD7C027FA812B0BEE4FF
:108ACF00FB7D017C027FA812B0BEE4FB7402FDFCAB
:108ADF007FA812B0BEE4FB7D037C027FA812B0BE5C
:018AEF002264
:0B816700900015EBF0A3EAF0A3E9F094
:108172007F007E007D007C007BFF7AB8793E12B2E0
:1081820085900015E0FBA3E0FAA3E0F912B2857B2B
:10819200FF7AB8793B12B285900015E0FBA3E0FAB2
:1081A200A3E0F912777490001C121B4D7BFF7AB882
:1081B200795012B28590001CE0FCA3E0FDA3E0FE22
:1081C200A3E0FF7818121AFB900018EFF012B30B1D
:1081D20090001CE0FCA3E0FDA3E0FEA3E0FF78100A
:1081E200121AFB900019EFF012B30B90001CE0FC86
:1081F200A3E0FDA3E0FEA3E0FF7808121AFB9000C3
:108202001AEFF012B30B90001CA3A3A3E0FF90009F
:108212001BF012B30B7BFF7AB8793B12B285900048
:1082220018E0FB7D007C027FA812B0BE900019E02E
:10823200FB7D017C027FA812B0BE90001AE0FB74A5
:1082420002FDFC7FA812B0BE90001BE0FB7D037C08
:06825200027FA802B0BE8D
:10B19700128AF090007A74FFF0A374B8F0A3746277
:10B1A700F0A3121B4D7B017A007943123B137B01FD
:10B1B7007A00794312000E74432FF582E43400F5C8
:10B1C70083E4F07B017A00794312B2857BFF7AB87A
:0BB1D700793B12B2857B017A007943BE
:01B1E200224A
:108AF000900051121B59000000007D0012B774A9AC
:108B0000077D0112B77490004EEFF07402FDFC7FF8
:108B1000A812B77890004FEFF07D0312B774900061
:108B200050EFF0AF01A3E0F8A3E0F9A3E0FAA3E06F
:108B30004FFFEAFEE9FDE8FC7808121B0E90005199
:108B4000121B4D90004EE0FF900051E0F8A3E0F9B9
:108B5000A3E0FAA3E04FFFEAFEE9FDE8FC78081283
:108B60001B0E900051121B4D90004FE0FF900051E2
:108B7000E0F8A3E0F9A3E0FAA3E04FFFEAFEE9FD85
:108B8000E8FC7808121B0E900051121B4D9000500B
:108B9000E0FFA3E0F8A3E0F9A3E0FAA3E04FFFEAC7
:108BA000FEE9FDE8FC900051121B4D900051E0FCE5
:098BB000A3E0FDA3E0FEA3E0FF39
:018BB9002299
:10B9B900128AF0EF2401FFE43EFEE43DFDE43CFC85
:10B9C90090007A74FFF0A374B8F0A37462F0A31224
:10B9D9001B4D7B017A007909123B137B017A0079AF
:04B9E9000902816767
:10AE6D0090009CEEF0A3EFF0A3EBF0A3EAF0A3E9C2
:01AE7D00F0E4
:10AE7E0090009CE0FCA3E0FD7FA812B77890009EA6
:10AE8E00E0FBA3E0FAA3E0F9EF121A6A90009EE04D
:10AE9E00FBA3E0FAA3E0F9121A24FF90009DE00450
:10AEAE00F0700690009CE004F090009FE475F001B5
:10AEBE00121AB0EF70BA90009EE0FBA3E0FAA3E086
:05AECE00F9E4021A6A1C
:10ACBC0090005DEEF0A3EFF0A3EBF0A3EAF0A3E9B4
:10ACCC00F090005FE0FBA3E0FAA3E0F9121A246015
:10ACDC0024B40D04E4121A6A12B0A790005EE004CA
:10ACEC00F0700690005DE004F0900060E475F001F7
:10ACFC00121AB080CC12B0A790005EE004F070067F
:10AD0C0090005DE004F0900060E475F001121AB060
:0FAD1C0090005DE0FCA3E0FDE4FB7FA802B0BE69
:1090520050756C7361646F722041637469766F0D31
:109062000A0053656E736F726573204175746F20C9
:10907200792073656E736F72312061637469766FE4
:10908200732E0A0D0053656E736F722061637469EB
:10909200766F2073656E736F72312E0A0D00446510
:1090A2007465637461646F2E2053656E736F7220F2
:1090B2004175746F2E0A0D0053656E736F7265737E
:1090C200206E6F2064657465637461646F732E0A29
:1090D2000D005665686963756C6F20457370657223
:1090E200616E646F2053616C69722E0A0D005665C1
:1090F200686963756C6F2053616C69656E646F2E6D
:0F91020020556E206D6F6D656E746F2E0A0D0017
:0A898000C10F410211004102120074
:07BE8200C2B5C2B6C2B7222F
:07BE8900C2B5D2B6C2B72218
:07BE9000D2B5D2B6C2B72201
:07BE9700C2B5C2B6D2B7220A
:07BE9E00D2B5C2B6D2B722F3
:07BEA500C2B5D2B6D2B722EC
:07BEAC00D2B5D2B6D2B722D5
:10BDD20012BE9020910B7BFF7A90795212B285D2DB
:02BDE2000F222E
:10BCB300E4FF7DF47C01309115EFFB3395E04B708D
:0EBCC3000DED1D70011CED4C70EC7F0180E852
:01BCD1002250
:10BC30007F017DF47C01209118EFFB3395E0FAEB56
:10BC400064014A700CED1D70011CED4C70E8FF8022
:01BC5000E50E
:01BC510022D0
:10B4F5009000327401F012BEA5309103E004F01201
:10B50500BEAC309107900032E02402F0900032E0AA
:10B51500640170177D12FC7FA812B778EF600CF4F8
:10B52500900032700404F08002EFF0900032E024C5
:02B5350030FFE5
:01B5370022F1
:10BD70007D127C007FA812B778EF6005F470027F17
:05BD800001EF2430FF7B
:01BD8500229B
:10B04C0012BE9E20912312BE897BFF20910D7A9017
:10B05C00796412B285E49001A880227A90798712E3
:10B06C00B2859001A87401801412BE897BFF2091D7
:10B07C00187A9079A012B2859001A87401F0900012
:10B08C001174FFF012BDD2800C7A9079BA12B2858D
:0AB09C00E4900011F0900011E0FFB5
:01B0A6002287
:10B9150012BE9730912012BCB3EF3395E0FEEF6471
:10B92500014E700A12B04C900010EFF080147BFFAE
:10B935007A9079D480067BFF7A9079F012B2857F70
:07B945000022900010E0FF5A
:01B94C0022D8
:10A64C00E4900001F0900211E004F0E0C394327445
:10A65C00809480406EE4F012BE8220915B900001E9
:10A66C00E0705512BC30EF3395E04F704B900212F6
:10A67C00E0702A900001E0702430B30B04F012B1AA
:10A68C00E39002127401F012BCB3EF3395E0FEEFCD
:10A69C0064014E70237F0AFE12B8A1801B90021237
:10A6AC00E064017013900001E0700D30B30A04F007
:10A6BC00126D2EE4900212F012BE82309105E490DD
:03A6CC000001F09A
:01A6CF002268
:102EE500494E4752455345205441524A4554412085
:102EF500005441524A4554412053494E20494E47BA
:102F05005245534F20005441524A455441204E4F9B
:102F1500205245474953545241205041474F2000C4
:102F2500455843454445205449454D504F20444557
:102F35002047524143494120004D454E5355414C90
:102F4500204E4F204553544120454E20504152516B
:102F55005545414445524F2000444952494A415341
:102F65004520412043414A412000475241434941C0
:102F7500532E2E2E2000475241434941532E2E2ECB
:102F8500004D454E5355414C494441442056454E0C
:102F95004349444120004D454E5355414C49444118
:102FA500442045584345444520484F524152494FD6
:102FB5002041434552515545534520412043414AFF
:102FC5004120004E4F204553204D454E5355414C11
:102FD50049444144204E49205052455041474F00F5
:102FE5004D454E5355414C204E4F205041474F20A3
:102FF5004C4F434143494F4E20484F590053494E8A
:103005002050524553454E43494120564548494372
:10301500554C415220005441524A455441204E4F8F
:103025002045532044454C2050415251554541447B
:1030350045524F20004249454E56454E49444F2E74
:103045002050554C534520454C20424F544F4E205F
:10305500005441524A4554412053494E20464F524F
:103065004D41544F20004655455241204445204C82
:10307500494E45412000554E204D4F4D454E544F2C
:1030850020504F52204641564F5220004E4F20456A
:1030950053205441524A455441204D454E535541C4
:1030A5004C20005441524A45544120494E56414C0A
:1030B50049444120005441524A4554412053494E08
:1030C5002053414C494441200052454749535452ED
:1030D5004120494E475245534F20454E20504152BD
:1030E500515545414445524F20004D454E5355419C
:1030F5004C20465545524120444520484F524152A7
:10310500494F2000484F524152494F204E4F2050C1
:10311500524F4752414D41444F200053494E205490
:1031250041524A4554415320004249454E56454E69
:1031350049444F20004E4956454C2042414A4F20B4
:103145004445205441524A455441532000613B387F
:10315500353B494E4752455345205441524A455403
:10316500410A0000613B38363B5441524A455441BF
:103175002053494E20494E475245534F0A0000619E
:103185003B38373B5441524A455441204E4F20521B
:1031950045474953545241205041474F0A00006169
:1031A5003B38383B455843454445205449454D50E7
:1031B5004F204445204752414349410A0000613BA5
:1031C50038393B4D454E5355414C204E4F204553C4
:1031D500544120454E205041525155454144455298
:1031E5004F0A0000613B39303B444952494A41533B
:1031F5004520412043414A410A0000613B39313BAA
:10320500475241434941532E2E2E200A0000613B6F
:1032150039333B4D454E5355414C204E4F20455378
:10322500544120454E205041525155454144455247
:103235004F0A0000613B39333B4D454E5355414CD8
:10324500204553544120454E20504152515545414A
:103255004445524F0A0000613B39343B4D454E53BE
:1032650055414C494441442056454E434944410A41
:103275000000613B39353B4D454E5355414C494462
:1032850041442045584345444520484F5241524901
:103295004F20414345525155455345204120434117
:1032A5004A410A0000613B39363B4E4F20455320C9
:1032B5004D454E5355414C49444144204E492050BB
:1032C50052455041474F0A0000613B39373B4D4558
:1032D5004E5355414C204E4F205041474F204C4FA7
:1032E500434143494F4E20484F590A0000613B393D
:1032F500383B53494E2050524553454E4349412092
:103305005645484943554C41520A0000613B3938FE
:103315003B5441524A455441204E4F204553204489
:10332500454C20504152515545414445524F0A00A4
:1033350000613B30303B4249454E56454E49444F6E
:103345002E2050554C534520454C20424F544F4E4E
:103355000A0000613B39383B5441524A45544120EB
:1033650053494E20464F524D41544F0A0000613B90
:1033750039383B4655455241204445204C494E4538
:10338500410A0000613B39383B554E204D4F4D45B4
:103395004E544F20504F52204641564F520A00007E
:1033A500613B30383B4E4F204553205441524A45EE
:1033B5005441204D454E5355414C0A0000613B395F
:1033C500383B5441524A45544120494E56414C4997
:1033D50044410A0000613B39383B5441524A455447
:1033E500412053494E2053414C4944410A00006154
:1033F5003B39383B524547495354524120494E4782
:103405005245534F20454E20504152515545414458
:1034150045524F0A0000613B30373BA1204D454ED8
:103425005355414C494441442056454E4349444136
:1034350020210A0000613B30363B4D454E53554136
:103445004C20465545524120444520484F52415253
:10345500494F0A0000613B39383B53494E205441DE
:10346500524A455441530A0000613B39383B4E49A5
:1034750056454C2042414A4F204445205441524A2A
:10348500455441530A0000613B39383B484F52418E
:1034950052494F204E4F2050524F4752414D4144C3
:1034A5004F0A0000613B39383B4143455251554570
:1034B500205355205441524A455441204445204EFD
:1034C5005545564F0A0000613B30313B5245544942
:1034D5005245205355205441524A4554410A000053
:1034E500613B30333B4249454E56454E49444F0AB0
:1034F5000000613B39393B4C4F5445204153494706
:103505004E41444F2045535441204C4C454E4F0AA3
:10351500000057494547414E442000475241434921
:1035250041532000613B39323B57494547414E44A1
:1035350020000A0000613B39313B47524143494174
:10354500532000613B30333B4249454E56454E4979
:10355500444F200020504C414341000A00613B305C
:10356500373B20A1204D454E5355414C49444144DC
:103575002056454E4349444120212056454E434956
:103585004F20323000633B39303B00643B00AA805A
:1035950018010200AA8018010200000000000000C6
:1035A5000000000000000000000000000000000016
:1035B5000000000000000000000000000000000006
:0F35C5000000AA8028072000000000001400006A
:05279E0090002AEFF09D
:1027A300782B7C007D017BFF7A3579937E007F0651
:1027B3001219FEE4900032F0A3F0C2879001A5E065
:1027C3006003022B6A7B017A00792BFD12B4B99066
:1027D300002AE0121BAA2B4501282E55284E562805
:1027E3006E57288E5828AE5928CE5A28EE5B28AE4D
:1027F3005D290E5E292E5F294E60296E61298EAAFE
:1028030029AEAB29CEAC29EEAD2A0EAE2A2EAF2AC5
:102813004EB02A6EB12A8EB22AAEB32ACEB52AEEB4
:10282300B62B07FA2B26FE00002B677BFF7A2E7947
:10283300E512000E900031EFF0E4FDFF12BB5B12D6
:10284300BB527BFF7A2E79E5022B627BFF7A2E79CE
:10285300F612000E900031EFF0E4FDFF12BB5B12A5
:10286300BB527BFF7A2E79F6022B627BFF7A2F799C
:102873000B12000E900031EFF0E4FDFF12BB5B1270
:10288300BB527BFF7A2F790B022B627BFF7A2F7966
:102893002512000E900031EFF0E4FDFF12BB5B1236
:1028A300BB527BFF7A2F7925022B627BFF7A2F792C
:1028B3003E12000E900031EFF0E4FDFF12BB5B12FD
:1028C300BB527BFF7A2F793E022B627BFF7A2F79F3
:1028D3005E12000E900031EFF0E4FDFF12BB5B12BD
:1028E300BB527BFF7A2F795E022B627BFF7A2F79B3
:1028F3006F12000E900031EFF0E4FDFF12BB5B128C
:10290300BB527BFF7A2F797B022B627BFF7A2F7975
:102913008612000E900031EFF0E4FDFF12BB5B1254
:10292300BB527BFF7A2F7986022B627BFF7A2F794A
:102933009B12000E900031EFF0E4FDFF12BB5B121F
:10294300BB527BFF7A2F799B022B627BFF7A2F7915
:10295300C812000E900031EFF0E4FDFF12BB5B12D2
:10296300BB527BFF7A2F79C8022B627BFF7A2F79C8
:10297300E512000E900031EFF0E4FDFF12BB5B1295
:10298300BB527BFF7A2F79E5022B627BFF7A30798A
:102993000212000E900031EFF0E4FDFF12BB5B1258
:1029A300BB527BFF7A307902022B627BFF7A30794C
:1029B3001B12000E900031EFF0E4FDFF12BB5B121F
:1029C300BB527BFF7A30791B022B627BFF7A307913
:1029D3003A12000E900031EFF0E4FDFF12BB5B12E0
:1029E300BB527BFF7A30793A022B627BFF7A3079D4
:1029F3005612000E900031EFF0E4FDFF12BB5B12A4
:102A0300BB527BFF7A307956022B627BFF7A307997
:102A13006B12000E900031EFF0E4FDFF12BB5B126E
:102A2300BB527BFF7A30796B022B627BFF7A307962
:102A33007B12000E900031EFF0E4FDFF12BB5B123E
:102A4300BB527BFF7A30797B022B627BFF7A307932
:102A53009112000E900031EFF0E4FDFF12BB5B1208
:102A6300BB527BFF7A307991022B627BFF7A3079FC
:102A7300A812000E900031EFF0E4FDFF12BB5B12D1
:102A8300BB527BFF7A3079A8022B627BFF7A3079C5
:102A9300BA12000E900031EFF0E4FDFF12BB5B129F
:102AA300BB527BFF7A3079BA022B627BFF7A307993
:102AB300CE12000E900031EFF0E4FDFF12BB5B126B
:102AC300BB527BFF7A3079CE022B627BFF7A30795F
:102AD300EF12000E900031EFF0E4FDFF12BB5B122A
:102AE300BB527BFF7A3079EF022B627BFF7A31791D
:102AF3000912000E900031EFF012BB567BFF7A31C2
:102B03007909805B7BFF7A31792012000E900031C6
:102B1300EFF0E4FDFF12BB5B12BB527BFF7A31790E
:102B230020803C7BFF7A31792E12000E900031EF2A
:102B3300F0E4FDFF12BB5B12BB527BFF7A31792EAF
:102B4300801D7BFF7A31793A12000E900031EFF04D
:102B5300E4FDFF12BB5B12BB527BFF7A31793A7DF6
:102B63000112B4B9D28722C28790002AE0121BAAAD
:102B73002E30012BDA552BF1562C08572C1F582CCD
:102B830036592C4D5A2C645B2C7B5D2CA95E2CC0D2
:102B93005F2CD7602CEE612C92632EB59A2E9F9CEE
:102BA3002E5D9E2E73A12D05AA2D1CAB2D33AC2DAE
:102BB3004AAD2D61AE2D78AF2D8FB02DA6B12DBDB1
:102BC300B22DD4B32DEBB42E02B52E47B62E19FA7F
:102BD3002E89FE00002EDB900032E0FEA3E0AA0661
:102BE300F8AC027D017BFF7A317952022EC9900045
:102BF30032E0FEA3E0AA06F8AC027D017BFF7A3146
:102C03007969022EC9900032E0FEA3E0AA06F8AC6F
:102C1300027D017BFF7A317984022EC9900032E074
:102C2300FEA3E0AA06F8AC027D017BFF7A3179A40A
:102C3300022EC9900032E0FEA3E0AA06F8AC027DA2
:102C4300017BFF7A3179C3022EC9900032E0FEA3E3
:102C5300E0AA06F8AC027D017BFF7A3179E9022E06
:102C6300C9900032E0FEA3E0AA06F8AC027D017B26
:102C7300FF7A327900022EC9900032E0FEA3E0AA67
:102C830006F8AC027D017BFF7A327913022EC990DC
:102C93000032E0FEA3E0AA06F8AC027D017BFF7AD6
:102CA300327939022EC9900032E0FEA3E0AA06F879
:102CB300AC027D017BFF7A32795C022EC99000322F
:102CC300E0FEA3E0AA06F8AC027D017BFF7A32792D
:102CD30077022EC9900032E0FEA3E0AA06F8AC0208
:102CE3007D017BFF7A3279AA022EC9900032E0FE81
:102CF300A3E0AA06F8AC027D017BFF7A3279CE020B
:102D03002EC9900032E0FEA3E0AA06F8AC027D01D2
:102D13007BFF7A3279F2022EC9900032E0FEA3E003
:102D2300AA06F8AC027D017BFF7A337911022EC922
:102D3300900032E0FEA3E0AA06F8AC027D017BFF1F
:102D43007A337936022EC9900032E0FEA3E0AA0658
:102D5300F8AC027D017BFF7A337958022EC99000CB
:102D630032E0FEA3E0AA06F8AC027D017BFF7A33D2
:102D73007973022EC9900032E0FEA3E0AA06F8ACF4
:102D8300027D017BFF7A337989022EC9900032E0FC
:102D9300FEA3E0AA06F8AC027D017BFF7A3379A596
:102DA300022EC9900032E0FEA3E0AA06F8AC027D31
:102DB300017BFF7A3379C2022EC9900032E0FEA371
:102DC300E0AA06F8AC027D017BFF7A3379DA022EA2
:102DD300C9900032E0FEA3E0AA06F8AC027D017BB5
:102DE300FF7A3379F4022EC9900032E0FEA3E0AA01
:102DF30006F8AC027D017BFF7A34791B022EC99061
:102E03000032E0FEA3E0AA06F8AC027D017BFF7A64
:102E130034793A022EC9900032E0FEA3E0AA06F804
:102E2300AC027D017BFF7A34795A022EC9900032BD
:102E3300E0FEA3E0AA06F8AC027D017BFF7A3479B9
:102E43006E022EC9900032E0FEA3E0AA06F8AC029F
:102E53007D017BFF7A34798C806C900032E0FEA395
:102E6300E0AA06F8AC027D017BFF7A3479A980568B
:102E7300900032E0FEA3E0AA06F8AC027D017BFFDE
:102E83007A3479CC8040900032E0FEA3E0AA06F8C1
:102E9300AC027D017BFF7A3479E5802A900032E031
:102EA300FEA3E0AA06F8AC027D017BFF7A3479F732
:102EB3008014900032E0FEA3E0AA06F8AC027D0184
:102EC3007BFF7A34793A121E37900032E0FEA3E09A
:102ED300AA06F97B0112A7E1E4900032F0A3F0D235
:012EE3008767
:012EE40022CB
:0E4C4B00900010EFF0A3EBF0A3EAF0A3E9F065
:104C590078147C007D017BFF7A3579997E007F0687
:104C69001219FE781B7C007D017BFF7A35799F7EC6
:104C7900007F281219FEC2879001A5E06003024D4A
:104C890022900010E024A56040146003024D1F1219
:104C9900B4B17BFF7A35791712000E90001AEFF044
:104CA900900011E0FBA3E0FAA3E0F912000E9000D6
:104CB9001AE02F04F0E4FDFF12BB5B90001A12BB4F
:104CC900557BFF7A357917803812B4B17BFF7A3575
:104CD900792012000E90001AEFF0900011E0FBA36A
:104CE900E0FAA3E0F912000E90001AE02F04F0E4B4
:104CF900FDFF12BB5B90001A12BB557BFF7A357919
:104D0900207D0112B4B9900011E0FBA3E0FAA3E001
:104D1900F97D0112B4B9D28722C287900010E0242C
:104D2900A5602F24C07003024DE724FE7003024ED4
:104D3900A124E97003024E2E24B6602524A2600343
:104D4900024EE8781B7C007D017BFF7A35792902C8
:104D59004DF3781B7C007D017BFF7A35793A024E51
:104D69003A781B7C007D017BFF7A35794812A7D8F8
:104D790020100B12B197781B7C007D018011781BE4
:104D89007C007D01900011E0FBA3E0FAA3E0F91299
:104D9900A7D8781B7C007D017BFF300B377A3579EA
:104DA90059121E37900049E4F0A37400F0A374115E
:104DB900F07B017A00791B12AE0290004974FFF072
:104DC900A37435F0A37437F07B017A00791B12AE16
:104DD90002024EE57A357960121E37024EE5781BDC
:104DE9007C007D017BFF7A357948121E37900011CE
:104DF900E0F9A3E0FAA3E0900049C9F0A3EAF0A31F
:104E0900E9F07B017A00791B12AE0290004974FF28
:104E1900F0A37435F0A37437F07B017A00791B1283
:104E2900AE02024EE5781B7C007D017BFF7A357965
:104E390062121E37900011E0FBA3E0FAA3E0F91219
:104E4900000E90001AEFF024FFFFE434FFFE9000FB
:104E590011E0FBA3E0FAA3E0F98F828E83E4121A32
:104E69007C900011E0F9A3E0FAA3E0900049C9F0B1
:104E7900A3EAF0A3E9F07B017A00791B12AE029054
:104E8900004974FFF0A37435F0A37437F07B017AFD
:104E990000791B12AE028044781B7C007D017BFFE8
:104EA9007A35798A121E37900011E0F9A3E0FAA346
:104EB900E0900049C9F0A3EAF0A3E9F07B017A0088
:104EC900791B12AE0290004974FFF0A37435F0A368
:104ED9007437F07B017A00791B12AE0212A7DBE46A
:064EE90090001BF0D287CF
:014EEF0022A0
:09BB5200900031E025E0FFE4FD64
:05BB5B00900048EDF030
:10BB600012B6BB900049EFF0900048E0600AE4FF95
:08BB700012B6BB900049EFF092
:01BB780022AA
:08B4B1007B017A007914E4FD2F
:0EB4B900900043EBF0A3EAF0A3E9F0A3EDF05E
:10B4C700E4A3F0900043E0FBA3E0FAA3E0F99000C7
:10B4D70047E0F582758300121A3DFF601090004621
:0DB4E700E0FD12BB5B900047E004F080D652
:01B4F4002235
:0EB3DF0090001DEBF0A3EAF0A3E9F0A3EDF05F
:10B3ED00E4900022F0900020E0FF900022E0FEC3E8
:10B3FD009F502490001DE0FBA3E0FAA3E0F98E829C
:10B40D00758300121A3DFF900021E0FD12BB5B9089
:07B41D000022E004F080CEE4
:01B424002205
:09A7D800121E377B017A00791B87
:0BA7E100900043EBF0A3EAF0A3E9F0C6
:10A7EC0012000E900047EFF0E4900046F090004706
:10A7FC00E0FF900046E0C39F503DE4900048F0908D
:10A80C000048E0C39464748094805005E004F080A8
:10A81C00EE900043E0FBA3E0FAA3E0F9A3E0F5829D
:10A82C00758300121A3DFF12B6BB900048EFF090F2
:10A83C000046E004F080B6E4900048F0900048E058
:0EA84C00C39464748094805005E004F080EEA4
:01A85A0022DB
:10AADB0078107C007D017BFF7A3579C77E007F0D76
:10AAEB001219FE9001A5E07022C2877B017A0079D2
:10AAFB0015128C83C29C7B017A007910E4900021A3
:10AB0B00F07D0D12B3DFD29CD28722C287E4900076
:10AB1B0010F078107C007D017BFF7A357990121E46
:10AB2B00377B017A007912125D2490004974FFF093
:10AB3B00A37435F0A37437F07B017A00791012AE51
:0CAB4B00027B017A00791012A7E1D2878A
:01AB570022DB
:10002600402321246046625E262A003A5B3C253F37
:1000360058545D3D29000D0A0A25733E20002563AC
:10004600002564000D0A0A2041435455414C2049BD
:10005600445F434C49454E54453D25730D0A0A00FD
:100066000D0A0A20444947495445205355204E5508
:1000760045564F2049445F434C49454E54453D0043
:100086000D0A0A204441544F204D4F4449464943E6
:1000960041444F2049445F434C49454E54453D2514
:1000A600730D0A0A000D0A0A2041435455414C209B
:1000B600434F445F5041524B3D25730D0A0A000DD4
:1000C6000A0A20444947495445205355204E554570
:1000D600564F20434F445F5041524B3D000D0A0A94
:1000E600204441544F204D4F444946494341444FD3
:1000F60020434F445F5041524B3D25730D0A0A0081
:100106000D0A0A2041435455414C205449454D504F
:100116004F5F4752414349413D25730D0A0A000D81
:100126000A0A20444947495445205355204E55450F
:10013600564F205449454D504F5F47524143494120
:100146003D000D0A0A204441544F204D4F44494674
:10015600494341444F205449454D504F5F47524112
:100166004349413D25730D0A0A000D0A0A20414301
:100176005455414C2053494E5F434F42524F2049FC
:100186004E484142494C495441444F3D25730D0A5E
:100196000A000D0A0A2041435455414C2053494E4A
:1001A6005F434F42524F204752415449533D2573B6
:1001B6000D0A0A000D0A0A2041435455414C2053AA
:1001C600494E5F434F42524F2047524154495320B4
:1001D600592053414C49444120454C204D49534DEB
:1001E6004F204449413D25730D0A0A000D0A0A2095
:1001F600444947495445205355204E5545564F20AE
:1002060053494E5F434F42524F3D000D0A0A20416B
:10021600435455414C20444542554720494E484198
:1002260042494C495441444F3D25730D0A0A000D7D
:100236000A0A2041435455414C2044454255472023
:10024600484142494C495441444F3D25730D0A0AE1
:10025600000D0A0A2044494749544520454C204E82
:100266005545564F2045535441444F20444520445C
:10027600454255473D000D0A0A2041435455414C1D
:10028600205553455F4C505220494E484142494CF7
:10029600495441444F3D25730D0A0A000D0A0A20B0
:1002A60041435455414C205553455F4C50522048CC
:1002B6004142494C495441444F3D25730D0A0A00B9
:1002C6000D0A0A2044494749544520454C204E55BD
:1002D60045564F2045535441444F204445205553DD
:1002E600455F4C50523D000D0A0A2050414E544184
:1002F6004C4C41204C434420484142494C495441CE
:1003060044413D25730D0A0A000D0A0A2050414E4C
:1003160054414C4C4120524153504245525259206F
:1003260020484142494C49544144413D25730D0AF8
:100336000A000D0A0A2044494749544520454C20E5
:100346004E5545564F2045535441444F2044452071
:100356004C412050414E54414C4C41203D000D0A29
:100366000A2041435455414C20434F4D5041524180
:1003760043494F4E2041435449564120204841426B
:10038600494C49544144413D25730D0A0A000D0A62
:100396000A20455850494445205441524A45544143
:1003A6002050554C53414E444F20424F544F4E0D12
:1003B6000A0A000D0A0A204558504944452054416E
:1003C600524A455441204155544F4D4154494341A9
:1003D6000D0A0A000D0A0A2044494749544520459A
:1003E6004C204E5545564F2045535441444F2044CA
:1003F600454C20455850454449444F523D000D0A4E
:100406000A2041435455414C20414E5449504153D2
:10041600534241434B20494E484142494C4954417D
:10042600444F3D25730D0A0A000D0A0A2041435424
:1004360055414C20414E5449504153534241434B40
:1004460020484142494C495441444F3D25730D0AC9
:100456000A000D0A0A2044494749544520454C20C4
:100466004E5545564F2045535441444F2044452050
:10047600414E5449504153534241434B3D000D0AAE
:100486000A2041435455414C20504C414341204998
:100496004E484142494C495441444F3D25730D0A4B
:1004A6000A000D0A0A2041435455414C20504C4144
:1004B600434120484142494C495441444F3D2573EC
:1004C6000D0A0A000D0A0A204449474954452045A9
:1004D6004C204E5545564F2045535441444F2044D9
:1004E6004520504C4143413D000D0A0A20414354EA
:1004F60055414C20414444524553535F484947486F
:100506005F424F4152443D25730D0A0A000D0A0A07
:1005160020444947495445204C41204E55455641B3
:1005260020414444524553535F484947485F424F30
:100536004152443D000D0A0A2041435455414C2086
:10054600484F524152494F20494E484142494C4931
:100556005441444F3D25730D0A0A000D0A0A2041F5
:10056600435455414C20484F524152494F2048412F
:1005760042494C495441444F3D25730D0A0A000D2A
:100586000A0A2044494749544520454C204E5545C2
:10059600564F2045535441444F20444520484F521E
:1005A6004152494F3D000D0A0A2044696769746546
:1005B60020486F72612030383A3030204D696E75B0
:1005C600746F732044657364653A20000D0A0A202F
:1005D600486F72612050726F6772616D616461204D
:1005E60044657364653A200025633A000D0A0A20C3
:1005F60044696769746520486F72613A4D696E7522
:10060600746F732048617374613A20000D0A0A20E2
:10061600486F72612050726F6772616D616461200C
:1006260048617374613A20000D0A2044657364655D
:10063600202048617374610D0A002025630025633C
:10064600202020000D0A0A20446967697465206C21
:100656006F73206469617320612070726F677261C5
:100666006D6172204C756E6573203D20322C200022
:100676004D6172746573203D20332C204D6965727F
:10068600636F6C6573203D20342C204A7565766552
:1006960073203D20352C2000566965726E657320E7
:1006A6003D20362C2053616261646F203D20372C3B
:1006B60020446F6D696E676F203D2031203A20001F
:1006C6000D0A0A20446961732050726F6772616D6A
:1006D60061646F73203A2000204C756E6573003D8F
:1006E6002025632C00204D617274657300204D69CE
:1006F6006572636F6C657300204A75657665730075
:1007060020566965726E6573002053616261646F7D
:100716000020446F6D696E676F003D2025630020E1
:100726004C756E6573203D2050726F6772616D6106
:10073600646F0D0A00204C756E6573203D204E6F68
:100746002070726F6772616D61646F0D0A00204DD3
:100756006172746573203D2050726F6772616D61BE
:10076600646F0D0A00204D6172746573203D204E42
:100776006F2070726F6772616D61646F0D0A002081
:100786004D696572636F6C6573203D2050726F67AB
:1007960072616D61646F0D0A00204D696572636F49
:1007A6006C6573203D204E6F2070726F6772616DAD
:1007B60061646F0D0A00204A7565766573203D20D9
:1007C60050726F6772616D61646F0D0A00204A7521
:1007D60065766573203D204E6F2070726F6772617B
:1007E6006D61646F0D0A0020566965726E6573202F
:1007F6003D2050726F6772616D61646F0D0A002053
:10080600566965726E6573203D204E6F2070726F5B
:100816006772616D61646F0D0A00205361626164E5
:100826006F203D2050726F6772616D61646F0D0AB3
:10083600002053616261646F203D204E6F2070720C
:100846006F6772616D61646F0D0A0020446F6D6998
:100856006E676F203D2050726F6772616D61646FC5
:100866000D0A0020446F6D696E676F203D204E6F44
:100876002070726F6772616D61646F0D0A000D0AF8
:100886000A2044696769746520656C206E756D651C
:10089600726F2064656C20486F726172696F2061A7
:1008A6002070726F6772616D6172203D20000D0AC3
:1008B6000A2050726F6772616D6172207365677589
:1008C6006E646F20486F726172696F2073693D288C
:1008D6003129206E6F3D2830293D20000D0A0A205F
:1008E60041435455414C205449504F5F5645484961
:1008F60043554C4F204D454E5355414C20494E488B
:100906004142494C495441444F3D25730D0A0A0062
:100916000D0A0A2041435455414C205449504F5F1B
:100926005645484943554C4F204D454E5355414C2D
:1009360020484142494C495441444F3D25730D0AD4
:100946000A000D0A0A2044494749544520454C20CF
:100956004E5545564F2045535441444F204445205B
:100966005449504F5F5645484943554C4F204D45D5
:100976004E5355414C3D000D0A0A20414354554102
:100986004C205449504F5F5645484943554C4F20DB
:10099600204D454E5355414C20484142494C4954FF
:1009A60041444F3D25730D0A0A000D0A0A204143B2
:1009B6005455414C20414E544950415353424143B2
:1009C6004B204D454E5355414C20494E48414249D6
:1009D6004C495441444F3D25730D0A0A000D0A0A3D
:1009E6002041435455414C20414E544950415353A4
:1009F6004241434B204D454E5355414C20484142C0
:100A0600494C495441444F3D25730D0A0A000D0ACD
:100A16000A2044494749544520454C204E554556E1
:100A26004F2045535441444F20444520414E54499C
:100A3600504153534241434B204D454E5355414C33
:100A46003D000D0A0A2041435455414C20414E5465
:100A560049504153534241434B20204D454E535537
:100A6600414C20484142494C495441444F3D25732D
:100A76000D0A0A000D0A0A2041435455414C2046EE
:100A8600454348412056454E43494D49454E544FEE
:100A96002050415353574F52443A25730D0A0A00CA
:100AA6000D0A0A2F3E496420526567697374726F96
:100AB6003A002573000D0A0A2F3E50617373776F53
:100AC60072643A000D0A0A20444947495445204CAD
:100AD60041204E5545564120464543484120444510
:100AE6002056454E43494D49454E544F3D000D0A4B
:100AF6000A2025730D0A0A000D0A0A202558000D42
:100B06000A0A2041435455414C204645434841205A
:100B160044452056454E43494D49454E544F205075
:100B2600524F4752414D414441203D25730D0A0A1B
:100B3600000D0A206E756D65726F2064656C204825
:100B46006F726172696F202070726F6772616D617A
:100B5600646F203D2025630D0A000D0A2020484FB2
:100B6600524152494F20484142494C495441444F11
:100B760020203D204F4E0D0A000D0A204469617366
:100B86002050726F6772616D61646F730D0A000D9C
:100B96000A2020534547554E444F20484F52415254
:100BA600494F20484142494C495441444F20203D39
:100BB600204F4E0D0A000D0A20534547554E444F0F
:100BC60020484F524152494F20484142494C4954CE
:100BD60041444F20203D204F46460D0A000D0A2075
:100BE60020484F524152494F20484142494C4954AE
:100BF60041444F20203D204F46460D0A000D0A2055
:100C060049445F434C49454E54455F50524F475205
:100C1600414D41444F203D2025730D0A000D0A2009
:100C2600434F445F5041524B5F50524F4752414DE4
:100C360041444F203D2025730D0A000D0A205052D5
:100C46004F4752414D41444F204445425547203D70
:100C5600204F4E0D0A000D0A2050524F4752414D6B
:100C660041444F204445425547203D204F46460DBE
:100C76000A000D0A205553455F4C5052203D204F27
:100C860046460D0A000D0A205553455F4C5052202A
:100C96003D204F4E0D0A000D0A2050414E54414C46
:100CA6004C41204C43442050524F4752414D414401
:100CB600410D0A000D0A2050414E54414C4C412032
:100CC600524153504245525259202050524F47529A
:100CD600414D4144410D0A000D0A204558504944F2
:100CE60045205441524A4554412050554C53414E9B
:100CF600444F20424F544F4E0D0A000D0A204558CE
:100D060050494445205441524A4554412041555486
:100D16004F4D41544943410D0A000D0A2020414ED2
:100D26005449504153534241434B203D204F464680
:100D36000D0A000D0A20414E544950415353424179
:100D4600434B203D204F4E0D0A000D0A20504C41CA
:100D56004341203D204F46460D0A000D0A20504CC7
:100D6600414341203D204F4E0D0A000D0A204143CC
:100D76005455414C20414444524553535F484947DA
:100D8600485F424F415244203D2025730D0A000D15
:100D96000A205449504F5F5645484943554C4F2009
:100DA6004D454E5355414C203D204F46460D0A00B9
:100DB6000D0A205449504F5F5645484943554C4FFC
:100DC600204D454E5355414C203D204F4E0D0A00B7
:100DD6000D0A20414E5449504153534241434B2042
:100DE6004D454E5355414C203D204F46460D0A0079
:100DF6000D0A2020414E5449504153534241434B22
:100E0600204D454E5355414C203D204F4E0D0A0076
:100E16000D0A2041435455414C2046454348412044
:100E260044452056454E43494D49454E544F205062
:100E3600524F4752414D414441203D25730D0A0012
:100E46000D0A2049445F434C49454E544520202015
:100E56002020202020202D2D2D20434D44203020E1
:100E66004964656E746966696361646F722064655E
:100E76006C20636C69656E7465206D6178696D6F51
:100E860020323535000D0A20434F445F5041524B06
:100E960020202020202020202020202D2D2D204302
:100EA6004D44203120456C206E756D65726F20644F
:100EB600656C20706172717565616465726F206D15
:100EC6006178696D6F20323535000D0A20545F4711
:100ED600524143494120202020202020202020204C
:100EE6002D2D2D20434D442032205469656D706FA1
:100EF6002073696E20636F62726F2030302C202061
:100F06006D6178696D6F20323535000D0A205349C1
:100F16004E5F434F42524F20202020202020202089
:100F2600202D2D2D20434D44203320496E686162CB
:100F3600696C697461646F3D20302C20477261745E
:100F460069733D2031202C204772617469732079C2
:100F56002073616C69646120656C206D69736D6FC7
:100F6600206469613D2032000D0A20444542554700
:100F760020202020202020202020202020202D2D51
:100F86002D20434D44203420486162696C697461A8
:100F960072203D20312C20496E686162696C69744B
:100FA6006172203D2030000D0A205553455F4C509C
:100FB600522020202020202020202020202D2D2DD2
:100FC60020434D44203520486162696C6974617222
:100FD600203D20312C20496E686162696C6974611C
:100FE60072203D2030000D0A205449504F5F504179
:100FF6004E54414C4C412020202020202D2D2D20C8
:10100600434D4420362050414E54414C4C41204CD7
:101016004344203D302050414E54414C4C412052D7
:1010260041535042455252493D31000D0A20434139
:1010360052445F4155544F4D41544943412020206D
:10104600202D2D2D20434D44203720424F54544F00
:101056004E3D30204155544F4D41544943413D3159
:10106600000D0A20414E5449504153534241434BCF
:10107600202020202020202D2D2D20434D442038B7
:1010860020486162696C69746172203D20312C20B0
:10109600496E686162696C69746172203D20300036
:1010A6000D0A20504C4143412020202020202020A2
:1010B6002020202020202D2D2D20434D4420392076
:1010C600486162696C69746172203D20312C204947
:1010D6006E686162696C69746172203D2030000D32
:1010E6000A20414444524553535F484947485F42AA
:1010F6004F415244202D2D2D20434D442031302088
:101106004C6120646972656363696F6E20616C74FB
:10111600612064656C20626F6172642064656C2076
:101126006E756D65726F203520616C20392073698C
:101136006E6F207365207573612064656265206932
:101146007220656E2030000D0A20484F52415249E8
:101156004F2020202020202020202020202D2D2D33
:1011660020434D442031312050726F67616D6120FC
:10117600313020686F726172696F732064656C200C
:101186003120616C203130000D0A2056414C494413
:10119600415F564548495F4D454E5355414C2D2DAF
:1011A6002D20434D4420313220486162696C6974B8
:1011B6006172203D20312C20496E686162696C693C
:1011C600746172203D2030000D0A205553455F4161
:1011D60050425F4D454E5355414C202020202D2D29
:1011E6002D20434D4420313320486162696C697477
:1011F6006172203D20312C20496E686162696C69FC
:10120600746172203D2030000D0A205645525F5011
:10121600524F4752414D4143494F4E2020202D2DDC
:101226002D20434D44203134204D75657374726111
:10123600206C612070726F6772616D6163696F6E99
:10124600000D0A204159554441202020202020200D
:10125600202020202020202D2D2D20434D442031DC
:1012660035204D756573747261206C6F7320636FE2
:101276006D616E646F73000D0A2053414C49522014
:10128600202020202020202020202020202D2D2D31
:1012960020434D442031362053616C6972206465C9
:1012A6002070726F6772616D6163696F6E000D0AFF
:1012B6000A53697374656D612064652050726F67A7
:1012C60072616D6163696F6E2045787065646964EB
:1012D6006F72200D0A0D0A000D0A436F6D616E6470
:1012E6006F206E6F206578697374652027257327D4
:1012F600003A5B3C253F58545D3D2900232A594A54
:1013060041494D4563616D696C744B0077727A3261
:10131600357136382D393166532E4000200D0A00BE
:08132600200D0A00220D0A004F
:10898A005401BE2F0000000000000000000000009B
:10899A00000000000000004B01B361646D696E00C5
:1089AA000000000000603601D230000031000032C1
:1089BA0000003300003400003500003600003700A4
:1089CA000038000039000031300031310031320006
:0F89DA0031330031340031350031360031370090
:0B535B0090005DEBF0A3EAF0A3E9F086
:1053660078627C007D017BFF7A1279F77E007F0BE5
:105376001219FE786D7C007D017BFF7A1379027E1F
:10538600007F101219FE787D7C007D017BFF7A1369
:1053960079127E007F101219FE7B017A0079987FC0
:1053A600507E0312AE6D7B017A007998128BBAEFAC
:1053B6003395E0FEEF64014E78627C007D017BFF51
:1053C60060067A00792680047A007931121E3790B9
:1053D600005DE0FBA3E0FAA3E0F912000E90006086
:1053E600EFF0E4A3F0900061E0FFC3940A748094A8
:1053F60080400302554D90005DE0FBA3E0FAA3E078
:10540600F98F82758300121A3DFD7C0074622FF5B8
:1054160082E43400F583E02DFFEC339001AFF0A376
:10542600EFF07E00540FFFA3EEF0A3EFF0700BE059
:1054360004F070069001B1E004F09001B1E0FEA323
:10544600E0246CF58274003EF583E07E002DFFEECD
:105456003C9001AFF0A3EFF07E00540FFFA3EEF0F7
:10546600A3EFF0700BE004F070069001B1E004F0D9
:105476009001B1E0FEA3E0247CF58274003EF58342
:10548600E0FF9001AFE0FEA3E06FFF9001AFEEF00A
:10549600FEA3EFF0D394FFEE940040059001AFE435
:1054A600F09001AFE0FEA3E0FFC3947AEE940040D3
:1054B60015D3EF94FFEE9400500CEF547AFF900151
:1054C600AFE4F0A3EFF0C39001B0E094309001AFE9
:1054D600E09400500CA3E02440F09001AFE03400CB
:1054E600F09001AFE0FEA3E0FFC3945BEE940040B2
:1054F60014D3EF9460EE9400500BE02407F0900173
:10550600AFE03400F09001AFE0FEA3E0FFC3943AB1
:10551600EE94004014D3EF9440EE9400500BE02438
:10552600F9F09001AFE034FFF09001AFA3E0FF90F7
:105536000061E0248DF582E43400F583EFF09000FD
:1055460061E004F00253EB900061E0248DF582E403
:0C5556003400F583E4F07B017A00798DCD
:015562002226
:0BAED300900046EBF0A3EAF0A3E9F0CA
:10AEDE00E490004CF090004CE0FFC3941274809408
:10AEEE00805041EF75F003A424D2F9740135F0FAC5
:10AEFE007B0178497C007D01121E3778497C007DEC
:10AF0E0001900046E0FBA3E0FAA3E0F9121D4EEF1C
:10AF1E003395E04F700690004CE0FF2290004CE01D
:06AF2E0004F080B17FFF7A
:01AF340022FA
:08B53800E0FBA3E0FAA3E0F937
:0BB5400090005DEBF0A3EAF0A3E9F03F
:10B54B0078607C007D017B017A0179B3121E37781C
:10B55B00607C007D0190005DE0FBA3E0FAA3E0F9C5
:0EB56B00121D4EEF3395E04F7002FF227FFF5E
:01B5790022AF
:06B5FC007B017A007932A8
:0BB6020090005DEBF0A3EAF0A3E9F07C
:10B60D0078607C007D017BFF7A1379227E007F04B8
:10B61D001219FE9000677401F0A37400F0A374601A
:0FB62D00F090005DE0FBA3E0FAA3E0F902842BAC
:10A1F600E0FBA3E0FAA3E02FF9EA3EFAE92401F92D
:03A20600E43AFA3D
:0BA20900900046EBF0A3EAF0A3E9F0A0
:10A2140078497C007D017BFF7A1379267E007F04D8
:10A224001219FE784D7C007D017BFF7A13792A7E1A
:10A23400007F041219FE900046E0FBA3E0FAA3E0BD
:10A24400F9121A24FFB4200C900047E475F00112AF
:10A254001AB080E2EF900067B4220D7401F0A37489
:10A2640000F0A3744DF080167401F0A37400F0A301
:10A274007449F0900046E0FBA3E0FAA3E0F91284ED
:01A284002BAE
:01A2850022B6
:10BD420090007A7401F0A37401F0A374BEF07BFF3B
:07BD52007A00793C023B1965
:08A8DC007A0079637B01E4FDC1
:0EA8E400900071EBF0A3EAF0A3E9F0A3EDF011
:10A8F20012BE49900071E0FBA3E0FAA3E0F9EF1267
:10A902001A6A900074E0701D900071E0FBA3E0FAF7
:10A91200A3E0F9121A2490007AF07BFF7A007944BE
:10A92200123B1980057F2A12B6BB900071E0FBA38F
:10A93200E0FAA3E0F9121A24FF7E00900072E47597
:10A94200F001121AB0900071E0FBA3E0FAA3E0F963
:09A95200E4121A6AEF640D70971B
:01A95B0022D9
:1094BD00E4FDFC7FA812B7787E00900050EEF0A37B
:1094CD00EFF090007A74FFF0A37400F0A37447F0EE
:1094DD00A3EEF0A3EFF07B017A007946123B1390D7
:1094ED00007A7401F0A37400F0A37446F07BFF7A48
:1094FD0000794A123B197BFF7A007966123B197A83
:10950D0000794612A8E07B017A0079461286C9904F
:10951D000050EEF0A3EFF0FBE4FDFC7FA812B0BE0F
:10952D00E4FDFC7FA812B7787E00900050EEF0A30A
:10953D00EFF090007A74FFF0A37400F0A37447F07D
:10954D00A3EEF0A3EFF07B017A007946123B139066
:10955D00007A7401F0A37400F0A37446F07BFF7AD7
:06956D00007986023B19A3
:1091CF007D027C007FA812B7787E00900050EEF0F1
:1091DF00A3EFF090007A74FFF0A37400F0A374472C
:1091EF00F0A3EEF0A3EFF07B017A007946123B1368
:1091FF0090007A7401F0A37400F0A37446F07BFF23
:10920F007A0079AB123B197BFF7A0079C5123B19B3
:10921F007B017A007946E4FD12A8E47B017A00799C
:10922F00461286C9900050EEF0A3EFF0FB7D027C52
:10923F00007FA812B0BE7D027C007FA812B7787E97
:10924F0000900050EEF0A3EFF090007A74FFF0A3BF
:10925F007400F0A37447F0A3EEF0A3EFF07B017A54
:10926F00007946123B1390007A7401F0A37400F05A
:0D927F00A37446F07BFF7A0079E3023B19EF
:10928C007D047C007FA812B7787E00900050EEF031
:10929C00A3EFF090007A74FFF0A37400F0A374476E
:1092AC00F0A3EEF0A3EFF07B017A007946123B13AA
:1092BC0090007A7401F0A37400F0A37446F07BFF65
:1092CC007A017906123B197BFF7A017925123B1939
:1092DC007B017A007946E4FD12A8E47B017A0079DF
:1092EC00461286C9900050EEF0A3EFF0FB7D047C93
:1092FC00007FA812B0BE7D047C007FA812B7787ED8
:10930C0000900050EEF0A3EFF090007A74FFF0A301
:10931C007400F0A37447F0A3EEF0A3EFF07B017A96
:10932C00007946123B1390007A7401F0A37400F09C
:0D933C00A37446F07BFF7A017948023B19CB
:106AB2007D067C007FA812B7787E00900050EEF031
:106AC200A3EFF090007A74FFF0A37400F0A3744770
:106AD200F0A3EEF0A3EFF07B017A007946123B13AC
:106AE200900050E07002A3E0701590007A04F0A3C9
:106AF2007400F0A37446F07BFF7A017970803590C0
:106B02000050E07004A3E06401701590007A04F074
:106B1200A37400F0A37446F07BFF7A017998801485
:106B220090007A7401F0A37400F0A37446F07BFF26
:106B32007A0179BA123B197BFF7A0179F2123B1979
:106B42007B017A007946E4FD12A8E47B017A0079A0
:106B5200461286C9900050EEF0A3EFF0FB7D067C52
:106B6200007FA812B0BE7D067C007FA812B7787E97
:106B720000900050EEF0A3EFF090007A74FFF0A3C3
:106B82007400F0A37447F0A3EEF0A3EFF07B017A58
:106B9200007946123B13900050E07002A3E070159A
:106BA20090007A04F0A37400F0A37446F07BFF7A9D
:106BB2000179708035900050E07004A3E0640170A8
:106BC2001590007A04F0A37400F0A37446F07BFFE2
:106BD2007A017998801490007A7401F0A37400F01D
:0D6BE200A37446F07BFF7A0179BA123B19CB
:016BEF002283
:107A83007D087C007FA812B7787E00900050EEF04E
:107A9300A3EFF090007A74FFF0A37400F0A374478F
:107AA300F0A3EEF0A3EFF07B017A007946123B13CB
:107AB300900050E07002A3E0701590007A04F0A3E8
:107AC3007400F0A37446F07BFF7A0279118014905E
:107AD300007A7401F0A37400F0A37446F07BFF7A7C
:107AE300027935123B197BFF7A027957123B197BD6
:107AF300017A007946E4FD12A8E47B017A00794615
:107B03001286C9900050EEF0A3EFF0FB7D087C00D5
:107B13007FA812B0BE7D087C007FA812B7787E00D4
:107B2300900050EEF0A3EFF090007A74FFF0A3748E
:107B330000F0A37447F0A3EEF0A3EFF07B017A000B
:107B43007946123B13900050E07002A3E070159049
:107B5300007A04F0A37400F0A37446F07BFF7A026A
:107B63007911801490007A7401F0A37400F0A37467
:0B7B730046F07BFF7A027935123B19C7
:017B7E0022E4
:107B7F007D0A7C007FA812B7787E00900050EEF04F
:107B8F00A3EFF090007A74FFF0A37400F0A3744792
:107B9F00F0A3EEF0A3EFF07B017A007946123B13CE
:107BAF00900050E07002A3E0701590007A04F0A3EB
:107BBF007400F0A37446F07BFF7A02797C801490F6
:107BCF00007A7401F0A37400F0A37446F07BFF7A7F
:107BDF000279A2123B197BFF7A0279C6123B197BFD
:107BEF00017A007946E4FD12A8E47B017A00794618
:107BFF001286C9900050EEF0A3EFF0FB7D0A7C00D7
:107C0F007FA812B0BE7D0A7C007FA812B7787E00D5
:107C1F00900050EEF0A3EFF090007A74FFF0A37491
:107C2F0000F0A37447F0A3EEF0A3EFF07B017A000E
:107C3F007946123B13900050E07002A3E07015904C
:107C4F00007A04F0A37400F0A37446F07BFF7A026D
:107C5F00797C801490007A7401F0A37400F0A374FF
:0B7C6F0046F07BFF7A0279A2123B195D
:017C7A0022E7
:107C7B007D0E7C007FA812B7787E00900050EEF04E
:107C8B00A3EFF090007A74FFF0A37400F0A3744795
:107C9B00F0A3EEF0A3EFF07B017A007946123B13D1
:107CAB00900050E07002A3E0701590007A04F0A3EE
:107CBB007400F0A37446F07BFF7A0279ED80149088
:107CCB00007A7401F0A37400F0A37446F07BFF7A82
:107CDB0003790F123B197BFF7A037938123B197B1F
:107CEB00017A007946E4FD12A8E47B017A0079461B
:107CFB001286C9900050EEF0A3EFF0FB7D0E7C00D6
:107D0B007FA812B0BE7D0E7C007FA812B7787E00D4
:107D1B00900050EEF0A3EFF090007A74FFF0A37494
:107D2B0000F0A37447F0A3EEF0A3EFF07B017A0011
:107D3B007946123B13900050E07002A3E07015904F
:107D4B00007A04F0A37400F0A37446F07BFF7A0270
:107D5B0079ED801490007A7401F0A37400F0A37491
:0B7D6B0046F07BFF7A037964123B199D
:017D760022EA
:108ECF007D0F7C007FA812B7787E00900050EEF0E7
:108EDF00A3EFF090007A74FFF0A37400F0A374472F
:108EEF00F0A3EEF0A3EFF07B017A007946123B136B
:108EFF00900050E07002A3E07BFF70067A03799434
:108F0F0080047A0379B9123B197BFF7A0379DA125D
:108F1F003B197B017A007946E4FD12A8E47B017AC4
:108F2F000079461286C9900050EEF0A3EFF0FB7D5A
:108F3F000F7C007FA812B0BE7D0F7C007FA812B7F8
:108F4F00787E00900050EEF0A3EFF090007A74FF5F
:108F5F00F0A37400F0A37447F0A3EEF0A3EFF07B3F
:108F6F00017A007946123B13900050E07002A3E0A3
:108F7F007BFF70067A03799480047A0379B9123BE8
:018F8F0019C8
:018F900022BE
:107D77007D107C007FA812B7787E00900050EEF04F
:107D8700A3EFF090007A74FFF0A37400F0A3744798
:107D9700F0A3EEF0A3EFF07B017A007946123B13D4
:107DA700900050E07002A3E0701590007A04F0A3F1
:107DB7007400F0A37446F07BFF7A04790480149072
:107DC700007A7401F0A37400F0A37446F07BFF7A85
:107DD70004792F123B197BFF7A047958123B197BE0
:107DE700017A007946E4FD12A8E47B017A0079461E
:107DF7001286C9900050EEF0A3EFF0FB7D107C00D7
:107E07007FA812B0BE7D107C007FA812B7787E00D5
:107E1700900050EEF0A3EFF090007A74FFF0A37497
:107E270000F0A37447F0A3EEF0A3EFF07B017A0014
:107E37007946123B13900050E07002A3E070159052
:107E4700007A04F0A37400F0A37446F07BFF7A0471
:107E57007904801490007A7401F0A37400F0A3747D
:0B7E670046F07BFF7A04792F123B19D4
:017E720022ED
:107E73007D117C007FA812B7787E00900050EEF051
:107E8300A3EFF090007A74FFF0A37400F0A374479B
:107E9300F0A3EEF0A3EFF07B017A007946123B13D7
:107EA300900050E07002A3E0701590007A04F0A3F4
:107EB3007400F0A37446F07BFF7A047984801490F5
:107EC300007A7401F0A37400F0A37446F07BFF7A88
:107ED3000479A8123B197BFF7A0479CA123B197BF8
:107EE300017A007946E4FD12A8E47B017A00794621
:107EF3001286C9900050EEF0A3EFF0FB7D117C00D9
:107F03007FA812B0BE7D117C007FA812B7787E00D7
:107F1300900050EEF0A3EFF090007A74FFF0A3749A
:107F230000F0A37447F0A3EEF0A3EFF07B017A0017
:107F33007946123B13900050E07002A3E070159055
:107F4300007A04F0A37400F0A37446F07BFF7A0474
:107F53007984801490007A7401F0A37400F0A37400
:0B7F630046F07BFF7A0479A8123B195E
:017F6E0022F0
:10850F007D127C007FA812B7787E00900050EEF0AD
:10851F00A3EFF090007A74FFF0A37400F0A37447F8
:10852F00F0A3EEF0A3EFF07B017A007946123B1334
:10853F00900050E07002A3E0700690007A0480056E
:10854F0090007A7401F0A37400F0A37446F07BFFDF
:10855F007A0479EF123B197BFF7A057913123B19D5
:10856F007B017A007946E4FD12A8E47B017A007959
:10857F00461286C9900050EEF0A3EFF0FB7D127CFF
:10858F00007FA812B0BE7D127C007FA812B7787E44
:10859F0000900050EEF0A3EFF090007A74FFF0A37C
:1085AF007400F0A37447F0A3EEF0A3EFF07B017A11
:1085BF00007946123B13900050E07002A3E0700662
:1085CF0090007A04800590007A7401F0A37400F093
:0D85DF00A37446F07BFF7A0479EF123B197C
:0185EC00226C
:10B9ED009000747419F0A37432F0A3744BF0A37427
:10B9FD0064F0A3747DF0A37496F0A374AFF0A374F8
:10BA0D00C8F0A374E1F0A374FAF0E4A3F07B017A1B
:03BA1D0000797439
:01BA20002203
:0A731D00900061EEF0FCA3EFF0FD1C
:107327007FA812B7787E0090006DEEF0A3EFF09083
:10733700007A74FFF0A37400F0A37447F0A3EEF093
:10734700A3EFF07B017A007963123B1390006DE0A5
:107357007002A3E0701590007A04F0A37400F0A304
:107367007463F07BFF7A05793B801490007A74018F
:10737700F0A37400F0A37463F07BFF7A05796112C0
:107387003B197BFF7A057985123B197B017A0079D6
:1073970063E4FD12A8E47B017A0079631286C99041
:1073A700006DEEF0A3EFF0900061E0FCA3E0FDAB11
:1073B700077FA812B0BE900061E0FCA3E0FD7FA8A4
:1073C70012B7787E0090006DEEF0A3EFF090007A90
:1073D70074FFF0A37400F0A37447F0A3EEF0A3EFDB
:1073E700F07B017A007963123B1390006DE0700225
:1073F700A3E090006F7018F0A3F090007A04F0A358
:107407007400F0A37463F07BFF7A05793B8017E47F
:10741700F0A304F090007AF0A37400F0A37463F073
:0F7427007BFF7A057961123B1990006FA3E0FF9C
:017436002233
:08556300900061EEF0A3EFF0EF
:10556B007BFF7A0579AC123B1912A8DC7BFF7A051D
:10557B0079D2123B19900062E02407FD900061E0A4
:10558B003400FC900063E0FB7FA812B0BE90006279
:10559B00E02407FD900061E03400FC7FA812B7788F
:1055AB007BFF7A00794490007AEFF0123B19900060
:1055BB0062E02408FD900061E03400FC900064E0A0
:1055CB00FB7FA812B0BE900062E02408FD90006142
:1055DB00E03400FC7FA812B7787BFF7A0579EE9058
:1055EB00007AEFF0123B19900062E02409FD900065
:1055FB0061E03400FC900066E0FB7FA812B0BE9027
:10560B000062E02409FD900061E03400FC7FA812E9
:10561B00B7787BFF7A00794490007AEFF0123B1950
:10562B00900062E0240AFD900061E03400FC9000E1
:10563B0067E0FB7FA812B0BE900062E0240AFD90E9
:10564B000061E03400FC7FA812B7787BFF7A007909
:10565B004490007AEFF0123B197BFF7A0579F21236
:10566B003B1912A8DC7BFF7A067912123B199000CA
:10567B0062E0240BFD900061E03400FC900063E0DD
:10568B00FB7FA812B0BE900062E0240BFD9000617E
:10569B00E03400FC7FA812B7787BFF7A0079449046
:1056AB00007AEFF0123B19900062E0240CFD9000A1
:1056BB0061E03400FC900064E0FB7FA812B0BE9068
:1056CB000062E0240CFD900061E03400FC7FA81226
:1056DB00B7787BFF7A0579EE90007AEFF0123B19E1
:1056EB00900062E0240DFD900061E03400FC90001E
:1056FB0066E0FB7FA812B0BE900062E0240DFD9027
:10570B000061E03400FC7FA812B7787BFF7A007948
:10571B004490007AEFF0123B19900062E0240EFDEA
:10572B00900061E03400FC900067E0FB7FA812B0B2
:10573B00BE900062E0240EFD900061E03400FC7F1F
:10574B00A812B7787BFF7A00794490007AEFF002C9
:02575B003B19F8
:08743700900074EEF0A3EFF0E9
:10743F007BFF7A06792E123B19900075E02407FD29
:10744F00900074E03400FC7FA812B7787BFF7A06B7
:10745F00794090007AEFF0123B19900075E0240804
:10746F00FD900074E03400FC7FA812B7787BFF7AA0
:10747F000579EE90007AEFF0123B19900075E02439
:10748F0009FD900074E03400FC7FA812B7787BFFF1
:10749F007A00794490007AEFF0123B19900075E072
:1074AF00240AFD900074E03400FC7FA812B7787BAB
:1074BF00FF7A06794490007AEFF0123B199000752D
:1074CF00E0240BFD900074E03400FC7FA812B77825
:1074DF007BFF7A00794490007AEFF0123B1990000D
:1074EF0075E0240CFD900074E03400FC7FA812B707
:1074FF00787BFF7A0579EE90007AEFF0123B1990C6
:10750F000075E0240DFD900074E03400FC7FA8129C
:10751F00B7787BFF7A00794490007AEFF0123B192D
:10752F00900075E0240EFD900074E03400FC7FA8FD
:10753F0012B7787BFF7A00794490007AEFF0023B24
:01754F001922
:08499400900061EEF0A3EFF0CA
:10499C007BFF7A06794A123B197BFF7A06797612ED
:1049AC003B197BFF7A06799E123B197B017A0079C1
:1049BC0063E4FD12A8E47BFF7A0679C6123B19E486
:1049CC0090006EF090006EE0FFC3940874809480A9
:1049DC004003024C4A74632FF582E43400F583E003
:1049EC0090006FF0643270437BFF7A0679DE123BE5
:1049FC0019900062E02401FD900061E03400FC7B22
:104A0C00327FA812B0BE900062E02401FD900061DC
:104A1C00E03400FC7FA812B77890006DEFF07BFFBC
:104A2C007A0679E590007AF0123B1990006EE0243A
:104A3C0063F582E43400F583E090006FF06433702A
:104A4C00437BFF7A0679EB123B19900062E024025B
:104A5C00FD900061E03400FC7B337FA812B0BE9067
:104A6C000062E02402FD900061E03400FC7FA8129B
:104A7C00B77890006DEFF07BFF7A0679E590007ABD
:104A8C00F0123B1990006EE02463F582E43400F5DB
:104A9C0083E090006FF0643470437BFF7A0679F307
:104AAC00123B19900062E02403FD900061E0340099
:104ABC00FC7B347FA812B0BE900062E02403FD9012
:104ACC000061E03400FC7FA812B77890006DEFF025
:104ADC007BFF7A0679E590007AF0123B1990006E14
:104AEC00E02463F582E43400F583E090006FF06419
:104AFC003570437BFF7A0679FE123B19900062E019
:104B0C002404FD900061E03400FC7B357FA812B0DA
:104B1C00BE900062E02404FD900061E03400FC7F54
:104B2C00A812B77890006DEFF07BFF7A0679E590CC
:104B3C00007AF0123B1990006EE02463F582E434A5
:104B4C0000F583E090006FF0643670437BFF7A07CA
:104B5C007906123B19900062E02405FD900061E09B
:104B6C003400FC7B367FA812B0BE900062E02405B6
:104B7C00FD900061E03400FC7FA812B77890006DC6
:104B8C00EFF07BFF7A0679E590007AF0123B1990F2
:104B9C00006EE02463F582E43400F583E090006F4E
:104BAC00F0643770437BFF7A07790F123B19900042
:104BBC0062E02406FD900061E03400FC7B377FA8A6
:104BCC0012B0BE900062E02406FD900061E034005B
:104BDC00FC7FA812B77890006DEFF07BFF7A067916
:104BEC00E590007AF0123B1990006EE02463F58298
:104BFC00E43400F583E090006FF0643170377BFF94
:104C0C007A077917123B19900061E0FCA3E0FD7B59
:104C1C00317FA812B0BE900061E0FCA3E0FD7FA83C
:104C2C0012B77890006DEFF07BFF7A077920900037
:0E4C3C007AF0123B1990006EE004F00249D0AD
:014C4A002247
:0871F500900074EEF0A3EFF02E
:1071FD002401FDE43EFC7FA812B778900076EFF0F5
:10720D0064327BFF70067A07792580047A07793B13
:10721D00123B19900075E02402FD900074E03400DB
:10722D00FC7FA812B778900076EFF064337BFF7087
:10723D00067A07795480047A07796B123B1990000E
:10724D0075E02403FD900074E03400FC7FA812B7B4
:10725D0078900076EFF064347BFF70067A077985BD
:10726D0080047A07799F123B19900075E02404FD84
:10727D00900074E03400FC7FA812B778900076EF90
:10728D00F064357BFF70067A0779BC80047A077944
:10729D00D3123B19900075E02405FD900074E03485
:1072AD0000FC7FA812B778900076EFF064367BFF74
:1072BD0070067A0779ED80047A087905123B1990EA
:1072CD000075E02406FD900074E03400FC7FA812E8
:1072DD00B778900076EFF064377BFF70067A087907
:1072ED002080047A087937123B19900074E0FCA3D2
:1072FD00E0FD7FA812B778900076EFF064317BFF48
:0F730D0070067A08795180047A087969123B1961
:01731C00224E
:10696D0012B9ED78507C007D01121E377BFF7A083D
