:108BC0004101710A4101A4004101AF004101A5002A
:108BD0004101AD004201A600004101AE064101B3D2
:0F8BE000034101B2F2C10AC10BC109410170008A
:03000B0002BE35FD
:10BE3500C0E0C083C082900171E014F0E06401703D
:10BE4500069001A4E004F09001A7E004F0700690CC
:0EBE550001A6E004F0C28DD082D083D0E0328E
:10C1CD00E58954F04401F589E4F58CF58AD28C2289
:05C26C00C28DD2A922E1
:03C27600C2A92238
:0BC1FC0012BF2CEFF47002EEF460F5AF
:01C207002214
:05B9C9009000A7EFF063
:10B9CE009000A7E0FF12BBAFEF3395E04F6024E489
:10B9DE009000A8F0A3F0C39000A9E094E89000A80E
:10B9EE00E0940350DBA3E004F070EB9000A8E004B9
:08B9FE00F080E39000A7E0FFD8
:01BA0600221D
:0EB6A800900027EBF0A3EAF0A3E9F0A3EDF089
:10B6B600E4A3F090002AE0FFA3E0C39F5029900086
:10B6C60027E0FBA3E0FAA3E0F9121A24FF12B9C996
:10B6D60090002CEFF0900028E475F001121AB0905B
:07B6E600002BE004F080CC12
:01B6ED00223A
:10C1DD0012C27112C22E12C212C283D287C297220C
:10B77A007D047C007FA812BA869001B0E4F0A3EFA2
:10B78A00F07D067C007FA812BA869001ABE4F0A394
:10B79A00EFF07D0A7C007FA812BA869001A8EFF02C
:10B7AA007D0E7C007FA812BA869001AAEFF0900164
:05B7BA00A97401F0225A
:10ACF00012C1CD12C26C12BE6312BEB512C1DDD23A
:10AD0000AF12C08B7F217E0012C16112C10C7F6126
:10AD100012B54112C2352091031254A012B77A1213
:10AD20006E0DEF70FA9001717405F020800312BF70
:10AD300078900170E0FF123AC2900170EFF020B3FA
:10AD4000292009267B017A01794812A19A900000F6
:10AD5000EFF0FD7B017A01794812B94A7B017A0153
:0FAD60007948900000E0FD1235AC12995680BC86
:10BB39007072696D6172696F204243433D20000D47
:10BB49000A0063616C63756C6F204243433D2000BA
:10BB59005245454E56494152207472616D612048E3
:0BBB69006F72613A20004C4956450005
:0E35AC00900001EBF0A3EAF0A3E9F0A3EDF02C
:1035BA00E4A3F0ED641A60030236DD900001E0FB3B
:1035CA00A3E0FAA3E0F9121A24640260030236DDCA
:1035DA00900002121A3D644860030236DD9000042E
:1035EA00E07E0024FEF582EE34FFF583121A3D6474
:1035FA000360030236DD7BFF7ABB793912B59490FA
:10360A000001E0FBA3E0FAA3E0F9900019121A3DC9
:10361A00FF12B61A7BFF7ABB794812B59490000163
:10362A00E0FBA3E0FAA3E0F9A3E014FD12BD389091
:10363A000005EFF07BFF7ABB794B12B59490000539
:10364A00E0FF12B61A7BFF7ABB794812B594900054
:10365A0001E0FBA3E0FAA3E0F9900019121A3DFF7A
:10366A00900005E0B50726E92403F9E43AFA12784E
:10367A009BEF6003023AC1900001E0FBA3E0FAA3CA
:10368A00E02403F9E43AFA129DF302AD6F900011B7
:10369A007402F0A37405F0A37403F0E4A3F07B01B1
:1036AA007A0079117D041298A27BFF7ABB795912AC
:1036BA00B594900011E0FF12B61A900012E0FF12C2
:1036CA00B61A900013E0FF12B61A7BFF7ABB79484C
:1036DA0002B594900001E0FBA3E0FAA3E0F9121A04
:1036EA002464B170057F600238F4900001E0FBA306
:1036FA00E0FAA3E0F9121A2464B270057F5D023879
:10370A00F4900001E0FBA3E0FAA3E0F9121A2464A2
:10371A00B370057F630238F4900004E06401701707
:10372A00900001E0FBA3E0FAA3E0F9121A2464B4C2
:10373A0070057F5E0238F4900004E064017017900F
:10374A000001E0FBA3E0FAA3E0F9121A2464B570C1
:10375A00057F620238F4900001E0FBA3E0FAA3E0DF
:10376A00F9121A2464B67028900218E004F0E0D323
:10377A009404748094805003023AC17FAE12277673
:10378A00C282E49001A4F0C297C283900218F02288
:10379A00900001E0FBA3E0FAA3E0F9121A24FF6407
:1037AA00B76005EF64AA70539001A4E0C39414743F
:1037BA008094804008E4F0C297D282C2839001A923
:1037CA00E06003023AC19001A8E064016003023A92
:1037DA00C1C39001A7E094589001A6E09402500357
:1037EA00023AC1E4F0A3F09001A904F07BFF7ABB8E
:1037FA00796F12B594E49001A9F022900004E06474
:10380A00017017900001E0FBA3E0FAA3E0F9121A95
:10381A002464B870057F9A0238F4900004E06401C9
:10382A007015900001E0FBA3E0FAA3E0F9121A2454
:10383A006455700302BC96900004E064017017900E
:10384A000001E0FBA3E0FAA3E0F9121A2464A170D4
:10385A00057F5A0238F4900004E064017016900063
:10386A0001E0FBA3E0FAA3E0F9121A24640570044C
:10387A007F9C8076900004E064017016900001E05D
:10388A00FBA3E0FAA3E0F9121A24640670047F9EEF
:10389A008058900004E064017016900001E0FBA3D8
:1038AA00E0FAA3E0F9121A24640770047F5F803AF1
:1038BA00900004E064017016900001E0FBA3E0FAB6
:1038CA00A3E0F9121A24640870047F61801C900036
:1038DA0004E064017017900001E0FBA3E0FAA3E0A2
:1038EA00F9121A24640970057FAF02277690000442
:1038FA00E0FF6413703C900001E0FBA3E0FAA3E050
:10390A00F9900001121A3D64567027EF24FFFFE474
:10391A0034FFFE8F82F583121A3D640370148F827E
:10392A008E83E4121A7CE92402F9E43AFA7F5B02F4
:10393A003A82900004E0FF6413703C900001E0FBBF
:10394A00A3E0FAA3E0F9900001121A3D644F702730
:10395A00EF24FFFFE434FFFE8F82F583121A3D64E1
:10396A000370148F828E83E4121A7CE92402F9E42C
:10397A003AFA7F9B023A82900004E0FF64066003F1
:10398A00023A39900001E0FBA3E0FAA3E0F9121A27
:10399A002464026003023A39900001121A3D645706
:1039AA006003023A39FE74FF2FF582EE34FFF58385
:1039BA00121A3D64037078900001A3A390000212CA
:1039CA001A3DFD7B017A00790612B23D9000097416
:1039DA0020F0900001E0FBA3E0FAA3E0F9900003D5
:1039EA00121A3DFD900001A3A3900004121A3D9003
:1039FA000019F07B017A00790A12477B9001A8E04E
:103A0A006401702112BC5EEFF460077FAA12277668
:103A1A0080097B017A007906128AEA7B017A0079A9
:103A2A00067F5C80537B017A0079067F5C8049902F
:103A3A000004E0FF64077043900001E0FBA3E0FA92
:103A4A00A3E0F9121A2464027031900001121A3D9F
:103A5A0064637027EF24FFFFE434FFFE8F82F5834F
:103A6A00121A3D640370148F828E83E4121A7CE961
:103A7A002402F9E43AFA7F9D024D02900004E0FF25
:103A8A00640C7033900001E0FBA3E0FAA3E0F912A2
:103A9A001A2464027021FE74FF2FF582EE34FFF5BA
:103AAA0083121A3D6403700F900001A3A3E024015E
:073ABA00F9E43AFA128C93C3
:013AC10022E2
:0EB88800900037EBF0A3EAF0A3E9F0A3EDF097
:10B89600E4A3F090003AE0FFA3E0C39F5024900099
:10B8A60037E0FBA3E0FAA3E0F9121A24FF12B54130
:10B8B600900038E475F001121AB090003BE004F0F5
:02B8C60080D12F
:01B8C800225D
:0B8AEA00900015EBF0A3EAF0A3E9F008
:108AF5009000367403F090001814F012B80390003B
:108B050019EFF0A37453F09001ADE09000366013B7
:108B1500E0FF04F074182FF582E43400F583744DFA
:108B2500F08011E0FF04F074182FF582E43400F5AD
:108B3500837443F09000367404F0900015E0FBA3B5
:108B4500E0FAA3E0F9121A24FF6021900036E02430
:108B550018F582E43400F583EFF0900016E475F023
:108B650001121AB0900036E004F080CE900036E095
:108B7500FF04F074182FF582E43400F583743AF09D
:108B8500900036E02418F9E43400FA7B0112675F9F
:108B9500900036E0FF2422F582E43400F583743A30
:108BA500F074232FF582E43400F5837403F07B0120
:0B8BB5007A007918EF240CFD02B8884C
:0EBD3800900015EBF0A3EAF0A3E9F0A3EDF004
:10BD4600E4FFFE900018E0FDEEC39D50189000152C
:10BD5600E0FBA3E0FAA3E0F98E82758300121A3D98
:05BD66006FFF0E80DEFE
:01BD6B0022B5
:10C1390050524F4752414D414D4F5320484F524164
:04C14900000D0A00DB
:08000300D29412C279C29422CA
:05B98A009000B4EFF095
:10B98F00E4A3F0A3F09000B4E0FFA2E713F030D7E8
:10B99F0004D2958002C2951200039000B6E004F025
:10B9AF0070069000B5E004F0C39000B6E0940890E4
:09B9BF0000B5E06480948040CCE6
:01B9C800225C
:0AA3ED00EBF0A3EAF0A3E9F07F8D86
:05A3F7009000B1EFF041
:10A3FC00D2967F037E0012C1619000B1E0FF12B9CA
:10A40C008AE49000B2F0A3F09000B2E0FCA3E0FD6F
:10A41C00C39408EC64809480504F309516900219C8
:10A42C00E04480F0ED9406EC648094805005E0FFED
:10A43C00C313F0209520900219E0547FF0D39000C4
:10A44C00B3E094069000B2E06480948050089002CF
:10A45C0019E0FFC313F01200039000B3E004F07096
:10A46C00A79000B2E004F0809FC296900219E0FF22
:01A47C0022BD
:10BE8D00900018EFF0A3EDF0D2967F037E0012C163
:10BE9D0061900018E0FF12B98A900019E0FF900040
:08BEAD0018F012B98AC29622B6
:10B8C900900016E475F001121AB0900016E475F0B4
:10B8D90001121AB0900016E475F001121AB0900026
:10B8E90015E0FBA3E0FAA3E0F9121A24FF90000186
:04B8F900121A3DFDE5
:0CB8FD00EF540FC454F0FFED540F4FFF48
:01B90900221B
:10789B00E4FF121A24FEC3943050030279ADEED3E9
:1078AB00943940030279AD900001121A3DFEC39446
:1078BB003050030279AAEED3943940030279AA908F
:1078CB000003121A3DFEC3943050030279A7EED386
:1078DB00943940030279A7900004121A3DFEC39419
:1078EB003050030279AFEED3943940030279AF9055
:1078FB000008121A3DFEC3943050030279A4EED354
:10790B00943940030279A490000B121A3DFEC394E4
:10791B003050030279A1EED39439507A90000C12B7
:10792B001A3DFEC39430406BEED3943950659000F2
:10793B000E121A3DFEC394304056EED3943950507C
:10794B0090000F121A3DFEC394304041EED3943990
:10795B00503B900011121A3DFEC39430402CEED3D5
:10796B0094395026900012121A3DFEC394304017E2
:10797B00EED394395011900014121A3DFEC394307B
:10798B004022EED39439227F01227F01227F0122F4
:10799B007F01227F01227F01227F01227F01227F33
:0479AB0001227F0135
:0179AF0022B5
:0B9DF300900015EBF0A3EAF0A3E9F0EC
:109DFE007BFF7AC1793912B5947BFF7AC1794A1209
:109E0E00B59412B8E7AD077F8612BE8D12B8C9ADF4
:109E1E00077F8812BE8D900016E475F001121AB0FD
:109E2E00900016E475F001121AB012B8C9AD077F92
:109E3E008C12BE8D12B8C9AD077F8412BE8D12B8BA
:109E4E00C9AD077F8212BE8D12B8C9AD077F8012D1
:109E5E00BE8D900016E475F001121AB0900016E453
:109E6E0075F001121AB0900016E475F001121AB0D6
:109E7E00900015E0FBA3E0FAA3E0F9121A245407B0
:069E8E00FD7F8A02BE8D7B
:10C0A400AE07EEC4540F540FFE6012EF540FFFE4BA
:0DC0B400FDEDC39E5007740A2FFF0D80F4B0
:01C0C100225C
:10BA4500121A7C90005EE475F001121AB090005D48
:0CBA5500E0FBA3E0FAA3E0F9121A24FFC2
:10BA6100E4FEFDFCECC39F500B0DED640A7002FD7A
:10BA71000E0C80F0EEC454F054F0FEED540F4EFF66
:01BA810022A2
:0BA2CB0090005DEBF0A3EAF0A3E9F0C7
:10A2D60012BA52EF54F0C4540F4430FE900060E0BE
:10A2E600FBA3E0FAA3E0F9EE121A6AEF540F44302A
:10A2F600FF900060E0FBA3E0FAA3E0F9900001EF15
:10A3060012BA45EF54F0C4540F4430FE900060E09A
:10A31600FBA3E0FAA3E0F9900002EE121A7CEF54D8
:10A326000F443090000312BA45EF54F0C4540F4462
:10A3360030FE900060E0FBA3E0FAA3E0F990000491
:10A34600EE121A7CEF540F4430900005121A7C90DE
:06A356000006E4021A7C7F
:10B23D00E4FFFE900015EDF0900015E0C3946474EA
:10B24D008094804007E0249CF00F80ECEF44301296
:10B25D001A6A740129F9E43AFA900015E0C3940AC8
:10B26D00748094804007E024F6F00E80ECEE4430BC
:10B27D00121A6A740129F9E43AFA900015E0443083
:0EB28D00121A6A740129F9E43AFAE4021A6A04
:0E477B00900015EBF0A3EAF0A3E9F0A3EDF037
:10478900E490001AF0A3F090001DF0A3F0A3F0A3A9
:10479900F090001CEDF054F0F0E0FFC4540FF090DD
:1047A9000025121B59404000007F007E007D807C5F
:1047B900411268CDC004C005C006C00790001CE0C6
:1047C900FCE4121536D003D002D001D00012142611
:1047D900C004C005C006C00790001AE0FCA3E0FDB4
:1047E900E4121531D003D002D001D00012133512D2
:1047F900156A90001AEEF0A3EFF0900018E090000F
:104809001CF0540FF0900025121B59400000007F46
:10481900007E007D807C411268CDC004C005C006C1
:10482900C00790001CE0FCE4121536D003D002D07A
:1048390001D000121426C004C005C006C0079000AC
:104849001AE0FCA3E0FDE4121531D003D002D00137
:10485900D00012133512156A90001AEEF0A3EFF08A
:10486900900019E090001CF054F0F0E0FFC4540FE0
:10487900F0900025121B593F8000007F007E007DCB
:10488900807C411268CDC004C005C006C0079000F5
:104899001CE0FCE4121536D003D002D001D000127E
:1048A9001426C004C005C006C00790001AE0FCA386
:1048B900E0FDE4121531D003D002D001D00012136B
:1048C9003512156A90001AEEF0A3EFF0900019E086
:1048D90090001CF0540FF0900025121B59000000A5
:1048E900007F007E007D807C411268CDC004C00538
:1048F900C006C00790001CE0FCE4121536D003D0B6
:1049090002D001D000121426C004C005C006C00799
:1049190090001AE0FCA3E0FDE4121531D003D002A7
:10492900D001D00012133512156A90001AEEF0A3C7
:10493900EFF0C3EF9410EE9427401074F02FFF743A
:10494900D83EFE90001DE004F080E790001DE04491
:1049590030FD900015E0FBA3E0FAA3E0F9ED121A8F
:104969006A900016E475F001121AB0C3EF94E8EEEC
:104979009403401074182FFF74FC3EFE90001EE053
:1049890004F080E790001EE04430FD900015E0FB44
:10499900A3E0FAA3E0F9ED121A6A900016E475F0A3
:1049A90001121AB0C3EF9464EE94004010749C2F66
:1049B900FF74FF3EFE90001FE004F080E790001FA7
:1049C900E04430FD900015E0FBA3E0FAA3E0F9ED27
:1049D900121A6A900016E475F001121AB0C3EF9426
:1049E9000AEE9400401074F62FFF74FF3EFE90000B
:1049F90020E004F080E7900020E04430FD900015AD
:104A0900E0FBA3E0FAA3E0F9ED121A6A900016E4BC
:104A190075F001121AB0EF4430FF900015E0FBA3C6
:104A2900E0FAA3E0F9EF121A6A900016E475F001B2
:104A3900121AB0900015E0FBA3E0FAA3E0F9E40232
:024A49001A6AE7
:03675F0090005156
:1067620012A3EDEF54F0C4540F4430FE900051E0F8
:10677200FBA3E0FAA3E0F9EE121A6A900052E47564
:10678200F001121AB0EF540F4430FF900051E0FBB9
:10679200A3E0FAA3E0F9EF121A6A900052E475F04E
:1067A20001121AB07F8912A3F7EF54F0C4540F44B8
:1067B20030FE900051E0FBA3E0FAA3E0F9EE121ADA
:1067C2006A900052E475F001121AB0EF540F44308F
:1067D200FF900051E0FBA3E0FAA3E0F9EF121A6A7E
:1067E200900052E475F001121AB07F8712A3F7EFFE
:1067F20054F0C4540F4430FE900051E0FBA3E0FA81
:10680200A3E0F9EE121A6A900052E475F001121A2E
:10681200B0EF540F4430FF900051E0FBA3E0FAA325
:10682200E0F9EF121A6A900052E475F001121AB000
:106832007F8512A3F7EF54F0C4540F4430FE90004A
:1068420051E0FBA3E0FAA3E0F9EE121A6A900052BB
:10685200E475F001121AB0EF540F4430FF9000516A
:10686200E0FBA3E0FAA3E0F9EF121A6A900052E407
:1068720075F001121AB07F8312A3F7EF54F0C454DB
:106882000F4430FE900051E0FBA3E0FAA3E0F9EEE2
:10689200121A6A900052E475F001121AB0EF540F06
:1068A2004430FF900051E0FBA3E0FAA3E0F9EF12BD
:1068B2001A6A900052E475F001121AB0900051E089
:0B68C200FBA3E0FAA3E0F9E4021A6A6D
:0B608D00900022EBF0A3EAF0A3E9F082
:106098007F8912A3F7EF54F0C4540F4430FE9000E8
:1060A80022E0FBA3E0FAA3E0F9EE121A6A900023BB
:1060B800E475F001121AB0EF540F4430FF9000223B
:1060C800E0FBA3E0FAA3E0F9EF121A6A900023E4D8
:1060D80075F001121AB07F8712A3F7EF54F0C45479
:1060E8000F4430FE900022E0FBA3E0FAA3E0F9EEB3
:1060F800121A6A900023E475F001121AB0EF540FD7
:106108004430FF900022E0FBA3E0FAA3E0F9EF128D
:106118001A6A900023E475F001121AB07F8D12A359
:10612800F7EF54F0C4540F4430FE900022E0FBA374
:10613800E0FAA3E0F9EE121A6A900023E475F00180
:10614800121AB0EF540F4430FF900022E0FBA3E096
:10615800FAA3E0F9EF121A6A900023E475F001122D
:106168001AB07F8512A3F7EF54F0C4540F4430FEE1
:10617800900022E0FBA3E0FAA3E0F9EE121A6A907D
:106188000023E475F001121AB0EF540F4430FF9069
:106198000022E0FBA3E0FAA3E0F9EF121A6A9000EC
:1061A80023E475F001121AB07F8312A3F7EF54F0BD
:1061B800C4540F4430FE900022E0FBA3E0FAA3E0B1
:1061C800F9EE121A6A900023E475F001121AB0EF82
:1061D800540F4430FF900022E0FBA3E0FAA3E0F95B
:1061E800EF121A6A900023E475F001121AB09000B9
:1061F80022E0FBA3E0FAA3E0F9742E121A6A9000D9
:1062080023E475F001121AB07F8112A3F7EF54F05E
:10621800C4540F4430FE900022E0FBA3E0FAA3E050
:10622800F9EE121A6A900023E475F001121AB0EF21
:10623800540F4430FF900022E0FBA3E0FAA3E0F9FA
:10624800EF121A6A900023E475F001121AB0900058
:0D62580022E0FBA3E0FAA3E0F9E4021A6AD9
:109C04009000AE12A3ED12C0A49000AEE0FBA3E05E
:109C1400FAA3E0F9EF121A6A9000AFE475F00112AA
:109C24001AB07F8912A3F712C0A49000AEE0FBA380
:109C3400E0FAA3E0F9EF121A6A9000AFE475F001BC
:109C4400121AB07F8712A3F712C0A49000AEE0FBF3
:109C5400A3E0FAA3E0F9EF121A6A9000AFE475F0FA
:109C640001121AB07F8512A3F712C0A49000AEE0CF
:109C7400FBA3E0FAA3E0F9EF121A6A9000AFE475CF
:109C8400F001121AB07F8312A3F712C0A49000AEA1
:109C9400E0FBA3E0FAA3E0F9EF121A6A9000AFE444
:069CA40075F001021AB088
:10AEDF0090000512A3ED900005E0FBA3E0FAA3E0BC
:10AEEF00F990000EEF121A7C7F8912A3F7900005DC
:10AEFF00E0FBA3E0FAA3E0F990000FEF121A7C7FBA
:10AF0F008712A3F7900005E0FBA3E0FAA3E0F99006
:10AF1F000010EF121A7C7F8512A3F7900005E0FB5B
:10AF2F00A3E0FAA3E0F9900011EF121A7C7F8312CD
:10AF3F00A3F7900005E0FBA3E0FAA3E0F99000125D
:04AF4F00EF021A7C77
:108FBD0090002212A3ED900022E0FBA3E0FAA3E0C3
:108FCD00F9EF121A6A900023E475F001121AB07FBE
:108FDD008912A3F7900022E0FBA3E0FAA3E0F9EFDA
:108FED00121A6A900023E475F001121AB07F8712ED
:108FFD00A3F7900022E0FBA3E0FAA3E0F9EF121A29
:10900D006A900023E475F001121AB07F8512A3F760
:10901D00900022E0FBA3E0FAA3E0F9EF121A6A90A8
:10902D000023E475F001121AB07F8312A3F79000AC
:10903D0022E0FBA3E0FAA3E0F9EF121A6A900023F5
:10904D00E475F001121AB07F8112A3F7900022E0AF
:10905D00FBA3E0FAA3E0F9EF121A6A900023E4757E
:10906D00F001121AB0900022E0FBA3E0FAA3E0F9A0
:04907D00E4021A6A85
:07C22E00C294C296D29522D2
:0B8EF40090009CEBF0A3EAF0A3E9F073
:108EFF007B017A0079A7129C049000A7E0FF7E0007
:108F0F007C017D6D121A9EAC06AD07A3E075F01EB5
:108F1F00A42DFFEC35F0FEA3E07C002FFFEC3EFE0E
:108F2F00E4FD90009F121B4D90009CE0FBA3E0FA24
:108F3F00A3E0F9900001121A3DFF3395E0FE7C008B
:108F4F007D1E121A9EC006C007121A24FF3395E029
:108F5F00FE0C7D6D121A9ED0E02FFFD0E03EFE90EA
:108F6F000002121A3DFD3395E0FCEF2DFFEE3CFEA3
:108F7F003395E0FDFC9000A3121B4D90009FE0FC89
:108F8F00A3E0FDA3E0FEA3E0FFA3E0F8A3E0F9A3B5
:108F9F00E0FAA3E0FBC3121AEA40089000AD740197
:0D8FAF00F08005E49000ADF09000ADE0FF13
:018FBC002292
:10C16100E4FDFCC3ED9FEC9E50070DBD00010C806A
:01C17100F2DB
:01C1720022AA
:04C0C200AB07AA0618
:10C0C600900000C3E5829BE5839A500A7F967E0026
:06C0D60012C161A380ED20
:01C0DC002241
:08BBEA0090001CEEF0A3EFF047
:10BBF200E4A3F0A3F090001CE0FEA3E0FFC39000DA
:10BC02001FE09F90001EE09E50177F0A7E0012C028
:10BC1200C290001FE004F070DC90001EE004F0808F
:01BC2200D44D
:01BC230022FE
:01C2790022A2
:10BB74004572726F72206465207469636B6574002A
:10BB84000A0D004E756D65726F20646520746963DB
:10BB94006B65743A004E6F206465207469636B654D
:0BBBA40074204845583A00256C7500DD
:03C0260012BFC185
:10C02900D20ED293D292E4FFFE209205C20EC293A1
:0CC03900220FBF00010EBE04F0BF4CED52
:01C0450022D8
:03C0460012BFC165
:10C04900D293D292D20EE4FFFE209205C20EC29381
:0CC05900220FBF00010EBE02F0BF8AEDF6
:01C0650022B8
:06C26600D29300C29322F6
:10BFC100E4FEEEC39408748094805015EF25E0FFE1
:10BFD10030D704D2928002C292D29312C2660E80EE
:01BFE100E17E
:01BFE200223C
:08C17300ECFD7C00C293C292B6
:0AC17B00D292D29300C292C2932226
:0AC20800C293C29200D293D2922298
:10B45900E4FBEBFDC39408748094805038C29330A8
:10B46900921690020EE04401F0ED940674809480E7
:10B479005006E025E0F0D29320921790020EE05496
:10B48900FEF0EBD39406748094805006E025E0F03A
:0CB49900D2930B80BDC29390020EE0FF26
:01B4A5002284
:10B3AF0090005DE0FCA3E0FDA3E0FBA3E0FAA3E0C7
:07B3BF00F9121A24FB7FA81C
:02B3C600AA07D4
:10B3C800AF05A90712C173AF0212C026AF0512C09C
:10B3D80026AF0112BFC112C029AF0312BFC112C0EC
:10B3E8002912C2087F0D7E0012C0C2D293D2927F6A
:0DB3F800627E0012C1617F627E0002C161B1
:04BA82007C027FA81B
:02BA8600AB070C
:10BA8800AF05AA0712C173AF0312C046AF0512C0B3
:10BA980046AF0212BFC112C04912C17BEB04FF12AC
:10BAA800BFC112C029C29312B45912C208D293D28C
:06BAB8009290020EE0FF77
:01BABE002265
:0B8C9300900015EBF0A3EAF0A3E9F05D
:108C9E00E4900019F0900015E0FBA3E0FAA3E0F9D0
:108CAE0090000AE4121A7CE4900018F0900018E08C
:108CBE00FFD39409748094805057900015E0FBA365
:108CCE00E0FAA3E0F98F82758300121A3DFF7E0051
:108CDE00C3943074809480400AD3EF943974809496
:108CEE008040269000197401F07BFF7ABB797412D4
:108CFE00B594900015E0FBA3E0FAA3E0F912B59449
:108D0E007BFF7ABB798412B594900018E004F08052
:108D1E009B900019E0700E900015E0FBA3E0FAA303
:108D2E00E0F90284ABE4FBFD7C027FA812B3C6E43B
:108D3E00FB7D017C027FA812B3C6E4FB7402FDFC2E
:108D4E007FA812B3C6E4FB7D037C027FA812B3C6D4
:018D5E0022F2
:0B84AB0090001AEBF0A3EAF0A3E9F048
:1084B6007F007E007D007C007BFF7ABB798712B54A
:1084C6009490001AE0FBA3E0FAA3E0F912B5947BBE
:1084D600FF7ABB798412B59490001AE0FBA3E0FA08
:1084E600A3E0F9127ABF900021121B4D7BFF7ABBE5
:1084F600799912B594900021E0FCA3E0FDA3E0FE7B
:10850600A3E0FF7818121AFB90001DEFF012B61ABE
:10851600900021E0FCA3E0FDA3E0FEA3E0FF7810BD
:10852600121AFB90001EEFF012B61A900021E0FC22
:10853600A3E0FDA3E0FEA3E0FF7808121AFB90007B
:108546001FEFF012B61A900021A3A3A3E0FF90003C
:1085560020F012B61A7BFF7ABB798412B59490008C
:108566001DE0FB7D007C027FA812B3C690001EE0D2
:10857600FB7D017C027FA812B3C690001FE0FB744E
:1085860002FDFC7FA812B3C6900020E0FB7D037CB1
:06859600027FA802B3C63B
:10B4A600128E2A90007A74FFF0A374BBF0A374ABDB
:10B4B600F0A3121B4D7B017A0079481240017B01F3
:10B4C6007A00794812000E74482FF582E43400F5AC
:10B4D60083E4F07B017A00794812B5947BFF7ABB4E
:0BB4E600798412B5947B017A0079484C
:01B4F1002238
:108E2A00900056121B59000000007D0012BA82A958
:108E3A00077D0112BA82900053EFF07402FDFC7FA5
:108E4A00A812BA86900054EFF07D0312BA829000FD
:108E5A0055EFF0AF01A3E0F8A3E0F9A3E0FAA3E02D
:108E6A004FFFEAFEE9FDE8FC7808121B0E90005657
:108E7A00121B4D900053E0FF900056E0F8A3E0F972
:108E8A00A3E0FAA3E04FFFEAFEE9FDE8FC78081246
:108E9A001B0E900056121B4D900054E0FF90005696
:108EAA00E0F8A3E0F9A3E0FAA3E04FFFEAFEE9FD48
:108EBA00E8FC7808121B0E900056121B4D900055C4
:108ECA00E0FFA3E0F8A3E0F9A3E0FAA3E04FFFEA8A
:108EDA00FEE9FDE8FC900056121B4D900056E0FC9E
:098EEA00A3E0FDA3E0FEA3E0FFFC
:018EF300225C
:10BD6C00128E2AEF2401FFE43EFEE43DFDE43CFC90
:10BD7C0090007A74FFF0A374BBF0A374ABF0A31221
:10BD8C001B4D7B017A0079091240017B017A007905
:04BD9C00090284AB69
:10B1750090009CEEF0A3EFF0A3EBF0A3EAF0A3E9B7
:01B18500F0D9
:10B1860090009CE0FCA3E0FD7FA812BA8690009E8A
:10B19600E0FBA3E0FAA3E0F9EF121A6A90009EE042
:10B1A600FBA3E0FAA3E0F9121A24FF90009DE00445
:10B1B600F0700690009CE004F090009FE475F001AA
:10B1C600121AB0EF70BA90009EE0FBA3E0FAA3E07B
:05B1D600F9E4021A6A11
:10AFC40090005DEEF0A3EFF0A3EBF0A3EAF0A3E9A9
:10AFD400F090005FE0FBA3E0FAA3E0F9121A24600A
:10AFE40024B40D04E4121A6A12B3AF90005EE004B4
:10AFF400F0700690005DE004F0900060E475F001EC
:10B00400121AB080CC12B3AF90005EE004F0700668
:10B0140090005DE004F0900060E475F001121AB055
:0FB0240090005DE0FCA3E0FDE4FB7FA802B3C653
:10BC960090001574FFF0E4A3F0A3F0900016E0FC0A
:10BCA600A3E0FDC39450EC9403501A900015E0FBFA
:10BCB6007FA812B3C6900017E004F070DE9000165D
:05BCC600E004F080D64F
:01BCCB002256
:10859C0050756C7361646F722041637469766F0DF2
:1085AC000A0053656E736F726573204175746F208A
:1085BC00792073656E736F72312061637469766FA5
:1085CC00732E0A0D0053656E736F722061637469AC
:1085DC00766F2073656E736F72312E0A0D004465D1
:1085EC007465637461646F2E2053656E736F7220B3
:1085FC004175746F2E0A0D0053656E736F7265733F
:10860C00206E6F2064657465637461646F732E0AE9
:10861C000D005665686963756C6F204573706572E3
:10862C00616E646F2053616C69722E0A0D00566581
:10863C00686963756C6F2053616C69656E646F2E2D
:10864C0020556E206D6F6D656E746F2E0A0D006D6A
:10865C00736A5F6C63645F696E666F726D61746977
:10866C00766F2072656C6F6A006D736A5F6C636401
:10867C005F696E666F726D617469766F2049440034
:0A8BEF00C10F4102160041021700F9
:07C23500C2B5C2B6C2B72278
:07C23C00C2B5D2B6C2B72261
:07C24300D2B5D2B6C2B7224A
:07C24A00C2B5C2B6D2B72253
:07C25100D2B5C2B6D2B7223C
:07C25800C2B5D2B6D2B72235
:07C25F00D2B5D2B6D2B7221E
:10C1850012C24320910B7BFF7A85799C12B594D21C
:02C195000F2277
:10C06600E4FF7DF47C01309115EFFB3395E04B70D6
:0EC076000DED1D70011CED4C70EC7F0180E89B
:01C084002299
:10BFE3007F017DF47C01209118EFFB3395E0FAEBA0
:10BFF30064014A700CED1D70011CED4C70E8FF806C
:01C00300E557
:01C004002219
:10B803009000377401F012C258309103E004F01233
:10B81300C25F309107900037E02402F0900037E0D8
:10B82300640170177D12FC7FA812BA86EF600CF4D6
:10B83300900037700404F08002EFF0900037E024AA
:02B8430030FFD4
:01B8450022E0
:10C123007D127C007FA812BA86EF6005F470027F4F
:05C1330001EF2430FFC4
:01C1380022E4
:10B3540012C25120912312C23C7BFF20910D7A85A9
:10B3640079AE12B594E49001AD80227A8579D11238
:10B37400B5949001AD7401801412C23C7BFF2091FE
:10B38400187A8579EA12B5949001AD7401F09000B1
:10B394001674FFF012C185800C7A86790412B59474
:0AB3A400E4900016F0900016E0FFA0
:01B3AE00227C
:10BC5E0012C24A30912012C066EF3395E0FEEF64B7
:10BC6E00014E700A12B354900015EFF080147BFF52
:10BC7E007A86791E80067BFF7A86793A12B5947F92
:07BC8E000022900015E0FF09
:01BC9500228C
:10995600E4900001F0900216E004F0E0C394327443
:109966008094805003029A04E4F012C235309103C9
:109976000299F9900001E0707A12BFE3EF3395E0A7
:109986004F70707BFF7A86795B12B594900001E088
:10999600FF12B61A900217E0FF12B61A900217E0ED
:1099A600702A900001E0702430B30B04F012B4F278
:1099B6009002177401F012C066EF3395E0FEEF6473
:1099C600014E702F7F0AFE12BBEA8027900217E035
:1099D6006401701F900001E070197BFF7A8679752B
:1099E60012B59430B30DE4900001F0126F4BE49081
:0E99F6000217F012C235309105E4900001F026
:019A0400223F
:102EBD00494E4752455345205441524A45544120AD
:102ECD00005441524A4554412053494E20494E47E2
:102EDD005245534F20005441524A455441204E4FC4
:102EED00205245474953545241205041474F2000ED
:102EFD00455843454445205449454D504F20444580
:102F0D002047524143494120004D454E5355414CB8
:102F1D00204E4F204553544120454E205041525193
:102F2D005545414445524F2000444952494A415369
:102F3D004520412043414A412000475241434941E8
:102F4D00532E2E2E2000475241434941532E2E2EF3
:102F5D00004D454E5355414C494441442056454E34
:102F6D004349444120004D454E5355414C49444140
:102F7D00442045584345444520484F524152494FFE
:102F8D002041434552515545534520412043414A27
:102F9D004120004E4F204553204D454E5355414C39
:102FAD0049444144204E49205052455041474F001D
:102FBD004D454E5355414C204E4F205041474F20CB
:102FCD004C4F434143494F4E20484F590053494EB2
:102FDD002050524553454E4349412056454849439B
:102FED00554C415220005441524A455441204E4FB8
:102FFD002045532044454C205041525155454144A4
:10300D0045524F20004249454E56454E49444F2E9C
:10301D002050554C534520454C20424F544F4E2087
:10302D00005441524A4554412053494E20464F5277
:10303D004D41544F20004655455241204445204CAA
:10304D00494E45412000554E204D4F4D454E544F54
:10305D0020504F52204641564F5220004E4F204592
:10306D0053205441524A455441204D454E535541EC
:10307D004C20005441524A45544120494E56414C32
:10308D0049444120005441524A4554412053494E30
:10309D002053414C49444120005245474953545215
:1030AD004120494E475245534F20454E20504152E5
:1030BD00515545414445524F20004D454E535541C4
:1030CD004C20465545524120444520484F524152CF
:1030DD00494F2000484F524152494F204E4F2050EA
:1030ED00524F4752414D41444F200053494E2054B9
:1030FD0041524A4554415320004249454E56454E92
:10310D0049444F20004E4956454C2042414A4F20DC
:10311D004445205441524A455441532000613B38A7
:10312D00353B494E4752455345205441524A45542B
:10313D00410A0000613B38363B5441524A455441E7
:10314D002053494E20494E475245534F0A000061C6
:10315D003B38373B5441524A455441204E4F205243
:10316D0045474953545241205041474F0A00006191
:10317D003B38383B455843454445205449454D500F
:10318D004F204445204752414349410A0000613BCD
:10319D0038393B4D454E5355414C204E4F204553EC
:1031AD00544120454E2050415251554541444552C0
:1031BD004F0A0000613B39303B444952494A415363
:1031CD004520412043414A410A0000613B39313BD2
:1031DD00475241434941532E2E2E200A0000613B98
:1031ED0039333B4D454E5355414C204E4F204553A1
:1031FD00544120454E205041525155454144455270
:10320D004F0A0000613B39333B4D454E5355414C00
:10321D00204553544120454E205041525155454172
:10322D004445524F0A0000613B39343B4D454E53E6
:10323D0055414C494441442056454E434944410A69
:10324D000000613B39353B4D454E5355414C49448A
:10325D0041442045584345444520484F5241524929
:10326D004F2041434552515545534520412043413F
:10327D004A410A0000613B39363B4E4F20455320F1
:10328D004D454E5355414C49444144204E492050E3
:10329D0052455041474F0A0000613B39373B4D4580
:1032AD004E5355414C204E4F205041474F204C4FCF
:1032BD00434143494F4E20484F590A0000613B3965
:1032CD00383B53494E2050524553454E43494120BA
:1032DD005645484943554C41520A0000613B393827
:1032ED003B5441524A455441204E4F2045532044B2
:1032FD00454C20504152515545414445524F0A00CD
:10330D0000613B30303B4249454E56454E49444F96
:10331D002E2050554C534520454C20424F544F4E76
:10332D000A0000613B39383B5441524A4554412013
:10333D0053494E20464F524D41544F0A0000613BB8
:10334D0039383B4655455241204445204C494E4560
:10335D00410A0000613B39383B554E204D4F4D45DC
:10336D004E544F20504F52204641564F520A0000A6
:10337D00613B30383B4E4F204553205441524A4516
:10338D005441204D454E5355414C0A0000613B3987
:10339D00383B5441524A45544120494E56414C49BF
:1033AD0044410A0000613B39383B5441524A45546F
:1033BD00412053494E2053414C4944410A0000617C
:1033CD003B39383B524547495354524120494E47AA
:1033DD005245534F20454E20504152515545414481
:1033ED0045524F0A0000613B30373BA1204D454E01
:1033FD005355414C494441442056454E434944415F
:10340D0020210A0000613B30363B4D454E5355415E
:10341D004C20465545524120444520484F5241527B
:10342D00494F0A0000613B39383B53494E20544106
:10343D00524A455441530A0000613B39383B4E49CD
:10344D0056454C2042414A4F204445205441524A52
:10345D00455441530A0000613B39383B484F5241B6
:10346D0052494F204E4F2050524F4752414D4144EB
:10347D004F0A0000613B39383B4143455251554598
:10348D00205355205441524A455441204445204E25
:10349D005545564F0A0000613B30313B524554496A
:1034AD005245205355205441524A4554410A00007B
:1034BD00613B30333B4249454E56454E49444F0AD8
:1034CD000000613B39393B4C4F544520415349472E
:1034DD004E41444F2045535441204C4C454E4F0ACC
:1034ED00000057494547414E44200047524143494A
:1034FD0041532000613B39323B57494547414E44CA
:10350D0020000A0000613B39313B4752414349419C
:10351D00532000613B30333B4249454E56454E49A1
:10352D00444F200020504C414341000A00613B3084
:10353D00373B20A1204D454E5355414C4944414404
:10354D002056454E4349444120212056454E43497E
:10355D004F20323000633B39303B00643B00AA8082
:10356D0018010200AA8018010200000000000000EE
:10357D00000000000000000000000000000000003E
:10358D00000000000000000000000000000000002E
:0F359D000000AA80280720000000000014000092
:0527760090002AEFF0C5
:10277B00782B7C007D017BFF7A35796B7E007F06A1
:10278B001219FEE4900032F0A3F0C2879001AAE088
:10279B006003022B427B017A00792BFD12B7C790A5
:1027AB00002AE0121BAA2B1D0128065528265628A5
:1027BB00465728665828865928A65A28C65B288665
:1027CB005D28E65E29065F2926602946612966AAEF
:1027DB002986AB29A6AC29C6AD29E6AE2A06AF2AB7
:1027EB0026B02A46B12A66B22A86B32AA6B52AC6CD
:1027FB00B62ADFFA2AFEFE00002B3F7BFF7A2E79EA
:10280B00BD12000E900031EFF0E4FDFF12BF0E126F
:10281B00BF057BFF7A2E79BD022B3A7BFF7A2E798F
:10282B00CE12000E900031EFF0E4FDFF12BF0E123E
:10283B00BF057BFF7A2E79CE022B3A7BFF7A2E795E
:10284B00E312000E900031EFF0E4FDFF12BF0E1209
:10285B00BF057BFF7A2E79E3022B3A7BFF7A2E7929
:10286B00FD12000E900031EFF0E4FDFF12BF0E12CF
:10287B00BF057BFF7A2E79FD022B3A7BFF7A2F79EE
:10288B001612000E900031EFF0E4FDFF12BF0E1296
:10289B00BF057BFF7A2F7916022B3A7BFF7A2F79B4
:1028AB003612000E900031EFF0E4FDFF12BF0E1256
:1028BB00BF057BFF7A2F7936022B3A7BFF7A2F7974
:1028CB004712000E900031EFF0E4FDFF12BF0E1225
:1028DB00BF057BFF7A2F7953022B3A7BFF7A2F7937
:1028EB005E12000E900031EFF0E4FDFF12BF0E12EE
:1028FB00BF057BFF7A2F795E022B3A7BFF7A2F790C
:10290B007312000E900031EFF0E4FDFF12BF0E12B8
:10291B00BF057BFF7A2F7973022B3A7BFF7A2F79D6
:10292B00A012000E900031EFF0E4FDFF12BF0E126B
:10293B00BF057BFF7A2F79A0022B3A7BFF7A2F7989
:10294B00BD12000E900031EFF0E4FDFF12BF0E122E
:10295B00BF057BFF7A2F79BD022B3A7BFF7A2F794C
:10296B00DA12000E900031EFF0E4FDFF12BF0E12F1
:10297B00BF057BFF7A2F79DA022B3A7BFF7A2F790F
:10298B00F312000E900031EFF0E4FDFF12BF0E12B8
:10299B00BF057BFF7A2F79F3022B3A7BFF7A3079D5
:1029AB001212000E900031EFF0E4FDFF12BF0E1279
:1029BB00BF057BFF7A307912022B3A7BFF7A307995
:1029CB002E12000E900031EFF0E4FDFF12BF0E123D
:1029DB00BF057BFF7A30792E022B3A7BFF7A307959
:1029EB004312000E900031EFF0E4FDFF12BF0E1208
:1029FB00BF057BFF7A307943022B3A7BFF7A307924
:102A0B005312000E900031EFF0E4FDFF12BF0E12D7
:102A1B00BF057BFF7A307953022B3A7BFF7A3079F3
:102A2B006912000E900031EFF0E4FDFF12BF0E12A1
:102A3B00BF057BFF7A307969022B3A7BFF7A3079BD
:102A4B008012000E900031EFF0E4FDFF12BF0E126A
:102A5B00BF057BFF7A307980022B3A7BFF7A307986
:102A6B009212000E900031EFF0E4FDFF12BF0E1238
:102A7B00BF057BFF7A307992022B3A7BFF7A307954
:102A8B00A612000E900031EFF0E4FDFF12BF0E1204
:102A9B00BF057BFF7A3079A6022B3A7BFF7A307920
:102AAB00C712000E900031EFF0E4FDFF12BF0E12C3
:102ABB00BF057BFF7A3079C7022B3A7BFF7A3079DF
:102ACB00E112000E900031EFF012BF097BFF7A305C
:102ADB0079E1805B7BFF7A3079F812000E90003140
:102AEB00EFF0E4FDFF12BF0E12BF057BFF7A3079CA
:102AFB00F8803C7BFF7A31790612000E900031EFA3
:102B0B00F0E4FDFF12BF0E12BF057BFF7A31790691
:102B1B00801D7BFF7A31791212000E900031EFF09D
:102B2B00E4FDFF12BF0E12BF057BFF7A3179127DD8
:102B3B000112B7C7D28722C28790002AE0121BAAC4
:102B4B002E08012BB2552BC9562BE0572BF7582CBF
:102B5B000E592C255A2C3C5B2C535D2C815E2C98EA
:102B6B005F2CAF602CC6612C6A632E8D9A2E779CDE
:102B7B002E359E2E4BA12CDDAA2CF4AB2D0BAC2DA0
:102B8B0022AD2D39AE2D50AF2D67B02D7EB12D95C9
:102B9B00B22DACB32DC3B42DDAB52E1FB62DF1FA71
:102BAB002E61FE00002EB3900032E0FEA3E0AA06D9
:102BBB00F8AC027D017BFF7A31792A022EA19000BD
:102BCB0032E0FEA3E0AA06F8AC027D017BFF7A316E
:102BDB007941022EA1900032E0FEA3E0AA06F8ACE8
:102BEB00027D017BFF7A31795C022EA1900032E0ED
:102BFB00FEA3E0AA06F8AC027D017BFF7A31797C5B
:102C0B00022EA1900032E0FEA3E0AA06F8AC027DF2
:102C1B00017BFF7A31799B022EA1900032E0FEA35B
:102C2B00E0AA06F8AC027D017BFF7A3179C1022E56
:102C3B00A1900032E0FEA3E0AA06F8AC027D017B76
:102C4B00FF7A3179D8022EA1900032E0FEA3E0AAE0
:102C5B0006F8AC027D017BFF7A3179EB022EA19055
:102C6B000032E0FEA3E0AA06F8AC027D017BFF7AFE
:102C7B00327911022EA1900032E0FEA3E0AA06F8F1
:102C8B00AC027D017BFF7A327934022EA1900032A7
:102C9B00E0FEA3E0AA06F8AC027D017BFF7A327955
:102CAB004F022EA1900032E0FEA3E0AA06F8AC0280
:102CBB007D017BFF7A327982022EA1900032E0FEF9
:102CCB00A3E0AA06F8AC027D017BFF7A3279A6025B
:102CDB002EA1900032E0FEA3E0AA06F8AC027D0123
:102CEB007BFF7A3279CA022EA1900032E0FEA3E07C
:102CFB00AA06F8AC027D017BFF7A3279E9022EA19C
:102D0B00900032E0FEA3E0AA06F8AC027D017BFF47
:102D1B007A33790E022EA1900032E0FEA3E0AA06D0
:102D2B00F8AC027D017BFF7A337930022EA1900043
:102D3B0032E0FEA3E0AA06F8AC027D017BFF7A33FA
:102D4B00794B022EA1900032E0FEA3E0AA06F8AC6C
:102D5B00027D017BFF7A337961022EA1900032E074
:102D6B00FEA3E0AA06F8AC027D017BFF7A33797DE6
:102D7B00022EA1900032E0FEA3E0AA06F8AC027D81
:102D8B00017BFF7A33799A022EA1900032E0FEA3E9
:102D9B00E0AA06F8AC027D017BFF7A3379B2022EF2
:102DAB00A1900032E0FEA3E0AA06F8AC027D017B05
:102DBB00FF7A3379CC022EA1900032E0FEA3E0AA79
:102DCB0006F8AC027D017BFF7A3379F3022EA190DA
:102DDB000032E0FEA3E0AA06F8AC027D017BFF7A8D
:102DEB00347912022EA1900032E0FEA3E0AA06F87D
:102DFB00AC027D017BFF7A347932022EA190003236
:102E0B00E0FEA3E0AA06F8AC027D017BFF7A3479E1
:102E1B0046022EA1900032E0FEA3E0AA06F8AC0217
:102E2B007D017BFF7A347964806C900032E0FEA3E5
:102E3B00E0AA06F8AC027D017BFF7A3479818056DB
:102E4B00900032E0FEA3E0AA06F8AC027D017BFF06
:102E5B007A3479A48040900032E0FEA3E0AA06F811
:102E6B00AC027D017BFF7A3479BD802A900032E081
:102E7B00FEA3E0AA06F8AC027D017BFF7A3479CF82
:102E8B008014900032E0FEA3E0AA06F8AC027D01AC
:102E9B007BFF7A347912121E37900032E0FEA3E0EA
:102EAB00AA06F97B0112AA75E4900032F0A3F0D2C6
:012EBB00878F
:012EBC0022F3
:0E4D0200900015EFF0A3EBF0A3EAF0A3E9F0A8
:104D100078197C007D017BFF7A3579717E007F06F2
:104D20001219FE78207C007D017BFF7A3579777E31
:104D3000007F281219FEC2879001AAE06003024D8D
:104D4000D9900015E024A56040146003024DD612EE
:104D5000B7BF7BFF7A3479EF12000E90001FEFF09F
:104D6000900016E0FBA3E0FAA3E0F912000E900019
:104D70001FE02F04F0E4FDFF12BF0E90001F12BFD2
:104D8000087BFF7A3479EF803812B7BF7BFF7A3423
:104D900079F812000E90001FEFF0900016E0FBA3D0
:104DA000E0FAA3E0F912000E90001FE02F04F0E4F7
:104DB000FDFF12BF0E90001F12BF087BFF7A3479EF
:104DC000F87D0112B7C7900016E0FBA3E0FAA3E05C
:104DD000F97D0112B7C7D28722C287900015E0245F
:104DE000A5602F24C07003024E9E24FE7003024F64
:104DF0005824E97003024EE524B6602524A260031E
:104E0000024F9F78207C007D017BFF7A357901027B
:104E10004EAA78207C007D017BFF7A357912024E04
:104E2000F178207C007D017BFF7A35792012AA6C15
:104E300020100B12B4A678207C007D018011782010
:104E40007C007D01900016E0FBA3E0FAA3E0F912DC
:104E5000AA6C78207C007D017BFF300B377A357996
:104E600031121E3790004BE4F0A37400F0A37411CC
:104E7000F07B017A00792012B10A90004B74FFF0A8
:104E8000A37435F0A3740FF07B017A00792012B17E
:104E90000A024F9C7A357938121E37024F9C7820CF
:104EA0007C007D017BFF7A357920121E3790001639
:104EB000E0F9A3E0FAA3E090004BC9F0A3EAF0A365
:104EC000E9F07B017A00792012B10A90004B74FF5F
:104ED000F0A37435F0A3740FF07B017A00792012EF
:104EE000B10A024F9C78207C007D017BFF7A3579E6
:104EF0003A121E37900016E0FBA3E0FAA3E0F91285
:104F0000000E90001FEFF024FFFFE434FFFE90003E
:104F100016E0FBA3E0FAA3E0F98F828E83E4121A75
:104F20007C900016E0F9A3E0FAA3E090004BC9F0F2
:104F3000A3EAF0A3E9F07B017A00792012B10A908C
:104F4000004B74FFF0A37435F0A3740FF07B017A6B
:104F500000792012B10A804478207C007D017BFF1B
:104F60007A357962121E37900016E0F9A3E0FAA3B1
:104F7000E090004BC9F0A3EAF0A3E9F07B017A00CE
:104F8000792012B10A90004B74FFF0A37435F0A39E
:104F9000740FF07B017A00792012B10A12AA6FE433
:064FA000900020F0D28712
:014FA60022E8
:09BF0500900031E025E0FFE4FDAD
:05BF0E0090004DEDF074
:10BF130012B9C990004EEFF090004DE0600AE4FFC3
:08BF230012B9C990004EEFF0C5
:01BF2B0022F3
:08B7BF007B017A007919E4FD19
:0EB7C700900048EBF0A3EAF0A3E9F0A3EDF048
:10B7D500E4A3F0900048E0FBA3E0FAA3E0F99000B1
:10B7E5004CE0F582758300121A3DFF601090004B06
:0DB7F500E0FD12BF0E90004CE004F080D685
:01B802002223
:0EB6EE00900022EBF0A3EAF0A3E9F0A3EDF048
:10B6FC00E4900027F0900025E0FF900027E0FEC3C7
:10B70C009F5024900022E0FBA3E0FAA3E0F98E8284
:10B71C00758300121A3DFF900026E0FD12BF0E90BB
:07B72C000027E004F080CECD
:01B7330022F3
:09AA6C00121E377B017A007920EB
:0BAA7500900048EBF0A3EAF0A3E9F02A
:10AA800012000E90004CEFF0E490004BF090004C60
:10AA9000E0FF90004BE0C39F503DE490004DF090EC
:10AAA000004DE0C39464748094805005E004F0800D
:10AAB000EE900048E0FBA3E0FAA3E0F9A3E0F58202
:10AAC000758300121A3DFF12B9C990004DEFF09046
:10AAD000004BE004F080B6E490004DF090004DE0B3
:0EAAE000C39464748094805005E004F080EE0E
:01AAEE002245
:10AD6F0078157C007D017BFF7A35799F7E007F0D02
:10AD7F001219FE9001AAE07022C2877B017A007936
:10AD8F001A128FBDC29C7B017A007915E4900026C0
:10AD9F00F07D0D12B6EED29CD28722C287E49000CE
:10ADAF0015F078157C007D017BFF7A357968121ECE
:10ADBF00377B017A00791712608D90004B74FFF08A
:10ADCF00A37435F0A3740FF07B017A00791512B1DB
:0CADDF000A7B017A00791512AA75D28750
:01ADEB002245
:10002600402321246046625E262A003A5B3C253F37
:1000360058545D3D29000D0A0A25733E20002563AC
:10004600002564000D0A0A2041435455414C2049BD
:10005600445F434C49454E54453D25730D0A0A00FD
:100066000D0A0A20444947495445205355204E5508
:1000760045564F2049445F434C49454E54453D0043
:100086000D0A0A204441544F204D4F4449464943E6
:1000960041444F2049445F434C49454E54453D2514
:1000A600730D0A0A000D0A0A2041435455414C209B
:1000B600434F445F5041524B3D25730D0A0A000DD4
:1000C6000A0A20444947495445205355204E554570
:1000D600564F20434F445F5041524B3D000D0A0A94
:1000E600204441544F204D4F444946494341444FD3
:1000F60020434F445F5041524B3D25730D0A0A0081
:100106000D0A0A2041435455414C205449454D504F
:100116004F5F4752414349413D25730D0A0A000D81
:100126000A0A20444947495445205355204E55450F
:10013600564F205449454D504F5F47524143494120
:100146003D000D0A0A204441544F204D4F44494674
:10015600494341444F205449454D504F5F47524112
:100166004349413D25730D0A0A000D0A0A20414301
:100176005455414C2053494E5F434F42524F2049FC
:100186004E484142494C495441444F3D25730D0A5E
:100196000A000D0A0A2041435455414C2053494E4A
:1001A6005F434F42524F204752415449533D2573B6
:1001B6000D0A0A000D0A0A2041435455414C2053AA
:1001C600494E5F434F42524F2047524154495320B4
:1001D600592053414C49444120454C204D49534DEB
:1001E6004F204449413D25730D0A0A000D0A0A2095
:1001F600444947495445205355204E5545564F20AE
:1002060053494E5F434F42524F3D000D0A0A20416B
:10021600435455414C20444542554720494E484198
:1002260042494C495441444F3D25730D0A0A000D7D
:100236000A0A2041435455414C2044454255472023
:10024600484142494C495441444F3D25730D0A0AE1
:10025600000D0A0A2044494749544520454C204E82
:100266005545564F2045535441444F20444520445C
:10027600454255473D000D0A0A2041435455414C1D
:10028600205553455F4C505220494E484142494CF7
:10029600495441444F3D25730D0A0A000D0A0A20B0
:1002A60041435455414C205553455F4C50522048CC
:1002B6004142494C495441444F3D25730D0A0A00B9
:1002C6000D0A0A2044494749544520454C204E55BD
:1002D60045564F2045535441444F204445205553DD
:1002E600455F4C50523D000D0A0A2050414E544184
:1002F6004C4C41204C434420484142494C495441CE
:1003060044413D25730D0A0A000D0A0A2050414E4C
:1003160054414C4C4120524153504245525259206F
:1003260020484142494C49544144413D25730D0AF8
:100336000A000D0A0A2044494749544520454C20E5
:100346004E5545564F2045535441444F2044452071
:100356004C412050414E54414C4C41203D000D0A29
:100366000A2041435455414C20434F4D5041524180
:1003760043494F4E2041435449564120204841426B
:10038600494C49544144413D25730D0A0A000D0A62
:100396000A20455850494445205441524A45544143
:1003A6002050554C53414E444F20424F544F4E0D12
:1003B6000A0A000D0A0A204558504944452054416E
:1003C600524A455441204155544F4D4154494341A9
:1003D6000D0A0A000D0A0A2044494749544520459A
:1003E6004C204E5545564F2045535441444F2044CA
:1003F600454C20455850454449444F523D000D0A4E
:100406000A2041435455414C20414E5449504153D2
:10041600534241434B20494E484142494C4954417D
:10042600444F3D25730D0A0A000D0A0A2041435424
:1004360055414C20414E5449504153534241434B40
:1004460020484142494C495441444F3D25730D0AC9
:100456000A000D0A0A2044494749544520454C20C4
:100466004E5545564F2045535441444F2044452050
:10047600414E5449504153534241434B3D000D0AAE
:100486000A2041435455414C20504C414341204998
:100496004E484142494C495441444F3D25730D0A4B
:1004A6000A000D0A0A2041435455414C20504C4144
:1004B600434120484142494C495441444F3D2573EC
:1004C6000D0A0A000D0A0A204449474954452045A9
:1004D6004C204E5545564F2045535441444F2044D9
:1004E6004520504C4143413D000D0A0A20414354EA
:1004F60055414C20414444524553535F484947486F
:100506005F424F4152443D25730D0A0A000D0A0A07
:1005160020444947495445204C41204E55455641B3
:1005260020414444524553535F484947485F424F30
:100536004152443D000D0A0A2041435455414C2086
:10054600484F524152494F20494E484142494C4931
:100556005441444F3D25730D0A0A000D0A0A2041F5
:10056600435455414C20484F524152494F2048412F
:1005760042494C495441444F3D25730D0A0A000D2A
:100586000A0A2044494749544520454C204E5545C2
:10059600564F2045535441444F20444520484F521E
:1005A6004152494F3D000D0A0A2044696769746546
:1005B60020486F72612030383A3030204D696E75B0
:1005C600746F732044657364653A20000D0A0A202F
:1005D600486F72612050726F6772616D616461204D
:1005E60044657364653A200025633A000D0A0A20C3
:1005F60044696769746520486F72613A4D696E7522
:10060600746F732048617374613A20000D0A0A20E2
:10061600486F72612050726F6772616D616461200C
:1006260048617374613A20000D0A2044657364655D
:10063600202048617374610D0A002025630025633C
:10064600202020000D0A0A20446967697465206C21
:100656006F73206469617320612070726F677261C5
:100666006D6172204C756E6573203D20322C200022
:100676004D6172746573203D20332C204D6965727F
:10068600636F6C6573203D20342C204A7565766552
:1006960073203D20352C2000566965726E657320E7
:1006A6003D20362C2053616261646F203D20372C3B
:1006B60020446F6D696E676F203D2031203A20001F
:1006C6000D0A0A20446961732050726F6772616D6A
:1006D60061646F73203A2000204C756E6573003D8F
:1006E6002025632C00204D617274657300204D69CE
:1006F6006572636F6C657300204A75657665730075
:1007060020566965726E6573002053616261646F7D
:100716000020446F6D696E676F003D2025630020E1
:100726004C756E6573203D2050726F6772616D6106
:10073600646F0D0A00204C756E6573203D204E6F68
:100746002070726F6772616D61646F0D0A00204DD3
:100756006172746573203D2050726F6772616D61BE
:10076600646F0D0A00204D6172746573203D204E42
:100776006F2070726F6772616D61646F0D0A002081
:100786004D696572636F6C6573203D2050726F67AB
:1007960072616D61646F0D0A00204D696572636F49
:1007A6006C6573203D204E6F2070726F6772616DAD
:1007B60061646F0D0A00204A7565766573203D20D9
:1007C60050726F6772616D61646F0D0A00204A7521
:1007D60065766573203D204E6F2070726F6772617B
:1007E6006D61646F0D0A0020566965726E6573202F
:1007F6003D2050726F6772616D61646F0D0A002053
:10080600566965726E6573203D204E6F2070726F5B
:100816006772616D61646F0D0A00205361626164E5
:100826006F203D2050726F6772616D61646F0D0AB3
:10083600002053616261646F203D204E6F2070720C
:100846006F6772616D61646F0D0A0020446F6D6998
:100856006E676F203D2050726F6772616D61646FC5
:100866000D0A0020446F6D696E676F203D204E6F44
:100876002070726F6772616D61646F0D0A000D0AF8
:100886000A2044696769746520656C206E756D651C
:10089600726F2064656C20486F726172696F2061A7
:1008A6002070726F6772616D6172203D20000D0AC3
:1008B6000A2050726F6772616D6172207365677589
:1008C6006E646F20486F726172696F2073693D288C
:1008D6003129206E6F3D2830293D20000D0A0A205F
:1008E60041435455414C205449504F5F5645484961
:1008F60043554C4F204D454E5355414C20494E488B
:100906004142494C495441444F3D25730D0A0A0062
:100916000D0A0A2041435455414C205449504F5F1B
:100926005645484943554C4F204D454E5355414C2D
:1009360020484142494C495441444F3D25730D0AD4
:100946000A000D0A0A2044494749544520454C20CF
:100956004E5545564F2045535441444F204445205B
:100966005449504F5F5645484943554C4F204D45D5
:100976004E5355414C3D000D0A0A20414354554102
:100986004C205449504F5F5645484943554C4F20DB
:10099600204D454E5355414C20484142494C4954FF
:1009A60041444F3D25730D0A0A000D0A0A204143B2
:1009B6005455414C20414E544950415353424143B2
:1009C6004B204D454E5355414C20494E48414249D6
:1009D6004C495441444F3D25730D0A0A000D0A0A3D
:1009E6002041435455414C20414E544950415353A4
:1009F6004241434B204D454E5355414C20484142C0
:100A0600494C495441444F3D25730D0A0A000D0ACD
:100A16000A2044494749544520454C204E554556E1
:100A26004F2045535441444F20444520414E54499C
:100A3600504153534241434B204D454E5355414C33
:100A46003D000D0A0A2041435455414C20414E5465
:100A560049504153534241434B20204D454E535537
:100A6600414C20484142494C495441444F3D25732D
:100A76000D0A0A000D0A0A2041435455414C2046EE
:100A8600454348412056454E43494D49454E544FEE
:100A96002050415353574F52443A25730D0A0A00CA
:100AA6000D0A0A2F3E496420526567697374726F96
:100AB6003A002573000D0A0A2F3E50617373776F53
:100AC60072643A000D0A0A20444947495445204CAD
:100AD60041204E5545564120464543484120444510
:100AE6002056454E43494D49454E544F3D000D0A4B
:100AF6000A2025730D0A0A000D0A0A202558000D42
:100B06000A0A2041435455414C204645434841205A
:100B160044452056454E43494D49454E544F205075
:100B2600524F4752414D414441203D25730D0A0A1B
:100B3600000D0A206E756D65726F2064656C204825
:100B46006F726172696F202070726F6772616D617A
:100B5600646F203D2025630D0A000D0A2020484FB2
:100B6600524152494F20484142494C495441444F11
:100B760020203D204F4E0D0A000D0A204469617366
:100B86002050726F6772616D61646F730D0A000D9C
:100B96000A2020534547554E444F20484F52415254
:100BA600494F20484142494C495441444F20203D39
:100BB600204F4E0D0A000D0A20534547554E444F0F
:100BC60020484F524152494F20484142494C4954CE
:100BD60041444F20203D204F46460D0A000D0A2075
:100BE60020484F524152494F20484142494C4954AE
:100BF60041444F20203D204F46460D0A000D0A2055
:100C060049445F434C49454E54455F50524F475205
:100C1600414D41444F203D2025730D0A000D0A2009
:100C2600434F445F5041524B5F50524F4752414DE4
:100C360041444F203D2025730D0A000D0A205052D5
:100C46004F4752414D41444F204445425547203D70
:100C5600204F4E0D0A000D0A2050524F4752414D6B
:100C660041444F204445425547203D204F46460DBE
:100C76000A000D0A205553455F4C5052203D204F27
:100C860046460D0A000D0A205553455F4C5052202A
:100C96003D204F4E0D0A000D0A2050414E54414C46
:100CA6004C41204C43442050524F4752414D414401
:100CB600410D0A000D0A2050414E54414C4C412032
:100CC600524153504245525259202050524F47529A
:100CD600414D4144410D0A000D0A204558504944F2
:100CE60045205441524A4554412050554C53414E9B
:100CF600444F20424F544F4E0D0A000D0A204558CE
:100D060050494445205441524A4554412041555486
:100D16004F4D41544943410D0A000D0A2020414ED2
:100D26005449504153534241434B203D204F464680
:100D36000D0A000D0A20414E544950415353424179
:100D4600434B203D204F4E0D0A000D0A20504C41CA
:100D56004341203D204F46460D0A000D0A20504CC7
:100D6600414341203D204F4E0D0A000D0A204143CC
:100D76005455414C20414444524553535F484947DA
:100D8600485F424F415244203D2025730D0A000D15
:100D96000A205449504F5F5645484943554C4F2009
:100DA6004D454E5355414C203D204F46460D0A00B9
:100DB6000D0A205449504F5F5645484943554C4FFC
:100DC600204D454E5355414C203D204F4E0D0A00B7
:100DD6000D0A20414E5449504153534241434B2042
:100DE6004D454E5355414C203D204F46460D0A0079
:100DF6000D0A2020414E5449504153534241434B22
:100E0600204D454E5355414C203D204F4E0D0A0076
:100E16000D0A2041435455414C2046454348412044
:100E260044452056454E43494D49454E544F205062
:100E3600524F4752414D414441203D25730D0A0012
:100E46000D0A2049445F434C49454E544520202015
:100E56002020202020202D2D2D20434D44203020E1
:100E66004964656E746966696361646F722064655E
:100E76006C20636C69656E7465206D6178696D6F51
:100E860020323535000D0A20434F445F5041524B06
:100E960020202020202020202020202D2D2D204302
:100EA6004D44203120456C206E756D65726F20644F
:100EB600656C20706172717565616465726F206D15
:100EC6006178696D6F20323535000D0A20545F4711
:100ED600524143494120202020202020202020204C
:100EE6002D2D2D20434D442032205469656D706FA1
:100EF6002073696E20636F62726F2030302C202061
:100F06006D6178696D6F20323535000D0A205349C1
:100F16004E5F434F42524F20202020202020202089
:100F2600202D2D2D20434D44203320496E686162CB
:100F3600696C697461646F3D20302C20477261745E
:100F460069733D2031202C204772617469732079C2
:100F56002073616C69646120656C206D69736D6FC7
:100F6600206469613D2032000D0A20444542554700
:100F760020202020202020202020202020202D2D51
:100F86002D20434D44203420486162696C697461A8
:100F960072203D20312C20496E686162696C69744B
:100FA6006172203D2030000D0A205553455F4C509C
:100FB600522020202020202020202020202D2D2DD2
:100FC60020434D44203520486162696C6974617222
:100FD600203D20312C20496E686162696C6974611C
:100FE60072203D2030000D0A205449504F5F504179
:100FF6004E54414C4C412020202020202D2D2D20C8
:10100600434D4420362050414E54414C4C41204CD7
:101016004344203D302050414E54414C4C412052D7
:1010260041535042455252493D31000D0A20434139
:1010360052445F4155544F4D41544943412020206D
:10104600202D2D2D20434D44203720424F54544F00
:101056004E3D30204155544F4D41544943413D3159
:10106600000D0A20414E5449504153534241434BCF
:10107600202020202020202D2D2D20434D442038B7
:1010860020486162696C69746172203D20312C20B0
:10109600496E686162696C69746172203D20300036
:1010A6000D0A20504C4143412020202020202020A2
:1010B6002020202020202D2D2D20434D4420392076
:1010C600486162696C69746172203D20312C204947
:1010D6006E686162696C69746172203D2030000D32
:1010E6000A20414444524553535F484947485F42AA
:1010F6004F415244202D2D2D20434D442031302088
:101106004C6120646972656363696F6E20616C74FB
:10111600612064656C20626F6172642064656C2076
:101126006E756D65726F203520616C20392073698C
:101136006E6F207365207573612064656265206932
:101146007220656E2030000D0A20484F52415249E8
:101156004F2020202020202020202020202D2D2D33
:1011660020434D442031312050726F67616D6120FC
:10117600313020686F726172696F732064656C200C
:101186003120616C203130000D0A2056414C494413
:10119600415F564548495F4D454E5355414C2D2DAF
:1011A6002D20434D4420313220486162696C6974B8
:1011B6006172203D20312C20496E686162696C693C
:1011C600746172203D2030000D0A205553455F4161
:1011D60050425F4D454E5355414C202020202D2D29
:1011E6002D20434D4420313320486162696C697477
:1011F6006172203D20312C20496E686162696C69FC
:10120600746172203D2030000D0A205645525F5011
:10121600524F4752414D4143494F4E2020202D2DDC
:101226002D20434D44203134204D75657374726111
:10123600206C612070726F6772616D6163696F6E99
:10124600000D0A204159554441202020202020200D
:10125600202020202020202D2D2D20434D442031DC
:1012660035204D756573747261206C6F7320636FE2
:101276006D616E646F73000D0A2053414C49522014
:10128600202020202020202020202020202D2D2D31
:1012960020434D442031362053616C6972206465C9
:1012A6002070726F6772616D6163696F6E000D0AFF
:1012B6000A53697374656D612064652050726F67A7
:1012C60072616D6163696F6E2045787065646964EB
:1012D6006F72200D0A0D0A000D0A436F6D616E6470
:1012E6006F206E6F206578697374652027257327D4
:1012F600003A5B3C253F58545D3D2900232A594A54
:1013060041494D4563616D696C744B0077727A3261
:10131600357136382D393166532E4000200D0A00BE
:08132600200D0A00220D0A004F
:108BF9005401C32F00000000000000000000000025
:108C0900000000000000004B01B861646D696E004E
:108C19000000000000603601D7300000310000324A
:108C29000000330000340000350000360000370032
:108C39000038000039000031300031310031320094
:0F8C49003133003134003135003136003137001E
:0B56CC0090005DEBF0A3EAF0A3E9F012
:1056D70078627C007D017BFF7A1279F77E007F0B71
:1056E7001219FE786D7C007D017BFF7A1379027EAB
:1056F700007F101219FE787D7C007D017BFF7A13F5
:1057070079127E007F101219FE7B017A0079987F4B
:10571700507E0312B1757B017A007998128EF4EFEF
:105727003395E0FEEF64014E78627C007D017BFFDC
:1057370060067A00792680047A007931121E379044
:10574700005DE0FBA3E0FAA3E0F912000E90006011
:10575700EFF0E4A3F0900061E0FFC3940A74809433
:105767008040030258BE90005DE0FBA3E0FAA3E08F
:10577700F98F82758300121A3DFD7C0074622FF544
:1057870082E43400F583E02DFFEC339001B4F0A3FD
:10579700EFF07E00540FFFA3EEF0A3EFF0700BE0E5
:1057A70004F070069001B6E004F09001B6E0FEA3A5
:1057B700E0246CF58274003EF583E07E002DFFEE59
:1057C7003C9001B4F0A3EFF07E00540FFFA3EEF07E
:1057D700A3EFF0700BE004F070069001B6E004F060
:1057E7009001B6E0FEA3E0247CF58274003EF583C9
:1057F700E0FF9001B4E0FEA3E06FFF9001B4EEF08C
:10580700FEA3EFF0D394FFEE940040059001B4E4BB
:10581700F09001B4E0FEA3E0FFC3947AEE94004059
:1058270015D3EF94FFEE9400500CEF547AFF9001DC
:10583700B4E4F0A3EFF0C39001B5E094309001B465
:10584700E09400500CA3E02440F09001B4E0340051
:10585700F09001B4E0FEA3E0FFC3945BEE94004038
:1058670014D3EF9460EE9400500BE02407F09001FE
:10587700B4E03400F09001B4E0FEA3E0FFC3943A33
:10588700EE94004014D3EF9440EE9400500BE024C4
:10589700F9F09001B4E034FFF09001B4A3E0FF9079
:1058A7000061E0248DF582E43400F583EFF0900089
:1058B70061E004F002575C900061E0248DF582E41A
:0C58C7003400F583E4F07B017A00798D59
:0158D30022B2
:0BB1DB00900046EBF0A3EAF0A3E9F0BF
:10B1E600E490004CF090004CE0FFC39412748094FD
:10B1F600805041EF75F003A424D7F9740135F0FAB5
:10B206007B0178497C007D01121E3778497C007DE0
:10B2160001900046E0FBA3E0FAA3E0F9121D4EEF11
:10B226003395E04F700690004CE0FF2290004CE012
:06B2360004F080B17FFF6F
:01B23C0022EF
:08B84600E0FBA3E0FAA3E0F926
:0BB84E0090005DEBF0A3EAF0A3E9F02E
:10B8590078607C007D017B017A0179B8121E377806
:10B86900607C007D0190005DE0FBA3E0FAA3E0F9B4
:0EB87900121D4EEF3395E04F7002FF227FFF4D
:01B88700229E
:06B90A007B017A00793296
:0BB9100090005DEBF0A3EAF0A3E9F06B
:10B91B0078607C007D017BFF7A1379227E007F04A7
:10B92B001219FE9000677401F0A37400F0A3746009
:0FB93B00F090005DE0FBA3E0FAA3E0F90287764D
:10A47D00E0FBA3E0FAA3E02FF9EA3EFAE92401F9A3
:03A48D00E43AFAB4
:0BA49000900046EBF0A3EAF0A3E9F017
:10A49B0078497C007D017BFF7A1379267E007F044F
:10A4AB001219FE784D7C007D017BFF7A13792A7E91
:10A4BB00007F041219FE900046E0FBA3E0FAA3E034
:10A4CB00F9121A24FFB4200C900047E475F0011226
:10A4DB001AB080E2EF900067B4220D7401F0A37400
:10A4EB0000F0A3744DF080167401F0A37400F0A378
:10A4FB007449F0900046E0FBA3E0FAA3E0F9128761
:01A50B0076D9
:01A50C00222C
:10C0F50090007A7401F0A37401F0A374C3F07BFF80
:07C105007A00793C024007BB
:08AB70007A0079637B01E4FD2A
:0EAB7800900071EBF0A3EAF0A3E9F0A3EDF07A
:10AB860012C1FC900071E0FBA3E0FAA3E0F9EF121A
:10AB96001A6A900074E0701D900071E0FBA3E0FA61
:10ABA600A3E0F9121A2490007AF07BFF7A00794428
:10ABB60012400780057F2A12B9C9900071E0FBA3F5
:10ABC600E0FAA3E0F9121A24FF7E00900072E47501
:10ABD600F001121AB0900071E0FBA3E0FAA3E0F9CD
:09ABE600E4121A6AEF640D709785
:01ABEF002243
:10973700E4FDFC7FA812BA867E00900050EEF0A3ED
:10974700EFF090007A74FFF0A37400F0A37447F071
:10975700A3EEF0A3EFF07B017A0079461240019067
:10976700007A7401F0A37400F0A37446F07BFF7ACB
:1097770000794A1240077BFF7A0079661240077A20
:1097870000794612AB747B017A00794612893890CA
:109797000050EEF0A3EFF0FBE4FDFC7FA812B3C688
:1097A700E4FDFC7FA812BA867E00900050EEF0A37D
:1097B700EFF090007A74FFF0A37400F0A37447F001
:1097C700A3EEF0A3EFF07B017A00794612400190F7
:1097D700007A7401F0A37400F0A37446F07BFF7A5B
:0697E70000798602400734
:109449007D027C007FA812BA867E00900050EEF063
:10945900A3EFF090007A74FFF0A37400F0A37447AF
:10946900F0A3EEF0A3EFF07B017A007946124001F8
:1094790090007A7401F0A37400F0A37446F07BFFA6
:109489007A0079AB1240077BFF7A0079C512400751
:109499007B017A007946E4FD12AB787B017A007989
:1094A90046128938900050EEF0A3EFF0FB7D027C64
:1094B900007FA812B3C67D027C007FA812BA867EFF
:1094C90000900050EEF0A3EFF090007A74FFF0A343
:1094D9007400F0A37447F0A3EEF0A3EFF07B017AD8
:1094E90000794612400190007A7401F0A37400F0EB
:0D94F900A37446F07BFF7A0079E302400780
:109506007D047C007FA812BA867E00900050EEF0A3
:10951600A3EFF090007A74FFF0A37400F0A37447F1
:10952600F0A3EEF0A3EFF07B017A0079461240013A
:1095360090007A7401F0A37400F0A37446F07BFFE8
:109546007A0179061240077BFF7A017925124007D6
:109556007B017A007946E4FD12AB787B017A0079CB
:1095660046128938900050EEF0A3EFF0FB7D047CA4
:10957600007FA812B3C67D047C007FA812BA867E3F
:1095860000900050EEF0A3EFF090007A74FFF0A385
:109596007400F0A37447F0A3EEF0A3EFF07B017A1A
:1095A60000794612400190007A7401F0A37400F02D
:0D95B600A37446F07BFF7A0179480240075C
:106CCF007D067C007FA812BA867E00900050EEF001
:106CDF00A3EFF090007A74FFF0A37400F0A3744751
:106CEF00F0A3EEF0A3EFF07B017A0079461240019A
:106CFF00900050E07002A3E0701590007A04F0A3AA
:106D0F007400F0A37446F07BFF7A017970803590A0
:106D1F000050E07004A3E06401701590007A04F055
:106D2F00A37400F0A37446F07BFF7A017998801466
:106D3F0090007A7401F0A37400F0A37446F07BFF07
:106D4F007A0179BA1240077BFF7A0179F212400774
:106D5F007B017A007946E4FD12AB787B017A0079EA
:106D6F0046128938900050EEF0A3EFF0FB7D067CC1
:106D7F00007FA812B3C67D067C007FA812BA867E5C
:106D8F0000900050EEF0A3EFF090007A74FFF0A3A4
:106D9F007400F0A37447F0A3EEF0A3EFF07B017A39
:106DAF00007946124001900050E07002A3E0701588
:106DBF0090007A04F0A37400F0A37446F07BFF7A7E
:106DCF000179708035900050E07004A3E064017089
:106DDF001590007A04F0A37400F0A37446F07BFFC3
:106DEF007A017998801490007A7401F0A37400F0FE
:0D6DFF00A37446F07BFF7A0179BA124007B9
:016E0C002263
:107CCB007D087C007FA812BA867E00900050EEF0F3
:107CDB00A3EFF090007A74FFF0A37400F0A3744745
:107CEB00F0A3EEF0A3EFF07B017A0079461240018E
:107CFB00900050E07002A3E0701590007A04F0A39E
:107D0B007400F0A37446F07BFF7A02791180149013
:107D1B00007A7401F0A37400F0A37446F07BFF7A31
:107D2B000279351240077BFF7A0279571240077BA5
:107D3B00017A007946E4FD12AB787B017A00794633
:107D4B00128938900050EEF0A3EFF0FB7D087C0019
:107D5B007FA812B3C67D087C007FA812BA867E006E
:107D6B00900050EEF0A3EFF090007A74FFF0A37444
:107D7B0000F0A37447F0A3EEF0A3EFF07B017A00C1
:107D8B007946124001900050E07002A3E07015900C
:107D9B00007A04F0A37400F0A37446F07BFF7A0220
:107DAB007911801490007A7401F0A37400F0A3741D
:0B7DBB0046F07BFF7A0279351240078A
:017DC600229A
:107DC7007D0A7C007FA812BA867E00900050EEF0F4
:107DD700A3EFF090007A74FFF0A37400F0A3744748
:107DE700F0A3EEF0A3EFF07B017A00794612400191
:107DF700900050E07002A3E0701590007A04F0A3A1
:107E07007400F0A37446F07BFF7A02797C801490AB
:107E1700007A7401F0A37400F0A37446F07BFF7A34
:107E27000279A21240077BFF7A0279C61240077BCC
:107E3700017A007946E4FD12AB787B017A00794636
:107E4700128938900050EEF0A3EFF0FB7D0A7C001A
:107E57007FA812B3C67D0A7C007FA812BA867E006F
:107E6700900050EEF0A3EFF090007A74FFF0A37447
:107E770000F0A37447F0A3EEF0A3EFF07B017A00C4
:107E87007946124001900050E07002A3E07015900F
:107E9700007A04F0A37400F0A37446F07BFF7A0223
:107EA700797C801490007A7401F0A37400F0A374B5
:0B7EB70046F07BFF7A0279A212400720
:017EC200229D
:107EC3007D0E7C007FA812BA867E00900050EEF0F3
:107ED300A3EFF090007A74FFF0A37400F0A374474B
:107EE300F0A3EEF0A3EFF07B017A00794612400194
:107EF300900050E07002A3E0701590007A04F0A3A4
:107F03007400F0A37446F07BFF7A0279ED8014903D
:107F1300007A7401F0A37400F0A37446F07BFF7A37
:107F230003790F1240077BFF7A0379381240077BEE
:107F3300017A007946E4FD12AB787B017A00794639
:107F4300128938900050EEF0A3EFF0FB7D0E7C0019
:107F53007FA812B3C67D0E7C007FA812BA867E006E
:107F6300900050EEF0A3EFF090007A74FFF0A3744A
:107F730000F0A37447F0A3EEF0A3EFF07B017A00C7
:107F83007946124001900050E07002A3E070159012
:107F9300007A04F0A37400F0A37446F07BFF7A0226
:107FA30079ED801490007A7401F0A37400F0A37447
:0B7FB30046F07BFF7A03796412400760
:017FBE0022A0
:109208007D0F7C007FA812BA867E00900050EEF099
:10921800A3EFF090007A74FFF0A37400F0A37447F2
:10922800F0A3EEF0A3EFF07B017A0079461240013B
:10923800900050E07002A3E07BFF70067A037994F7
:1092480080047A0379B91240077BFF7A0379DA122E
:1092580040077B017A007946E4FD12AB787B017AFE
:10926800007946128938900050EEF0A3EFF0FB7DAC
:109278000F7C007FA812B3C67D0F7C007FA812BAAE
:10928800867E00900050EEF0A3EFF090007A74FF15
:10929800F0A37400F0A37447F0A3EEF0A3EFF07B03
:1092A800017A007946124001900050E07002A3E074
:1092B8007BFF70067A03799480047A0379B91240A7
:0192C800079E
:0192C9002282
:107FBF007D107C007FA812BA867E00900050EEF0F4
:107FCF00A3EFF090007A74FFF0A37400F0A374474E
:107FDF00F0A3EEF0A3EFF07B017A00794612400197
:107FEF00900050E07002A3E0701590007A04F0A3A7
:107FFF007400F0A37446F07BFF7A04790480149028
:10800F00007A7401F0A37400F0A37446F07BFF7A3A
:10801F0004792F1240077BFF7A0479581240077BAF
:10802F00017A007946E4FD12AB787B017A0079463C
:10803F00128938900050EEF0A3EFF0FB7D107C001A
:10804F007FA812B3C67D107C007FA812BA867E006F
:10805F00900050EEF0A3EFF090007A74FFF0A3744D
:10806F0000F0A37447F0A3EEF0A3EFF07B017A00CA
:10807F007946124001900050E07002A3E070159015
:10808F00007A04F0A37400F0A37446F07BFF7A0427
:10809F007904801490007A7401F0A37400F0A37433
:0B80AF0046F07BFF7A04792F12400797
:0180BA0022A3
:1080BB007D117C007FA812BA867E00900050EEF0F6
:1080CB00A3EFF090007A74FFF0A37400F0A3744751
:1080DB00F0A3EEF0A3EFF07B017A0079461240019A
:1080EB00900050E07002A3E0701590007A04F0A3AA
:1080FB007400F0A37446F07BFF7A047984801490AB
:10810B00007A7401F0A37400F0A37446F07BFF7A3D
:10811B000479A81240077BFF7A0479CA1240077BC7
:10812B00017A007946E4FD12AB787B017A0079463F
:10813B00128938900050EEF0A3EFF0FB7D117C001C
:10814B007FA812B3C67D117C007FA812BA867E0071
:10815B00900050EEF0A3EFF090007A74FFF0A37450
:10816B0000F0A37447F0A3EEF0A3EFF07B017A00CD
:10817B007946124001900050E07002A3E070159018
:10818B00007A04F0A37400F0A37446F07BFF7A042A
:10819B007984801490007A7401F0A37400F0A374B6
:0B81AB0046F07BFF7A0479A812400721
:0181B60022A6
:10885A007D127C007FA812BA867E00900050EEF04E
:10886A00A3EFF090007A74FFF0A37400F0A37447AA
:10887A00F0A3EEF0A3EFF07B017A007946124001F3
:10888A00900050E07002A3E0700690007A04800520
:10889A0090007A7401F0A37400F0A37446F07BFF91
:1088AA007A0479EF1240077BFF7A057913124007A1
:1088BA007B017A007946E4FD12AB787B017A007974
:1088CA0046128938900050EEF0A3EFF0FB7D127C3F
:1088DA00007FA812B3C67D127C007FA812BA867EDA
:1088EA0000900050EEF0A3EFF090007A74FFF0A32E
:1088FA007400F0A37447F0A3EEF0A3EFF07B017AC3
:10890A00007946124001900050E07002A3E0700620
:10891A0090007A04800590007A7401F0A37400F044
:0D892A00A37446F07BFF7A0479EF1240073A
:01893700221D
:10BDA0009000747419F0A37432F0A3744BF0A37470
:10BDB00064F0A3747DF0A37496F0A374AFF0A37441
:10BDC000C8F0A374E1F0A374FAF0E4A3F07B017A65
:03BDD00000797483
:01BDD300224D
:0A766800900061EEF0FCA3EFF0FDCE
:107672007FA812BA867E0090006DEEF0A3EFF09024
:10768200007A74FFF0A37400F0A37447F0A3EEF045
:10769200A3EFF07B017A00796312400190006DE064
:1076A2007002A3E0701590007A04F0A37400F0A3B6
:1076B2007463F07BFF7A05793B801490007A740141
:1076C200F0A37400F0A37463F07BFF7A0579611272
:1076D20040077BFF7A0579851240077B017A0079A2
:1076E20063E4FD12AB787B017A00796312893890EA
:1076F200006DEEF0A3EFF0900061E0FCA3E0FDABC3
:10770200077FA812B3C6900061E0FCA3E0FD7FA84A
:1077120012BA867E0090006DEEF0A3EFF090007A30
:1077220074FFF0A37400F0A37447F0A3EEF0A3EF8C
:10773200F07B017A00796312400190006DE07002E3
:10774200A3E090006F7018F0A3F090007A04F0A309
:107752007400F0A37463F07BFF7A05793B8017E431
:10776200F0A304F090007AF0A37400F0A37463F025
:0F7772007BFF7A05796112400790006FA3E0FF5B
:0177810022E5
:0858D400900061EEF0A3EFF07B
:1058DC007BFF7A0579AC12400712AB707BFF7A051F
:1058EC0079D2124007900062E02407FD900061E03D
:1058FC003400FC900063E0FB7FA812B3C6900062FA
:10590C00E02407FD900061E03400FC7FA812BA8609
:10591C007BFF7A00794490007AEFF01240079000F8
:10592C0062E02408FD900061E03400FC900064E02B
:10593C00FB7FA812B3C6900062E02408FD900061C2
:10594C00E03400FC7FA812BA867BFF7A0579EE90D2
:10595C00007AEFF0124007900062E02409FD9000FD
:10596C0061E03400FC900066E0FB7FA812B3C690A7
:10597C000062E02409FD900061E03400FC7FA81275
:10598C00BA867BFF7A00794490007AEFF0124007D8
:10599C00900062E0240AFD900061E03400FC90006D
:1059AC0067E0FB7FA812B3C6900062E0240AFD906A
:1059BC000061E03400FC7FA812BA867BFF7A007984
:1059CC004490007AEFF01240077BFF7A0579F212CF
:1059DC00400712AB707BFF7A0679121240079000D9
:1059EC0062E0240BFD900061E03400FC900063E069
:1059FC00FB7FA812B3C6900062E0240BFD900061FF
:105A0C00E03400FC7FA812BA867BFF7A00794490C0
:105A1C00007AEFF0124007900062E0240CFD900039
:105A2C0061E03400FC900064E0FB7FA812B3C690E8
:105A3C000062E0240CFD900061E03400FC7FA812B1
:105A4C00BA867BFF7A0579EE90007AEFF012400768
:105A5C00900062E0240DFD900061E03400FC9000A9
:105A6C0066E0FB7FA812B3C6900062E0240DFD90A7
:105A7C000061E03400FC7FA812BA867BFF7A0079C3
:105A8C004490007AEFF0124007900062E0240EFD83
:105A9C00900061E03400FC900067E0FB7FA812B33B
:105AAC00C6900062E0240EFD900061E03400FC7FA3
:105ABC00A812BA867BFF7A00794490007AEFF00244
:025ACC00400791
:08778200900074EEF0A3EFF09B
:10778A007BFF7A06792E124007900075E02407FDE8
:10779A00900074E03400FC7FA812BA867BFF7A0658
:1077AA00794090007AEFF0124007900075E02408C3
:1077BA00FD900074E03400FC7FA812BA867BFF7A41
:1077CA000579EE90007AEFF0124007900075E024F8
:1077DA0009FD900074E03400FC7FA812BA867BFF92
:1077EA007A00794490007AEFF0124007900075E031
:1077FA00240AFD900074E03400FC7FA812BA867B4C
:10780A00FF7A06794490007AEFF0124007900075EB
:10781A00E0240BFD900074E03400FC7FA812BA86C5
:10782A007BFF7A00794490007AEFF01240079000CB
:10783A0075E0240CFD900074E03400FC7FA812BAB5
:10784A00867BFF7A0579EE90007AEFF01240079076
:10785A000075E0240DFD900074E03400FC7FA8124E
:10786A00BA867BFF7A00794490007AEFF0124007DB
:10787A00900075E0240EFD900074E03400FC7FA8AF
:10788A0012BA867BFF7A00794490007AEFF00240C0
:01789A0007E6
:084A4B00900061EEF0A3EFF012
:104A53007BFF7A06794A1240077BFF7A0679761242
:104A630040077BFF7A06799E1240077B017A007923
:104A730063E4FD12AB787BFF7A0679C6124007E444
:104A830090006EF090006EE0FFC3940874809480F1
:104A93004003024D0174632FF582E43400F583E093
:104AA30090006FF0643270437BFF7A0679DE124028
:104AB30007900062E02401FD900061E03400FC7B7C
:104AC300327FA812B3C6900062E02401FD9000611A
:104AD300E03400FC7FA812BA8690006DEFF07BFFF4
:104AE3007A0679E590007AF012400790006EE02490
:104AF30063F582E43400F583E090006FF064337073
:104B0300437BFF7A0679EB124007900062E02402B0
:104B1300FD900061E03400FC7B337FA812B3C690A4
:104B23000062E02402FD900061E03400FC7FA812E3
:104B3300BA8690006DEFF07BFF7A0679E590007AF4
:104B4300F012400790006EE02463F582E43400F530
:104B530083E090006FF0643470437BFF7A0679F34F
:104B6300124007900062E02403FD900061E03400EE
:104B7300FC7B347FA812B3C6900062E02403FD904F
:104B83000061E03400FC7FA812BA8690006DEFF05C
:104B93007BFF7A0679E590007AF012400790006E69
:104BA300E02463F582E43400F583E090006FF06461
:104BB3003570437BFF7A0679FE124007900062E06E
:104BC3002404FD900061E03400FC7B357FA812B320
:104BD300C6900062E02404FD900061E03400FC7F95
