:10830D0041016A0A41019D004101A80041019E0001
:10831D004101A60042019F00004101A7064101ACA9
:09832D00034101ABF2C109C10AD0
:03000B0002B06AD6
:10B06A00C0E0C083C08290016AE014F0E06401701D
:10B07A000690019DE004F09001A0E004F0700690B3
:0EB08A00019FE004F0C28DD082D083D0E0326E
:10B3D900E58954F04401F589E4F58CF58AD28C228B
:05B46E00C28DD2A922ED
:03B47D00C2A9223F
:0BB4080012B18DEFF47002EEF460F55D
:01B413002216
:05ACE2009000A8EFF056
:10ACE7009000A8E0FF12AE89EF3395E04F6024E4AF
:10ACF7009000A9F0A3F0C39000AAE094E89000A9FF
:10AD0700E0940350DBA3E004F070EB9000A9E004AB
:08AD1700F080E39000A8E0FFCA
:01AD1F002211
:0EAA4600900028EBF0A3EAF0A3E9F0A3EDF0F6
:10AA5400E4A3F090002BE0FFA3E0C39F50299000F3
:10AA640028E0FBA3E0FAA3E0F9121A24FF12ACE2F7
:10AA740090002DEFF0900029E475F001121AB090C7
:07AA8400002CE004F080CC7F
:01AA8B0022A8
:10B3E90012B47812B43012B414C283D287C297222D
:10A7F6007D047C007FA812AD619001A9E4F0A3EF6F
:10A80600F07D067C007FA812AD619001A4E4F0A360
:10A81600EFF07D087C007FA812AD619001A2EFF0F9
:10A826007D0A7C007FA812AD619001A1EFF07D0E3C
:0DA836007C007FA812AD619001A3EFF0221D
:109D5D00E4900000F012B3D912B46E12B0C412B177
:109D6D001612B3E9D2AF12B2A97F217E0012B37FD2
:109D7D0012B32A7F6112A8DF12B437209103124A61
:109D8D00B312A7F6126458EF70FA90016A7405F0D9
:109D9D0020800312B1D9900000E0FF1237B290007D
:109DAD0000EFF020B3267B017A0179421293F390F4
:109DBD000001EFF0FD7B017A01794212AE4E7B017D
:109DCD007A017942900001E0FD123F43129E5F80BF
:019DDD00BFC6
:05B473004C49564500A4
:0E3F4300900002EBF0A3EAF0A3E9F0A3EDF08A
:103F51006419705D900002E0FBA3E0FAA3E0F9129E
:103F61001A246402704B900002121A3D6448704199
:103F7100900005E07E0024FFF582EE34FFF5831208
:103F81001A3D6403702B900002A3A3E02403F9E41B
:103F91003AFA126D98EF6003024280900002E0FB52
:103FA100A3E0FAA3E02403F9E43AFA12988C02A7F9
:103FB100A8900002E0FBA3E0FAA3E0F9121A24643E
:103FC100B67028900267E004F0E0D3940474809402
:103FD1008050030242807FAE1225E5C282E4900147
:103FE1009DF0C297C283900267F022900002E0FB2D
:103FF100A3E0FAA3E0F9121A24FF64B76005EF64A5
:10400100AA705390019DE0C3941474809480400879
:10401100E4F0C297D282C2839001A2E0600302421F
:10402100809001A1E064016003024280C39001A07D
:10403100E0945890019FE094025003024280E4F022
:10404100A3F09001A204F07BFF7AB4797312A93234
:10405100E49001A2F022900002E0FBA3E0FAA3E0C9
:10406100F9121A2464B170057F6002413890000290
:10407100E0FBA3E0FAA3E0F9121A2464B270057F11
:104081005D024138900005E064017017900002E084
:10409100FBA3E0FAA3E0F9121A2464A170057F5A88
:1040A100024138900005E064017016900002E0FBC7
:1040B100A3E0FAA3E0F9121A24640670047FAA802F
:1040C10076900005E064017016900002E0FBA3E029
:1040D100FAA3E0F9121A24640770047F5F805890F4
:1040E1000005E064017016900002E0FBA3E0FAA372
:1040F100E0F9121A24640870047F61803A90000587
:10410100E064017016900002E0FBA3E0FAA3E0F97D
:10411100121A24640970047FAF801C900005E064CA
:10412100017017900002E0FBA3E0FAA3E0F9121A74
:104131002464B470057F5E0225E5900005E0FF640C
:10414100137038900002E0FBA3E0FAA3E0F99000BD
:1041510001121A3DB456247E0074FF2FF582EE340D
:10416100FFF583121A3D64037011900002A3A3E0CE
:104171002402F9E43AFA7F5B024241900005E0FF34
:1041810064066003024244900002E0FBA3E0FAA34C
:10419100E0F9121A24640260030242449000011201
:1041A1001A3D64576003024244FE74FF2FF582EE0C
:1041B10034FFF583121A3D64036003024244900008
:1041C10002A3A3900002121A3DFD7B017A00790639
:1041D10012A58E9000097420F0900002E0FBA3E08C
:1041E100FAA3E0F9900003121A3DFD900002A3A387
:1041F100900004121A3D90001AF07B017A00790AAE
:104201001242819001A1E06401702112AEFEEFF42F
:1042110060077FAA1225E580097B017A00790612E1
:104221007EFE7B017A0079067F5C801412AEFEEF80
:10423100F460057FAA1225E57B017A0079067F5C8F
:10424100024808900005E0FF640C7033900002E022
:10425100FBA3E0FAA3E0F9121A2464027021FE74B0
:10426100FF2FF582EE34FFF583121A3D6403700FC0
:0F427100900002A3A3E02401F9E43AFA12817647
:01428000221B
:0EABE100900033EBF0A3EAF0A3E9F0A3EDF04F
:10ABEF00E4A3F0900036E0FFA3E0C39F5024900051
:10ABFF0033E0FBA3E0FAA3E0F9121A24FF12A8DF57
:10AC0F00900034E475F001121AB0900037E004F0B0
:02AC1F0080D1E2
:01AC21002210
:0B7EFE00900011EBF0A3EAF0A3E9F004
:107F09009000327403F090001414F012AB5C9000EE
:107F190015EFF0A37453F09001A6E09000326013BE
:107F2900E0FF04F074142FF582E43400F583744DF6
:107F3900F08011E0FF04F074142FF582E43400F5A9
:107F4900837443F09000327404F0900011E0FBA3B5
:107F5900E0FAA3E0F9121A24FF6021900032E0242C
:107F690014F582E43400F583EFF0900012E475F023
:107F790001121AB0900032E004F080CE900032E095
:107F8900FF04F074142FF582E43400F583743AF099
:107F9900900032E02414F9E43400FA7B01125B2CDE
:107FA900900032E0FF241EF582E43400F583743A30
:107FB900F0741F2FF582E43400F5837403F07B011C
:0B7FC9007A007914EF240CFD02ABE1FC
:08000300D29412B483C29422CE
:05ACA3009000B5EFF088
:10ACA800E4A3F0A3F09000B5E0FFA2E713F030D7DB
:10ACB80004D2958002C2951200039000B7E004F018
:10ACC80070069000B6E004F0C39000B7E0940890D6
:09ACD80000B6E06480948040CCD9
:01ACE1002250
:0A976C00EBF0A3EAF0A3E9F07F8D13
:059776009000B2EFF0CD
:10977B00D2967F037E0012B37F9000B2E0FF12AC53
:10978B00A3E49000B3F0A3F09000B3E0FCA3E0FDE2
:10979B00C39408EC64809480504F30951690026807
:1097AB00E04480F0ED9406EC648094805005E0FF7B
:1097BB00C313F0209520900268E0547FF0D3900003
:1097CB00B4E094069000B3E064809480500890025B
:1097DB0068E0FFC313F01200039000B4E004F070D4
:1097EB00A79000B3E004F0809FC296900268E0FF60
:0197FB00224B
:10B0EE00900014EFF0A3EDF0D2967F037E0012B322
:10B0FE007F900014E0FF12ACA3900015E0FF9000CB
:08B10E0014F012ACA3C296225A
:10AC2200900012E475F001121AB0900012E475F06F
:10AC320001121AB0900012E475F001121AB09000DD
:10AC420011E0FBA3E0FAA3E0F9121A24FF9000013D
:04AC5200121A3DFD98
:0CAC5600EF540FC454F0FFED540F4FFFFB
:01AC620022CF
:106D9800E4FF121A24FEC394305003026EAAEED305
:106DA80094394003026EAA900001121A3DFEC39462
:106DB800305003026EA7EED394394003026EA790B9
:106DC8000003121A3DFEC394305003026EA4EED3A2
:106DD80094394003026EA4900004121A3DFEC39435
:106DE800305003026EACEED394394003026EAC907F
:106DF8000008121A3DFEC394305003026EA1EED370
:106E080094394003026EA190000B121A3DFEC39400
:106E1800305003026E9EEED39439507A90000C12D3
:106E28001A3DFEC39430406BEED394395065900000
:106E38000E121A3DFEC394304056EED3943950508A
:106E480090000F121A3DFEC394304041EED394399E
:106E5800503B900011121A3DFEC39430402CEED3E3
:106E680094395026900012121A3DFEC394304017F0
:106E7800EED394395011900014121A3DFEC3943089
:106E88004022EED39439227F01227F01227F012202
:106E98007F01227F01227F01227F01227F01227F41
:046EA80001227F0143
:016EAC0022C3
:0B988C00900011EBF0A3EAF0A3E9F05C
:1098970012AC40AD077F8612B0EE12AC22AD077F47
:1098A7008812B0EE900012E475F001121AB0900021
:1098B70012E475F001121AB012AC22AD077F8C12B8
:1098C700B0EE12AC22AD077F8412B0EE12AC22AD1F
:1098D700077F8212B0EE12AC22AD077F8012B0EE86
:1098E700900012E475F001121AB0900012E475F0BE
:1098F70001121AB0900012E475F001121AB090002C
:1099070011E0FBA3E0FAA3E0F9121A245407FD7F44
:049917008A02B0EE22
:10B2C200AE07EEC4540F540FFE6012EF540FFFE4AA
:0DB2D200FDEDC39E5007740A2FFF0D80F4A0
:01B2DF00224C
:10AD2000121A7C90005FE475F001121AB090005E78
:0CAD3000E0FBA3E0FAA3E0F9121A24FFF4
:10AD3C00E4FEFDFCECC39F500B0DED640A7002FDAC
:10AD4C000E0C80F0EEC454F054F0FEED540F4EFF98
:01AD5C0022D4
:0B95B90090005EEBF0A3EAF0A3E9F0E5
:1095C40012AD2DEF54F0C4540F4430FE900061E00E
:1095D400FBA3E0FAA3E0F9EE121A6AEF540F443049
:1095E400FF900061E0FBA3E0FAA3E0F9900001EF33
:1095F40012AD20EF54F0C4540F4430FE900061E0EB
:10960400FBA3E0FAA3E0F9900002EE121A7CEF54F7
:109614000F443090000312AD20EF54F0C4540F44B3
:1096240030FE900061E0FBA3E0FAA3E0F9900004AF
:10963400EE121A7CEF540F4430900005121A7C90FD
:069644000006E4021A7C9E
:10A58E00E4FFFE900016EDF0900016E0C3946474A4
:10A59E008094804007E0249CF00F80ECEF44301252
:10A5AE001A6A740129F9E43AFA900016E0C3940A83
:10A5BE00748094804007E024F6F00E80ECEE443078
:10A5CE00121A6A740129F9E43AFA900016E044303E
:0EA5DE00121A6A740129F9E43AFAE4021A6AC0
:0E428100900016EBF0A3EAF0A3E9F0A3EDF035
:10428F00E490001BF0A3F090001EF0A3F0A3F0A3A6
:10429F00F090001DEDF054F0F0E0FFC4540FF090DB
:1042AF000026121B59404000007F007E007D807C5D
:1042BF0041125C9AC004C005C006C00790001DE003
:1042CF00FCE4121536D003D002D001D00012142610
:1042DF00C004C005C006C00790001BE0FCA3E0FDB2
:1042EF00E4121531D003D002D001D00012133512D1
:1042FF00156A90001BEEF0A3EFF0900019E090000C
:10430F001DF0540FF0900026121B59400000007F43
:10431F00007E007D807C41125C9AC004C005C006FF
:10432F00C00790001DE0FCE4121536D003D002D078
:10433F0001D000121426C004C005C006C0079000AB
:10434F001BE0FCA3E0FDE4121531D003D002D00135
:10435F00D00012133512156A90001BEEF0A3EFF088
:10436F0090001AE090001DF054F0F0E0FFC4540FDD
:10437F00F0900026121B593F8000007F007E007DC9
:10438F00807C41125C9AC004C005C006C007900033
:10439F001DE0FCE4121536D003D002D001D000127C
:1043AF001426C004C005C006C00790001BE0FCA384
:1043BF00E0FDE4121531D003D002D001D00012136A
:1043CF003512156A90001BEEF0A3EFF090001AE083
:1043DF0090001DF0540FF0900026121B59000000A2
:1043EF00007F007E007D807C41125C9AC004C00576
:1043FF00C006C00790001DE0FCE4121536D003D0B4
:10440F0002D001D000121426C004C005C006C00798
:10441F0090001BE0FCA3E0FDE4121531D003D002A5
:10442F00D001D00012133512156A90001BEEF0A3C5
:10443F00EFF0C3EF9410EE9427401074F02FFF7439
:10444F00D83EFE90001EE004F080E790001EE0448E
:10445F0030FD900016E0FBA3E0FAA3E0F9ED121A8D
:10446F006A900017E475F001121AB0C3EF94E8EEEA
:10447F009403401074182FFF74FC3EFE90001FE051
:10448F0004F080E790001FE04430FD900016E0FB41
:10449F00A3E0FAA3E0F9ED121A6A900017E475F0A1
:1044AF0001121AB0C3EF9464EE94004010749C2F65
:1044BF00FF74FF3EFE900020E004F080E7900020A4
:1044CF00E04430FD900016E0FBA3E0FAA3E0F9ED25
:1044DF00121A6A900017E475F001121AB0C3EF9424
:1044EF000AEE9400401074F62FFF74FF3EFE90000A
:1044FF0021E004F080E7900021E04430FD900016A9
:10450F00E0FBA3E0FAA3E0F9ED121A6A900017E4BA
:10451F0075F001121AB0EF4430FF900016E0FBA3C4
:10452F00E0FAA3E0F9EF121A6A900017E475F001B0
:10453F00121AB0900016E0FBA3E0FAA3E0F9E40230
:02454F001A6AE6
:035B2C0090005294
:105B2F0012976CEF54F0C4540F4430FE900052E0C3
:105B3F00FBA3E0FAA3E0F9EE121A6A900053E475A2
:105B4F00F001121AB0EF540F4430FF900052E0FBF7
:105B5F00A3E0FAA3E0F9EF121A6A900053E475F08C
:105B6F0001121AB07F89129776EF54F0C4540F4484
:105B7F0030FE900052E0FBA3E0FAA3E0F9EE121A18
:105B8F006A900053E475F001121AB0EF540F4430CD
:105B9F00FF900052E0FBA3E0FAA3E0F9EF121A6ABC
:105BAF00900053E475F001121AB07F87129776EFC9
:105BBF0054F0C4540F4430FE900052E0FBA3E0FABF
:105BCF00A3E0F9EE121A6A900053E475F001121A6D
:105BDF00B0EF540F4430FF900052E0FBA3E0FAA364
:105BEF00E0F9EF121A6A900053E475F001121AB03F
:105BFF007F85129776EF54F0C4540F4430FE900017
:105C0F0052E0FBA3E0FAA3E0F9EE121A6A900053F8
:105C1F00E475F001121AB0EF540F4430FF900052A8
:105C2F00E0FBA3E0FAA3E0F9EF121A6A900053E445
:105C3F0075F001121AB07F83129776EF54F0C454A7
:105C4F000F4430FE900052E0FBA3E0FAA3E0F9EE20
:105C5F00121A6A900053E475F001121AB0EF540F44
:105C6F004430FF900052E0FBA3E0FAA3E0F9EF12FB
:105C7F001A6A900053E475F001121AB0900052E0C6
:0B5C8F00FBA3E0FAA3E0F9E4021A6AAC
:109040009000AF12976C12B2C29000AFE0FBA3E0A9
:10905000FAA3E0F9EF121A6A9000B0E475F0011279
:109060001AB07F8912977612B2C29000AFE0FBA3CC
:10907000E0FAA3E0F9EF121A6A9000B0E475F0018B
:10908000121AB07F8712977612B2C29000AFE0FB3F
:10909000A3E0FAA3E0F9EF121A6A9000B0E475F0C9
:1090A00001121AB07F8512977612B2C29000AFE01B
:1090B000FBA3E0FAA3E0F9EF121A6A9000B0E4759E
:1090C000F001121AB07F8312977612B2C29000AFED
:1090D000E0FBA3E0FAA3E0F9EF121A6A9000B0E413
:0690E00075F001021AB058
:10856A0090001E12976C90001EE0FBA3E0FAA3E0B5
:10857A00F9EF121A6A90001FE475F001121AB07F1F
:10858A008912977690001EE0FBA3E0FAA3E0F9EFC8
:10859A00121A6A90001FE475F001121AB07F87124E
:1085AA00977690001EE0FBA3E0FAA3E0F9EF121A17
:1085BA006A90001FE475F001121AB07F851297764F
:1085CA0090001EE0FBA3E0FAA3E0F9EF121A6A900A
:1085DA00001FE475F001121AB07F8312977690009B
:1085EA001EE0FBA3E0FAA3E0F9EF121A6A90001F5B
:1085FA00E475F001121AB07F8112977690001EE09E
:10860A00FBA3E0FAA3E0F9EF121A6A90001FE475DF
:10861A00F001121AB090001EE0FBA3E0FAA3E0F901
:04862A00E4021A6AE2
:07B43000C294C296D29522DE
:0B84A10090009DEBF0A3EAF0A3E9F0CF
:1084AC007B017A0079A81290409000A8E0FF7E0032
:1084BC007C017D6D121A9EAC06AD07A3E075F01E13
:1084CC00A42DFFEC35F0FEA3E07C002FFFEC3EFE6C
:1084DC00E4FD9000A0121B4D90009DE0FBA3E0FA80
:1084EC00A3E0F9900001121A3DFF3395E0FE7C00E9
:1084FC007D1E121A9EC006C007121A24FF3395E087
:10850C00FE0C7D6D121A9ED0E02FFFD0E03EFE9047
:10851C000002121A3DFD3395E0FCEF2DFFEE3CFE00
:10852C003395E0FDFC9000A4121B4D9000A0E0FCE4
:10853C00A3E0FDA3E0FEA3E0FFA3E0F8A3E0F9A312
:10854C00E0FAA3E0FBC3121AEA40089000AE7401F3
:0D855C00F08005E49000AEF09000AEE0FF6E
:0185690022EF
:10B37F00E4FDFCC3ED9FEC9E50070DBD00010C805A
:01B38F00F2CB
:01B39000229A
:04B2E000AB07AA0608
:10B2E400900000C3E5829BE5839A500A7F967E0016
:06B2F40012B37FA380ED00
:01B2FA002231
:08AEC400900009EEF0A3EFF08D
:10AECC00E4A3F0A3F0900009E0FEA3E0FFC3900020
:10AEDC000CE09F90000BE09E50177F0A7E0012B290
:10AEEC00E090000CE004F070DC90000BE004F080CB
:01AEFC00D481
:01AEFD002232
:01B4830022A6
:10AE13004572726F72206465207469636B65740098
:10AE23000A0D004E756D65726F2064652074696349
:10AE33006B65743A004E6F206465207469636B65BB
:0BAE430074204845583A00256C75004B
:03B2440012B22221
:10B24700D20DD293D292E4FFFE209205C20DC29393
:0CB25700220FBF00010EBE04F0BF4CED42
:01B2630022C8
:03B2640012B22201
:10B26700D293D292D20DE4FFFE209205C20DC29373
:0CB27700220FBF00010EBE02F0BF8AEDE6
:01B2830022A8
:06B46800D29300C2932202
:10B22200E4FEEEC39408748094805015EF25E0FF8D
:10B2320030D704D2928002C292D29312B4680E80A6
:01B24200E12A
:01B2430022E8
:08B39100ECFD7C00C293C292A6
:0AB39900D292D29300C292C2932216
:09B41E00C293C292D293D2922291
:10A84300E4FBEBFDC39408748094805038C29330CA
:10A85300921690025FE04401F0ED940674809480B8
:10A863005006E025E0F0D29320921790025FE05467
:10A87300FEF0EBD39406748094805006E025E0F05C
:0CA88300D2930B80BDC29390025FE0FFF7
:01A88F0022A6
:10A7520090005EE0FCA3E0FDA3E0FBA3E0FAA3E02F
:07A76200F9121A24FB7FA885
:02A76900AA073D
:10A76B00AF05A90712B391AF0212B244AF0512B2F3
:10A77B0044AF0112B22212B247AF0312B22212B28D
:10A78B004712B41E7F0D7E0012B2E0D293D2927F9D
:0DA79B00627E0012B37F7F627E0002B37FFA
:04AD5D007C027FA84D
:02AD6100AB073E
:10AD6300AF05AA0712B391AF0312B264AF0512B2D3
:10AD730064AF0212B22212B26712B399EB04FF124C
:10AD8300B22212B247C29312A84312B41ED293D274
:06AD93009290025FE0FF58
:01AD99002297
:0B817600900011EBF0A3EAF0A3E9F089
:10818100E4900015F0900011E0FBA3E0FAA3E0F900
:1081910090000AE4121A7CE4900014F0900014E0BC
:1081A100FFD39409748094805057900011E0FBA391
:1081B100E0FAA3E0F98F82758300121A3DFF7E0079
:1081C100C3943074809480400AD3EF9439748094BE
:1081D1008040269000157401F07BFF7AAE7913126E
:1081E100A932900011E0FBA3E0FAA3E0F912A93251
:1081F1007BFF7AAE792312A932900014E004F0805B
:108201009B900015E0700E900011E0FBA3E0FAA333
:10821100E0F90279AFE4FBFD7C027FA812A769E4D3
:10822100FB7D017C027FA812A769E4FB7402FDFCBF
:108231007FA812A769E4FB7D037C027FA812A769CE
:01824100221A
:0B79AF00900016EBF0A3EAF0A3E9F053
:1079BA007F007E007D007C007BFF7AAE792612A9CB
:1079CA0032900016E0FBA3E0FAA3E0F912A9327B99
:1079DA00FF7AAE792312A932900016E0FBA3E0FAEF
:1079EA00A3E0F9126FBC90001D121B4D7BFF7AAE0B
:1079FA00793812A93290001DE0FCA3E0FDA3E0FE55
:107A0A00A3E0FF7818121AFB900019EFF012A9B838
:107A1A0090001DE0FCA3E0FDA3E0FEA3E0FF7810C8
:107A2A00121AFB90001AEFF012A9B890001DE0FCA0
:107A3A00A3E0FDA3E0FEA3E0FF7808121AFB900082
:107A4A001BEFF012A9B890001DA3A3A3E0FF9000BA
:107A5A001CF012A9B87BFF7AAE792312A9329000E2
:107A6A0019E0FB7D007C027FA812A76990001AE04A
:107A7A00FB7D017C027FA812A76990001BE0FB74C2
:107A8A0002FDFC7FA812A76990001CE0FB7D037C25
:067A9A00027FA802A769AB
:10A890001283D790007B74FFF0A374AEF0A3744AC8
:10A8A000F0A3121B4D7B017A00791E1233947B01B9
:10A8B0007A00791E12000E741E2FF582E43400F522
:10A8C00083E4F07B017A00791E12A9327BFF7AAE15
:0BA8D000792312A9327B017A00791E67
:01A8DB00225A
:1083D70090002C121B59000000007D0012AD5DA912
:1083E700077D0112AD5D900029EFF07402FDFC7F5F
:1083F700A812AD6190002AEFF07D0312AD5D9000E9
:108407002BEFF0AF01A3E0F8A3E0F9A3E0FAA3E0B4
:108417004FFFEAFEE9FDE8FC7808121B0E90002CDE
:10842700121B4D900029E0FF90002CE0F8A3E0F923
:10843700A3E0FAA3E04FFFEAFEE9FDE8FC780812A3
:108447001B0E90002C121B4D90002AE0FF90002C71
:10845700E0F8A3E0F9A3E0FAA3E04FFFEAFEE9FDA5
:10846700E8FC7808121B0E90002C121B4D90002B75
:10847700E0FFA3E0F8A3E0F9A3E0FAA3E04FFFEAE7
:10848700FEE9FDE8FC90002C121B4D90002CE0FC4F
:09849700A3E0FDA3E0FEA3E0FF59
:0184A00022B9
:10AF6C001283D7EF2401FFE43EFEE43DFDE43CFCFC
:10AF7C0090007B74FFF0A374AEF0A3744AF0A3129C
:10AF8C001B4D7B017A0079071233947B017A00798F
:04AF9C00070279AF80
:10A3FF0090009DEEF0A3EFF0A3EBF0A3EAF0A3E93A
:01A40F00F05C
:10A4100090009DE0FCA3E0FD7FA812AD6190009F3D
:10A42000E0FBA3E0FAA3E0F9EF121A6A90009FE0C4
:10A43000FBA3E0FAA3E0F9121A24FF90009EE004C7
:10A44000F0700690009DE004F09000A0E475F0012B
:10A45000121AB0EF70BA90009FE0FBA3E0FAA3E0FD
:05A46000F9E4021A6A94
:10A3250090005EEEF0A3EFF0A3EBF0A3EAF0A3E953
:10A33500F0900060E0FBA3E0FAA3E0F9121A2460B4
:10A3450024B40D04E4121A6A12A75290005FE004C7
:10A35500F0700690005EE004F0900061E475F00195
:10A36500121AB080CC12A75290005FE004F070067C
:10A3750090005EE004F0900061E475F001121AB0FF
:0FA3850090005EE0FCA3E0FDE4FB7FA802A76967
:108D940053656E736F726573204175746F2079200B
:108DA40073656E736F72312061637469766F732EAD
:108DB4000A0D0053656E736F722061637469766F78
:108DC4002073656E736F72312E0A0D0044657465ED
:108DD400637461646F2E2053656E736F72204175E6
:108DE400746F2E0A0D0053656E736F726573206E77
:108DF4006F2064657465637461646F732E0A0D007B
:108E04005665686963756C6F204573706572616E31
:108E1400646F2053616C69722E0A0D00566568698F
:108E240063756C6F2053616C69656E646F2E205599
:0D8E34006E206D6F6D656E746F2E0A0D005F
:048336004102690097
:07B43700C2B5C2B6C2B72284
:07B43E00C2B5D2B6C2B7226D
:07B44500D2B5D2B6C2B72256
:07B44C00C2B5C2B6D2B7225F
:07B45300D2B5C2B6D2B72248
:07B45A00C2B5D2B6D2B72241
:07B46100D2B5D2B6D2B7222A
:10B28400E4FF7DF47C01309115EFFB3395E04B70C6
:0EB294000DED1D70011CED4C70EC7F0180E88B
:01B2A2002289
:10AB5C009000337401F012B45A309103E004F012F7
:10AB6C00B461309107900033E02402F0900033E0A0
:10AB7C00640170177D12FC7FA812AD61EF600CF4BC
:10AB8C00900033700404F08002EFF0900033E02466
:02AB9C0030FF88
:01AB9E002294
:10B341007D127C007FA812AD61EF6005F470027F71
:05B3510001EF2430FFB4
:01B3560022D4
:10A6A20012B45320912312B43E7BFF20910D7A8D78
:10A6B200799412A932E49001A680227A8D79B71298
:10A6C200A9329001A67401801412B43E7BFF20913E
:10A6D200157A8D79D012A9329001A67401F09000FA
:10A6E2001274FFF0800C7A8D79EA12A932E490009C
:07A6F20012F0900012E0FFDE
:01A6F900223E
:10AEFE0012B44C30912012B284EF3395E0FEEF6421
:10AF0E00014E700A12A6A2900011EFF080147BFF82
:10AF1E007A8E790480067BFF7A8E792012A9327F91
:07AF2E000022900011E0FF7A
:01AF350022F9
:109E5F00E4900002F012B437209169900269E0702B
:109E6F0016900002E0701030B35A04F012B09890C0
:109E7F0002697401F0804D900269E06401701690E0
:109E8F000002E0701030B33C04F0126A499002698E
:109E9F007402F0802F900269E06402702790000234
:109EAF00E0702130B31E04F07D0C7C007FA812AD52
:109EBF0061EF640170047F5380027F4E129ABFE4FA
:0F9ECF00900269F012B437309105E4900002F070
:019EDE002261
:102CD900494E4752455345205441524A4554412093
:102CE900005441524A4554412053494E20494E47C8
:102CF9005245534F20005441524A455441204E4FAA
:102D0900205245474953545241205041474F2000D2
:102D1900455843454445205449454D504F20444565
:102D29002047524143494120004D454E5355414C9E
:102D3900204E4F204553544120454E205041525179
:102D49005545414445524F2000444952494A41534F
:102D59004520412043414A412000475241434941CE
:102D6900532E2E2E2000475241434941532E2E2ED9
:102D7900004D454E5355414C494441442056454E1A
:102D89004349444120004D454E5355414C49444126
:102D9900442045584345444520484F524152494FE4
:102DA9002041434552515545534520412043414A0D
:102DB9004120004E4F204553204D454E5355414C1F
:102DC90049444144204E49205052455041474F0003
:102DD9004D454E5355414C204E4F205041474F20B1
:102DE9004C4F434143494F4E20484F590053494E98
:102DF9002050524553454E43494120564548494381
:102E0900554C415220005441524A455441204E4F9D
:102E19002045532044454C20504152515545414489
:102E290045524F20004249454E56454E49444F2E82
:102E39002050554C534520454C20424F544F4E206D
:102E4900005441524A4554412053494E20464F525D
:102E59004D41544F20004655455241204445204C90
:102E6900494E45412000554E204D4F4D454E544F3A
:102E790020504F52204641564F5220004E4F204578
:102E890053205441524A455441204D454E535541D2
:102E99004C20005441524A45544120494E56414C18
:102EA90049444120005441524A4554412053494E16
:102EB9002053414C494441200052454749535452FB
:102EC9004120494E475245534F20454E20504152CB
:102ED900515545414445524F20004D454E535541AA
:102EE9004C20465545524120444520484F524152B5
:102EF900494F2000484F524152494F204E4F2050D0
:102F0900524F4752414D41444F200053494E20549E
:102F190041524A4554415320004249454E56454E77
:102F290049444F20004E4956454C2042414A4F20C2
:102F39004445205441524A455441532000613B388D
:102F4900353B494E4752455345205441524A455411
:102F5900410A0000613B38363B5441524A455441CD
:102F69002053494E20494E475245534F0A000061AC
:102F79003B38373B5441524A455441204E4F205229
:102F890045474953545241205041474F0A00006177
:102F99003B38383B455843454445205449454D50F5
:102FA9004F204445204752414349410A0000613BB3
:102FB90038393B4D454E5355414C204E4F204553D2
:102FC900544120454E2050415251554541444552A6
:102FD9004F0A0000613B39303B444952494A415349
:102FE9004520412043414A410A0000613B39313BB8
:102FF900475241434941532E2E2E200A0000613B7E
:1030090039333B4D454E5355414C204E4F20455386
:10301900544120454E205041525155454144455255
:103029004F0A0000613B39343B4D454E5355414CE5
:10303900494441442056454E434944410A000061F0
:103049003B39353B4D454E5355414C49444144204C
:1030590045584345444520484F524152494F204124
:10306900434552515545534520412043414A410A60
:103079000000613B39363B4E4F204553204D454EAC
:103089005355414C49444144204E492050524550E2
:1030990041474F0A0000613B39373B4D454E535577
:1030A900414C204E4F205041474F204C4F43414304
:1030B900494F4E20484F590A0000613B39383B536C
:1030C900494E2050524553454E43494120564548A3
:1030D9004943554C41520A0000613B39383B544140
:1030E900524A455441204E4F2045532044454C20D7
:1030F900504152515545414445524F0A0000613BE8
:1031090030303B4249454E56454E49444F2E20509A
:10311900554C534520454C20424F544F4E0A000010
:10312900613B39383B5441524A4554412053494E39
:1031390020464F524D41544F0A0000613B39383BFC
:103149004655455241204445204C494E45410A00C7
:1031590000613B39383B554E204D4F4D454E544F3C
:1031690020504F52204641564F520A0000613B30D1
:10317900383B4E4F204553205441524A4554412033
:103189004D454E5355414C0A0000613B39383B547B
:1031990041524A45544120494E56414C4944410AFD
:1031A9000000613B39383B5441524A455441205350
:1031B900494E2053414C4944410A0000613B39388A
:1031C9003B524547495354524120494E4752455372
:1031D9004F20454E20504152515545414445524F8B
:1031E9000A0000613B30373BA1204D454E53554104
:1031F9004C494441442056454E4349444120210A03
:103209000000613B30363B4D454E5355414C2046FD
:103219005545524120444520484F524152494F0A91
:103229000000613B39383B53494E205441524A45CD
:103239005441530A0000613B39383B4E4956454CCD
:103249002042414A4F204445205441524A45544165
:10325900530A0000613B39383B484F524152494FAC
:10326900204E4F2050524F4752414D41444F0A0082
:1032790000613B30313B524554495245205355205A
:103289005441524A4554410A0000613B30333B42A4
:1032990049454E56454E49444F0A0000574945474E
:1032A900414E442000475241434941532000613B6C
:1032B90039323B57494547414E4420000A000061D5
:1032C9003B39313B475241434941532000613B302F
:1032D900333B4249454E56454E49444F2000205004
:1032E9004C41434100613B30373B20A1204D454EC5
:1032F9005355414C494441442056454E4349444164
:1033090020212056454E43494F20323000AA8018CB
:10331900010200AA8018010200AA802807200000E3
:063329000000001400008A
:0525E50090002BEFF057
:1025EA00782C7C007D017BFF7A3379167E007F068A
:1025FA001219FE7E027F067D287C0012ADD77F2845
:10260A007E001280A5900033EEF0A3EFF0C287900F
:10261A0001A3E060030229C47B017A00792CFD1230
:10262A00AB2090002BE0121BAA299F012688552671
:10263A00A85626C85726E85827085927285A274847
:10264A005B27085D27685E27885F27A86027C8611F
:10265A0027E8AA2808AB2828AC2848AD2868AE285D
:10266A0088AF28A8B028C8B128E8B22908B3292811
:10267A00B52948B62961FA2980FE000029C17BFFE5
:10268A007A2C79D912000E900032EFF0E4FDFF1295
:10269A00B16F12B1667BFF7A2C79D90229BC7BFF14
:1026AA007A2C79EA12000E900032EFF0E4FDFF1264
:1026BA00B16F12B1667BFF7A2C79EA0229BC7BFFE3
:1026CA007A2C79FF12000E900032EFF0E4FDFF122F
:1026DA00B16F12B1667BFF7A2C79FF0229BC7BFFAE
:1026EA007A2D791912000E900032EFF0E4FDFF12F4
:1026FA00B16F12B1667BFF7A2D79190229BC7BFF73
:10270A007A2D793212000E900032EFF0E4FDFF12BA
:10271A00B16F12B1667BFF7A2D79320229BC7BFF39
:10272A007A2D795212000E900032EFF0E4FDFF127A
:10273A00B16F12B1667BFF7A2D79520229BC7BFFF9
:10274A007A2D796312000E900032EFF0E4FDFF1249
:10275A00B16F12B1667BFF7A2D796F0229BC7BFFBC
:10276A007A2D797A12000E900032EFF0E4FDFF1212
:10277A00B16F12B1667BFF7A2D797A0229BC7BFF91
:10278A007A2D798F12000E900032EFF0E4FDFF12DD
:10279A00B16F12B1667BFF7A2D798F0229BC7BFF5C
:1027AA007A2D79BC12000E900032EFF0E4FDFF1290
:1027BA00B16F12B1667BFF7A2D79BC0229BC7BFF0F
:1027CA007A2D79D912000E900032EFF0E4FDFF1253
:1027DA00B16F12B1667BFF7A2D79D90229BC7BFFD2
:1027EA007A2D79F612000E900032EFF0E4FDFF1216
:1027FA00B16F12B1667BFF7A2D79F60229BC7BFF95
:10280A007A2E790F12000E900032EFF0E4FDFF12DB
:10281A00B16F12B1667BFF7A2E790F0229BC7BFF5A
:10282A007A2E792E12000E900032EFF0E4FDFF129C
:10283A00B16F12B1667BFF7A2E792E0229BC7BFF1B
:10284A007A2E794A12000E900032EFF0E4FDFF1260
:10285A00B16F12B1667BFF7A2E794A0229BC7BFFDF
:10286A007A2E795F12000E900032EFF0E4FDFF122B
:10287A00B16F12B1667BFF7A2E795F0229BC7BFFAA
:10288A007A2E796F12000E900032EFF0E4FDFF12FB
:10289A00B16F12B1667BFF7A2E796F0229BC7BFF7A
:1028AA007A2E798512000E900032EFF0E4FDFF12C5
:1028BA00B16F12B1667BFF7A2E79850229BC7BFF44
:1028CA007A2E799C12000E900032EFF0E4FDFF128E
:1028DA00B16F12B1667BFF7A2E799C0229BC7BFF0D
:1028EA007A2E79AE12000E900032EFF0E4FDFF125C
:1028FA00B16F12B1667BFF7A2E79AE0229BC7BFFDB
:10290A007A2E79C212000E900032EFF0E4FDFF1227
:10291A00B16F12B1667BFF7A2E79C20229BC7BFFA6
:10292A007A2E79E312000E900032EFF0E4FDFF12E6
:10293A00B16F12B1667BFF7A2E79E30229BC7BFF65
:10294A007A2E79FD12000E900032EFF012B16A7BF6
:10295A00FF7A2E79FD805B7BFF7A2F791412000EA5
:10296A00900032EFF0E4FDFF12B16F12B1667BFF07
:10297A007A2F7914803C7BFF7A2F792212000E90ED
:10298A000032EFF0E4FDFF12B16F12B1667BFF7AFD
:10299A002F7922801D7BFF7A2F792E12000E90004C
:1029AA0032EFF0E4FDFF12B16F12B1667BFF7A2FAE
:1029BA00792E7D0112AB20D28722C28790002BE0AC
:1029CA00121BAA2C65012A28552A3F562A56572A2D
:1029DA006D582A84592A9B5A2AB25B2AC95D2AE071
:1029EA005E2AF75F2B0E602B25612C91A12B3CAA46
:1029FA002B53AB2B6AAC2B81AD2B98AE2BAFAF2BE5
:102A0A00C6B02BDDB12BF4B22C0BB32C22B42C396B
:102A1A00B52C7BB62C4FFA2CA7FE00002CC49000D4
:102A2A0033E0FEA3E0AA06F8AC027D017BFF7A2F11
:102A3A007946022CBB900033E0FEA3E0AA06F8AC6C
:102A4A00027D017BFF7A2F795D022CBB900033E077
:102A5A00FEA3E0AA06F8AC027D017BFF7A2F797803
:102A6A00022CBB900033E0FEA3E0AA06F8AC027D7C
:102A7A00017BFF7A2F7998022CBB900033E0FEA3EA
:102A8A00E0AA06F8AC027D017BFF7A2F79B7022C07
:102A9A00BB900033E0FEA3E0AA06F8AC027D017BFE
:102AAA00FF7A2F79DD022CBB900033E0FEA3E0AA67
:102ABA0006F8AC027D017BFF7A2F79F4022CBB90D9
:102ACA000033E0FEA3E0AA06F8AC027D017BFF7AA0
:102ADA00307907022CBB900033E0FEA3E0AA06F887
:102AEA00AC027D017BFF7A30792D022CBB9000333A
:102AFA00E0FEA3E0AA06F8AC027D017BFF7A3079FA
:102B0A0048022CBB900033E0FEA3E0AA06F8AC0210
:102B1A007D017BFF7A30797B022CBB900033E0FE8B
:102B2A00A3E0AA06F8AC027D017BFF7A30799F0206
:102B3A002CBB900033E0FEA3E0AA06F8AC027D01AC
:102B4A007BFF7A3079C3022CBB900033E0FEA3E00E
:102B5A00AA06F8AC027D017BFF7A3079E2022CBB2F
:102B6A00900033E0FEA3E0AA06F8AC027D017BFFE9
:102B7A007A317907022CBB900033E0FEA3E0AA0663
:102B8A00F8AC027D017BFF7A317929022CBB9000D7
:102B9A0033E0FEA3E0AA06F8AC027D017BFF7A319E
:102BAA007944022CBB900033E0FEA3E0AA06F8ACFD
:102BBA00027D017BFF7A31795A022CBB900033E007
:102BCA00FEA3E0AA06F8AC027D017BFF7A31797692
:102BDA00022CBB900033E0FEA3E0AA06F8AC027D0B
:102BEA00017BFF7A317993022CBB900033E0FEA37C
:102BFA00E0AA06F8AC027D017BFF7A3179AB022CA0
:102C0A00BB900033E0FEA3E0AA06F8AC027D017B8C
:102C1A00FF7A3179C5022CBB900033E0FEA3E0AA0B
:102C2A0006F8AC027D017BFF7A3179EC022CBB906D
:102C3A000033E0FEA3E0AA06F8AC027D017BFF7A2E
:102C4A0032790B806C900033E0FEA3E0AA06F8AC60
:102C5A00027D017BFF7A32792B8056900033E0FEA9
:102C6A00A3E0AA06F8AC027D017BFF7A32793F80A5
:102C7A0040900033E0FEA3E0AA06F8AC027D017B97
:102C8A00FF7A32795D802A900033E0FEA3E0AA063B
:102C9A00F8AC027D017BFF7A32797A801490003396
:102CAA00E0FEA3E0AA06F8AC027D017BFF7A327946
:102CBA0093121E37900033129A3C900033E0FEA321
:0E2CCA00E0FF1261DBE4900033F0A3F0D2874C
:012CD80022D9
:0E480800900011EFF0A3EBF0A3EAF0A3E9F0AB
:1048160078157C007D017BFF7A33791C7E007F064C
:104826001219FE7E027F067D287C0012ADD77F28F6
:104836007E001280A590001CEEF0A3EFF0C28790D8
:1048460001A3E060030248E6900011E024A5604061
:104856001460030248E312AB187BFF7A3279A51283
:10486600000E90001BEFF0900012E0FBA3E0FAA30D
:10487600E0F912000E90001BE02F04F0E4FDFF1299
:10488600B16F90001B12B1697BFF7A3279A580382F
:1048960012AB187BFF7A3279AE12000E90001BEF36
:1048A600F0900012E0FBA3E0FAA3E0F912000E90EC
:1048B600001BE02F04F0E4FDFF12B16F90001B1205
:1048C600B1697BFF7A3279AE7D0112AB209000127E
:1048D600E0FBA3E0FAA3E0F97D0112AB20D2872228
:1048E600C287900011E024A5602C24A77003024A19
:1048F6001524B6606824A26003024AA590001CE055
:10490600FEA3E0AA06F8AC027D017BFF7A3279B7F6
:10491600121E37024A5990001CE0FEA3E0AA06F8D0
:10492600AC027D017BFF7A3279C8121E37900012E5
:10493600E0FBA3E0FAA3E0F912000E90001BEFF0F3
:1049460024FFFFE434FFFE900012E0FBA3E0FAA38D
:10495600E0F98F828E83E4121A7C024A5990001C79
:10496600E0FEA3E0AA06F8AC027D017BFF7A32796D
:10497600D6129A36200E1712A890C00290001CE09C
:10498600FEA3E0AA06F8AC027D01D00280199000D1
:104996001CE0FEA3E0AA06F8AC027D01900012E03E
:1049A600FBA3E0FAA3E0F9129A3690001CE0FEA3FE
:1049B600E0AA06F8AC027D017BFF300A487A32791C
:1049C600E7121E3790001CE0FEA3E0AA06F97B0161
:1049D600C0031B90004AEBF0A37400F0A37411F01F
:1049E600D00312A39490001CE0FEA3E0AA06F97B74
:1049F6000190004A74FFF0A37432F0A374C5F0125C
:104A0600A394024AA27A3279C5121E37024AA290AC
:104A1600001CE0FEA3E0AA06F8AC027D017BFF7A4B
:104A26003279EE121E37900012E0FBA3E0FAA3E003
:104A3600F912000E90001BEFF024FFFFE434FFFE96
:104A4600900012E0FBA3E0FAA3E0F98F828E83E4E4
:104A5600121A7C90001CE0FEA3E0AA06F97B01C0B6
:104A660002C001900012E0F9A3E0FAA3E090004A28
:104A7600C9F0A3EAF0A3E9F0D001D00212A3949002
:104A8600001CE0FEA3E0AA06F97B0190004A74FF31
:104A9600F0A37432F0A374C5F012A394129A39905D
:0C4AA600001CE0FEA3E0FF1261DBD287E1
:014AB20022E1
:09B16600900032E025E0FFE4FD59
:05B16F0090003AEDF034
:10B1740012ACE290003BEFF090003AE0600AE4FF8A
:08B1840012ACE290003BEFF079
:01B18C0022A0
:08AB18007B017A007915E4FDD0
:0EAB2000900035EBF0A3EAF0A3E9F0A3EDF00E
:10AB2E00E4A3F0900035E0FBA3E0FAA3E0F9900077
:10AB3E0039E0F582758300121A3DFF6010900038DF
:0DAB4E00E0FD12B16F900039E004F080D6F8
:01AB5B0022D7
:0EAA8C0090001EEBF0A3EAF0A3E9F0A3EDF0BA
:10AA9A00E4900023F0900021E0FF900023E0FEC341
:10AAAA009F502490001EE0FBA3E0FAA3E0F98E82F7
:10AABA00758300121A3DFF900022E0FD12B16F90DB
:07AACA000023E004F080CE40
:01AAD1002262
:0F9A3600121E3790001CE0FEA3E0AA06F97B0188
:0B9A4500900035EBF0A3EAF0A3E9F07D
:109A500012000E900039EFF0E4900038F0900039D9
:109A6000E0FF900038E0C39F503DE490003AF09052
:109A7000003AE0C39464748094805005E004F08060
:109A8000EE900035E0FBA3E0FAA3E0F9A3E0F58255
:109A9000758300121A3DFF12ACE290003AEFF0908D
:109AA0000038E004F080B6E490003AF090003AE02C
:0E9AB000C39464748094805005E004F080EE4E
:019ABE002285
:10A7A80078117C007D017BFF7A3379227E007F0D52
:10A7B8001219FE9001A3E07022C2877B017A00790A
:10A7C8001612856AC29C7B017A007911E4900022F6
:10A7D800F07D0D12AA8CD29CD28722C287E4900009
:0DA7E80011F07B017A00791112856AD28789
:01A7F5002241
:10002600402321246046625E262A003A5B3C253F37
:1000360058545D3D29000D0A0A25733E20002563AC
:10004600002564000D0A0A2041435455414C2049BD
:10005600445F434C49454E54453D25730D0A0A00FD
:100066000D0A0A20444947495445205355204E5508
:1000760045564F2049445F434C49454E54453D0043
:100086000D0A0A204441544F204D4F4449464943E6
:1000960041444F2049445F434C49454E54453D2514
:1000A600730D0A0A000D0A0A2041435455414C209B
:1000B600434F445F5041524B3D25730D0A0A000DD4
:1000C6000A0A20444947495445205355204E554570
:1000D600564F20434F445F5041524B3D000D0A0A94
:1000E600204441544F204D4F444946494341444FD3
:1000F60020434F445F5041524B3D25730D0A0A0081
:100106000D0A0A2041435455414C205449454D504F
:100116004F5F4752414349413D25730D0A0A000D81
:100126000A0A20444947495445205355204E55450F
:10013600564F205449454D504F5F47524143494120
:100146003D000D0A0A204441544F204D4F44494674
:10015600494341444F205449454D504F5F47524112
:100166004349413D25730D0A0A000D0A0A20414301
:100176005455414C2053494E5F434F42524F2049FC
:100186004E484142494C495441444F3D25730D0A5E
:100196000A000D0A0A2041435455414C2053494E4A
:1001A6005F434F42524F204752415449533D2573B6
:1001B6000D0A0A000D0A0A2041435455414C2053AA
:1001C600494E5F434F42524F2047524154495320B4
:1001D600592053414C49444120454C204D49534DEB
:1001E6004F204449413D25730D0A0A000D0A0A2095
:1001F600444947495445205355204E5545564F20AE
:1002060053494E5F434F42524F3D000D0A0A20416B
:10021600435455414C20444542554720494E484198
:1002260042494C495441444F3D25730D0A0A000D7D
:100236000A0A2041435455414C2044454255472023
:10024600484142494C495441444F3D25730D0A0AE1
:10025600000D0A0A2044494749544520454C204E82
:100266005545564F2045535441444F20444520445C
:10027600454255473D000D0A0A2041435455414C1D
:10028600205553455F4C505220494E484142494CF7
:10029600495441444F3D25730D0A0A000D0A0A20B0
:1002A60041435455414C205553455F4C50522048CC
:1002B6004142494C495441444F3D25730D0A0A00B9
:1002C6000D0A0A2044494749544520454C204E55BD
:1002D60045564F2045535441444F204445205553DD
:1002E600455F4C50523D000D0A0A2050414E544184
:1002F6004C4C41204C434420484142494C495441CE
:1003060044413D25730D0A0A000D0A0A2050414E4C
:1003160054414C4C4120524153504245525259206F
:1003260020484142494C49544144413D25730D0AF8
:100336000A000D0A0A2044494749544520454C20E5
:100346004E5545564F2045535441444F2044452071
:100356004C412050414E54414C4C41203D000D0A29
:100366000A2041435455414C20434F4D5041524180
:1003760043494F4E2041435449564120204841426B
:10038600494C49544144413D25730D0A0A000D0A62
:100396000A20455850494445205441524A45544143
:1003A6002050554C53414E444F20424F544F4E0D12
:1003B6000A0A000D0A0A204558504944452054416E
:1003C600524A455441204155544F4D4154494341A9
:1003D6000D0A0A000D0A0A2044494749544520459A
:1003E6004C204E5545564F2045535441444F2044CA
:1003F600454C20455850454449444F523D000D0A4E
:100406000A2041435455414C20414E5449504153D2
:10041600534241434B20494E484142494C4954417D
:10042600444F3D25730D0A0A000D0A0A2041435424
:1004360055414C20414E5449504153534241434B40
:1004460020484142494C495441444F3D25730D0AC9
:100456000A000D0A0A2044494749544520454C20C4
:100466004E5545564F2045535441444F2044452050
:10047600414E5449504153534241434B3D000D0AAE
:100486000A2041435455414C20504C414341204998
:100496004E484142494C495441444F3D25730D0A4B
:1004A6000A000D0A0A2041435455414C20504C4144
:1004B600434120484142494C495441444F3D2573EC
:1004C6000D0A0A000D0A0A204449474954452045A9
:1004D6004C204E5545564F2045535441444F2044D9
:1004E6004520504C4143413D000D0A0A20414354EA
:1004F60055414C20414444524553535F484947486F
:100506005F424F4152443D25730D0A0A000D0A0A07
:1005160020444947495445204C41204E55455641B3
:1005260020414444524553535F484947485F424F30
:100536004152443D000D0A0A2041435455414C2086
:10054600484F524152494F20494E484142494C4931
:100556005441444F3D25730D0A0A000D0A0A2041F5
:10056600435455414C20484F524152494F2048412F
:1005760042494C495441444F3D25730D0A0A000D2A
:100586000A0A2044494749544520454C204E5545C2
:10059600564F2045535441444F20444520484F521E
:1005A6004152494F3D000D0A0A2044696769746546
:1005B60020486F72612030383A3030204D696E75B0
:1005C600746F732044657364653A20000D0A0A202F
:1005D600486F72612050726F6772616D616461204D
:1005E60044657364653A200025633A000D0A0A20C3
:1005F60044696769746520486F72613A4D696E7522
:10060600746F732048617374613A20000D0A0A20E2
:10061600486F72612050726F6772616D616461200C
:1006260048617374613A20000D0A2044657364655D
:10063600202048617374610D0A002025630025633C
:10064600202020000D0A0A20446967697465206C21
:100656006F73206469617320612070726F677261C5
:100666006D6172204C756E6573203D20322C200022
:100676004D6172746573203D20332C204D6965727F
:10068600636F6C6573203D20342C204A7565766552
:1006960073203D20352C2000566965726E657320E7
:1006A6003D20362C2053616261646F203D20372C3B
:1006B60020446F6D696E676F203D2031203A20001F
:1006C6000D0A0A20446961732050726F6772616D6A
:1006D60061646F73203A2000204C756E6573003D8F
:1006E6002025632C00204D617274657300204D69CE
:1006F6006572636F6C657300204A75657665730075
:1007060020566965726E6573002053616261646F7D
:100716000020446F6D696E676F003D2025630020E1
:100726004C756E6573203D2050726F6772616D6106
:10073600646F0D0A00204C756E6573203D204E6F68
:100746002070726F6772616D61646F0D0A00204DD3
:100756006172746573203D2050726F6772616D61BE
:10076600646F0D0A00204D6172746573203D204E42
:100776006F2070726F6772616D61646F0D0A002081
:100786004D696572636F6C6573203D2050726F67AB
:1007960072616D61646F0D0A00204D696572636F49
:1007A6006C6573203D204E6F2070726F6772616DAD
:1007B60061646F0D0A00204A7565766573203D20D9
:1007C60050726F6772616D61646F0D0A00204A7521
:1007D60065766573203D204E6F2070726F6772617B
:1007E6006D61646F0D0A0020566965726E6573202F
:1007F6003D2050726F6772616D61646F0D0A002053
:10080600566965726E6573203D204E6F2070726F5B
:100816006772616D61646F0D0A00205361626164E5
:100826006F203D2050726F6772616D61646F0D0AB3
:10083600002053616261646F203D204E6F2070720C
:100846006F6772616D61646F0D0A0020446F6D6998
:100856006E676F203D2050726F6772616D61646FC5
:100866000D0A0020446F6D696E676F203D204E6F44
:100876002070726F6772616D61646F0D0A000D0AF8
:100886000A2044696769746520656C206E756D651C
:10089600726F2064656C20486F726172696F2061A7
:1008A6002070726F6772616D6172203D20000D0AC3
:1008B6000A2050726F6772616D6172207365677589
:1008C6006E646F20486F726172696F2073693D288C
:1008D6003129206E6F3D2830293D20000D0A0A205F
:1008E60041435455414C205449504F5F5645484961
:1008F60043554C4F204D454E5355414C20494E488B
:100906004142494C495441444F3D25730D0A0A0062
:100916000D0A0A2041435455414C205449504F5F1B
:100926005645484943554C4F204D454E5355414C2D
:1009360020484142494C495441444F3D25730D0AD4
:100946000A000D0A0A2044494749544520454C20CF
:100956004E5545564F2045535441444F204445205B
:100966005449504F5F5645484943554C4F204D45D5
:100976004E5355414C3D000D0A0A20414354554102
:100986004C205449504F5F5645484943554C4F20DB
:10099600204D454E5355414C20484142494C4954FF
:1009A60041444F3D25730D0A0A000D0A0A204143B2
:1009B6005455414C20414E544950415353424143B2
:1009C6004B204D454E5355414C20494E48414249D6
:1009D6004C495441444F3D25730D0A0A000D0A0A3D
:1009E6002041435455414C20414E544950415353A4
:1009F6004241434B204D454E5355414C20484142C0
:100A0600494C495441444F3D25730D0A0A000D0ACD
:100A16000A2044494749544520454C204E554556E1
:100A26004F2045535441444F20444520414E54499C
:100A3600504153534241434B204D454E5355414C33
:100A46003D000D0A0A2041435455414C20414E5465
:100A560049504153534241434B20204D454E535537
:100A6600414C20484142494C495441444F3D25732D
:100A76000D0A0A000D0A0A2041435455414C2046EE
:100A8600454348412056454E43494D49454E544FEE
:100A96002050415353574F52443A25730D0A0A00CA
:100AA6000D0A0A2F3E496420526567697374726F96
:100AB6003A002573000D0A0A2F3E50617373776F53
:100AC60072643A000D0A0A20444947495445204CAD
:100AD60041204E5545564120464543484120444510
:100AE6002056454E43494D49454E544F3D000D0A4B
:100AF6000A2025730D0A0A000D0A0A202558000D42
:100B06000A0A2041435455414C204645434841205A
:100B160044452056454E43494D49454E544F205075
:100B2600524F4752414D414441203D25730D0A0A1B
:100B3600000D0A206E756D65726F2064656C204825
:100B46006F726172696F202070726F6772616D617A
:100B5600646F203D2025630D0A000D0A2020484FB2
:100B6600524152494F20484142494C495441444F11
:100B760020203D204F4E0D0A000D0A204469617366
:100B86002050726F6772616D61646F730D0A000D9C
:100B96000A2020534547554E444F20484F52415254
:100BA600494F20484142494C495441444F20203D39
:100BB600204F4E0D0A000D0A20534547554E444F0F
:100BC60020484F524152494F20484142494C4954CE
:100BD60041444F20203D204F46460D0A000D0A2075
:100BE60020484F524152494F20484142494C4954AE
:100BF60041444F20203D204F46460D0A000D0A2055
:100C060049445F434C49454E54455F50524F475205
:100C1600414D41444F203D2025730D0A000D0A2009
:100C2600434F445F5041524B5F50524F4752414DE4
:100C360041444F203D2025730D0A000D0A205052D5
:100C46004F4752414D41444F204445425547203D70
:100C5600204F4E0D0A000D0A2050524F4752414D6B
:100C660041444F204445425547203D204F46460DBE
:100C76000A000D0A205553455F4C5052203D204F27
:100C860046460D0A000D0A205553455F4C5052202A
:100C96003D204F4E0D0A000D0A2050414E54414C46
:100CA6004C41204C43442050524F4752414D414401
:100CB600410D0A000D0A2050414E54414C4C412032
:100CC600524153504245525259202050524F47529A
:100CD600414D4144410D0A000D0A204558504944F2
:100CE60045205441524A4554412050554C53414E9B
:100CF600444F20424F544F4E0D0A000D0A204558CE
:100D060050494445205441524A4554412041555486
:100D16004F4D41544943410D0A000D0A2020414ED2
:100D26005449504153534241434B203D204F464680
:100D36000D0A000D0A20414E544950415353424179
:100D4600434B203D204F4E0D0A000D0A20504C41CA
:100D56004341203D204F46460D0A000D0A20504CC7
:100D6600414341203D204F4E0D0A000D0A204143CC
:100D76005455414C20414444524553535F484947DA
:100D8600485F424F415244203D2025730D0A000D15
:100D96000A205449504F5F5645484943554C4F2009
:100DA6004D454E5355414C203D204F46460D0A00B9
:100DB6000D0A205449504F5F5645484943554C4FFC
:100DC600204D454E5355414C203D204F4E0D0A00B7
:100DD6000D0A20414E5449504153534241434B2042
:100DE6004D454E5355414C203D204F46460D0A0079
:100DF6000D0A2020414E5449504153534241434B22
:100E0600204D454E5355414C203D204F4E0D0A0076
:100E16000D0A2041435455414C2046454348412044
:100E260044452056454E43494D49454E544F205062
:100E3600524F4752414D414441203D25730D0A0012
:100E46000D0A2049445F434C49454E544520202015
:100E56002020202020202D2D2D20434D44203020E1
:100E66004964656E746966696361646F722064655E
:100E76006C20636C69656E7465206D6178696D6F51
:100E860020323535000D0A20434F445F5041524B06
:100E960020202020202020202020202D2D2D204302
:100EA6004D44203120456C206E756D65726F20644F
:100EB600656C20706172717565616465726F206D15
:100EC6006178696D6F20323535000D0A20545F4711
:100ED600524143494120202020202020202020204C
:100EE6002D2D2D20434D442032205469656D706FA1
:100EF6002073696E20636F62726F2030302C202061
:100F06006D6178696D6F20323535000D0A205349C1
:100F16004E5F434F42524F20202020202020202089
:100F2600202D2D2D20434D44203320496E686162CB
:100F3600696C697461646F3D20302C20477261745E
:100F460069733D2031202C204772617469732079C2
:100F56002073616C69646120656C206D69736D6FC7
:100F6600206469613D2032000D0A20444542554700
:100F760020202020202020202020202020202D2D51
:100F86002D20434D44203420486162696C697461A8
:100F960072203D20312C20496E686162696C69744B
:100FA6006172203D2030000D0A205553455F4C509C
:100FB600522020202020202020202020202D2D2DD2
:100FC60020434D44203520486162696C6974617222
:100FD600203D20312C20496E686162696C6974611C
:100FE60072203D2030000D0A205449504F5F504179
:100FF6004E54414C4C412020202020202D2D2D20C8
:10100600434D4420362050414E54414C4C41204CD7
:101016004344203D302050414E54414C4C412052D7
:1010260041535042455252493D31000D0A20434139
:1010360052445F4155544F4D41544943412020206D
:10104600202D2D2D20434D44203720424F54544F00
:101056004E3D30204155544F4D41544943413D3159
:10106600000D0A20414E5449504153534241434BCF
:10107600202020202020202D2D2D20434D442038B7
:1010860020486162696C69746172203D20312C20B0
:10109600496E686162696C69746172203D20300036
:1010A6000D0A20504C4143412020202020202020A2
:1010B6002020202020202D2D2D20434D4420392076
:1010C600486162696C69746172203D20312C204947
:1010D6006E686162696C69746172203D2030000D32
:1010E6000A20414444524553535F484947485F42AA
:1010F6004F415244202D2D2D20434D442031302088
:101106004C6120646972656363696F6E20616C74FB
:10111600612064656C20626F6172642064656C2076
:101126006E756D65726F203520616C20392073698C
:101136006E6F207365207573612064656265206932
:101146007220656E2030000D0A20484F52415249E8
:101156004F2020202020202020202020202D2D2D33
:1011660020434D442031312050726F67616D6120FC
:10117600313020686F726172696F732064656C200C
:101186003120616C203130000D0A2056414C494413
:10119600415F564548495F4D454E5355414C2D2DAF
:1011A6002D20434D4420313220486162696C6974B8
:1011B6006172203D20312C20496E686162696C693C
:1011C600746172203D2030000D0A205553455F4161
:1011D60050425F4D454E5355414C202020202D2D29
:1011E6002D20434D4420313320486162696C697477
:1011F6006172203D20312C20496E686162696C69FC
:10120600746172203D2030000D0A205645525F5011
:10121600524F4752414D4143494F4E2020202D2DDC
:101226002D20434D44203134204D75657374726111
:10123600206C612070726F6772616D6163696F6E99
:10124600000D0A204159554441202020202020200D
:10125600202020202020202D2D2D20434D442031DC
:1012660035204D756573747261206C6F7320636FE2
:101276006D616E646F73000D0A2053414C49522014
:10128600202020202020202020202020202D2D2D31
:1012960020434D442031362053616C6972206465C9
:1012A6002070726F6772616D6163696F6E000D0AFF
:1012B6000A53697374656D612064652050726F67A7
:1012C60072616D6163696F6E2045787065646964EB
:1012D6006F72200D0A0D0A000D0A436F6D616E6470
:1012E6006F206E6F206578697374652027257327D4
:1012F600003A5B3C253F58545D3D2900232A594A54
:1013060041494D4563616D696C744B0077727A3261
:10131600357136382D393166532E4000200D0A00BE
:08132600200D0A00220D0A004F
:10833A005401BC2F000000000000000000000000F3
:10834A00000000000000004B01B161646D696E001D
:10835A000000000000603601D03000003100003219
:10836A0000003300003400003500003600003700FA
:10837A00003800003900003130003131003132005C
:0F838A00313300313400313500313600313700E6
:0B4CDF0090005EEBF0A3EAF0A3E9F008
:104CEA0078637C007D017BFF7A1279F77E007F0B67
:104CFA001219FE786E7C007D017BFF7A1379027EA1
:104D0A00007F101219FE787E7C007D017BFF7A13EA
:104D1A0079127E007F101219FE7B017A0079997F41
:104D2A00507E0312A3FF7B017A0079991284A1EFC6
:104D3A003395E0FEEF64014E78637C007D017BFFD2
:104D4A0060067A00792680047A007931121E37903B
:104D5A00005EE0FBA3E0FAA3E0F912000E90006106
:104D6A00EFF0E4A3F0900062E0FFC3940A74809429
:104D7A00804003024ED190005EE0FBA3E0FAA3E07C
:104D8A00F98F82758300121A3DFD7C0074632FF53A
:104D9A0082E43400F583E02DFFEC339001ADF0A3FB
:104DAA00EFF07E00540FFFA3EEF0A3EFF0700BE0DC
:104DBA0004F070069001AFE004F09001AFE0FEA3AA
:104DCA00E0246DF58274003EF583E07E002DFFEE4F
:104DDA003C9001ADF0A3EFF07E00540FFFA3EEF07C
:104DEA00A3EFF0700BE004F070069001AFE004F05E
:104DFA009001AFE0FEA3E0247DF58274003EF583C6
:104E0A00E0FF9001ADE0FEA3E06FFF9001ADEEF090
:104E1A00FEA3EFF0D394FFEE940040059001ADE4B9
:104E2A00F09001ADE0FEA3E0FFC3947AEE94004057
:104E3A0015D3EF94FFEE9400500CEF547AFF9001D3
:104E4A00ADE4F0A3EFF0C39001AEE094309001AD71
:104E5A00E09400500CA3E02440F09001ADE034004F
:104E6A00F09001ADE0FEA3E0FFC3945BEE94004036
:104E7A0014D3EF9460EE9400500BE02407F09001F5
:104E8A00ADE03400F09001ADE0FEA3E0FFC3943A38
:104E9A00EE94004014D3EF9440EE9400500BE024BB
:104EAA00F9F09001ADE034FFF09001ADA3E0FF907E
:104EBA000062E0248EF582E43400F583EFF090007E
:104ECA0062E004F0024D6F900062E0248EF582E405
:0C4EDA003400F583E4F07B017A00798E4F
:014EE60022A9
:0BA4CB00900047EBF0A3EAF0A3E9F0DB
:10A4D600E490004DF090004DE0FFC3941274809418
:10A4E600805041EF75F003A424D0F9740135F0FAD9
:10A4F6007B01784A7C007D01121E37784A7C007DFC
:10A5060001900047E0FBA3E0FAA3E0F9121D4EEF2D
:10A516003395E04F700690004DE0FF2290004DE02D
:06A5260004F080B17FFF8C
:01A52C00220C
:08AB9F00E0FBA3E0FAA3E0F9DA
:0BABA70090005EEBF0A3EAF0A3E9F0E1
:10ABB20078617C007D017B017A0179B1121E3778C0
:10ABC200617C007D0190005EE0FBA3E0FAA3E0F966
:0EABD200121D4EEF3395E04F7002FF227FFF01
:01ABE0002252
:06AC63007B017A00793349
:0BAC690090005EEBF0A3EAF0A3E9F01E
:10AC740078617C007D017BFF7A1379227E007F045A
:10AC84001219FE9000687401F0A37400F0A37461BB
:0FAC9400F090005EE0FBA3E0FAA3E0F9027B8AF8
:1097FC00E0FBA3E0FAA3E02FF9EA3EFAE92401F931
:03980C00E43AFA41
:0B980F00900047EBF0A3EAF0A3E9F0A3
:10981A00784A7C007D017BFF7A1379267E007F04DB
:10982A001219FE784E7C007D017BFF7A13792A7E1D
:10983A00007F041219FE900047E0FBA3E0FAA3E0C0
:10984A00F9121A24FFB4200C900048E475F00112B2
:10985A001AB080E2EF900068B4220D7401F0A3748C
:10986A0000F0A3744EF080167401F0A37400F0A304
:10987A00744AF0900047E0FBA3E0FAA3E0F9127BF8
:01988A008A53
:01988B0022BA
:10B3130090007B7401F0A37401F0A374BCF07BFF75
:07B323007A00793C02339A25
:089EDF007A0079647B01E4FDC7
:0E9EE700900072EBF0A3EAF0A3E9F0A3EDF017
:109EF50012B408900072E0FBA3E0FAA3E0F9EF12B8
:109F05001A6A900075E0701D900072E0FBA3E0FAFC
:109F1500A3E0F9121A2490007BF07BFF7A007944C4
:109F250012339A80057F2A12ACE2900072E0FBA3FF
:109F3500E0FAA3E0F9121A24FF7E00900073E4759D
:109F4500F001121AB0900072E0FBA3E0FAA3E0F969
:099F5500E4121A6AEF640D709722
:019F5E0022E0
:108C2A00E4FDFC7FA812AD617E00900051EEF0A336
:108C3A00EFF090007B74FFF0A37400F0A37447F088
:108C4A00A3EEF0A3EFF07B017A00794712339490F8
:108C5A00007B7401F0A37400F0A37447F07BFF7AE1
:108C6A0000794A12339A7BFF7A00796612339A7A2C
:108C7A00007947129EE37B017A007947127D4C9076
:108C8A000051EEF0A3EFF0FBE4FDFC7FA812A76908
:108C9A00E4FDFC7FA812AD617E00900051EEF0A3C6
:108CAA00EFF090007B74FFF0A37400F0A37447F018
:108CBA00A3EEF0A3EFF07B017A0079471233949088
:108CCA00007B7401F0A37400F0A37447F07BFF7A71
:068CDA0000798602339AC6
:1089F6007D027C007FA812AD617E00900051EEF0F2
:108A0600A3EFF090007B74FFF0A37400F0A374470B
:108A1600F0A3EEF0A3EFF07B017A007947123394CE
:108A260090007B7401F0A37400F0A37447F07BFF01
:108A36007A0079AB12339A7BFF7A0079C512339AA2
:108A46007B017A007947E4FD129EE77B017A007983
:108A560047127D4C900051EEF0A3EFF0FB7D027CB7
:108A6600007FA812A7697D027C007FA812AD617EF7
:108A760000900051EEF0A3EFF090007B74FFF0A39E
:108A86007400F0A37447F0A3EEF0A3EFF07B017A35
:108A960000794712339490007B7401F0A37400F0C0
:0D8AA600A37447F07BFF7A0079E302339A56
:108AB3007D047C007FA812AD617E00900051EEF032
:108AC300A3EFF090007B74FFF0A37400F0A374474E
:108AD300F0A3EEF0A3EFF07B017A00794712339411
:108AE30090007B7401F0A37400F0A37447F07BFF44
:108AF3007A01790612339A7BFF7A01792512339A28
:108B03007B017A007947E4FD129EE77B017A0079C5
:108B130047127D4C900051EEF0A3EFF0FB7D047CF7
:108B2300007FA812A7697D047C007FA812AD617E37
:108B330000900051EEF0A3EFF090007B74FFF0A3E0
:108B43007400F0A37447F0A3EEF0A3EFF07B017A77
:108B530000794712339490007B7401F0A37400F002
:0D8B6300A37447F07BFF7A01794802339A32
:10631A007D067C007FA812AD617E00900051EEF0F0
:10632A00A3EFF090007B74FFF0A37400F0A374470E
:10633A00F0A3EEF0A3EFF07B017A007947123394D1
:10634A00900051E07002A3E0701590007B04F0A366
:10635A007400F0A37447F07BFF7A0179708035905E
:10636A000051E07004A3E06401701590007B04F012
:10637A00A37400F0A37447F07BFF7A017998801424
:10638A0090007B7401F0A37400F0A37447F07BFFC4
:10639A007A0179BA12339A7BFF7A0179F212339A27
:1063AA007B017A007947E4FD129EE77B017A007946
:1063BA0047127D4C900051EEF0A3EFF0FB7D067C76
:1063CA00007FA812A7697D067C007FA812AD617EB6
:1063DA0000900051EEF0A3EFF090007B74FFF0A361
:1063EA007400F0A37447F0A3EEF0A3EFF07B017AF8
:1063FA00007947123394900051E07002A3E07015BF
:10640A0090007B04F0A37400F0A37447F07BFF7A3A
:10641A000179708035900051E07004A3E064017046
:10642A001590007B04F0A37400F0A37447F07BFF7F
:10643A007A017998801490007B7401F0A37400F0BB
:0D644A00A37447F07BFF7A0179BA12339AF0
:016457002222
:1072CB007D087C007FA812AD617E00900051EEF02E
:1072DB00A3EFF090007B74FFF0A37400F0A374474E
:1072EB00F0A3EEF0A3EFF07B017A00794712339411
:1072FB00900051E07002A3E0701590007B04F0A3A6
:10730B007400F0A37447F07BFF7A0279118014901C
:10731B00007B7401F0A37400F0A37447F07BFF7A39
:10732B0002793512339A7BFF7A02795712339A7BA3
:10733B00017A007947E4FD129EE77B017A007947D9
:10734B00127D4C900051EEF0A3EFF0FB7D087C001A
:10735B007FA812A7697D087C007FA812AD617E0013
:10736B00900051EEF0A3EFF090007B74FFF0A3744C
:10737B0000F0A37447F0A3EEF0A3EFF07B017A00CB
:10738B007947123394900051E07002A3E07015908E
:10739B00007B04F0A37400F0A37447F07BFF7A0228
:1073AB007911801490007B7401F0A37400F0A37426
:0B73BB0047F07BFF7A02793512339A0D
:0173C60022A4
:1073C7007D0A7C007FA812AD617E00900051EEF02F
:1073D700A3EFF090007B74FFF0A37400F0A3744751
:1073E700F0A3EEF0A3EFF07B017A00794712339414
:1073F700900051E07002A3E0701590007B04F0A3A9
:107407007400F0A37447F07BFF7A02797C801490B4
:10741700007B7401F0A37400F0A37447F07BFF7A3C
:107427000279A212339A7BFF7A0279C612339A7BCA
:10743700017A007947E4FD129EE77B017A007947DC
:10744700127D4C900051EEF0A3EFF0FB7D0A7C001B
:107457007FA812A7697D0A7C007FA812AD617E0014
:10746700900051EEF0A3EFF090007B74FFF0A3744F
:1074770000F0A37447F0A3EEF0A3EFF07B017A00CE
:107487007947123394900051E07002A3E070159091
:10749700007B04F0A37400F0A37447F07BFF7A022B
:1074A700797C801490007B7401F0A37400F0A374BE
:0B74B70047F07BFF7A0279A212339AA3
:0174C20022A7
:1074C3007D0E7C007FA812AD617E00900051EEF02E
:1074D300A3EFF090007B74FFF0A37400F0A3744754
:1074E300F0A3EEF0A3EFF07B017A00794712339417
:1074F300900051E07002A3E0701590007B04F0A3AC
:107503007400F0A37447F07BFF7A0279ED80149046
:10751300007B7401F0A37400F0A37447F07BFF7A3F
:1075230003790F12339A7BFF7A03793812339A7BEC
:10753300017A007947E4FD129EE77B017A007947DF
:10754300127D4C900051EEF0A3EFF0FB7D0E7C001A
:107553007FA812A7697D0E7C007FA812AD617E0013
:10756300900051EEF0A3EFF090007B74FFF0A37452
:1075730000F0A37447F0A3EEF0A3EFF07B017A00D1
:107583007947123394900051E07002A3E070159094
:10759300007B04F0A37400F0A37447F07BFF7A022E
:1075A30079ED801490007B7401F0A37400F0A37450
:0B75B30047F07BFF7A03796412339AE3
:0175BE0022AA
:1087B5007D0F7C007FA812AD617E00900051EEF028
:1087C500A3EFF090007B74FFF0A37400F0A374474F
:1087D500F0A3EEF0A3EFF07B017A00794712339412
:1087E500900051E07002A3E07BFF70067A03799454
:1087F50080047A0379B912339A7BFF7A0379DA1206
:10880500339A7B017A007947E4FD129EE77B017A72
:10881500007947127D4C900051EEF0A3EFF0FB7DFF
:108825000F7C007FA812A7697D0F7C007FA812AD81
:10883500617E00900051EEF0A3EFF090007B74FF95
:10884500F0A37400F0A37447F0A3EEF0A3EFF07B60
:10885500017A007947123394900051E07002A3E049
:108865007BFF70067A03799480047A0379B9123311
:018875009A68
:0188760022DF
:1075BF007D107C007FA812AD617E00900051EEF02F
:1075CF00A3EFF090007B74FFF0A37400F0A3744757
:1075DF00F0A3EEF0A3EFF07B017A0079471233941A
:1075EF00900051E07002A3E0701590007B04F0A3AF
:1075FF007400F0A37447F07BFF7A04790480149031
:10760F00007B7401F0A37400F0A37447F07BFF7A42
:10761F0004792F12339A7BFF7A04795812339A7BAD
:10762F00017A007947E4FD129EE77B017A007947E2
:10763F00127D4C900051EEF0A3EFF0FB7D107C001B
:10764F007FA812A7697D107C007FA812AD617E0014
:10765F00900051EEF0A3EFF090007B74FFF0A37455
:10766F0000F0A37447F0A3EEF0A3EFF07B017A00D4
:10767F007947123394900051E07002A3E070159097
:10768F00007B04F0A37400F0A37447F07BFF7A042F
:10769F007904801490007B7401F0A37400F0A3743C
:0B76AF0047F07BFF7A04792F12339A1A
:0176BA0022AD
:1076BB007D117C007FA812AD617E00900051EEF031
:1076CB00A3EFF090007B74FFF0A37400F0A374475A
:1076DB00F0A3EEF0A3EFF07B017A0079471233941D
:1076EB00900051E07002A3E0701590007B04F0A3B2
:1076FB007400F0A37447F07BFF7A047984801490B4
:10770B00007B7401F0A37400F0A37447F07BFF7A45
:10771B000479A812339A7BFF7A0479CA12339A7BC5
:10772B00017A007947E4FD129EE77B017A007947E5
:10773B00127D4C900051EEF0A3EFF0FB7D117C001D
:10774B007FA812A7697D117C007FA812AD617E0016
:10775B00900051EEF0A3EFF090007B74FFF0A37458
:10776B0000F0A37447F0A3EEF0A3EFF07B017A00D7
:10777B007947123394900051E07002A3E07015909A
:10778B00007B04F0A37400F0A37447F07BFF7A0432
:10779B007984801490007B7401F0A37400F0A374BF
:0B77AB0047F07BFF7A0479A812339AA4
:0177B60022B0
:107C6E007D127C007FA812AD617E00900051EEF077
:107C7E00A3EFF090007B74FFF0A37400F0A37447A1
:107C8E00F0A3EEF0A3EFF07B017A00794712339464
:107C9E00900051E07002A3E0700690007B04800516
:107CAE0090007B7401F0A37400F0A37447F07BFF87
:107CBE007A0479EF12339A7BFF7A05791312339A8D
:107CCE007B017A007947E4FD129EE77B017A007909
:107CDE0047127D4C900051EEF0A3EFF0FB7D127C2D
:107CEE00007FA812A7697D127C007FA812AD617E6D
:107CFE0000900051EEF0A3EFF090007B74FFF0A324
:107D0E007400F0A37447F0A3EEF0A3EFF07B017ABA
:107D1E00007947123394900051E07002A3E0700690
:107D2E0090007B04800590007B7401F0A37400F03A
:0D7D3E00A37447F07BFF7A0479EF12339AAB
:017D4B002215
:10AFA0009000757419F0A37432F0A3744BF0A3747D
:10AFB00064F0A3747DF0A37496F0A374AFF0A3744F
:10AFC000C8F0A374E1F0A374FAF0E4A3F07B017A73
:03AFD00000797590
:01AFD300225B
:0A6B6500900062EEF0FCA3EFF0FDDB
:106B6F007FA812AD617E0090006EEEF0A3EFF09063
:106B7F00007B74FFF0A37400F0A37447F0A3EEF052
:106B8F00A3EFF07B017A00796412339490006EE0EA
:106B9F007002A3E0701590007B04F0A37400F0A3C3
:106BAF007464F07BFF7A05793B801490007B74014D
:106BBF00F0A37400F0A37464F07BFF7A057961127F
:106BCF00339A7BFF7A05798512339A7B017A0079A4
:106BDF0064E4FD129EE77B017A007964127D4C908C
:106BEF00006EEEF0A3EFF0900062E0FCA3E0FDABCF
:106BFF00077FA812A769900062E0FCA3E0FD7FA8C1
:106C0F0012AD617E0090006EEEF0A3EFF090007B6E
:106C1F0074FFF0A37400F0A37447F0A3EEF0A3EF9A
:106C2F00F07B017A00796412339490006EE0700269
:106C3F00A3E09000707018F0A3F090007B04F0A315
:106C4F007400F0A37464F07BFF7A05793B8017E43E
:106C5F00F0A304F090007BF0A37400F0A37464F031
:0F6C6F007BFF7A05796112339A900070A3E0FFE2
:016C7E0022F3
:084EE700900062EEF0A3EFF071
:104EEF007BFF7A0579AC12339A129EDF7BFF7A052E
:104EFF0079D212339A900063E02407FD900062E0AC
:104F0F003400FC900064E0FB7FA812A76990006357
:104F1F00E02407FD900062E03400FC7FA812AD6131
:104F2F007BFF7A00794490007BEFF012339A900068
:104F3F0063E02408FD900062E03400FC900065E01F
:104F4F00FB7FA812A769900063E02408FD90006220
:104F5F00E03400FC7FA812AD617BFF7A0579EE90FB
:104F6F00007BEFF012339A900063E02409FD90006C
:104F7F0062E03400FC900067E0FB7FA812A7699005
:104F8F000063E02409FD900062E03400FC7FA8126A
:104F9F00AD617BFF7A00794490007BEFF012339A7A
:104FAF00900063E0240AFD900062E03400FC900062
:104FBF0068E0FB7FA812A769900063E0240AFD90C8
:104FCF000062E03400FC7FA812AD617BFF7A0079AC
:104FDF004490007BEFF012339A7BFF7A0579F2123F
:104FEF00339A129EDF7BFF7A06791212339A900062
:104FFF0063E0240BFD900062E03400FC900064E05D
:10500F00FB7FA812A769900063E0240BFD9000625C
:10501F00E03400FC7FA812AD617BFF7A00794490E9
:10502F00007BEFF012339A900063E0240CFD9000A8
:10503F0062E03400FC900065E0FB7FA812A7699046
:10504F000063E0240CFD900062E03400FC7FA812A6
:10505F00AD617BFF7A0579EE90007BEFF012339A0A
:10506F00900063E0240DFD900062E03400FC90009E
:10507F0067E0FB7FA812A769900063E0240DFD9005
:10508F000062E03400FC7FA812AD617BFF7A0079EB
:10509F004490007BEFF012339A900063E0240EFDF2
:1050AF00900062E03400FC900068E0FB7FA812A73C
:1050BF0069900063E0240EFD900062E03400FC7FF5
:1050CF00A812AD617BFF7A00794490007BEFF0026C
:0250DF00339A02
:086C7F00900075EEF0A3EFF0A8
:106C87007BFF7A06792E12339A900076E02407FD6F
:106C9700900075E03400FC7FA812AD617BFF7A0697
:106CA700794090007BEFF012339A900076E0240849
:106CB700FD900075E03400FC7FA812AD617BFF7A80
:106CC7000579EE90007BEFF012339A900076E0247E
:106CD70009FD900075E03400FC7FA812AD617BFFD1
:106CE7007A00794490007BEFF012339A900076E0B7
:106CF700240AFD900075E03400FC7FA812AD617B8B
:106D0700FF7A06794490007BEFF012339A90007671
:106D1700E0240BFD900075E03400FC7FA812AD6104
:106D27007BFF7A00794490007BEFF012339A900052
:106D370076E0240CFD900075E03400FC7FA812ADCE
:106D4700617BFF7A0579EE90007BEFF012339A9022
:106D57000076E0240DFD900075E03400FC7FA8125A
:106D6700AD617BFF7A00794490007BEFF012339A94
:106D7700900076E0240EFD900075E03400FC7FA8BB
:106D870012AD617BFF7A00794490007BEFF002330C
:016D97009A61
:08455100900062EEF0A3EFF010
:104559007BFF7A06794A12339A7BFF7A06797612BB
:10456900339A7BFF7A06799E12339A7B017A007916
:1045790064E4FD129EE77BFF7A0679C612339AE45A
:1045890090006FF090006FE0FFC3940874809480EE
:10459900400302480774642FF582E43400F583E090
:1045A900900070F0643270437BFF7A0679DE123333
:1045B9009A900063E02401FD900062E03400FC7BE6
:1045C900327FA812A769900063E02401FD90006280
:1045D900E03400FC7FA812AD6190006EEFF07BFF24
:1045E9007A0679E590007BF012339A90006FE02407
:1045F90064F582E43400F583E0900070F064337070
:10460900437BFF7A0679EB12339A900063E0240228
:10461900FD900062E03400FC7B337FA812A769900B
:104629000063E02402FD900062E03400FC7FA812E0
:10463900AD6190006EEFF07BFF7A0679E590007B23
:10464900F012339A90006FE02464F582E43400F5A7
:1046590083E0900070F0643470437BFF7A0679F34D
:1046690012339A900063E02403FD900062E0340065
:10467900FC7B347FA812A769900063E02403FD90B6
:104689000062E03400FC7FA812AD6190006EEFF08B
:104699007BFF7A0679E590007BF012339A90006FE0
:1046A900E02464F582E43400F583E0900070F0645E
:1046B9003570437BFF7A0679FE12339A900063E0E6
:1046C9002404FD900062E03400FC7B357FA812A72A
:1046D90069900063E02404FD900062E03400FC7FEF
:1046E900A812AD6190006EEFF07BFF7A0679E59034
:1046F900007BF012339A90006FE02464F582E43471
:1047090000F583E0900070F0643670437BFF7A0710
:10471900790612339A900063E02405FD900062E067
:104729003400FC7B367FA812A769900063E024055A
:10473900FD900062E03400FC7FA812AD6190006E2C
:10474900EFF07BFF7A0679E590007BF012339A90BF
:10475900006FE02464F582E43400F583E090007092
:10476900F0643770437BFF7A07790F12339A900010
:1047790063E02406FD900062E03400FC7B377FA8EB
:1047890012A769900063E02406FD900062E03400FE
:10479900FC7FA812AD6190006EEFF07BFF7A06797D
:1047A900E590007BF012339A90006FE02464F58263
:1047B900E43400F583E0900070F0643170377BFFDA
:1047C9007A07791712339A900062E0FCA3E0FD7B27
:1047D900317FA812A769900062E0FCA3E0FD7FA8E1
:1047E90012AD6190006EEFF07BFF7A07792090009F
:0E47F9007BF012339A90006FE004F002458DC1
:01480700228E
:08692100900075EEF0A3EFF009
:106929002401FDE43EFC7FA812AD61900077EFF0F1
:1069390064327BFF70067A07792580047A07793BF0
:1069490012339A900076E02402FD900075E034003D
:10695900FC7FA812AD61900077EFF064337BFF7084
:10696900067A07795480047A07796B12339A900072
:1069790076E02403FD900075E03400FC7FA812AD99
:1069890061900077EFF064347BFF70067A077985B0
:1069990080047A07799F12339A900076E02404FDE7
:1069A900900075E03400FC7FA812AD61900077EF8C
:1069B900F064357BFF70067A0779BC80047A077921
:1069C900D312339A900076E02405FD900075E034E7
:1069D90000FC7FA812AD61900077EFF064367BFF71
:1069E90070067A0779ED80047A08790512339A904E
:1069F9000076E02406FD900075E03400FC7FA812C3
:106A0900AD61900077EFF064377BFF70067A087903
:106A19002080047A08793712339A900075E0FCA334
:106A2900E0FD7FA812AD61900077EFF064317BFF44
:0F6A390070067A08795180047A08796912339AC5
:016A4800222B
:105F540012AFA078517C007D01121E377BFF7A08B6
:105F6400798412339A7B017A007947E4FD129EE723
:105F74007B017A007947127D4CEF14900061F0E0C8
:105F84002451F582E43400F583E0FF7E0090005C48
:105F9400EEF0A3EFF0A3EEF0A3EFF090005DE024A9
:105FA4000FF090005CE03400F0E0FEA3E0FF126B21
:105FB4006590005EE0FFA3E090005CCFF0A3EFF0FB
:105FC4009000617401F0900061E0FFC39408748054
:105FD4009480501C90005DE02FFD90005CE0340044
:105FE400FC7BFF7FA812A769900061E004F080D6D3
:105FF40090005EE0FEA3E0FF90005CEEF0A3EFF003
:1060040012455190005CE0FEA3E0FF124EE77BFFD7
:106014007A0879B412339A7B017A007947E4FD1245
:106024009EE77B017A007947127D4C900060EFF087
:10603400FB90005DE02410FD90005CE03400FC7FE8
:10604400A812A76990005DE02410FD90005CE03484
:1060540000FC7FA812AD61900060EFF090007B74AB
:10606400FFF0A37400F0A37447F0A3EFF07B017A70
:10607400007947123394900060E064017016900038
:106084005DE0240AF090005CE03400F0E0FEA3E060
:04609400FF124EE7C2
:0160980022E5
:1077B7007D147C007FA812AD617E00900051EEF031
:1077C700A3EFF090007B74FFF0A37400F0A374475D
:1077D700F0A3EEF0A3EFF07B017A00794712339420
:1077E700900051E07002A3E0701590007B04F0A3B5
:1077F7007400F0A37447F07BFF7A0879E280149055
:10780700007B7401F0A37400F0A37447F07BFF7A48
:1078170009791612339A7BFF7A09794812339A7BD2
:10782700017A007947E4FD129EE77B017A007947E8
:10783700127D4C900051EEF0A3EFF0FB7D147C001D
:107847007FA812A7697D147C007FA812AD617E0016
:10785700900051EEF0A3EFF090007B74FFF0A3745B
:1078670000F0A37447F0A3EEF0A3EFF07B017A00DA
:107877007947123394900051E07002A3E07015909D
:10788700007B04F0A37400F0A37447F07BFF7A0831
:1078970079E2801490007B7401F0A37400F0A37464
:0B78A70047F07BFF7A09797D12339ACD
:0178B20022B3
:1078B3007D157C007FA812AD617E00900051EEF033
:1078C300A3EFF090007B74FFF0A37400F0A3744760
:1078D300F0A3EEF0A3EFF07B017A00794712339423
:1078E300900051E07002A3E0701590007B04F0A3B8
:1078F3007400F0A37447F07BFF7A0979B080149089
:10790300007B7401F0A37400F0A37447F07BFF7A4B
:107913000979E312339A7BFF7A0A791412339A7B3B
:10792300017A007947E4FD129EE77B017A007947EB
:10793300127D4C900051EEF0A3EFF0FB7D157C001F
:107943007FA812A7697D157C007FA812AD617E0018
:10795300900051EEF0A3EFF090007B74FFF0A3745E
:1079630000F0A37447F0A3EEF0A3EFF07B017A00DD
:107973007947123394900051E07002A3E0701590A0
:10798300007B04F0A37400F0A37447F07BFF7A0933
:1079930079B0801490007B7401F0A37400F0A37499
:0B79A30047F07BFF7A0A794812339A04
:0179AE0022B6
:1050E1007B017A0079477F507E0312A3FF90006114
:1050F1007401F0A37400F0A37455F07B017A007978
:10510100471295B990007B7401F0A37400F0A37469
:1051110055F07BFF7A0A797A12339A7BFF7A0A7902
:10512100A612339A7B017A0079477F007E0312A38E
:10513100FF90007B7401F0A37400F0A37447F07B2F
:10514100FF7A0A79B812339A7B017A007947124CB7
:10515100DF78B17C017D01121E377BFF7A0A79BBB2
:1051610012339A7B017A0079477D01129EE77B0118
:105171007A00794712AC69900052EBF0A3EAF0A3F0
:10518100E9F07B017A0179B17F007E0312A32590BA
:10519100005212AB9FEF70837BFF7A0A79CA1233F8
:1051A1009A7B017A007947E4FD129EE790007B74B7
:1051B10001F0A37400F0A37447F07BFF7A0A79F43D
:1051C10012339A900047E0900055F0900048E0902B
:1051D1000056F0E4A3F07B017A007955127D4C90E2
:1051E100005CEEF0A3EFF07BFF7A0A79FE90007B82
:1051F100EEF0A3EFF012339A90005CA3E0FB7D5038
:105201007C037FA812A769900049E0900055F090B7
