:1079C50013031D0B0E00000000000113031D0E1D07
:1079D5003231303731350000000000000000000171
:106B40004100EA0A41011D0041012A0041011E00E5
:106B500041013000410127004100E90042011F00CE
:0F6B600000410129064101310341012FF2C10912
:03000B00027893E5
:10789300C0E0C083C0829000EAE014F090011DE0D4
:1078A30004F0900120E004F0700690011FE004F062
:0978B300C28DD082D083D0E032F6
:107B5E00E58954F04401F589E4F58CF58AD28C223E
:057BEA00C28DD2A922AA
:037BF900C2A922FC
:0B7B8D0012795CEFF47002EEF460F57A
:017B980022CA
:057675009000BDEFF0E4
:10767A009000BDE0FF127767EF3395E04F6024E496
:10768A009000BEF0A3F0C39000BFE094E89000BE63
:10769A00E0940350DBA3E004F070EB9000BEE0043A
:0876AA00F080E39000BDE0FF59
:0176B20022B5
:0E74170090004FEBF0A3EAF0A3E9F0A3EDF034
:10742500E4A3F0900052E0FFA3E0C39F5029900031
:107435004FE0FBA3E0FAA3E0F912071CFF127675F3
:10744500900054EFF0900050E475F0011207EB90B6
:077455000053E004F080CCBD
:01745C00220D
:107B6E00127BF4127BAC127B99C283D287C297220E
:106CCB00E4FDFC7FA81276B7900132E4F0A3EFF05D
:106CDB007D027C007FA81276B790012DE4F0A3EF24
:106CEB00F07D047C007FA81276B790012BE4F0A313
:106CFB00EFF07D067C007FA81276B7900125E4F0BB
:106D0B00A3EFF07D087C007FA81276B7900123EFEC
:106D1B00F07D0A7C007FA81276B7900122EFF07D00
:106D2B000C7C007FA81276B7900128EFF07D0E7CCB
:106D3B00007FA81276B7900124EFF0900121740127
:026D4B00F02234
:105FB60078007C007D017BFF7A7979C57E007F10B1
:105FC6001206F678107C007D017BFF7A7979D57E02
:105FD600007F101206F6127B5E127BEA12786912B7
:105FE600790D127B6ED2AF127A4A7F217E00127A29
:105FF600F2127AB37F6112733F127BB320910312C0
:1060060042ED126CCB124D04EF70FA9000EA04F0E8
:106016009000E9E064017005120BDF80F320801820
:106026007B017A0079C112663E900020EFF0FD7B7D
:10603600017A0079C112780B120BDF20B3267B019F
:106046007A0079C11265A5900020EFF0FD7B017AF8
:106056000079C112772C7B017A0079C1900020E08B
:09606600FD123A24126DCE80A750
:057BEF004C4956450061
:0E3A2400900021EBF0A3EAF0A3E9F0A3EDF08F
:103A32006419705D900021E0FBA3E0FAA3E0F912A3
:103A4200071C6402704B90000212073564487041F3
:103A5200900024E07E0024FFF582EE34FFF583120D
:103A620007356403702B900021A3A3E02403F9E43B
:103A72003AFA124F6BEF6003023CC1900021E0FB67
:103A8200A3E0FAA3E02403F9E43AFA1269150272F8
:103A920045900021E0FBA3E0FAA3E0F912071C64C1
:103AA200B6702190011DE0C3941474809480500379
:103AB200023CC17FB612376AC282E490011DF0C295
:103AC20097C28322900021E0FBA3E0FAA3E0F9125F
:103AD200071C64AA705390011DE0C394147480946F
:103AE200804008E4F0C297D282C283900123E06052
:103AF20003023CC1900122E064016003023CC1C3A5
:103B0200900120E0945890011FE094025003023C7F
:103B1200C1E4F0A3F090012304F07BFF7A7B79EFFC
:103B2200127392E4900123F022900024E0FF6413C8
:103B32007032900021E0FBA3E0FAA3E0F912071C27
:103B420064027020900001120735B44F177E007492
:103B5200FF2FF582EE34FFF58312073564037004FC
:103B62007FFE801C900024E064017017900021E029
:103B7200FBA3E0FAA3E0F912071C64A170057FE73A
:103B820002376A900024E0FF64066003023C8590DD
:103B92000021E0FBA3E0FAA3E0F912071C64026033
:103BA20003023C8590000112073564576003023C12
:103BB20085FE74FF2FF582EE34FFF583120735641C
:103BC200036003023C85900122E06401705F900073
:103BD20021A3A3900002120735FD7B017A0079250B
:103BE20012729C9000287420F0900021E0FBA3E068
:103BF200FAA3E0F9900003120735FD900021A3A378
:103C0200900004120735900034F07B017A00792984
:103C12001231D57B017A0079257FB0126C4812707F
:103C2200AFEF60FA7B017A007925025B21900021D7
:103C3200E0FBA3E0FAA3E0F9900002120735FD7B56
:103C4200017A00792512729C9000287420F090006D
:103C520021E0FBA3E0FAA3E0F9900003120735FD8F
:103C6200900021A3A3900004120735900034F07B4A
:103C7200017A0079291231D57B017A0079257FB04A
:103C8200026C48900024E0FF640C7033900021E045
:103C9200FBA3E0FAA3E0F912071C64027021FE7490
:103CA200FF2FF582EE34FFF5831207356403700FA0
:0F3CB200900021A3A3E02401F9E43AFA1249217A
:013CC10022E0
:0B663E00900021EBF0A3EAF0A3E9F0CC
:10664900E4900025F0A3740BF0900122E06401703E
:1066590073900024F0900026E0FF900024E0C39F8F
:106669005053E4FFFEFD30801DED701A0FBF00018D
:106679000ED3EF9420EE944E40EC7D01900026E07D
:10668900900024F080E0ED6401602A900025E00488
:10669900F0126AB8900021E0FBA3E0FAA3E0F9EF59
:1066A900120762900022E475F0011207EB900024B2
:1066B900E004F080A0900021E0FBA3E0FAA3E0F958
:0966C900E4120762900025E0FFD5
:0166D20022A5
:0E757400900052EBF0A3EAF0A3E9F0A3EDF0D3
:10758200E4A3F0900055E0FFA3E0C39F50249000D5
:1075920052E0FBA3E0FAA3E0F912071CFF12733FCB
:1075A200900053E475F0011207EB900056E004F0EE
:0275B20080D186
:0175B40022B4
:0B5B2100900030EBF0A3EAF0A3E9F0E5
:105B2C009000517403F090003314F0127B16900027
:105B3C0034EFF0A37453F0900127E0900051601300
:105B4C00E0FF04F074332FF582E43400F583744DD8
:105B5C00F08011E0FF04F074332FF582E43400F58B
:105B6C00837443F09000517404F0900030E0FBA378
:105B7C00E0FAA3E0F912071CFF6021900051E02429
:105B8C0033F582E43400F583EFF0900031E475F0E6
:105B9C00011207EB900051E004F080CE900051E030
:105BAC00FF04F074332FF582E43400F583743AF07B
:105BBC00900051E02433F9E43400FA7B01123F5495
:105BCC00900051E0FF243DF582E43400F583743AF3
:105BDC00F0743E2FF582E43400F5837403F07B01FE
:0B5BEC007A007933EF240CFD02757481
:0B3CC200900029EBF0A3EAF0A3E9F06A
:103CCD0090004D7403F090002F14F0127B169000AD
:103CDD0030EFF0A37453F090002CE0FBA3E0FAA3B7
:103CED00E0F990000812073590004D6013E0FF04D5
:103CFD00F0742F2FF582E43400F583744DF08011AC
:103D0D00E0FF04F0742F2FF582E43400F583744343
:103D1D00F0900029E0FBA3E0FAA3E0F912071CFFE5
:103D2D0090004DE0FE04F0742F2EF582E43400F582
:103D3D0083EFF090002AE475F0011207EB90002953
:103D4D00E0FBA3E0FAA3E0F912071C70C490004D4C
:103D5D00E0FF04F0742F2FF582E43400F583743AFC
:103D6D00F090002CE0FBA3E0FAA3E0F912071CFF92
:103D7D001279A4AD077C00ED54F0FFE4C4F854F0C3
:103D8D00C8EFC4540F484430FF90004DE0FE04F0DE
:103D9D00742F2EF582E43400F583EFF0ED540F44CB
:103DAD0030FF90004DE0FE04F0742F2EF582E434C8
:103DBD0000F583EFF090002CE0FBA3E0FAA3E0F90F
:103DCD00900001120735FF1279A47C00AD07ED5468
:103DDD00F0FFE4C4F854F0C8EFC4540F484430FF6A
:103DED0090004DE0FE04F0742F2EF582E43400F5C2
:103DFD0083EFF0ED540F4430FF90004DE0FE04F0E2
:103E0D00742F2EF582E43400F583EFF090002CE052
:103E1D00FBA3E0FAA3E0F9900002120735FF127937
:103E2D00A47C00AD07ED54F0FFE4C4F854F0C8EFE6
:103E3D00C4540F484430FF90004DE0FE04F0742F41
:103E4D002EF582E43400F583EFF0ED540F4430FF8E
:103E5D0090004DE0FE04F0742F2EF582E43400F551
:103E6D0083EFF090002CE0FBA3E0FAA3E0F99000C3
:103E7D0003120735FF1279A47C00AD07ED54F0FF56
:103E8D00E4C4F854F0C8EFC4540F484430FF900018
:103E9D004DE0FE04F0742F2EF582E43400F583EF2F
:103EAD00F0ED540F4430FF90004DE0FE04F0742F00
:103EBD002EF582E43400F583EFF090002CE0FBA3A7
:103ECD00E0FAA3E0F9900004120735FF1279A47C03
:103EDD0000AD07ED54F0FFE4C4F854F0C8EFC4543E
:103EED000F484430FF90004DE0FE04F0742F2EF586
:103EFD0082E43400F583EFF0ED540F4430FF900071
:103F0D004DE0FE04F0742F2EF582E43400F583EFBE
:103F1D00F090004DE0FF04F0742F2FF582E4340093
:103F2D00F583743AF090004DE0FF04F0742F2FF5F7
:103F3D0082E43400F5837403F07B017A00792F90CD
:073F4D00004DE0FD02757458
:1077A2009000477403F090002914F0127B169000A9
:1077B2002AEFF0A37445F0900127E090002C7004AA
:1077C20074438002744DF0E4A3F012578B78297C45
:0677D200007D01020B4BDB
:08000300D294127BFFC294228B
:05763600900058EFF088
:10763B00E4A3F0A3F0900058E0FFA2E713F030D7DB
:10764B0004D2958002C29512000390005AE004F018
:10765B007006900059E004F0C390005AE094089033
:09766B000059E06480948040CCD9
:0176740022F3
:0A67F500EBF0A3EAF0A3E9F07F8DBA
:0567FF00900055EFF0D1
:10680400D2967F037E00127AF2900055E0FF127652
:1068140036E4900056F0A3F0900056E0FCA3E0FDAF
:10682400C39408EC64809480504F3095169001C452
:10683400E04480F0ED9406EC648094805005E0FF21
:10684400C313F02095209001C4E0547FF0D390004E
:1068540057E09406900056E06480948050089001BC
:10686400C4E0FFC313F0120003900057E004F0707B
:10687400A7900056E004F0809FC2969001C4E0FF08
:0168840022F1
:1078E500900033EFF0A3EDF0D2967F037E00127A7D
:1078F500F2900033E0FF127636900034E0FF9000FE
:0879050033F0127636C296221F
:1075B500900031E475F0011207EB900031E475F0AD
:1075C500011207EB900031E475F0011207EB900012
:1075D50030E0FBA3E0FAA3E0F912071CFF900001DD
:0475E500120735FD57
:0C75E900EF540FC454F0FFED540F4FFF9F
:0175F5002273
:104F6B00E4FF12071CFEC39430500302507DEED3B6
:104F7B009439400302507D900001120735FEC39413
:104F8B0030500302507AEED39439400302507A909A
:104F9B000003120735FEC394305003025077EED353
:104FAB0094394003025077900004120735FEC394E6
:104FBB0030500302507FEED39439400302507F9060
:104FCB000008120735FEC394305003025074EED321
:104FDB009439400302507490000B120735FEC394B2
:104FEB00305003025071EED39439507A90000C126A
:104FFB000735FEC39430406BEED394395065900067
:10500B000E120735FEC394304056EED394395050F0
:10501B0090000F120735FEC394304041EED3943904
:10502B00503B900011120735FEC39430402CEED349
:10503B0094395026900012120735FEC39430401756
:10504B00EED394395011900014120735FEC39430EF
:10505B004022EED39439227F01227F01227F01224D
:10506B007F01227F01227F01227F01227F01227F8C
:04507B0001227F018E
:01507F00220E
:10691500900030EBF0A3EAF0A3E9F01275D3AD07D0
:106925007F861278E51275B5AD077F881278E590F8
:106935000031E475F0011207EB900031E475F001C8
:106945001207EB1275B5AD077F8C1278E51275B598
:10695500AD077F841278E51275B5AD077F82127891
:10696500E51275B5AD077F801278E5900031E475C5
:10697500F0011207EB900031E475F0011207EB907E
:106985000031E475F0011207EB900030E0FBA3E065
:0F699500FAA3E0F912071C540FFD7F8A0278E580
:107A6300AE07EEC4540F540FFE6012EF540FFFE441
:0D7A7300FDEDC39E5007740A2FFF0D80F437
:017A800022E3
:1079A400E4FEFDFCECC39F500B0DED640A7002FD78
:1079B4000E0C80F0EEC454F054F0FEED540F4EFF64
:0179C40022A0
:10729C00E4FFFE900030EDF0900030E0C394647495
:1072AC008094804007E0249CF00F80ECEF44301277
:1072BC000762740129F9E43AFA900030E0C3940AA9
:1072CC00748094804007E024F6F00E80ECEE44309D
:1072DC00120762740129F9E43AFA900030E0443064
:0372EC0002076234
:0E31D500900030EBF0A3EAF0A3E9F0A3EDF0D8
:1031E300E4900035F0A3F0900038F0A3F0A3F0A32F
:1031F300F0900037EDF054F0F0E0FFC4540FF0907E
:10320300004012086D404000007F007E007D807CFE
:10321300411247BBC004C005C006C007900037E099
:10322300FCE412022ED003D002D001D00012011E02
:10323300C004C005C006C007900035E0FCA3E0FD54
:10324300E4120229D003D002D001D00012002D12C3
:103253000262900035EEF0A3EFF0900033E09000AF
:1032630037F0540FF090004012086D400000007FCB
:10327300007E007D807C411247BBC004C005C006B0
:10328300C007900037E0FCE412022ED003D002D036
:1032930001D00012011EC004C005C006C007900083
:1032A30035E0FCA3E0FDE4120229D003D002D001F3
:1032B300D00012002D120262900035EEF0A3EFF061
:1032C300900034E0900037F054F0F0E0FFC4540F66
:1032D300F090004012086D3F8000007F007E007D6B
:1032E300807C411247BBC004C005C006C0079000E4
:1032F30037E0FCE412022ED003D002D001D000123A
:10330300011EC004C005C006C007900035E0FCA341
:10331300E0FDE4120229D003D002D001D000120054
:103323002D120262900035EEF0A3EFF0900034E02E
:10333300900037F0540FF090004012086D00000029
:10334300007F007E007D807C411247BBC004C00526
:10335300C006C007900037E0FCE412022ED003D071
:1033630002D001D00012011EC004C005C006C00770
:10337300900035E0FCA3E0FDE4120229D003D00263
:10338300D001D00012002D120262900035EEF0A39E
:10339300EFF0C3EF9410EE9427401074F02FFF74F6
:1033A300D83EFE900038E004F080E7900038E04417
:1033B30030FD900030E0FBA3E0FAA3E0F9ED120743
:1033C30062900031E475F0011207EBC3EF94E8EE6D
:1033D3009403401074182FFF74FC3EFE900039E0F4
:1033E30004F080E7900039E04430FD900030E0FBCA
:1033F300A3E0FAA3E0F9ED120762900031E475F05F
:10340300011207EBC3EF9464EE94004010749C2FF9
:10341300FF74FF3EFE90003AE004F080E790003A2C
:10342300E04430FD900030E0FBA3E0FAA3E0F9EDC7
:10343300120762900031E475F0011207EBC3EF94B9
:103443000AEE9400401074F62FFF74FF3EFE9000C6
:103453003BE004F080E790003BE04430FD90003017
:10346300E0FBA3E0FAA3E0F9ED120762900031E478
:1034730075F0011207EBEF4430FF900030E0FBA33F
:10348300E0FAA3E0F9EF120762900031E475F0016E
:103493001207EB900030E0FBA3E0FAA3E0F9E402AB
:0234A3000762BE
:033F540090005288
:103F57001267F5EF54F0C4540F4430FE900052E05E
:103F6700FBA3E0FAA3E0F9EE120762900053E475B1
:103F7700F0011207EBEF540F4430FF900052E0FBC3
:103F8700A3E0FAA3E0F9EF120762900053E475F09B
:103F9700011207EB7F891267FFEF54F0C4540F44F7
:103FA70030FE900052E0FBA3E0FAA3E0F9EE12071F
:103FB70062900053E475F0011207EBEF540F4430A1
:103FC700FF900052E0FBA3E0FAA3E0F9EF120762CB
:103FD700900053E475F0011207EB7F871267FFEF3C
:103FE70054F0C4540F4430FE900052E0FBA3E0FAB3
:103FF700A3E0F9EE120762900053E475F00112078F
:10400700EBEF540F4430FF900052E0FBA3E0FAA31C
:10401700E0F9EF120762900053E475F0011207EB25
:104027007F851267FFEF54F0C4540F4430FE9000B1
:1040370052E0FBA3E0FAA3E0F9EE12076290005307
:10404700E475F0011207EBEF540F4430FF90005274
:10405700E0FBA3E0FAA3E0F9EF120762900053E454
:1040670075F0011207EB7F831267FFEF54F0C4541A
:104077000F4430FE900052E0FBA3E0FAA3E0F9EE14
:10408700120762900053E475F0011207EBEF540F2B
:104097004430FF900052E0FBA3E0FAA3E0F9EF12EF
:1040A7000762900053E475F0011207EB7F811267F6
:1040B700FFEF54F0C4540F4430FE900052E0FBA3CE
:1040C700E0FAA3E0F9EE120762900053E475F001FD
:1040D7001207EBEF540F4430FF900052E0FBA3E0D0
:1040E700FAA3E0F9EF120762900053E475F00112AA
:1040F70007EB7F8B1267FFEF540F4430FF9000529E
:10410700E0FBA3E0FAA3E0F9EF120762900053E4A3
:1041170075F0011207EB900052E0FBA3E0FAA3E071
:05412700F9E40207624B
:1062820090004F1267F5127A6390004FE0FBA3E093
:10629200FAA3E0F9EF120762900050E475F00112E0
:1062A20007EB7F891267FF127A6390004FE0FBA32E
:1062B200E0FAA3E0F9EF120762900050E475F001F2
:1062C2001207EB7F871267FF127A6390004FE0FBA1
:1062D200A3E0FAA3E0F9EF120762900050E475F030
:1062E200011207EB7F851267FF127A6390004FE07D
:1062F200FBA3E0FAA3E0F9EF120762900050E47505
:10630200F0011207EB7F831267FF127A6390004F4E
:10631200E0FBA3E0FAA3E0F9EF120762900050E479
:0663220075F0010207EB1B
:105BF70090003D1267F590003DE0FBA3E0FAA3E0BB
:105C0700F9EF12076290003EE475F0011207EB7F8F
:105C1700891267FF90003DE0FBA3E0FAA3E0F9EFEC
:105C270012076290003EE475F0011207EB7F8712BE
:105C370067FF90003DE0FBA3E0FAA3E0F9EF12074E
:105C47006290003EE475F0011207EB7F851267FF53
:105C570090003DE0FBA3E0FAA3E0F9EF12076290A2
:105C6700003EE475F0011207EB7F831267FF900097
:105C77003DE0FBA3E0FAA3E0F9EF12076290003ED4
:105C8700E475F0011207EB7F811267FF90003DE09A
:105C9700FBA3E0FAA3E0F9EF12076290003EE47578
:105CA700F0011207EB90003DE0FBA3E0FAA3E0F957
:045CB700E40207629A
:077BAC00C294C296D295229B
:0B464200900029EBF0A3EAF0A3E9F0E0
:10464D00A37401F012071CFF3395E04F70479000E3
:10465D0029E0FBA3E0FAA3E0F9900001120735FF72
:10466D003395E04F702F900002120735FF3395E020
:10467D004F7022900003120735FF3395E04F7015F0
:10468D00900004120735FF3395E04F700890002C11
:10469D0004F00247B57B017A00792D1262829001F8
:1046AD0023E0640170097B017A00792D1263289053
:1046BD000029E0FBA3E0FAA3E0F912071CFFFD338C
:1046CD0095E0FC90002DE0C39DEC6480F87480981B
:1046DD0050030247A290002DE06F60030247AF9098
:1046ED000029E0FBA3E0FAA3E0F9900001120735E1
:1046FD00FFFD3395E0FC90002EE0C39DEC6480F847
:10470D0074809850030247A290002EE06F60030260
:10471D0047AD900029E0FBA3E0FAA3E0F990000279
:10472D00120735FFFD3395E0FC90002FE0C39DECA3
:10473D006480F87480985002805B90002FE06F7059
:10474D005D900029E0FBA3E0FAA3E0F990000312CD
:10475D000735FFFD3395E0FC900030E0C39DEC6420
:10476D0080F87480985002802C900030E0B5072CB2
:10477D00900029E0FBA3E0FAA3E0F99000041207F2
:10478D0035FF3395E0FE900031E0C39FEE6480F875
:10479D00748098500DE490002CF0800C8004800201
:0D47AD00800090002C7402F090002CE0FFC2
:0147BA0022DC
:1024450090002CECF0A3EDF0900029EBF0A3EAF05E
:03245500A3E9F008
:10245800C200C20190000B120735FF3395E04F60B0
:102468000302297B900029E0FBA3E0FAA3E0F9909E
:10247800000C120735FF3395E04F600302297B906B
:10248800000D120735FF3395E04F600302297B905A
:10249800000E120735FF3395E04F600302297B9049
:1024A800000F120735FF3395E04F600302297B9038
:1024B800002CE0FEA3E0C3943CEE940090002C4076
:1024C8001CA3E0FB7C007D3CFF120796900035EFD3
:1024D800F075F03CA4FFC3EB9FA3F0800BA3E09042
:1024E8000036F0E4900035F0900036E0FF7003020B
:1024F80027B0900029E0FBA3E0FAA3E0F9900004DC
:10250800120735FEEF2E900034F0D3943B7480947C
:10251800805003022785E0FF75F03C84900037F077
:10252800E0FE75F03CA4FDC3EF9D900034F09000F0
:1025380003120735FFEE2F900033F0D39417748001
:1025480094805003022764E0FF75F01884900037E8
:10255800F0E0FE75F018A4FDC3EF9D900033F090F5
:102568000002120735FFEE2F900032F090000112A2
:102578000735FF3395E0FEEF64014E6024EF6403F6
:102588004E601EEF64054E6018EF64074E6012EF50
:1025980064084E600CEF640A4E6006EF640C4E70DF
:1025A80057900032E0D3941F748094804032E02426
:1025B800E1F0900029E0FBA3E0FAA3E0F990000124
:1025C80012073504900031F0D3940C748094804045
:1025D8002412071C04900030F0A37401F00227EACB
:1025E800900029E0FBA3E0FAA3E0F99000011207AC
:1025F80035900031F00227E3900029E0FBA3E0FAD0
:10260800A3E0F9900001120735FF3395E0FEEF646F
:10261800044E6012EF64064E600CEF64094E6006CB
:10262800EF640B4E7027900032E0D3941E748094B0
:1026380080400DE024E2F090000112073504800686
:10264800900001120735900031F00227E39000292D
:10265800E0FBA3E0FAA3E0F9900001120735FF338D
:1026680095E0FEEF64024E600302274712071CFF45
:10267800FD3395E0FCED24D0FAEC340790002EF001
:10268800A3CAF0C200ED64104C6023EF3395E0FE5E
:10269800EF64144E6018EF64184E6012EF641C4E1D
:1026A800600CEF64204E6006EF64244E7002D20086
:1026B800300049900032E0FDD3941D7480948090DE
:1026C8000029E0FBA3E0FAA3E0F9401712071C90E9
:1026D8000030F0900032E024E3F09000011207355A
:1026E80004801212071C900030F0900032EDF09038
:1026F8000001120735900031F00227EA900032E01D
:10270800FDD3941C748094804018E024E4F0900079
:1027180029E0FBA3E0FAA3E0F990000112073504D1
:102728008016900032EDF0900029E0FBA3E0FAA3B8
:10273800E0F9900001120735900031F00227E3908C
:102748000032E0F0900029E0FBA3E0FAA3E0F99062
:102758000001120735900031F00227E3900029E0CC
:10276800FBA3E0FAA3E0F9900002120735900032CB
:10277800F0900001120735900031F0805E9000293A
:10278800E0FBA3E0FAA3E0F99000031207359000FC
:1027980033F0900002120735900032F090000112D9
:1027A8000735900031F08033900029E0FBA3E0FA70
:1027B800A3E0F9900004120735900034F09000036C
:1027C800120735900033F09000021207359000325E
:1027D800F0900001120735900031F012071C9000AC
:1027E80030F0900035E0FF700302293C900033E0A0
:1027F8002FF0E0FFD3941774809480500302293C93
:10280800EF75F01884900037F0E0FE75F018A4FD1D
:10281800C3EF9D900033F0900032E02EF09000312D
:10282800E0FF6401601EEF64036019EF6405601443
:10283800EF6407600FEF6408600AEF640A6005EF51
:10284800640C7035900032E0D3941F7480948050EB
:102858000302293CE024E1F0900031E004F0E0D3E9
:10286800940C74809480900030E0400904F0A374C4
:1028780001F002293CF002293C900031E0FF640499
:10288800600FEF6406600AEF64096005EF640B707F
:102898001F900032E0D3941E74809480400CE02492
:1028A800E2F0900031E004022936900031E0807EA9
:1028B800900031E0FA6402707B900030E0FBFD7C10
:1028C8000024D0FEEC340790002EF0A3CEF0C20016
:1028D800ED6410601AEBFF64146014EF6418600F65
:1028E800EF641C600AEF64206005EF64247002D274
:1028F80000300024900032E0FFD3941D748094804F
:10290800400BE024E3F0900031E0048009900032AD
:10291800EFF0900031EA8016900032E0D3941C74F6
:10292800809480400FE024E4F0900031E004F090BF
:102938000030E0F0900030E0FF900029E0FBA3E0D9
:10294800FAA3E0F990000BEF120774900031E090C1
:10295800000C120774900032E090000D120774907A
:102968000033E090000E120774900034E090000FDE
:03297800120774CF
:01297B002239
:107AF200E4FDFCC3ED9FEC9E50070DBD00010C8020
:017B0200F290
:017B0300225F
:047A8100AB07AA069F
:107A8500900000C3E5829BE5839A500A7F967E00AD
:067A9500127AF2A380ED5D
:017A9B0022C8
:017BFF002263
:1078BC004572726F72206465207469636B65740025
:1078CC000A0D004E756D65726F20646520746963D6
:0978DC006B65743A00256C75001F
:0379E50012798292
:1079E800D20AD293D292E4FFFE209205C20AC29331
:0C79F800220FBF00010EBE04F0BF4CEDDA
:017A0400225F
:037A050012798271
:107A0800D293D292D20AE4FFFE209205C20AC29310
:0C7A1800220FBF00010EBE02F0BF8AED7D
:017A2400223F
:067BE400D29300C29322BF
:10798200E4FEEEC39408748094805015EF25E0FF66
:1079920030D704D2928002C292D293127BE40E803C
:0179A200E103
:0179A30022C1
:087B0400ECFD7C00C293C2926B
:0A7B0C00D292D29300C292C29322DB
:097BA300C293C292D293D2922245
:1072EF00E4FBEBFDC39408748094805038C2933054
:1072FF0092169001BDE04401F0ED940674809480E5
:10730F005006E025E0F0D2932092179001BDE05493
:10731F00FEF0EBD39406748094805006E025E0F0E5
:0C732F00D2930B80BDC2939001BDE0FF23
:01733B00222F
:07745D007D02FB7C017FA80A
:02746400AA0775
:10746600AF05A907127B04AF021279E5AF051279C1
:10747600E5AF011279821279E8AF031279821279A7
:10748600E8127BA37F0D7E00127A81D293D2927F7F
:0D749600627E00127AF27F627E00027AF2BE
:0476B3007C017FA82F
:0276B700AB071F
:1076B900AF05AA07127B04AF03127A05AF05127A48
:1076C90005AF02127982127A08127B0CEB04FF12C1
:1076D90079821279E8C2931272EF127BA3D293D204
:0676E900929001BDE0FFDC
:0176EF002278
:0B492100900030EBF0A3EAF0A3E9F0F7
:10492C00E4900037F0A312086D00000000900030F6
:10493C00E0FBA3E0FAA3E0F990000AE4120774E4A8
:10494C00900033F0900033E0FFD39409748094808E
:10495C005057900030E0FBA3E0FAA3E0F98F82758A
:10496C008300120735FF7E00C3943074809480401E
:10497C000AD3EF94397480948040269000377401E8
:10498C00F07BFF7A7879BC127392900030E0FBA335
:10499C00E0FAA3E0F91273927BFF7A7879CC127368
:1049AC0092900033E004F0809B900037E0600302AB
:1049BC004A627BFF7A7879CF127392900030E0FBD9
:1049CC00A3E0FAA3E0F91273927BFF7A7879CC1208
:1049DC007392900030E0FBA3E0FAA3E0F91251903F
:1049EC00900038120861900038E0FCA3E0FDA3E0D1
:1049FC00FEA3E0FF781812080FAB07900038E0FC1C
:104A0C00A3E0FDA3E0FEA3E0FF781012080F9000D6
:104A1C0034EFF0900038E0FCA3E0FDA3E0FEA3E04F
:104A2C00FF780812080F900035EFF0900038A3A320
:104A3C00A3E0900036F07D00127460900034E0FB2F
:104A4C007401FDFC7FA8127464900035E012745D53
:104A5C00900036E08015E4FBFD127460E4FB04FD6D
:104A6C00FC7FA8127464E412745DE47D0312745F1D
:014A7C002217
:10578B0090004B12086D000000007D001276B3A94B
:10579B00077401FDFC7FA81276B7900048EFF07DEF
:1057AB00021276B3900049EFF07D031276B39000AE
:1057BB004AEFF0AF01A3E0F8A3E0F9A3E0FAA3E00E
:1057CB004FFFEAFEE9FDE8FC780812082290004B37
:1057DB00120861900048E0FF90004BE0F8A3E0F95D
:1057EB00A3E0FAA3E04FFFEAFEE9FDE8FC7808121C
:1057FB00082290004B120861900049E0FF90004B8B
:10580B00E0F8A3E0F9A3E0FAA3E04FFFEAFEE9FD1D
:10581B00E8FC780812082290004B12086190004AAD
:10582B00E0FFA3E0F8A3E0F9A3E0FAA3E04FFFEA5F
:10583B00FEE9FDE8FC90004B12086190009074FFAC
:10584B00F0A37478F0A374E1F090004BE0FCA3E0BC
:10585B00FDA3E0FEA3E0FF9000931208617B017AA9
:0C586B0000794F1229E17B017A00794F8F
:01587700220E
:1063CE0053656E736F726573204175746F207920FB
:1063DE0073656E736F72312061637469766F732E9D
:1063EE000053656E736F722061637469766F2073EC
:1063FE00656E736F7231202E00446574656374612F
:10640E00646F2E2053656E736F72204175746F2EFC
:10641E000053656E736F726573206E6F20646574C2
:10642E0065637461646F73005665686963756C6F3C
:10643E00204573706572616E646F2053616C697272
:10644E002E005665686963756C6F2053616C6965C3
:10645E006E646F2E20556E206D6F6D656E746F00BD
:046B6F004101C5001B
:077BB300C2B5C2B6C2B72241
:077BBA00C2B5D2B6C2B7222A
:077BC100D2B5D2B6C2B72213
:077BC800C2B5C2B6D2B7221C
:077BCF00D2B5C2B6D2B72205
:077BD600C2B5D2B6D2B722FE
:077BDD00D2B5D2B6D2B722E7
:107A2500E4FF7DF47C01309115EFFB3395E04B705D
:0E7A35000DED1D70011CED4C70EC7F0180E822
:017A43002220
:107B16007F31127BD63091010F127BDD3091020F3F
:017B26000F4F
:017B2700223B
:1070AF00127BC830915D127A25EF3395E0FEEF64C5
:1070BF00014E7047127BCF209123127BBA7BFF20AA
:1070CF00910D7A6379CE127392E490012780227A20
:1070DF006379EF12739290012774018014127BBAB7
:1070EF007BFF2091107A64790712739290012774B5
:1070FF0001F07FFF227A64791F800E7BFF7A64791B
:0F710F003680067BFF7A6479501273927F0022DC
:106DCE00E4900021F0127BB32091699001C5E07030
:106DDE0016900021E0701030B35A04F012783D90F6
:106DEE0001C57401F0804D9001C5E06401701690EC
:106DFE000021E0701030B33C04F01250809001C5B9
:106E0E007402F0802F9001C5E0640270279000217B
:106E1E00E0702130B31E04F07D0C7C007FA812764A
:106E2E00B7EF640170047F5380027F4E126A30E424
:0F6E3E009001C5F0127BB3309105E4900021F074
:016E4D002222
:102DFF00643B686F7261004552524F523A20564100
:102E0F004C4944414E444F20504C4143412E2E2EAD
:102E1F0020004552524F523A204C4F4F50312053C1
:102E2F00494E2050524553454E434941205645483F
:102E3F004943554C415220004552524F523A20546B
:102E4F0041524A45544120494E56414C4944412034
:102E5F00005441524A455441204E4F20455320447F
:102E6F00454C20504152512E20005441524A455456
:102E7F00412053494E20464F524D41544F2000544C
:102E8F0041524A455441204E4F20524547495354D1
:102E9F005241205041474F2000455843454445205B
:102EAF005449454D504F20444520475241434941D5
:102EBF0020004655455241204445204C494E45413E
:102ECF0020004249454E56454E49444F2000455239
:102EDF00524F523A2053494E20494E475245534F75
:102EEF002000613B39383B4552524F522056414CDE
:102EFF004944414E444F20504C414341200A0D005C
:102F0F0000613B32373BA1204E4F2052454749537A
:102F1F00545241205041474F2021200A0D0000619B
:102F2F003B39383B53494E2050524553454E434948
:102F3F0041205645484943554C4152200A0D000047
:102F4F00613B39383B5441524A45544120494E5612
:102F5F00414C494441200A0D0000613B39383B4543
:102F6F0052524F523A20414E5449434F4C4C200A33
:102F7F000D0000613B39383B4552524F523A2053B6
:102F8F00454C4543542043415244200A0D000061F3
:102F9F003B39383B43415244204E4F204553204448
:102FAF004520504152515545414445524F200A0D3D
:102FBF000000613B33303B5441524A45544120534A
:102FCF00494E20494E475245534F200A0D0000618C
:102FDF003B32373B5441524A455441204E4F2052C9
:102FEF0045474953545241205041474F0A0D000065
:102FFF00613B32383B455843454445205449454D84
:10300F00504F20444520475241434941200A0D006B
:10301F0000613B39383B4552524F523A204752419B
:10302F00424143494F4E204445204441544F532081
:10303F000A0D0000613B32373B444952494A415324
:10304F004520412043414A41200A0D000020204DD8
:10305F00454E5355414C494441442056454E4349F2
:10306F004441202120202000202056454E43494F27
:10307F00203A20323000613B39383B53494E2052C1
:10308F004553505545535441200A0D0000544152A9
:10309F004A455441204154415343414441200A0D74
:1030AF000000613B39383B53414C49444120494E64
:1030BF0056414C494441200A0D0000613B32363BDA
:1030CF00475241434941532E2E2E200A0D000061D5
:1030DF003B39393B4655455241204445204C494EDA
:1030EF0045410A0D0000613B30303B4249454E5689
:1030FF00454E49444F2E2050554C534520454C20AA
:10310F00424F544F4E0A0D0000613B39393B4E4F31
:10311F00204F4C5649444520504153415220504F67
:10312F005220454C2050554E544F2044452050417D
:10313F00474F0A0D0000613B39393B4249454E5616
:10314F00454E49444F0A0D0000613B39373B4D4511
:10315F004E5355414C494441442043414E43454C05
:10316F00414441202E2E2E20444952494A41534575
:10317F0020412041444D494E495354524143494FF8
:10318F004E0A0D0000613B39393B4E4956454C20E4
:10319F0042414A4F204445205441524A45544153DD
:1031AF000A0D000057494547414E442000AA802888
:1031BF0007200000000000140000AA801801020080
:0631CF00AA8018010200B5
:09793500900037E025E0FFE4FDBD
:05793E00900043EDF094
:10794300127675900044EFF0900043E0600AE4FF84
:08795300127675900044EFF07C
:01795B002209
:0E76F00090003BEBF0A3EAF0A3E9F0A3EDF06D
:1076FE00E4A3F090003BE0FBA3E0FAA3E0F99000D6
:10770E003FE0F582758300120735FF601090003E52
:0D771E00E0FD12793E90003FE004F080D6BF
:01772B00223B
:0E74A30090003DEBF0A3EAF0A3E9F0A3EDF0BA
:1074B100E4900042F0900040E0FF900042E0FEC303
:1074C1009F502490003DE0FBA3E0FAA3E0F98E82F7
:1074D100758300120735FF900041E0FD12793E905F
:0774E1000042E004F080CE40
:0174E8002281
:0B703D0090003DEBF0A3EAF0A3E9F0A7
:1070480012000E900040EFF01273D0127AD5900023
:107058003DE0FBA3E0FAA3E0F9127392127AD5E4BB
:107068009001C6F0900040E02401FFE433FE900157
:10707800C6E0C39FEE6480F8748098502990003D64
:10708800E0FBA3E0FAA3E0F912071CFF1276759063
:107098000041EFF090003EE475F0011207EB90011B
:0670A800C6E004F080BE0A
:0170AE0022BF
:1072450078307C007D017BFF7A3179BC7E007F0D33
:107255001206F6900124E07022C2877B017A00793C
:1072650035125BF7C29C7B017A007930E4900041CE
:10727500F07D0D1274A3D29CD28722C287E49000C0
:1072850030F07B017A007930125BF77BFF7A2D793C
:06729500FF12703DD287DC
:01729B0022D0
:05376A00900030EFF0BB
:10376F0078317C007D017BFF7A3179C97E007F063D
:10377F001206F6C287900124E060030239027B0132
:10378F007A007931FD1276F0900030E01208BE37E2
:10379F00C050389FB63840DF37E0E03800E13820BE
:1037AF00E538DDE63860E73880E838BEFE000038DF
:1037BF00FF7BFF7A2E790612000E900037EFF0E4B0
:1037CF00FDFF12793E1279357BFF7A2E790602388A
:1037DF00FA7BFF7A2E792112000E900037EFF0E47A
:1037EF00FDFF12793E1279357BFF7A2E792102384F
:1037FF00FA7BFF7A2E794712000E900037EFF0E434
:10380F00FDFF12793E1279357BFF7A2E7947023808
:10381F00FA7BFF7A2E796012000E900037EFF0E4FA
:10382F00FDFF12793E1279357BFF7A2E79600238CF
:10383F00FA7BFF7A2E797912000E900037EFF0E4C1
:10384F00FDFF12793E1279357BFF7A2E7979023896
:10385F00FA7BFF7A2E798E12000E900037EFF0E48C
:10386F00FDFF12793E1279357BFF7A2E798E023861
:10387F00FA7BFF7A2E79A812000E900037EFF0E452
:10388F00FDFF12793E1279357BFF7A2E79A8805B86
:10389F007BFF7A2E79C112000E900037EFF0E4FD16
:1038AF00FF12793E1279357BFF7A2E79C1803C7BEE
:1038BF00FF7A2E79D112000E900037EFF0E4FDFF62
:1038CF0012793E1279357BFF7A2E79D1801D7BFFDD
:1038DF007A2E79DD12000E900037EFF0E4FDFF1223
:1038EF00793E1279357BFF7A2E79DD7D011276F0E4
:1038FF00D28722C287900030E01208BE39F8303AE2
:10390F0000393A10433957503A08583A186139601C
:10391F00A139F0B63969E03972E1397BE23984E3D4
:10392F003972E4398DE53996E6399FE739A7E839D9
:10393F00AFE939B7EB39BFEC39D0ED39D8EF39E012
:10394F00F839E8FF00003A217BFF7A2E79F1023A2D
:10395F001E7BFF7A2F7910023A1E7BFF7A2F792E6A
:10396F00023A1E7BFF7A2F794F023A1E7BFF7A2F86
:10397F007969023A1E7BFF7A2F7982023A1E7BFF0A
:10398F007A2F799E023A1E7BFF7A2F79C1023A1E57
:10399F007BFF7A2F79DE80777BFF7A2F79FF806F1D
:1039AF007BFF7A30792080677BFF7A307943805FA5
:1039BF007BFF7A30795C12703D7BFF7A30797780AC
:1039CF004E7BFF7A30798580467BFF7A30799C80F9
:1039DF003E7BFF7A3079B180367BFF7A3079CA80AF
:1039EF002E7BFF7A3079DE80267BFF7A3079F58067
:1039FF001E7BFF7A31791880167BFF7A31794580EB
:103A0F000E7BFF7A31795880067BFF7A31799412D9
:043A1F00703DD2879D
:013A23002280
:0E6C4800900030EFF0A3EBF0A3EAF0A3E9F028
:106C560078347C007D017BFF7A3179CF7E007F0618
:106C66001206F6C287900030E0245070557B017AF8
:106C7600007934E4FD1276F07BFF7A3179B31200A5
:106C86000E90003AEFF0900031E0FBA3E0FAA3E0AB
:106C9600F912000E90003AE02F04F0E4FDFF12799D
:106CA6003E90003A1279387BFF7A3179B37D011232
:106CB60076F0900031E0FBA3E0FAA3E0F97D011243
:046CC60076F0D2870B
:016CCA0022A7
:1016E8000D0A0A25733E20002563002564000D0AB3
:1016F8000A2041435455414C2049445F434C4945D5
:101708004E54453D25730D0A0A000D0A0A20444926
:1017180047495445205355204E5545564F20494476
:101728005F434C49454E54453D000D0A0A2044414B
:10173800544F204D4F444946494341444F20494462
:101748005F434C49454E54453D25730D0A0A000D2B
:101758000A0A2041435455414C20434F445F5041AD
:10176800524B3D25730D0A0A000D0A0A20444947C9
:10177800495445205355204E5545564F20434F4414
:101788005F5041524B3D000D0A0A204441544F20FE
:101798004D4F444946494341444F20434F445F50CD
:1017A80041524B3D25730D0A0A000D0A0A20414398
:1017B8005455414C205449454D504F5F4752414381
:1017C80049413D25730D0A0A000D0A0A204449477C
:1017D800495445205355204E5545564F20544945A8
:1017E8004D504F5F4752414349413D000D0A0A2081
:1017F8004441544F204D4F444946494341444F20AA
:101808005449454D504F5F4752414349413D257327
:101818000D0A0A000D0A0A2041435455414C205331
:10182800494E5F434F42524F20494E484142494C2E
:10183800495441444F3D25730D0A0A000D0A0A20F8
:1018480041435455414C2053494E5F434F42524FF8
:10185800204752415449533D25730D0A0A000D0A89
:101868000A2041435455414C2053494E5F434F424F
:10187800524F2047524154495320592053414C4913
:10188800444120454C204D49534D4F204449413D4A
:1018980025730D0A0A000D0A0A2044494749544590
:1018A800205355204E5545564F2053494E5F434FC0
:1018B80042524F3D000D0A0A2041435455414C20E5
:1018C800444542554720494E484142494C495441B4
:1018D800444F3D25730D0A0A000D0A0A204143545E
:1018E80055414C20444542554720484142494C49BE
:1018F8005441444F3D25730D0A0A000D0A0A20443D
:10190800494749544520454C204E5545564F20459A
:10191800535441444F2044452044454255473D00D7
:101928000D0A0A2041435455414C205553455F4CFC
:10193800505220494E484142494C495441444F3D38
:1019480025730D0A0A000D0A0A2041435455414CDB
:10195800205553455F4C505220484142494C495408
:1019680041444F3D25730D0A0A000D0A0A204449D7
:101978004749544520454C204E5545564F20455320
:101988005441444F204445205553455F4C50523DE7
:10199800000D0A0A2041435455414C20434F4D50F5
:1019A80041524143494F4E204143544956412049F1
:1019B8004E484142494C495441444F3D25730D0A14
:1019C8000A000D0A0A2041435455414C20434F4D0B
:1019D8005041524143494F4E2041435449564120BA
:1019E80020484142494C495441444F3D25730D0A12
:1019F8000A000D0A0A2044494749544520454C200D
:101A08004E5545564F2045535441444F2044452098
:101A1800434F4D5041524143494F4E204143544951
:101A28005641203D000D0A0A2041435455414C209F
:101A3800434F4D5041524143494F4E204143544931
:101A480056412020494E484142494C495441444F4F
:101A58003D25730D0A0A000D0A0A2050414E5441D3
:101A68004C4C41204C434420484142494C49544144
:101A780044413D25730D0A0A000D0A0A2050414EC3
:101A880054414C4C412052415350424552525920E6
:101A980020484142494C49544144413D25730D0A6F
:101AA8000A000D0A0A2044494749544520454C205C
:101AB8004E5545564F2045535441444F20444520E8
:101AC8004C412050414E54414C4C41203D000D0AA0
:101AD8000A2041435455414C20434F4D50415241F7
:101AE80043494F4E204143544956412020484142E2
:101AF800494C49544144413D25730D0A0A000D0AD9
:101B08002049445F434C49454E5445202020202D10
:101B18002D2D20434D442030204964656E7469663C
:101B2800696361646F722064656C20636C69656EBB
:101B38007465206D6178696D6F20323535000D0A46
:101B480020434F445F5041524B2020202020202D1D
:101B58002D2D20434D44203120456C206E756D6538
:101B6800726F2064656C207061727175656164655F
:101B7800726F206D6178696D6F20323535000D0AFE
:101B880020545F4752414349412020202020202DE6
:101B98002D2D20434D442032205469656D706F20EF
:101BA80073696E20636F62726F2030302C20206D55
:101BB8006178696D6F20323535000D0A2053494E22
:101BC8005F434F42524F20202020202D2D2D2043AF
:101BD8004D44203320496E686162696C69746164A0
:101BE8006F3D20302C204772617469733D2031208D
:101BF8002C2047726174697320792073616C696461
:101C08006120656C206D69736D6F206469613D208A
:101C180032000D0A2044454255472020202020202C
:101C28002020202D2D2D20434D4420342048616252
:101C3800696C69746172203D20312C20496E68619D
:101C480062696C69746172203D2030000D0A20556C
:101C580053455F4C5052202020202020202D2D2D30
:101C680020434D44203520486162696C6974617273
:101C7800203D20312C20496E686162696C6974616D
:101C880072203D2030000D0A20434F4D50415241F3
:101C980043494F4E5F414354495641202D2D2D2035
:101CA800434D44203620486162696C697461722032
:101CB8003D20312C20496E686162696C69746172DB
:101CC800203D2030000D0A205449504F5F50414EAE
:101CD80054414C4C4120202020202D2D2D20434DB7
:101CE800442037204D756573747261206C6F7320C2
:101CF800636F6D616E646F73000D0A20415955441E
:101D0800412020202020202020202D2D2D20434D33
:101D1800442038204D756573747261206C6F732090
:101D2800636F6D616E646F73000D0A2053414C49F7
:101D3800522020202020202020202D2D2D20434DF2
:101D48004420392053616C69722064652070726F79
:101D58006772616D6163696F6E000D0A0A5369737A
:101D680074656D612064652050726F6772616D6182
:101D780063696F6E20457870656469646F72204985
:101D88006D707265736F726120636F6420204261A9
:101D9800727261732C205152200D0A0D0A000D0A2F
:101DA8000A2F3E5573756172696F3A000D0A0A2F42
:101DB8003E50617373776F72643A00313233343551
:101DC80036000D0A436F6D616E646F206E6F20657B
:101DD80078697374652027257327003A5B3C253F93
:101DE80058545D3D2900232A594A41494D456361AC
:101DF8006D696C744B0077727A32357136382D39CB
:101E08003166532E4000200D0A00200D0A00220DD5
:021E18000A00BE
:106B73005401412F0000000000000000000000004D
:106B83000000000000000049013861646D696E0077
:106B9300000000540155300031003200330034004E
:0A6BA30035003600370038003900D5
:0B412C0090007DEBF0A3EAF0A3E9F0A7
:1041370078827C007D017BFF7A1D79E37E007F0B0F
:104147001206F6788D7C007D017BFF7A1D79EE7E65
:10415700007F101206F6789D7C007D017BFF7A1D9B
:1041670079FE7E007F101206F690007DE0FBA3E04B
:10417700FAA3E0F912000E900080EFF0E4A3F090AC
:104187000080E0FFA3E0FEC39F40030242E69000E9
:104197007DE0FBA3E0FAA3E0F98E827583001207A6
:1041A70035FD7C0074822EF582E43400F583E02D22
:1041B700FFEC33900134F0A3EFF07E00540FFFA320
:1041C700EEF0A3EFF0700BE004F07006900136E01C
:1041D70004F0900136E0FEA3E0248CF58274003EE3
:1041E700F583E07E002DFFEE3C900134F0A3EFF065
:1041F7007E00540FFFA3EEF0A3EFF0700BE004F086
:104207007006900136E004F0900136E0FEA3E0244A
:104217009CF58274003EF583E0FF900134E0FEA335
:10422700E06FFF900134EEF0FEA3EFF0D394FFEEC2
:1042370094004005900134E4F0900134E0FEA3E0DF
:10424700FFC3947AEE94004015D3EF94FFEE9400E9
:10425700500CEF547AFF900134E4F0A3EFF0C390D1
:104267000135E09430900134E09400500CA3E02431
:1042770040F0900134E03400F0900134E0FEA3E018
:10428700FFC3945BEE94004014D3EF9460EE940068
:10429700500BE02407F0900134E03400F090013433
:1042A700E0FEA3E0FFC3943AEE94004014D3EF94EA
:1042B70040EE9400500BE024F9F0900134E034FF15
:1042C700F0900134A3E0FF900081E024ADF582E493
:1042D7003400F583EFF0900081E004F00241867B23
:0542E700017A0079AD31
:0142EC0022AF
:0B71890090007DEBF0A3EAF0A3E9F01A
:10719400E4900082F0900082E0FFC3940A7480942B
:1071A400805041EF75F002A42455F9740135F0FACA
:1071B4007B0178807C007D01120B4B78807C007D04
:1071C4000190007DE0FBA3E0FAA3E0F9120A62EF6C
:1071D4003395E04F7006900082E0FF22900082E039
:0671E40004F080B17FFF02
:0171EA002282
:0B752F00900021E0FBA3E0FAA3E0F9CC
:0B753A0090007DEBF0A3EAF0A3E9F065
:1075450078807C007D017B017A017938120B4B78BC
:10755500807C007D0190007DE0FBA3E0FAA3E0F9CB
:0E756500120A62EF3395E04F7002FF227FFFA3
:0175730022F5
:0675F6007B017A007955CB
:0B75FC0090007DEBF0A3EAF0A3E9F0A3
:1076070078807C007D017BFF7A1E790E7E007F04E7
:107617001206F690008B7401F0A37400F0A3748037
:0F762700F090007DE0FBA3E0FAA3E0F9025962C6
:10688500E0FBA3E0FAA3E02FF9EA3EFAE92401F9D7
:03689500E43AFAE8
:0B68980090007DEBF0A3EAF0A3E9F014
:1068A30078807C007D017BFF7A1E79127E007F0455
:1068B3001206F678847C007D017BFF7A1E79167EB2
:1068C300007F041206F690007DE0FBA3E0FAA3E04C
:1068D300F912071CFFB4200C90007EE475F001123E
:1068E30007EB80E2EF90008BB4220D7401F0A374E8
:1068F30000F0A37484F080167401F0A37400F0A375
:106903007480F090007DE0FBA3E0FAA3E0F9125954
:016913006221
:016914002260
:107A9C009000907401F0A37401F0A37441F07BFF8B
:077AAC007A1679E80229E7D0
:086E4E007A0079557B01E4FD97
:0E6E5600900089EBF0A3EAF0A3E9F0A3EDF0C1
:106E6400127B8D900089E0FBA3E0FAA3E0F9EF1216
:106E7400076290008CE0701D900089E0FBA3E0FAAB
:106E8400A3E0F912071C900090F07BFF7A1679F0CA
:106E94001229E780057F2A127675900089E0FBA30A
:106EA400E0FAA3E0F912071CFF7E0090008AE47563
:106EB400F0011207EB900089E0FBA3E0FAA3E0F9EC
:096EC400E4120762EF640D7097FF
:016ECD0022A2
:10606F00E4FDFC7FA81276B77E00900087EEF0A3C8
:10607F00EFF090009074FFF0A37416F0A374F3F098
:10608F00A3EEF0A3EFF07B017A00797D1229E19066
:10609F0000907401F0A37400F0A3747DF07BFF7A7D
:1060AF001679F61229E77BFF7A1779121229E77A08
:1060BF0000797D126E527B017A00797D125A4690DB
:1060CF000087EEF0A3EFF0FBE4FDFC7FA8127464F1
:1060DF00E4FDFC7FA81276B77E00900087EEF0A358
:1060EF00EFF090009074FFF0A37416F0A374F3F028
:1060FF00A3EEF0A3EFF07B017A00797D1229E190F6
:10610F0000907401F0A37400F0A3747DF07BFF7A0C
:06611F001779320229E7A6
:105E3C007D027C007FA81276B77E00900087EEF082
:105E4C00A3EFF090009074FFF0A37416F0A374F31A
:105E5C00F0A3EEF0A3EFF07B017A00797D1229E13B
:105E6C009000907401F0A37400F0A3747DF07BFF9C
:105E7C007A1779571229E77BFF7A1779711229E77C
:105E8C007B017A00797DE4FD126E567B017A0079F4
:105E9C007D125A46900087EEF0A3EFF0FB7D027C5A
:105EAC00007FA81274647D027C007FA81276B77EF6
:105EBC0000900087EEF0A3EFF090009074FFF0A339
:105ECC007416F0A374F3F0A3EEF0A3EFF07B017A59
:105EDC0000797D1229E19000907401F0A37400F018
:0D5EEC00A3747DF07BFF7A17798F0229E700
:105EF9007D047C007FA81276B77E00900087EEF0C3
:105F0900A3EFF090009074FFF0A37416F0A374F35C
:105F1900F0A3EEF0A3EFF07B017A00797D1229E17D
:105F29009000907401F0A37400F0A3747DF07BFFDE
:105F39007A1779B21229E77BFF7A1779D11229E703
:105F49007B017A00797DE4FD126E567B017A007936
:105F59007D125A46900087EEF0A3EFF0FB7D047C9A
:105F6900007FA81274647D047C007FA81276B77E36
:105F790000900087EEF0A3EFF090009074FFF0A37B
:105F89007416F0A374F3F0A3EEF0A3EFF07B017A9B
:105F990000797D1229E19000907401F0A37400F05A
:0D5FA900A3747DF07BFF7A1779F40229E7DD
:104BC6007D067C007FA81276B77E00900087EEF007
:104BD600A3EFF090009074FFF0A37416F0A374F3A3
:104BE600F0A3EEF0A3EFF07B017A00797D1229E1C4
:104BF600900087E07002A3E0701590009004F0A387
:104C06007400F0A3747DF07BFF7A18791C803590D0
:104C16000087E07004A3E06401701590009004F032
:104C2600A37400F0A3747DF07BFF7A187944801496
:104C36009000907401F0A37400F0A3747DF07BFFE4
:104C46007A1879661229E77BFF7A18799E1229E786
:104C56007B017A00797DE4FD126E567B017A00793C
:104C66007D125A46900087EEF0A3EFF0FB7D067C9E
:104C7600007FA81274647D067C007FA81276B77E3A
:104C860000900087EEF0A3EFF090009074FFF0A381
:104C96007416F0A374F3F0A3EEF0A3EFF07B017AA1
:104CA60000797D1229E1900087E07002A3E070157B
:104CB60090009004F0A37400F0A3747DF07BFF7A5B
:104CC60018791C8035900087E07004A3E0640170B9
:104CD6001590009004F0A37400F0A3747DF07BFFA0
:104CE6007A18794480149000907401F0A37400F04F
:0D4CF600A3747DF07BFF7A1879661229E720
:014D0300228D
:10539B007D087C007FA81276B77E00900087EEF028
:1053AB00A3EFF090009074FFF0A37416F0A374F3C6
:1053BB00F0A3EEF0A3EFF07B017A00797D1229E1E7
:1053CB00900087E07002A3E0701590009004F0A3AA
:1053DB007400F0A3747DF07BFF7A1879BD80149074
:1053EB0000907401F0A37400F0A3747DF07BFF7A3E
:1053FB001879E11229E77BFF7A1979031229E77BE8
:10540B00017A00797DE4FD126E567B017A00797D7D
:10541B00125A46900087EEF0A3EFF0FB7D087C005C
:10542B007FA81274647D087C007FA81276B77E007B
:10543B00900087EEF0A3EFF090009074FFF0A37450
:10544B0016F0A374F3F0A3EEF0A3EFF07B017A0058
:10545B00797D1229E1900087E07002A3E07015902E
:10546B00009004F0A37400F0A3747DF07BFF7A1816
:10547B0079BD80149000907401F0A37400F0A374B4
:0B548B007DF07BFF7A1879E11229E721
:0154960022F3
:105497007D0A7C007FA81276B77E00900087EEF029
:1054A700A3EFF090009074FFF0A37416F0A374F3C9
:1054B700F0A3EEF0A3EFF07B017A00797D1229E1EA
:1054C700900087E07002A3E0701590009004F0A3AD
:1054D7007400F0A3747DF07BFF7A1979288014900B
:1054E70000907401F0A37400F0A3747DF07BFF7A41
:1054F70019794E1229E77BFF7A1979721229E77B0E
:10550700017A00797DE4FD126E567B017A00797D80
:10551700125A46900087EEF0A3EFF0FB7D0A7C005D
:105527007FA81274647D0A7C007FA81276B77E007C
:10553700900087EEF0A3EFF090009074FFF0A37453
:1055470016F0A374F3F0A3EEF0A3EFF07B017A005B
:10555700797D1229E1900087E07002A3E070159031
:10556700009004F0A37400F0A3747DF07BFF7A1918
:10557700792880149000907401F0A37400F0A3744C
:0B5587007DF07BFF7A19794E1229E7B6
:0155920022F6
:105593007D0C7C007FA81276B77E00900087EEF02A
:1055A300A3EFF090009074FFF0A37416F0A374F3CC
:1055B300F0A3EEF0A3EFF07B017A00797D1229E1ED
:1055C300900087E07002A3E0701590009004F0A3B0
:1055D3007400F0A3747DF07BFF7A1979998014909D
:1055E30000907401F0A37400F0A3747DF07BFF7A44
:1055F3001979CA1229E77BFF7A1979FA1229E77B0D
:10560300017A00797DE4FD126E567B017A00797D83
:10561300125A46900087EEF0A3EFF0FB7D0C7C005E
:105623007FA81274647D0C7C007FA81276B77E007D
:10563300900087EEF0A3EFF090009074FFF0A37456
:1056430016F0A374F3F0A3EEF0A3EFF07B017A005E
:10565300797D1229E1900087E07002A3E070159034
:10566300009004F0A37400F0A3747DF07BFF7A1A1A
:10567300792D80149000907401F0A37400F0A3744A
:0B5683007DF07BFF7A1979CA1229E73D
:01568E0022F9
:10568F007D0E7C007FA81276B77E00900087EEF02B
:10569F00A3EFF090009074FFF0A37416F0A374F3CF
:1056AF00F0A3EEF0A3EFF07B017A00797D1229E1F0
:1056BF00900087E07002A3E0701590009004F0A3B3
:1056CF007400F0A3747DF07BFF7A1A795F801490D9
:1056DF0000907401F0A37400F0A3747DF07BFF7A47
:1056EF001A79811229E77BFF7A1A79AA1229E77BA7
:1056FF00017A00797DE4FD126E567B017A00797D87
:10570F00125A46900087EEF0A3EFF0FB7D0E7C005F
:10571F007FA81274647D0E7C007FA81276B77E007E
:10572F00900087EEF0A3EFF090009074FFF0A37459
:10573F0016F0A374F3F0A3EEF0A3EFF07B017A0061
:10574F00797D1229E1900087E07002A3E070159037
:10575F00009004F0A37400F0A3747DF07BFF7A1A1D
:10576F00795F80149000907401F0A37400F0A3741B
:0B577F007DF07BFF7A1A79D61229E733
:01578A0022FC
:1071EB007BFF7A1B79061229E77BFF7A1B79461204
:1071FB0029E77BFF7A1B79861229E77BFF7A1B79BC
:10720B00C21229E77BFF7A1C791A1229E77BFF7AD6
:10721B001C79541229E77BFF7A1C798E1229E77BA4
:10722B00FF7A1C79CD1229E77BFF7A1D7901122990
:0A723B00E77BFF7A1D79310229E795
:1042ED007BFF7A1D79621229E77BFF7A1D79A61271
:1042FD0029E7126E4E1275F6900021EBF0A3EAF04D
:10430D00A3E9F07B017A00795512412C90002AEB3C
:10431D00F0A3EAF0A3E9F012752FEF70CC7BFF7AD2
:10432D001D79B41229E77B017A0079557D01126E52
:10433D00561275F6900021EBF0A3EAF0A3E9F078A0
:10434D00387C017D017BFF7A1D79C3120B4B1275F1
:10435D002FEF70C9024475127A9C126E4E1275F6CB
:10436D00900021EBF0A3EAF0A3E9F012000E90000B
:10437D0021126885900024EBF0A3EAF0A3E9F01276
:10438D00000E900024126885900027EBF0A3EAF050
:10439D00A3E9F0900024E0FBA3E0FAA3E0F9EA49D9
:1043AD004B601712071CB42F11782D7C007D0190E6
:1043BD000024A3A3E0120B4B803D900024E0FBA34F
:1043CD00E0FAA3E0F9EA494B602D782D7C007D01E0
:1043DD007B017A017941120B4B900024E0F9A3E0A7
:1043ED00FAA3E0900080C9F0A3EAF0A3E9F07B0105
:1043FD007A00792D12711E900021E0FBA3E0FAA343
:10440D00E0F9EA494B7003024364127189EFB40A73
:10441D0000505B904427F828287302444502444B12
:10442D0002445102445702445D024463024469024E
:10443D00446F02447502449C12606F024364125E25
:10444D003C024364125EF9024364124BC60243649C
:10445D0012539B0243641254970243641255930204
:10446D00436412568F0243641271EB024364900051
:10447D0021E0F9A3E0FAA3E0900090C9F0A3EAF0DF
:0F448D00A3E9F07BFF7A1D79CA1229E702436485
:01449C0022FD
:037BFC00256400FD
:0B65A500900021EBF0A3EAF0A3E9F066
:1065B000900026E4F0A374A0F0E4A3F020B37612D8
:1065C0007BF9E4900025F0C286900024F0C2B290DE
:1065D0000026805620B35A900024E0705430B40D49
:1065E000EF1F70011EEF4E70EB04F0804490002509
:1065F000E0C3942874809480503720B408E5A090BC
:106600000028F080F5900028E0FF900021E0FBA337
:10661000E0FAA3E0F9EF120762900022E475F001BE
:106620001207EB900025E004F0A3E0FEA3E0FF805A
:0D663000A3D2B2D286127BEA900025E0FFD3
:01663D00223A
:0E61250090004FEBF0A3EAF0A3E9F0A3EDF039
:10613300900058F0D2B2D2B4C286E4900057F0C2B5
:10614300B290005312086D00004E2030B349900006
:1061530057E07043C2B2D2B4900053E0FCA3E0FD19
:10616300A3E0FEA3E0FFEF24FFFFEE34FFFEED34D8
:10617300FFFDEC34FFFC900053120861900053E0E4
:10618300FCA3E0FDA3E0FEA3E0FFEC4D4E4F70BB8C
:10619300A304F0C28280B4900057E0702920B32694
:1061A30090004FE0FBA3E0FAA3E0F912071CF5A06F
:1061B300127B28900050E475F0011207EB90005217
:1061C300E014F0E070DA75A0FFD2B2D2B4D2867FC9
:0661D300627E00027AF278
:10529C009000307403F090019E14F090002FE09079
:1052AC00019FF0A37415F012071CFF900030E0FE74
:1052BC0004F0749E2EF582E43401F583EFF0740152
:1052CC0029F9E43AFA12071C70DD900030E024FD55
:1052DC009001A0F090002CE0FBA3E0FAA3E0F99081
:1052EC0000051207356030900030E0FF04F0749E2A
:1052FC002FF582E43401F583742DF090000512072C
:10530C00352430FF900030E0FE04F0749E2EF582C0
:10531C00E43401F583EFF0900030E0FF04F0749E6C
:10532C002FF582E43401F583742EF090002CE0FB11
:10533C00A3E0FAA3E0F99000081207359000306062
:10534C0013E0FF04F0749E2FF582E43401F58374AE
:10535C004DF08011E0FF04F0749E2FF582E43401CF
:10536C00F5837443F0C2B27B017A01799E900030D0
:10537C00E0FD126125127AD57B017A01799E9000AD
:0F538C0030E0FD9000537401F0126FCA027AD521
:1034A50090004E7402F0900030F090002FE09000F4
:1034B50031F012071CFF90004EE0FE04F074302E30
:1034C500F582E43400F583EFF0740129F9E43AFA62
:1034D50012071C70DD90002CE0FBA3E0FAA3E0F9D5
:1034E50090000512073590004E602FE0FF04F07440
:1034F500302FF582E43400F583742DF09000051229
:1035050007352430FF90004EE0FE04F074302EF5B0
:1035150082E43400F583EFF08025E0FF04F0743099
:103525002FF582E43400F583742DF090004EE0FF12
:1035350004F074302FF582E43400F5837430F09094
:10354500002CE0FBA3E0FAA3E0F99000091207358F
:10355500540F640F90003170057443F08003747349
:10356500F090004EE0FF04F074302FF582E4340053
:10357500F583742DF012071C2430FF90004EE0FEF9
:1035850004F074302EF582E43400F583EFF09000FA
:10359500011207352430FF90004EE0FE04F0743030
:1035A5002EF582E43400F583EFF090000212073522
:1035B5002430FF90004EE0FE04F074302EF582E4D6
:1035C5003400F583EFF09000031207352430FF90A7
:1035D500004EE0FE04F074302EF582E43400F583ED
:1035E500EFF09000041207352430FF90004EE0FE06
:1035F50004F074302EF582E43400F583EFF090008A
:103605004EE0FF04F074302FF582E43400F5837446
:103615002DF090004EE02430F9E43400FA7B0112DD
:10362500628290004EE02430F582E43400F583E0B8
:103635002430FF90004EE0FE04F074302EF582E455
:103645003400F583EFF090004EE02430F582E43449
:1036550000F583E02430FF90004EE0FE04F0743066
:103665002EF582E43400F583EFF090004EE024302F
:10367500F582E43400F583E02430FF90004EE0FE4F
:1036850004F074302EF582E43400F583EFF09000F9
:103695004EE02430F582E43400F583E02430FF90D9
:1036A500004EE0FE04F074302EF582E43400F5831C
:1036B500EFF090004EE02430F582E43400F583E02D
:1036C5002430FF90004EE0FE04F074302EF582E4C5
:1036D5003400F583EFF090004EE0FF04F074302FD6
:1036E500F582E43400F583742EF090002CE0FBA302
:1036F500E0FAA3E0F990000812073590004E601338
:10370500E0FF04F074302FF582E43400F583744D46
:10371500F08011E0FF04F074302FF582E43400F5F9
:10372500837443F090004EE0FF04F074302FF5826F
:10373500E43400F5837403F0C2B230B3FD7B017A43
:1037450000793090004EE0FD126125127AD57B019B
:103755007A00793090004EE0FD9000537401F0122C
:053765006FCA027AD5D5
:107B2800C2B47F217E00127AF2D2B47F217E000295
:027B38007AF2DF
:066A3000900029EFF0FBCD
:106A3600D2B4C286E4A3F0A312086D00003A988B84
:106A4600A0C2B230B34390002AE0703DA3E0FCA39D
:106A5600E0FDA3E0FEA3E0FFEF24FFFFEE34FFFE20
:106A6600ED34FFFDEC34FFFC90002B120861900022
:106A76002BE0FCA3E0FDA3E0FEA3E0FFEC4D4E4FB0
:106A860070C190002A04F080BA90002AE0700C20B1
:106A9600B309900029E0F5A0127B28D2B2D2B4D275
:106AA6008675A0FF7F627E00127AF27F627E000208
:026AB6007AF272
:0A7B9900D2B4D2B2D28675A0FF224A
:10783D009000227402F0A37469F07B017A00792420
:10784D00125BF77F8B1267FF90002AEFF0A3740392
:0C785D00F07B017A0079227D0A0261258F
:10508000E4900032F09000227402F0A37444F09097
:10509000009074FFF0A3747BF0A374FCF0900132D5
:1050A000E0FFA3E0900093CFF0A3EFF07B017A0044
:1050B000792D1229E19000317402F0900032E02441
:1050C0002DF582E43400F583E0FF6017900031E0B5
:1050D0002422F582E43400F583EFF0900032E004FE
:1050E000F08018900031E02422F582E43400F5834A
:1050F000743BF0900031E004F08008900031E0044F
:10510000F080B890009074FFF0A3747BF0A374FC5F
:10511000F090012DE0FFA3E0900093CFF0A3EFF01B
:105120007B017A00792D1229E1E4900032F09000A1
:1051300032E0242DF582E43400F583E0FF6017901F
:105140000031E02422F582E43400F583EFF0900092
:1051500032E004F08018900031E02422F582E4343B
:1051600000F583743BF0900031E004F0800890007B
:1051700031E004F080B8900031E0FD2422F582E4B3
:105180003400F5837403F07B017A007922026125F3
:105D7E004461746F73204D46207265737075657340
:105D8E0074613A20004461746F73204D4620456E55
:105D9E00766961646F733A20002F2A2D2D2D2D2DDB
:105DAE002D2D2D2D2D2D2D2D2D2D2D2D2D2D2D2D15
:105DBE002D2D2D2D2D2D2D2D2D2D2D2D2D2D2D2D05
:105DCE002D2D2A2F0D0A00466563686120416374EC
:105DDE0075616C20656E20426F6172643A20000D11
:105DEE000A0D0A00526563696265207472616D6105
:105DFE002070746F20706172616C3D20000A0D007E
:105E0E006C6F6E6769747564206465206C612074B4
:105E1E0072616D613A200052656369626520747229
:0E5E2E00616D61204D6F6E69746F723D2000D2
:067A4400AE07EEC313FEC5
:107A4A00E4FFEFD3940774809480500C0000000088
:087A5A0000000000000F80EAAB
:017A62002201
:107AB300E4FFEFD3940474809480500A0000000024
:067AC3000000000F80EC42
:017AC900229A
:03733C004430FFDB
:02733F00AE0797
:10734100C2AFC290127A4A0000AD06EE5401FE703F
:1073510004C2908002D290127A4A7C01ECD3940745
:10736100748094805015EDC313FD5401FE7004C266
:10737100908002D290127A4A0C80E1D290127A4A1D
:05738100127A4AD2AFB0
:0173860022E4
:1074E900E4900029F0A3F0FEFBFA900123E0640187
:1074F9007033EFC39464748094804007749C2FFFA9
:107509000E80EFEFC3940A74809480400774F62FBD
:10751900FF0B80EFAA07EE12733CEB12733CEA44AF
:0575290030FF12733F6A
:01752E00223A
:0273D000AB0709
:1073D200900123E06401703CEB54F0C4540FFFD3DE
:1073E200940974809480400674372FFF80047430AF
:1073F2002FFF12733FEB540FFFD3940974809480D4
:10740200400674372FFF800474302FFF12733F7FC2
:047412002012733F92
:017416002253
:0E6FCA0090004FEBF0A3EAF0A3E9F0A3EDF086
:106FD800900123E06401705C900053E0FF3395E07A
:106FE800FEEF4E7BFF60067A5D797E80047A5D79DC
:106FF80093127392E4900054F0900052E0FF9000D6
:1070080054E0C39F502490004FE0FBA3E0FAA3E0B4
:10701800F912071CFF1273D0900050E475F00112AA
:1070280007EB900054E004F080CF7F0D12733F7F90
:047038000A12733F86
:01703C002231
:0B738700E0FF1273D07BFF7A5E790BF1
:0B739200900055EBF0A3EAF0A3E9F037
:10739D00E4A3F0900123E064017027900058F09071
:1073AD000055E0FBA3E0FAA3E0F9A3E0F5827583B5
:1073BD0000120735FF600B12733F900058E004F088
:0273CD0080DD61
:0173CF00229B
:0B7ACA00EBF0A3EAF0A3E9F0A3EDF05D
:097AD5007BFF7A5D79A702739230
:106AB8007EFF127AB3127A4A208005747FFF800421
:106AC800EE4480FF127A44EE208005547FFF800355
:106AD8004480FF127A44EE208005547FFF800344EF
:106AE80080FF127A44EE208005547FFF80034480A3
:106AF800FF127A44EE208005547FFF80034480FF14
:106B0800127A44EE208005547FFF80034480FF12F0
:106B18007A44EE208005547FFF80034480FF127A78
:106B280044EE208005547FFF80034480FFAE0712A7
:076B38007A4A3080FDAF0630
:016B3F002233
:10632800900033EBF0A3EAF0A3E9F07BFF7A5D7904
:10633800D5127392900033E0FBA3E0FAA3E0F912C0
:10634800071CFF1279A41273D07F2F12733F90009D
:1063580033E0FBA3E0FAA3E0F9900001120735FF50
:106368001279A41273D07F2F12733F900033E0FB91
:10637800A3E0FAA3E0F9900002120735FF1279A40E
:106388001273D07F2012733F900033E0FBA3E0FA32
:10639800A3E0F9900003120735FF1279A41273D015
:1063A8007F3A12733F900033E0FBA3E0FAA3E0F9D1
:1063B800900004120735FF1279A41273D07BFF7A7C
:0663C8005D79ED02739205
:057BF400D290D28022B6
:10772C00900021127ACA7BFF7A5D79F212739290E3
:10773C000021E0FBA3E0FAA3E0F9A3E0FD900053E5
:10774C007401F0126FCA12738C7BFF7A5E790E1281
:0B775C007392900024127387027AD50C
:10780B00900021127ACA7BFF7A5E792512739290CF
:10781B000021E0FBA3E0FAA3E0F912739212738C40
:10782B007BFF7A5E790E127392900024127387029B
:02783B007AD5FC
:0E6BAD00010F00011000010D00010E00C10BD0
:0300230002449DF7
:10449D00C0E0C083C082C0D075D000C000C004C0D1
:0544AD0005C006C00778
:1044B200209803024612C2989001C2E599F0C3E522
:1044C2000D950EFFE49400FEEF54F84E700DE0FFE0
:1044D200E50D54072422F8A607050D90011EE0FF02
:1044E2007E00D3943274809480400590012AE4F0D7
:1044F20090012AE014602F14605A14700302459848
:104502002403600302460D900129E0FD9001C2E000
:104512006D600302461290011EF0F50DF50E90013A
:104522002A04F00246129001C2E0FD90011EE0FC56
:1045320004F074EB2CF582E43400F583EDF0900185
:104542002FE0FD9000EBE090012AB505028042E4E5
:10455200F0024612EF64034E9001C2701CE0FE248A
:1045620002A3F090011EE0FF04F074EB2FF582E449
:104572003400F583EEF0024605E0FF90011EE0FEF6
:1045820004F074EB2EF582E43400F583EFF0900131
:104592002A7402F0807A9001C2E0FF90011EE0FED0
:1045A20004F074EB2EF582E43400F583EFF0900111
:1045B200C3E014F0E0704C90011EE024E9F582E4BF
:1045C2003400F583E0FF900131E0FEEF6E7032FFC0
:1045D200FE90011EE0FD14FCEEC39C501074EB2E05
:1045E200F582E43400F583E06FFF0E80E474EA2D77
:1045F200F582E43400F583E0B50704D209800C802B
:104602000A800890012A7403F0800590012AE4F0E0
:1046120030991AC299E50F65106010E51054012413
:0D46220054F8E6F5990510C20B8002D20B8A
:10462F00D007D006D005D004D000D0D0D082D08310
:03463F00D0E03296
:10786900D310AF01C3C0D012790DE4F50FF510F5AF
:107879000DF50EC29FD29EC29DD29CC298C299D2CA
:0A7889000BD2ACD2BCD0D092AF22DB
:10790D00D310AF01C3C0D0C299E4F50FF510C28EEC
:10791D00C2AB43878053890F438920758DF4758BD6
:08792D00F4D28ED0D092AF22FB
:10776700D310AF01C3C0D09000C0EFF0127B4CC361
:10777700EF94027480948040047FFF80199000C0CA
:10778700E0FFE50F54012454F8A607050F300B045A
:0B779700C20BD2997F00D0D092AF222D
:10795C00D310AF01C3C0D0127B3AEF70067EFF7F0D
:10796C00FF800EAF0E050EEF54072422F8E6FF7EC3
:06797C0000D0D092AF2202
:107B3A00D310AF01C3C0D0C3E50D950EFFD0D092CC
:027B4A00AF2268
:107B4C00D310AF01C3C0D0C3E50F9510FFD0D092B6
:027B5C00AF2256
:101E1A00496E6369616C697A612044697370656EA1
:101E2A007361646F720D0A0D0A00436865636B5F24
:101E3A005374617475730D0A0D0A00486162696C06
:101E4A0069746120496E73657273696F6E0D0A0D4C
:101E5A000A00496E686162696C69746120496E732F
:101E6A00657273696F6E0D0A0D0A004D6F766965AA
:101E7A006E646F205461726A6574612061205246F3
:101E8A000D0A0D0A004D6F7669656E646F20546104
:101E9A00726A65746120612049430D0A0D0A004D7A
:101EAA006F7669656E646F205461726A6574612029
:101EBA00612042657A656C0D0A0D0A0045787075D5
:101ECA006C73616E646F205461726A6574610D0A85
:101EDA000D0A00436170747572616E646F205461FB
:101EEA00726A6574610D0A0D0A004175745F436177
:101EFA0072645F636865636B5F5374617475730DB5
:101F0A000A0D0A00446F776E6C6F6164204D46209B
:101F1A00454570726F6D0D0A0D0A00436172676163
:101F2A002079205665726966696361206465204577
:101F3A004570726F6D0D0A0D0A004C6579656E6405
:101F4A006F204D46203E20536563746F723A20001D
:101F5A0020426C6F7175653A20000D0A0D0A004522
:101F6A00736372696265204D46203E20536563742F
:101F7A006F723A2000526573707565737461202020
:101F8A00444553434F4E4F43494441200D0A0049AB
:101F9A004E494349414C495A412053494E204D4FDD
:101FAA0056494D49454E544F204552524F520D0AFB
:101FBA000D0A0044697370656E7361646F72204E16
:101FCA006F20526573706F6E64652050544F2053B2
:101FDA0045524945202E2E2E0D0A0D0A00494E491A
:101FEA004349414C495A412053494E204D4F564985
:101FFA004D49454E544F204F4B0D0A0D0A00445788
:10200A004C4F415020454550524F4D204552524F5A
:10201A00520D0A0D0A0044574C4F41502045455075
:10202A00524F4D204F4B0D0A0D0A005254415F4347
:10203A004152445F504F53204552524F520D0A0DA0
:10204A000A005254415F434152445F504F53204F5C
:10205A004B0D0A0D0A004E6976656C2062616A6F43
:10206A00206465207461726A657461730D0A0D0AD1
:10207A00005461726A6574613A204175746F6D61CA
:10208A007469636F0050756C7361646F7220416389
:10209A007469766F0044697370656E7361646F72F8
:1020AA002053494E205441524A455441532E2E2E14
:1020BA00005461726A65746120656E206C612062E9
:1020CA006F6361005345515F434152445F494E5328
:1020DA00455243494F4E202046414C4C4F0D0A0D64
:1020EA000A00434152445F494E53455243494F4EB9
:1020FA00204552524F520D0A0D0A00434152445F85
:10210A00494E53455243494F4E204F4B0D0A0D0A33
:10211A0000434845434B205341545553204F4B0DE0
:10212A000A0D0A004E6F207469656E65207461722B
:10213A006A6574617320656E20656C206D656361E4
:10214A006E69736D6F0D0A0D0A005461726A6574C7
:10215A006120656E206C6120626F63610D0A0D0A51
:10216A00005461726A657461206C697374612070CD
:10217A00617261206C65657220656E2052460D0A97
:10218A000D0A005665686963756C6F20656E206577
:10219A006C206C6F6F700D0A0D0A005665686963D2
:1021AA00756C6F206E6F20656E20656C206C6F6F8A
:1021BA00700D0A0D0A005345515F5245515545535A
:1021CA00542046414C4C4F0D0A0D0A004469737065
:1021DA00656E7361646F72204E6F20526573706F03
:1021EA006E64652053455120524551554553542E2E
:1021FA002E2E0D0A0D0A005461726A6574612076EA
:10220A00616C696461204D4635300D0A0D0A00542F
:10221A0061726A65746120696E76616C69646120B5
:10222A006E6F206573204D4635300D0A0D0A004C3D
:10223A004F41442056455249465920454550524F30
:10224A004D204552524F520D0A0D0A004C4F41443F
:10225A002056455249465920454550524F4D204F28
:10226A004B0D0A0D0A005345515F52445F533142E8
:10227A0031204552524F520D0A0D0A005345515F03
:10228A0052445F53314231204F4B0D0A0D0A004927
:10229A00445F434C49454E54453A2000434F445FFE
:1022AA005041524B3A005449504F20444520544122
:1022BA00524A455441203120524F544143494F4ECE
:1022CA003A20005345515F52445F53314232204510
:1022DA0052524F520D0A0D0A005345515F52445F44
:1022EA0053314232204F4B0D0A0D0A004552524FCC
:1022FA00523A2053494E20494E475245534F0D0AF0
:10230A000D0A0053616C696461204175746F7269CA
:10231A007A6164610D0A0D0A004578636564652077
:10232A00542E4752414349410D0A0D0A005469652A
:10233A006D706F204772616369613A20005441529F
:10234A004A4554412053494E205041474F0D0A0DEA
:10235A000A005345515F52445F533142302045527F
:10236A00524F520D0A0D0A005345515F52445F53B2
:10237A00314230204F4B0D0A0D0A004E756D6572C1
:10238A006F205469636B65743A20005345515F5757
:10239A00525F53314232204552524F520D0A0D0AB2
:1023AA00005345515F57525F53314232204F4B0D14
:1023BA000A0D0A005345515F5254415F533242306D
:1023CA00204552524F520D0A0D0A005345515F5291
:1023DA0054415F53324230204F4B0D0A0D0A006FB1
:1023EA006B207461726A657461206F6B2E2E2E0DDC
:1023FA000A0D0A004E4F20454A4543542054415283
:10240A004A4554204552524F520D0A0D0A00454A78
:10241A00454354205441524A4554204F4B0D0A0D0E
:10242A000A005345515F52445F533142305F454A77
:0B243A00454354204F4B0D0A0D0A00D3
:086BBB0041019D3041019C00E5
:05646E00900022EFF098
:10647300E4A3F0EF64336011900022E0FF64306026
:1064830008EF6431600302650A7BFF7A1E791A12F2
:10649300739290002474F2F0E4A3F0A3F0A37403C6
:1064A300F0A37443F0A37430F0900022E090002A2C
:1064B300F0A37403F0E4FBEBC3940874809480505E
:1064C3001774242BF582E43400F583E0FE90002357
:1064D300E0FDEE6DF00B80DF900023E090002CF0E8
:1064E300C209E490012AF07B017A007924900053D9
:1064F300F07D09126FCA7B017A0079247D09127439
:07650300179000EA7464F038
:01650A00226E
:056F4E00900029EFF0A6
:106F53007BFF7A1E7934127392E4FF90002A74F255
:106F6300F0E4A3F0A3F0A37403F0A37443F0A374B9
:106F730031F0900029E0900030F0A37403F0E4FEB8
:106F8300EEC39408748094805010742A2EF582E422
:106F93003400F583E06FFF0E80E6900032EFF0C21D
:106FA30009E490012AF07B017A00792A900053F0DA
:106FB3007D09126FCA7B017A00792A7D0912741741
:066FC3009000EA7464F086
:016FC90022A5
:1066D300EF3395E0FEEF64304E7BFF700F7A1E7947
:1066E3004512739290002F7430F0800D7A1E795CFE
:1066F30012739290002F7431F0E4FF90002974F22A
:10670300F0E4A3F0A3F0A37403F0A37443F0A37421
:1067130033F09000307403F0E4FEEEC39408748009
:106723009480501074292EF582E43400F583E06FD1
:10673300FF0E80E6900031EFF0C209E490012AF0E9
:106743007B017A007929900053F07D09126FCA7B8F
:10675300017A0079297D091274179000EA7464F0B4
:016763002213
:05587800900029EFF093
:10587D00E4A3F0EF6432601B900029E0FF64316017
:10588D0012EF6430600DEF64396008EF643360032C
:10589D00025961900029E0B432087BFF7A1E7975B8
:1058AD00803A900029E0B431087BFF7A1E798F8011
:1058BD002B900029E0B430087BFF7A1E79A9801C5B
:1058CD00900029E0B439087BFF7A1E79C6800D90CF
:1058DD000029E0B433097BFF7A1E79DD12739290B3
:1058ED00002B74F2F0E4A3F0A3F0A37403F0A374FF
:1058FD0043F0A37432F0900029E0900031F0A374CE
:10590D0003F0E4FBEBC39408748094805017742B60
:10591D002BF582E43400F583E0FE90002AE0FDEEE5
:10592D006DF00B80DF90002AE0900033F0C209E4A7
:10593D0090012AF07B017A00792B900053F07D09BC
:10594D00126FCA7B017A00792B7D091274179000B2
:04595D00EA7464F094
:015961002223
:106ECE00E4900029F07BFF7A1E79F4127392900001
:106EDE002A74F2F0E4A3F0A3F0A37403F0A37443B6
:106EEE00F0A37450F0A37431F0A37403F0E4FBEB41
:106EFE00C39408748094805017742A2BF582E4345E
:106F0E0000F583E0FE900029E0FDEE6DF00B80DFD2
:106F1E00900029E0900032F0C209E490012AF07B43
:106F2E00017A00792A900053F07D09126FCA7B0115
:0F6F3E007A00792A7D091274179000EA7464F0C2
:016F4D002221
:1061D900E4900022F07BFF7A1F790E1273929000EF
:1061E9002374F2F0E4A3F0A3F0A3740EF0A37443B4
:1061F900F0A37460F0A37433F0E4A3F0A374D0F0B7
:10620900E4A3F0A304F0A37406F0A37433F0A37419
:1062190056F0A37430F0A37470F0A37434F0A3742F
:1062290072F0A37403F0E4FBEBC3941374809480BD
:10623900501774232BF582E43400F583E0FE9000B7
:1062490022E0FDEE6DF00B80DF900022E090003639
:10625900F0C209E490012AF07B017A0079239000C9
:1062690053F07D14126FCA7B017A0079237D1412D1
:0862790074179000EA7464F050
:0162810022FA
:10676400E4900029F07BFF7A1F7925127392900040
:106774002A74F2F0E4A3F0A3F0A37407F0A3744323
:10678400F0A37460F0A37433F0E4A3F0A37421F0D5
:10679400E4A3F0A304F0A37403F0A374C6F0E4FB31
:1067A400EBC3940D748094805017742A2BF582E403
:1067B4003400F583E0FE900029E0FDEE6DF00B80DF
:1067C400DF900029E0900037F0C209E490012AF03C
:1067D4007B017A00792A900053F07D0E126FCA7BF8
:1067E400017A00792A7D0E1274179000EA7464F01D
:0167F4002282
:085CBB00900029EFF0A3EDF0C9
:105CC300E4A3F07BFF7A1F7944127392900029E0DA
:105CD300FF1273D07BFF7A1F795A12739290002AB6
:105CE300E0FF1273D07BFF7A1F79641273929000E6
:105CF3002C74F2F0E4A3F0A3F0A37408F0A37443AC
:105D0300F0A37460F0A37433F0E4A3F0A374B0F0D1
:105D1300900029E0900035F090002AE0900036F0E2
:105D2300A37401F0A37403F0E4FBEBC3940D74803C
:105D330094805017742C2BF582E43400F583E0FE35
:105D430090002BE0FDEE6DF00B80DF90002BE090D8
:105D53000039F0C209E490012AF07B017A00792C22
:105D6300900053F07D0E126FCA7B017A00792C7D6F
:0A5D73000E1274179000EA7464F039
:015D7D002203
:104A7D00900029EFF0A3EDF0A3EBF0A3EAF0A3E98A
:014A8D00F038
:104A8E00E490002FF07BFF7A1F79691273929000E9
:104A9E0029E0FF1273D07BFF7A1F795A127392901E
:104AAE00002AE0FF1273D07BFF7A1F796412739293
:104ABE0090003074F2F0E4A3F0A3F0A37418F0A306
:104ACE007443F0A37460F0A37433F0E4A3F0A37402
:104ADE00D1F0900029E0FF900039F090002AE0908C
:104AEE00003AF0A37401F0EF6402603EE4A3F0A379
:104AFE00F0A3F0A3F0A3F0A3F0A3F0A3F090002B8B
:104B0E00E0FBA3E0FAA3E0F912071C900044F012B8
:104B1E007B16EF540F900045F0A37402F0E4A3F05F
:104B2E00A3F0A3F0A3F0A3F0802890002E740CF055
:104B3E0090002EE0FFD3941C748094805014743037
:104B4E002FF582E43400F583E4F090002EE004F0BB
:104B5E0080DE90004C7403F0E490002EF090002E56
:104B6E00E0FFD3941C74809480501DA3E0FE74303B
:104B7E002FF582E43400F583E0FFEE6F90002FF006
:104B8E0090002EE004F080D590002FE090004DF0C4
:104B9E00C209E490012AF07B017A0079309000532B
:104BAE00F07D1E126FCA7B017A0079307D1E127461
:074BBE00179000EA7464F097
:014BC50022CD
:1077D8007F029000EAE06401600330092530092047
:1077E800C2099000EFE0FEB45003E4FF22EEB44E6D
:1077F800037F03227BFF7A1F797F1273927F032214
:027808007F01FE
:01780A00225B
:104D040090019DE07003024E3424CF6020147003A0
:104D1400024DAF147003024DBA24036003024E3AED
:104D24007F3312646E90019D7431F0FF221277D8A4
:104D3400900021EFF03395E04F604AE0FF3395E0B7
:104D4400FEEF64024E700990019D7431F0024E34FE
:104D5400EF64034E7BFF701D7A1F79991273927B67
:104D6400017A0079EB90011EE0FD9000537401F08C
:104D7400126FCA80077A1F79BD12739290019D74D5
:104D840030F0024E347BFF7A1F79E71273927B0175
:104D94007A0079EB90011EE0FD9000537401F0124B
:104DA4006FCA90019D7432F0024E341261D99001A1
:104DB4009D7433F0FF221277D8900021EFF03395E1
:104DC400E04F6048E0FF3395E0FEEF64024E700868
:104DD40090019D7433F08056EF64034E7BFF701D89
:104DE4007A2079081273927B017A0079EB90011E84
